{"abi":[{"type":"constructor","inputs":[],"stateMutability":"nonpayable"},{"type":"function","name":"RECOMMENDED_SLOT","inputs":[],"outputs":[{"name":"","type":"bytes32","internalType":"bytes32"}],"stateMutability":"view"},{"type":"function","name":"REQUIRED_SLOT","inputs":[],"outputs":[{"name":"","type":"bytes32","internalType":"bytes32"}],"stateMutability":"view"},{"type":"function","name":"VERSION","inputs":[],"outputs":[{"name":"","type":"uint256","internalType":"uint256"}],"stateMutability":"view"},{"type":"function","name":"initialize","inputs":[{"name":"_owner","type":"address","internalType":"address"},{"name":"_required","type":"uint256","internalType":"ProtocolVersion"},{"name":"_recommended","type":"uint256","internalType":"ProtocolVersion"}],"outputs":[],"stateMutability":"nonpayable"},{"type":"function","name":"owner","inputs":[],"outputs":[{"name":"","type":"address","internalType":"address"}],"stateMutability":"view"},{"type":"function","name":"recommended","inputs":[],"outputs":[{"name":"out_","type":"uint256","internalType":"ProtocolVersion"}],"stateMutability":"view"},{"type":"function","name":"renounceOwnership","inputs":[],"outputs":[],"stateMutability":"nonpayable"},{"type":"function","name":"required","inputs":[],"outputs":[{"name":"out_","type":"uint256","internalType":"ProtocolVersion"}],"stateMutability":"view"},{"type":"function","name":"setRecommended","inputs":[{"name":"_recommended","type":"uint256","internalType":"ProtocolVersion"}],"outputs":[],"stateMutability":"nonpayable"},{"type":"function","name":"setRequired","inputs":[{"name":"_required","type":"uint256","internalType":"ProtocolVersion"}],"outputs":[],"stateMutability":"nonpayable"},{"type":"function","name":"transferOwnership","inputs":[{"name":"newOwner","type":"address","internalType":"address"}],"outputs":[],"stateMutability":"nonpayable"},{"type":"function","name":"version","inputs":[],"outputs":[{"name":"","type":"string","internalType":"string"}],"stateMutability":"view"},{"type":"event","name":"ConfigUpdate","inputs":[{"name":"version","type":"uint256","indexed":true,"internalType":"uint256"},{"name":"updateType","type":"uint8","indexed":true,"internalType":"enum ProtocolVersions.UpdateType"},{"name":"data","type":"bytes","indexed":false,"internalType":"bytes"}],"anonymous":false},{"type":"event","name":"Initialized","inputs":[{"name":"version","type":"uint8","indexed":false,"internalType":"uint8"}],"anonymous":false},{"type":"event","name":"OwnershipTransferred","inputs":[{"name":"previousOwner","type":"address","indexed":true,"internalType":"address"},{"name":"newOwner","type":"address","indexed":true,"internalType":"address"}],"anonymous":false}],"bytecode":{"object":"0x608060405234801561001057600080fd5b5061001961001e565b6100de565b600054610100900460ff161561008a5760405162461bcd60e51b815260206004820152602760248201527f496e697469616c697a61626c653a20636f6e747261637420697320696e697469604482015266616c697a696e6760c81b606482015260840160405180910390fd5b60005460ff90811610156100dc576000805460ff191660ff9081179091556040519081527f7f26b83ff96e1f2b6a682f133852f6798a09c465da95921460cefb38474024989060200160405180910390a15b565b610a03806100ed6000396000f3fe608060405234801561001057600080fd5b50600436106100d45760003560e01c80638da5cb5b11610081578063f2fde38b1161005b578063f2fde38b146101b8578063f7d12760146101cb578063ffa1ad74146101d357600080fd5b80638da5cb5b14610180578063d798b1ac146101a8578063dc8452cd146101b057600080fd5b80635fd579af116100b25780635fd579af14610152578063715018a6146101655780637a1ac61e1461016d57600080fd5b80630457d6f2146100d9578063206a8300146100ee57806354fd4d5014610109575b600080fd5b6100ec6100e73660046108a3565b6101db565b005b6100f66101ef565b6040519081526020015b60405180910390f35b6101456040518060400160405280600581526020017f312e312e3000000000000000000000000000000000000000000000000000000081525081565b6040516101009190610927565b6100ec6101603660046108a3565b61021d565b6100ec61022e565b6100ec61017b36600461096a565b610242565b60335460405173ffffffffffffffffffffffffffffffffffffffff9091168152602001610100565b6100f66103f7565b6100f6610430565b6100ec6101c636600461099d565b610460565b6100f6610514565b6100f6600081565b6101e361053f565b6101ec816105c0565b50565b61021a60017f4aaefe95bd84fd3f32700cf3b7566bc944b73138e41958b5785826df2aecace16109b8565b81565b61022561053f565b6101ec81610678565b61023661053f565b61024060006106f2565b565b600054610100900460ff16158080156102625750600054600160ff909116105b8061027c5750303b15801561027c575060005460ff166001145b61030d576040517f08c379a000000000000000000000000000000000000000000000000000000000815260206004820152602e60248201527f496e697469616c697a61626c653a20636f6e747261637420697320616c72656160448201527f647920696e697469616c697a656400000000000000000000000000000000000060648201526084015b60405180910390fd5b600080547fffffffffffffffffffffffffffffffffffffffffffffffffffffffffffffff00166001179055801561036b57600080547fffffffffffffffffffffffffffffffffffffffffffffffffffffffffffff00ff166101001790555b610373610769565b61037c84610460565b610385836105c0565b61038e82610678565b80156103f157600080547fffffffffffffffffffffffffffffffffffffffffffffffffffffffffffff00ff169055604051600181527f7f26b83ff96e1f2b6a682f133852f6798a09c465da95921460cefb38474024989060200160405180910390a15b50505050565b600061042b61042760017fe314dfc40f0025322aacc0ba8ef420b62fb3b702cf01e0cdf3d829117ac2ff1b6109b8565b5490565b905090565b600061042b61042760017f4aaefe95bd84fd3f32700cf3b7566bc944b73138e41958b5785826df2aecace16109b8565b61046861053f565b73ffffffffffffffffffffffffffffffffffffffff811661050b576040517f08c379a000000000000000000000000000000000000000000000000000000000815260206004820152602660248201527f4f776e61626c653a206e6577206f776e657220697320746865207a65726f206160448201527f64647265737300000000000000000000000000000000000000000000000000006064820152608401610304565b6101ec816106f2565b61021a60017fe314dfc40f0025322aacc0ba8ef420b62fb3b702cf01e0cdf3d829117ac2ff1b6109b8565b60335473ffffffffffffffffffffffffffffffffffffffff163314610240576040517f08c379a000000000000000000000000000000000000000000000000000000000815260206004820181905260248201527f4f776e61626c653a2063616c6c6572206973206e6f7420746865206f776e65726044820152606401610304565b6105f36105ee60017f4aaefe95bd84fd3f32700cf3b7566bc944b73138e41958b5785826df2aecace16109b8565b829055565b60008160405160200161060891815260200190565b604080517fffffffffffffffffffffffffffffffffffffffffffffffffffffffffffffffe0818403018152919052905060005b60007f1d2b0bda21d56b8bd12d4f94ebacffdfb35f5e226f84b461103bb8beab6353be8360405161066c9190610927565b60405180910390a35050565b6106a66105ee60017fe314dfc40f0025322aacc0ba8ef420b62fb3b702cf01e0cdf3d829117ac2ff1b6109b8565b6000816040516020016106bb91815260200190565b604080517fffffffffffffffffffffffffffffffffffffffffffffffffffffffffffffffe08184030181529190529050600161063b565b6033805473ffffffffffffffffffffffffffffffffffffffff8381167fffffffffffffffffffffffff0000000000000000000000000000000000000000831681179093556040519116919082907f8be0079c531659141344cd1fd0a4f28419497f9722a3daafe3b4186f6b6457e090600090a35050565b600054610100900460ff16610800576040517f08c379a000000000000000000000000000000000000000000000000000000000815260206004820152602b60248201527f496e697469616c697a61626c653a20636f6e7472616374206973206e6f74206960448201527f6e697469616c697a696e670000000000000000000000000000000000000000006064820152608401610304565b610240600054610100900460ff1661089a576040517f08c379a000000000000000000000000000000000000000000000000000000000815260206004820152602b60248201527f496e697469616c697a61626c653a20636f6e7472616374206973206e6f74206960448201527f6e697469616c697a696e670000000000000000000000000000000000000000006064820152608401610304565b610240336106f2565b6000602082840312156108b557600080fd5b5035919050565b6000815180845260005b818110156108e2576020818501810151868301820152016108c6565b818111156108f4576000602083870101525b50601f017fffffffffffffffffffffffffffffffffffffffffffffffffffffffffffffffe0169290920160200192915050565b60208152600061093a60208301846108bc565b9392505050565b803573ffffffffffffffffffffffffffffffffffffffff8116811461096557600080fd5b919050565b60008060006060848603121561097f57600080fd5b61098884610941565b95602085013595506040909401359392505050565b6000602082840312156109af57600080fd5b61093a82610941565b6000828210156109f1577f4e487b7100000000000000000000000000000000000000000000000000000000600052601160045260246000fd5b50039056fea164736f6c634300080f000a","linkReferences":{}},"methodIdentifiers":{"RECOMMENDED_SLOT()":"f7d12760","REQUIRED_SLOT()":"206a8300","VERSION()":"ffa1ad74","initialize(address,uint256,uint256)":"7a1ac61e","owner()":"8da5cb5b","recommended()":"d798b1ac","renounceOwnership()":"715018a6","required()":"dc8452cd","setRecommended(uint256)":"5fd579af","setRequired(uint256)":"0457d6f2","transferOwnership(address)":"f2fde38b","version()":"54fd4d50"},"storageLayout":{"storage":[{"astId":50050,"contract":"src/L1/ProtocolVersions.sol:ProtocolVersions","label":"_initialized","offset":0,"slot":"0","type":"t_uint8"},{"astId":50053,"contract":"src/L1/ProtocolVersions.sol:ProtocolVersions","label":"_initializing","offset":1,"slot":"0","type":"t_bool"},{"astId":50478,"contract":"src/L1/ProtocolVersions.sol:ProtocolVersions","label":"__gap","offset":0,"slot":"1","type":"t_array(t_uint256)50_storage"},{"astId":49922,"contract":"src/L1/ProtocolVersions.sol:ProtocolVersions","label":"_owner","offset":0,"slot":"51","type":"t_address"},{"astId":50042,"contract":"src/L1/ProtocolVersions.sol:ProtocolVersions","label":"__gap","offset":0,"slot":"52","type":"t_array(t_uint256)49_storage"}],"types":{"t_address":{"encoding":"inplace","label":"address","numberOfBytes":"20"},"t_array(t_uint256)49_storage":{"encoding":"inplace","label":"uint256[49]","numberOfBytes":"1568","base":"t_uint256"},"t_array(t_uint256)50_storage":{"encoding":"inplace","label":"uint256[50]","numberOfBytes":"1600","base":"t_uint256"},"t_bool":{"encoding":"inplace","label":"bool","numberOfBytes":"1"},"t_uint256":{"encoding":"inplace","label":"uint256","numberOfBytes":"32"},"t_uint8":{"encoding":"inplace","label":"uint8","numberOfBytes":"1"}}},"userdoc":{"version":1,"kind":"user","methods":{"RECOMMENDED_SLOT()":{"notice":"Storage slot that the recommended protocol version is stored at."},"REQUIRED_SLOT()":{"notice":"Storage slot that the required protocol version is stored at."},"VERSION()":{"notice":"Version identifier, used for upgrades."},"constructor":{"notice":"Constructs the ProtocolVersion contract."},"initialize(address,uint256,uint256)":{"notice":"Initializer."},"recommended()":{"notice":"High level getter for the recommended protocol version."},"required()":{"notice":"High level getter for the required protocol version."},"setRecommended(uint256)":{"notice":"Updates the recommended protocol version. Can only be called by the owner."},"setRequired(uint256)":{"notice":"Updates the required protocol version. Can only be called by the owner."},"version()":{"notice":"Semantic version."}},"events":{"ConfigUpdate(uint256,uint8,bytes)":{"notice":"Emitted when configuration is updated."}},"notice":"The ProtocolVersions contract is used to manage superchain protocol version information."},"devdoc":{"version":1,"kind":"dev","methods":{"initialize(address,uint256,uint256)":{"params":{"_owner":"Initial owner of the contract.","_recommended":"Recommended protocol version to operate on thi chain.","_required":"Required protocol version to operate on this chain."}},"owner()":{"details":"Returns the address of the current owner."},"recommended()":{"returns":{"out_":"Recommended protocol version to sync to the head of the chain."}},"renounceOwnership()":{"details":"Leaves the contract without owner. It will not be possible to call `onlyOwner` functions anymore. Can only be called by the current owner. NOTE: Renouncing ownership will leave the contract without an owner, thereby removing any functionality that is only available to the owner."},"required()":{"returns":{"out_":"Required protocol version to sync to the head of the chain."}},"setRecommended(uint256)":{"params":{"_recommended":"New recommended protocol version."}},"setRequired(uint256)":{"params":{"_required":"New required protocol version."}},"transferOwnership(address)":{"details":"Transfers ownership of the contract to a new account (`newOwner`). Can only be called by the current owner."}},"events":{"ConfigUpdate(uint256,uint8,bytes)":{"params":{"data":"Encoded update data.","updateType":"Type of update.","version":"ProtocolVersion version."}}},"title":"ProtocolVersions"},"id":225}