{"abi":[{"type":"receive","stateMutability":"payable"},{"type":"function","name":"createGameWithClaims","inputs":[{"name":"_dgf","type":"address","internalType":"contract IDisputeGameFactory"},{"name":"_gameType","type":"uint32","internalType":"GameType"},{"name":"_rootClaim","type":"bytes32","internalType":"Claim"},{"name":"_extraData","type":"bytes","internalType":"bytes"},{"name":"_moves","type":"tuple[]","internalType":"struct GameHelper.Move[]","components":[{"name":"parentIdx","type":"uint256","internalType":"uint256"},{"name":"claim","type":"bytes32","internalType":"Claim"},{"name":"attack","type":"bool","internalType":"bool"}]}],"outputs":[{"name":"gameAddr_","type":"address","internalType":"address"}],"stateMutability":"payable"},{"type":"function","name":"performMoves","inputs":[{"name":"_game","type":"address","internalType":"contract IFaultDisputeGame"},{"name":"_moves","type":"tuple[]","internalType":"struct GameHelper.Move[]","components":[{"name":"parentIdx","type":"uint256","internalType":"uint256"},{"name":"claim","type":"bytes32","internalType":"Claim"},{"name":"attack","type":"bool","internalType":"bool"}]}],"outputs":[],"stateMutability":"payable"}],"bytecode":{"object":"0x6080604052348015600e575f80fd5b506108598061001c5f395ff3fe60806040526004361061002b575f3560e01c8063f25792cd14610036578063fd7cf8591461004b575f80fd5b3661003257005b5f80fd5b610049610044366004610492565b610087565b005b61005e610059366004610570565b6102ed565b60405173ffffffffffffffffffffffffffffffffffffffff909116815260200160405180910390f35b805f5b818110156102e6575f8484838181106100a5576100a5610671565b9050606002018036038101906100bb919061069e565b80516040517fc6f0308c0000000000000000000000000000000000000000000000000000000081529192505f91829173ffffffffffffffffffffffffffffffffffffffff8a169163c6f0308c916101189160040190815260200190565b60e060405180830381865afa158015610133573d5f803e3d5ffd5b505050506040513d601f19601f82011682018060405250810190610157919061071f565b5095509550505050505f8873ffffffffffffffffffffffffffffffffffffffff1663c395e1ca6101a68660400151856fffffffffffffffffffffffffffffffff1661041e90919063ffffffff16565b6040517fffffffff0000000000000000000000000000000000000000000000000000000060e084901b1681526fffffffffffffffffffffffffffffffff9091166004820152602401602060405180830381865afa158015610209573d5f803e3d5ffd5b505050506040513d601f19601f8201168201806040525081019061022d91906107ac565b8451602086015160408088015190517f6f03440900000000000000000000000000000000000000000000000000000000815293945073ffffffffffffffffffffffffffffffffffffffff8d1693636f0344099386936102a8938a93600401938452602084019290925260408301521515606082015260800190565b5f604051808303818588803b1580156102bf575f80fd5b505af11580156102d1573d5f803e3d5ffd5b50506001909701965061008a95505050505050565b5050505050565b6040517f6593dc6e00000000000000000000000000000000000000000000000000000000815263ffffffff861660048201525f90819073ffffffffffffffffffffffffffffffffffffffff891690636593dc6e90602401602060405180830381865afa15801561035f573d5f803e3d5ffd5b505050506040513d601f19601f8201168201806040525081019061038391906107ac565b90508773ffffffffffffffffffffffffffffffffffffffff166382ecf2f6828989896040518563ffffffff1660e01b81526004016103c3939291906107c3565b60206040518083038185885af11580156103df573d5f803e3d5ffd5b50505050506040513d601f19601f82011682018060405250810190610404919061082a565b915081610412818686610087565b50509695505050505050565b151760011b90565b73ffffffffffffffffffffffffffffffffffffffff81168114610447575f80fd5b50565b5f8083601f84011261045a575f80fd5b50813567ffffffffffffffff811115610471575f80fd5b60208301915083602060608302850101111561048b575f80fd5b9250929050565b5f805f604084860312156104a4575f80fd5b83356104af81610426565b9250602084013567ffffffffffffffff8111156104ca575f80fd5b6104d68682870161044a565b9497909650939450505050565b63ffffffff81168114610447575f80fd5b7f4e487b71000000000000000000000000000000000000000000000000000000005f52604160045260245ffd5b604051601f82017fffffffffffffffffffffffffffffffffffffffffffffffffffffffffffffffe016810167ffffffffffffffff81118282101715610568576105686104f4565b604052919050565b5f805f805f8060a08789031215610585575f80fd5b863561059081610426565b95506020878101356105a1816104e3565b955060408801359450606088013567ffffffffffffffff808211156105c4575f80fd5b818a0191508a601f8301126105d7575f80fd5b8135818111156105e9576105e96104f4565b610619847fffffffffffffffffffffffffffffffffffffffffffffffffffffffffffffffe0601f84011601610521565b8181528c8583860101111561062c575f80fd5b81858501868301375f9181019094015291945060808901359180831115610651575f80fd5b505061065f89828a0161044a565b979a9699509497509295939492505050565b7f4e487b71000000000000000000000000000000000000000000000000000000005f52603260045260245ffd5b5f606082840312156106ae575f80fd5b6040516060810181811067ffffffffffffffff821117156106d1576106d16104f4565b80604052508235815260208301356020820152604083013580151581146106f6575f80fd5b60408201529392505050565b6fffffffffffffffffffffffffffffffff81168114610447575f80fd5b5f805f805f805f60e0888a031215610735575f80fd5b8751610740816104e3565b602089015190975061075181610426565b604089015190965061076281610426565b606089015190955061077381610702565b608089015160a08a0151919550935061078b81610702565b60c089015190925061079c81610702565b8091505092959891949750929550565b5f602082840312156107bc575f80fd5b5051919050565b63ffffffff84168152826020820152606060408201525f82518060608401528060208501608085015e5f6080828501015260807fffffffffffffffffffffffffffffffffffffffffffffffffffffffffffffffe0601f830116840101915050949350505050565b5f6020828403121561083a575f80fd5b815161084581610426565b939250505056fea164736f6c6343000819000a","linkReferences":{}},"methodIdentifiers":{"createGameWithClaims(address,uint32,bytes32,bytes,(uint256,bytes32,bool)[])":"fd7cf859","performMoves(address,(uint256,bytes32,bool)[])":"f25792cd"},"storageLayout":{"storage":[],"types":{}},"userdoc":{"version":1,"kind":"user","methods":{"createGameWithClaims(address,uint32,bytes32,bytes,(uint256,bytes32,bool)[])":{"notice":"Creates a new game and performs the specified moves in it."},"performMoves(address,(uint256,bytes32,bool)[])":{"notice":"Performs the specified set of moves in the supplied dispute game."}},"notice":"GameHelper is a util contract for testing to perform multiple moves in a dispute game in a single transaction. Note that it is unsafe to use in production as the bonds paid cannot be recovered."},"devdoc":{"version":1,"kind":"dev","methods":{"createGameWithClaims(address,uint32,bytes32,bytes,(uint256,bytes32,bool)[])":{"params":{"_dgf":"the DisputeGameFactory to create a game in.","_extraData":"the extra data for the new game.","_gameType":"the type of game to create.","_moves":"the array of moves to perform in the new game.","_rootClaim":"the root claim of the new game."},"returns":{"gameAddr_":"the address of the newly created game."}},"performMoves(address,(uint256,bytes32,bool)[])":{"params":{"_game":"the game to perform moves in.","_moves":"the moves to perform."}}},"title":"GameHelper"},"id":164}