{"abi":[{"type":"function","name":"getGameTypes","inputs":[],"outputs":[{"name":"cannon","type":"uint32","internalType":"uint32"},{"name":"permissioned","type":"uint32","internalType":"uint32"}],"stateMutability":"pure"},{"type":"function","name":"testConditionalLogic","inputs":[{"name":"disputeGameType","type":"uint32","internalType":"uint32"}],"outputs":[{"name":"","type":"uint8","internalType":"enum GameTypeLogicTest.DeploymentType"}],"stateMutability":"pure"}],"bytecode":{"object":"0x6080604052348015600e575f80fd5b5060f48061001b5f395ff3fe6080604052348015600e575f80fd5b50600436106030575f3560e01c8063951ea188146034578063cba4072414604d575b5f80fd5b604080515f815260016020820152015b60405180910390f35b605c60583660046081565b6067565b6040516044919060a9565b5f63ffffffff8216607957505f919050565b506001919050565b5f602082840312156090575f80fd5b813563ffffffff8116811460a2575f80fd5b9392505050565b602081016002831060e1577f4e487b71000000000000000000000000000000000000000000000000000000005f52602160045260245ffd5b9190529056fea164736f6c6343000819000a","linkReferences":{}},"methodIdentifiers":{"getGameTypes()":"951ea188","testConditionalLogic(uint32)":"cba40724"},"storageLayout":{"storage":[],"types":{}},"userdoc":{"version":1,"kind":"user"},"devdoc":{"version":1,"kind":"dev","details":"Simple test contract to verify our conditional game deployment logic","title":"GameTypeLogicTest"},"id":201}