{"abi":[{"type":"constructor","inputs":[],"stateMutability":"nonpayable"},{"type":"function","name":"attentionTests","inputs":[{"name":"","type":"address","internalType":"address"}],"outputs":[{"name":"stateRoot","type":"bytes32","internalType":"bytes32"},{"name":"bondAmount","type":"uint96","internalType":"uint96"},{"name":"challengerAddress","type":"address","internalType":"address"},{"name":"l1BlockNumber","type":"uint64","internalType":"uint64"},{"name":"evidenceSubmitted","type":"bool","internalType":"bool"}],"stateMutability":"view"},{"type":"function","name":"challengers","inputs":[{"name":"","type":"address","internalType":"address"}],"outputs":[{"name":"stakingAmount","type":"uint256","internalType":"uint256"},{"name":"totalSlashedAmount","type":"uint256","internalType":"uint256"},{"name":"validatorIndex","type":"uint32","internalType":"uint32"},{"name":"isValid","type":"bool","internalType":"bool"}],"stateMutability":"view"},{"type":"function","name":"disputeGameFactory","inputs":[],"outputs":[{"name":"","type":"address","internalType":"contract IDisputeGameFactory"}],"stateMutability":"view"},{"type":"function","name":"evidenceSubmissionPeriod","inputs":[],"outputs":[{"name":"","type":"uint256","internalType":"uint256"}],"stateMutability":"view"},{"type":"function","name":"getChallengerInfo","inputs":[{"name":"_challenger","type":"address","internalType":"address"}],"outputs":[{"name":"","type":"tuple","internalType":"struct RAT.ChallengerInfo","components":[{"name":"stakingAmount","type":"uint256","internalType":"uint256"},{"name":"totalSlashedAmount","type":"uint256","internalType":"uint256"},{"name":"validatorIndex","type":"uint32","internalType":"uint32"},{"name":"isValid","type":"bool","internalType":"bool"}]}],"stateMutability":"view"},{"type":"function","name":"getValidChallengerCount","inputs":[],"outputs":[{"name":"","type":"uint256","internalType":"uint256"}],"stateMutability":"view"},{"type":"function","name":"initVersion","inputs":[],"outputs":[{"name":"","type":"uint8","internalType":"uint8"}],"stateMutability":"view"},{"type":"function","name":"initialize","inputs":[{"name":"_disputeGameFactory","type":"address","internalType":"contract IDisputeGameFactory"},{"name":"_perTestBondAmount","type":"uint256","internalType":"uint256"},{"name":"_evidenceSubmissionPeriod","type":"uint256","internalType":"uint256"},{"name":"_minimumStakingBalance","type":"uint256","internalType":"uint256"},{"name":"_ratTriggerProbability","type":"uint256","internalType":"uint256"},{"name":"_manager","type":"address","internalType":"address"}],"outputs":[],"stateMutability":"payable"},{"type":"function","name":"minimumStakingBalance","inputs":[],"outputs":[{"name":"","type":"uint256","internalType":"uint256"}],"stateMutability":"view"},{"type":"function","name":"perTestBondAmount","inputs":[],"outputs":[{"name":"","type":"uint256","internalType":"uint256"}],"stateMutability":"view"},{"type":"function","name":"proxyAdmin","inputs":[],"outputs":[{"name":"","type":"address","internalType":"contract IProxyAdmin"}],"stateMutability":"view"},{"type":"function","name":"proxyAdminOwner","inputs":[],"outputs":[{"name":"","type":"address","internalType":"address"}],"stateMutability":"view"},{"type":"function","name":"ratManager","inputs":[],"outputs":[{"name":"","type":"address","internalType":"address"}],"stateMutability":"view"},{"type":"function","name":"ratTriggerProbability","inputs":[],"outputs":[{"name":"","type":"uint256","internalType":"uint256"}],"stateMutability":"view"},{"type":"function","name":"resolveClaim","inputs":[{"name":"_claimant","type":"address","internalType":"address"}],"outputs":[],"stateMutability":"nonpayable"},{"type":"function","name":"setEvidenceSubmissionPeriod","inputs":[{"name":"_period","type":"uint256","internalType":"uint256"}],"outputs":[],"stateMutability":"nonpayable"},{"type":"function","name":"setMinimumStakingBalance","inputs":[{"name":"_balance","type":"uint256","internalType":"uint256"}],"outputs":[],"stateMutability":"nonpayable"},{"type":"function","name":"setPerTestBondAmount","inputs":[{"name":"_amount","type":"uint256","internalType":"uint256"}],"outputs":[],"stateMutability":"nonpayable"},{"type":"function","name":"setRatTriggerProbability","inputs":[{"name":"_probability","type":"uint256","internalType":"uint256"}],"outputs":[],"stateMutability":"nonpayable"},{"type":"function","name":"stake","inputs":[],"outputs":[],"stateMutability":"payable"},{"type":"function","name":"submitCorrectEvidence","inputs":[{"name":"_gameAddress","type":"address","internalType":"address"},{"name":"_proofLV","type":"bytes32","internalType":"bytes32"},{"name":"_proofRV","type":"bytes32","internalType":"bytes32"}],"outputs":[],"stateMutability":"nonpayable"},{"type":"function","name":"triggerAttentionTest","inputs":[{"name":"_gameAddress","type":"address","internalType":"address"},{"name":"_stateRoot","type":"bytes32","internalType":"bytes32"},{"name":"_blockHash","type":"bytes32","internalType":"bytes32"}],"outputs":[],"stateMutability":"nonpayable"},{"type":"function","name":"validChallengers","inputs":[{"name":"","type":"uint256","internalType":"uint256"}],"outputs":[{"name":"","type":"address","internalType":"address"}],"stateMutability":"view"},{"type":"function","name":"version","inputs":[],"outputs":[{"name":"","type":"string","internalType":"string"}],"stateMutability":"view"},{"type":"event","name":"AttentionTriggered","inputs":[{"name":"gameAddress","type":"address","indexed":true,"internalType":"address"},{"name":"challenger","type":"address","indexed":true,"internalType":"address"}],"anonymous":false},{"type":"event","name":"BondRefunded","inputs":[{"name":"gameAddress","type":"address","indexed":true,"internalType":"address"},{"name":"challenger","type":"address","indexed":true,"internalType":"address"},{"name":"refundedAmount","type":"uint256","indexed":false,"internalType":"uint256"}],"anonymous":false},{"type":"event","name":"ChallengerStaked","inputs":[{"name":"challenger","type":"address","indexed":true,"internalType":"address"},{"name":"amount","type":"uint256","indexed":false,"internalType":"uint256"}],"anonymous":false},{"type":"event","name":"CorrectEvidenceSubmitted","inputs":[{"name":"gameAddress","type":"address","indexed":true,"internalType":"address"},{"name":"challenger","type":"address","indexed":true,"internalType":"address"},{"name":"restoredAmount","type":"uint256","indexed":false,"internalType":"uint256"}],"anonymous":false},{"type":"event","name":"Initialized","inputs":[{"name":"version","type":"uint8","indexed":false,"internalType":"uint8"}],"anonymous":false},{"type":"error","name":"AttentionTestNotExists","inputs":[]},{"type":"error","name":"ChallengerNotExists","inputs":[]},{"type":"error","name":"EvidenceAlreadySubmitted","inputs":[]},{"type":"error","name":"EvidenceSubmissionExpired","inputs":[]},{"type":"error","name":"InsufficientStakingAmount","inputs":[]},{"type":"error","name":"InvalidChallengerAddress","inputs":[]},{"type":"error","name":"NoValidChallengers","inputs":[]},{"type":"error","name":"NotDisputeGameFactory","inputs":[]},{"type":"error","name":"NotRatManager","inputs":[]},{"type":"error","name":"ProofVerificationFailed","inputs":[]},{"type":"error","name":"ProxyAdminOwnedBase_NotProxyAdmin","inputs":[]},{"type":"error","name":"ProxyAdminOwnedBase_NotProxyAdminOrProxyAdminOwner","inputs":[]},{"type":"error","name":"ProxyAdminOwnedBase_NotProxyAdminOwner","inputs":[]},{"type":"error","name":"ProxyAdminOwnedBase_NotResolvedDelegateProxy","inputs":[]},{"type":"error","name":"ProxyAdminOwnedBase_NotSharedProxyAdminOwner","inputs":[]},{"type":"error","name":"ProxyAdminOwnedBase_ProxyAdminNotFound","inputs":[]},{"type":"error","name":"ReinitializableBase_ZeroInitVersion","inputs":[]}],"bytecode":{"object":"0x60a06040523480156200001157600080fd5b50600260805260018055620000256200002b565b620000ed565b600054610100900460ff1615620000985760405162461bcd60e51b815260206004820152602760248201527f496e697469616c697a61626c653a20636f6e747261637420697320696e697469604482015266616c697a696e6760c81b606482015260840160405180910390fd5b60005460ff9081161015620000eb576000805460ff191660ff9081179091556040519081527f7f26b83ff96e1f2b6a682f133852f6798a09c465da95921460cefb38474024989060200160405180910390a15b565b60805161252762000110600039600081816103040152610bd001526125276000f3fe60806040526004361061018b5760003560e01c8063aacff5f9116100d6578063d2e5bc721161007f578063f2b4e61711610059578063f2b4e61714610581578063fba1d220146105ae578063fd5f97e11461069757600080fd5b8063d2e5bc7214610536578063dad544e014610556578063e34786591461056b57600080fd5b8063cc57f42b116100b0578063cc57f42b1461048e578063cf60203e146104a3578063cfea71c0146104b957600080fd5b8063aacff5f914610438578063acccb08f14610458578063cc4479061461046e57600080fd5b806351567bc21161013857806374343de81161011257806374343de8146103d857806394d645a8146103f857806396e9b6411461041857600080fd5b806351567bc21461034b57806354fd4d501461036f5780635df5f96f146103c557600080fd5b806338d38c971161016957806338d38c97146102f05780633a4b66f11461032e5780633e47158c1461033657600080fd5b806318350f22146101905780631ecbb09c1461027c57806336c63d46146102ce575b600080fd5b34801561019c57600080fd5b506102386101ab366004612286565b6040805160808101825260008082526020820181905291810182905260608101919091525073ffffffffffffffffffffffffffffffffffffffff166000908152600860209081526040918290208251608081018452815481526001820154928101929092526002015463ffffffff81169282019290925264010000000090910460ff161515606082015290565b6040516102739190815181526020808301519082015260408083015163ffffffff169082015260609182015115159181019190915260800190565b60405180910390f35b34801561028857600080fd5b506007546102a99073ffffffffffffffffffffffffffffffffffffffff1681565b60405173ffffffffffffffffffffffffffffffffffffffff9091168152602001610273565b3480156102da57600080fd5b506102ee6102e93660046122aa565b6106b7565b005b3480156102fc57600080fd5b5060405160ff7f0000000000000000000000000000000000000000000000000000000000000000168152602001610273565b6102ee61079f565b34801561034257600080fd5b506102a96109c3565b34801561035757600080fd5b5061036160065481565b604051908152602001610273565b34801561037b57600080fd5b506103b86040518060400160405280600c81526020017f312e302e302d626574612e31000000000000000000000000000000000000000081525081565b60405161027391906122c3565b6102ee6103d3366004612336565b610bce565b3480156103e457600080fd5b506102a96103f33660046122aa565b610f6a565b34801561040457600080fd5b506102ee610413366004612286565b610fa1565b34801561042457600080fd5b506102ee610433366004612394565b611293565b34801561044457600080fd5b506102ee610453366004612394565b6117a4565b34801561046457600080fd5b5061036160045481565b34801561047a57600080fd5b506102ee6104893660046122aa565b611c1e565b34801561049a57600080fd5b50600a54610361565b3480156104af57600080fd5b5061036160035481565b3480156104c557600080fd5b506105086104d4366004612286565b60086020526000908152604090208054600182015460029092015490919063ffffffff811690640100000000900460ff1684565b6040516102739493929190938452602084019290925263ffffffff1660408301521515606082015260800190565b34801561054257600080fd5b506102ee6105513660046122aa565b611dc3565b34801561056257600080fd5b506102a9611e86565b34801561057757600080fd5b5061036160055481565b34801561058d57600080fd5b506002546102a99073ffffffffffffffffffffffffffffffffffffffff1681565b3480156105ba57600080fd5b5061063c6105c9366004612286565b60096020526000908152604090208054600182015460029092015490916bffffffffffffffffffffffff8116916c0100000000000000000000000090910473ffffffffffffffffffffffffffffffffffffffff169067ffffffffffffffff81169068010000000000000000900460ff1685565b604080519586526bffffffffffffffffffffffff909416602086015273ffffffffffffffffffffffffffffffffffffffff9092169284019290925267ffffffffffffffff90911660608301521515608082015260a001610273565b3480156106a357600080fd5b506102ee6106b23660046122aa565b611f03565b6106bf611fed565b6000811161072e576040517f08c379a000000000000000000000000000000000000000000000000000000000815260206004820152601760248201527f506572696f64206d75737420626520706f73697469766500000000000000000060448201526064015b60405180910390fd5b61c4e081111561079a576040517f08c379a000000000000000000000000000000000000000000000000000000000815260206004820152600f60248201527f506572696f6420746f6f206c6f6e6700000000000000000000000000000000006044820152606401610725565b600455565b60026001540361080b576040517f08c379a000000000000000000000000000000000000000000000000000000000815260206004820152601f60248201527f5265656e7472616e637947756172643a207265656e7472616e742063616c6c006044820152606401610725565b600260015534610877576040517f08c379a000000000000000000000000000000000000000000000000000000000815260206004820152601a60248201527f4d757374207374616b6520706f73697469766520616d6f756e740000000000006044820152606401610725565b33600090815260086020526040812080549091349183919061089a9084906123f8565b90915550506002810154640100000000900460ff161580156108bf5750600354815410155b15610987576002810180547fffffffffffffffffffffffffffffffffffffffffffffffffffffff00ffffffff81166401000000009081178355600a805463ffffffff167fffffffffffffffffffffffffffffffffffffffffffffffffffffff0000000000909316929092171790915580546001810182556000919091527fc65a7bb8d6351c1cf70c95a316cc6a92839c986682d98bc35f958f4883f9d2a80180547fffffffffffffffffffffffff000000000000000000000000000000000000000016331790555b60405134815233907f6f50cc7a01f21c217b2ae66736754596de2004562a26fcc850e70031e5985e8d9060200160405180910390a25060018055565b6000806109ee7fb53127684a568b3173ae13b9f8a6016e243e63b6e8ee1178d6a717850b5d61035490565b905073ffffffffffffffffffffffffffffffffffffffff811615610a1157919050565b6040518060400160405280601a81526020017f4f564d5f4c3143726f7373446f6d61696e4d657373656e676572000000000000815250516002610a549190612410565b604080513060208201526000918101919091527f4f564d5f4c3143726f7373446f6d61696e4d657373656e6765720000000000009190911790610aaf906060015b604051602081830303815290604052805190602001205490565b14610ae6576040517f54e433cd00000000000000000000000000000000000000000000000000000000815260040160405180910390fd5b60408051306020820152600191810191909152600090610b0890606001610a95565b905073ffffffffffffffffffffffffffffffffffffffff811615610b9c578073ffffffffffffffffffffffffffffffffffffffff16638da5cb5b6040518163ffffffff1660e01b8152600401602060405180830381865afa158015610b71573d6000803e3d6000fd5b505050506040513d601f19601f82011682018060405250810190610b95919061244d565b9250505090565b6040517f332144db00000000000000000000000000000000000000000000000000000000815260040160405180910390fd5b7f0000000000000000000000000000000000000000000000000000000000000000600054610100900460ff16158015610c0e575060005460ff8083169116105b610c9a576040517f08c379a000000000000000000000000000000000000000000000000000000000815260206004820152602e60248201527f496e697469616c697a61626c653a20636f6e747261637420697320616c72656160448201527f647920696e697469616c697a65640000000000000000000000000000000000006064820152608401610725565b600080547fffffffffffffffffffffffffffffffffffffffffffffffffffffffffffff00001660ff8316176101001790556bffffffffffffffffffffffff8610610d66576040517f08c379a000000000000000000000000000000000000000000000000000000000815260206004820152602260248201527f426f6e6420616d6f756e7420657863656564732075696e743936206d6178696d60448201527f756d0000000000000000000000000000000000000000000000000000000000006064820152608401610725565b83861115610df6576040517f08c379a000000000000000000000000000000000000000000000000000000000815260206004820152603160248201527f426f6e6420616d6f756e742063616e6e6f7420657863656564206d696e696d7560448201527f6d207374616b696e672062616c616e63650000000000000000000000000000006064820152608401610725565b620186a0831115610e63576040517f08c379a000000000000000000000000000000000000000000000000000000000815260206004820152601360248201527f496e76616c69642070726f626162696c697479000000000000000000000000006044820152606401610725565b6002805473ffffffffffffffffffffffffffffffffffffffff8981167fffffffffffffffffffffffff00000000000000000000000000000000000000009283161790925560038890556004879055600586905560068590556007805492851692821692909217909155600a805460018101825560009182527fc65a7bb8d6351c1cf70c95a316cc6a92839c986682d98bc35f958f4883f9d2a801805490921690915580547fffffffffffffffffffffffffffffffffffffffffffffffffffffffffffff00ff16905560405160ff821681527f7f26b83ff96e1f2b6a682f133852f6798a09c465da95921460cefb38474024989060200160405180910390a150505050505050565b600a8181548110610f7a57600080fd5b60009182526020909120015473ffffffffffffffffffffffffffffffffffffffff16905081565b336000908152600960205260409020600101546c01000000000000000000000000900473ffffffffffffffffffffffffffffffffffffffff16801580159061101457508173ffffffffffffffffffffffffffffffffffffffff168173ffffffffffffffffffffffffffffffffffffffff16145b1561128f573360009081526009602052604090206002015468010000000000000000900460ff1661128f573360009081526009602090815260408083206002810180547fffffffffffffffffffffffffffffffffffffffffffffff00ffffffffffffffff1668010000000000000000179055600181015473ffffffffffffffffffffffffffffffffffffffff871685526008909352908320805491936bffffffffffffffffffffffff909316929091839183916110d29084906123f8565b90915550506002810154600354825464010000000090920460ff16911015811580156110fb5750805b156111ef57600283810180546401000000007fffffffffffffffffffffffffffffffffffffffffffffffffffffff00ffffffff909116179055600a805473ffffffffffffffffffffffffffffffffffffffff8a16600081815260086020526040812090940180547fffffffffffffffffffffffffffffffffffffffffffffffffffffffff000000001663ffffffff909316929092179091558154600181018355919092527fc65a7bb8d6351c1cf70c95a316cc6a92839c986682d98bc35f958f4883f9d2a80180547fffffffffffffffffffffffff000000000000000000000000000000000000000016909117905561123c565b8180156111fa575080155b1561123c576002830180547fffffffffffffffffffffffffffffffffffffffffffffffffffffff00ffffffff811690915561123c90889063ffffffff16612045565b60405184815273ffffffffffffffffffffffffffffffffffffffff87169033907f4fac74d6b4ed45cb641c8e730951b01c4dbcae0565cf330e909230492bd07d789060200160405180910390a350505050505b5050565b60025473ffffffffffffffffffffffffffffffffffffffff1633146112e4576040517f2a769f9e00000000000000000000000000000000000000000000000000000000815260040160405180910390fd5b6112ec612218565b1561179f57600a54600181111561179d576000816002146113655761131260018361246a565b834260405160200161132e929190918252602082015260400190565b6040516020818303038152906040528051906020012060001c61ffff166113559190612481565b6113609060016123f8565b611368565b60015b90506000600a828154811061137f5761137f6124bc565b600091825260208083209091015473ffffffffffffffffffffffffffffffffffffffff1680835260089091526040822080546003549294509092909182106113c9576003546113cb565b815b905060006113d9828461246a565b80855560018501805491925083916000906113f59084906123f8565b909155505067ffffffffffffffff43111561146c576040517f08c379a000000000000000000000000000000000000000000000000000000000815260206004820152601660248201527f426c6f636b206e756d62657220746f6f206c61726765000000000000000000006044820152606401610725565b6040518060a001604052808a8152602001836bffffffffffffffffffffffff1681526020018673ffffffffffffffffffffffffffffffffffffffff1681526020014367ffffffffffffffff16815260200160001515815250600960008c73ffffffffffffffffffffffffffffffffffffffff1673ffffffffffffffffffffffffffffffffffffffff1681526020019081526020016000206000820151816000015560208201518160010160006101000a8154816bffffffffffffffffffffffff02191690836bffffffffffffffffffffffff160217905550604082015181600101600c6101000a81548173ffffffffffffffffffffffffffffffffffffffff021916908373ffffffffffffffffffffffffffffffffffffffff16021790555060608201518160020160006101000a81548167ffffffffffffffff021916908367ffffffffffffffff16021790555060808201518160020160086101000a81548160ff0219169083151502179055509050506000600354821015905060008560020160049054906101000a900460ff1690508115158115151461173a5781156116fd57600286810180546401000000007fffffffffffffffffffffffffffffffffffffffffffffffffffffff00ffffffff909116179055600a805473ffffffffffffffffffffffffffffffffffffffff8a16600081815260086020526040812090940180547fffffffffffffffffffffffffffffffffffffffffffffffffffffffff000000001663ffffffff909316929092179091558154600181018355919092527fc65a7bb8d6351c1cf70c95a316cc6a92839c986682d98bc35f958f4883f9d2a80180547fffffffffffffffffffffffff000000000000000000000000000000000000000016909117905561173a565b6002860180547fffffffffffffffffffffffffffffffffffffffffffffffffffffff00ffffffff811690915561173a90889063ffffffff16612045565b8673ffffffffffffffffffffffffffffffffffffffff168c73ffffffffffffffffffffffffffffffffffffffff167f8f5f18c2fab75f3bb8637c4702468685d73e9414ddfa43f842ffb1a63e6dd57a60405160405180910390a350505050505050505b505b505050565b73ffffffffffffffffffffffffffffffffffffffff8084166000908152600960205260409020600181015490916c01000000000000000000000000909104168061181a576040517facddc2de00000000000000000000000000000000000000000000000000000000815260040160405180910390fd5b73ffffffffffffffffffffffffffffffffffffffff81163314611869576040517f430a2a2b00000000000000000000000000000000000000000000000000000000815260040160405180910390fd5b600282015468010000000000000000900460ff16156118b4576040517fc355107000000000000000000000000000000000000000000000000000000000815260040160405180910390fd5b60045460028301546000916118d29167ffffffffffffffff166123f8565b600284015490915067ffffffffffffffff1681101561194d576040517f08c379a000000000000000000000000000000000000000000000000000000000815260206004820152601160248201527f446561646c696e65206f766572666c6f770000000000000000000000000000006044820152606401610725565b804310611986576040517f01136fa500000000000000000000000000000000000000000000000000000000815260040160405180910390fd5b8254604080516020810188905290810186905260600160405160208183030381529060405280519060200120146119e9576040517fd611c31800000000000000000000000000000000000000000000000000000000815260040160405180910390fd5b60018301546002840180547fffffffffffffffffffffffffffffffffffffffffffffff00ffffffffffffffff166801000000000000000017905533600090815260086020526040812080546bffffffffffffffffffffffff9093169290918391839190611a579084906123f8565b90915550506002810154600354825464010000000090920460ff1691101581158015611a805750805b15611b5e57600283810180546401000000007fffffffffffffffffffffffffffffffffffffffffffffffffffffff00ffffffff909116179055600a805433600081815260086020526040812090940180547fffffffffffffffffffffffffffffffffffffffffffffffffffffffff000000001663ffffffff909316929092179091558154600181018355919092527fc65a7bb8d6351c1cf70c95a316cc6a92839c986682d98bc35f958f4883f9d2a80180547fffffffffffffffffffffffff0000000000000000000000000000000000000000169091179055611bab565b818015611b69575080155b15611bab576002830180547fffffffffffffffffffffffffffffffffffffffffffffffffffffff00ffffffff8116909155611bab90339063ffffffff16612045565b8573ffffffffffffffffffffffffffffffffffffffff168a73ffffffffffffffffffffffffffffffffffffffff167f7954ca3465b792ac0a46ec18f1ed49a20399c01cc510fab6eab44a7f6679f87786604051611c0a91815260200190565b60405180910390a350505050505050505050565b611c26611fed565b60008111611c90576040517f08c379a000000000000000000000000000000000000000000000000000000000815260206004820152601c60248201527f426f6e6420616d6f756e74206d75737420626520706f736974697665000000006044820152606401610725565b6bffffffffffffffffffffffff811115611d2c576040517f08c379a000000000000000000000000000000000000000000000000000000000815260206004820152602260248201527f426f6e6420616d6f756e7420657863656564732075696e743936206d6178696d60448201527f756d0000000000000000000000000000000000000000000000000000000000006064820152608401610725565b600554811115611dbe576040517f08c379a000000000000000000000000000000000000000000000000000000000815260206004820152603160248201527f426f6e6420616d6f756e742063616e6e6f7420657863656564206d696e696d7560448201527f6d207374616b696e672062616c616e63650000000000000000000000000000006064820152608401610725565b600355565b60075473ffffffffffffffffffffffffffffffffffffffff163314611e14576040517fc1de1ba600000000000000000000000000000000000000000000000000000000815260040160405180910390fd5b620186a0811115611e81576040517f08c379a000000000000000000000000000000000000000000000000000000000815260206004820152601360248201527f496e76616c69642070726f626162696c697479000000000000000000000000006044820152606401610725565b600655565b6000611e906109c3565b73ffffffffffffffffffffffffffffffffffffffff16638da5cb5b6040518163ffffffff1660e01b8152600401602060405180830381865afa158015611eda573d6000803e3d6000fd5b505050506040513d601f19601f82011682018060405250810190611efe919061244d565b905090565b611f0b611fed565b60008111611f75576040517f08c379a000000000000000000000000000000000000000000000000000000000815260206004820152601860248201527f42616c616e6365206d75737420626520706f73697469766500000000000000006044820152606401610725565b683635c9adc5dea00000811115611fe8576040517f08c379a000000000000000000000000000000000000000000000000000000000815260206004820152601160248201527f42616c616e636520746f6f206c617267650000000000000000000000000000006044820152606401610725565b600555565b33611ff6611e86565b73ffffffffffffffffffffffffffffffffffffffff1614612043576040517f7f12c64b00000000000000000000000000000000000000000000000000000000815260040160405180910390fd5b565b6000811180156120565750600a5481105b80156120ab57508173ffffffffffffffffffffffffffffffffffffffff16600a8281548110612087576120876124bc565b60009182526020909120015473ffffffffffffffffffffffffffffffffffffffff16145b1561128f57600a546000906120c29060019061246a565b90508082146121aa576000600a82815481106120e0576120e06124bc565b600091825260209091200154600a805473ffffffffffffffffffffffffffffffffffffffff909216925082918590811061211c5761211c6124bc565b600091825260208083209190910180547fffffffffffffffffffffffff00000000000000000000000000000000000000001673ffffffffffffffffffffffffffffffffffffffff94851617905592909116815260089091526040902060020180547fffffffffffffffffffffffffffffffffffffffffffffffffffffffff000000001663ffffffff84161790555b600a8054806121bb576121bb6124eb565b60008281526020902081017fffffffffffffffffffffffffffffffffffffffffffffffffffffffffffffffff90810180547fffffffffffffffffffffffff0000000000000000000000000000000000000000169055019055505050565b60065460009080820361222d57600091505090565b620186a0811061223f57600191505090565b80620186a061224f60014361246a565b61225a919040612481565b1091505090565b73ffffffffffffffffffffffffffffffffffffffff8116811461228357600080fd5b50565b60006020828403121561229857600080fd5b81356122a381612261565b9392505050565b6000602082840312156122bc57600080fd5b5035919050565b600060208083528351808285015260005b818110156122f0578581018301518582016040015282016122d4565b81811115612302576000604083870101525b50601f017fffffffffffffffffffffffffffffffffffffffffffffffffffffffffffffffe016929092016040019392505050565b60008060008060008060c0878903121561234f57600080fd5b863561235a81612261565b95506020870135945060408701359350606087013592506080870135915060a087013561238681612261565b809150509295509295509295565b6000806000606084860312156123a957600080fd5b83356123b481612261565b95602085013595506040909401359392505050565b7f4e487b7100000000000000000000000000000000000000000000000000000000600052601160045260246000fd5b6000821982111561240b5761240b6123c9565b500190565b6000817fffffffffffffffffffffffffffffffffffffffffffffffffffffffffffffffff0483118215151615612448576124486123c9565b500290565b60006020828403121561245f57600080fd5b81516122a381612261565b60008282101561247c5761247c6123c9565b500390565b6000826124b7577f4e487b7100000000000000000000000000000000000000000000000000000000600052601260045260246000fd5b500690565b7f4e487b7100000000000000000000000000000000000000000000000000000000600052603260045260246000fd5b7f4e487b7100000000000000000000000000000000000000000000000000000000600052603160045260246000fdfea164736f6c634300080f000a","linkReferences":{}},"methodIdentifiers":{"attentionTests(address)":"fba1d220","challengers(address)":"cfea71c0","disputeGameFactory()":"f2b4e617","evidenceSubmissionPeriod()":"acccb08f","getChallengerInfo(address)":"18350f22","getValidChallengerCount()":"cc57f42b","initVersion()":"38d38c97","initialize(address,uint256,uint256,uint256,uint256,address)":"5df5f96f","minimumStakingBalance()":"e3478659","perTestBondAmount()":"cf60203e","proxyAdmin()":"3e47158c","proxyAdminOwner()":"dad544e0","ratManager()":"1ecbb09c","ratTriggerProbability()":"51567bc2","resolveClaim(address)":"94d645a8","setEvidenceSubmissionPeriod(uint256)":"36c63d46","setMinimumStakingBalance(uint256)":"fd5f97e1","setPerTestBondAmount(uint256)":"cc447906","setRatTriggerProbability(uint256)":"d2e5bc72","stake()":"3a4b66f1","submitCorrectEvidence(address,bytes32,bytes32)":"aacff5f9","triggerAttentionTest(address,bytes32,bytes32)":"96e9b641","validChallengers(uint256)":"74343de8","version()":"54fd4d50"},"storageLayout":{"storage":[{"astId":51321,"contract":"src/L1/RAT.sol:RAT","label":"_initialized","offset":0,"slot":"0","type":"t_uint8"},{"astId":51324,"contract":"src/L1/RAT.sol:RAT","label":"_initializing","offset":1,"slot":"0","type":"t_bool"},{"astId":51476,"contract":"src/L1/RAT.sol:RAT","label":"_status","offset":0,"slot":"1","type":"t_uint256"},{"astId":98037,"contract":"src/L1/RAT.sol:RAT","label":"disputeGameFactory","offset":0,"slot":"2","type":"t_contract(IDisputeGameFactory)5972"},{"astId":98040,"contract":"src/L1/RAT.sol:RAT","label":"perTestBondAmount","offset":0,"slot":"3","type":"t_uint256"},{"astId":98043,"contract":"src/L1/RAT.sol:RAT","label":"evidenceSubmissionPeriod","offset":0,"slot":"4","type":"t_uint256"},{"astId":98046,"contract":"src/L1/RAT.sol:RAT","label":"minimumStakingBalance","offset":0,"slot":"5","type":"t_uint256"},{"astId":98053,"contract":"src/L1/RAT.sol:RAT","label":"ratTriggerProbability","offset":0,"slot":"6","type":"t_uint256"},{"astId":98056,"contract":"src/L1/RAT.sol:RAT","label":"ratManager","offset":0,"slot":"7","type":"t_address"},{"astId":98062,"contract":"src/L1/RAT.sol:RAT","label":"challengers","offset":0,"slot":"8","type":"t_mapping(t_address,t_struct(ChallengerInfo)97986_storage)"},{"astId":98068,"contract":"src/L1/RAT.sol:RAT","label":"attentionTests","offset":0,"slot":"9","type":"t_mapping(t_address,t_struct(AttentionInfo)97997_storage)"},{"astId":98072,"contract":"src/L1/RAT.sol:RAT","label":"validChallengers","offset":0,"slot":"10","type":"t_array(t_address)dyn_storage"}],"types":{"t_address":{"encoding":"inplace","label":"address","numberOfBytes":"20"},"t_array(t_address)dyn_storage":{"encoding":"dynamic_array","label":"address[]","numberOfBytes":"32","base":"t_address"},"t_bool":{"encoding":"inplace","label":"bool","numberOfBytes":"1"},"t_bytes32":{"encoding":"inplace","label":"bytes32","numberOfBytes":"32"},"t_contract(IDisputeGameFactory)5972":{"encoding":"inplace","label":"contract IDisputeGameFactory","numberOfBytes":"20"},"t_mapping(t_address,t_struct(AttentionInfo)97997_storage)":{"encoding":"mapping","key":"t_address","label":"mapping(address => struct RAT.AttentionInfo)","numberOfBytes":"32","value":"t_struct(AttentionInfo)97997_storage"},"t_mapping(t_address,t_struct(ChallengerInfo)97986_storage)":{"encoding":"mapping","key":"t_address","label":"mapping(address => struct RAT.ChallengerInfo)","numberOfBytes":"32","value":"t_struct(ChallengerInfo)97986_storage"},"t_struct(AttentionInfo)97997_storage":{"encoding":"inplace","label":"struct RAT.AttentionInfo","numberOfBytes":"96","members":[{"astId":97988,"contract":"src/L1/RAT.sol:RAT","label":"stateRoot","offset":0,"slot":"0","type":"t_bytes32"},{"astId":97990,"contract":"src/L1/RAT.sol:RAT","label":"bondAmount","offset":0,"slot":"1","type":"t_uint96"},{"astId":97992,"contract":"src/L1/RAT.sol:RAT","label":"challengerAddress","offset":12,"slot":"1","type":"t_address"},{"astId":97994,"contract":"src/L1/RAT.sol:RAT","label":"l1BlockNumber","offset":0,"slot":"2","type":"t_uint64"},{"astId":97996,"contract":"src/L1/RAT.sol:RAT","label":"evidenceSubmitted","offset":8,"slot":"2","type":"t_bool"}]},"t_struct(ChallengerInfo)97986_storage":{"encoding":"inplace","label":"struct RAT.ChallengerInfo","numberOfBytes":"96","members":[{"astId":97979,"contract":"src/L1/RAT.sol:RAT","label":"stakingAmount","offset":0,"slot":"0","type":"t_uint256"},{"astId":97981,"contract":"src/L1/RAT.sol:RAT","label":"totalSlashedAmount","offset":0,"slot":"1","type":"t_uint256"},{"astId":97983,"contract":"src/L1/RAT.sol:RAT","label":"validatorIndex","offset":0,"slot":"2","type":"t_uint32"},{"astId":97985,"contract":"src/L1/RAT.sol:RAT","label":"isValid","offset":4,"slot":"2","type":"t_bool"}]},"t_uint256":{"encoding":"inplace","label":"uint256","numberOfBytes":"32"},"t_uint32":{"encoding":"inplace","label":"uint32","numberOfBytes":"4"},"t_uint64":{"encoding":"inplace","label":"uint64","numberOfBytes":"8"},"t_uint8":{"encoding":"inplace","label":"uint8","numberOfBytes":"1"},"t_uint96":{"encoding":"inplace","label":"uint96","numberOfBytes":"12"}}},"userdoc":{"version":1,"kind":"user","methods":{"attentionTests(address)":{"notice":"Mapping from FaultDisputeGame address to attention info"},"challengers(address)":{"notice":"Mapping from challenger address to challenger info"},"constructor":{"notice":"Constructs the RAT contract"},"disputeGameFactory()":{"notice":"DisputeGameFactory contract address"},"evidenceSubmissionPeriod()":{"notice":"Evidence submission period in blocks"},"getChallengerInfo(address)":{"notice":"Gets challenger information"},"getValidChallengerCount()":{"notice":"Gets number of valid challengers"},"initVersion()":{"notice":"Getter for the current initialization version."},"initialize(address,uint256,uint256,uint256,uint256,address)":{"notice":"Initializes the contract"},"minimumStakingBalance()":{"notice":"Minimum staking balance required"},"perTestBondAmount()":{"notice":"Bond amount per attention test"},"proxyAdmin()":{"notice":"Getter for the ProxyAdmin contract that owns this Proxy contract."},"proxyAdminOwner()":{"notice":"Getter for the owner of the ProxyAdmin."},"ratManager()":{"notice":"Manager address that can modify RAT parameters"},"ratTriggerProbability()":{"notice":"Probability for triggering RAT (0-50400, where 50400 = weekly)"},"resolveClaim(address)":{"notice":"Called when a claim is resolved in FaultDisputeGame"},"setEvidenceSubmissionPeriod(uint256)":{"notice":"Sets the evidence submission period (only proxy admin owner)"},"setMinimumStakingBalance(uint256)":{"notice":"Sets the minimum staking balance (only proxy admin owner)"},"setPerTestBondAmount(uint256)":{"notice":"Sets the per-test bond amount (only proxy admin owner)"},"setRatTriggerProbability(uint256)":{"notice":"Sets the RAT trigger probability (only manager)"},"stake()":{"notice":"Allows challengers to stake ETH"},"submitCorrectEvidence(address,bytes32,bytes32)":{"notice":"Submits correct evidence for attention test"},"triggerAttentionTest(address,bytes32,bytes32)":{"notice":"Triggers attention test (called by DisputeGameFactory)"},"validChallengers(uint256)":{"notice":"Array of valid challengers (index 0 is reserved for \"not found\")"},"version()":{"notice":"Semantic version"}},"events":{"AttentionTriggered(address,address)":{"notice":"Emitted when attention test is triggered"},"BondRefunded(address,address,uint256)":{"notice":"Emitted when bonded amount is refunded through claim resolution"},"ChallengerStaked(address,uint256)":{"notice":"Emitted when a challenger stakes ETH"},"CorrectEvidenceSubmitted(address,address,uint256)":{"notice":"Emitted when correct evidence is submitted"}},"errors":{"AttentionTestNotExists()":[{"notice":"Error thrown when attention test does not exist"}],"ChallengerNotExists()":[{"notice":"Error thrown when challenger does not exist"}],"EvidenceAlreadySubmitted()":[{"notice":"Error thrown when evidence has already been submitted"}],"EvidenceSubmissionExpired()":[{"notice":"Error thrown when evidence submission period has expired"}],"InsufficientStakingAmount()":[{"notice":"Error thrown when insufficient staking amount"}],"InvalidChallengerAddress()":[{"notice":"Error thrown when caller is not the correct challenger"}],"NoValidChallengers()":[{"notice":"Error thrown when there are no valid challengers available"}],"NotDisputeGameFactory()":[{"notice":"Error thrown when caller is not the DisputeGameFactory"}],"NotRatManager()":[{"notice":"Error thrown when caller is not the ratManager"}],"ProofVerificationFailed()":[{"notice":"Error thrown when proof verification fails"}],"ProxyAdminOwnedBase_NotProxyAdmin()":[{"notice":"Thrown when the caller is not the ProxyAdmin."}],"ProxyAdminOwnedBase_NotProxyAdminOrProxyAdminOwner()":[{"notice":"Thrown when the caller is not the ProxyAdmin owner or the ProxyAdmin."}],"ProxyAdminOwnedBase_NotProxyAdminOwner()":[{"notice":"Thrown when the caller is not the ProxyAdmin owner."}],"ProxyAdminOwnedBase_NotResolvedDelegateProxy()":[{"notice":"Thrown when the current contract is not a ResolvedDelegateProxy."}],"ProxyAdminOwnedBase_NotSharedProxyAdminOwner()":[{"notice":"Thrown when the ProxyAdmin owner of the current contract is not the same as the         ProxyAdmin owner of the other Proxy address provided."}],"ProxyAdminOwnedBase_ProxyAdminNotFound()":[{"notice":"Thrown when the ProxyAdmin owner of the current contract is not found."}],"ReinitializableBase_ZeroInitVersion()":[{"notice":"Thrown when the initialization version is zero."}]},"notice":"Randomized Attention Test contract for challenger monitoring and testing - Original Implementation"},"devdoc":{"version":1,"kind":"dev","methods":{"getChallengerInfo(address)":{"params":{"_challenger":"Address of the challenger"},"returns":{"_0":"Challenger information"}},"getValidChallengerCount()":{"returns":{"_0":"Number of valid challengers"}},"initVersion()":{"returns":{"_0":"The current initialization version."}},"initialize(address,uint256,uint256,uint256,uint256,address)":{"params":{"_disputeGameFactory":"Address of the DisputeGameFactory contract","_evidenceSubmissionPeriod":"Evidence submission period in blocks","_manager":"Address of the manager who can modify RAT parameters","_minimumStakingBalance":"Minimum staking balance required","_perTestBondAmount":"Bond amount per attention test","_ratTriggerProbability":"Initial RAT trigger probability (0-50400)"}},"resolveClaim(address)":{"params":{"_claimant":"Address receiving the bond refund"}},"setEvidenceSubmissionPeriod(uint256)":{"params":{"_period":"New submission period in blocks"}},"setMinimumStakingBalance(uint256)":{"params":{"_balance":"New minimum staking balance"}},"setPerTestBondAmount(uint256)":{"params":{"_amount":"New bond amount"}},"setRatTriggerProbability(uint256)":{"params":{"_probability":"New trigger probability (0-50400)"}},"submitCorrectEvidence(address,bytes32,bytes32)":{"params":{"_gameAddress":"Game contract address","_proofLV":"Left child state value","_proofRV":"Right child state value"}},"triggerAttentionTest(address,bytes32,bytes32)":{"params":{"_blockHash":"Block hash for validator selection","_gameAddress":"Game contract address","_stateRoot":"State root to be verified"}}},"title":"RAT (Original Version)"},"id":227}