{"abi":[{"type":"function","name":"crossDomainMessageContext","inputs":[],"outputs":[{"name":"sender_","type":"address","internalType":"address"},{"name":"source_","type":"uint256","internalType":"uint256"}],"stateMutability":"view"},{"type":"function","name":"crossDomainMessageSender","inputs":[],"outputs":[{"name":"sender_","type":"address","internalType":"address"}],"stateMutability":"view"},{"type":"function","name":"crossDomainMessageSource","inputs":[],"outputs":[{"name":"source_","type":"uint256","internalType":"uint256"}],"stateMutability":"view"},{"type":"function","name":"messageNonce","inputs":[],"outputs":[{"name":"","type":"uint256","internalType":"uint256"}],"stateMutability":"view"},{"type":"function","name":"messageVersion","inputs":[],"outputs":[{"name":"","type":"uint16","internalType":"uint16"}],"stateMutability":"view"},{"type":"function","name":"relayMessage","inputs":[{"name":"_id","type":"tuple","internalType":"struct Identifier","components":[{"name":"origin","type":"address","internalType":"address"},{"name":"blockNumber","type":"uint256","internalType":"uint256"},{"name":"logIndex","type":"uint256","internalType":"uint256"},{"name":"timestamp","type":"uint256","internalType":"uint256"},{"name":"chainId","type":"uint256","internalType":"uint256"}]},{"name":"_sentMessage","type":"bytes","internalType":"bytes"}],"outputs":[{"name":"returnData_","type":"bytes","internalType":"bytes"}],"stateMutability":"payable"},{"type":"function","name":"resendMessage","inputs":[{"name":"_destination","type":"uint256","internalType":"uint256"},{"name":"_nonce","type":"uint256","internalType":"uint256"},{"name":"_sender","type":"address","internalType":"address"},{"name":"_target","type":"address","internalType":"address"},{"name":"_message","type":"bytes","internalType":"bytes"}],"outputs":[{"name":"messageHash_","type":"bytes32","internalType":"bytes32"}],"stateMutability":"nonpayable"},{"type":"function","name":"sendMessage","inputs":[{"name":"_destination","type":"uint256","internalType":"uint256"},{"name":"_target","type":"address","internalType":"address"},{"name":"_message","type":"bytes","internalType":"bytes"}],"outputs":[{"name":"messageHash_","type":"bytes32","internalType":"bytes32"}],"stateMutability":"nonpayable"},{"type":"function","name":"sentMessages","inputs":[{"name":"","type":"uint256","internalType":"uint256"}],"outputs":[{"name":"","type":"bytes32","internalType":"bytes32"}],"stateMutability":"view"},{"type":"function","name":"successfulMessages","inputs":[{"name":"","type":"bytes32","internalType":"bytes32"}],"outputs":[{"name":"","type":"bool","internalType":"bool"}],"stateMutability":"view"},{"type":"function","name":"version","inputs":[],"outputs":[{"name":"","type":"string","internalType":"string"}],"stateMutability":"view"},{"type":"event","name":"RelayedMessage","inputs":[{"name":"source","type":"uint256","indexed":true,"internalType":"uint256"},{"name":"messageNonce","type":"uint256","indexed":true,"internalType":"uint256"},{"name":"messageHash","type":"bytes32","indexed":true,"internalType":"bytes32"},{"name":"returnDataHash","type":"bytes32","indexed":false,"internalType":"bytes32"}],"anonymous":false},{"type":"event","name":"SentMessage","inputs":[{"name":"destination","type":"uint256","indexed":true,"internalType":"uint256"},{"name":"target","type":"address","indexed":true,"internalType":"address"},{"name":"messageNonce","type":"uint256","indexed":true,"internalType":"uint256"},{"name":"sender","type":"address","indexed":false,"internalType":"address"},{"name":"message","type":"bytes","indexed":false,"internalType":"bytes"}],"anonymous":false},{"type":"error","name":"EventPayloadNotSentMessage","inputs":[]},{"type":"error","name":"IdOriginNotL2ToL2CrossDomainMessenger","inputs":[]},{"type":"error","name":"InvalidMessage","inputs":[]},{"type":"error","name":"MessageAlreadyRelayed","inputs":[]},{"type":"error","name":"MessageDestinationNotRelayChain","inputs":[]},{"type":"error","name":"MessageDestinationSameChain","inputs":[]},{"type":"error","name":"MessageTargetL2ToL2CrossDomainMessenger","inputs":[]},{"type":"error","name":"NotEntered","inputs":[]},{"type":"error","name":"ReentrantCall","inputs":[]}],"bytecode":{"object":"0x6080604052348015600e575f80fd5b506111678061001c5f395ff3fe6080604052600436106100b8575f3560e01c80637056f41f11610071578063b1b1b2091161004c578063b1b1b20914610228578063bc294d7d14610266578063ecc7042814610291575f80fd5b80637056f41f146101b65780637936cbee146101d55780638d1d298f14610215575f80fd5b806352617f3c116100a157806352617f3c1461011c57806354fd4d50146101425780636b0c3c5e14610197575f80fd5b806324794462146100bc57806338ffde18146100e3575b5f80fd5b3480156100c7575f80fd5b506100d06102c5565b6040519081526020015b60405180910390f35b3480156100ee575f80fd5b506100f7610344565b60405173ffffffffffffffffffffffffffffffffffffffff90911681526020016100da565b348015610127575f80fd5b5061012f5f81565b60405161ffff90911681526020016100da565b34801561014d575f80fd5b5061018a6040518060400160405280600581526020017f312e332e3000000000000000000000000000000000000000000000000000000081525081565b6040516100da9190610c7e565b3480156101a2575f80fd5b506100d06101b1366004610d00565b6103c3565b3480156101c1575f80fd5b506100d06101d0366004610d77565b6104ae565b3480156101e0575f80fd5b506101e96106ba565b6040805173ffffffffffffffffffffffffffffffffffffffff90931683526020830191909152016100da565b61018a610223366004610dcf565b61075e565b348015610233575f80fd5b50610256610242366004610e25565b5f6020819052908152604090205460ff1681565b60405190151581526020016100da565b348015610271575f80fd5b506100d0610280366004610e25565b60026020525f908152604090205481565b34801561029c575f80fd5b506001547dffffffffffffffffffffffffffffffffffffffffffffffffffffffffffff166100d0565b5f7ff13569814868ede994184d5a425471fb19e869768a33421cb701a2ba3d420c0a5c61031e576040517fbca35af600000000000000000000000000000000000000000000000000000000815260040160405180910390fd5b507f711dfa3259c842fffc17d6e1f1e0fc5927756133a2345ca56b4cb8178589fee75c90565b5f7ff13569814868ede994184d5a425471fb19e869768a33421cb701a2ba3d420c0a5c61039d576040517fbca35af600000000000000000000000000000000000000000000000000000000815260040160405180910390fd5b507fb83444d07072b122e2e72a669ce32857d892345c19856f4e7142d06a167ab3f35c90565b5f610407874688888888888080601f0160208091040260200160405190810160405280939291908181526020018383808284375f92019190915250610ae192505050565b5f878152600260205260409020549091508114610450576040517f6eca2e4b00000000000000000000000000000000000000000000000000000000815260040160405180910390fd5b858473ffffffffffffffffffffffffffffffffffffffff16887f382409ac69001e11931a28435afef442cbfd20d9891907e8fa373ba7d351f32088878760405161049c93929190610e3c565b60405180910390a49695505050505050565b5f4685036104e8576040517f8ed9a95d00000000000000000000000000000000000000000000000000000000815260040160405180910390fd5b7fffffffffffffffffffffffffbdffffffffffffffffffffffffffffffffffffdd73ffffffffffffffffffffffffffffffffffffffff851601610557576040517f4faa250900000000000000000000000000000000000000000000000000000000815260040160405180910390fd5b5f6105816001547dffffffffffffffffffffffffffffffffffffffffffffffffffffffffffff1690565b90506105c6864683338989898080601f0160208091040260200160405190810160405280939291908181526020018383808284375f92019190915250610ae192505050565b5f828152600260205260408120829055600180549294507dffffffffffffffffffffffffffffffffffffffffffffffffffffffffffff909216919061060a83610ea5565b91906101000a8154817dffffffffffffffffffffffffffffffffffffffffffffffffffffffffffff02191690837dffffffffffffffffffffffffffffffffffffffffffffffffffffffffffff16021790555050808573ffffffffffffffffffffffffffffffffffffffff16877f382409ac69001e11931a28435afef442cbfd20d9891907e8fa373ba7d351f3203388886040516106a993929190610e3c565b60405180910390a450949350505050565b5f807ff13569814868ede994184d5a425471fb19e869768a33421cb701a2ba3d420c0a5c610714576040517fbca35af600000000000000000000000000000000000000000000000000000000815260040160405180910390fd5b50507fb83444d07072b122e2e72a669ce32857d892345c19856f4e7142d06a167ab3f35c907f711dfa3259c842fffc17d6e1f1e0fc5927756133a2345ca56b4cb8178589fee75c90565b60607ff13569814868ede994184d5a425471fb19e869768a33421cb701a2ba3d420c0a5c156107b9576040517f37ed32e800000000000000000000000000000000000000000000000000000000815260040160405180910390fd5b60017ff13569814868ede994184d5a425471fb19e869768a33421cb701a2ba3d420c0a5d7342000000000000000000000000000000000000236107ff6020860186610f06565b73ffffffffffffffffffffffffffffffffffffffff161461084c576040517f7987c15700000000000000000000000000000000000000000000000000000000815260040160405180910390fd5b73420000000000000000000000000000000000002273ffffffffffffffffffffffffffffffffffffffff1663ab4d6f7585858560405161088d929190610f21565b6040519081900381207fffffffff0000000000000000000000000000000000000000000000000000000060e085901b1682526108cc9291600401610f30565b5f604051808303815f87803b1580156108e3575f80fd5b505af11580156108f5573d5f803e3d5ffd5b505050505f805f805f6109088888610b1f565b9450945094509450945046851461094b576040517f31ac221100000000000000000000000000000000000000000000000000000000815260040160405180910390fd5b60808901355f61095f878387878a88610ae1565b5f8181526020819052604090205490915060ff16156109aa576040517f9ca9480b00000000000000000000000000000000000000000000000000000000815260040160405180910390fd5b5f81815260208190526040902080547fffffffffffffffffffffffffffffffffffffffffffffffffffffffffffffff001660011790556109ea8285610be8565b5f8673ffffffffffffffffffffffffffffffffffffffff163485604051610a119190610f89565b5f6040518083038185875af1925050503d805f8114610a4b576040519150601f19603f3d011682016040523d82523d5f602084013e610a50565b606091505b509950905080610a6257885189602001fd5b8186847fc270d73e26d2d39dee7ef92093555927e344e243415547ecc350b2b5385b68a28c80519060200120604051610a9d91815260200190565b60405180910390a4610aaf5f80610be8565b50505050505050505f7ff13569814868ede994184d5a425471fb19e869768a33421cb701a2ba3d420c0a5d9392505050565b5f868686868686604051602001610afd96959493929190610f9f565b6040516020818303038152906040528051906020012090509695505050505050565b5f808080606081610b33602082898b610ff5565b810190610b409190610e25565b90507f382409ac69001e11931a28435afef442cbfd20d9891907e8fa373ba7d351f3208114610b9b576040517fdf1eb58600000000000000000000000000000000000000000000000000000000815260040160405180910390fd5b610ba960806020898b610ff5565b810190610bb6919061101c565b91975095509350610bca876080818b610ff5565b810190610bd7919061107e565b969995985093965092949392505050565b817f711dfa3259c842fffc17d6e1f1e0fc5927756133a2345ca56b4cb8178589fee75d807fb83444d07072b122e2e72a669ce32857d892345c19856f4e7142d06a167ab3f35d5050565b5f81518084528060208401602086015e5f6020828601015260207fffffffffffffffffffffffffffffffffffffffffffffffffffffffffffffffe0601f83011685010191505092915050565b602081525f610c906020830184610c32565b9392505050565b73ffffffffffffffffffffffffffffffffffffffff81168114610cb8575f80fd5b50565b5f8083601f840112610ccb575f80fd5b50813567ffffffffffffffff811115610ce2575f80fd5b602083019150836020828501011115610cf9575f80fd5b9250929050565b5f805f805f8060a08789031215610d15575f80fd5b86359550602087013594506040870135610d2e81610c97565b93506060870135610d3e81610c97565b9250608087013567ffffffffffffffff811115610d59575f80fd5b610d6589828a01610cbb565b979a9699509497509295939492505050565b5f805f8060608587031215610d8a575f80fd5b843593506020850135610d9c81610c97565b9250604085013567ffffffffffffffff811115610db7575f80fd5b610dc387828801610cbb565b95989497509550505050565b5f805f83850360c0811215610de2575f80fd5b60a0811215610def575f80fd5b5083925060a084013567ffffffffffffffff811115610e0c575f80fd5b610e1886828701610cbb565b9497909650939450505050565b5f60208284031215610e35575f80fd5b5035919050565b73ffffffffffffffffffffffffffffffffffffffff8416815260406020820152816040820152818360608301375f818301606090810191909152601f9092017fffffffffffffffffffffffffffffffffffffffffffffffffffffffffffffffe016010192915050565b5f7dffffffffffffffffffffffffffffffffffffffffffffffffffffffffffff808316818103610efc577f4e487b71000000000000000000000000000000000000000000000000000000005f52601160045260245ffd5b6001019392505050565b5f60208284031215610f16575f80fd5b8135610c9081610c97565b818382375f9101908152919050565b60c081018335610f3f81610c97565b73ffffffffffffffffffffffffffffffffffffffff1682526020848101359083015260408085013590830152606080850135908301526080938401359382019390935260a0015290565b5f82518060208501845e5f920191825250919050565b8681528560208201528460408201525f73ffffffffffffffffffffffffffffffffffffffff808616606084015280851660808401525060c060a0830152610fe960c0830184610c32565b98975050505050505050565b5f8085851115611003575f80fd5b8386111561100f575f80fd5b5050820193919092039150565b5f805f6060848603121561102e575f80fd5b83359250602084013561104081610c97565b929592945050506040919091013590565b7f4e487b71000000000000000000000000000000000000000000000000000000005f52604160045260245ffd5b5f806040838503121561108f575f80fd5b823561109a81610c97565b9150602083013567ffffffffffffffff808211156110b6575f80fd5b818501915085601f8301126110c9575f80fd5b8135818111156110db576110db611051565b604051601f82017fffffffffffffffffffffffffffffffffffffffffffffffffffffffffffffffe0908116603f0116810190838211818310171561112157611121611051565b81604052828152886020848701011115611139575f80fd5b826020860160208301375f602084830101528095505050505050925092905056fea164736f6c6343000819000a","linkReferences":{}},"methodIdentifiers":{"crossDomainMessageContext()":"7936cbee","crossDomainMessageSender()":"38ffde18","crossDomainMessageSource()":"24794462","messageNonce()":"ecc70428","messageVersion()":"52617f3c","relayMessage((address,uint256,uint256,uint256,uint256),bytes)":"8d1d298f","resendMessage(uint256,uint256,address,address,bytes)":"6b0c3c5e","sendMessage(uint256,address,bytes)":"7056f41f","sentMessages(uint256)":"bc294d7d","successfulMessages(bytes32)":"b1b1b209","version()":"54fd4d50"},"storageLayout":{"storage":[{"astId":72001,"contract":"src/L2/L2ToL2CrossDomainMessenger.sol:L2ToL2CrossDomainMessenger","label":"successfulMessages","offset":0,"slot":"0","type":"t_mapping(t_bytes32,t_bool)"},{"astId":72004,"contract":"src/L2/L2ToL2CrossDomainMessenger.sol:L2ToL2CrossDomainMessenger","label":"msgNonce","offset":0,"slot":"1","type":"t_uint240"},{"astId":72009,"contract":"src/L2/L2ToL2CrossDomainMessenger.sol:L2ToL2CrossDomainMessenger","label":"sentMessages","offset":0,"slot":"2","type":"t_mapping(t_uint256,t_bytes32)"}],"types":{"t_bool":{"encoding":"inplace","label":"bool","numberOfBytes":"1"},"t_bytes32":{"encoding":"inplace","label":"bytes32","numberOfBytes":"32"},"t_mapping(t_bytes32,t_bool)":{"encoding":"mapping","key":"t_bytes32","label":"mapping(bytes32 => bool)","numberOfBytes":"32","value":"t_bool"},"t_mapping(t_uint256,t_bytes32)":{"encoding":"mapping","key":"t_uint256","label":"mapping(uint256 => bytes32)","numberOfBytes":"32","value":"t_bytes32"},"t_uint240":{"encoding":"inplace","label":"uint240","numberOfBytes":"30"},"t_uint256":{"encoding":"inplace","label":"uint256","numberOfBytes":"32"}}},"userdoc":{"version":1,"kind":"user","methods":{"crossDomainMessageContext()":{"notice":"Retrieves the context of the current cross domain message. If not entered, reverts."},"crossDomainMessageSender()":{"notice":"Retrieves the sender of the current cross domain message. If not entered, reverts."},"crossDomainMessageSource()":{"notice":"Retrieves the source of the current cross domain message. If not entered, reverts."},"messageNonce()":{"notice":"Retrieves the next message nonce. Message version will be added to the upper two bytes of the message         nonce. Message version allows us to treat messages as having different structures."},"messageVersion()":{"notice":"Current message version identifier."},"relayMessage((address,uint256,uint256,uint256,uint256),bytes)":{"notice":"Relays a message that was sent by the other L2ToL2CrossDomainMessenger contract. Can only be executed         via cross chain call from the other messenger OR if the message was already received once and is         currently being replayed."},"resendMessage(uint256,uint256,address,address,bytes)":{"notice":"Re-emits a previously sent message event for old messages that haven't been         relayed yet, allowing offchain infrastructure to pick them up and relay them."},"sendMessage(uint256,address,bytes)":{"notice":"Sends a message to some target address on a destination chain. Note that if the call always reverts,         then the message will be unrelayable and any ETH sent will be permanently locked. The same will occur         if the target on the other chain is considered unsafe (see the _isUnsafeTarget() function)."},"sentMessages(uint256)":{"notice":"Mapping of message nonces to message hashes. Note that a message will only be present in this         mapping if it has been sent from this chain to a destination chain."},"successfulMessages(bytes32)":{"notice":"Mapping of message hashes to boolean receipt values. Note that a message will only be present in this         mapping if it has successfully been relayed on this chain, and can therefore not be relayed again."},"version()":{"notice":"Semantic version."}},"events":{"RelayedMessage(uint256,uint256,bytes32,bytes32)":{"notice":"Emitted whenever a message is successfully relayed on this chain."},"SentMessage(uint256,address,uint256,address,bytes)":{"notice":"Emitted whenever a message is sent to a destination"}},"errors":{"EventPayloadNotSentMessage()":[{"notice":"Thrown when the payload provided to the relay is not a SentMessage event."}],"IdOriginNotL2ToL2CrossDomainMessenger()":[{"notice":"Thrown when attempting to relay a message where payload origin is not L2ToL2CrossDomainMessenger."}],"InvalidMessage()":[{"notice":"Thrown when the provided message parameters do not match any hash of a previously sent message."}],"MessageAlreadyRelayed()":[{"notice":"Thrown when attempting to relay a message that has already been relayed."}],"MessageDestinationNotRelayChain()":[{"notice":"Thrown when attempting to relay a message whose destination chain is not the chain relaying it."}],"MessageDestinationSameChain()":[{"notice":"Thrown when attempting to send a message to the chain that the message is being sent from."}],"MessageTargetL2ToL2CrossDomainMessenger()":[{"notice":"Thrown when attempting to relay a message whose target is L2ToL2CrossDomainMessenger."}],"NotEntered()":[{"notice":"Thrown when a non-written transient storage slot is attempted to be read from."}],"ReentrantCall()":[{"notice":"Thrown when a reentrant call is detected."}]},"notice":"The L2ToL2CrossDomainMessenger is a higher level abstraction on top of the CrossL2Inbox that provides         features necessary for secure transfers ERC20 tokens between L2 chains. Messages sent through the         L2ToL2CrossDomainMessenger on the source chain receive both replay protection as well as domain binding."},"devdoc":{"version":1,"kind":"dev","methods":{"crossDomainMessageContext()":{"returns":{"sender_":"Address of the sender of the current cross domain message.","source_":"Chain ID of the source of the current cross domain message."}},"crossDomainMessageSender()":{"returns":{"sender_":"Address of the sender of the current cross domain message."}},"crossDomainMessageSource()":{"returns":{"source_":"Chain ID of the source of the current cross domain message."}},"messageNonce()":{"returns":{"_0":"Nonce of the next message to be sent, with added message version."}},"relayMessage((address,uint256,uint256,uint256,uint256),bytes)":{"params":{"_id":"Identifier of the SentMessage event to be relayed","_sentMessage":"Payload of the `SentMessage` event"},"returns":{"returnData_":"Return data from the target contract call."}},"resendMessage(uint256,uint256,address,address,bytes)":{"details":"Emitting a message that has already been relayed will have no effect, as it is only         relayed once on the destination chain.","params":{"_destination":"Chain ID of the destination chain.","_message":"Message payload to call target with.","_nonce":"Nonce of the message sent","_sender":"Address that sent the message","_target":"Target contract or wallet address."},"returns":{"messageHash_":"The hash of the message being re-sent."}},"sendMessage(uint256,address,bytes)":{"params":{"_destination":"Chain ID of the destination chain.","_message":"Message payload to call target with.","_target":"Target contract or wallet address."},"returns":{"messageHash_":"The hash of the message being sent, used to track whether the message                      has successfully been relayed."}}},"events":{"RelayedMessage(uint256,uint256,bytes32,bytes32)":{"params":{"messageHash":"Hash of the message that was relayed.","messageNonce":"Nonce associated with the messsage sent","returnDataHash":"Hash of the return data from the message that was relayed.","source":"Chain ID of the source chain."}},"SentMessage(uint256,address,uint256,address,bytes)":{"params":{"destination":"Chain ID of the destination chain.","message":"Message payload to call target with.","messageNonce":"Nonce associated with the message sent","sender":"Address initiating this message call","target":"Target contract or wallet address."}}},"title":"L2ToL2CrossDomainMessenger"},"id":148}