{"abi":[{"type":"constructor","inputs":[{"name":"_admin","type":"address","internalType":"address"}],"stateMutability":"nonpayable"},{"type":"receive","stateMutability":"payable"},{"type":"function","name":"ADMIN","inputs":[],"outputs":[{"name":"","type":"address","internalType":"address"}],"stateMutability":"view"},{"type":"function","name":"configure","inputs":[{"name":"_module","type":"address","internalType":"contract IFaucetAuthModule"},{"name":"_config","type":"tuple","internalType":"struct Faucet.ModuleConfig","components":[{"name":"name","type":"string","internalType":"string"},{"name":"enabled","type":"bool","internalType":"bool"},{"name":"ttl","type":"uint256","internalType":"uint256"},{"name":"amount","type":"uint256","internalType":"uint256"}]}],"outputs":[],"stateMutability":"nonpayable"},{"type":"function","name":"drip","inputs":[{"name":"_params","type":"tuple","internalType":"struct Faucet.DripParameters","components":[{"name":"recipient","type":"address","internalType":"address payable"},{"name":"data","type":"bytes","internalType":"bytes"},{"name":"nonce","type":"bytes32","internalType":"bytes32"},{"name":"gasLimit","type":"uint32","internalType":"uint32"}]},{"name":"_auth","type":"tuple","internalType":"struct Faucet.AuthParameters","components":[{"name":"module","type":"address","internalType":"contract IFaucetAuthModule"},{"name":"id","type":"bytes32","internalType":"bytes32"},{"name":"proof","type":"bytes","internalType":"bytes"}]}],"outputs":[],"stateMutability":"nonpayable"},{"type":"function","name":"isModuleEnabled","inputs":[{"name":"_module","type":"address","internalType":"contract IFaucetAuthModule"}],"outputs":[{"name":"","type":"bool","internalType":"bool"}],"stateMutability":"view"},{"type":"function","name":"modules","inputs":[{"name":"","type":"address","internalType":"contract IFaucetAuthModule"}],"outputs":[{"name":"name","type":"string","internalType":"string"},{"name":"enabled","type":"bool","internalType":"bool"},{"name":"ttl","type":"uint256","internalType":"uint256"},{"name":"amount","type":"uint256","internalType":"uint256"}],"stateMutability":"view"},{"type":"function","name":"nonces","inputs":[{"name":"","type":"bytes32","internalType":"bytes32"},{"name":"","type":"bytes32","internalType":"bytes32"}],"outputs":[{"name":"","type":"bool","internalType":"bool"}],"stateMutability":"view"},{"type":"function","name":"timeouts","inputs":[{"name":"","type":"address","internalType":"contract IFaucetAuthModule"},{"name":"","type":"bytes32","internalType":"bytes32"}],"outputs":[{"name":"","type":"uint256","internalType":"uint256"}],"stateMutability":"view"},{"type":"function","name":"withdraw","inputs":[{"name":"_recipient","type":"address","internalType":"address payable"},{"name":"_amount","type":"uint256","internalType":"uint256"}],"outputs":[],"stateMutability":"nonpayable"},{"type":"event","name":"Drip","inputs":[{"name":"authModule","type":"string","indexed":true,"internalType":"string"},{"name":"userId","type":"bytes32","indexed":true,"internalType":"bytes32"},{"name":"amount","type":"uint256","indexed":false,"internalType":"uint256"},{"name":"recipient","type":"address","indexed":true,"internalType":"address"}],"anonymous":false}],"bytecode":{"object":"0x60a060405234801561001057600080fd5b506040516113f63803806113f683398101604081905261002f91610040565b6001600160a01b0316608052610070565b60006020828403121561005257600080fd5b81516001600160a01b038116811461006957600080fd5b9392505050565b60805161135d6100996000396000818161010f0152818161026d0152610abf015261135d6000f3fe60806040526004361061007f5760003560e01c806338757bfd1161004e57806338757bfd1461019f578063a8ee49fe146101e5578063b1510e4314610215578063f3fef3a31461023557600080fd5b80631cb81b881461008b5780631d5d26bc146100ad5780632a0acc6a146100fd5780632d9ad53d1461015657600080fd5b3661008657005b600080fd5b34801561009757600080fd5b506100ab6100a6366004610cfd565b610255565b005b3480156100b957600080fd5b506100e86100c8366004610dbe565b600260209081526000928352604080842090915290825290205460ff1681565b60405190151581526020015b60405180910390f35b34801561010957600080fd5b506101317f000000000000000000000000000000000000000000000000000000000000000081565b60405173ffffffffffffffffffffffffffffffffffffffff90911681526020016100f4565b34801561016257600080fd5b506100e8610171366004610de0565b73ffffffffffffffffffffffffffffffffffffffff1660009081526020819052604090206001015460ff1690565b3480156101ab57600080fd5b506101d76101ba366004610e04565b600160209081526000928352604080842090915290825290205481565b6040519081526020016100f4565b3480156101f157600080fd5b50610205610200366004610de0565b6103a6565b6040516100f49493929190610ea6565b34801561022157600080fd5b506100ab610230366004610f7a565b61045c565b34801561024157600080fd5b506100ab610250366004610e04565b610aa7565b3373ffffffffffffffffffffffffffffffffffffffff7f0000000000000000000000000000000000000000000000000000000000000000161461031f576040517f08c379a000000000000000000000000000000000000000000000000000000000815260206004820152602c60248201527f4661756365743a2066756e6374696f6e2063616e206f6e6c792062652063616c60448201527f6c65642062792061646d696e000000000000000000000000000000000000000060648201526084015b60405180910390fd5b73ffffffffffffffffffffffffffffffffffffffff821660009081526020819052604090208151829190819061035590826110ec565b5060208201516001820180547fffffffffffffffffffffffffffffffffffffffffffffffffffffffffffffff0016911515919091179055604082015160028201556060909101516003909101555050565b6000602081905290815260409020805481906103c19061104a565b80601f01602080910402602001604051908101604052809291908181526020018280546103ed9061104a565b801561043a5780601f1061040f5761010080835404028352916020019161043a565b820191906000526020600020905b81548152906001019060200180831161041d57829003601f168201915b5050505060018301546002840154600390940154929360ff9091169290915084565b805173ffffffffffffffffffffffffffffffffffffffff1660009081526020819052604080822081516080810190925280548290829061049b9061104a565b80601f01602080910402602001604051908101604052809291908181526020018280546104c79061104a565b80156105145780601f106104e957610100808354040283529160200191610514565b820191906000526020600020905b8154815290600101906020018083116104f757829003601f168201915b5050509183525050600182015460ff161515602080830191909152600283015460408301526003909201546060909101528101519091506105d7576040517f08c379a000000000000000000000000000000000000000000000000000000000815260206004820152603c60248201527f4661756365743a2070726f76696465642061757468206d6f64756c652069732060448201527f6e6f7420737570706f72746564206279207468697320666175636574000000006064820152608401610316565b6020808301516000908152600282526040808220868201518352909252205460ff1615610686576040517f08c379a000000000000000000000000000000000000000000000000000000000815260206004820152602360248201527f4661756365743a206e6f6e63652068617320616c7265616479206265656e207560448201527f73656400000000000000000000000000000000000000000000000000000000006064820152608401610316565b815173ffffffffffffffffffffffffffffffffffffffff1660009081526001602090815260408083208286015184529091529020544211610749576040517f08c379a000000000000000000000000000000000000000000000000000000000815260206004820152603f60248201527f4661756365743a20617574682063616e6e6f742062652075736564207965742060448201527f626563617573652074696d656f757420686173206e6f7420656c6170736564006064820152608401610316565b8151602083015160408085015190517fd855814f00000000000000000000000000000000000000000000000000000000815273ffffffffffffffffffffffffffffffffffffffff9093169263d855814f926107a8928892600401611206565b602060405180830381865afa1580156107c5573d6000803e3d6000fd5b505050506040513d601f19601f820116820180604052508101906107e9919061127f565b61087757604080517f08c379a00000000000000000000000000000000000000000000000000000000081526020600482015260248101919091527f4661756365743a206472697020706172616d657465727320636f756c64206e6f60448201527f74206265207665726966696564206279207365637572697479206d6f64756c656064820152608401610316565b82513073ffffffffffffffffffffffffffffffffffffffff909116036108f9576040517f08c379a000000000000000000000000000000000000000000000000000000000815260206004820152601d60248201527f4661756365743a2063616e6e6f74206472697020746f20697473656c660000006044820152606401610316565b6040810151610908904261129c565b825173ffffffffffffffffffffffffffffffffffffffff16600090815260016020818152604080842082880180518652908352818520959095559351835260028152838320878501518452815292822080547fffffffffffffffffffffffffffffffffffffffffffffffffffffffffffffff001690911790558451606080870151908501519387015192936109a59363ffffffff90921691610bba565b905080610a34576040517f08c379a000000000000000000000000000000000000000000000000000000000815260206004820152603b60248201527f4661756365743a204661696c656420746f20657865637574652053616665436160448201527f6c6c20647572696e67206472697020746f20726563697069656e7400000000006064820152608401610316565b83516020840151835160405173ffffffffffffffffffffffffffffffffffffffff90931692610a6391906112db565b60405190819003812060608601518252907f2cebdf1cc706a50e1b28bf2fc5cfbd7204747a3b82439b85721a474df3a355a49060200160405180910390a450505050565b3373ffffffffffffffffffffffffffffffffffffffff7f00000000000000000000000000000000000000000000000000000000000000001614610b6c576040517f08c379a000000000000000000000000000000000000000000000000000000000815260206004820152602c60248201527f4661756365743a2066756e6374696f6e2063616e206f6e6c792062652063616c60448201527f6c65642062792061646d696e00000000000000000000000000000000000000006064820152608401610316565b8082604051610b7a90610bd2565b73ffffffffffffffffffffffffffffffffffffffff90911681526020016040518091039082f0905080158015610bb4573d6000803e3d6000fd5b50505050565b6000806000835160208501868989f195945050505050565b6059806112f883390190565b73ffffffffffffffffffffffffffffffffffffffff81168114610c0057600080fd5b50565b7f4e487b7100000000000000000000000000000000000000000000000000000000600052604160045260246000fd5b6040516080810167ffffffffffffffff81118282101715610c5557610c55610c03565b60405290565b600067ffffffffffffffff80841115610c7657610c76610c03565b604051601f85017fffffffffffffffffffffffffffffffffffffffffffffffffffffffffffffffe0908116603f01168101908282118183101715610cbc57610cbc610c03565b81604052809350858152868686011115610cd557600080fd5b858560208301376000602087830101525050509392505050565b8015158114610c0057600080fd5b60008060408385031215610d1057600080fd5b8235610d1b81610bde565b9150602083013567ffffffffffffffff80821115610d3857600080fd5b9084019060808287031215610d4c57600080fd5b610d54610c32565b823582811115610d6357600080fd5b83019150601f82018713610d7657600080fd5b610d8587833560208501610c5b565b815260208301359150610d9782610cef565b81602082015260408301356040820152606083013560608201528093505050509250929050565b60008060408385031215610dd157600080fd5b50508035926020909101359150565b600060208284031215610df257600080fd5b8135610dfd81610bde565b9392505050565b60008060408385031215610e1757600080fd5b8235610e2281610bde565b946020939093013593505050565b60005b83811015610e4b578181015183820152602001610e33565b83811115610bb45750506000910152565b60008151808452610e74816020860160208601610e30565b601f017fffffffffffffffffffffffffffffffffffffffffffffffffffffffffffffffe0169290920160200192915050565b608081526000610eb96080830187610e5c565b9415156020830152506040810192909252606090910152919050565b600082601f830112610ee657600080fd5b610dfd83833560208501610c5b565b600060608284031215610f0757600080fd5b6040516060810167ffffffffffffffff8282108183111715610f2b57610f2b610c03565b8160405282935084359150610f3f82610bde565b818352602085013560208401526040850135915080821115610f6057600080fd5b50610f6d85828601610ed5565b6040830152505092915050565b60008060408385031215610f8d57600080fd5b823567ffffffffffffffff80821115610fa557600080fd5b9084019060808287031215610fb957600080fd5b610fc1610c32565b8235610fcc81610bde565b8152602083013582811115610fe057600080fd5b610fec88828601610ed5565b602083015250604083013560408201526060830135925063ffffffff8316831461101557600080fd5b82606082015280945050602085013591508082111561103357600080fd5b5061104085828601610ef5565b9150509250929050565b600181811c9082168061105e57607f821691505b602082108103611097577f4e487b7100000000000000000000000000000000000000000000000000000000600052602260045260246000fd5b50919050565b601f8211156110e757600081815260208120601f850160051c810160208610156110c45750805b601f850160051c820191505b818110156110e3578281556001016110d0565b5050505b505050565b815167ffffffffffffffff81111561110657611106610c03565b61111a81611114845461104a565b8461109d565b602080601f83116001811461116d57600084156111375750858301515b7fffffffffffffffffffffffffffffffffffffffffffffffffffffffffffffffff600386901b1c1916600185901b1785556110e3565b6000858152602081207fffffffffffffffffffffffffffffffffffffffffffffffffffffffffffffffe08616915b828110156111ba5788860151825594840194600190910190840161119b565b50858210156111f657878501517fffffffffffffffffffffffffffffffffffffffffffffffffffffffffffffffff600388901b60f8161c191681555b5050505050600190811b01905550565b6060815273ffffffffffffffffffffffffffffffffffffffff84511660608201526000602085015160808084015261124160e0840182610e5c565b9050604086015160a084015263ffffffff60608701511660c084015284602084015282810360408401526112758185610e5c565b9695505050505050565b60006020828403121561129157600080fd5b8151610dfd81610cef565b600082198211156112d6577f4e487b7100000000000000000000000000000000000000000000000000000000600052601160045260246000fd5b500190565b600082516112ed818460208701610e30565b919091019291505056fe608060405260405160593803806059833981016040819052601e91602a565b806001600160a01b0316ff5b600060208284031215603b57600080fd5b81516001600160a01b0381168114605157600080fd5b939250505056fea164736f6c634300080f000a","linkReferences":{}},"methodIdentifiers":{"ADMIN()":"2a0acc6a","configure(address,(string,bool,uint256,uint256))":"1cb81b88","drip((address,bytes,bytes32,uint32),(address,bytes32,bytes))":"b1510e43","isModuleEnabled(address)":"2d9ad53d","modules(address)":"a8ee49fe","nonces(bytes32,bytes32)":"1d5d26bc","timeouts(address,bytes32)":"38757bfd","withdraw(address,uint256)":"f3fef3a3"},"storageLayout":{"storage":[{"astId":125843,"contract":"src/periphery/faucet/Faucet.sol:Faucet","label":"modules","offset":0,"slot":"0","type":"t_mapping(t_contract(IFaucetAuthModule)126176,t_struct(ModuleConfig)125833_storage)"},{"astId":125851,"contract":"src/periphery/faucet/Faucet.sol:Faucet","label":"timeouts","offset":0,"slot":"1","type":"t_mapping(t_contract(IFaucetAuthModule)126176,t_mapping(t_bytes32,t_uint256))"},{"astId":125858,"contract":"src/periphery/faucet/Faucet.sol:Faucet","label":"nonces","offset":0,"slot":"2","type":"t_mapping(t_bytes32,t_mapping(t_bytes32,t_bool))"}],"types":{"t_bool":{"encoding":"inplace","label":"bool","numberOfBytes":"1"},"t_bytes32":{"encoding":"inplace","label":"bytes32","numberOfBytes":"32"},"t_contract(IFaucetAuthModule)126176":{"encoding":"inplace","label":"contract IFaucetAuthModule","numberOfBytes":"20"},"t_mapping(t_bytes32,t_bool)":{"encoding":"mapping","key":"t_bytes32","label":"mapping(bytes32 => bool)","numberOfBytes":"32","value":"t_bool"},"t_mapping(t_bytes32,t_mapping(t_bytes32,t_bool))":{"encoding":"mapping","key":"t_bytes32","label":"mapping(bytes32 => mapping(bytes32 => bool))","numberOfBytes":"32","value":"t_mapping(t_bytes32,t_bool)"},"t_mapping(t_bytes32,t_uint256)":{"encoding":"mapping","key":"t_bytes32","label":"mapping(bytes32 => uint256)","numberOfBytes":"32","value":"t_uint256"},"t_mapping(t_contract(IFaucetAuthModule)126176,t_mapping(t_bytes32,t_uint256))":{"encoding":"mapping","key":"t_contract(IFaucetAuthModule)126176","label":"mapping(contract IFaucetAuthModule => mapping(bytes32 => uint256))","numberOfBytes":"32","value":"t_mapping(t_bytes32,t_uint256)"},"t_mapping(t_contract(IFaucetAuthModule)126176,t_struct(ModuleConfig)125833_storage)":{"encoding":"mapping","key":"t_contract(IFaucetAuthModule)126176","label":"mapping(contract IFaucetAuthModule => struct Faucet.ModuleConfig)","numberOfBytes":"32","value":"t_struct(ModuleConfig)125833_storage"},"t_string_storage":{"encoding":"bytes","label":"string","numberOfBytes":"32"},"t_struct(ModuleConfig)125833_storage":{"encoding":"inplace","label":"struct Faucet.ModuleConfig","numberOfBytes":"128","members":[{"astId":125826,"contract":"src/periphery/faucet/Faucet.sol:Faucet","label":"name","offset":0,"slot":"0","type":"t_string_storage"},{"astId":125828,"contract":"src/periphery/faucet/Faucet.sol:Faucet","label":"enabled","offset":0,"slot":"1","type":"t_bool"},{"astId":125830,"contract":"src/periphery/faucet/Faucet.sol:Faucet","label":"ttl","offset":0,"slot":"2","type":"t_uint256"},{"astId":125832,"contract":"src/periphery/faucet/Faucet.sol:Faucet","label":"amount","offset":0,"slot":"3","type":"t_uint256"}]},"t_uint256":{"encoding":"inplace","label":"uint256","numberOfBytes":"32"}}},"userdoc":{"version":1,"kind":"user","methods":{"ADMIN()":{"notice":"Admin address that can configure the faucet."},"configure(address,(string,bool,uint256,uint256))":{"notice":"Allows the admin to configure an authentication module."},"drip((address,bytes,bytes32,uint32),(address,bytes32,bytes))":{"notice":"Drips ETH to a recipient account."},"isModuleEnabled(address)":{"notice":"Returns the enable value of a given auth module."},"modules(address)":{"notice":"Mapping of authentication modules to their configurations."},"nonces(bytes32,bytes32)":{"notice":"Maps from id to nonces to whether or not they have been used."},"timeouts(address,bytes32)":{"notice":"Mapping of authentication IDs to the next timestamp at which they can be used."},"withdraw(address,uint256)":{"notice":"Allows the admin to withdraw funds."}},"events":{"Drip(string,bytes32,uint256,address)":{"notice":"Emitted on each drip."}},"notice":"Faucet contract that drips ETH to users."},"devdoc":{"version":1,"kind":"dev","methods":{"configure(address,(string,bool,uint256,uint256))":{"params":{"_config":"Configuration to set for the module.","_module":"Authentication module to configure."}},"constructor":{"params":{"_admin":"Admin address that can configure the faucet."}},"drip((address,bytes,bytes32,uint32),(address,bytes32,bytes))":{"params":{"_auth":"Authentication parameters.","_params":"Drip parameters."}},"isModuleEnabled(address)":{"params":{"_module":"module to check."},"returns":{"_0":"bool enabled status of auth modulew."}},"withdraw(address,uint256)":{"params":{"_amount":"Amount of ETH in wei to withdraw.","_recipient":"Address to receive the funds."}}},"events":{"Drip(string,bytes32,uint256,address)":{"params":{"amount":"The amount of funds sent.","authModule":"The type of authentication that was used for verifying the drip.","recipient":"The recipient of the drip.","userId":"The id of the user that requested the drip."}}},"title":"Faucet"},"id":310}