{"abi":[{"type":"function","name":"getMessageHash","inputs":[{"name":"message","type":"bytes","internalType":"bytes"}],"outputs":[{"name":"","type":"bytes32","internalType":"bytes32"}],"stateMutability":"view"},{"type":"function","name":"signMessage","inputs":[{"name":"_data","type":"bytes","internalType":"bytes"}],"outputs":[],"stateMutability":"nonpayable"},{"type":"event","name":"SignMsg","inputs":[{"name":"msgHash","type":"bytes32","indexed":true,"internalType":"bytes32"}],"anonymous":false}],"bytecode":{"object":"0x608060405234801561001057600080fd5b50610427806100206000396000f3fe608060405234801561001057600080fd5b50600436106100365760003560e01c80630a1028c41461003b57806385a5affe14610060575b600080fd5b61004e6100493660046102c0565b610075565b60405190815260200160405180910390f35b61007361006e36600461038f565b61020e565b005b6000807f60b3cbf8b4a223d68d641b3b6ddf9a298e7f33710cf3d3a9d1146b5a6150fbca60001b83805190602001206040516020016100be929190918252602082015260400190565b604080517fffffffffffffffffffffffffffffffffffffffffffffffffffffffffffffffe081840301815282825280516020918201207ff698da2500000000000000000000000000000000000000000000000000000000845291519193507f1900000000000000000000000000000000000000000000000000000000000000927f010000000000000000000000000000000000000000000000000000000000000092309263f698da2592600480820193918290030181865afa158015610188573d6000803e3d6000fd5b505050506040513d601f19601f820116820180604052508101906101ac9190610401565b6040517fff00000000000000000000000000000000000000000000000000000000000000938416602082015292909116602183015260228201526042810182905260620160405160208183030381529060405280519060200120915050919050565b600061024f83838080601f01602080910402602001604051908101604052809392919081815260200183838082843760009201919091525061007592505050565b600081815260076020526040808220600190555191925082917fe7f4675038f4f6034dfcbbb24c4dc08e4ebf10eb9d257d3d02c0f38d122ac6e49190a2505050565b7f4e487b7100000000000000000000000000000000000000000000000000000000600052604160045260246000fd5b6000602082840312156102d257600080fd5b813567ffffffffffffffff808211156102ea57600080fd5b818401915084601f8301126102fe57600080fd5b81358181111561031057610310610291565b604051601f82017fffffffffffffffffffffffffffffffffffffffffffffffffffffffffffffffe0908116603f0116810190838211818310171561035657610356610291565b8160405282815287602084870101111561036f57600080fd5b826020860160208301376000928101602001929092525095945050505050565b600080602083850312156103a257600080fd5b823567ffffffffffffffff808211156103ba57600080fd5b818501915085601f8301126103ce57600080fd5b8135818111156103dd57600080fd5b8660208285010111156103ef57600080fd5b60209290920196919550909350505050565b60006020828403121561041357600080fd5b505191905056fea164736f6c634300080f000a","linkReferences":{}},"methodIdentifiers":{"getMessageHash(bytes)":"0a1028c4","signMessage(bytes)":"85a5affe"},"storageLayout":{"storage":[{"astId":61446,"contract":"lib/safe-contracts/contracts/examples/libraries/SignMessage.sol:SignMessageLib","label":"singleton","offset":0,"slot":"0","type":"t_address"},{"astId":61450,"contract":"lib/safe-contracts/contracts/examples/libraries/SignMessage.sol:SignMessageLib","label":"modules","offset":0,"slot":"1","type":"t_mapping(t_address,t_address)"},{"astId":61454,"contract":"lib/safe-contracts/contracts/examples/libraries/SignMessage.sol:SignMessageLib","label":"owners","offset":0,"slot":"2","type":"t_mapping(t_address,t_address)"},{"astId":61456,"contract":"lib/safe-contracts/contracts/examples/libraries/SignMessage.sol:SignMessageLib","label":"ownerCount","offset":0,"slot":"3","type":"t_uint256"},{"astId":61458,"contract":"lib/safe-contracts/contracts/examples/libraries/SignMessage.sol:SignMessageLib","label":"threshold","offset":0,"slot":"4","type":"t_uint256"},{"astId":61460,"contract":"lib/safe-contracts/contracts/examples/libraries/SignMessage.sol:SignMessageLib","label":"nonce","offset":0,"slot":"5","type":"t_bytes32"},{"astId":61462,"contract":"lib/safe-contracts/contracts/examples/libraries/SignMessage.sol:SignMessageLib","label":"domainSeparator","offset":0,"slot":"6","type":"t_bytes32"},{"astId":61466,"contract":"lib/safe-contracts/contracts/examples/libraries/SignMessage.sol:SignMessageLib","label":"signedMessages","offset":0,"slot":"7","type":"t_mapping(t_bytes32,t_uint256)"},{"astId":61472,"contract":"lib/safe-contracts/contracts/examples/libraries/SignMessage.sol:SignMessageLib","label":"approvedHashes","offset":0,"slot":"8","type":"t_mapping(t_address,t_mapping(t_bytes32,t_uint256))"}],"types":{"t_address":{"encoding":"inplace","label":"address","numberOfBytes":"20"},"t_bytes32":{"encoding":"inplace","label":"bytes32","numberOfBytes":"32"},"t_mapping(t_address,t_address)":{"encoding":"mapping","key":"t_address","label":"mapping(address => address)","numberOfBytes":"32","value":"t_address"},"t_mapping(t_address,t_mapping(t_bytes32,t_uint256))":{"encoding":"mapping","key":"t_address","label":"mapping(address => mapping(bytes32 => uint256))","numberOfBytes":"32","value":"t_mapping(t_bytes32,t_uint256)"},"t_mapping(t_bytes32,t_uint256)":{"encoding":"mapping","key":"t_bytes32","label":"mapping(bytes32 => uint256)","numberOfBytes":"32","value":"t_uint256"},"t_uint256":{"encoding":"inplace","label":"uint256","numberOfBytes":"32"}}},"userdoc":{"version":1,"kind":"user","methods":{"signMessage(bytes)":{"notice":"Marks a message (`_data`) as signed."}}},"devdoc":{"version":1,"kind":"dev","author":"Richard Meissner - <richard@gnosis.io>","methods":{"getMessageHash(bytes)":{"details":"Returns hash of a message that can be signed by owners.","params":{"message":"Message that should be hashed"},"returns":{"_0":"Message hash."}},"signMessage(bytes)":{"details":"Marks a message as signed, so that it can be used with EIP-1271","params":{"_data":"Arbitrary length data that should be marked as signed on the behalf of address(this)"}}},"title":"SignMessageLib - Allows to set an entry in the signedMessages"},"id":156}