{"abi":[{"type":"constructor","inputs":[{"name":"_delay","type":"uint256","internalType":"uint256"}],"stateMutability":"nonpayable"},{"type":"fallback","stateMutability":"payable"},{"type":"receive","stateMutability":"payable"},{"type":"function","name":"allowance","inputs":[{"name":"owner","type":"address","internalType":"address"},{"name":"spender","type":"address","internalType":"address"}],"outputs":[{"name":"","type":"uint256","internalType":"uint256"}],"stateMutability":"view"},{"type":"function","name":"approve","inputs":[{"name":"guy","type":"address","internalType":"address"},{"name":"wad","type":"uint256","internalType":"uint256"}],"outputs":[{"name":"","type":"bool","internalType":"bool"}],"stateMutability":"nonpayable"},{"type":"function","name":"balanceOf","inputs":[{"name":"src","type":"address","internalType":"address"}],"outputs":[{"name":"","type":"uint256","internalType":"uint256"}],"stateMutability":"view"},{"type":"function","name":"config","inputs":[],"outputs":[{"name":"","type":"address","internalType":"contract ISuperchainConfig"}],"stateMutability":"view"},{"type":"function","name":"decimals","inputs":[],"outputs":[{"name":"","type":"uint8","internalType":"uint8"}],"stateMutability":"view"},{"type":"function","name":"delay","inputs":[],"outputs":[{"name":"","type":"uint256","internalType":"uint256"}],"stateMutability":"view"},{"type":"function","name":"deposit","inputs":[],"outputs":[],"stateMutability":"payable"},{"type":"function","name":"hold","inputs":[{"name":"_guy","type":"address","internalType":"address"},{"name":"_wad","type":"uint256","internalType":"uint256"}],"outputs":[],"stateMutability":"nonpayable"},{"type":"function","name":"hold","inputs":[{"name":"_guy","type":"address","internalType":"address"}],"outputs":[],"stateMutability":"nonpayable"},{"type":"function","name":"initVersion","inputs":[],"outputs":[{"name":"","type":"uint8","internalType":"uint8"}],"stateMutability":"view"},{"type":"function","name":"initialize","inputs":[{"name":"_systemConfig","type":"address","internalType":"contract ISystemConfig"}],"outputs":[],"stateMutability":"nonpayable"},{"type":"function","name":"name","inputs":[],"outputs":[{"name":"","type":"string","internalType":"string"}],"stateMutability":"view"},{"type":"function","name":"proxyAdmin","inputs":[],"outputs":[{"name":"","type":"address","internalType":"contract IProxyAdmin"}],"stateMutability":"view"},{"type":"function","name":"proxyAdminOwner","inputs":[],"outputs":[{"name":"","type":"address","internalType":"address"}],"stateMutability":"view"},{"type":"function","name":"recover","inputs":[{"name":"_wad","type":"uint256","internalType":"uint256"}],"outputs":[],"stateMutability":"nonpayable"},{"type":"function","name":"symbol","inputs":[],"outputs":[{"name":"","type":"string","internalType":"string"}],"stateMutability":"view"},{"type":"function","name":"systemConfig","inputs":[],"outputs":[{"name":"","type":"address","internalType":"contract ISystemConfig"}],"stateMutability":"view"},{"type":"function","name":"totalSupply","inputs":[],"outputs":[{"name":"","type":"uint256","internalType":"uint256"}],"stateMutability":"view"},{"type":"function","name":"transfer","inputs":[{"name":"dst","type":"address","internalType":"address"},{"name":"wad","type":"uint256","internalType":"uint256"}],"outputs":[{"name":"","type":"bool","internalType":"bool"}],"stateMutability":"nonpayable"},{"type":"function","name":"transferFrom","inputs":[{"name":"src","type":"address","internalType":"address"},{"name":"dst","type":"address","internalType":"address"},{"name":"wad","type":"uint256","internalType":"uint256"}],"outputs":[{"name":"","type":"bool","internalType":"bool"}],"stateMutability":"nonpayable"},{"type":"function","name":"unlock","inputs":[{"name":"_guy","type":"address","internalType":"address"},{"name":"_wad","type":"uint256","internalType":"uint256"}],"outputs":[],"stateMutability":"nonpayable"},{"type":"function","name":"version","inputs":[],"outputs":[{"name":"","type":"string","internalType":"string"}],"stateMutability":"view"},{"type":"function","name":"withdraw","inputs":[{"name":"_wad","type":"uint256","internalType":"uint256"}],"outputs":[],"stateMutability":"nonpayable"},{"type":"function","name":"withdraw","inputs":[{"name":"_guy","type":"address","internalType":"address"},{"name":"_wad","type":"uint256","internalType":"uint256"}],"outputs":[],"stateMutability":"nonpayable"},{"type":"function","name":"withdrawals","inputs":[{"name":"","type":"address","internalType":"address"},{"name":"","type":"address","internalType":"address"}],"outputs":[{"name":"amount","type":"uint256","internalType":"uint256"},{"name":"timestamp","type":"uint256","internalType":"uint256"}],"stateMutability":"view"},{"type":"event","name":"Approval","inputs":[{"name":"src","type":"address","indexed":true,"internalType":"address"},{"name":"guy","type":"address","indexed":true,"internalType":"address"},{"name":"wad","type":"uint256","indexed":false,"internalType":"uint256"}],"anonymous":false},{"type":"event","name":"Deposit","inputs":[{"name":"dst","type":"address","indexed":true,"internalType":"address"},{"name":"wad","type":"uint256","indexed":false,"internalType":"uint256"}],"anonymous":false},{"type":"event","name":"Initialized","inputs":[{"name":"version","type":"uint8","indexed":false,"internalType":"uint8"}],"anonymous":false},{"type":"event","name":"Transfer","inputs":[{"name":"src","type":"address","indexed":true,"internalType":"address"},{"name":"dst","type":"address","indexed":true,"internalType":"address"},{"name":"wad","type":"uint256","indexed":false,"internalType":"uint256"}],"anonymous":false},{"type":"event","name":"Withdrawal","inputs":[{"name":"src","type":"address","indexed":true,"internalType":"address"},{"name":"wad","type":"uint256","indexed":false,"internalType":"uint256"}],"anonymous":false},{"type":"error","name":"ProxyAdminOwnedBase_NotProxyAdmin","inputs":[]},{"type":"error","name":"ProxyAdminOwnedBase_NotProxyAdminOrProxyAdminOwner","inputs":[]},{"type":"error","name":"ProxyAdminOwnedBase_NotProxyAdminOwner","inputs":[]},{"type":"error","name":"ProxyAdminOwnedBase_NotResolvedDelegateProxy","inputs":[]},{"type":"error","name":"ProxyAdminOwnedBase_NotSharedProxyAdminOwner","inputs":[]},{"type":"error","name":"ProxyAdminOwnedBase_ProxyAdminNotFound","inputs":[]},{"type":"error","name":"ReinitializableBase_ZeroInitVersion","inputs":[]}],"bytecode":{"object":"0x60c060405234801561001057600080fd5b5060405161187438038061187483398101604081905261002f91610107565b600160805260a0819052610041610047565b50610120565b600054610100900460ff16156100b35760405162461bcd60e51b815260206004820152602760248201527f496e697469616c697a61626c653a20636f6e747261637420697320696e697469604482015266616c697a696e6760c81b606482015260840160405180910390fd5b60005460ff9081161015610105576000805460ff191660ff9081179091556040519081527f7f26b83ff96e1f2b6a682f133852f6798a09c465da95921460cefb38474024989060200160405180910390a15b565b60006020828403121561011957600080fd5b5051919050565b60805160a051611721610153600039600081816103cf01526112c101526000818161033e0152610e7901526117216000f3fe60806040526004361061019a5760003560e01c806370a08231116100e1578063a9059cbb1161008a578063d0e30db011610064578063d0e30db0146101a9578063dad544e014610585578063dd62ed3e1461059a578063f3fef3a3146105ed576101a9565b8063a9059cbb146104f1578063c4d66de814610511578063cd47bde114610531576101a9565b806395d89b41116100bb57806395d89b411461046b578063977a5ec5146104b1578063a7e21e80146104d1576101a9565b806370a08231146103f357806379502c55146104365780637eee288d1461044b576101a9565b8063313ce567116101435780633e47158c1161011d5780633e47158c1461036257806354fd4d50146103775780636a42b8f8146103c0576101a9565b8063313ce567146102b657806333d7e2bd146102dd57806338d38c971461032f576101a9565b806318160ddd1161017457806318160ddd1461025957806323b872dd146102765780632e1a7d4d14610296576101a9565b806306fdde03146101b1578063095ea7b3146102095780630ca3568214610239576101a9565b366101a9576101a761060d565b005b6101a761060d565b3480156101bd57600080fd5b5060408051808201909152600d81527f577261707065642045746865720000000000000000000000000000000000000060208201525b60405161020091906114c9565b60405180910390f35b34801561021557600080fd5b5061022961022436600461155e565b610668565b6040519015158152602001610200565b34801561024557600080fd5b506101a761025436600461158a565b6106e1565b34801561026557600080fd5b50475b604051908152602001610200565b34801561028257600080fd5b506102296102913660046115a3565b61084d565b3480156102a257600080fd5b506101a76102b136600461158a565b610a20565b3480156102c257600080fd5b506102cb601281565b60405160ff9091168152602001610200565b3480156102e957600080fd5b5060045461030a9073ffffffffffffffffffffffffffffffffffffffff1681565b60405173ffffffffffffffffffffffffffffffffffffffff9091168152602001610200565b34801561033b57600080fd5b507f00000000000000000000000000000000000000000000000000000000000000006102cb565b34801561036e57600080fd5b5061030a610a2d565b34801561038357600080fd5b506101f36040518060400160405280600581526020017f312e352e3000000000000000000000000000000000000000000000000000000081525081565b3480156103cc57600080fd5b507f0000000000000000000000000000000000000000000000000000000000000000610268565b3480156103ff57600080fd5b5061026861040e3660046115e4565b73ffffffffffffffffffffffffffffffffffffffff1660009081526001602052604090205490565b34801561044257600080fd5b5061030a610c38565b34801561045757600080fd5b506101a761046636600461155e565b610cd0565b34801561047757600080fd5b5060408051808201909152600481527f574554480000000000000000000000000000000000000000000000000000000060208201526101f3565b3480156104bd57600080fd5b506101a76104cc36600461155e565b610d24565b3480156104dd57600080fd5b506101a76104ec3660046115e4565b610e33565b3480156104fd57600080fd5b5061022961050c36600461155e565b610e63565b34801561051d57600080fd5b506101a761052c3660046115e4565b610e77565b34801561053d57600080fd5b5061057061054c366004611601565b60036020908152600092835260408084209091529082529020805460019091015482565b60408051928352602083019190915201610200565b34801561059157600080fd5b5061030a61101e565b3480156105a657600080fd5b506102686105b5366004611601565b73ffffffffffffffffffffffffffffffffffffffff918216600090815260026020908152604080832093909416825291909152205490565b3480156105f957600080fd5b506101a761060836600461155e565b611072565b336000908152600160205260408120805434929061062c908490611669565b909155505060405134815233907fe1fffcc4923d04b559f4d29a8bfc6cda04eb5b0d3c460751c2402c5c5cc9109c9060200160405180910390a2565b33600081815260026020908152604080832073ffffffffffffffffffffffffffffffffffffffff8716808552925280832085905551919290917f8c5be1e5ebec7d5bd14f71427d1e84f3dd0314c0f7b2291e5b200ac8c7c3b925906106d09086815260200190565b60405180910390a350600192915050565b6106e961101e565b73ffffffffffffffffffffffffffffffffffffffff163373ffffffffffffffffffffffffffffffffffffffff1614610782576040517f08c379a000000000000000000000000000000000000000000000000000000000815260206004820152601660248201527f44656c61796564574554483a206e6f74206f776e65720000000000000000000060448201526064015b60405180910390fd5b60004782106107915747610793565b815b604051909150600090339083908381818185875af1925050503d80600081146107d8576040519150601f19603f3d011682016040523d82523d6000602084013e6107dd565b606091505b5050905080610848576040517f08c379a000000000000000000000000000000000000000000000000000000000815260206004820152601b60248201527f44656c61796564574554483a207265636f766572206661696c656400000000006044820152606401610779565b505050565b73ffffffffffffffffffffffffffffffffffffffff831660009081526001602052604081205482111561087f57600080fd5b73ffffffffffffffffffffffffffffffffffffffff841660008181526002602090815260408083203380855292529091205491148015906108e057507fffffffffffffffffffffffffffffffffffffffffffffffffffffffffffffffff8114155b1561093857828110156108f257600080fd5b73ffffffffffffffffffffffffffffffffffffffff8516600090815260026020908152604080832033845290915281208054859290610932908490611681565b90915550505b73ffffffffffffffffffffffffffffffffffffffff85166000908152600160205260408120805485929061096d908490611681565b909155505073ffffffffffffffffffffffffffffffffffffffff8416600090815260016020526040812080548592906109a7908490611669565b925050819055508373ffffffffffffffffffffffffffffffffffffffff168573ffffffffffffffffffffffffffffffffffffffff167fddf252ad1be2c89b69c2b068fc378daa952ba7f163c4a11628f55a4df523b3ef85604051610a0d91815260200190565b60405180910390a3506001949350505050565b610a2a3382611072565b50565b600080610a587fb53127684a568b3173ae13b9f8a6016e243e63b6e8ee1178d6a717850b5d61035490565b905073ffffffffffffffffffffffffffffffffffffffff811615610a7b57919050565b6040518060400160405280601a81526020017f4f564d5f4c3143726f7373446f6d61696e4d657373656e676572000000000000815250516002610abe9190611698565b604080513060208201526000918101919091527f4f564d5f4c3143726f7373446f6d61696e4d657373656e6765720000000000009190911790610b19906060015b604051602081830303815290604052805190602001205490565b14610b50576040517f54e433cd00000000000000000000000000000000000000000000000000000000815260040160405180910390fd5b60408051306020820152600191810191909152600090610b7290606001610aff565b905073ffffffffffffffffffffffffffffffffffffffff811615610c06578073ffffffffffffffffffffffffffffffffffffffff16638da5cb5b6040518163ffffffff1660e01b8152600401602060405180830381865afa158015610bdb573d6000803e3d6000fd5b505050506040513d601f19601f82011682018060405250810190610bff91906116d5565b9250505090565b6040517f332144db00000000000000000000000000000000000000000000000000000000815260040160405180910390fd5b6000600460009054906101000a900473ffffffffffffffffffffffffffffffffffffffff1673ffffffffffffffffffffffffffffffffffffffff166335e80ab36040518163ffffffff1660e01b8152600401602060405180830381865afa158015610ca7573d6000803e3d6000fd5b505050506040513d601f19601f82011682018060405250810190610ccb91906116d5565b905090565b33600090815260036020908152604080832073ffffffffffffffffffffffffffffffffffffffff861684529091528120426001820155805490918391839190610d1a908490611669565b9091555050505050565b610d2c61101e565b73ffffffffffffffffffffffffffffffffffffffff163373ffffffffffffffffffffffffffffffffffffffff1614610dc0576040517f08c379a000000000000000000000000000000000000000000000000000000000815260206004820152601660248201527f44656c61796564574554483a206e6f74206f776e6572000000000000000000006044820152606401610779565b73ffffffffffffffffffffffffffffffffffffffff821660008181526002602090815260408083203380855290835292819020859055518481529192917f8c5be1e5ebec7d5bd14f71427d1e84f3dd0314c0f7b2291e5b200ac8c7c3b925910160405180910390a361084882338361084d565b610a2a816104cc8373ffffffffffffffffffffffffffffffffffffffff1660009081526001602052604090205490565b6000610e7033848461084d565b9392505050565b7f0000000000000000000000000000000000000000000000000000000000000000600054610100900460ff16158015610eb7575060005460ff8083169116105b610f43576040517f08c379a000000000000000000000000000000000000000000000000000000000815260206004820152602e60248201527f496e697469616c697a61626c653a20636f6e747261637420697320616c72656160448201527f647920696e697469616c697a65640000000000000000000000000000000000006064820152608401610779565b600080547fffffffffffffffffffffffffffffffffffffffffffffffffffffffffffff00001660ff831617610100179055610f7c6113a0565b600480547fffffffffffffffffffffffff00000000000000000000000000000000000000001673ffffffffffffffffffffffffffffffffffffffff8416179055600080547fffffffffffffffffffffffffffffffffffffffffffffffffffffffffffff00ff16905560405160ff821681527f7f26b83ff96e1f2b6a682f133852f6798a09c465da95921460cefb38474024989060200160405180910390a15050565b6000611028610a2d565b73ffffffffffffffffffffffffffffffffffffffff16638da5cb5b6040518163ffffffff1660e01b8152600401602060405180830381865afa158015610ca7573d6000803e3d6000fd5b60048054604080517f5c975abb000000000000000000000000000000000000000000000000000000008152905173ffffffffffffffffffffffffffffffffffffffff90921692635c975abb9282820192602092908290030181865afa1580156110df573d6000803e3d6000fd5b505050506040513d601f19601f8201168201806040525081019061110391906116f2565b1561116a576040517f08c379a000000000000000000000000000000000000000000000000000000000815260206004820152601f60248201527f44656c61796564574554483a20636f6e747261637420697320706175736564006044820152606401610779565b33600090815260036020908152604080832073ffffffffffffffffffffffffffffffffffffffff861684529091529020805482111561122b576040517f08c379a000000000000000000000000000000000000000000000000000000000815260206004820152602d60248201527f44656c61796564574554483a20696e73756666696369656e7420756e6c6f636b60448201527f6564207769746864726177616c000000000000000000000000000000000000006064820152608401610779565b60008160010154116112be576040517f08c379a0000000000000000000000000000000000000000000000000000000008152602060048201526024808201527f44656c61796564574554483a207769746864726177616c206e6f7420756e6c6f60448201527f636b6564000000000000000000000000000000000000000000000000000000006064820152608401610779565b427f000000000000000000000000000000000000000000000000000000000000000082600101546112ef9190611669565b111561137d576040517f08c379a000000000000000000000000000000000000000000000000000000000815260206004820152602560248201527f44656c61796564574554483a207769746864726177616c2064656c6179206e6f60448201527f74206d65740000000000000000000000000000000000000000000000000000006064820152608401610779565b818160000160008282546113919190611681565b90915550610848905082611423565b336113a9610a2d565b73ffffffffffffffffffffffffffffffffffffffff16141580156113ea5750336113d161101e565b73ffffffffffffffffffffffffffffffffffffffff1614155b15611421576040517fc4050a2600000000000000000000000000000000000000000000000000000000815260040160405180910390fd5b565b3360009081526001602052604090205481111561143f57600080fd5b336000908152600160205260408120805483929061145e908490611681565b9091555050604051339082156108fc029083906000818181858888f19350505050158015611490573d6000803e3d6000fd5b5060405181815233907f7fcf532c15f0a6db0bd6d0e038bea71d30d808c7d98cb3bf7268a95bf5081b659060200160405180910390a250565b600060208083528351808285015260005b818110156114f6578581018301518582016040015282016114da565b81811115611508576000604083870101525b50601f017fffffffffffffffffffffffffffffffffffffffffffffffffffffffffffffffe016929092016040019392505050565b73ffffffffffffffffffffffffffffffffffffffff81168114610a2a57600080fd5b6000806040838503121561157157600080fd5b823561157c8161153c565b946020939093013593505050565b60006020828403121561159c57600080fd5b5035919050565b6000806000606084860312156115b857600080fd5b83356115c38161153c565b925060208401356115d38161153c565b929592945050506040919091013590565b6000602082840312156115f657600080fd5b8135610e708161153c565b6000806040838503121561161457600080fd5b823561161f8161153c565b9150602083013561162f8161153c565b809150509250929050565b7f4e487b7100000000000000000000000000000000000000000000000000000000600052601160045260246000fd5b6000821982111561167c5761167c61163a565b500190565b6000828210156116935761169361163a565b500390565b6000817fffffffffffffffffffffffffffffffffffffffffffffffffffffffffffffffff04831182151516156116d0576116d061163a565b500290565b6000602082840312156116e757600080fd5b8151610e708161153c565b60006020828403121561170457600080fd5b81518015158114610e7057600080fdfea164736f6c634300080f000a","linkReferences":{}},"methodIdentifiers":{"allowance(address,address)":"dd62ed3e","approve(address,uint256)":"095ea7b3","balanceOf(address)":"70a08231","config()":"79502c55","decimals()":"313ce567","delay()":"6a42b8f8","deposit()":"d0e30db0","hold(address)":"a7e21e80","hold(address,uint256)":"977a5ec5","initVersion()":"38d38c97","initialize(address)":"c4d66de8","name()":"06fdde03","proxyAdmin()":"3e47158c","proxyAdminOwner()":"dad544e0","recover(uint256)":"0ca35682","symbol()":"95d89b41","systemConfig()":"33d7e2bd","totalSupply()":"18160ddd","transfer(address,uint256)":"a9059cbb","transferFrom(address,address,uint256)":"23b872dd","unlock(address,uint256)":"7eee288d","version()":"54fd4d50","withdraw(address,uint256)":"f3fef3a3","withdraw(uint256)":"2e1a7d4d","withdrawals(address,address)":"cd47bde1"},"storageLayout":{"storage":[{"astId":51321,"contract":"src/dispute/DelayedWETH.sol:DelayedWETH","label":"_initialized","offset":0,"slot":"0","type":"t_uint8"},{"astId":51324,"contract":"src/dispute/DelayedWETH.sol:DelayedWETH","label":"_initializing","offset":1,"slot":"0","type":"t_bool"},{"astId":130663,"contract":"src/dispute/DelayedWETH.sol:DelayedWETH","label":"_balanceOf","offset":0,"slot":"1","type":"t_mapping(t_address,t_uint256)"},{"astId":130669,"contract":"src/dispute/DelayedWETH.sol:DelayedWETH","label":"_allowance","offset":0,"slot":"2","type":"t_mapping(t_address,t_mapping(t_address,t_uint256))"},{"astId":113778,"contract":"src/dispute/DelayedWETH.sol:DelayedWETH","label":"withdrawals","offset":0,"slot":"3","type":"t_mapping(t_address,t_mapping(t_address,t_struct(WithdrawalRequest)113766_storage))"},{"astId":113785,"contract":"src/dispute/DelayedWETH.sol:DelayedWETH","label":"systemConfig","offset":0,"slot":"4","type":"t_contract(ISystemConfig)2870"}],"types":{"t_address":{"encoding":"inplace","label":"address","numberOfBytes":"20"},"t_bool":{"encoding":"inplace","label":"bool","numberOfBytes":"1"},"t_contract(ISystemConfig)2870":{"encoding":"inplace","label":"contract ISystemConfig","numberOfBytes":"20"},"t_mapping(t_address,t_mapping(t_address,t_struct(WithdrawalRequest)113766_storage))":{"encoding":"mapping","key":"t_address","label":"mapping(address => mapping(address => struct DelayedWETH.WithdrawalRequest))","numberOfBytes":"32","value":"t_mapping(t_address,t_struct(WithdrawalRequest)113766_storage)"},"t_mapping(t_address,t_mapping(t_address,t_uint256))":{"encoding":"mapping","key":"t_address","label":"mapping(address => mapping(address => uint256))","numberOfBytes":"32","value":"t_mapping(t_address,t_uint256)"},"t_mapping(t_address,t_struct(WithdrawalRequest)113766_storage)":{"encoding":"mapping","key":"t_address","label":"mapping(address => struct DelayedWETH.WithdrawalRequest)","numberOfBytes":"32","value":"t_struct(WithdrawalRequest)113766_storage"},"t_mapping(t_address,t_uint256)":{"encoding":"mapping","key":"t_address","label":"mapping(address => uint256)","numberOfBytes":"32","value":"t_uint256"},"t_struct(WithdrawalRequest)113766_storage":{"encoding":"inplace","label":"struct DelayedWETH.WithdrawalRequest","numberOfBytes":"64","members":[{"astId":113763,"contract":"src/dispute/DelayedWETH.sol:DelayedWETH","label":"amount","offset":0,"slot":"0","type":"t_uint256"},{"astId":113765,"contract":"src/dispute/DelayedWETH.sol:DelayedWETH","label":"timestamp","offset":0,"slot":"1","type":"t_uint256"}]},"t_uint256":{"encoding":"inplace","label":"uint256","numberOfBytes":"32"},"t_uint8":{"encoding":"inplace","label":"uint8","numberOfBytes":"1"}}},"userdoc":{"version":1,"kind":"user","methods":{"allowance(address,address)":{"notice":"Returns the amount of WETH that the spender can transfer on behalf of the owner."},"approve(address,uint256)":{"notice":"Approves the given address to transfer the WETH on behalf of the caller."},"balanceOf(address)":{"notice":"Returns the balance of the given address."},"config()":{"notice":"Returns the SuperchainConfig contract."},"decimals()":{"notice":"Returns the number of decimals the token uses."},"delay()":{"notice":"Returns the withdrawal delay in seconds."},"deposit()":{"notice":"Allows WETH to be deposited by sending ether to the contract."},"hold(address)":{"notice":"Allows the owner to recover from error cases by pulling all WETH from a specific owner."},"hold(address,uint256)":{"notice":"Allows the owner to recover from error cases by pulling a specific amount of WETH from a specific owner."},"initVersion()":{"notice":"Getter for the current initialization version."},"initialize(address)":{"notice":"Initializes the contract."},"name()":{"notice":"Returns the name of the token."},"proxyAdmin()":{"notice":"Getter for the ProxyAdmin contract that owns this Proxy contract."},"proxyAdminOwner()":{"notice":"Getter for the owner of the ProxyAdmin."},"recover(uint256)":{"notice":"Allows the owner to recover from error cases by pulling ETH out of the contract."},"symbol()":{"notice":"Returns the symbol of the token."},"systemConfig()":{"notice":"Address of the SystemConfig contract."},"totalSupply()":{"notice":"Returns the total supply of WETH."},"transfer(address,uint256)":{"notice":"Transfers the given amount of WETH to the given address."},"transferFrom(address,address,uint256)":{"notice":"Transfers the given amount of WETH from the given address to the given address."},"unlock(address,uint256)":{"notice":"Unlocks withdrawals for the sender's account, after a time delay."},"version()":{"notice":"Semantic version."},"withdraw(address,uint256)":{"notice":"Extension to withdrawal, must provide a sub-account to withdraw from."},"withdraw(uint256)":{"notice":"Withdraws an amount of ETH."},"withdrawals(address,address)":{"notice":"Returns a withdrawal request for the given address."}},"events":{"Approval(address,address,uint256)":{"notice":"Emitted when an approval is made."},"Deposit(address,uint256)":{"notice":"Emitted when a deposit is made."},"Transfer(address,address,uint256)":{"notice":"Emitted when a transfer is made."},"Withdrawal(address,uint256)":{"notice":"Emitted when a withdrawal is made."}},"errors":{"ProxyAdminOwnedBase_NotProxyAdmin()":[{"notice":"Thrown when the caller is not the ProxyAdmin."}],"ProxyAdminOwnedBase_NotProxyAdminOrProxyAdminOwner()":[{"notice":"Thrown when the caller is not the ProxyAdmin owner or the ProxyAdmin."}],"ProxyAdminOwnedBase_NotProxyAdminOwner()":[{"notice":"Thrown when the caller is not the ProxyAdmin owner."}],"ProxyAdminOwnedBase_NotResolvedDelegateProxy()":[{"notice":"Thrown when the current contract is not a ResolvedDelegateProxy."}],"ProxyAdminOwnedBase_NotSharedProxyAdminOwner()":[{"notice":"Thrown when the ProxyAdmin owner of the current contract is not the same as the         ProxyAdmin owner of the other Proxy address provided."}],"ProxyAdminOwnedBase_ProxyAdminNotFound()":[{"notice":"Thrown when the ProxyAdmin owner of the current contract is not found."}],"ReinitializableBase_ZeroInitVersion()":[{"notice":"Thrown when the initialization version is zero."}]},"notice":"DelayedWETH is an extension to WETH9 that allows for delayed withdrawals. Accounts must trigger an unlock         function before they can withdraw WETH. Accounts must trigger unlock by specifying a sub-account and an         amount of WETH to unlock. Accounts can trigger the unlock function at any time, but must wait a delay         period before they can withdraw after the unlock function is triggered. DelayedWETH is designed to be used         by the DisputeGame contracts where unlock will only be triggered after a dispute is resolved. DelayedWETH         is meant to sit behind a proxy contract and has an owner address that can pull WETH from any account and         can recover ETH from the contract itself. Variable and function naming vaguely follows the vibe of WETH9.         Not the prettiest contract in the world, but it gets the job done."},"devdoc":{"version":1,"kind":"dev","methods":{"allowance(address,address)":{"params":{"owner":"The address that owns the WETH.","spender":"The address that is approved to transfer the WETH."},"returns":{"_0":"The amount of WETH that the spender can transfer on behalf of the owner."}},"approve(address,uint256)":{"params":{"guy":"The address that is approved to transfer the WETH.","wad":"The amount that is approved to transfer."},"returns":{"_0":"True if the approval was successful."}},"balanceOf(address)":{"params":{"src":"The address to query the balance of."},"returns":{"_0":"The balance of the given address."}},"config()":{"returns":{"_0":"ISuperchainConfig The SuperchainConfig contract."}},"constructor":{"params":{"_delay":"The delay for withdrawals in seconds."}},"delay()":{"returns":{"_0":"The withdrawal delay in seconds."}},"hold(address)":{"params":{"_guy":"The address to recover the WETH from."}},"hold(address,uint256)":{"params":{"_guy":"The address to recover the WETH from.","_wad":"The amount of WETH to recover."}},"initVersion()":{"returns":{"_0":"The current initialization version."}},"initialize(address)":{"params":{"_systemConfig":"Address of the SystemConfig contract."}},"name()":{"returns":{"_0":"name_ The name of the token."}},"recover(uint256)":{"params":{"_wad":"The amount of WETH to recover."}},"symbol()":{"returns":{"_0":"symbol_ The symbol of the token."}},"totalSupply()":{"returns":{"_0":"The total supply of WETH."}},"transfer(address,uint256)":{"params":{"dst":"The address to transfer the WETH to.","wad":"The amount of WETH to transfer."},"returns":{"_0":"True if the transfer was successful."}},"transferFrom(address,address,uint256)":{"params":{"dst":"The address to transfer the WETH to.","src":"The address to transfer the WETH from.","wad":"The amount of WETH to transfer."},"returns":{"_0":"True if the transfer was successful."}},"unlock(address,uint256)":{"params":{"_guy":"Sub-account to unlock.","_wad":"The amount of WETH to unlock."}},"withdraw(address,uint256)":{"params":{"_guy":"Sub-account to withdraw from.","_wad":"The amount of WETH to withdraw."}},"withdraw(uint256)":{"params":{"_wad":"The amount of ETH to withdraw."}}},"title":"DelayedWETH"},"id":263}