{"abi":[{"type":"function","name":"relayETH","inputs":[{"name":"_from","type":"address","internalType":"address"},{"name":"_to","type":"address","internalType":"address"},{"name":"_amount","type":"uint256","internalType":"uint256"}],"outputs":[],"stateMutability":"nonpayable"},{"type":"function","name":"sendETH","inputs":[{"name":"_to","type":"address","internalType":"address"},{"name":"_chainId","type":"uint256","internalType":"uint256"}],"outputs":[{"name":"msgHash_","type":"bytes32","internalType":"bytes32"}],"stateMutability":"payable"},{"type":"function","name":"version","inputs":[],"outputs":[{"name":"","type":"string","internalType":"string"}],"stateMutability":"view"},{"type":"event","name":"RelayETH","inputs":[{"name":"from","type":"address","indexed":true,"internalType":"address"},{"name":"to","type":"address","indexed":true,"internalType":"address"},{"name":"amount","type":"uint256","indexed":false,"internalType":"uint256"},{"name":"source","type":"uint256","indexed":false,"internalType":"uint256"}],"anonymous":false},{"type":"event","name":"SendETH","inputs":[{"name":"from","type":"address","indexed":true,"internalType":"address"},{"name":"to","type":"address","indexed":true,"internalType":"address"},{"name":"amount","type":"uint256","indexed":false,"internalType":"uint256"},{"name":"destination","type":"uint256","indexed":false,"internalType":"uint256"}],"anonymous":false},{"type":"error","name":"InvalidCrossDomainSender","inputs":[]},{"type":"error","name":"Unauthorized","inputs":[]},{"type":"error","name":"ZeroAddress","inputs":[]}],"bytecode":{"object":"0x608060405234801561001057600080fd5b5061078b806100206000396000f3fe6080604052600436106100345760003560e01c80634f0edcc91461003957806354fd4d501461005b57806364a197f3146100ba575b600080fd5b34801561004557600080fd5b506100596100543660046105ae565b6100db565b005b34801561006757600080fd5b506100a46040518060400160405280600581526020017f312e302e3100000000000000000000000000000000000000000000000000000081525081565b6040516100b1919061065a565b60405180910390f35b6100cd6100c8366004610674565b610340565b6040519081526020016100b1565b3373420000000000000000000000000000000000002314610128576040517f82b4290000000000000000000000000000000000000000000000000000000000815260040160405180910390fd5b60008073420000000000000000000000000000000000002373ffffffffffffffffffffffffffffffffffffffff16637936cbee6040518163ffffffff1660e01b81526004016040805180830381865afa158015610189573d6000803e3d6000fd5b505050506040513d601f19601f820116820180604052508101906101ad91906106a0565b909250905073ffffffffffffffffffffffffffffffffffffffff82163014610201576040517fbc22e2aa00000000000000000000000000000000000000000000000000000000815260040160405180910390fd5b6040517fa0712d68000000000000000000000000000000000000000000000000000000008152600481018490527342000000000000000000000000000000000000259063a0712d6890602401600060405180830381600087803b15801561026757600080fd5b505af115801561027b573d6000803e3d6000fd5b50505050828460405161028d9061057d565b73ffffffffffffffffffffffffffffffffffffffff90911681526020016040518091039082f09050801580156102c7573d6000803e3d6000fd5b50508373ffffffffffffffffffffffffffffffffffffffff168573ffffffffffffffffffffffffffffffffffffffff167fe5479bb8ebad3b9ac81f55f424a6289cf0a54ff2641708f41dcb2b26f264d3598584604051610331929190918252602082015260400190565b60405180910390a35050505050565b600073ffffffffffffffffffffffffffffffffffffffff831661038f576040517fd92e233d00000000000000000000000000000000000000000000000000000000815260040160405180910390fd5b73420000000000000000000000000000000000002573ffffffffffffffffffffffffffffffffffffffff166344df8e70346040518263ffffffff1660e01b81526004016000604051808303818588803b1580156103eb57600080fd5b505af11580156103ff573d6000803e3d6000fd5b50506040805133602482015273ffffffffffffffffffffffffffffffffffffffff881660448201523460648083019190915282518083039091018152608490910182526020810180517bffffffffffffffffffffffffffffffffffffffffffffffffffffffff167f4f0edcc90000000000000000000000000000000000000000000000000000000017905290517f7056f41f0000000000000000000000000000000000000000000000000000000081527342000000000000000000000000000000000000239450637056f41f93506104de9250869130916004016106ce565b6020604051808303816000875af11580156104fd573d6000803e3d6000fd5b505050506040513d601f19601f82011682018060405250810190610521919061070c565b604080513481526020810185905291925073ffffffffffffffffffffffffffffffffffffffff85169133917fed98a2ff78833375c368471a747cdf0633024dde3f870feb08a934ac5be83402910160405180910390a392915050565b60598061072683390190565b73ffffffffffffffffffffffffffffffffffffffff811681146105ab57600080fd5b50565b6000806000606084860312156105c357600080fd5b83356105ce81610589565b925060208401356105de81610589565b929592945050506040919091013590565b6000815180845260005b81811015610615576020818501810151868301820152016105f9565b81811115610627576000602083870101525b50601f017fffffffffffffffffffffffffffffffffffffffffffffffffffffffffffffffe0169290920160200192915050565b60208152600061066d60208301846105ef565b9392505050565b6000806040838503121561068757600080fd5b823561069281610589565b946020939093013593505050565b600080604083850312156106b357600080fd5b82516106be81610589565b6020939093015192949293505050565b83815273ffffffffffffffffffffffffffffffffffffffff8316602082015260606040820152600061070360608301846105ef565b95945050505050565b60006020828403121561071e57600080fd5b505191905056fe608060405260405160593803806059833981016040819052601e91602a565b806001600160a01b0316ff5b600060208284031215603b57600080fd5b81516001600160a01b0381168114605157600080fd5b939250505056fea164736f6c634300080f000a","linkReferences":{}},"methodIdentifiers":{"relayETH(address,address,uint256)":"4f0edcc9","sendETH(address,uint256)":"64a197f3","version()":"54fd4d50"},"storageLayout":{"storage":[],"types":{}},"userdoc":{"version":1,"kind":"user","methods":{"relayETH(address,address,uint256)":{"notice":"Relays ETH received from another chain."},"sendETH(address,uint256)":{"notice":"Sends ETH to some target address on another chain."},"version()":{"notice":"Semantic version."}},"events":{"RelayETH(address,address,uint256,uint256)":{"notice":"Emitted whenever ETH is successfully relayed on this chain."},"SendETH(address,address,uint256,uint256)":{"notice":"Emitted when ETH is sent from one chain to another."}},"errors":{"InvalidCrossDomainSender()":[{"notice":"Thrown when attempting to relay a message and the cross domain message sender is not SuperchainETHBridge."}],"Unauthorized()":[{"notice":"Error for an unauthorized CALLER."}],"ZeroAddress()":[{"notice":"Thrown when attempting to perform an operation and the account is the zero address."}]},"notice":"SuperchainETHBridge enables ETH transfers between chains within an interop cluster."},"devdoc":{"version":1,"kind":"dev","methods":{"relayETH(address,address,uint256)":{"params":{"_amount":"Amount of ETH to relay.","_from":"Address of the msg.sender of sendETH on the source chain.","_to":"Address to relay ETH to."}},"sendETH(address,uint256)":{"params":{"_chainId":"Chain ID of the destination chain.","_to":"Address to send ETH to."},"returns":{"msgHash_":"Hash of the message sent."}}},"events":{"RelayETH(address,address,uint256,uint256)":{"params":{"amount":"Amount of ETH relayed.","from":"Address of the msg.sender of sendETH on the source chain.","source":"Chain ID of the source chain.","to":"Address of the recipient."}},"SendETH(address,address,uint256,uint256)":{"params":{"amount":"Amount of ETH sent.","destination":"Chain ID of the destination chain.","from":"Address of the sender.","to":"Address of the recipient."}}},"title":"SuperchainETHBridge"},"id":250}