{
  "contracts/test/MockObservations.sol": {
    "MockObservations": {
      "abi": [
        {
          "inputs": [
            {
              "internalType": "uint32[4]",
              "name": "_blockTimestamps",
              "type": "uint32[4]"
            },
            {
              "internalType": "int56[4]",
              "name": "_tickCumulatives",
              "type": "int56[4]"
            },
            {
              "internalType": "uint128[4]",
              "name": "_secondsPerLiquidityCumulativeX128s",
              "type": "uint128[4]"
            },
            {
              "internalType": "bool[4]",
              "name": "_initializeds",
              "type": "bool[4]"
            },
            {
              "internalType": "int24",
              "name": "_tick",
              "type": "int24"
            },
            {
              "internalType": "uint16",
              "name": "_observationCardinality",
              "type": "uint16"
            },
            {
              "internalType": "uint16",
              "name": "_observationIndex",
              "type": "uint16"
            },
            {
              "internalType": "bool",
              "name": "_lastObservationCurrentTimestamp",
              "type": "bool"
            },
            {
              "internalType": "uint128",
              "name": "_liquidity",
              "type": "uint128"
            }
          ],
          "stateMutability": "nonpayable",
          "type": "constructor"
        },
        {
          "inputs": [],
          "name": "liquidity",
          "outputs": [
            {
              "internalType": "uint128",
              "name": "",
              "type": "uint128"
            }
          ],
          "stateMutability": "view",
          "type": "function"
        },
        {
          "inputs": [
            {
              "internalType": "uint256",
              "name": "index",
              "type": "uint256"
            }
          ],
          "name": "observations",
          "outputs": [
            {
              "internalType": "uint32",
              "name": "",
              "type": "uint32"
            },
            {
              "internalType": "int56",
              "name": "",
              "type": "int56"
            },
            {
              "internalType": "uint160",
              "name": "",
              "type": "uint160"
            },
            {
              "internalType": "bool",
              "name": "",
              "type": "bool"
            }
          ],
          "stateMutability": "view",
          "type": "function"
        },
        {
          "inputs": [],
          "name": "slot0",
          "outputs": [
            {
              "internalType": "uint160",
              "name": "",
              "type": "uint160"
            },
            {
              "internalType": "int24",
              "name": "",
              "type": "int24"
            },
            {
              "internalType": "uint16",
              "name": "",
              "type": "uint16"
            },
            {
              "internalType": "uint16",
              "name": "",
              "type": "uint16"
            },
            {
              "internalType": "uint16",
              "name": "",
              "type": "uint16"
            },
            {
              "internalType": "uint8",
              "name": "",
              "type": "uint8"
            },
            {
              "internalType": "bool",
              "name": "",
              "type": "bool"
            }
          ],
          "stateMutability": "view",
          "type": "function"
        }
      ],
      "evm": {
        "bytecode": {
          "linkReferences": {},
          "object": "608060405234801561001057600080fd5b506040516104f43803806104f483398181016040526102a081101561003457600080fd5b5061020081015161022082015161024083015161026084015161028085015160808601946101008701946101808801949193909260005b600481101561019c5760405180608001604052808b836004811061008b57fe5b602002015163ffffffff1681526020018a83600481106100a757fe5b602002015160060b81526020018983600481106100c057fe5b60200201516001600160801b03166001600160a01b031681526020018883600481106100e857fe5b602002015115159052600082600481106100fe57fe5b825191018054602084015160408501516060909501511515600160f81b026001600160f81b036001600160a01b039096166b01000000000000000000000002600160581b600160f81b031960069390930b66ffffffffffffff166401000000000266ffffffffffffff60201b1963ffffffff90971663ffffffff1990951694909417959095169290921716929092179290921617905560010161006b565b506004805462ffffff191662ffffff60029790970b969096169590951764ffff0000001916630100000061ffff958616021761ffff60281b19166501000000000093909416929092029290921760ff60b81b1916600160b81b9215159290920291909117600160381b600160b81b0319166701000000000000006001600160801b039290921691909102179055506102b5925082915061023f90506000396000f3fe608060405234801561001057600080fd5b50600436106100415760003560e01c80631a68650214610046578063252c09d7146100735780633850c7bd146100d7575b600080fd5b61004e61013d565b604080516fffffffffffffffffffffffffffffffff9092168252519081900360200190f35b6100906004803603602081101561008957600080fd5b5035610160565b6040805163ffffffff909516855260069390930b602085015273ffffffffffffffffffffffffffffffffffffffff9091168383015215156060830152519081900360800190f35b6100df61027a565b6040805173ffffffffffffffffffffffffffffffffffffffff909816885260029690960b602088015261ffff9485168787015292841660608701529216608085015260ff90911660a0840152151560c0830152519081900360e00190f35b60045467010000000000000090046fffffffffffffffffffffffffffffffff1681565b600080600080600080866004811061017457fe5b60408051608081018252929091015463ffffffff811683526401000000008104600690810b810b900b602084015273ffffffffffffffffffffffffffffffffffffffff6b0100000000000000000000008204169183019190915260ff7f0100000000000000000000000000000000000000000000000000000000000000909104811615156060830152600454919250770100000000000000000000000000000000000000000000009091041615610259578051600480546000916501000000000090910461ffff1690811061024557fe5b015463ffffffff9081169190910342031681525b80516020820151604083015160609093015191989097509195509350915050565b600454600090600281900b9061ffff650100000000008204811691630100000090041683808091929394959656fea164736f6c6343000706000a",
          "opcodes": "PUSH1 0x80 PUSH1 0x40 MSTORE CALLVALUE DUP1 ISZERO PUSH2 0x10 JUMPI PUSH1 0x0 DUP1 REVERT JUMPDEST POP PUSH1 0x40 MLOAD PUSH2 0x4F4 CODESIZE SUB DUP1 PUSH2 0x4F4 DUP4 CODECOPY DUP2 DUP2 ADD PUSH1 0x40 MSTORE PUSH2 0x2A0 DUP2 LT ISZERO PUSH2 0x34 JUMPI PUSH1 0x0 DUP1 REVERT JUMPDEST POP PUSH2 0x200 DUP2 ADD MLOAD PUSH2 0x220 DUP3 ADD MLOAD PUSH2 0x240 DUP4 ADD MLOAD PUSH2 0x260 DUP5 ADD MLOAD PUSH2 0x280 DUP6 ADD MLOAD PUSH1 0x80 DUP7 ADD SWAP5 PUSH2 0x100 DUP8 ADD SWAP5 PUSH2 0x180 DUP9 ADD SWAP5 SWAP2 SWAP4 SWAP1 SWAP3 PUSH1 0x0 JUMPDEST PUSH1 0x4 DUP2 LT ISZERO PUSH2 0x19C JUMPI PUSH1 0x40 MLOAD DUP1 PUSH1 0x80 ADD PUSH1 0x40 MSTORE DUP1 DUP12 DUP4 PUSH1 0x4 DUP2 LT PUSH2 0x8B JUMPI INVALID JUMPDEST PUSH1 0x20 MUL ADD MLOAD PUSH4 0xFFFFFFFF AND DUP2 MSTORE PUSH1 0x20 ADD DUP11 DUP4 PUSH1 0x4 DUP2 LT PUSH2 0xA7 JUMPI INVALID JUMPDEST PUSH1 0x20 MUL ADD MLOAD PUSH1 0x6 SIGNEXTEND DUP2 MSTORE PUSH1 0x20 ADD DUP10 DUP4 PUSH1 0x4 DUP2 LT PUSH2 0xC0 JUMPI INVALID JUMPDEST PUSH1 0x20 MUL ADD MLOAD PUSH1 0x1 PUSH1 0x1 PUSH1 0x80 SHL SUB AND PUSH1 0x1 PUSH1 0x1 PUSH1 0xA0 SHL SUB AND DUP2 MSTORE PUSH1 0x20 ADD DUP9 DUP4 PUSH1 0x4 DUP2 LT PUSH2 0xE8 JUMPI INVALID JUMPDEST PUSH1 0x20 MUL ADD MLOAD ISZERO ISZERO SWAP1 MSTORE PUSH1 0x0 DUP3 PUSH1 0x4 DUP2 LT PUSH2 0xFE JUMPI INVALID JUMPDEST DUP3 MLOAD SWAP2 ADD DUP1 SLOAD PUSH1 0x20 DUP5 ADD MLOAD PUSH1 0x40 DUP6 ADD MLOAD PUSH1 0x60 SWAP1 SWAP6 ADD MLOAD ISZERO ISZERO PUSH1 0x1 PUSH1 0xF8 SHL MUL PUSH1 0x1 PUSH1 0x1 PUSH1 0xF8 SHL SUB PUSH1 0x1 PUSH1 0x1 PUSH1 0xA0 SHL SUB SWAP1 SWAP7 AND PUSH12 0x10000000000000000000000 MUL PUSH1 0x1 PUSH1 0x58 SHL PUSH1 0x1 PUSH1 0xF8 SHL SUB NOT PUSH1 0x6 SWAP4 SWAP1 SWAP4 SIGNEXTEND PUSH7 0xFFFFFFFFFFFFFF AND PUSH5 0x100000000 MUL PUSH7 0xFFFFFFFFFFFFFF PUSH1 0x20 SHL NOT PUSH4 0xFFFFFFFF SWAP1 SWAP8 AND PUSH4 0xFFFFFFFF NOT SWAP1 SWAP6 AND SWAP5 SWAP1 SWAP5 OR SWAP6 SWAP1 SWAP6 AND SWAP3 SWAP1 SWAP3 OR AND SWAP3 SWAP1 SWAP3 OR SWAP3 SWAP1 SWAP3 AND OR SWAP1 SSTORE PUSH1 0x1 ADD PUSH2 0x6B JUMP JUMPDEST POP PUSH1 0x4 DUP1 SLOAD PUSH3 0xFFFFFF NOT AND PUSH3 0xFFFFFF PUSH1 0x2 SWAP8 SWAP1 SWAP8 SIGNEXTEND SWAP7 SWAP1 SWAP7 AND SWAP6 SWAP1 SWAP6 OR PUSH5 0xFFFF000000 NOT AND PUSH4 0x1000000 PUSH2 0xFFFF SWAP6 DUP7 AND MUL OR PUSH2 0xFFFF PUSH1 0x28 SHL NOT AND PUSH6 0x10000000000 SWAP4 SWAP1 SWAP5 AND SWAP3 SWAP1 SWAP3 MUL SWAP3 SWAP1 SWAP3 OR PUSH1 0xFF PUSH1 0xB8 SHL NOT AND PUSH1 0x1 PUSH1 0xB8 SHL SWAP3 ISZERO ISZERO SWAP3 SWAP1 SWAP3 MUL SWAP2 SWAP1 SWAP2 OR PUSH1 0x1 PUSH1 0x38 SHL PUSH1 0x1 PUSH1 0xB8 SHL SUB NOT AND PUSH8 0x100000000000000 PUSH1 0x1 PUSH1 0x1 PUSH1 0x80 SHL SUB SWAP3 SWAP1 SWAP3 AND SWAP2 SWAP1 SWAP2 MUL OR SWAP1 SSTORE POP PUSH2 0x2B5 SWAP3 POP DUP3 SWAP2 POP PUSH2 0x23F SWAP1 POP PUSH1 0x0 CODECOPY PUSH1 0x0 RETURN INVALID PUSH1 0x80 PUSH1 0x40 MSTORE CALLVALUE DUP1 ISZERO PUSH2 0x10 JUMPI PUSH1 0x0 DUP1 REVERT JUMPDEST POP PUSH1 0x4 CALLDATASIZE LT PUSH2 0x41 JUMPI PUSH1 0x0 CALLDATALOAD PUSH1 0xE0 SHR DUP1 PUSH4 0x1A686502 EQ PUSH2 0x46 JUMPI DUP1 PUSH4 0x252C09D7 EQ PUSH2 0x73 JUMPI DUP1 PUSH4 0x3850C7BD EQ PUSH2 0xD7 JUMPI JUMPDEST PUSH1 0x0 DUP1 REVERT JUMPDEST PUSH2 0x4E PUSH2 0x13D JUMP JUMPDEST PUSH1 0x40 DUP1 MLOAD PUSH16 0xFFFFFFFFFFFFFFFFFFFFFFFFFFFFFFFF SWAP1 SWAP3 AND DUP3 MSTORE MLOAD SWAP1 DUP2 SWAP1 SUB PUSH1 0x20 ADD SWAP1 RETURN JUMPDEST PUSH2 0x90 PUSH1 0x4 DUP1 CALLDATASIZE SUB PUSH1 0x20 DUP2 LT ISZERO PUSH2 0x89 JUMPI PUSH1 0x0 DUP1 REVERT JUMPDEST POP CALLDATALOAD PUSH2 0x160 JUMP JUMPDEST PUSH1 0x40 DUP1 MLOAD PUSH4 0xFFFFFFFF SWAP1 SWAP6 AND DUP6 MSTORE PUSH1 0x6 SWAP4 SWAP1 SWAP4 SIGNEXTEND PUSH1 0x20 DUP6 ADD MSTORE PUSH20 0xFFFFFFFFFFFFFFFFFFFFFFFFFFFFFFFFFFFFFFFF SWAP1 SWAP2 AND DUP4 DUP4 ADD MSTORE ISZERO ISZERO PUSH1 0x60 DUP4 ADD MSTORE MLOAD SWAP1 DUP2 SWAP1 SUB PUSH1 0x80 ADD SWAP1 RETURN JUMPDEST PUSH2 0xDF PUSH2 0x27A JUMP JUMPDEST PUSH1 0x40 DUP1 MLOAD PUSH20 0xFFFFFFFFFFFFFFFFFFFFFFFFFFFFFFFFFFFFFFFF SWAP1 SWAP9 AND DUP9 MSTORE PUSH1 0x2 SWAP7 SWAP1 SWAP7 SIGNEXTEND PUSH1 0x20 DUP9 ADD MSTORE PUSH2 0xFFFF SWAP5 DUP6 AND DUP8 DUP8 ADD MSTORE SWAP3 DUP5 AND PUSH1 0x60 DUP8 ADD MSTORE SWAP3 AND PUSH1 0x80 DUP6 ADD MSTORE PUSH1 0xFF SWAP1 SWAP2 AND PUSH1 0xA0 DUP5 ADD MSTORE ISZERO ISZERO PUSH1 0xC0 DUP4 ADD MSTORE MLOAD SWAP1 DUP2 SWAP1 SUB PUSH1 0xE0 ADD SWAP1 RETURN JUMPDEST PUSH1 0x4 SLOAD PUSH8 0x100000000000000 SWAP1 DIV PUSH16 0xFFFFFFFFFFFFFFFFFFFFFFFFFFFFFFFF AND DUP2 JUMP JUMPDEST PUSH1 0x0 DUP1 PUSH1 0x0 DUP1 PUSH1 0x0 DUP1 DUP7 PUSH1 0x4 DUP2 LT PUSH2 0x174 JUMPI INVALID JUMPDEST PUSH1 0x40 DUP1 MLOAD PUSH1 0x80 DUP2 ADD DUP3 MSTORE SWAP3 SWAP1 SWAP2 ADD SLOAD PUSH4 0xFFFFFFFF DUP2 AND DUP4 MSTORE PUSH5 0x100000000 DUP2 DIV PUSH1 0x6 SWAP1 DUP2 SIGNEXTEND DUP2 SIGNEXTEND SWAP1 SIGNEXTEND PUSH1 0x20 DUP5 ADD MSTORE PUSH20 0xFFFFFFFFFFFFFFFFFFFFFFFFFFFFFFFFFFFFFFFF PUSH12 0x10000000000000000000000 DUP3 DIV AND SWAP2 DUP4 ADD SWAP2 SWAP1 SWAP2 MSTORE PUSH1 0xFF PUSH32 0x100000000000000000000000000000000000000000000000000000000000000 SWAP1 SWAP2 DIV DUP2 AND ISZERO ISZERO PUSH1 0x60 DUP4 ADD MSTORE PUSH1 0x4 SLOAD SWAP2 SWAP3 POP PUSH24 0x10000000000000000000000000000000000000000000000 SWAP1 SWAP2 DIV AND ISZERO PUSH2 0x259 JUMPI DUP1 MLOAD PUSH1 0x4 DUP1 SLOAD PUSH1 0x0 SWAP2 PUSH6 0x10000000000 SWAP1 SWAP2 DIV PUSH2 0xFFFF AND SWAP1 DUP2 LT PUSH2 0x245 JUMPI INVALID JUMPDEST ADD SLOAD PUSH4 0xFFFFFFFF SWAP1 DUP2 AND SWAP2 SWAP1 SWAP2 SUB TIMESTAMP SUB AND DUP2 MSTORE JUMPDEST DUP1 MLOAD PUSH1 0x20 DUP3 ADD MLOAD PUSH1 0x40 DUP4 ADD MLOAD PUSH1 0x60 SWAP1 SWAP4 ADD MLOAD SWAP2 SWAP9 SWAP1 SWAP8 POP SWAP2 SWAP6 POP SWAP4 POP SWAP2 POP POP JUMP JUMPDEST PUSH1 0x4 SLOAD PUSH1 0x0 SWAP1 PUSH1 0x2 DUP2 SWAP1 SIGNEXTEND SWAP1 PUSH2 0xFFFF PUSH6 0x10000000000 DUP3 DIV DUP2 AND SWAP2 PUSH4 0x1000000 SWAP1 DIV AND DUP4 DUP1 DUP1 SWAP2 SWAP3 SWAP4 SWAP5 SWAP6 SWAP7 JUMP INVALID LOG1 PUSH5 0x736F6C6343 STOP SMOD MOD STOP EXP "
        },
        "methodIdentifiers": {
          "liquidity()": "1a686502",
          "observations(uint256)": "252c09d7",
          "slot0()": "3850c7bd"
        }
      }
    }
  }
}