{
  "contracts/test/MockObservable.sol": {
    "MockObservable": {
      "abi": [
        {
          "inputs": [
            {
              "internalType": "uint32[]",
              "name": "secondsAgos",
              "type": "uint32[]"
            },
            {
              "internalType": "int56[]",
              "name": "tickCumulatives",
              "type": "int56[]"
            },
            {
              "internalType": "uint160[]",
              "name": "secondsPerLiquidityCumulativeX128s",
              "type": "uint160[]"
            }
          ],
          "stateMutability": "nonpayable",
          "type": "constructor"
        },
        {
          "inputs": [
            {
              "internalType": "uint32[]",
              "name": "secondsAgos",
              "type": "uint32[]"
            }
          ],
          "name": "observe",
          "outputs": [
            {
              "internalType": "int56[]",
              "name": "tickCumulatives",
              "type": "int56[]"
            },
            {
              "internalType": "uint160[]",
              "name": "secondsPerLiquidityCumulativeX128s",
              "type": "uint160[]"
            }
          ],
          "stateMutability": "view",
          "type": "function"
        }
      ],
      "evm": {
        "bytecode": {
          "linkReferences": {},
          "object": "608060405234801561001057600080fd5b506040516107803803806107808339818101604052606081101561003357600080fd5b810190808051604051939291908464010000000082111561005357600080fd5b90830190602082018581111561006857600080fd5b825186602082028301116401000000008211171561008557600080fd5b82525081516020918201928201910280838360005b838110156100b257818101518382015260200161009a565b50505050905001604052602001805160405193929190846401000000008211156100db57600080fd5b9083019060208201858111156100f057600080fd5b825186602082028301116401000000008211171561010d57600080fd5b82525081516020918201928201910280838360005b8381101561013a578181015183820152602001610122565b505050509050016040526020018051604051939291908464010000000082111561016357600080fd5b90830190602082018581111561017857600080fd5b825186602082028301116401000000008211171561019557600080fd5b82525081516020918201928201910280838360005b838110156101c25781810151838201526020016101aa565b50505050905001604052505050825160021480156101e1575081516002145b80156101ee575080516002145b61023f576040805162461bcd60e51b815260206004820152601660248201527f496e76616c6964207465737420636173652073697a6500000000000000000000604482015290519081900360640190fd5b60405180606001604052808460008151811061025757fe5b602002602001015163ffffffff1681526020018360008151811061027757fe5b602002602001015160060b81526020018260008151811061029457fe5b6020908102919091018101516001600160a01b03908116909252825160008054928501516040958601519094166b01000000000000000000000002600160581b600160f81b031960069590950b66ffffffffffffff166401000000000266ffffffffffffff60201b1963ffffffff90941663ffffffff1990951694909417929092169290921792909216919091179055805160608101909152835181908590600190811061033e57fe5b602002602001015163ffffffff1681526020018360018151811061035e57fe5b602002602001015160060b81526020018260018151811061037b57fe5b6020908102919091018101516001600160a01b03908116909252825160018054928501516040909501519093166b01000000000000000000000002600160581b600160f81b031960069590950b66ffffffffffffff166401000000000266ffffffffffffff60201b1963ffffffff90931663ffffffff19909416939093179190911691909117929092169190911790555050506103638061041d6000396000f3fe608060405234801561001057600080fd5b506004361061002b5760003560e01c8063883bdbfd14610030575b600080fd5b6100a06004803603602081101561004657600080fd5b81019060208101813564010000000081111561006157600080fd5b82018360208201111561007357600080fd5b8035906020019184602083028401116401000000008311171561009557600080fd5b509092509050610139565b604051808060200180602001838103835285818151815260200191508051906020019060200280838360005b838110156100e45781810151838201526020016100cc565b50505050905001838103825284818151815260200191508051906020019060200280838360005b8381101561012357818101518382015260200161010b565b5050505090500194505050505060405180910390f35b60008054606091829163ffffffff1690859085908161015457fe5b9050602002013563ffffffff1663ffffffff1614801561019c57506001805463ffffffff16908590859081811061018757fe5b9050602002013563ffffffff1663ffffffff16145b61020757604080517f08c379a000000000000000000000000000000000000000000000000000000000815260206004820152601160248201527f496e76616c696420746573742063617365000000000000000000000000000000604482015290519081900360640190fd5b6040805160028082526060820183526000926020830190803683375050600080548351939450640100000000900460060b9284925061024257fe5b600692830b830b602091820292909201015260018054835164010000000090910490920b91839190811061027257fe5b600692830b90920b602092830291909101820152604080516002808252606082018352600093919290918301908036833750506000805483519394506b010000000000000000000000900473ffffffffffffffffffffffffffffffffffffffff16928492506102dd57fe5b73ffffffffffffffffffffffffffffffffffffffff92831660209182029290920101526001805483516b01000000000000000000000090910490921691839190811061032557fe5b73ffffffffffffffffffffffffffffffffffffffff909216602092830291909101909101529092509050925092905056fea164736f6c6343000706000a",
          "opcodes": "PUSH1 0x80 PUSH1 0x40 MSTORE CALLVALUE DUP1 ISZERO PUSH2 0x10 JUMPI PUSH1 0x0 DUP1 REVERT JUMPDEST POP PUSH1 0x40 MLOAD PUSH2 0x780 CODESIZE SUB DUP1 PUSH2 0x780 DUP4 CODECOPY DUP2 DUP2 ADD PUSH1 0x40 MSTORE PUSH1 0x60 DUP2 LT ISZERO PUSH2 0x33 JUMPI PUSH1 0x0 DUP1 REVERT JUMPDEST DUP2 ADD SWAP1 DUP1 DUP1 MLOAD PUSH1 0x40 MLOAD SWAP4 SWAP3 SWAP2 SWAP1 DUP5 PUSH5 0x100000000 DUP3 GT ISZERO PUSH2 0x53 JUMPI PUSH1 0x0 DUP1 REVERT JUMPDEST SWAP1 DUP4 ADD SWAP1 PUSH1 0x20 DUP3 ADD DUP6 DUP2 GT ISZERO PUSH2 0x68 JUMPI PUSH1 0x0 DUP1 REVERT JUMPDEST DUP3 MLOAD DUP7 PUSH1 0x20 DUP3 MUL DUP4 ADD GT PUSH5 0x100000000 DUP3 GT OR ISZERO PUSH2 0x85 JUMPI PUSH1 0x0 DUP1 REVERT JUMPDEST DUP3 MSTORE POP DUP2 MLOAD PUSH1 0x20 SWAP2 DUP3 ADD SWAP3 DUP3 ADD SWAP2 MUL DUP1 DUP4 DUP4 PUSH1 0x0 JUMPDEST DUP4 DUP2 LT ISZERO PUSH2 0xB2 JUMPI DUP2 DUP2 ADD MLOAD DUP4 DUP3 ADD MSTORE PUSH1 0x20 ADD PUSH2 0x9A JUMP JUMPDEST POP POP POP POP SWAP1 POP ADD PUSH1 0x40 MSTORE PUSH1 0x20 ADD DUP1 MLOAD PUSH1 0x40 MLOAD SWAP4 SWAP3 SWAP2 SWAP1 DUP5 PUSH5 0x100000000 DUP3 GT ISZERO PUSH2 0xDB JUMPI PUSH1 0x0 DUP1 REVERT JUMPDEST SWAP1 DUP4 ADD SWAP1 PUSH1 0x20 DUP3 ADD DUP6 DUP2 GT ISZERO PUSH2 0xF0 JUMPI PUSH1 0x0 DUP1 REVERT JUMPDEST DUP3 MLOAD DUP7 PUSH1 0x20 DUP3 MUL DUP4 ADD GT PUSH5 0x100000000 DUP3 GT OR ISZERO PUSH2 0x10D JUMPI PUSH1 0x0 DUP1 REVERT JUMPDEST DUP3 MSTORE POP DUP2 MLOAD PUSH1 0x20 SWAP2 DUP3 ADD SWAP3 DUP3 ADD SWAP2 MUL DUP1 DUP4 DUP4 PUSH1 0x0 JUMPDEST DUP4 DUP2 LT ISZERO PUSH2 0x13A JUMPI DUP2 DUP2 ADD MLOAD DUP4 DUP3 ADD MSTORE PUSH1 0x20 ADD PUSH2 0x122 JUMP JUMPDEST POP POP POP POP SWAP1 POP ADD PUSH1 0x40 MSTORE PUSH1 0x20 ADD DUP1 MLOAD PUSH1 0x40 MLOAD SWAP4 SWAP3 SWAP2 SWAP1 DUP5 PUSH5 0x100000000 DUP3 GT ISZERO PUSH2 0x163 JUMPI PUSH1 0x0 DUP1 REVERT JUMPDEST SWAP1 DUP4 ADD SWAP1 PUSH1 0x20 DUP3 ADD DUP6 DUP2 GT ISZERO PUSH2 0x178 JUMPI PUSH1 0x0 DUP1 REVERT JUMPDEST DUP3 MLOAD DUP7 PUSH1 0x20 DUP3 MUL DUP4 ADD GT PUSH5 0x100000000 DUP3 GT OR ISZERO PUSH2 0x195 JUMPI PUSH1 0x0 DUP1 REVERT JUMPDEST DUP3 MSTORE POP DUP2 MLOAD PUSH1 0x20 SWAP2 DUP3 ADD SWAP3 DUP3 ADD SWAP2 MUL DUP1 DUP4 DUP4 PUSH1 0x0 JUMPDEST DUP4 DUP2 LT ISZERO PUSH2 0x1C2 JUMPI DUP2 DUP2 ADD MLOAD DUP4 DUP3 ADD MSTORE PUSH1 0x20 ADD PUSH2 0x1AA JUMP JUMPDEST POP POP POP POP SWAP1 POP ADD PUSH1 0x40 MSTORE POP POP POP DUP3 MLOAD PUSH1 0x2 EQ DUP1 ISZERO PUSH2 0x1E1 JUMPI POP DUP2 MLOAD PUSH1 0x2 EQ JUMPDEST DUP1 ISZERO PUSH2 0x1EE JUMPI POP DUP1 MLOAD PUSH1 0x2 EQ JUMPDEST PUSH2 0x23F JUMPI PUSH1 0x40 DUP1 MLOAD PUSH3 0x461BCD PUSH1 0xE5 SHL DUP2 MSTORE PUSH1 0x20 PUSH1 0x4 DUP3 ADD MSTORE PUSH1 0x16 PUSH1 0x24 DUP3 ADD MSTORE PUSH32 0x496E76616C6964207465737420636173652073697A6500000000000000000000 PUSH1 0x44 DUP3 ADD MSTORE SWAP1 MLOAD SWAP1 DUP2 SWAP1 SUB PUSH1 0x64 ADD SWAP1 REVERT JUMPDEST PUSH1 0x40 MLOAD DUP1 PUSH1 0x60 ADD PUSH1 0x40 MSTORE DUP1 DUP5 PUSH1 0x0 DUP2 MLOAD DUP2 LT PUSH2 0x257 JUMPI INVALID JUMPDEST PUSH1 0x20 MUL PUSH1 0x20 ADD ADD MLOAD PUSH4 0xFFFFFFFF AND DUP2 MSTORE PUSH1 0x20 ADD DUP4 PUSH1 0x0 DUP2 MLOAD DUP2 LT PUSH2 0x277 JUMPI INVALID JUMPDEST PUSH1 0x20 MUL PUSH1 0x20 ADD ADD MLOAD PUSH1 0x6 SIGNEXTEND DUP2 MSTORE PUSH1 0x20 ADD DUP3 PUSH1 0x0 DUP2 MLOAD DUP2 LT PUSH2 0x294 JUMPI INVALID JUMPDEST PUSH1 0x20 SWAP1 DUP2 MUL SWAP2 SWAP1 SWAP2 ADD DUP2 ADD MLOAD PUSH1 0x1 PUSH1 0x1 PUSH1 0xA0 SHL SUB SWAP1 DUP2 AND SWAP1 SWAP3 MSTORE DUP3 MLOAD PUSH1 0x0 DUP1 SLOAD SWAP3 DUP6 ADD MLOAD PUSH1 0x40 SWAP6 DUP7 ADD MLOAD SWAP1 SWAP5 AND PUSH12 0x10000000000000000000000 MUL PUSH1 0x1 PUSH1 0x58 SHL PUSH1 0x1 PUSH1 0xF8 SHL SUB NOT PUSH1 0x6 SWAP6 SWAP1 SWAP6 SIGNEXTEND PUSH7 0xFFFFFFFFFFFFFF AND PUSH5 0x100000000 MUL PUSH7 0xFFFFFFFFFFFFFF PUSH1 0x20 SHL NOT PUSH4 0xFFFFFFFF SWAP1 SWAP5 AND PUSH4 0xFFFFFFFF NOT SWAP1 SWAP6 AND SWAP5 SWAP1 SWAP5 OR SWAP3 SWAP1 SWAP3 AND SWAP3 SWAP1 SWAP3 OR SWAP3 SWAP1 SWAP3 AND SWAP2 SWAP1 SWAP2 OR SWAP1 SSTORE DUP1 MLOAD PUSH1 0x60 DUP2 ADD SWAP1 SWAP2 MSTORE DUP4 MLOAD DUP2 SWAP1 DUP6 SWAP1 PUSH1 0x1 SWAP1 DUP2 LT PUSH2 0x33E JUMPI INVALID JUMPDEST PUSH1 0x20 MUL PUSH1 0x20 ADD ADD MLOAD PUSH4 0xFFFFFFFF AND DUP2 MSTORE PUSH1 0x20 ADD DUP4 PUSH1 0x1 DUP2 MLOAD DUP2 LT PUSH2 0x35E JUMPI INVALID JUMPDEST PUSH1 0x20 MUL PUSH1 0x20 ADD ADD MLOAD PUSH1 0x6 SIGNEXTEND DUP2 MSTORE PUSH1 0x20 ADD DUP3 PUSH1 0x1 DUP2 MLOAD DUP2 LT PUSH2 0x37B JUMPI INVALID JUMPDEST PUSH1 0x20 SWAP1 DUP2 MUL SWAP2 SWAP1 SWAP2 ADD DUP2 ADD MLOAD PUSH1 0x1 PUSH1 0x1 PUSH1 0xA0 SHL SUB SWAP1 DUP2 AND SWAP1 SWAP3 MSTORE DUP3 MLOAD PUSH1 0x1 DUP1 SLOAD SWAP3 DUP6 ADD MLOAD PUSH1 0x40 SWAP1 SWAP6 ADD MLOAD SWAP1 SWAP4 AND PUSH12 0x10000000000000000000000 MUL PUSH1 0x1 PUSH1 0x58 SHL PUSH1 0x1 PUSH1 0xF8 SHL SUB NOT PUSH1 0x6 SWAP6 SWAP1 SWAP6 SIGNEXTEND PUSH7 0xFFFFFFFFFFFFFF AND PUSH5 0x100000000 MUL PUSH7 0xFFFFFFFFFFFFFF PUSH1 0x20 SHL NOT PUSH4 0xFFFFFFFF SWAP1 SWAP4 AND PUSH4 0xFFFFFFFF NOT SWAP1 SWAP5 AND SWAP4 SWAP1 SWAP4 OR SWAP2 SWAP1 SWAP2 AND SWAP2 SWAP1 SWAP2 OR SWAP3 SWAP1 SWAP3 AND SWAP2 SWAP1 SWAP2 OR SWAP1 SSTORE POP POP POP PUSH2 0x363 DUP1 PUSH2 0x41D PUSH1 0x0 CODECOPY PUSH1 0x0 RETURN INVALID PUSH1 0x80 PUSH1 0x40 MSTORE CALLVALUE DUP1 ISZERO PUSH2 0x10 JUMPI PUSH1 0x0 DUP1 REVERT JUMPDEST POP PUSH1 0x4 CALLDATASIZE LT PUSH2 0x2B JUMPI PUSH1 0x0 CALLDATALOAD PUSH1 0xE0 SHR DUP1 PUSH4 0x883BDBFD EQ PUSH2 0x30 JUMPI JUMPDEST PUSH1 0x0 DUP1 REVERT JUMPDEST PUSH2 0xA0 PUSH1 0x4 DUP1 CALLDATASIZE SUB PUSH1 0x20 DUP2 LT ISZERO PUSH2 0x46 JUMPI PUSH1 0x0 DUP1 REVERT JUMPDEST DUP2 ADD SWAP1 PUSH1 0x20 DUP2 ADD DUP2 CALLDATALOAD PUSH5 0x100000000 DUP2 GT ISZERO PUSH2 0x61 JUMPI PUSH1 0x0 DUP1 REVERT JUMPDEST DUP3 ADD DUP4 PUSH1 0x20 DUP3 ADD GT ISZERO PUSH2 0x73 JUMPI PUSH1 0x0 DUP1 REVERT JUMPDEST DUP1 CALLDATALOAD SWAP1 PUSH1 0x20 ADD SWAP2 DUP5 PUSH1 0x20 DUP4 MUL DUP5 ADD GT PUSH5 0x100000000 DUP4 GT OR ISZERO PUSH2 0x95 JUMPI PUSH1 0x0 DUP1 REVERT JUMPDEST POP SWAP1 SWAP3 POP SWAP1 POP PUSH2 0x139 JUMP JUMPDEST PUSH1 0x40 MLOAD DUP1 DUP1 PUSH1 0x20 ADD DUP1 PUSH1 0x20 ADD DUP4 DUP2 SUB DUP4 MSTORE DUP6 DUP2 DUP2 MLOAD DUP2 MSTORE PUSH1 0x20 ADD SWAP2 POP DUP1 MLOAD SWAP1 PUSH1 0x20 ADD SWAP1 PUSH1 0x20 MUL DUP1 DUP4 DUP4 PUSH1 0x0 JUMPDEST DUP4 DUP2 LT ISZERO PUSH2 0xE4 JUMPI DUP2 DUP2 ADD MLOAD DUP4 DUP3 ADD MSTORE PUSH1 0x20 ADD PUSH2 0xCC JUMP JUMPDEST POP POP POP POP SWAP1 POP ADD DUP4 DUP2 SUB DUP3 MSTORE DUP5 DUP2 DUP2 MLOAD DUP2 MSTORE PUSH1 0x20 ADD SWAP2 POP DUP1 MLOAD SWAP1 PUSH1 0x20 ADD SWAP1 PUSH1 0x20 MUL DUP1 DUP4 DUP4 PUSH1 0x0 JUMPDEST DUP4 DUP2 LT ISZERO PUSH2 0x123 JUMPI DUP2 DUP2 ADD MLOAD DUP4 DUP3 ADD MSTORE PUSH1 0x20 ADD PUSH2 0x10B JUMP JUMPDEST POP POP POP POP SWAP1 POP ADD SWAP5 POP POP POP POP POP PUSH1 0x40 MLOAD DUP1 SWAP2 SUB SWAP1 RETURN JUMPDEST PUSH1 0x0 DUP1 SLOAD PUSH1 0x60 SWAP2 DUP3 SWAP2 PUSH4 0xFFFFFFFF AND SWAP1 DUP6 SWAP1 DUP6 SWAP1 DUP2 PUSH2 0x154 JUMPI INVALID JUMPDEST SWAP1 POP PUSH1 0x20 MUL ADD CALLDATALOAD PUSH4 0xFFFFFFFF AND PUSH4 0xFFFFFFFF AND EQ DUP1 ISZERO PUSH2 0x19C JUMPI POP PUSH1 0x1 DUP1 SLOAD PUSH4 0xFFFFFFFF AND SWAP1 DUP6 SWAP1 DUP6 SWAP1 DUP2 DUP2 LT PUSH2 0x187 JUMPI INVALID JUMPDEST SWAP1 POP PUSH1 0x20 MUL ADD CALLDATALOAD PUSH4 0xFFFFFFFF AND PUSH4 0xFFFFFFFF AND EQ JUMPDEST PUSH2 0x207 JUMPI PUSH1 0x40 DUP1 MLOAD PUSH32 0x8C379A000000000000000000000000000000000000000000000000000000000 DUP2 MSTORE PUSH1 0x20 PUSH1 0x4 DUP3 ADD MSTORE PUSH1 0x11 PUSH1 0x24 DUP3 ADD MSTORE PUSH32 0x496E76616C696420746573742063617365000000000000000000000000000000 PUSH1 0x44 DUP3 ADD MSTORE SWAP1 MLOAD SWAP1 DUP2 SWAP1 SUB PUSH1 0x64 ADD SWAP1 REVERT JUMPDEST PUSH1 0x40 DUP1 MLOAD PUSH1 0x2 DUP1 DUP3 MSTORE PUSH1 0x60 DUP3 ADD DUP4 MSTORE PUSH1 0x0 SWAP3 PUSH1 0x20 DUP4 ADD SWAP1 DUP1 CALLDATASIZE DUP4 CALLDATACOPY POP POP PUSH1 0x0 DUP1 SLOAD DUP4 MLOAD SWAP4 SWAP5 POP PUSH5 0x100000000 SWAP1 DIV PUSH1 0x6 SIGNEXTEND SWAP3 DUP5 SWAP3 POP PUSH2 0x242 JUMPI INVALID JUMPDEST PUSH1 0x6 SWAP3 DUP4 SIGNEXTEND DUP4 SIGNEXTEND PUSH1 0x20 SWAP2 DUP3 MUL SWAP3 SWAP1 SWAP3 ADD ADD MSTORE PUSH1 0x1 DUP1 SLOAD DUP4 MLOAD PUSH5 0x100000000 SWAP1 SWAP2 DIV SWAP1 SWAP3 SIGNEXTEND SWAP2 DUP4 SWAP2 SWAP1 DUP2 LT PUSH2 0x272 JUMPI INVALID JUMPDEST PUSH1 0x6 SWAP3 DUP4 SIGNEXTEND SWAP1 SWAP3 SIGNEXTEND PUSH1 0x20 SWAP3 DUP4 MUL SWAP2 SWAP1 SWAP2 ADD DUP3 ADD MSTORE PUSH1 0x40 DUP1 MLOAD PUSH1 0x2 DUP1 DUP3 MSTORE PUSH1 0x60 DUP3 ADD DUP4 MSTORE PUSH1 0x0 SWAP4 SWAP2 SWAP3 SWAP1 SWAP2 DUP4 ADD SWAP1 DUP1 CALLDATASIZE DUP4 CALLDATACOPY POP POP PUSH1 0x0 DUP1 SLOAD DUP4 MLOAD SWAP4 SWAP5 POP PUSH12 0x10000000000000000000000 SWAP1 DIV PUSH20 0xFFFFFFFFFFFFFFFFFFFFFFFFFFFFFFFFFFFFFFFF AND SWAP3 DUP5 SWAP3 POP PUSH2 0x2DD JUMPI INVALID JUMPDEST PUSH20 0xFFFFFFFFFFFFFFFFFFFFFFFFFFFFFFFFFFFFFFFF SWAP3 DUP4 AND PUSH1 0x20 SWAP2 DUP3 MUL SWAP3 SWAP1 SWAP3 ADD ADD MSTORE PUSH1 0x1 DUP1 SLOAD DUP4 MLOAD PUSH12 0x10000000000000000000000 SWAP1 SWAP2 DIV SWAP1 SWAP3 AND SWAP2 DUP4 SWAP2 SWAP1 DUP2 LT PUSH2 0x325 JUMPI INVALID JUMPDEST PUSH20 0xFFFFFFFFFFFFFFFFFFFFFFFFFFFFFFFFFFFFFFFF SWAP1 SWAP3 AND PUSH1 0x20 SWAP3 DUP4 MUL SWAP2 SWAP1 SWAP2 ADD SWAP1 SWAP2 ADD MSTORE SWAP1 SWAP3 POP SWAP1 POP SWAP3 POP SWAP3 SWAP1 POP JUMP INVALID LOG1 PUSH5 0x736F6C6343 STOP SMOD MOD STOP EXP "
        },
        "methodIdentifiers": {
          "observe(uint32[])": "883bdbfd"
        }
      }
    }
  }
}