{"abi":[{"type":"constructor","inputs":[],"stateMutability":"nonpayable"},{"type":"function","name":"ENCODING_OVERHEAD","inputs":[],"outputs":[{"name":"","type":"uint64","internalType":"uint64"}],"stateMutability":"view"},{"type":"function","name":"FLOOR_CALLDATA_OVERHEAD","inputs":[],"outputs":[{"name":"","type":"uint64","internalType":"uint64"}],"stateMutability":"view"},{"type":"function","name":"MESSAGE_VERSION","inputs":[],"outputs":[{"name":"","type":"uint16","internalType":"uint16"}],"stateMutability":"view"},{"type":"function","name":"MIN_GAS_CALLDATA_OVERHEAD","inputs":[],"outputs":[{"name":"","type":"uint64","internalType":"uint64"}],"stateMutability":"view"},{"type":"function","name":"MIN_GAS_DYNAMIC_OVERHEAD_DENOMINATOR","inputs":[],"outputs":[{"name":"","type":"uint64","internalType":"uint64"}],"stateMutability":"view"},{"type":"function","name":"MIN_GAS_DYNAMIC_OVERHEAD_NUMERATOR","inputs":[],"outputs":[{"name":"","type":"uint64","internalType":"uint64"}],"stateMutability":"view"},{"type":"function","name":"OTHER_MESSENGER","inputs":[],"outputs":[{"name":"","type":"address","internalType":"contract CrossDomainMessenger"}],"stateMutability":"view"},{"type":"function","name":"PORTAL","inputs":[],"outputs":[{"name":"","type":"address","internalType":"contract IOptimismPortal2"}],"stateMutability":"view"},{"type":"function","name":"RELAY_CALL_OVERHEAD","inputs":[],"outputs":[{"name":"","type":"uint64","internalType":"uint64"}],"stateMutability":"view"},{"type":"function","name":"RELAY_CONSTANT_OVERHEAD","inputs":[],"outputs":[{"name":"","type":"uint64","internalType":"uint64"}],"stateMutability":"view"},{"type":"function","name":"RELAY_GAS_CHECK_BUFFER","inputs":[],"outputs":[{"name":"","type":"uint64","internalType":"uint64"}],"stateMutability":"view"},{"type":"function","name":"RELAY_RESERVED_GAS","inputs":[],"outputs":[{"name":"","type":"uint64","internalType":"uint64"}],"stateMutability":"view"},{"type":"function","name":"TX_BASE_GAS","inputs":[],"outputs":[{"name":"","type":"uint64","internalType":"uint64"}],"stateMutability":"view"},{"type":"function","name":"baseGas","inputs":[{"name":"_message","type":"bytes","internalType":"bytes"},{"name":"_minGasLimit","type":"uint32","internalType":"uint32"}],"outputs":[{"name":"","type":"uint64","internalType":"uint64"}],"stateMutability":"pure"},{"type":"function","name":"failedMessages","inputs":[{"name":"","type":"bytes32","internalType":"bytes32"}],"outputs":[{"name":"","type":"bool","internalType":"bool"}],"stateMutability":"view"},{"type":"function","name":"initVersion","inputs":[],"outputs":[{"name":"","type":"uint8","internalType":"uint8"}],"stateMutability":"view"},{"type":"function","name":"initialize","inputs":[{"name":"_systemConfig","type":"address","internalType":"contract ISystemConfig"},{"name":"_portal","type":"address","internalType":"contract IOptimismPortal2"}],"outputs":[],"stateMutability":"nonpayable"},{"type":"function","name":"messageNonce","inputs":[],"outputs":[{"name":"","type":"uint256","internalType":"uint256"}],"stateMutability":"view"},{"type":"function","name":"otherMessenger","inputs":[],"outputs":[{"name":"","type":"address","internalType":"contract CrossDomainMessenger"}],"stateMutability":"view"},{"type":"function","name":"paused","inputs":[],"outputs":[{"name":"","type":"bool","internalType":"bool"}],"stateMutability":"view"},{"type":"function","name":"portal","inputs":[],"outputs":[{"name":"","type":"address","internalType":"contract IOptimismPortal2"}],"stateMutability":"view"},{"type":"function","name":"proxyAdmin","inputs":[],"outputs":[{"name":"","type":"address","internalType":"contract IProxyAdmin"}],"stateMutability":"view"},{"type":"function","name":"proxyAdminOwner","inputs":[],"outputs":[{"name":"","type":"address","internalType":"address"}],"stateMutability":"view"},{"type":"function","name":"relayMessage","inputs":[{"name":"_nonce","type":"uint256","internalType":"uint256"},{"name":"_sender","type":"address","internalType":"address"},{"name":"_target","type":"address","internalType":"address"},{"name":"_value","type":"uint256","internalType":"uint256"},{"name":"_minGasLimit","type":"uint256","internalType":"uint256"},{"name":"_message","type":"bytes","internalType":"bytes"}],"outputs":[],"stateMutability":"payable"},{"type":"function","name":"sendMessage","inputs":[{"name":"_target","type":"address","internalType":"address"},{"name":"_message","type":"bytes","internalType":"bytes"},{"name":"_minGasLimit","type":"uint32","internalType":"uint32"}],"outputs":[],"stateMutability":"payable"},{"type":"function","name":"successfulMessages","inputs":[{"name":"","type":"bytes32","internalType":"bytes32"}],"outputs":[{"name":"","type":"bool","internalType":"bool"}],"stateMutability":"view"},{"type":"function","name":"superchainConfig","inputs":[],"outputs":[{"name":"","type":"address","internalType":"contract ISuperchainConfig"}],"stateMutability":"view"},{"type":"function","name":"systemConfig","inputs":[],"outputs":[{"name":"","type":"address","internalType":"contract ISystemConfig"}],"stateMutability":"view"},{"type":"function","name":"upgrade","inputs":[{"name":"_systemConfig","type":"address","internalType":"contract ISystemConfig"}],"outputs":[],"stateMutability":"nonpayable"},{"type":"function","name":"version","inputs":[],"outputs":[{"name":"","type":"string","internalType":"string"}],"stateMutability":"view"},{"type":"function","name":"xDomainMessageSender","inputs":[],"outputs":[{"name":"","type":"address","internalType":"address"}],"stateMutability":"view"},{"type":"event","name":"FailedRelayedMessage","inputs":[{"name":"msgHash","type":"bytes32","indexed":true,"internalType":"bytes32"}],"anonymous":false},{"type":"event","name":"Initialized","inputs":[{"name":"version","type":"uint8","indexed":false,"internalType":"uint8"}],"anonymous":false},{"type":"event","name":"RelayedMessage","inputs":[{"name":"msgHash","type":"bytes32","indexed":true,"internalType":"bytes32"}],"anonymous":false},{"type":"event","name":"SentMessage","inputs":[{"name":"target","type":"address","indexed":true,"internalType":"address"},{"name":"sender","type":"address","indexed":false,"internalType":"address"},{"name":"message","type":"bytes","indexed":false,"internalType":"bytes"},{"name":"messageNonce","type":"uint256","indexed":false,"internalType":"uint256"},{"name":"gasLimit","type":"uint256","indexed":false,"internalType":"uint256"}],"anonymous":false},{"type":"event","name":"SentMessageExtension1","inputs":[{"name":"sender","type":"address","indexed":true,"internalType":"address"},{"name":"value","type":"uint256","indexed":false,"internalType":"uint256"}],"anonymous":false},{"type":"error","name":"ProxyAdminOwnedBase_NotProxyAdmin","inputs":[]},{"type":"error","name":"ProxyAdminOwnedBase_NotProxyAdminOrProxyAdminOwner","inputs":[]},{"type":"error","name":"ProxyAdminOwnedBase_NotProxyAdminOwner","inputs":[]},{"type":"error","name":"ProxyAdminOwnedBase_NotResolvedDelegateProxy","inputs":[]},{"type":"error","name":"ProxyAdminOwnedBase_NotSharedProxyAdminOwner","inputs":[]},{"type":"error","name":"ProxyAdminOwnedBase_ProxyAdminNotFound","inputs":[]},{"type":"error","name":"ReinitializableBase_ZeroInitVersion","inputs":[]}],"bytecode":{"object":"0x60a06040523480156200001157600080fd5b5060026080526200002162000027565b620000f6565b600054600160a81b900460ff1615620000965760405162461bcd60e51b815260206004820152602760248201527f496e697469616c697a61626c653a20636f6e747261637420697320696e697469604482015266616c697a696e6760c81b606482015260840160405180910390fd5b60005460ff600160a01b90910481161015620000f4576000805460ff60a01b191660ff60a01b17905560405160ff81527f7f26b83ff96e1f2b6a682f133852f6798a09c465da95921460cefb38474024989060200160405180910390a15b565b6080516127f86200012060003960008181610314015281816106400152610d9e01526127f86000f3fe6080604052600436106101d85760003560e01c80635644cfdf11610102578063b1b1b20911610095578063db505d8011610064578063db505d8014610581578063ddd5a40f146105ae578063e46e245a146105c4578063ecc70428146105d957600080fd5b8063b1b1b20914610509578063b28ade2514610539578063d764ad0b14610559578063dad544e01461056c57600080fd5b806383a74074116100d157806383a74074146104975780638cbeeef2146103ae5780639fce812c146104ae578063a4e7f8bd146104d957600080fd5b80635644cfdf1461041a5780635c975abb146104305780636425666b146104555780636e296e451461048257600080fd5b806335e80ab31161017a5780633f827a5a116101495780633f827a5a14610366578063485cc9551461038e5780634c1d6a69146103ae57806354fd4d50146103c457600080fd5b806335e80ab3146102eb57806338d38c97146103005780633dbb202b1461033e5780633e47158c1461035157600080fd5b80630ff754ea116101b65780630ff754ea146102475780632828d7e8146102935780632f7d3922146102a857806333d7e2bd146102be57600080fd5b8063028f85f7146101dd5780630900f010146102105780630c56849814610232575b600080fd5b3480156101e957600080fd5b506101f2601081565b60405167ffffffffffffffff90911681526020015b60405180910390f35b34801561021c57600080fd5b5061023061022b3660046120fe565b61063e565b005b34801561023e57600080fd5b506101f2603f81565b34801561025357600080fd5b5060fc5473ffffffffffffffffffffffffffffffffffffffff165b60405173ffffffffffffffffffffffffffffffffffffffff9091168152602001610207565b34801561029f57600080fd5b506101f2604081565b3480156102b457600080fd5b506101f261520881565b3480156102ca57600080fd5b5060fe5461026e9073ffffffffffffffffffffffffffffffffffffffff1681565b3480156102f757600080fd5b5061026e610865565b34801561030c57600080fd5b5060405160ff7f0000000000000000000000000000000000000000000000000000000000000000168152602001610207565b61023061034c36600461217d565b6108fe565b34801561035d57600080fd5b5061026e610b91565b34801561037257600080fd5b5061037b600181565b60405161ffff9091168152602001610207565b34801561039a57600080fd5b506102306103a93660046121e4565b610d9c565b3480156103ba57600080fd5b506101f2619c4081565b3480156103d057600080fd5b5061040d6040518060400160405280600581526020017f322e392e3000000000000000000000000000000000000000000000000000000081525081565b6040516102079190612288565b34801561042657600080fd5b506101f261138881565b34801561043c57600080fd5b50610445610ff1565b6040519015158152602001610207565b34801561046157600080fd5b5060fc5461026e9073ffffffffffffffffffffffffffffffffffffffff1681565b34801561048e57600080fd5b5061026e611085565b3480156104a357600080fd5b506101f262030d4081565b3480156104ba57600080fd5b5060cf5473ffffffffffffffffffffffffffffffffffffffff1661026e565b3480156104e557600080fd5b506104456104f436600461229b565b60ce6020526000908152604090205460ff1681565b34801561051557600080fd5b5061044561052436600461229b565b60cb6020526000908152604090205460ff1681565b34801561054557600080fd5b506101f26105543660046122e3565b61116c565b6102306105673660046123c3565b61122d565b34801561057857600080fd5b5061026e611b42565b34801561058d57600080fd5b5060cf5461026e9073ffffffffffffffffffffffffffffffffffffffff1681565b3480156105ba57600080fd5b506101f261010481565b3480156105d057600080fd5b506101f2602881565b3480156105e557600080fd5b5061063060cd547dffffffffffffffffffffffffffffffffffffffffffffffffffffffffffff167e010000000000000000000000000000000000000000000000000000000000001790565b604051908152602001610207565b7f00000000000000000000000000000000000000000000000000000000000000006000547501000000000000000000000000000000000000000000900460ff161580156106aa575060005460ff8083167401000000000000000000000000000000000000000090920416105b61073b576040517f08c379a000000000000000000000000000000000000000000000000000000000815260206004820152602e60248201527f496e697469616c697a61626c653a20636f6e747261637420697320616c72656160448201527f647920696e697469616c697a656400000000000000000000000000000000000060648201526084015b60405180910390fd5b600080547fffffffffffffffffffff00ffffffffffffffffffffffffffffffffffffffffff60ff84167401000000000000000000000000000000000000000002167fffffffffffffffffffff0000ffffffffffffffffffffffffffffffffffffffff9091161775010000000000000000000000000000000000000000001790556107c3611b96565b60fe80547fffffffffffffffffffffffff00000000000000000000000000000000000000001673ffffffffffffffffffffffffffffffffffffffff8416179055600080547fffffffffffffffffffff00ffffffffffffffffffffffffffffffffffffffffff16905560405160ff821681527f7f26b83ff96e1f2b6a682f133852f6798a09c465da95921460cefb38474024989060200160405180910390a15050565b60fe54604080517f35e80ab3000000000000000000000000000000000000000000000000000000008152905160009273ffffffffffffffffffffffffffffffffffffffff16916335e80ab39160048083019260209291908290030181865afa1580156108d5573d6000803e3d6000fd5b505050506040513d601f19601f820116820180604052508101906108f99190612449565b905090565b60cf54604080516020601f8601819004810282018101909252848152610a669273ffffffffffffffffffffffffffffffffffffffff169161095c9190879087908190840183828082843760009201919091525087925061116c915050565b347fd764ad0b000000000000000000000000000000000000000000000000000000006109c860cd547dffffffffffffffffffffffffffffffffffffffffffffffffffffffffffff167e010000000000000000000000000000000000000000000000000000000000001790565b338a34898c8c6040516024016109e497969594939291906124af565b604080517fffffffffffffffffffffffffffffffffffffffffffffffffffffffffffffffe08184030181529190526020810180517bffffffffffffffffffffffffffffffffffffffffffffffffffffffff167fffffffff0000000000000000000000000000000000000000000000000000000090931692909217909152611c19565b8373ffffffffffffffffffffffffffffffffffffffff167fcb0f7ffd78f9aee47a248fae8db181db6eee833039123e026dcbff529522e52a338585610aeb60cd547dffffffffffffffffffffffffffffffffffffffffffffffffffffffffffff167e010000000000000000000000000000000000000000000000000000000000001790565b86604051610afd95949392919061250e565b60405180910390a260405134815233907f8ebb2ec2465bdb2a06a66fc37a0963af8a2a6a1479d81d56fdb8cbb98096d5469060200160405180910390a2505060cd80547dffffffffffffffffffffffffffffffffffffffffffffffffffffffffffff808216600101167fffff0000000000000000000000000000000000000000000000000000000000009091161790555050565b600080610bbc7fb53127684a568b3173ae13b9f8a6016e243e63b6e8ee1178d6a717850b5d61035490565b905073ffffffffffffffffffffffffffffffffffffffff811615610bdf57919050565b6040518060400160405280601a81526020017f4f564d5f4c3143726f7373446f6d61696e4d657373656e676572000000000000815250516002610c22919061258b565b604080513060208201526000918101919091527f4f564d5f4c3143726f7373446f6d61696e4d657373656e6765720000000000009190911790610c7d906060015b604051602081830303815290604052805190602001205490565b14610cb4576040517f54e433cd00000000000000000000000000000000000000000000000000000000815260040160405180910390fd5b60408051306020820152600191810191909152600090610cd690606001610c63565b905073ffffffffffffffffffffffffffffffffffffffff811615610d6a578073ffffffffffffffffffffffffffffffffffffffff16638da5cb5b6040518163ffffffff1660e01b8152600401602060405180830381865afa158015610d3f573d6000803e3d6000fd5b505050506040513d601f19601f82011682018060405250810190610d639190612449565b9250505090565b6040517f332144db00000000000000000000000000000000000000000000000000000000815260040160405180910390fd5b7f00000000000000000000000000000000000000000000000000000000000000006000547501000000000000000000000000000000000000000000900460ff16158015610e08575060005460ff8083167401000000000000000000000000000000000000000090920416105b610e94576040517f08c379a000000000000000000000000000000000000000000000000000000000815260206004820152602e60248201527f496e697469616c697a61626c653a20636f6e747261637420697320616c72656160448201527f647920696e697469616c697a65640000000000000000000000000000000000006064820152608401610732565b600080547fffffffffffffffffffff00ffffffffffffffffffffffffffffffffffffffffff60ff84167401000000000000000000000000000000000000000002167fffffffffffffffffffff0000ffffffffffffffffffffffffffffffffffffffff909116177501000000000000000000000000000000000000000000179055610f1c611b96565b60fe805473ffffffffffffffffffffffffffffffffffffffff8086167fffffffffffffffffffffffff00000000000000000000000000000000000000009283161790925560fc805492851692909116919091179055610f8e734200000000000000000000000000000000000007611cb2565b600080547fffffffffffffffffffff00ffffffffffffffffffffffffffffffffffffffffff16905560405160ff821681527f7f26b83ff96e1f2b6a682f133852f6798a09c465da95921460cefb38474024989060200160405180910390a1505050565b60fe54604080517f5c975abb000000000000000000000000000000000000000000000000000000008152905160009273ffffffffffffffffffffffffffffffffffffffff1691635c975abb9160048083019260209291908290030181865afa158015611061573d6000803e3d6000fd5b505050506040513d601f19601f820116820180604052508101906108f991906125c8565b60cc5460009073ffffffffffffffffffffffffffffffffffffffff167fffffffffffffffffffffffffffffffffffffffffffffffffffffffffffff21530161114f576040517f08c379a000000000000000000000000000000000000000000000000000000000815260206004820152603560248201527f43726f7373446f6d61696e4d657373656e6765723a2078446f6d61696e4d657360448201527f7361676553656e646572206973206e6f742073657400000000000000000000006064820152608401610732565b5060cc5473ffffffffffffffffffffffffffffffffffffffff1690565b600080603f611182604063ffffffff86166125ea565b61118c919061261a565b611388619c4061119f8162030d40612668565b6111a99190612668565b6111b39190612668565b6111bd9190612668565b9050600061010467ffffffffffffffff1685516111da9190612694565b90506112186111ea6010836125ea565b6111f49084612668565b67ffffffffffffffff166112096028846125ea565b67ffffffffffffffff16611dee565b61122490615208612668565b95945050505050565b611235610ff1565b1561129c576040517f08c379a000000000000000000000000000000000000000000000000000000000815260206004820152601c60248201527f43726f7373446f6d61696e4d657373656e6765723a20706175736564000000006044820152606401610732565b60f087901c60028110611357576040517f08c379a000000000000000000000000000000000000000000000000000000000815260206004820152604d60248201527f43726f7373446f6d61696e4d657373656e6765723a206f6e6c7920766572736960448201527f6f6e2030206f722031206d657373616765732061726520737570706f7274656460648201527f20617420746869732074696d6500000000000000000000000000000000000000608482015260a401610732565b8061ffff1660000361144c5760006113a8878986868080601f0160208091040260200160405190810160405280939291908181526020018383808284376000920191909152508f9250611e07915050565b600081815260cb602052604090205490915060ff161561144a576040517f08c379a000000000000000000000000000000000000000000000000000000000815260206004820152603760248201527f43726f7373446f6d61696e4d657373656e6765723a206c65676163792077697460448201527f6864726177616c20616c72656164792072656c617965640000000000000000006064820152608401610732565b505b6000611492898989898989898080601f016020809104026020016040519081016040528093929190818152602001838380828437600092019190915250611e2692505050565b905061149c611e49565b156114d4578534146114b0576114b06126ac565b600081815260ce602052604090205460ff16156114cf576114cf6126ac565b611626565b3415611588576040517f08c379a000000000000000000000000000000000000000000000000000000000815260206004820152605060248201527f43726f7373446f6d61696e4d657373656e6765723a2076616c7565206d75737460448201527f206265207a65726f20756e6c657373206d6573736167652069732066726f6d2060648201527f612073797374656d206164647265737300000000000000000000000000000000608482015260a401610732565b600081815260ce602052604090205460ff16611626576040517f08c379a000000000000000000000000000000000000000000000000000000000815260206004820152603060248201527f43726f7373446f6d61696e4d657373656e6765723a206d65737361676520636160448201527f6e6e6f74206265207265706c61796564000000000000000000000000000000006064820152608401610732565b61162f87611f25565b156116e2576040517f08c379a000000000000000000000000000000000000000000000000000000000815260206004820152604360248201527f43726f7373446f6d61696e4d657373656e6765723a2063616e6e6f742073656e60448201527f64206d65737361676520746f20626c6f636b65642073797374656d206164647260648201527f6573730000000000000000000000000000000000000000000000000000000000608482015260a401610732565b600081815260cb602052604090205460ff1615611781576040517f08c379a000000000000000000000000000000000000000000000000000000000815260206004820152603660248201527f43726f7373446f6d61696e4d657373656e6765723a206d65737361676520686160448201527f7320616c7265616479206265656e2072656c61796564000000000000000000006064820152608401610732565b6117a285611793611388619c40612668565b67ffffffffffffffff16611f6b565b15806117c8575060cc5473ffffffffffffffffffffffffffffffffffffffff1661dead14155b156118e157600081815260ce602052604080822080547fffffffffffffffffffffffffffffffffffffffffffffffffffffffffffffff001660011790555182917f99d0e048484baa1b1540b1367cb128acd7ab2946d1ed91ec10e3c85e4bf51b8f91a27fffffffffffffffffffffffffffffffffffffffffffffffffffffffffffffffff32016118da576040517f08c379a000000000000000000000000000000000000000000000000000000000815260206004820152602d60248201527f43726f7373446f6d61696e4d657373656e6765723a206661696c656420746f2060448201527f72656c6179206d657373616765000000000000000000000000000000000000006064820152608401610732565b5050611b39565b60cc80547fffffffffffffffffffffffff00000000000000000000000000000000000000001673ffffffffffffffffffffffffffffffffffffffff8a16179055600061197288619c405a61193591906126db565b8988888080601f016020809104026020016040519081016040528093929190818152602001838380828437600092019190915250611f8992505050565b60cc80547fffffffffffffffffffffffff00000000000000000000000000000000000000001661dead17905590508015611a2857600082815260cb602052604090205460ff16156119c5576119c56126ac565b600082815260cb602052604080822080547fffffffffffffffffffffffffffffffffffffffffffffffffffffffffffffff001660011790555183917f4641df4a962071e12719d8c8c8e5ac7fc4d97b927346a3d7a335b1f7517e133c91a2611b35565b600082815260ce602052604080822080547fffffffffffffffffffffffffffffffffffffffffffffffffffffffffffffff001660011790555183917f99d0e048484baa1b1540b1367cb128acd7ab2946d1ed91ec10e3c85e4bf51b8f91a27fffffffffffffffffffffffffffffffffffffffffffffffffffffffffffffffff3201611b35576040517f08c379a000000000000000000000000000000000000000000000000000000000815260206004820152602d60248201527f43726f7373446f6d61696e4d657373656e6765723a206661696c656420746f2060448201527f72656c6179206d657373616765000000000000000000000000000000000000006064820152608401610732565b5050505b50505050505050565b6000611b4c610b91565b73ffffffffffffffffffffffffffffffffffffffff16638da5cb5b6040518163ffffffff1660e01b8152600401602060405180830381865afa1580156108d5573d6000803e3d6000fd5b33611b9f610b91565b73ffffffffffffffffffffffffffffffffffffffff1614158015611be0575033611bc7611b42565b73ffffffffffffffffffffffffffffffffffffffff1614155b15611c17576040517fc4050a2600000000000000000000000000000000000000000000000000000000815260040160405180910390fd5b565b60fc546040517fe9e05c4200000000000000000000000000000000000000000000000000000000815273ffffffffffffffffffffffffffffffffffffffff9091169063e9e05c42908490611c7a9088908390899060009089906004016126f2565b6000604051808303818588803b158015611c9357600080fd5b505af1158015611ca7573d6000803e3d6000fd5b505050505050505050565b6000547501000000000000000000000000000000000000000000900460ff16611d5d576040517f08c379a000000000000000000000000000000000000000000000000000000000815260206004820152602b60248201527f496e697469616c697a61626c653a20636f6e7472616374206973206e6f74206960448201527f6e697469616c697a696e670000000000000000000000000000000000000000006064820152608401610732565b60cc5473ffffffffffffffffffffffffffffffffffffffff16611da75760cc80547fffffffffffffffffffffffff00000000000000000000000000000000000000001661dead1790555b60cf80547fffffffffffffffffffffffff00000000000000000000000000000000000000001673ffffffffffffffffffffffffffffffffffffffff92909216919091179055565b600081831015611dfe5781611e00565b825b9392505050565b6000611e1585858585611fa1565b805190602001209050949350505050565b6000611e3687878787878761203a565b8051906020012090509695505050505050565b60fc5460009073ffffffffffffffffffffffffffffffffffffffff16331480156108f9575060cf5460fc54604080517f9bf62d82000000000000000000000000000000000000000000000000000000008152905173ffffffffffffffffffffffffffffffffffffffff9384169390921691639bf62d82916004808201926020929091908290030181865afa158015611ee5573d6000803e3d6000fd5b505050506040513d601f19601f82011682018060405250810190611f099190612449565b73ffffffffffffffffffffffffffffffffffffffff1614905090565b600073ffffffffffffffffffffffffffffffffffffffff8216301480611f65575060fc5473ffffffffffffffffffffffffffffffffffffffff8381169116145b92915050565b600080603f83619c4001026040850201603f5a021015949350505050565b6000806000835160208501868989f195945050505050565b606084848484604051602401611fba949392919061274a565b604080517fffffffffffffffffffffffffffffffffffffffffffffffffffffffffffffffe08184030181529190526020810180517bffffffffffffffffffffffffffffffffffffffffffffffffffffffff167fcbd4ece9000000000000000000000000000000000000000000000000000000001790529050949350505050565b606086868686868660405160240161205796959493929190612794565b604080517fffffffffffffffffffffffffffffffffffffffffffffffffffffffffffffffe08184030181529190526020810180517bffffffffffffffffffffffffffffffffffffffffffffffffffffffff167fd764ad0b0000000000000000000000000000000000000000000000000000000017905290509695505050505050565b73ffffffffffffffffffffffffffffffffffffffff811681146120fb57600080fd5b50565b60006020828403121561211057600080fd5b8135611e00816120d9565b60008083601f84011261212d57600080fd5b50813567ffffffffffffffff81111561214557600080fd5b60208301915083602082850101111561215d57600080fd5b9250929050565b803563ffffffff8116811461217857600080fd5b919050565b6000806000806060858703121561219357600080fd5b843561219e816120d9565b9350602085013567ffffffffffffffff8111156121ba57600080fd5b6121c68782880161211b565b90945092506121d9905060408601612164565b905092959194509250565b600080604083850312156121f757600080fd5b8235612202816120d9565b91506020830135612212816120d9565b809150509250929050565b6000815180845260005b8181101561224357602081850181015186830182015201612227565b81811115612255576000602083870101525b50601f017fffffffffffffffffffffffffffffffffffffffffffffffffffffffffffffffe0169290920160200192915050565b602081526000611e00602083018461221d565b6000602082840312156122ad57600080fd5b5035919050565b7f4e487b7100000000000000000000000000000000000000000000000000000000600052604160045260246000fd5b600080604083850312156122f657600080fd5b823567ffffffffffffffff8082111561230e57600080fd5b818501915085601f83011261232257600080fd5b813581811115612334576123346122b4565b604051601f82017fffffffffffffffffffffffffffffffffffffffffffffffffffffffffffffffe0908116603f0116810190838211818310171561237a5761237a6122b4565b8160405282815288602084870101111561239357600080fd5b8260208601602083013760006020848301015280965050505050506123ba60208401612164565b90509250929050565b600080600080600080600060c0888a0312156123de57600080fd5b8735965060208801356123f0816120d9565b95506040880135612400816120d9565b9450606088013593506080880135925060a088013567ffffffffffffffff81111561242a57600080fd5b6124368a828b0161211b565b989b979a50959850939692959293505050565b60006020828403121561245b57600080fd5b8151611e00816120d9565b8183528181602085013750600060208284010152600060207fffffffffffffffffffffffffffffffffffffffffffffffffffffffffffffffe0601f840116840101905092915050565b878152600073ffffffffffffffffffffffffffffffffffffffff808916602084015280881660408401525085606083015263ffffffff8516608083015260c060a083015261250160c083018486612466565b9998505050505050505050565b73ffffffffffffffffffffffffffffffffffffffff8616815260806020820152600061253e608083018688612466565b905083604083015263ffffffff831660608301529695505050505050565b7f4e487b7100000000000000000000000000000000000000000000000000000000600052601160045260246000fd5b6000817fffffffffffffffffffffffffffffffffffffffffffffffffffffffffffffffff04831182151516156125c3576125c361255c565b500290565b6000602082840312156125da57600080fd5b81518015158114611e0057600080fd5b600067ffffffffffffffff808316818516818304811182151516156126115761261161255c565b02949350505050565b600067ffffffffffffffff8084168061265c577f4e487b7100000000000000000000000000000000000000000000000000000000600052601260045260246000fd5b92169190910492915050565b600067ffffffffffffffff80831681851680830382111561268b5761268b61255c565b01949350505050565b600082198211156126a7576126a761255c565b500190565b7f4e487b7100000000000000000000000000000000000000000000000000000000600052600160045260246000fd5b6000828210156126ed576126ed61255c565b500390565b73ffffffffffffffffffffffffffffffffffffffff8616815284602082015267ffffffffffffffff84166040820152821515606082015260a06080820152600061273f60a083018461221d565b979650505050505050565b600073ffffffffffffffffffffffffffffffffffffffff808716835280861660208401525060806040830152612783608083018561221d565b905082606083015295945050505050565b868152600073ffffffffffffffffffffffffffffffffffffffff808816602084015280871660408401525084606083015283608083015260c060a08301526127df60c083018461221d565b9897505050505050505056fea164736f6c634300080f000a","linkReferences":{}},"methodIdentifiers":{"ENCODING_OVERHEAD()":"ddd5a40f","FLOOR_CALLDATA_OVERHEAD()":"e46e245a","MESSAGE_VERSION()":"3f827a5a","MIN_GAS_CALLDATA_OVERHEAD()":"028f85f7","MIN_GAS_DYNAMIC_OVERHEAD_DENOMINATOR()":"0c568498","MIN_GAS_DYNAMIC_OVERHEAD_NUMERATOR()":"2828d7e8","OTHER_MESSENGER()":"9fce812c","PORTAL()":"0ff754ea","RELAY_CALL_OVERHEAD()":"4c1d6a69","RELAY_CONSTANT_OVERHEAD()":"83a74074","RELAY_GAS_CHECK_BUFFER()":"5644cfdf","RELAY_RESERVED_GAS()":"8cbeeef2","TX_BASE_GAS()":"2f7d3922","baseGas(bytes,uint32)":"b28ade25","failedMessages(bytes32)":"a4e7f8bd","initVersion()":"38d38c97","initialize(address,address)":"485cc955","messageNonce()":"ecc70428","otherMessenger()":"db505d80","paused()":"5c975abb","portal()":"6425666b","proxyAdmin()":"3e47158c","proxyAdminOwner()":"dad544e0","relayMessage(uint256,address,address,uint256,uint256,bytes)":"d764ad0b","sendMessage(address,bytes,uint32)":"3dbb202b","successfulMessages(bytes32)":"b1b1b209","superchainConfig()":"35e80ab3","systemConfig()":"33d7e2bd","upgrade(address)":"0900f010","version()":"54fd4d50","xDomainMessageSender()":"6e296e45"},"storageLayout":{"storage":[{"astId":127656,"contract":"src/L1/L1CrossDomainMessenger.sol:L1CrossDomainMessenger","label":"spacer_0_0_20","offset":0,"slot":"0","type":"t_address"},{"astId":50050,"contract":"src/L1/L1CrossDomainMessenger.sol:L1CrossDomainMessenger","label":"_initialized","offset":20,"slot":"0","type":"t_uint8"},{"astId":50053,"contract":"src/L1/L1CrossDomainMessenger.sol:L1CrossDomainMessenger","label":"_initializing","offset":21,"slot":"0","type":"t_bool"},{"astId":127663,"contract":"src/L1/L1CrossDomainMessenger.sol:L1CrossDomainMessenger","label":"spacer_1_0_1600","offset":0,"slot":"1","type":"t_array(t_uint256)50_storage"},{"astId":127666,"contract":"src/L1/L1CrossDomainMessenger.sol:L1CrossDomainMessenger","label":"spacer_51_0_20","offset":0,"slot":"51","type":"t_address"},{"astId":127671,"contract":"src/L1/L1CrossDomainMessenger.sol:L1CrossDomainMessenger","label":"spacer_52_0_1568","offset":0,"slot":"52","type":"t_array(t_uint256)49_storage"},{"astId":127674,"contract":"src/L1/L1CrossDomainMessenger.sol:L1CrossDomainMessenger","label":"spacer_101_0_1","offset":0,"slot":"101","type":"t_bool"},{"astId":127679,"contract":"src/L1/L1CrossDomainMessenger.sol:L1CrossDomainMessenger","label":"spacer_102_0_1568","offset":0,"slot":"102","type":"t_array(t_uint256)49_storage"},{"astId":127682,"contract":"src/L1/L1CrossDomainMessenger.sol:L1CrossDomainMessenger","label":"spacer_151_0_32","offset":0,"slot":"151","type":"t_uint256"},{"astId":127687,"contract":"src/L1/L1CrossDomainMessenger.sol:L1CrossDomainMessenger","label":"spacer_152_0_1568","offset":0,"slot":"152","type":"t_array(t_uint256)49_storage"},{"astId":127692,"contract":"src/L1/L1CrossDomainMessenger.sol:L1CrossDomainMessenger","label":"spacer_201_0_32","offset":0,"slot":"201","type":"t_mapping(t_bytes32,t_bool)"},{"astId":127697,"contract":"src/L1/L1CrossDomainMessenger.sol:L1CrossDomainMessenger","label":"spacer_202_0_32","offset":0,"slot":"202","type":"t_mapping(t_bytes32,t_bool)"},{"astId":127754,"contract":"src/L1/L1CrossDomainMessenger.sol:L1CrossDomainMessenger","label":"successfulMessages","offset":0,"slot":"203","type":"t_mapping(t_bytes32,t_bool)"},{"astId":127757,"contract":"src/L1/L1CrossDomainMessenger.sol:L1CrossDomainMessenger","label":"xDomainMsgSender","offset":0,"slot":"204","type":"t_address"},{"astId":127760,"contract":"src/L1/L1CrossDomainMessenger.sol:L1CrossDomainMessenger","label":"msgNonce","offset":0,"slot":"205","type":"t_uint240"},{"astId":127765,"contract":"src/L1/L1CrossDomainMessenger.sol:L1CrossDomainMessenger","label":"failedMessages","offset":0,"slot":"206","type":"t_mapping(t_bytes32,t_bool)"},{"astId":127769,"contract":"src/L1/L1CrossDomainMessenger.sol:L1CrossDomainMessenger","label":"otherMessenger","offset":0,"slot":"207","type":"t_contract(CrossDomainMessenger)128257"},{"astId":127774,"contract":"src/L1/L1CrossDomainMessenger.sol:L1CrossDomainMessenger","label":"__gap","offset":0,"slot":"208","type":"t_array(t_uint256)43_storage"},{"astId":96450,"contract":"src/L1/L1CrossDomainMessenger.sol:L1CrossDomainMessenger","label":"spacer_251_0_20","offset":0,"slot":"251","type":"t_address"},{"astId":96454,"contract":"src/L1/L1CrossDomainMessenger.sol:L1CrossDomainMessenger","label":"portal","offset":0,"slot":"252","type":"t_contract(IOptimismPortal2)2082"},{"astId":96457,"contract":"src/L1/L1CrossDomainMessenger.sol:L1CrossDomainMessenger","label":"spacer_253_0_20","offset":0,"slot":"253","type":"t_address"},{"astId":96465,"contract":"src/L1/L1CrossDomainMessenger.sol:L1CrossDomainMessenger","label":"systemConfig","offset":0,"slot":"254","type":"t_contract(ISystemConfig)2870"}],"types":{"t_address":{"encoding":"inplace","label":"address","numberOfBytes":"20"},"t_array(t_uint256)43_storage":{"encoding":"inplace","label":"uint256[43]","numberOfBytes":"1376","base":"t_uint256"},"t_array(t_uint256)49_storage":{"encoding":"inplace","label":"uint256[49]","numberOfBytes":"1568","base":"t_uint256"},"t_array(t_uint256)50_storage":{"encoding":"inplace","label":"uint256[50]","numberOfBytes":"1600","base":"t_uint256"},"t_bool":{"encoding":"inplace","label":"bool","numberOfBytes":"1"},"t_bytes32":{"encoding":"inplace","label":"bytes32","numberOfBytes":"32"},"t_contract(CrossDomainMessenger)128257":{"encoding":"inplace","label":"contract CrossDomainMessenger","numberOfBytes":"20"},"t_contract(IOptimismPortal2)2082":{"encoding":"inplace","label":"contract IOptimismPortal2","numberOfBytes":"20"},"t_contract(ISystemConfig)2870":{"encoding":"inplace","label":"contract ISystemConfig","numberOfBytes":"20"},"t_mapping(t_bytes32,t_bool)":{"encoding":"mapping","key":"t_bytes32","label":"mapping(bytes32 => bool)","numberOfBytes":"32","value":"t_bool"},"t_uint240":{"encoding":"inplace","label":"uint240","numberOfBytes":"30"},"t_uint256":{"encoding":"inplace","label":"uint256","numberOfBytes":"32"},"t_uint8":{"encoding":"inplace","label":"uint8","numberOfBytes":"1"}}},"userdoc":{"version":1,"kind":"user","methods":{"ENCODING_OVERHEAD()":{"notice":"Overhead added to the internal message data when the full call to relayMessage is         ABI encoded. This is a constant value that is specific to the V1 message encoding         scheme. 260 is an upper bound, actual overhead can be as low as 228 bytes for an         empty message."},"FLOOR_CALLDATA_OVERHEAD()":{"notice":"Floor overhead per byte of non-zero calldata in a message. Calldata floor was         introduced in EIP-7623."},"MESSAGE_VERSION()":{"notice":"Current message version identifier."},"MIN_GAS_CALLDATA_OVERHEAD()":{"notice":"Extra gas added to base gas for each byte of calldata in a message."},"MIN_GAS_DYNAMIC_OVERHEAD_DENOMINATOR()":{"notice":"Denominator for dynamic overhead added to the base gas for a message."},"MIN_GAS_DYNAMIC_OVERHEAD_NUMERATOR()":{"notice":"Numerator for dynamic overhead added to the base gas for a message."},"OTHER_MESSENGER()":{"notice":"Retrieves the address of the paired CrossDomainMessenger contract on the other chain         Public getter is legacy and will be removed in the future. Use `otherMessenger()` instead."},"PORTAL()":{"notice":"Getter function for the OptimismPortal contract on this chain.         Public getter is legacy and will be removed in the future. Use `portal()` instead."},"RELAY_CALL_OVERHEAD()":{"notice":"Gas reserved for performing the external call in `relayMessage`."},"RELAY_CONSTANT_OVERHEAD()":{"notice":"Constant overhead added to the base gas for a message."},"RELAY_GAS_CHECK_BUFFER()":{"notice":"Gas reserved for the execution between the `hasMinGas` check and the external         call in `relayMessage`."},"RELAY_RESERVED_GAS()":{"notice":"Gas reserved for finalizing the execution of `relayMessage` after the safe call."},"TX_BASE_GAS()":{"notice":"Base gas required for any transaction in the EVM."},"baseGas(bytes,uint32)":{"notice":"Computes the amount of gas required to guarantee that a given message will be         received on the other chain without running out of gas. Guaranteeing that a message         will not run out of gas is important because this ensures that a message can always         be replayed on the other chain if it fails to execute completely."},"constructor":{"notice":"Constructs the L1CrossDomainMessenger contract."},"failedMessages(bytes32)":{"notice":"Mapping of message hashes to a boolean if and only if the message has failed to be         executed at least once. A message will not be present in this mapping if it         successfully executed on the first attempt."},"initVersion()":{"notice":"Getter for the current initialization version."},"initialize(address,address)":{"notice":"Initializes the contract."},"messageNonce()":{"notice":"Retrieves the next message nonce. Message version will be added to the upper two         bytes of the message nonce. Message version allows us to treat messages as having         different structures."},"otherMessenger()":{"notice":"CrossDomainMessenger contract on the other chain."},"paused()":{"notice":"This function should return true if the contract is paused.         On L1 this function will check the SuperchainConfig for its paused status.         On L2 this function should be a no-op."},"portal()":{"notice":"Contract of the OptimismPortal."},"proxyAdmin()":{"notice":"Getter for the ProxyAdmin contract that owns this Proxy contract."},"proxyAdminOwner()":{"notice":"Getter for the owner of the ProxyAdmin."},"relayMessage(uint256,address,address,uint256,uint256,bytes)":{"notice":"Relays a message that was sent by the other CrossDomainMessenger contract. Can only         be executed via cross-chain call from the other messenger OR if the message was         already received once and is currently being replayed."},"sendMessage(address,bytes,uint32)":{"notice":"Sends a message to some target address on the other chain. Note that if the call         always reverts, then the message will be unrelayable, and any ETH sent will be         permanently locked. The same will occur if the target on the other chain is         considered unsafe (see the _isUnsafeTarget() function)."},"successfulMessages(bytes32)":{"notice":"Mapping of message hashes to boolean receipt values. Note that a message will only         be present in this mapping if it has successfully been relayed on this chain, and         can therefore not be relayed again."},"superchainConfig()":{"notice":"Returns the SuperchainConfig contract."},"systemConfig()":{"notice":"Contract of the SystemConfig."},"upgrade(address)":{"notice":"Upgrades the contract to have a reference to the SystemConfig."},"version()":{"notice":"Semantic version."},"xDomainMessageSender()":{"notice":"Retrieves the address of the contract or wallet that initiated the currently         executing message on the other chain. Will throw an error if there is no message         currently being executed. Allows the recipient of a call to see who triggered it."}},"events":{"FailedRelayedMessage(bytes32)":{"notice":"Emitted whenever a message fails to be relayed on this chain."},"RelayedMessage(bytes32)":{"notice":"Emitted whenever a message is successfully relayed on this chain."},"SentMessage(address,address,bytes,uint256,uint256)":{"notice":"Emitted whenever a message is sent to the other chain."},"SentMessageExtension1(address,uint256)":{"notice":"Additional event data to emit, required as of Bedrock. Cannot be merged with the         SentMessage event without breaking the ABI of this contract, this is good enough."}},"errors":{"ProxyAdminOwnedBase_NotProxyAdmin()":[{"notice":"Thrown when the caller is not the ProxyAdmin."}],"ProxyAdminOwnedBase_NotProxyAdminOrProxyAdminOwner()":[{"notice":"Thrown when the caller is not the ProxyAdmin owner or the ProxyAdmin."}],"ProxyAdminOwnedBase_NotProxyAdminOwner()":[{"notice":"Thrown when the caller is not the ProxyAdmin owner."}],"ProxyAdminOwnedBase_NotResolvedDelegateProxy()":[{"notice":"Thrown when the current contract is not a ResolvedDelegateProxy."}],"ProxyAdminOwnedBase_NotSharedProxyAdminOwner()":[{"notice":"Thrown when the ProxyAdmin owner of the current contract is not the same as the         ProxyAdmin owner of the other Proxy address provided."}],"ProxyAdminOwnedBase_ProxyAdminNotFound()":[{"notice":"Thrown when the ProxyAdmin owner of the current contract is not found."}],"ReinitializableBase_ZeroInitVersion()":[{"notice":"Thrown when the initialization version is zero."}]},"notice":"The L1CrossDomainMessenger is a message passing interface between L1 and L2 responsible         for sending and receiving data on the L1 side. Users are encouraged to use this         interface instead of interacting with lower-level contracts directly."},"devdoc":{"version":1,"kind":"dev","methods":{"OTHER_MESSENGER()":{"returns":{"_0":"CrossDomainMessenger contract on the other chain."}},"PORTAL()":{"returns":{"_0":"Contract of the OptimismPortal on this chain."}},"baseGas(bytes,uint32)":{"params":{"_message":"Message to compute the amount of required gas for.","_minGasLimit":"Minimum desired gas limit when message goes to target."},"returns":{"_0":"Amount of gas required to guarantee message receipt."}},"initVersion()":{"returns":{"_0":"The current initialization version."}},"initialize(address,address)":{"params":{"_portal":"Contract of the OptimismPortal contract on this network.","_systemConfig":"Contract of the SystemConfig contract on this network."}},"messageNonce()":{"returns":{"_0":"Nonce of the next message to be sent, with added message version."}},"paused()":{"returns":{"_0":"Whether or not the contract is paused."}},"relayMessage(uint256,address,address,uint256,uint256,bytes)":{"params":{"_message":"Message to send to the target.","_minGasLimit":"Minimum amount of gas that the message can be executed with.","_nonce":"Nonce of the message being relayed.","_sender":"Address of the user who sent the message.","_target":"Address that the message is targeted at.","_value":"ETH value to send with the message."}},"sendMessage(address,bytes,uint32)":{"params":{"_message":"Message to trigger the target address with.","_minGasLimit":"Minimum gas limit that the message can be executed with.","_target":"Target contract or wallet address."}},"superchainConfig()":{"returns":{"_0":"ISuperchainConfig The SuperchainConfig contract."}},"upgrade(address)":{"params":{"_systemConfig":"The new SystemConfig contract."}},"xDomainMessageSender()":{"returns":{"_0":"Address of the sender of the currently executing message on the other chain."}}},"title":"L1CrossDomainMessenger"},"id":222}