{"abi":[{"type":"function","name":"calculateChecksum","inputs":[{"name":"_id","type":"tuple","internalType":"struct Identifier","components":[{"name":"origin","type":"address","internalType":"address"},{"name":"blockNumber","type":"uint256","internalType":"uint256"},{"name":"logIndex","type":"uint256","internalType":"uint256"},{"name":"timestamp","type":"uint256","internalType":"uint256"},{"name":"chainId","type":"uint256","internalType":"uint256"}]},{"name":"_msgHash","type":"bytes32","internalType":"bytes32"}],"outputs":[{"name":"checksum_","type":"bytes32","internalType":"bytes32"}],"stateMutability":"pure"},{"type":"function","name":"validateMessage","inputs":[{"name":"_id","type":"tuple","internalType":"struct Identifier","components":[{"name":"origin","type":"address","internalType":"address"},{"name":"blockNumber","type":"uint256","internalType":"uint256"},{"name":"logIndex","type":"uint256","internalType":"uint256"},{"name":"timestamp","type":"uint256","internalType":"uint256"},{"name":"chainId","type":"uint256","internalType":"uint256"}]},{"name":"_msgHash","type":"bytes32","internalType":"bytes32"}],"outputs":[],"stateMutability":"nonpayable"},{"type":"function","name":"version","inputs":[],"outputs":[{"name":"","type":"string","internalType":"string"}],"stateMutability":"view"},{"type":"event","name":"ExecutingMessage","inputs":[{"name":"msgHash","type":"bytes32","indexed":true,"internalType":"bytes32"},{"name":"id","type":"tuple","indexed":false,"internalType":"struct Identifier","components":[{"name":"origin","type":"address","internalType":"address"},{"name":"blockNumber","type":"uint256","internalType":"uint256"},{"name":"logIndex","type":"uint256","internalType":"uint256"},{"name":"timestamp","type":"uint256","internalType":"uint256"},{"name":"chainId","type":"uint256","internalType":"uint256"}]}],"anonymous":false},{"type":"error","name":"BlockNumberTooHigh","inputs":[]},{"type":"error","name":"LogIndexTooHigh","inputs":[]},{"type":"error","name":"NotInAccessList","inputs":[]},{"type":"error","name":"TimestampTooHigh","inputs":[]}],"bytecode":{"object":"0x6080604052348015600e575f80fd5b506106828061001c5f395ff3fe608060405234801561000f575f80fd5b506004361061003f575f3560e01c8063331b637f1461004357806354fd4d5014610069578063ab4d6f75146100b2575b5f80fd5b610056610051366004610512565b6100c7565b6040519081526020015b60405180910390f35b6100a56040518060400160405280600581526020017f312e302e3200000000000000000000000000000000000000000000000000000081525081565b604051610060919061053b565b6100c56100c036600461058e565b61039e565b005b5f67ffffffffffffffff801683602001511115610110576040517fd1f79e8200000000000000000000000000000000000000000000000000000000815260040160405180910390fd5b604083015163ffffffff1015610152576040517f94338eba00000000000000000000000000000000000000000000000000000000815260040160405180910390fd5b606083015167ffffffffffffffff1015610198576040517f596a19a900000000000000000000000000000000000000000000000000000000815260040160405180910390fd5b82516040515f916101dd91859060200160609290921b7fffffffffffffffffffffffffffffffffffffffff000000000000000000000000168252601482015260340190565b604080518083037fffffffffffffffffffffffffffffffffffffffffffffffffffffffffffffffe00181528282528051602091820120878201516060890151898501515f9487018590527fffffffffffffffff00000000000000000000000000000000000000000000000060c084811b8216602c8a015283901b1660348801527fffffffff0000000000000000000000000000000000000000000000000000000060e082901b16603c88015292965090949093919291016040516020818303038152906040526102ac906105bc565b90505f85826040516020016102cb929190918252602082015260400190565b604080517fffffffffffffffffffffffffffffffffffffffffffffffffffffffffffffffe0818403018152828252805160209182012060808d01519184018190529183015291505f90606001604080517fffffffffffffffffffffffffffffffffffffffffffffffffffffffffffffffe081840301815291905280516020909101207effffffffffffffffffffffffffffffffffffffffffffffffffffffffffffff167f0300000000000000000000000000000000000000000000000000000000000000179a9950505050505050505050565b5f6103b76103b136859003850185610601565b836100c7565b90505f6103c38261043b565b509050806103fd576040517fe3c0081600000000000000000000000000000000000000000000000000000000815260040160405180910390fd5b827f5c37832d2e8d10e346e55ad62071a6a2f9fa5130614ef2ec6617555c6f467ba78560405161042d9190610622565b60405180910390a250505050565b5f805a835491505a6103e891031115939092509050565b803573ffffffffffffffffffffffffffffffffffffffff81168114610475575f80fd5b919050565b5f60a0828403121561048a575f80fd5b60405160a0810181811067ffffffffffffffff821117156104d2577f4e487b71000000000000000000000000000000000000000000000000000000005f52604160045260245ffd5b6040529050806104e183610452565b8152602083013560208201526040830135604082015260608301356060820152608083013560808201525092915050565b5f8060c08385031215610523575f80fd5b61052d848461047a565b9460a0939093013593505050565b602081525f82518060208401528060208501604085015e5f6040828501015260407fffffffffffffffffffffffffffffffffffffffffffffffffffffffffffffffe0601f83011684010191505092915050565b5f8082840360c08112156105a0575f80fd5b60a08112156105ad575f80fd5b50919360a08501359350915050565b805160208083015191908110156105fb577fffffffffffffffffffffffffffffffffffffffffffffffffffffffffffffffff8160200360031b1b821691505b50919050565b5f60a08284031215610611575f80fd5b61061b838361047a565b9392505050565b60a0810173ffffffffffffffffffffffffffffffffffffffff61064484610452565b168252602083013560208301526040830135604083015260608301356060830152608083013560808301529291505056fea164736f6c6343000819000a","linkReferences":{}},"methodIdentifiers":{"calculateChecksum((address,uint256,uint256,uint256,uint256),bytes32)":"331b637f","validateMessage((address,uint256,uint256,uint256,uint256),bytes32)":"ab4d6f75","version()":"54fd4d50"},"storageLayout":{"storage":[],"types":{}},"userdoc":{"version":1,"kind":"user","methods":{"calculateChecksum((address,uint256,uint256,uint256,uint256),bytes32)":{"notice":"Calculates a custom checksum for a cross chain message `Identifier` and `msgHash`."},"validateMessage((address,uint256,uint256,uint256,uint256),bytes32)":{"notice":"Validates a cross chain message on the destination chain and emits an ExecutingMessage         event. This function is useful for applications that understand the schema of the         message payload and want to process it in a custom way."},"version()":{"notice":"Semantic version."}},"events":{"ExecutingMessage(bytes32,(address,uint256,uint256,uint256,uint256))":{"notice":"Emitted when a cross chain message is being executed."}},"errors":{"BlockNumberTooHigh()":[{"notice":"Thrown when trying to validate a cross chain message with a block number         that is greater than 2^64."}],"LogIndexTooHigh()":[{"notice":"Thrown when trying to validate a cross chain message with a log index         that is greater than 2^32."}],"NotInAccessList()":[{"notice":"Thrown when trying to validate a cross chain message with a checksum         that is invalid or was not provided in the transaction's access list to set the slot         as warm."}],"TimestampTooHigh()":[{"notice":"Thrown when trying to validate a cross chain message with a timestamp         that is greater than 2^64."}]},"notice":"The CrossL2Inbox is responsible for executing a cross chain message on the destination         chain. It is permissionless to execute a cross chain message on behalf of any user."},"devdoc":{"version":1,"kind":"dev","details":"Processes cross-chain messages that are pre-declared in EIP-2930 access lists. Each message      requires three specific access-list entries to be valid. It will verify that the storage      slot containing the message checksum is \"warm\" (pre-accessed), which fails if not included      in the tx's access list. Nodes pre-check message validity before execution. The checksum      combines the message's `Identifier` and `msgHash` with type-3 bit masking.","methods":{"calculateChecksum((address,uint256,uint256,uint256,uint256),bytes32)":{"params":{"_id":"The identifier of the message.","_msgHash":"The hash of the message."},"returns":{"checksum_":"The checksum of the message."}},"validateMessage((address,uint256,uint256,uint256,uint256),bytes32)":{"details":"Makes sure the checksum's slot is warm to ensure the tx included it in the access list.`Identifier.blockNumber` and `Identifier.timestamp` must be less than 2^64, whereas         `Identifier.logIndex` must be less than 2^32 to properly fit into the checksum.","params":{"_id":"Identifier of the message.","_msgHash":"Hash of the message payload to call target with."}}},"events":{"ExecutingMessage(bytes32,(address,uint256,uint256,uint256,uint256))":{"params":{"id":"Encoded Identifier of the message.","msgHash":"Hash of message payload being executed."}}},"title":"CrossL2Inbox"},"id":147}