{"abi":[{"type":"fallback","stateMutability":"payable"},{"type":"receive","stateMutability":"payable"},{"type":"function","name":"allowance","inputs":[{"name":"owner","type":"address","internalType":"address"},{"name":"spender","type":"address","internalType":"address"}],"outputs":[{"name":"","type":"uint256","internalType":"uint256"}],"stateMutability":"view"},{"type":"function","name":"approve","inputs":[{"name":"guy","type":"address","internalType":"address"},{"name":"wad","type":"uint256","internalType":"uint256"}],"outputs":[{"name":"","type":"bool","internalType":"bool"}],"stateMutability":"nonpayable"},{"type":"function","name":"balanceOf","inputs":[{"name":"src","type":"address","internalType":"address"}],"outputs":[{"name":"","type":"uint256","internalType":"uint256"}],"stateMutability":"view"},{"type":"function","name":"decimals","inputs":[],"outputs":[{"name":"","type":"uint8","internalType":"uint8"}],"stateMutability":"view"},{"type":"function","name":"deposit","inputs":[],"outputs":[],"stateMutability":"payable"},{"type":"function","name":"name","inputs":[],"outputs":[{"name":"name_","type":"string","internalType":"string"}],"stateMutability":"pure"},{"type":"function","name":"symbol","inputs":[],"outputs":[{"name":"symbol_","type":"string","internalType":"string"}],"stateMutability":"pure"},{"type":"function","name":"totalSupply","inputs":[],"outputs":[{"name":"","type":"uint256","internalType":"uint256"}],"stateMutability":"view"},{"type":"function","name":"transfer","inputs":[{"name":"dst","type":"address","internalType":"address"},{"name":"wad","type":"uint256","internalType":"uint256"}],"outputs":[{"name":"","type":"bool","internalType":"bool"}],"stateMutability":"nonpayable"},{"type":"function","name":"transferFrom","inputs":[{"name":"src","type":"address","internalType":"address"},{"name":"dst","type":"address","internalType":"address"},{"name":"wad","type":"uint256","internalType":"uint256"}],"outputs":[{"name":"","type":"bool","internalType":"bool"}],"stateMutability":"nonpayable"},{"type":"function","name":"version","inputs":[],"outputs":[{"name":"","type":"string","internalType":"string"}],"stateMutability":"view"},{"type":"function","name":"withdraw","inputs":[{"name":"wad","type":"uint256","internalType":"uint256"}],"outputs":[],"stateMutability":"nonpayable"},{"type":"event","name":"Approval","inputs":[{"name":"src","type":"address","indexed":true,"internalType":"address"},{"name":"guy","type":"address","indexed":true,"internalType":"address"},{"name":"wad","type":"uint256","indexed":false,"internalType":"uint256"}],"anonymous":false},{"type":"event","name":"Deposit","inputs":[{"name":"dst","type":"address","indexed":true,"internalType":"address"},{"name":"wad","type":"uint256","indexed":false,"internalType":"uint256"}],"anonymous":false},{"type":"event","name":"Transfer","inputs":[{"name":"src","type":"address","indexed":true,"internalType":"address"},{"name":"dst","type":"address","indexed":true,"internalType":"address"},{"name":"wad","type":"uint256","indexed":false,"internalType":"uint256"}],"anonymous":false},{"type":"event","name":"Withdrawal","inputs":[{"name":"src","type":"address","indexed":true,"internalType":"address"},{"name":"wad","type":"uint256","indexed":false,"internalType":"uint256"}],"anonymous":false}],"bytecode":{"object":"0x608060405234801561001057600080fd5b50610b1e806100206000396000f3fe6080604052600436106100cb5760003560e01c806354fd4d5011610074578063a9059cbb1161004e578063a9059cbb14610262578063d0e30db0146100da578063dd62ed3e14610282576100da565b806354fd4d50146101c157806370a082311461020a57806395d89b411461024d576100da565b806323b872dd116100a557806323b872dd1461015a5780632e1a7d4d1461017a578063313ce5671461019a576100da565b806306fdde03146100e2578063095ea7b31461010d57806318160ddd1461013d576100da565b366100da576100d86102d5565b005b6100d86102d5565b3480156100ee57600080fd5b506100f7610330565b60405161010491906107e8565b60405180910390f35b34801561011957600080fd5b5061012d610128366004610862565b6103fb565b6040519015158152602001610104565b34801561014957600080fd5b50475b604051908152602001610104565b34801561016657600080fd5b5061012d61017536600461088c565b610474565b34801561018657600080fd5b506100d86101953660046108c8565b610647565b3480156101a657600080fd5b506101af601281565b60405160ff9091168152602001610104565b3480156101cd57600080fd5b506100f76040518060400160405280600581526020017f312e312e3100000000000000000000000000000000000000000000000000000081525081565b34801561021657600080fd5b5061014c6102253660046108e1565b73ffffffffffffffffffffffffffffffffffffffff1660009081526020819052604090205490565b34801561025957600080fd5b506100f76106ed565b34801561026e57600080fd5b5061012d61027d366004610862565b6107a4565b34801561028e57600080fd5b5061014c61029d3660046108fc565b73ffffffffffffffffffffffffffffffffffffffff918216600090815260016020908152604080832093909416825291909152205490565b33600090815260208190526040812080543492906102f490849061095e565b909155505060405134815233907fe1fffcc4923d04b559f4d29a8bfc6cda04eb5b0d3c460751c2402c5c5cc9109c9060200160405180910390a2565b606073420000000000000000000000000000000000001573ffffffffffffffffffffffffffffffffffffffff1663d84447156040518163ffffffff1660e01b8152600401600060405180830381865afa158015610391573d6000803e3d6000fd5b505050506040513d6000823e601f3d9081017fffffffffffffffffffffffffffffffffffffffffffffffffffffffffffffffe01682016040526103d791908101906109a5565b6040516020016103e79190610a70565b604051602081830303815290604052905090565b33600081815260016020908152604080832073ffffffffffffffffffffffffffffffffffffffff8716808552925280832085905551919290917f8c5be1e5ebec7d5bd14f71427d1e84f3dd0314c0f7b2291e5b200ac8c7c3b925906104639086815260200190565b60405180910390a350600192915050565b73ffffffffffffffffffffffffffffffffffffffff83166000908152602081905260408120548211156104a657600080fd5b73ffffffffffffffffffffffffffffffffffffffff8416600081815260016020908152604080832033808552925290912054911480159061050757507fffffffffffffffffffffffffffffffffffffffffffffffffffffffffffffffff8114155b1561055f578281101561051957600080fd5b73ffffffffffffffffffffffffffffffffffffffff8516600090815260016020908152604080832033845290915281208054859290610559908490610ab5565b90915550505b73ffffffffffffffffffffffffffffffffffffffff851660009081526020819052604081208054859290610594908490610ab5565b909155505073ffffffffffffffffffffffffffffffffffffffff8416600090815260208190526040812080548592906105ce90849061095e565b925050819055508373ffffffffffffffffffffffffffffffffffffffff168573ffffffffffffffffffffffffffffffffffffffff167fddf252ad1be2c89b69c2b068fc378daa952ba7f163c4a11628f55a4df523b3ef8560405161063491815260200190565b60405180910390a3506001949350505050565b3360009081526020819052604090205481111561066357600080fd5b3360009081526020819052604081208054839290610682908490610ab5565b9091555050604051339082156108fc029083906000818181858888f193505050501580156106b4573d6000803e3d6000fd5b5060405181815233907f7fcf532c15f0a6db0bd6d0e038bea71d30d808c7d98cb3bf7268a95bf5081b659060200160405180910390a250565b606073420000000000000000000000000000000000001573ffffffffffffffffffffffffffffffffffffffff1663550fcdc96040518163ffffffff1660e01b8152600401600060405180830381865afa15801561074e573d6000803e3d6000fd5b505050506040513d6000823e601f3d9081017fffffffffffffffffffffffffffffffffffffffffffffffffffffffffffffffe016820160405261079491908101906109a5565b6040516020016103e79190610acc565b60006107b1338484610474565b9392505050565b60005b838110156107d35781810151838201526020016107bb565b838111156107e2576000848401525b50505050565b60208152600082518060208401526108078160408501602087016107b8565b601f017fffffffffffffffffffffffffffffffffffffffffffffffffffffffffffffffe0169190910160400192915050565b803573ffffffffffffffffffffffffffffffffffffffff8116811461085d57600080fd5b919050565b6000806040838503121561087557600080fd5b61087e83610839565b946020939093013593505050565b6000806000606084860312156108a157600080fd5b6108aa84610839565b92506108b860208501610839565b9150604084013590509250925092565b6000602082840312156108da57600080fd5b5035919050565b6000602082840312156108f357600080fd5b6107b182610839565b6000806040838503121561090f57600080fd5b61091883610839565b915061092660208401610839565b90509250929050565b7f4e487b7100000000000000000000000000000000000000000000000000000000600052601160045260246000fd5b600082198211156109715761097161092f565b500190565b7f4e487b7100000000000000000000000000000000000000000000000000000000600052604160045260246000fd5b6000602082840312156109b757600080fd5b815167ffffffffffffffff808211156109cf57600080fd5b818401915084601f8301126109e357600080fd5b8151818111156109f5576109f5610976565b604051601f82017fffffffffffffffffffffffffffffffffffffffffffffffffffffffffffffffe0908116603f01168101908382118183101715610a3b57610a3b610976565b81604052828152876020848701011115610a5457600080fd5b610a658360208301602088016107b8565b979650505050505050565b7f5772617070656420000000000000000000000000000000000000000000000000815260008251610aa88160088501602087016107b8565b9190910160080192915050565b600082821015610ac757610ac761092f565b500390565b7f5700000000000000000000000000000000000000000000000000000000000000815260008251610b048160018501602087016107b8565b919091016001019291505056fea164736f6c634300080f000a","linkReferences":{}},"methodIdentifiers":{"allowance(address,address)":"dd62ed3e","approve(address,uint256)":"095ea7b3","balanceOf(address)":"70a08231","decimals()":"313ce567","deposit()":"d0e30db0","name()":"06fdde03","symbol()":"95d89b41","totalSupply()":"18160ddd","transfer(address,uint256)":"a9059cbb","transferFrom(address,address,uint256)":"23b872dd","version()":"54fd4d50","withdraw(uint256)":"2e1a7d4d"},"storageLayout":{"storage":[{"astId":130663,"contract":"src/L2/WETH.sol:WETH","label":"_balanceOf","offset":0,"slot":"0","type":"t_mapping(t_address,t_uint256)"},{"astId":130669,"contract":"src/L2/WETH.sol:WETH","label":"_allowance","offset":0,"slot":"1","type":"t_mapping(t_address,t_mapping(t_address,t_uint256))"}],"types":{"t_address":{"encoding":"inplace","label":"address","numberOfBytes":"20"},"t_mapping(t_address,t_mapping(t_address,t_uint256))":{"encoding":"mapping","key":"t_address","label":"mapping(address => mapping(address => uint256))","numberOfBytes":"32","value":"t_mapping(t_address,t_uint256)"},"t_mapping(t_address,t_uint256)":{"encoding":"mapping","key":"t_address","label":"mapping(address => uint256)","numberOfBytes":"32","value":"t_uint256"},"t_uint256":{"encoding":"inplace","label":"uint256","numberOfBytes":"32"}}},"userdoc":{"version":1,"kind":"user","methods":{"allowance(address,address)":{"notice":"Returns the amount of WETH that the spender can transfer on behalf of the owner."},"approve(address,uint256)":{"notice":"Approves the given address to transfer the WETH on behalf of the caller."},"balanceOf(address)":{"notice":"Returns the balance of the given address."},"decimals()":{"notice":"Returns the number of decimals the token uses."},"deposit()":{"notice":"Allows WETH to be deposited by sending ether to the contract."},"name()":{"notice":"Returns the name of the wrapped native asset. Will be \"Wrapped Ether\"         if the native asset is Ether."},"symbol()":{"notice":"Returns the symbol of the wrapped native asset. Will be \"WETH\" if the         native asset is Ether."},"totalSupply()":{"notice":"Returns the total supply of WETH."},"transfer(address,uint256)":{"notice":"Transfers the given amount of WETH to the given address."},"transferFrom(address,address,uint256)":{"notice":"Transfers the given amount of WETH from the given address to the given address."},"withdraw(uint256)":{"notice":"Withdraws an amount of ETH."}},"events":{"Approval(address,address,uint256)":{"notice":"Emitted when an approval is made."},"Deposit(address,uint256)":{"notice":"Emitted when a deposit is made."},"Transfer(address,address,uint256)":{"notice":"Emitted when a transfer is made."},"Withdrawal(address,uint256)":{"notice":"Emitted when a withdrawal is made."}}},"devdoc":{"version":1,"kind":"dev","methods":{"allowance(address,address)":{"params":{"owner":"The address that owns the WETH.","spender":"The address that is approved to transfer the WETH."},"returns":{"_0":"The amount of WETH that the spender can transfer on behalf of the owner."}},"approve(address,uint256)":{"params":{"guy":"The address that is approved to transfer the WETH.","wad":"The amount that is approved to transfer."},"returns":{"_0":"True if the approval was successful."}},"balanceOf(address)":{"params":{"src":"The address to query the balance of."},"returns":{"_0":"The balance of the given address."}},"totalSupply()":{"returns":{"_0":"The total supply of WETH."}},"transfer(address,uint256)":{"params":{"dst":"The address to transfer the WETH to.","wad":"The amount of WETH to transfer."},"returns":{"_0":"True if the transfer was successful."}},"transferFrom(address,address,uint256)":{"params":{"dst":"The address to transfer the WETH to.","src":"The address to transfer the WETH from.","wad":"The amount of WETH to transfer."},"returns":{"_0":"True if the transfer was successful."}},"withdraw(uint256)":{"params":{"wad":"The amount of ETH to withdraw."}}},"title":"WETH contract that reads the name and symbol from the L1Block contract.        Allows for nice rendering of token names for chains using custom gas token.        This contract is not proxied and contains calls to the custom gas token methods."},"id":251}