{"abi":[{"type":"function","name":"emitLog","inputs":[{"name":"_topics","type":"bytes32[]","internalType":"bytes32[]"},{"name":"_data","type":"bytes","internalType":"bytes"}],"outputs":[],"stateMutability":"nonpayable"},{"type":"function","name":"validateMessage","inputs":[{"name":"_id","type":"tuple","internalType":"struct Identifier","components":[{"name":"origin","type":"address","internalType":"address"},{"name":"blockNumber","type":"uint256","internalType":"uint256"},{"name":"logIndex","type":"uint256","internalType":"uint256"},{"name":"timestamp","type":"uint256","internalType":"uint256"},{"name":"chainId","type":"uint256","internalType":"uint256"}]},{"name":"_msgHash","type":"bytes32","internalType":"bytes32"}],"outputs":[],"stateMutability":"nonpayable"}],"bytecode":{"object":"0x6080604052348015600e575f80fd5b506102b68061001c5f395ff3fe608060405234801561000f575f80fd5b5060043610610034575f3560e01c8063ab4d6f7514610038578063edebc13b1461004d575b5f80fd5b61004b610046366004610164565b610060565b005b61004b61005b366004610192565b6100e3565b6040517fab4d6f750000000000000000000000000000000000000000000000000000000081527342000000000000000000000000000000000000229063ab4d6f75906100b2908590859060040161024c565b5f604051808303815f87803b1580156100c9575f80fd5b505af11580156100db573d5f803e3d5ffd5b505050505050565b80604051818482378486356020880135604089013560608a0135848015610128576001811461013057600281146101395760038114610143576004811461014e575f80fd5b8787a0610156565b848888a1610156565b83858989a2610156565b8284868a8aa3610156565b818385878b8ba45b505050505050505050505050565b5f8082840360c0811215610176575f80fd5b60a0811215610183575f80fd5b50919360a08501359350915050565b5f805f80604085870312156101a5575f80fd5b843567ffffffffffffffff808211156101bc575f80fd5b818701915087601f8301126101cf575f80fd5b8135818111156101dd575f80fd5b8860208260051b85010111156101f1575f80fd5b60209283019650945090860135908082111561020b575f80fd5b818701915087601f83011261021e575f80fd5b81358181111561022c575f80fd5b88602082850101111561023d575f80fd5b95989497505060200194505050565b60c08101833573ffffffffffffffffffffffffffffffffffffffff8116808214610274575f80fd5b8352506020848101359083015260408085013590830152606080850135908301526080938401359382019390935260a001529056fea164736f6c6343000819000a","linkReferences":{}},"methodIdentifiers":{"emitLog(bytes32[],bytes)":"edebc13b","validateMessage((address,uint256,uint256,uint256,uint256),bytes32)":"ab4d6f75"},"storageLayout":{"storage":[],"types":{}},"userdoc":{"version":1,"kind":"user","methods":{"emitLog(bytes32[],bytes)":{"notice":"Emits an event log with the given number of topics and the given data."},"validateMessage((address,uint256,uint256,uint256,uint256),bytes32)":{"notice":"Validates a cross chain message using the CrossL2Inbox predeploy. This emits an executing message."}},"notice":"EventLogger is a util contract to emit log events, primarily for integration testing."},"devdoc":{"version":1,"kind":"dev","methods":{"emitLog(bytes32[],bytes)":{"params":{"_data":"Data to emit. As much as gas allows to emit. Also known as unindexed event data.","_topics":"List of topics to emit. Can be 0 to 4 (incl.) entries. Also known as indexed event data."}},"validateMessage((address,uint256,uint256,uint256,uint256),bytes32)":{"params":{"_id":"Identifier of the message.","_msgHash":"Hash of the message payload to call target with."}}},"title":"EventLogger"},"id":163}