{"abi":[{"type":"constructor","inputs":[{"name":"_oracle","type":"address","internalType":"contract IPreimageOracle"}],"stateMutability":"nonpayable"},{"type":"function","name":"oracle","inputs":[],"outputs":[{"name":"","type":"address","internalType":"contract IPreimageOracle"}],"stateMutability":"view"},{"type":"function","name":"step","inputs":[{"name":"_stateData","type":"bytes","internalType":"bytes"},{"name":"_proof","type":"bytes","internalType":"bytes"},{"name":"_localContext","type":"bytes32","internalType":"bytes32"}],"outputs":[{"name":"","type":"bytes32","internalType":"bytes32"}],"stateMutability":"nonpayable"},{"type":"function","name":"version","inputs":[],"outputs":[{"name":"","type":"string","internalType":"string"}],"stateMutability":"view"}],"bytecode":{"object":"0x6080604052348015600e575f80fd5b506040516122b83803806122b8833981016040819052602b91604e565b5f80546001600160a01b0319166001600160a01b03929092169190911790556079565b5f60208284031215605d575f80fd5b81516001600160a01b03811681146072575f80fd5b9392505050565b612232806100865f395ff3fe608060405234801561000f575f80fd5b506004361061003f575f3560e01c806354fd4d50146100435780637dc0d1d014610095578063e14ced32146100d9575b5f80fd5b61007f6040518060400160405280600a81526020017f312e322e302d72632e310000000000000000000000000000000000000000000081525081565b60405161008c9190612126565b60405180910390f35b5f546100b49073ffffffffffffffffffffffffffffffffffffffff1681565b60405173ffffffffffffffffffffffffffffffffffffffff909116815260200161008c565b6100ec6100e73660046121b7565b6100fa565b60405190815260200161008c565b5f610329565b805f5260205ffd5b5f67ffffffffffffffff61011a565b90565b909116919050565b5f61013c601f61013763ffffffff5b856102c0565b610158565b92915050565b5f600160405b1b905090565b5f6001603f610148565b5f6001831b8216801561017b5767ffffffffffffffff841c841b83179150610194565b61019167ffffffffffffffff85603f031c841690565b91505b5092915050565b5f6101a461014e565b821680156101d6577fffffffffffffffffffffffffffffffffffffffffffffffff0000000000000000831791506101da565b8291505b50919050565b5f6101f36101ec610142565b8484010690565b9392505050565b5f6101f3610206610142565b8484030690565b5f6101f3838302610108565b5f6101f3838304610108565b5f6101f36102328461019b565b61023b8461019b565b05610108565b5f8282066101f3565b5f6101f36102578461019b565b6102608461019b565b07610108565b5f61013c8219610108565b5f8282106101f3565b5f8282116101f3565b5f6101f36102908461019b565b6102998461019b565b1290565b5f6101f36102aa8461019b565b6102b38461019b565b1390565b5f8183146101f3565b5f8183166101f3565b5f8183176101f3565b5f8183186101f3565b5f6101f383831b610108565b5f82821c6101f3565b5f6101f36102fd8461019b565b831d610108565b60208110156101da5760ff83168260081b1791508260081c9250600181019050610304565b608060405114610337575f80fd5b60848614610343575f80fd5b61016a602087033514610354575f80fd5b6101a086018414610363575f80fd5b6102248414610370575f80fd5b610780610204350615610381575f80fd5b6101ea60405261016a86608037611311565b5f61039f601f8361027a565b156103b0576103b062bad4e9610100565b6103ca6103be60088461020d565b606a6101e0565b6101e0565b608081015160c01c6101f3565b806103e0575050565b6103ec601f5b8261027a565b156103fd576103fd62bad4e9610100565b61040b6103be60088361020d565b60808101805177ffffffffffffffffffffffffffffffffffffffffffffffff1660c085901b179052505050565b505050565b5f61044a60d15160f81c90565b6001811461045a57600391505090565b60d05160f81c8015610477576001811461047f5760029250505090565b5f9250505090565b60019250505090565b61016a6080a061016a60802061049c61043d565b60f81b7effffffffffffffffffffffffffffffffffffffffffffffffffffffffffffff919091161790565b5f61013c600b6101378460146102e7565b6102e7565b5f61013c600b6101376104fb601f6104f68760076102e7565b6102c0565b6105156105098760196102e7565b60056102db565b6102db565b6102c9565b5f61013c600c61013761055561053b61053487601f6102e7565b600c6102db565b61051561054e60016104f68a60076102e7565b600b6102db565b61051561056b610509603f6104f68a60196102e7565b61051561057e600f6104f68b60086102e7565b60016102db565b5f61013c601361013784600c6102e7565b5f61013c60136101376105ca6105b76105b087601f6102e7565b60136102db565b61051561054e60ff6104f68a600c6102e7565b6105156105e76105e060016104f68a60146102e7565b600a6102db565b6105156103ff6104f68a60156102e7565b5f61013c607f5b836102c0565b5f61013c601f6104f68460076102e7565b5f61013c60076104f684600c6102e7565b5f61013c601f6104f684600f6102e7565b5f61013c601f6104f68460146102e7565b5f61013c8260196102e7565b5f61066b6020610666603c8561020d565b61020d565b905061013c6102245b826101e0565b5f610685601f6105ff565b156106975761069763bad10ad0610100565b6106a083610655565b80356106ae60205b836101e0565b91506106bb8460056102e7565b815f5b603b8110156107265784356106d46020876101e0565b95506106e560016104f686856102e7565b80156106f8576001811461070c5761071c565b5f848152602083905260409020935061071c565b5f82815260208590526040902093505b50506001016106be565b5060805193508381146107405761074063badf00d1610100565b509095945050505050565b610757601f5b826102c0565b156107695761076963bad10ad0610100565b61077283610655565b8261077d60206106a8565b915061078a8360056102e7565b5f5b603b8110156107f45783356107a26020866101e0565b94506107b360016104f685856102e7565b80156107c657600181146107da576107ea565b5f85815260208390526040902094506107ea565b5f82815260208690526040902094505b505060010161078c565b50506107ff81608052565b5050505050565b5f600883111561081d5761081d63bad512e0610100565b61082f6105ff601f610266565b610266565b61083c610117878361067a565b61084682856101fa565b5f610868610854601f610266565b6104f661086260018b6101fa565b896101e0565b61087a8861087585602082565b6101fa565b5f61088c61088884896102b7565b1590565b156108c85760ff8d036108a6576108a663bad22220610100565b6108b36101178e8561067a565b93505f91506108c58a61087587604082565b90505b889450899250856108dd6101178460036102db565b1c9550836108ef6101178360036102db565b1c935050505f5b8181101561097c5761091e61090b601f610266565b6104f6836108756001610875888b6101e0565b5f61092988836102b7565b6001811461093c57801561094c57610958565b600888901c9760ff169150610958565b600886901c9560ff1691505b5061097061096582610108565b6105158b60086102db565b985050506001016108f6565b5088156109a25761099360016108758360036102db565b945061099f8587610158565b95505b505050505095945050505050565b5f805f80846109bf87876101e0565b5f5b6040811015610a8557806109d6602082610271565b80600181146109ea5780156109fb57610a08565b8760081b97508960081b9950610a08565b8660081b96508860081b98505b50610a29610a168584610271565b6104f65f610a248987610271565b6102b7565b15610a7b5760ff8c610a48610117610a418e876101fa565b60036102db565b1c168160018114610a5e578015610a6d57610a78565b9781179760ff8b179a50610a78565b9681179660ff8a1799505b50505b50506001016109c1565b50505093509350935093565b6020821115610aa757610aa763bad512e1610100565b610ab4610751601f610266565b610ad5610ac1601f610266565b6104f6610acf6001876101fa565b856101e0565b610adf82846101fa565b610aea8686836109b0565b9350610af96101178b8861067a565b8319168117610b098b828961074b565b5050610b1584866102b7565b15610b265750505050505050505050565b60ff8a03610b3b57610b3b63bad22221610100565b610b486101178b8661067a565b9019169091179250610b63905087610b5d8490565b8361074b565b50505050505050565b6008821115610b8257610b8263bad512e8610100565b6107ff8585858585610a91565b5f610b9a601f6105ff565b610ba58160206101fa565b610baf818661027a565b15610bb8578094505b50610bd06101176001610bcb84876101fa565b61067a565b80610bdf6101178460036102db565b1b905080610bf4610117610a418860206101fa565b1c90508460031b9150610c0660a05190565b821b8117610c138160a052565b505050610c47610c205f90565b60c0805177ffffffffffffffffffffffffffffffffffffffffffffffff1682821b17905250565b5090919050565b5f80805460405163e03110e160e01b815284600482015285602482015260405f6044835f865af19150508015610c8d575f519250602051915050610c9b565b50610c9b63badf00d0610100565b9250929050565b5f610cac60a05190565b60c08051901c8160f81c60018103610d1957604080515f858152336020528983526060902091527effffffffffffffffffffffffffffffffffffffffffffffffffffffffffffff167f01000000000000000000000000000000000000000000000000000000000000001792505b50610d248183610c4e565b925082610d36575f93505050506101f3565b610d42601f5b866102c0565b610d4d8160206101fa565b610d57818961027a565b15610d60578097505b50610d6b848861027a565b15610d74578396505b85935086610d86610a418260206101fa565b6001901b7fffffffffffffffffffffffffffffffffffffffffffffffffffffffffffffffff0119610dbb6101178460036102db565b93841c931c610dca82866101e0565b9450610df78560c0805177ffffffffffffffffffffffffffffffffffffffffffffffff1682821b17905250565b819650610e096001610bcb85896101fa565b848216911916179350610e299050600184610e2484886101fa565b61074b565b505050509392505050565b610e3e6011610393565b80605d8114610ec957605e8114610ec95760d68114610f595760de8114610f7a57603f811461106757604081146110e3576019811461113c576038811461124d57607181146112685760dc81146112995760a381146112a3576101058114611304576101a68114611304576065811461130457610ebd5f5b600a6103d7565b6104385f5b600b6103d7565b610ed3600a610393565b610f0a60ff821660d080517effffffffffffffffffffffffffffffffffffffffffffffffffffffffffffff1660f883901b17905250565b5061043860d180517effffffffffffffffffffffffffffffffffffffffffffffffffffffffffffff167f0100000000000000000000000000000000000000000000000000000000000000179052565b610f656001601e6102db565b610f7081600a6103d7565b506104385f610ec2565b610f84600a610393565b610f8e600b610393565b610f98600d610393565b610fa2600e610393565b5f67ffffffffffffffff8214156020841615176001811461103657858061103057610fd0610fff5b876102c0565b8015610fee57610feb610fe5826110006101fa565b886101e0565b96505b5060da5160c01c80975061102e61100588836101e0565b60da805177ffffffffffffffffffffffffffffffffffffffffffffffff1660c083901b17905250565b505b50611046565b67ffffffffffffffff9550604d91505b5061105285600a6103d7565b61105d81600b6103d7565b5050505050505050565b611071600a610393565b61107b600b610393565b611085600c610393565b5f808480156110b457600381146110bd57600581146110c65767ffffffffffffffff5b9250604d5b91506110d7565b5f92505f6110ad565b8392505f6110ad565b6110d1898587610ca2565b92505f91505b5061105282600a6103d7565b6110ed600a610393565b6110f7600b610393565b611101600c610393565b5f8084600181146110bd57600281146110bd57600481146110bd57600681146111325767ffffffffffffffff6110a8565b6110d18486610b8f565b611146600a610393565b611150600b610393565b5f80826001811461117757600381146111d45767ffffffffffffffff925060169150611236565b8480156111c257600181146111c257600281146111c257600381146111c257600481146111c257600581146111c257600681146111ca5767ffffffffffffffff9350604d92506111ce565b5f93506111ce565b5f93505b50611236565b84801561121f57600181146112285760028114611228576003811461121f5760048114611228576005811461121f576006811461122f5767ffffffffffffffff9350604d9250611234565b5f5b9350611234565b6001611221565b600193505b505b5061124282600a6103d7565b610b6381600b6103d7565b61125e67ffffffffffffffff610eb6565b610438600d610ec2565b611272600b610393565b682a000000000000053961128d600260018360105b86610a91565b5050610ebd610eb65f90565b610ebd6001610eb6565b6112ad600a610393565b6112b7600b610393565b81600781146112d1576112cc620f0012610100565b6112fc565b6112ea6002600169040000000000000004006010611287565b6112f35f610eb6565b6112fc5f610ec2565b505050505050565b61043863f001ca11610100565b60d15160f81c1561132b57611324610488565b5f5260205ff35b61136861133f60016103c560d25160c01c90565b60d2805177ffffffffffffffffffffffffffffffffffffffffffffffff1660c083901b17905250565b60c85160c01c61137d60ff5f80600485610806565b611386816105f8565b61138f82610605565b61139883610616565b6113a184610627565b6113aa85610638565b6113b386610649565b856003811461144e576023811461150a5760638114611561576013811461168c57601b81146117c257603381146118cc57603b8114611afe5760378114611d1a5760178114611d4857606f8114611d645760678114611de05760738114611e3b57602f8114611ea057600f81146120fb57600781146120fb57602781146120fb57605381146121085761144963f001c0de610100565b612115565b8861145a6007876102b7565b1561146c5761146c630badc0de610100565b611475896104c7565b61148461088860045b896102c0565b611495600161051060035b8b6102c0565b61149e88610393565b6114ad610674600b5b86610158565b9350506114bf60026001848487610806565b925050506114cd81896103d7565b506115046114db60046106a8565b60c8805177ffffffffffffffffffffffffffffffffffffffffffffffff1660c083901b17905250565b50612115565b88611514896104dd565b61151f6001886102db565b61152886610393565b61153188610393565b61153e610674600b6114a7565b93505061155060026001838587610b6c565b5050506115046114db6106a8600490565b61156a84610393565b61157384610393565b5f8780156115a857600181146115b957600481146115cb57600581146115d557600681146115e757600781146115f157611606565b6115b283856102b7565b9150611606565b6115b260016104f661082a86886102b7565b6115b28385610283565b6115b260016104f661082a8688610283565b6115b28385610271565b61160360016104f661082a8688610271565b91505b5080801561162a576116178c61051a565b9350611623848e6101e0565b9c50611638565b61163560048e6101e0565b9c505b5050505061164d611647600390565b8a6102c0565b1561165f5761165f63bad10ad0610100565b6114498960c8805177ffffffffffffffffffffffffffffffffffffffffffffffff1660c083901b17905250565b61169584610393565b61169e896104c7565b5f8780156116f05760018114611701576002811461170f57600381146117195760048114611723576005811461172d57600681146117895760078114611793576116eb630badc0de610100565b6117a0565b6116fa83856101e0565b91506117a0565b6116fa84610510603f610d3c565b6116fa8385610283565b6116fa8385610271565b6116fa83856102d2565b6117388360066102e7565b8015611758576010811461176d57611753630badc0de610100565b611783565b611766856104d8603f610fca565b9250611783565b6117808561177b603f610fca565b6102f0565b92505b506117a0565b6116fa83856102c9565b61179d83856102c0565b91505b506117ab818a6103d7565b5050506114496114db6117bc600490565b8b6101e0565b6117cb84610393565b6117d4896104c7565b5f8780156117f9576001811461180b576005811461183a576116eb630badc0de610100565b6116fa61180684866101e0565b610122565b61181760205b846102c0565b1561182957611829630badc0de610100565b6116fa61180685610510601f610fca565b6118446020611811565b1561185657611856630badc0de610100565b611860601f611811565b61186b8460056102e7565b801561188b57602081146118ae57611886630badc0de610100565b6118bf565b6118a7601f5b6101376118a163ffffffff611647565b856102e7565b93506118bf565b6118bc61189183601f6101fa565b93505b5050506117ab818a6103d7565b6118d584610393565b6118de84610393565b5f84600181146119f357888015611934576001811461197957600281146119875760038114611991576004811461199b57600581146119a557600681146119df57600781146119e957611753630badc0de610100565b868015611955576020811461196657611950630badc0de610100565b611973565b61195f85876101e0565b9350611973565b61197085876101fa565b93505b50611783565b61176685610510603f610fca565b6117668486610283565b6117668486610271565b61176684866102d2565b8680156119c157602081146119d157611950630badc0de610100565b61195f866104d8603f5b886102c0565b6119708661177b603f6119cb565b61176684866102c9565b61178084866102c0565b888015611a445760018114611a555760028114611a735760038114611a7c5760048114611a865760058114611ab15760068114611ac25760078114611adc57611a3f630badc0de610100565b611af2565b611a4e848661020d565b9250611af2565b611a4e611a618561019b565b611a6a8761019b565b0260401c610108565b611a4e84611a61565b611a4e8486611a6a565b838015611a9e57611a978587610225565b9350611aab565b67ffffffffffffffff5b93505b50611af2565b838015611a9e57611a978587610219565b838015611ad357611a97858761024a565b85935050611af2565b838015611aed576118a78587610241565b859350505b50506117ab818a6103d7565b611b0784610393565b611b1863ffffffff6104f686610393565b5f8460018114611c1457888015611b465760018114611ba25760058114611bb357611753630badc0de610100565b868015611b625760208114611b8257611950630badc0de610100565b61195f611806611b7563ffffffff6119cb565b6103c563ffffffff611647565b611970611806611b9563ffffffff6119cb565b61087563ffffffff611647565b61176661180686610510601f6119cb565b611bbd601f610131565b878015611bde5760208114611bfb57611bd9630badc0de610100565b611c0c565b611bf4601f5b6101376118a163ffffffff61148f565b9450611c0c565b611c09611be483601f6101fa565b94505b5050506117a0565b888015611c485760048114611c685760058114611c8c5760068114611cb85760078114611ce557611a3f630badc0de610100565b611a4e611806611c5b63ffffffff610fca565b61066663ffffffff61147e565b838015611a9e57611a97611806611c7e87610122565b611c8789610122565b610225565b838015611a9e57611a97611806611ca663ffffffff6119cb565b611cb363ffffffff611647565b610219565b838015611cdc57611a97611806611cce87610122565b611cd789610122565b61024a565b611aa886610122565b838015611d11576118a7611806611cff63ffffffff6119cb565b611d0c63ffffffff611647565b610241565b6118bc86610122565b611d2388610585565b611d2e81600c6102db565b9050611d3a81886103d7565b506114496114db60046117bc565b611d5188610585565b611d2e6117bc601f61013784600c6102db565b611d6d88610596565b611d7760046117bc565b611d8181896103d7565b50611d956117bc60146101378460016102db565b9050611da16003610751565b15611db357611db363bad10ad0610100565b6115048160c8805177ffffffffffffffffffffffffffffffffffffffffffffffff1660c083901b17905250565b611de984610393565b611df2896104c7565b611dfe60045b8c6101e0565b611e08818a6103d7565b50611e2d611e1f600167ffffffffffffffff6102d2565b6104f6610acf600b85610158565b915050611da1610751600390565b848015611e5e57611e4c5f886103d7565b611e596114db6004611df8565b611504565b611e698960146102e7565b8015611e8357611e7e6114db60045b8d6101e0565b611e99565b611e8c8d610e34565b611e996114db6004611e78565b5050612115565b611eab6001866102db565b611eb560086103e6565b611ec0600483610271565b1715611ed257611ed262bada70610100565b611edb85610393565b611ee58282610241565b15611ef757611ef763bad10ad0610100565b611f028460026102e7565b8060028114612038576003811461208457611f1c87610393565b611f276004866102b7565b15611f3857611f3581610122565b90505b611f4760026001808888610806565b80848015611fa15760018114611fb25760048114611fba5760088114611fc457600c8114611fce5760108114611fd85760148114611fef5760188114611ff957601c811461200357611f9c630f001a70610100565b612016565b611fab84846101e0565b9250612016565b839250612016565b611fab84846102d2565b611fab84846102c9565b611fab84846102c0565b611fe28385610283565b15611f9c57839250612016565b611fe2838561029d565b611fe28385610271565b61200d838561027a565b15612016578392505b5061202660036001848a8a610b6c565b612030818e6103d7565b5050506120e9565b61204760026001808787610806565b612051818c6103d7565b5061207f8360e2805177ffffffffffffffffffffffffffffffffffffffffffffffff1660c083901b17905250565b6120e9565b600161209b61209560e25160c01c90565b856102b7565b156120bd576120a988610393565b6120b860026001838989610b6c565b505f90505b6120c7818c6103d7565b5060e2805177ffffffffffffffffffffffffffffffffffffffffffffffff1690525b505050506114496114db6117bc600490565b6114496114db60046117bc565b6121156114db60046117bc565b505050505050505050611324610488565b602081525f82518060208401528060208501604085015e5f6040828501015260407fffffffffffffffffffffffffffffffffffffffffffffffffffffffffffffffe0601f83011684010191505092915050565b5f8083601f840112612189575f80fd5b50813567ffffffffffffffff8111156121a0575f80fd5b602083019150836020828501011115610c9b575f80fd5b5f805f805f606086880312156121cb575f80fd5b853567ffffffffffffffff808211156121e2575f80fd5b6121ee89838a01612179565b90975095506020880135915080821115612206575f80fd5b5061221388828901612179565b9699959850966040013594935050505056fea164736f6c6343000819000a","linkReferences":{}},"methodIdentifiers":{"oracle()":"7dc0d1d0","step(bytes,bytes,bytes32)":"e14ced32","version()":"54fd4d50"},"storageLayout":{"storage":[{"astId":84219,"contract":"src/vendor/asterisc/RISCV.sol:RISCV","label":"oracle","offset":0,"slot":"0","type":"t_contract(IPreimageOracle)3435"}],"types":{"t_contract(IPreimageOracle)3435":{"encoding":"inplace","label":"contract IPreimageOracle","numberOfBytes":"20"}}},"userdoc":{"version":1,"kind":"user","methods":{"oracle()":{"notice":"The preimage oracle contract."},"step(bytes,bytes,bytes32)":{"notice":"Performs the state transition from a given prestate and returns the hash of the post state witness."},"version()":{"notice":"The version of the contract."}},"notice":"The RISCV contract emulates a single RISCV hart cycle statelessly, using memory proofs to verify the         instruction and optional memory access' inclusion in the memory merkle root provided in the trusted         prestate witness."},"devdoc":{"version":1,"kind":"dev","details":"https://github.com/ethereum-optimism/asterisc","methods":{"constructor":{"params":{"_oracle":"The preimage oracle contract."}},"step(bytes,bytes,bytes32)":{"params":{"_localContext":"The local key context for the preimage oracle. Optional, can be set as a constant if the                      implementation only requires one set of local keys.","_proof":"Opaque proof data, can be used to prove things about the prestate in relation to the state of the               interface's implementation.","_stateData":"The raw opaque prestate data."},"returns":{"_0":"The hash of the post state witness after the state transition."}}},"title":"RISCV"},"id":196}