{"abi":[{"type":"function","name":"db","inputs":[{"name":"","type":"bytes32","internalType":"bytes32"}],"outputs":[{"name":"","type":"bytes32","internalType":"bytes32"}],"stateMutability":"view"},{"type":"function","name":"get","inputs":[{"name":"_key","type":"bytes32","internalType":"bytes32"}],"outputs":[{"name":"","type":"bytes32","internalType":"bytes32"}],"stateMutability":"view"},{"type":"function","name":"set","inputs":[{"name":"_key","type":"bytes32","internalType":"bytes32"},{"name":"_value","type":"bytes32","internalType":"bytes32"}],"outputs":[],"stateMutability":"payable"}],"bytecode":{"object":"0x608060405234801561001057600080fd5b5060fe8061001f6000396000f3fe60806040526004361060305760003560e01c80638eaa6ac0146035578063ecf265bc146070578063f71f7a25146099575b600080fd5b348015604057600080fd5b50605e604c36600460b8565b60009081526020819052604090205490565b60405190815260200160405180910390f35b348015607b57600080fd5b50605e608736600460b8565b60006020819052908152604090205481565b60b660a436600460d0565b60009182526020829052604090912055565b005b60006020828403121560c957600080fd5b5035919050565b6000806040838503121560e257600080fd5b5050803592602090910135915056fea164736f6c634300080f000a","linkReferences":{}},"methodIdentifiers":{"db(bytes32)":"ecf265bc","get(bytes32)":"8eaa6ac0","set(bytes32,bytes32)":"f71f7a25"},"storageLayout":{"storage":[{"astId":252603,"contract":"test/mocks/SimpleStorage.sol:SimpleStorage","label":"db","offset":0,"slot":"0","type":"t_mapping(t_bytes32,t_bytes32)"}],"types":{"t_bytes32":{"encoding":"inplace","label":"bytes32","numberOfBytes":"32"},"t_mapping(t_bytes32,t_bytes32)":{"encoding":"mapping","key":"t_bytes32","label":"mapping(bytes32 => bytes32)","numberOfBytes":"32","value":"t_bytes32"}}},"userdoc":{"version":1,"kind":"user"},"devdoc":{"version":1,"kind":"dev"},"id":430}