{
  "abi": [
    {
      "type": "constructor",
      "inputs": [],
      "stateMutability": "nonpayable"
    },
    {
      "type": "receive",
      "stateMutability": "payable"
    },
    {
      "type": "function",
      "name": "GUARDIAN",
      "inputs": [],
      "outputs": [
        {
          "name": "",
          "type": "address",
          "internalType": "address"
        }
      ],
      "stateMutability": "view"
    },
    {
      "type": "function",
      "name": "L2_ORACLE",
      "inputs": [],
      "outputs": [
        {
          "name": "",
          "type": "address",
          "internalType": "contract L2OutputOracle"
        }
      ],
      "stateMutability": "view"
    },
    {
      "type": "function",
      "name": "SYSTEM_CONFIG",
      "inputs": [],
      "outputs": [
        {
          "name": "",
          "type": "address",
          "internalType": "contract SystemConfig"
        }
      ],
      "stateMutability": "view"
    },
    {
      "type": "function",
      "name": "depositTransaction",
      "inputs": [
        {
          "name": "_to",
          "type": "address",
          "internalType": "address"
        },
        {
          "name": "_mint",
          "type": "uint256",
          "internalType": "uint256"
        },
        {
          "name": "_value",
          "type": "uint256",
          "internalType": "uint256"
        },
        {
          "name": "_gasLimit",
          "type": "uint64",
          "internalType": "uint64"
        },
        {
          "name": "_isCreation",
          "type": "bool",
          "internalType": "bool"
        },
        {
          "name": "_data",
          "type": "bytes",
          "internalType": "bytes"
        }
      ],
      "outputs": [],
      "stateMutability": "nonpayable"
    },
    {
      "type": "function",
      "name": "depositedAmount",
      "inputs": [],
      "outputs": [
        {
          "name": "",
          "type": "uint256",
          "internalType": "uint256"
        }
      ],
      "stateMutability": "view"
    },
    {
      "type": "function",
      "name": "donateETH",
      "inputs": [],
      "outputs": [],
      "stateMutability": "payable"
    },
    {
      "type": "function",
      "name": "finalizeWithdrawalTransaction",
      "inputs": [
        {
          "name": "_tx",
          "type": "tuple",
          "internalType": "struct Types.WithdrawalTransaction",
          "components": [
            {
              "name": "nonce",
              "type": "uint256",
              "internalType": "uint256"
            },
            {
              "name": "sender",
              "type": "address",
              "internalType": "address"
            },
            {
              "name": "target",
              "type": "address",
              "internalType": "address"
            },
            {
              "name": "value",
              "type": "uint256",
              "internalType": "uint256"
            },
            {
              "name": "gasLimit",
              "type": "uint256",
              "internalType": "uint256"
            },
            {
              "name": "data",
              "type": "bytes",
              "internalType": "bytes"
            }
          ]
        }
      ],
      "outputs": [],
      "stateMutability": "nonpayable"
    },
    {
      "type": "function",
      "name": "finalizedWithdrawals",
      "inputs": [
        {
          "name": "",
          "type": "bytes32",
          "internalType": "bytes32"
        }
      ],
      "outputs": [
        {
          "name": "",
          "type": "bool",
          "internalType": "bool"
        }
      ],
      "stateMutability": "view"
    },
    {
      "type": "function",
      "name": "guardian",
      "inputs": [],
      "outputs": [
        {
          "name": "",
          "type": "address",
          "internalType": "address"
        }
      ],
      "stateMutability": "view"
    },
    {
      "type": "function",
      "name": "initialize",
      "inputs": [
        {
          "name": "_nativeTokenAddress",
          "type": "address",
          "internalType": "address"
        },
        {
          "name": "_l2Oracle",
          "type": "address",
          "internalType": "contract L2OutputOracle"
        },
        {
          "name": "_systemConfig",
          "type": "address",
          "internalType": "contract SystemConfig"
        },
        {
          "name": "_superchainConfig",
          "type": "address",
          "internalType": "contract SuperchainConfig"
        }
      ],
      "outputs": [],
      "stateMutability": "nonpayable"
    },
    {
      "type": "function",
      "name": "isOutputFinalized",
      "inputs": [
        {
          "name": "_l2OutputIndex",
          "type": "uint256",
          "internalType": "uint256"
        }
      ],
      "outputs": [
        {
          "name": "",
          "type": "bool",
          "internalType": "bool"
        }
      ],
      "stateMutability": "view"
    },
    {
      "type": "function",
      "name": "l2Oracle",
      "inputs": [],
      "outputs": [
        {
          "name": "",
          "type": "address",
          "internalType": "contract L2OutputOracle"
        }
      ],
      "stateMutability": "view"
    },
    {
      "type": "function",
      "name": "l2Sender",
      "inputs": [],
      "outputs": [
        {
          "name": "",
          "type": "address",
          "internalType": "address"
        }
      ],
      "stateMutability": "view"
    },
    {
      "type": "function",
      "name": "minimumGasLimit",
      "inputs": [
        {
          "name": "_byteCount",
          "type": "uint64",
          "internalType": "uint64"
        }
      ],
      "outputs": [
        {
          "name": "",
          "type": "uint64",
          "internalType": "uint64"
        }
      ],
      "stateMutability": "pure"
    },
    {
      "type": "function",
      "name": "nativeTokenAddress",
      "inputs": [],
      "outputs": [
        {
          "name": "",
          "type": "address",
          "internalType": "address"
        }
      ],
      "stateMutability": "view"
    },
    {
      "type": "function",
      "name": "params",
      "inputs": [],
      "outputs": [
        {
          "name": "prevBaseFee",
          "type": "uint128",
          "internalType": "uint128"
        },
        {
          "name": "prevBoughtGas",
          "type": "uint64",
          "internalType": "uint64"
        },
        {
          "name": "prevBlockNum",
          "type": "uint64",
          "internalType": "uint64"
        }
      ],
      "stateMutability": "view"
    },
    {
      "type": "function",
      "name": "paused",
      "inputs": [],
      "outputs": [
        {
          "name": "paused_",
          "type": "bool",
          "internalType": "bool"
        }
      ],
      "stateMutability": "view"
    },
    {
      "type": "function",
      "name": "proveWithdrawalTransaction",
      "inputs": [
        {
          "name": "_tx",
          "type": "tuple",
          "internalType": "struct Types.WithdrawalTransaction",
          "components": [
            {
              "name": "nonce",
              "type": "uint256",
              "internalType": "uint256"
            },
            {
              "name": "sender",
              "type": "address",
              "internalType": "address"
            },
            {
              "name": "target",
              "type": "address",
              "internalType": "address"
            },
            {
              "name": "value",
              "type": "uint256",
              "internalType": "uint256"
            },
            {
              "name": "gasLimit",
              "type": "uint256",
              "internalType": "uint256"
            },
            {
              "name": "data",
              "type": "bytes",
              "internalType": "bytes"
            }
          ]
        },
        {
          "name": "_l2OutputIndex",
          "type": "uint256",
          "internalType": "uint256"
        },
        {
          "name": "_outputRootProof",
          "type": "tuple",
          "internalType": "struct Types.OutputRootProof",
          "components": [
            {
              "name": "version",
              "type": "bytes32",
              "internalType": "bytes32"
            },
            {
              "name": "stateRoot",
              "type": "bytes32",
              "internalType": "bytes32"
            },
            {
              "name": "messagePasserStorageRoot",
              "type": "bytes32",
              "internalType": "bytes32"
            },
            {
              "name": "latestBlockhash",
              "type": "bytes32",
              "internalType": "bytes32"
            }
          ]
        },
        {
          "name": "_withdrawalProof",
          "type": "bytes[]",
          "internalType": "bytes[]"
        }
      ],
      "outputs": [],
      "stateMutability": "nonpayable"
    },
    {
      "type": "function",
      "name": "provenWithdrawals",
      "inputs": [
        {
          "name": "",
          "type": "bytes32",
          "internalType": "bytes32"
        }
      ],
      "outputs": [
        {
          "name": "outputRoot",
          "type": "bytes32",
          "internalType": "bytes32"
        },
        {
          "name": "timestamp",
          "type": "uint128",
          "internalType": "uint128"
        },
        {
          "name": "l2OutputIndex",
          "type": "uint128",
          "internalType": "uint128"
        }
      ],
      "stateMutability": "view"
    },
    {
      "type": "function",
      "name": "superchainConfig",
      "inputs": [],
      "outputs": [
        {
          "name": "",
          "type": "address",
          "internalType": "contract SuperchainConfig"
        }
      ],
      "stateMutability": "view"
    },
    {
      "type": "function",
      "name": "systemConfig",
      "inputs": [],
      "outputs": [
        {
          "name": "",
          "type": "address",
          "internalType": "contract SystemConfig"
        }
      ],
      "stateMutability": "view"
    },
    {
      "type": "function",
      "name": "version",
      "inputs": [],
      "outputs": [
        {
          "name": "",
          "type": "string",
          "internalType": "string"
        }
      ],
      "stateMutability": "view"
    },
    {
      "type": "event",
      "name": "Initialized",
      "inputs": [
        {
          "name": "version",
          "type": "uint8",
          "indexed": false,
          "internalType": "uint8"
        }
      ],
      "anonymous": false
    },
    {
      "type": "event",
      "name": "TransactionDeposited",
      "inputs": [
        {
          "name": "from",
          "type": "address",
          "indexed": true,
          "internalType": "address"
        },
        {
          "name": "to",
          "type": "address",
          "indexed": true,
          "internalType": "address"
        },
        {
          "name": "version",
          "type": "uint256",
          "indexed": true,
          "internalType": "uint256"
        },
        {
          "name": "opaqueData",
          "type": "bytes",
          "indexed": false,
          "internalType": "bytes"
        }
      ],
      "anonymous": false
    },
    {
      "type": "event",
      "name": "WithdrawalFinalized",
      "inputs": [
        {
          "name": "withdrawalHash",
          "type": "bytes32",
          "indexed": true,
          "internalType": "bytes32"
        },
        {
          "name": "success",
          "type": "bool",
          "indexed": false,
          "internalType": "bool"
        }
      ],
      "anonymous": false
    },
    {
      "type": "event",
      "name": "WithdrawalProven",
      "inputs": [
        {
          "name": "withdrawalHash",
          "type": "bytes32",
          "indexed": true,
          "internalType": "bytes32"
        },
        {
          "name": "from",
          "type": "address",
          "indexed": true,
          "internalType": "address"
        },
        {
          "name": "to",
          "type": "address",
          "indexed": true,
          "internalType": "address"
        }
      ],
      "anonymous": false
    }
  ],
  "address": "0xA5C03A90AAdAc4593ff5b84F45Bd6e190d16fb84",
  "args": [],
  "bytecode": "0x60806040523480156200001157600080fd5b5062000021600080808062000027565b62000236565b600054600390610100900460ff161580156200004a575060005460ff8083169116105b620000b35760405162461bcd60e51b815260206004820152602e60248201527f496e697469616c697a61626c653a20636f6e747261637420697320616c72656160448201526d191e481a5b9a5d1a585b1a5e995960921b60648201526084015b60405180910390fd5b6000805461ffff191660ff831617610100908117909155603880546001600160a01b038089166001600160a01b0319928316179092556036805488841690831617905560378054878416921691909117905560358054858316909302610100600160a81b031990931692909217909155603254166200014157603280546001600160a01b03191661dead1790555b6200014b62000193565b6000805461ff001916905560405160ff821681527f7f26b83ff96e1f2b6a682f133852f6798a09c465da95921460cefb38474024989060200160405180910390a15050505050565b600054610100900460ff16620002005760405162461bcd60e51b815260206004820152602b60248201527f496e697469616c697a61626c653a20636f6e7472616374206973206e6f74206960448201526a6e697469616c697a696e6760a81b6064820152608401620000aa565b60408051606081018252633b9aca0080825260006020830152436001600160401b031691909201819052600160c01b0217600155565b615b3980620002466000396000f3fe6080604052600436106101785760003560e01c80638b4c40b0116100cb578063a35d99df1161007f578063e965084c11610059578063e965084c14610575578063f049875014610601578063f8c8765e1461062c57600080fd5b8063a35d99df1461047b578063b9e55958146104b4578063cff0ab96146104d457600080fd5b80639b5f694a116100b05780639b5f694a146103f15780639bf62d821461041e578063a14238e71461044b57600080fd5b80638b4c40b0146102f25780638c3152e9146103d157600080fd5b80634870496f1161012d5780635c975abb116101075780635c975abb146103775780636dbffb781461039c578063724c184c146103bc57600080fd5b80634870496f146102d25780634d0047ee146102f457806354fd4d501461032157600080fd5b806333d7e2bd1161015e57806333d7e2bd1461025e57806335e80ab31461028b578063452a9320146102bd57600080fd5b80621c2ff6146101e95780631d01364c1461023a57600080fd5b366101e4576040517f08c379a000000000000000000000000000000000000000000000000000000000815260206004820152601760248201527f4f6e6c7920616c6c6f77206e617469766520746f6b656e00000000000000000060448201526064015b60405180910390fd5b600080fd5b3480156101f557600080fd5b5060365473ffffffffffffffffffffffffffffffffffffffff165b60405173ffffffffffffffffffffffffffffffffffffffff90911681526020015b60405180910390f35b34801561024657600080fd5b5061025060395481565b604051908152602001610231565b34801561026a57600080fd5b506037546102109073ffffffffffffffffffffffffffffffffffffffff1681565b34801561029757600080fd5b5060355461021090610100900473ffffffffffffffffffffffffffffffffffffffff1681565b3480156102c957600080fd5b5061021061064c565b3480156102de57600080fd5b506102f26102ed3660046150a8565b6106e4565b005b34801561030057600080fd5b506038546102109073ffffffffffffffffffffffffffffffffffffffff1681565b34801561032d57600080fd5b5061036a6040518060400160405280600581526020017f322e352e3000000000000000000000000000000000000000000000000000000081525081565b60405161023191906151fa565b34801561038357600080fd5b5061038c610d12565b6040519015158152602001610231565b3480156103a857600080fd5b5061038c6103b736600461520d565b610da5565b3480156103c857600080fd5b50610210610e60565b3480156103dd57600080fd5b506102f26103ec366004615226565b610e6a565b3480156103fd57600080fd5b506036546102109073ffffffffffffffffffffffffffffffffffffffff1681565b34801561042a57600080fd5b506032546102109073ffffffffffffffffffffffffffffffffffffffff1681565b34801561045757600080fd5b5061038c61046636600461520d565b60336020526000908152604090205460ff1681565b34801561048757600080fd5b5061049b610496366004615278565b6119d3565b60405167ffffffffffffffff9091168152602001610231565b3480156104c057600080fd5b506102f26104cf3660046152a1565b6119ec565b3480156104e057600080fd5b5060015461053c906fffffffffffffffffffffffffffffffff81169067ffffffffffffffff7001000000000000000000000000000000008204811691780100000000000000000000000000000000000000000000000090041683565b604080516fffffffffffffffffffffffffffffffff909416845267ffffffffffffffff9283166020850152911690820152606001610231565b34801561058157600080fd5b506105d361059036600461520d565b603460205260009081526040902080546001909101546fffffffffffffffffffffffffffffffff8082169170010000000000000000000000000000000090041683565b604080519384526fffffffffffffffffffffffffffffffff9283166020850152911690820152606001610231565b34801561060d57600080fd5b5060375473ffffffffffffffffffffffffffffffffffffffff16610210565b34801561063857600080fd5b506102f261064736600461535d565b611a05565b6000603560019054906101000a900473ffffffffffffffffffffffffffffffffffffffff1673ffffffffffffffffffffffffffffffffffffffff1663452a93206040518163ffffffff1660e01b8152600401602060405180830381865afa1580156106bb573d6000803e3d6000fd5b505050506040513d601f19601f820116820180604052508101906106df91906153b9565b905090565b6106ec610d12565b15610753576040517f08c379a000000000000000000000000000000000000000000000000000000000815260206004820152601660248201527f4f7074696d69736d506f7274616c3a207061757365640000000000000000000060448201526064016101db565b3073ffffffffffffffffffffffffffffffffffffffff16856040015173ffffffffffffffffffffffffffffffffffffffff1603610812576040517f08c379a000000000000000000000000000000000000000000000000000000000815260206004820152603f60248201527f4f7074696d69736d506f7274616c3a20796f752063616e6e6f742073656e642060448201527f6d6573736167657320746f2074686520706f7274616c20636f6e74726163740060648201526084016101db565b6036546040517fa25ae5570000000000000000000000000000000000000000000000000000000081526004810186905260009173ffffffffffffffffffffffffffffffffffffffff169063a25ae55790602401606060405180830381865afa158015610882573d6000803e3d6000fd5b505050506040513d601f19601f820116820180604052508101906108a691906153f6565b5190506108c06108bb3686900386018661545b565b611c1e565b811461094e576040517f08c379a000000000000000000000000000000000000000000000000000000000815260206004820152602960248201527f4f7074696d69736d506f7274616c3a20696e76616c6964206f7574707574207260448201527f6f6f742070726f6f66000000000000000000000000000000000000000000000060648201526084016101db565b600061095987611c7a565b6000818152603460209081526040918290208251606081018452815481526001909101546fffffffffffffffffffffffffffffffff8082169383018490527001000000000000000000000000000000009091041692810192909252919250901580610a6f5750805160365460408084015190517fa25ae5570000000000000000000000000000000000000000000000000000000081526fffffffffffffffffffffffffffffffff909116600482015273ffffffffffffffffffffffffffffffffffffffff9091169063a25ae55790602401606060405180830381865afa158015610a47573d6000803e3d6000fd5b505050506040513d601f19601f82011682018060405250810190610a6b91906153f6565b5114155b610afb576040517f08c379a000000000000000000000000000000000000000000000000000000000815260206004820152603760248201527f4f7074696d69736d506f7274616c3a207769746864726177616c20686173682060448201527f68617320616c7265616479206265656e2070726f76656e00000000000000000060648201526084016101db565b60408051602081018490526000918101829052606001604080517fffffffffffffffffffffffffffffffffffffffffffffffffffffffffffffffe081840301815282825280516020918201209083018190529250610bc49101604080517fffffffffffffffffffffffffffffffffffffffffffffffffffffffffffffffe0818403018152828201909152600182527f0100000000000000000000000000000000000000000000000000000000000000602083015290610bba888a6154c1565b8a60400135611caa565b610c50576040517f08c379a000000000000000000000000000000000000000000000000000000000815260206004820152603260248201527f4f7074696d69736d506f7274616c3a20696e76616c696420776974686472617760448201527f616c20696e636c7573696f6e2070726f6f66000000000000000000000000000060648201526084016101db565b604080516060810182528581526fffffffffffffffffffffffffffffffff42811660208084019182528c831684860190815260008981526034835286812095518655925190518416700100000000000000000000000000000000029316929092176001909301929092558b830151908c0151925173ffffffffffffffffffffffffffffffffffffffff918216939091169186917f67a6208cfcc0801d50f6cbe764733f4fddf66ac0b04442061a8a8c0cb6b63f629190a4505050505050505050565b6000603560019054906101000a900473ffffffffffffffffffffffffffffffffffffffff1673ffffffffffffffffffffffffffffffffffffffff16635c975abb6040518163ffffffff1660e01b8152600401602060405180830381865afa158015610d81573d6000803e3d6000fd5b505050506040513d601f19601f820116820180604052508101906106df9190615545565b6036546040517fa25ae55700000000000000000000000000000000000000000000000000000000815260048101839052600091610e5a9173ffffffffffffffffffffffffffffffffffffffff9091169063a25ae55790602401606060405180830381865afa158015610e1b573d6000803e3d6000fd5b505050506040513d601f19601f82011682018060405250810190610e3f91906153f6565b602001516fffffffffffffffffffffffffffffffff16611cce565b92915050565b60006106df61064c565b610e72610d12565b15610ed9576040517f08c379a000000000000000000000000000000000000000000000000000000000815260206004820152601660248201527f4f7074696d69736d506f7274616c3a207061757365640000000000000000000060448201526064016101db565b60325473ffffffffffffffffffffffffffffffffffffffff1661dead14610f82576040517f08c379a000000000000000000000000000000000000000000000000000000000815260206004820152603f60248201527f4f7074696d69736d506f7274616c3a2063616e206f6e6c79207472696767657260448201527f206f6e65207769746864726177616c20706572207472616e73616374696f6e0060648201526084016101db565b6000610f8d82611c7a565b60008181526034602090815260408083208151606081018352815481526001909101546fffffffffffffffffffffffffffffffff80821694830185905270010000000000000000000000000000000090910416918101919091529293509003611078576040517f08c379a000000000000000000000000000000000000000000000000000000000815260206004820152603260248201527f4f7074696d69736d506f7274616c3a207769746864726177616c20686173206e60448201527f6f74206265656e2070726f76656e20796574000000000000000000000000000060648201526084016101db565b603660009054906101000a900473ffffffffffffffffffffffffffffffffffffffff1673ffffffffffffffffffffffffffffffffffffffff1663887862726040518163ffffffff1660e01b8152600401602060405180830381865afa1580156110e5573d6000803e3d6000fd5b505050506040513d601f19601f820116820180604052508101906111099190615562565b81602001516fffffffffffffffffffffffffffffffff1610156111d4576040517f08c379a000000000000000000000000000000000000000000000000000000000815260206004820152604b60248201527f4f7074696d69736d506f7274616c3a207769746864726177616c2074696d657360448201527f74616d70206c657373207468616e204c32204f7261636c65207374617274696e60648201527f672074696d657374616d70000000000000000000000000000000000000000000608482015260a4016101db565b6111f381602001516fffffffffffffffffffffffffffffffff16611cce565b6112a5576040517f08c379a000000000000000000000000000000000000000000000000000000000815260206004820152604560248201527f4f7074696d69736d506f7274616c3a2070726f76656e2077697468647261776160448201527f6c2066696e616c697a6174696f6e20706572696f6420686173206e6f7420656c60648201527f6170736564000000000000000000000000000000000000000000000000000000608482015260a4016101db565b60365460408281015190517fa25ae5570000000000000000000000000000000000000000000000000000000081526fffffffffffffffffffffffffffffffff909116600482015260009173ffffffffffffffffffffffffffffffffffffffff169063a25ae55790602401606060405180830381865afa15801561132c573d6000803e3d6000fd5b505050506040513d601f19601f8201168201806040525081019061135091906153f6565b825181519192501461140a576040517f08c379a000000000000000000000000000000000000000000000000000000000815260206004820152604960248201527f4f7074696d69736d506f7274616c3a206f757470757420726f6f742070726f7660448201527f656e206973206e6f74207468652073616d652061732063757272656e74206f7560648201527f7470757420726f6f740000000000000000000000000000000000000000000000608482015260a4016101db565b61142981602001516fffffffffffffffffffffffffffffffff16611cce565b6114db576040517f08c379a000000000000000000000000000000000000000000000000000000000815260206004820152604360248201527f4f7074696d69736d506f7274616c3a206f75747075742070726f706f73616c2060448201527f66696e616c697a6174696f6e20706572696f6420686173206e6f7420656c617060648201527f7365640000000000000000000000000000000000000000000000000000000000608482015260a4016101db565b60008381526033602052604090205460ff161561157a576040517f08c379a000000000000000000000000000000000000000000000000000000000815260206004820152603560248201527f4f7074696d69736d506f7274616c3a207769746864726177616c20686173206160448201527f6c7265616479206265656e2066696e616c697a6564000000000000000000000060648201526084016101db565b603854604085015173ffffffffffffffffffffffffffffffffffffffff91821691160361164f576040517f08c379a000000000000000000000000000000000000000000000000000000000815260206004820152604360248201527f4f7074696d69736d20506f7274616c3a2063616e6e6f74206d616b652061206460448201527f69726563742063616c6c20746f206e617469766520746f6b656e20636f6e747260648201527f6163740000000000000000000000000000000000000000000000000000000000608482015260a4016101db565b600083815260336020908152604090912080547fffffffffffffffffffffffffffffffffffffffffffffffffffffffffffffff001660011790558401516032805473ffffffffffffffffffffffffffffffffffffffff9092167fffffffffffffffffffffffff00000000000000000000000000000000000000009092169190911790556060840151156118a95760385460408581015190517fdd62ed3e00000000000000000000000000000000000000000000000000000000815230600482015273ffffffffffffffffffffffffffffffffffffffff80831660248301529092169163095ea7b39190839063dd62ed3e90604401602060405180830381865afa158015611760573d6000803e3d6000fd5b505050506040513d601f19601f820116820180604052508101906117849190615562565b876060015161179391906155aa565b6040517fffffffff0000000000000000000000000000000000000000000000000000000060e085901b16815273ffffffffffffffffffffffffffffffffffffffff909216600483015260248201526044016020604051808303816000875af1158015611803573d6000803e3d6000fd5b505050506040513d601f19601f820116820180604052508101906118279190615545565b61188d576040517f08c379a000000000000000000000000000000000000000000000000000000000815260206004820152601760248201527f4f7074696d69736d20617070726f7665206661696c656400000000000000000060448201526064016101db565b8360600151603960008282546118a391906155c2565b90915550505b60006118c48560400151866080015160008860a00151611d74565b603280547fffffffffffffffffffffffff00000000000000000000000000000000000000001661dead17905560405190915084907fdb5c7652857aa163daadd670e116628fb42e869d8ac4251ef8971d9e5727df1b9061192990841515815260200190565b60405180910390a28015801561193f5750326001145b156119cc576040517f08c379a000000000000000000000000000000000000000000000000000000000815260206004820152602160248201527f4f7074696d69736d506f7274616c3a207769746864726177616c206661696c6560448201527f640000000000000000000000000000000000000000000000000000000000000060648201526084016101db565b5050505050565b60006119e08260106155d9565b610e5a90615208615609565b6119fc3388888888888888611dd2565b50505050505050565b600054600390610100900460ff16158015611a27575060005460ff8083169116105b611ab3576040517f08c379a000000000000000000000000000000000000000000000000000000000815260206004820152602e60248201527f496e697469616c697a61626c653a20636f6e747261637420697320616c72656160448201527f647920696e697469616c697a656400000000000000000000000000000000000060648201526084016101db565b600080547fffffffffffffffffffffffffffffffffffffffffffffffffffffffffffff00001660ff8316176101009081179091556038805473ffffffffffffffffffffffffffffffffffffffff8089167fffffffffffffffffffffffff00000000000000000000000000000000000000009283161790925560368054888416908316179055603780548784169216919091179055603580548583169093027fffffffffffffffffffffff0000000000000000000000000000000000000000ff9093169290921790915560325416611bb157603280547fffffffffffffffffffffffff00000000000000000000000000000000000000001661dead1790555b611bb96120c4565b600080547fffffffffffffffffffffffffffffffffffffffffffffffffffffffffffff00ff16905560405160ff821681527f7f26b83ff96e1f2b6a682f133852f6798a09c465da95921460cefb38474024989060200160405180910390a15050505050565b60008160000151826020015183604001518460600151604051602001611c5d949392919093845260208401929092526040830152606082015260800190565b604051602081830303815290604052805190602001209050919050565b80516020808301516040808501516060860151608087015160a08801519351600097611c5d979096959101615635565b600080611cb6866121a7565b9050611cc4818686866121d9565b9695505050505050565b603654604080517ff4daa291000000000000000000000000000000000000000000000000000000008152905160009273ffffffffffffffffffffffffffffffffffffffff169163f4daa2919160048083019260209291908290030181865afa158015611d3e573d6000803e3d6000fd5b505050506040513d601f19601f82011682018060405250810190611d629190615562565b611d6c90836155aa565b421192915050565b6000806000611d84866000612209565b905080611dba576308c379a06000526020805278185361666543616c6c3a204e6f7420656e6f756768206761736058526064601cfd5b600080855160208701888b5af1979650505050505050565b8360005a90508715611e1b57603854611e039073ffffffffffffffffffffffffffffffffffffffff168b308b612227565b8760396000828254611e1591906155aa565b90915550505b8415611ec75773ffffffffffffffffffffffffffffffffffffffff891615611ec757604080517f08c379a00000000000000000000000000000000000000000000000000000000081526020600482015260248101919091527f4f7074696d69736d506f7274616c3a206d7573742073656e6420746f2061646460448201527f72657373283029207768656e206372656174696e67206120636f6e747261637460648201526084016101db565b611ed0836119d3565b67ffffffffffffffff168667ffffffffffffffff161015611f73576040517f08c379a000000000000000000000000000000000000000000000000000000000815260206004820152602360248201527f4f7074696d69736d506f7274616c3a20676173206c696d697420746f6f20736d60448201527f616c6c000000000000000000000000000000000000000000000000000000000060648201526084016101db565b6201d4c0831115611fe0576040517f08c379a000000000000000000000000000000000000000000000000000000000815260206004820152601e60248201527f4f7074696d69736d506f7274616c3a206461746120746f6f206c61726765000060448201526064016101db565b8973ffffffffffffffffffffffffffffffffffffffff8116321461201757507311110000000000000000000000000000000011118a015b60008989898989896040516020016120349695949392919061568c565b604051602081830303815290604052905060008b73ffffffffffffffffffffffffffffffffffffffff168373ffffffffffffffffffffffffffffffffffffffff167fb3813568d9991fc951961fcb4c784893574240a28925604d09fc577c55bb7c32846040516120a491906151fa565b60405180910390a450506120b882826122c2565b50505050505050505050565b600054610100900460ff1661215b576040517f08c379a000000000000000000000000000000000000000000000000000000000815260206004820152602b60248201527f496e697469616c697a61626c653a20636f6e7472616374206973206e6f74206960448201527f6e697469616c697a696e6700000000000000000000000000000000000000000060648201526084016101db565b60408051606081018252633b9aca00808252600060208301524367ffffffffffffffff169190920181905278010000000000000000000000000000000000000000000000000217600155565b606081805190602001206040516020016121c391815260200190565b6040516020818303038152906040529050919050565b6000612200846121ea8786866125ef565b8051602091820120825192909101919091201490565b95945050505050565b600080603f83619c4001026040850201603f5a021015949350505050565b6040805173ffffffffffffffffffffffffffffffffffffffff85811660248301528416604482015260648082018490528251808303909101815260849091019091526020810180517bffffffffffffffffffffffffffffffffffffffffffffffffffffffff167f23b872dd000000000000000000000000000000000000000000000000000000001790526122bc908590613074565b50505050565b6001546000906122f8907801000000000000000000000000000000000000000000000000900467ffffffffffffffff16436155c2565b90506000612304613185565b90506000816020015160ff16826000015163ffffffff166123259190615714565b9050821561245c5760015460009061235c908390700100000000000000000000000000000000900467ffffffffffffffff1661577c565b90506000836040015160ff168361237391906157f0565b6001546123939084906fffffffffffffffffffffffffffffffff166157f0565b61239d9190615714565b6001549091506000906123ee906123c79084906fffffffffffffffffffffffffffffffff166158ac565b866060015163ffffffff168760a001516fffffffffffffffffffffffffffffffff16613246565b9050600186111561241d5761241a6123c782876040015160ff1660018a61241591906155c2565b613263565b90505b6fffffffffffffffffffffffffffffffff16780100000000000000000000000000000000000000000000000067ffffffffffffffff4316021760015550505b6001805486919060109061248f908490700100000000000000000000000000000000900467ffffffffffffffff16615609565b92506101000a81548167ffffffffffffffff021916908367ffffffffffffffff160217905550816000015163ffffffff16600160000160109054906101000a900467ffffffffffffffff1667ffffffffffffffff161315612572576040517f08c379a000000000000000000000000000000000000000000000000000000000815260206004820152603e60248201527f5265736f757263654d65746572696e673a2063616e6e6f7420627579206d6f7260448201527f6520676173207468616e20617661696c61626c6520676173206c696d6974000060648201526084016101db565b60015460009061259e906fffffffffffffffffffffffffffffffff1667ffffffffffffffff8816615920565b905060006125b048633b9aca006132b8565b6125ba908361595d565b905060005a6125c990886155c2565b9050808211156125e5576125e56125e082846155c2565b6132cf565b5050505050505050565b6060600084511161265c576040517f08c379a000000000000000000000000000000000000000000000000000000000815260206004820152601560248201527f4d65726b6c65547269653a20656d707479206b6579000000000000000000000060448201526064016101db565b6000612667846132f8565b90506000612674866133e4565b905060008460405160200161268b91815260200190565b60405160208183030381529060405290506000805b8451811015612fe45760008582815181106126bd576126bd615971565b602002602001015190508451831115612758576040517f08c379a000000000000000000000000000000000000000000000000000000000815260206004820152602e60248201527f4d65726b6c65547269653a206b657920696e646578206578636565647320746f60448201527f74616c206b6579206c656e67746800000000000000000000000000000000000060648201526084016101db565b8260000361281157805180516020918201206040516127a69261278092910190815260200190565b604051602081830303815290604052858051602091820120825192909101919091201490565b61280c576040517f08c379a000000000000000000000000000000000000000000000000000000000815260206004820152601d60248201527f4d65726b6c65547269653a20696e76616c696420726f6f74206861736800000060448201526064016101db565b612968565b8051516020116128c7578051805160209182012060405161283b9261278092910190815260200190565b61280c576040517f08c379a000000000000000000000000000000000000000000000000000000000815260206004820152602760248201527f4d65726b6c65547269653a20696e76616c6964206c6172676520696e7465726e60448201527f616c20686173680000000000000000000000000000000000000000000000000060648201526084016101db565b805184516020808701919091208251919092012014612968576040517f08c379a000000000000000000000000000000000000000000000000000000000815260206004820152602660248201527f4d65726b6c65547269653a20696e76616c696420696e7465726e616c206e6f6460448201527f652068617368000000000000000000000000000000000000000000000000000060648201526084016101db565b612974601060016155aa565b81602001515103612b505784518303612ae8576129ae81602001516010815181106129a1576129a1615971565b6020026020010151613447565b96506000875111612a41576040517f08c379a000000000000000000000000000000000000000000000000000000000815260206004820152603b60248201527f4d65726b6c65547269653a2076616c7565206c656e677468206d75737420626560448201527f2067726561746572207468616e207a65726f20286272616e636829000000000060648201526084016101db565b60018651612a4f91906155c2565b8214612add576040517f08c379a000000000000000000000000000000000000000000000000000000000815260206004820152603a60248201527f4d65726b6c65547269653a2076616c7565206e6f6465206d757374206265206c60448201527f617374206e6f646520696e2070726f6f6620286272616e63682900000000000060648201526084016101db565b50505050505061306d565b6000858481518110612afc57612afc615971565b602001015160f81c60f81b60f81c9050600082602001518260ff1681518110612b2757612b27615971565b60200260200101519050612b3a816135a7565b9550612b476001866155aa565b94505050612fd1565b600281602001515103612f49576000612b68826135cc565b9050600081600081518110612b7f57612b7f615971565b016020015160f81c90506000612b966002836159a0565b612ba19060026159c2565b90506000612bb2848360ff166135f0565b90506000612bc08a896135f0565b90506000612bce8383613626565b905080835114612c60576040517f08c379a000000000000000000000000000000000000000000000000000000000815260206004820152603a60248201527f4d65726b6c65547269653a20706174682072656d61696e646572206d7573742060448201527f736861726520616c6c206e6962626c65732077697468206b657900000000000060648201526084016101db565b60ff851660021480612c75575060ff85166003145b15612e645780825114612d0a576040517f08c379a000000000000000000000000000000000000000000000000000000000815260206004820152603d60248201527f4d65726b6c65547269653a206b65792072656d61696e646572206d757374206260448201527f65206964656e746963616c20746f20706174682072656d61696e64657200000060648201526084016101db565b612d2487602001516001815181106129a1576129a1615971565b9c5060008d5111612db7576040517f08c379a000000000000000000000000000000000000000000000000000000000815260206004820152603960248201527f4d65726b6c65547269653a2076616c7565206c656e677468206d75737420626560448201527f2067726561746572207468616e207a65726f20286c656166290000000000000060648201526084016101db565b60018c51612dc591906155c2565b8814612e53576040517f08c379a000000000000000000000000000000000000000000000000000000000815260206004820152603860248201527f4d65726b6c65547269653a2076616c7565206e6f6465206d757374206265206c60448201527f617374206e6f646520696e2070726f6f6620286c65616629000000000000000060648201526084016101db565b50505050505050505050505061306d565b60ff85161580612e77575060ff85166001145b15612eb657612ea38760200151600181518110612e9657612e96615971565b60200260200101516135a7565b9950612eaf818a6155aa565b9850612f3e565b6040517f08c379a000000000000000000000000000000000000000000000000000000000815260206004820152603260248201527f4d65726b6c65547269653a2072656365697665642061206e6f6465207769746860448201527f20616e20756e6b6e6f776e20707265666978000000000000000000000000000060648201526084016101db565b505050505050612fd1565b6040517f08c379a000000000000000000000000000000000000000000000000000000000815260206004820152602860248201527f4d65726b6c65547269653a20726563656976656420616e20756e70617273656160448201527f626c65206e6f646500000000000000000000000000000000000000000000000060648201526084016101db565b5080612fdc816159e5565b9150506126a0565b506040517f08c379a000000000000000000000000000000000000000000000000000000000815260206004820152602560248201527f4d65726b6c65547269653a2072616e206f7574206f662070726f6f6620656c6560448201527f6d656e747300000000000000000000000000000000000000000000000000000060648201526084016101db565b9392505050565b60006130d6826040518060400160405280602081526020017f5361666545524332303a206c6f772d6c6576656c2063616c6c206661696c65648152508573ffffffffffffffffffffffffffffffffffffffff166136da9092919063ffffffff16565b80519091501561318057808060200190518101906130f49190615545565b613180576040517f08c379a000000000000000000000000000000000000000000000000000000000815260206004820152602a60248201527f5361666545524332303a204552433230206f7065726174696f6e20646964206e60448201527f6f7420737563636565640000000000000000000000000000000000000000000060648201526084016101db565b505050565b6040805160c08082018352600080835260208301819052828401819052606083018190526080830181905260a083015260375483517fcc731b020000000000000000000000000000000000000000000000000000000081529351929373ffffffffffffffffffffffffffffffffffffffff9091169263cc731b02926004808401939192918290030181865afa158015613222573d6000803e3d6000fd5b505050506040513d601f19601f820116820180604052508101906106df9190615a42565b600061325b61325585856136e9565b836136f9565b949350505050565b6000670de0b6b3a76400006132a461327b8583615714565b61328d90670de0b6b3a764000061577c565b61329f85670de0b6b3a76400006157f0565b613708565b6132ae90866157f0565b61325b9190615714565b6000818310156132c8578161306d565b5090919050565b6000805a90505b825a6132e290836155c2565b1015613180576132f1826159e5565b91506132d6565b80516060908067ffffffffffffffff81111561331657613316614ec8565b60405190808252806020026020018201604052801561335b57816020015b60408051808201909152606080825260208201528152602001906001900390816133345790505b50915060005b818110156133dd57604051806040016040528085838151811061338657613386615971565b602002602001015181526020016133b58684815181106133a8576133a8615971565b6020026020010151613739565b8152508382815181106133ca576133ca615971565b6020908102919091010152600101613361565b5050919050565b606080604051905082518060011b603f8101601f1916830160405280835250602084016020830160005b8381101561343c578060011b82018184015160001a8060041c8253600f81166001830153505060010161340e565b509295945050505050565b606060008060006134578561374c565b91945092509050600081600181111561347257613472615ae1565b146134ff576040517f08c379a000000000000000000000000000000000000000000000000000000000815260206004820152603960248201527f524c505265616465723a206465636f646564206974656d207479706520666f7260448201527f206279746573206973206e6f7420612064617461206974656d0000000000000060648201526084016101db565b61350982846155aa565b855114613598576040517f08c379a000000000000000000000000000000000000000000000000000000000815260206004820152603460248201527f524c505265616465723a2062797465732076616c756520636f6e7461696e732060448201527f616e20696e76616c69642072656d61696e64657200000000000000000000000060648201526084016101db565b612200856020015184846141b9565b606060208260000151106135c3576135be82613447565b610e5a565b610e5a8261424d565b6060610e5a6135eb83602001516000815181106129a1576129a1615971565b6133e4565b60608251821061360f5750604080516020810190915260008152610e5a565b61306d838384865161362191906155c2565b614263565b600080825184511061363957825161363c565b83515b90505b80821080156136c3575082828151811061365b5761365b615971565b602001015160f81c60f81b7effffffffffffffffffffffffffffffffffffffffffffffffffffffffffffff191684838151811061369a5761369a615971565b01602001517fff0000000000000000000000000000000000000000000000000000000000000016145b156136d35781600101915061363f565b5092915050565b606061325b848460008561443b565b6000818312156132c8578161306d565b60008183126132c8578161306d565b600061306d670de0b6b3a764000083613720866145d1565b61372a91906157f0565b6137349190615714565b614815565b6060610e5a61374783614a54565b614b3d565b60008060008084600001511161380a576040517f08c379a000000000000000000000000000000000000000000000000000000000815260206004820152604a60248201527f524c505265616465723a206c656e677468206f6620616e20524c50206974656d60448201527f206d7573742062652067726561746572207468616e207a65726f20746f20626560648201527f206465636f6461626c6500000000000000000000000000000000000000000000608482015260a4016101db565b6020840151805160001a607f811161382f5760006001600094509450945050506141b2565b60b78111613a3d5760006138446080836155c2565b9050808760000151116138ff576040517f08c379a000000000000000000000000000000000000000000000000000000000815260206004820152604e60248201527f524c505265616465723a206c656e677468206f6620636f6e74656e74206d757360448201527f742062652067726561746572207468616e20737472696e67206c656e6774682060648201527f2873686f727420737472696e6729000000000000000000000000000000000000608482015260a4016101db565b6001838101517fff0000000000000000000000000000000000000000000000000000000000000016908214158061397857507f80000000000000000000000000000000000000000000000000000000000000007fff00000000000000000000000000000000000000000000000000000000000000821610155b613a2a576040517f08c379a000000000000000000000000000000000000000000000000000000000815260206004820152604d60248201527f524c505265616465723a20696e76616c6964207072656669782c2073696e676c60448201527f652062797465203c203078383020617265206e6f74207072656669786564202860648201527f73686f727420737472696e672900000000000000000000000000000000000000608482015260a4016101db565b50600195509350600092506141b2915050565b60bf8111613d8b576000613a5260b7836155c2565b905080876000015111613b0d576040517f08c379a000000000000000000000000000000000000000000000000000000000815260206004820152605160248201527f524c505265616465723a206c656e677468206f6620636f6e74656e74206d757360448201527f74206265203e207468616e206c656e677468206f6620737472696e67206c656e60648201527f67746820286c6f6e6720737472696e6729000000000000000000000000000000608482015260a4016101db565b60018301517fff00000000000000000000000000000000000000000000000000000000000000166000819003613beb576040517f08c379a000000000000000000000000000000000000000000000000000000000815260206004820152604a60248201527f524c505265616465723a206c656e677468206f6620636f6e74656e74206d757360448201527f74206e6f74206861766520616e79206c656164696e67207a65726f7320286c6f60648201527f6e6720737472696e672900000000000000000000000000000000000000000000608482015260a4016101db565b600184015160088302610100031c60378111613caf576040517f08c379a000000000000000000000000000000000000000000000000000000000815260206004820152604860248201527f524c505265616465723a206c656e677468206f6620636f6e74656e74206d757360448201527f742062652067726561746572207468616e20353520627974657320286c6f6e6760648201527f20737472696e6729000000000000000000000000000000000000000000000000608482015260a4016101db565b613cb981846155aa565b895111613d6e576040517f08c379a000000000000000000000000000000000000000000000000000000000815260206004820152604c60248201527f524c505265616465723a206c656e677468206f6620636f6e74656e74206d757360448201527f742062652067726561746572207468616e20746f74616c206c656e677468202860648201527f6c6f6e6720737472696e67290000000000000000000000000000000000000000608482015260a4016101db565b613d798360016155aa565b97509550600094506141b29350505050565b60f78111613e6c576000613da060c0836155c2565b905080876000015111613e5b576040517f08c379a000000000000000000000000000000000000000000000000000000000815260206004820152604a60248201527f524c505265616465723a206c656e677468206f6620636f6e74656e74206d757360448201527f742062652067726561746572207468616e206c697374206c656e67746820287360648201527f686f7274206c6973742900000000000000000000000000000000000000000000608482015260a4016101db565b6001955093508492506141b2915050565b6000613e7960f7836155c2565b905080876000015111613f34576040517f08c379a000000000000000000000000000000000000000000000000000000000815260206004820152604d60248201527f524c505265616465723a206c656e677468206f6620636f6e74656e74206d757360448201527f74206265203e207468616e206c656e677468206f66206c697374206c656e677460648201527f6820286c6f6e67206c6973742900000000000000000000000000000000000000608482015260a4016101db565b60018301517fff00000000000000000000000000000000000000000000000000000000000000166000819003614012576040517f08c379a000000000000000000000000000000000000000000000000000000000815260206004820152604860248201527f524c505265616465723a206c656e677468206f6620636f6e74656e74206d757360448201527f74206e6f74206861766520616e79206c656164696e67207a65726f7320286c6f60648201527f6e67206c69737429000000000000000000000000000000000000000000000000608482015260a4016101db565b600184015160088302610100031c603781116140d6576040517f08c379a000000000000000000000000000000000000000000000000000000000815260206004820152604660248201527f524c505265616465723a206c656e677468206f6620636f6e74656e74206d757360448201527f742062652067726561746572207468616e20353520627974657320286c6f6e6760648201527f206c697374290000000000000000000000000000000000000000000000000000608482015260a4016101db565b6140e081846155aa565b895111614195576040517f08c379a000000000000000000000000000000000000000000000000000000000815260206004820152604a60248201527f524c505265616465723a206c656e677468206f6620636f6e74656e74206d757360448201527f742062652067726561746572207468616e20746f74616c206c656e677468202860648201527f6c6f6e67206c6973742900000000000000000000000000000000000000000000608482015260a4016101db565b6141a08360016155aa565b97509550600194506141b29350505050565b9193909250565b60608167ffffffffffffffff8111156141d4576141d4614ec8565b6040519080825280601f01601f1916602001820160405280156141fe576020820181803683370190505b509050811561306d57600061421384866155aa565b90506020820160005b8481101561423457828101518282015260200161421c565b84811115614243576000858301525b5050509392505050565b6060610e5a8260200151600084600001516141b9565b60608182601f0110156142d2576040517f08c379a000000000000000000000000000000000000000000000000000000000815260206004820152600e60248201527f736c6963655f6f766572666c6f7700000000000000000000000000000000000060448201526064016101db565b82828401101561433e576040517f08c379a000000000000000000000000000000000000000000000000000000000815260206004820152600e60248201527f736c6963655f6f766572666c6f7700000000000000000000000000000000000060448201526064016101db565b818301845110156143ab576040517f08c379a000000000000000000000000000000000000000000000000000000000815260206004820152601160248201527f736c6963655f6f75744f66426f756e647300000000000000000000000000000060448201526064016101db565b6060821580156143ca5760405191506000825260208201604052614432565b6040519150601f8416801560200281840101858101878315602002848b0101015b818310156144035780518352602092830192016143eb565b5050858452601f017fffffffffffffffffffffffffffffffffffffffffffffffffffffffffffffffe016604052505b50949350505050565b6060824710156144cd576040517f08c379a000000000000000000000000000000000000000000000000000000000815260206004820152602660248201527f416464726573733a20696e73756666696369656e742062616c616e636520666f60448201527f722063616c6c000000000000000000000000000000000000000000000000000060648201526084016101db565b73ffffffffffffffffffffffffffffffffffffffff85163b61454b576040517f08c379a000000000000000000000000000000000000000000000000000000000815260206004820152601d60248201527f416464726573733a2063616c6c20746f206e6f6e2d636f6e747261637400000060448201526064016101db565b6000808673ffffffffffffffffffffffffffffffffffffffff1685876040516145749190615b10565b60006040518083038185875af1925050503d80600081146145b1576040519150601f19603f3d011682016040523d82523d6000602084013e6145b6565b606091505b50915091506145c6828286614d9f565b979650505050505050565b600080821361463c576040517f08c379a000000000000000000000000000000000000000000000000000000000815260206004820152600960248201527f554e444546494e4544000000000000000000000000000000000000000000000060448201526064016101db565b6000606061464984614df2565b03609f8181039490941b90931c6c465772b2bbbb5f824b15207a3081018102606090811d6d0388eaa27412d5aca026815d636e018202811d6d0df99ac502031bf953eff472fdcc018202811d6d13cdffb29d51d99322bdff5f2211018202811d6d0a0f742023def783a307a986912e018202811d6d01920d8043ca89b5239253284e42018202811d6c0b7a86d7375468fac667a0a527016c29508e458543d8aa4df2abee7883018302821d6d0139601a2efabe717e604cbb4894018302821d6d02247f7a7b6594320649aa03aba1018302821d7fffffffffffffffffffffffffffffffffffffff73c0c716a594e00d54e3c4cbc9018302821d7ffffffffffffffffffffffffffffffffffffffdc7b88c420e53a9890533129f6f01830290911d7fffffffffffffffffffffffffffffffffffffff465fda27eb4d63ded474e5f832019091027ffffffffffffffff5f6af8f7b3396644f18e157960000000000000000000000000105711340daa0d5f769dba1915cef59f0815a5506027d0267a36c0c95b3975ab3ee5b203a7614a3f75373f047d803ae7b6687f2b393909302929092017d57115e47018c7177eebf7cd370a3356a1b7863008a5ae8028c72b88642840160ae1d92915050565b60007ffffffffffffffffffffffffffffffffffffffffffffffffdb731c958f34d94c1821361484657506000919050565b680755bf798b4a1bf1e582126148b8576040517f08c379a000000000000000000000000000000000000000000000000000000000815260206004820152600c60248201527f4558505f4f564552464c4f57000000000000000000000000000000000000000060448201526064016101db565b6503782dace9d9604e83901b059150600060606bb17217f7d1cf79abc9e3b39884821b056b80000000000000000000000001901d6bb17217f7d1cf79abc9e3b39881029093037fffffffffffffffffffffffffffffffffffffffdbf3ccf1604d263450f02a550481018102606090811d6d0277594991cfc85f6e2461837cd9018202811d7fffffffffffffffffffffffffffffffffffffe5adedaa1cb095af9e4da10e363c018202811d6db1bbb201f443cf962f1a1d3db4a5018202811d7ffffffffffffffffffffffffffffffffffffd38dc772608b0ae56cce01296c0eb018202811d6e05180bb14799ab47a8a8cb2a527d57016d02d16720577bd19bf614176fe9ea6c10fe68e7fd37d0007b713f765084018402831d9081019084017ffffffffffffffffffffffffffffffffffffffe2c69812cf03b0763fd454a8f7e010290911d6e0587f503bb6ea29d25fcb7401964500190910279d835ebba824c98fb31b83b2ca45c000000000000000000000000010574029d9dc38563c32e5c2f6dc192ee70ef65f9978af30260c3939093039290921c92915050565b60408051808201909152600080825260208201526000825111614b1f576040517f08c379a000000000000000000000000000000000000000000000000000000000815260206004820152604a60248201527f524c505265616465723a206c656e677468206f6620616e20524c50206974656d60448201527f206d7573742062652067726561746572207468616e207a65726f20746f20626560648201527f206465636f6461626c6500000000000000000000000000000000000000000000608482015260a4016101db565b50604080518082019091528151815260209182019181019190915290565b60606000806000614b4d8561374c565b919450925090506001816001811115614b6857614b68615ae1565b14614bf5576040517f08c379a000000000000000000000000000000000000000000000000000000000815260206004820152603860248201527f524c505265616465723a206465636f646564206974656d207479706520666f7260448201527f206c697374206973206e6f742061206c697374206974656d000000000000000060648201526084016101db565b8451614c0183856155aa565b14614c8e576040517f08c379a000000000000000000000000000000000000000000000000000000000815260206004820152603260248201527f524c505265616465723a206c697374206974656d2068617320616e20696e766160448201527f6c696420646174612072656d61696e646572000000000000000000000000000060648201526084016101db565b604080516020808252610420820190925290816020015b6040805180820190915260008082526020820152815260200190600190039081614ca55790505093506000835b8651811015614d9357600080614d186040518060400160405280858c60000151614cfc91906155c2565b8152602001858c60200151614d1191906155aa565b905261374c565b509150915060405180604001604052808383614d3491906155aa565b8152602001848b60200151614d4991906155aa565b815250888581518110614d5e57614d5e615971565b6020908102919091010152614d746001856155aa565b9350614d8081836155aa565b614d8a90846155aa565b92505050614cd2565b50845250919392505050565b60608315614dae57508161306d565b825115614dbe5782518084602001fd5b816040517f08c379a00000000000000000000000000000000000000000000000000000000081526004016101db91906151fa565b6000808211614e5d576040517f08c379a000000000000000000000000000000000000000000000000000000000815260206004820152600960248201527f554e444546494e4544000000000000000000000000000000000000000000000060448201526064016101db565b5060016fffffffffffffffffffffffffffffffff821160071b82811c67ffffffffffffffff1060061b1782811c63ffffffff1060051b1782811c61ffff1060041b1782811c60ff10600390811b90911783811c600f1060021b1783811c909110821b1791821c111790565b7f4e487b7100000000000000000000000000000000000000000000000000000000600052604160045260246000fd5b604051601f82017fffffffffffffffffffffffffffffffffffffffffffffffffffffffffffffffe016810167ffffffffffffffff81118282101715614f3e57614f3e614ec8565b604052919050565b73ffffffffffffffffffffffffffffffffffffffff81168114614f6857600080fd5b50565b600082601f830112614f7c57600080fd5b813567ffffffffffffffff811115614f9657614f96614ec8565b614fc760207fffffffffffffffffffffffffffffffffffffffffffffffffffffffffffffffe0601f84011601614ef7565b818152846020838601011115614fdc57600080fd5b816020850160208301376000918101602001919091529392505050565b600060c0828403121561500b57600080fd5b60405160c0810167ffffffffffffffff828210818311171561502f5761502f614ec8565b81604052829350843583526020850135915061504a82614f46565b8160208401526040850135915061506082614f46565b816040840152606085013560608401526080850135608084015260a085013591508082111561508e57600080fd5b5061509b85828601614f6b565b60a0830152505092915050565b600080600080600085870360e08112156150c157600080fd5b863567ffffffffffffffff808211156150d957600080fd5b6150e58a838b01614ff9565b97506020890135965060807fffffffffffffffffffffffffffffffffffffffffffffffffffffffffffffffc08401121561511e57600080fd5b60408901955060c089013592508083111561513857600080fd5b828901925089601f84011261514c57600080fd5b823591508082111561515d57600080fd5b508860208260051b840101111561517357600080fd5b959894975092955050506020019190565b60005b8381101561519f578181015183820152602001615187565b838111156122bc5750506000910152565b600081518084526151c8816020860160208601615184565b601f017fffffffffffffffffffffffffffffffffffffffffffffffffffffffffffffffe0169290920160200192915050565b60208152600061306d60208301846151b0565b60006020828403121561521f57600080fd5b5035919050565b60006020828403121561523857600080fd5b813567ffffffffffffffff81111561524f57600080fd5b61325b84828501614ff9565b803567ffffffffffffffff8116811461527357600080fd5b919050565b60006020828403121561528a57600080fd5b61306d8261525b565b8015158114614f6857600080fd5b600080600080600080600060c0888a0312156152bc57600080fd5b87356152c781614f46565b965060208801359550604088013594506152e36060890161525b565b935060808801356152f381615293565b925060a088013567ffffffffffffffff8082111561531057600080fd5b818a0191508a601f83011261532457600080fd5b81358181111561533357600080fd5b8b602082850101111561534557600080fd5b60208301945080935050505092959891949750929550565b6000806000806080858703121561537357600080fd5b843561537e81614f46565b9350602085013561538e81614f46565b9250604085013561539e81614f46565b915060608501356153ae81614f46565b939692955090935050565b6000602082840312156153cb57600080fd5b815161306d81614f46565b80516fffffffffffffffffffffffffffffffff8116811461527357600080fd5b60006060828403121561540857600080fd5b6040516060810181811067ffffffffffffffff8211171561542b5761542b614ec8565b6040528251815261543e602084016153d6565b602082015261544f604084016153d6565b60408201529392505050565b60006080828403121561546d57600080fd5b6040516080810181811067ffffffffffffffff8211171561549057615490614ec8565b8060405250823581526020830135602082015260408301356040820152606083013560608201528091505092915050565b600067ffffffffffffffff808411156154dc576154dc614ec8565b8360051b60206154ed818301614ef7565b86815291850191818101903684111561550557600080fd5b865b848110156155395780358681111561551f5760008081fd5b61552b36828b01614f6b565b845250918301918301615507565b50979650505050505050565b60006020828403121561555757600080fd5b815161306d81615293565b60006020828403121561557457600080fd5b5051919050565b7f4e487b7100000000000000000000000000000000000000000000000000000000600052601160045260246000fd5b600082198211156155bd576155bd61557b565b500190565b6000828210156155d4576155d461557b565b500390565b600067ffffffffffffffff808316818516818304811182151516156156005761560061557b565b02949350505050565b600067ffffffffffffffff80831681851680830382111561562c5761562c61557b565b01949350505050565b868152600073ffffffffffffffffffffffffffffffffffffffff808816602084015280871660408401525084606083015283608083015260c060a083015261568060c08301846151b0565b98975050505050505050565b8681528560208201527fffffffffffffffff0000000000000000000000000000000000000000000000008560c01b16604082015283151560f81b6048820152818360498301376000910160490190815295945050505050565b7f4e487b7100000000000000000000000000000000000000000000000000000000600052601260045260246000fd5b600082615723576157236156e5565b7fffffffffffffffffffffffffffffffffffffffffffffffffffffffffffffffff83147f8000000000000000000000000000000000000000000000000000000000000000831416156157775761577761557b565b500590565b6000808312837f8000000000000000000000000000000000000000000000000000000000000000018312811516156157b6576157b661557b565b837f7fffffffffffffffffffffffffffffffffffffffffffffffffffffffffffffff0183138116156157ea576157ea61557b565b50500390565b60007f7fffffffffffffffffffffffffffffffffffffffffffffffffffffffffffffff6000841360008413858304851182821616156158315761583161557b565b7f8000000000000000000000000000000000000000000000000000000000000000600087128682058812818416161561586c5761586c61557b565b600087129250878205871284841616156158885761588861557b565b8785058712818416161561589e5761589e61557b565b505050929093029392505050565b6000808212827f7fffffffffffffffffffffffffffffffffffffffffffffffffffffffffffffff038413811516156158e6576158e661557b565b827f800000000000000000000000000000000000000000000000000000000000000003841281161561591a5761591a61557b565b50500190565b6000817fffffffffffffffffffffffffffffffffffffffffffffffffffffffffffffffff04831182151516156159585761595861557b565b500290565b60008261596c5761596c6156e5565b500490565b7f4e487b7100000000000000000000000000000000000000000000000000000000600052603260045260246000fd5b600060ff8316806159b3576159b36156e5565b8060ff84160691505092915050565b600060ff821660ff8416808210156159dc576159dc61557b565b90039392505050565b60007fffffffffffffffffffffffffffffffffffffffffffffffffffffffffffffffff8203615a1657615a1661557b565b5060010190565b805163ffffffff8116811461527357600080fd5b805160ff8116811461527357600080fd5b600060c08284031215615a5457600080fd5b60405160c0810181811067ffffffffffffffff82111715615a7757615a77614ec8565b604052615a8383615a1d565b8152615a9160208401615a31565b6020820152615aa260408401615a31565b6040820152615ab360608401615a1d565b6060820152615ac460808401615a1d565b6080820152615ad560a084016153d6565b60a08201529392505050565b7f4e487b7100000000000000000000000000000000000000000000000000000000600052602160045260246000fd5b60008251615b22818460208701615184565b919091019291505056fea164736f6c634300080f000a",
  "devdoc": {
    "version": 1,
    "kind": "dev",
    "methods": {
      "GUARDIAN()": {
        "returns": {
          "_0": "Address of the guardian."
        }
      },
      "L2_ORACLE()": {},
      "SYSTEM_CONFIG()": {},
      "depositTransaction(address,uint256,uint256,uint64,bool,bytes)": {
        "params": {
          "_data": "Data to trigger the recipient with.",
          "_gasLimit": "Amount of L2 gas to purchase by burning gas on L1.",
          "_isCreation": "Whether or not the transaction is a contract creation.",
          "_mint": "Native token value to deposit into L2.",
          "_to": "Target address on L2.",
          "_value": "Native token value to send to the recipient."
        }
      },
      "finalizeWithdrawalTransaction((uint256,address,address,uint256,uint256,bytes))": {
        "params": {
          "_tx": "Withdrawal transaction to finalize."
        }
      },
      "guardian()": {
        "returns": {
          "_0": "Address of the guardian."
        }
      },
      "initialize(address,address,address,address)": {
        "params": {
          "_l2Oracle": "Address of the L2OutputOracle contract.",
          "_nativeTokenAddress": "Address of the native token",
          "_superchainConfig": "Contract of the SuperchainConfig.",
          "_systemConfig": "Address of the SystemConfig contract."
        }
      },
      "isOutputFinalized(uint256)": {
        "params": {
          "_l2OutputIndex": "Index of the L2 output to check."
        },
        "returns": {
          "_0": "Whether or not the output is finalized."
        }
      },
      "minimumGasLimit(uint64)": {
        "params": {
          "_byteCount": "Number of bytes in the calldata."
        },
        "returns": {
          "_0": "The minimum gas limit for a deposit."
        }
      },
      "paused()": {
        "returns": {
          "paused_": "Whether or not the contract is paused."
        }
      },
      "proveWithdrawalTransaction((uint256,address,address,uint256,uint256,bytes),uint256,(bytes32,bytes32,bytes32,bytes32),bytes[])": {
        "params": {
          "_l2OutputIndex": "L2 output index to prove against.",
          "_outputRootProof": "Inclusion proof of the L2ToL1MessagePasser contract's storage root.",
          "_tx": "Withdrawal transaction to finalize.",
          "_withdrawalProof": "Inclusion proof of the withdrawal in L2ToL1MessagePasser contract."
        }
      }
    },
    "events": {
      "TransactionDeposited(address,address,uint256,bytes)": {
        "params": {
          "from": "Address that triggered the deposit transaction.",
          "opaqueData": "ABI encoded deposit data to be parsed off-chain.",
          "to": "Address that the deposit transaction is directed to.",
          "version": "Version of this deposit transaction event."
        }
      },
      "WithdrawalFinalized(bytes32,bool)": {
        "params": {
          "success": "Whether the withdrawal transaction was successful.",
          "withdrawalHash": "Hash of the withdrawal transaction."
        }
      },
      "WithdrawalProven(bytes32,address,address)": {
        "params": {
          "from": "Address that triggered the withdrawal transaction.",
          "to": "Address that the withdrawal transaction is directed to.",
          "withdrawalHash": "Hash of the withdrawal transaction."
        }
      }
    }
  },
  "numDeployments": 1,
  "solcInputHash": "0x0000000000000000000000000000000000000000000000000000000000000000",
  "storageLayout": {
    "storage": [
      {
        "astId": 47744,
        "contract": "src/L1/OptimismPortal.sol:OptimismPortal",
        "label": "_initialized",
        "offset": 0,
        "slot": "0",
        "type": "t_uint8"
      },
      {
        "astId": 47747,
        "contract": "src/L1/OptimismPortal.sol:OptimismPortal",
        "label": "_initializing",
        "offset": 1,
        "slot": "0",
        "type": "t_bool"
      },
      {
        "astId": 79624,
        "contract": "src/L1/OptimismPortal.sol:OptimismPortal",
        "label": "params",
        "offset": 0,
        "slot": "1",
        "type": "t_struct(ResourceParams)79607_storage"
      },
      {
        "astId": 79629,
        "contract": "src/L1/OptimismPortal.sol:OptimismPortal",
        "label": "__gap",
        "offset": 0,
        "slot": "2",
        "type": "t_array(t_uint256)48_storage"
      },
      {
        "astId": 77637,
        "contract": "src/L1/OptimismPortal.sol:OptimismPortal",
        "label": "l2Sender",
        "offset": 0,
        "slot": "50",
        "type": "t_address"
      },
      {
        "astId": 77642,
        "contract": "src/L1/OptimismPortal.sol:OptimismPortal",
        "label": "finalizedWithdrawals",
        "offset": 0,
        "slot": "51",
        "type": "t_mapping(t_bytes32,t_bool)"
      },
      {
        "astId": 77648,
        "contract": "src/L1/OptimismPortal.sol:OptimismPortal",
        "label": "provenWithdrawals",
        "offset": 0,
        "slot": "52",
        "type": "t_mapping(t_bytes32,t_struct(ProvenWithdrawal)77626_storage)"
      },
      {
        "astId": 77651,
        "contract": "src/L1/OptimismPortal.sol:OptimismPortal",
        "label": "spacer_53_0_1",
        "offset": 0,
        "slot": "53",
        "type": "t_bool"
      },
      {
        "astId": 77655,
        "contract": "src/L1/OptimismPortal.sol:OptimismPortal",
        "label": "superchainConfig",
        "offset": 1,
        "slot": "53",
        "type": "t_contract(SuperchainConfig)80148"
      },
      {
        "astId": 77659,
        "contract": "src/L1/OptimismPortal.sol:OptimismPortal",
        "label": "l2Oracle",
        "offset": 0,
        "slot": "54",
        "type": "t_contract(L2OutputOracle)77542"
      },
      {
        "astId": 77663,
        "contract": "src/L1/OptimismPortal.sol:OptimismPortal",
        "label": "systemConfig",
        "offset": 0,
        "slot": "55",
        "type": "t_contract(SystemConfig)81006"
      },
      {
        "astId": 77666,
        "contract": "src/L1/OptimismPortal.sol:OptimismPortal",
        "label": "nativeTokenAddress",
        "offset": 0,
        "slot": "56",
        "type": "t_address"
      },
      {
        "astId": 77668,
        "contract": "src/L1/OptimismPortal.sol:OptimismPortal",
        "label": "depositedAmount",
        "offset": 0,
        "slot": "57",
        "type": "t_uint256"
      }
    ],
    "types": {
      "t_address": {
        "encoding": "inplace",
        "label": "address",
        "numberOfBytes": "20"
      },
      "t_array(t_uint256)48_storage": {
        "encoding": "inplace",
        "label": "uint256[48]",
        "numberOfBytes": "1536",
        "base": "t_uint256"
      },
      "t_bool": {
        "encoding": "inplace",
        "label": "bool",
        "numberOfBytes": "1"
      },
      "t_bytes32": {
        "encoding": "inplace",
        "label": "bytes32",
        "numberOfBytes": "32"
      },
      "t_contract(L2OutputOracle)77542": {
        "encoding": "inplace",
        "label": "contract L2OutputOracle",
        "numberOfBytes": "20"
      },
      "t_contract(SuperchainConfig)80148": {
        "encoding": "inplace",
        "label": "contract SuperchainConfig",
        "numberOfBytes": "20"
      },
      "t_contract(SystemConfig)81006": {
        "encoding": "inplace",
        "label": "contract SystemConfig",
        "numberOfBytes": "20"
      },
      "t_mapping(t_bytes32,t_bool)": {
        "encoding": "mapping",
        "key": "t_bytes32",
        "label": "mapping(bytes32 => bool)",
        "numberOfBytes": "32",
        "value": "t_bool"
      },
      "t_mapping(t_bytes32,t_struct(ProvenWithdrawal)77626_storage)": {
        "encoding": "mapping",
        "key": "t_bytes32",
        "label": "mapping(bytes32 => struct OptimismPortal.ProvenWithdrawal)",
        "numberOfBytes": "32",
        "value": "t_struct(ProvenWithdrawal)77626_storage"
      },
      "t_struct(ProvenWithdrawal)77626_storage": {
        "encoding": "inplace",
        "label": "struct OptimismPortal.ProvenWithdrawal",
        "numberOfBytes": "64",
        "members": [
          {
            "astId": 77621,
            "contract": "src/L1/OptimismPortal.sol:OptimismPortal",
            "label": "outputRoot",
            "offset": 0,
            "slot": "0",
            "type": "t_bytes32"
          },
          {
            "astId": 77623,
            "contract": "src/L1/OptimismPortal.sol:OptimismPortal",
            "label": "timestamp",
            "offset": 0,
            "slot": "1",
            "type": "t_uint128"
          },
          {
            "astId": 77625,
            "contract": "src/L1/OptimismPortal.sol:OptimismPortal",
            "label": "l2OutputIndex",
            "offset": 16,
            "slot": "1",
            "type": "t_uint128"
          }
        ]
      },
      "t_struct(ResourceParams)79607_storage": {
        "encoding": "inplace",
        "label": "struct ResourceMetering.ResourceParams",
        "numberOfBytes": "32",
        "members": [
          {
            "astId": 79602,
            "contract": "src/L1/OptimismPortal.sol:OptimismPortal",
            "label": "prevBaseFee",
            "offset": 0,
            "slot": "0",
            "type": "t_uint128"
          },
          {
            "astId": 79604,
            "contract": "src/L1/OptimismPortal.sol:OptimismPortal",
            "label": "prevBoughtGas",
            "offset": 16,
            "slot": "0",
            "type": "t_uint64"
          },
          {
            "astId": 79606,
            "contract": "src/L1/OptimismPortal.sol:OptimismPortal",
            "label": "prevBlockNum",
            "offset": 24,
            "slot": "0",
            "type": "t_uint64"
          }
        ]
      },
      "t_uint128": {
        "encoding": "inplace",
        "label": "uint128",
        "numberOfBytes": "16"
      },
      "t_uint256": {
        "encoding": "inplace",
        "label": "uint256",
        "numberOfBytes": "32"
      },
      "t_uint64": {
        "encoding": "inplace",
        "label": "uint64",
        "numberOfBytes": "8"
      },
      "t_uint8": {
        "encoding": "inplace",
        "label": "uint8",
        "numberOfBytes": "1"
      }
    }
  },
  "transactionHash": "0x6331033bea6b3ecc2c614dcd89067cc3419faf5d0fafe2d2fdc4a3307cddc663",
  "userdoc": {
    "version": 1,
    "kind": "user",
    "methods": {
      "GUARDIAN()": {
        "notice": "Getter function for the address of the guardian.         Public getter is legacy and will be removed in the future. Use `SuperchainConfig.guardian()` instead."
      },
      "L2_ORACLE()": {
        "notice": "Getter for the L2OutputOracle"
      },
      "SYSTEM_CONFIG()": {
        "notice": "Getter for the SystemConfig"
      },
      "constructor": {
        "notice": "Constructs the OptimismPortal contract."
      },
      "depositTransaction(address,uint256,uint256,uint64,bool,bytes)": {
        "notice": "deriving deposit transactions. Note that if a deposit is made by a contract, its         address will be aliased when retrieved using `tx.origin` or `msg.sender`. Consider         using the CrossDomainMessenger contracts for a simpler developer experience."
      },
      "donateETH()": {
        "notice": "Accepts ETH value without triggering a deposit to L2.         This function mainly exists for the sake of the migration between the legacy         Optimism system and Bedrock."
      },
      "finalizeWithdrawalTransaction((uint256,address,address,uint256,uint256,bytes))": {
        "notice": "Finalizes a withdrawal transaction."
      },
      "finalizedWithdrawals(bytes32)": {
        "notice": "A list of withdrawal hashes which have been successfully finalized."
      },
      "guardian()": {
        "notice": "Getter function for the address of the guardian.         Public getter is legacy and will be removed in the future. Use `SuperchainConfig.guardian()` instead."
      },
      "initialize(address,address,address,address)": {
        "notice": "Initializer."
      },
      "isOutputFinalized(uint256)": {
        "notice": "Determine if a given output is finalized.         Reverts if the call to L2_ORACLE.getL2Output reverts.         Returns a boolean otherwise."
      },
      "l2Oracle()": {
        "notice": "Address of the L2OutputOracle contract."
      },
      "l2Sender()": {
        "notice": "Address of the L2 account which initiated a withdrawal in this transaction.         If the of this variable is the default L2 sender address, then we are NOT inside of         a call to finalizeWithdrawalTransaction."
      },
      "minimumGasLimit(uint64)": {
        "notice": "Computes the minimum gas limit for a deposit.         The minimum gas limit linearly increases based on the size of the calldata.         This is to prevent users from creating L2 resource usage without paying for it.         This function can be used when interacting with the portal to ensure forwards         compatibility."
      },
      "nativeTokenAddress()": {
        "notice": "Address of native (ERC-20 token)"
      },
      "params()": {
        "notice": "EIP-1559 style gas parameters."
      },
      "paused()": {
        "notice": "Getter for the current paused status."
      },
      "proveWithdrawalTransaction((uint256,address,address,uint256,uint256,bytes),uint256,(bytes32,bytes32,bytes32,bytes32),bytes[])": {
        "notice": "Proves a withdrawal transaction."
      },
      "provenWithdrawals(bytes32)": {
        "notice": "A mapping of withdrawal hashes to `ProvenWithdrawal` data."
      },
      "superchainConfig()": {
        "notice": "Contract of the Superchain Config."
      },
      "systemConfig()": {
        "notice": "Address of the SystemConfig contract."
      },
      "version()": {
        "notice": "Semantic version."
      }
    },
    "events": {
      "TransactionDeposited(address,address,uint256,bytes)": {
        "notice": "Emitted when a transaction is deposited from L1 to L2.         The parameters of this event are read by the rollup node and used to derive deposit         transactions on L2."
      },
      "WithdrawalFinalized(bytes32,bool)": {
        "notice": "Emitted when a withdrawal transaction is finalized."
      },
      "WithdrawalProven(bytes32,address,address)": {
        "notice": "Emitted when a withdrawal transaction is proven."
      }
    },
    "notice": "The OptimismPortal is a low-level contract responsible for passing messages between L1         and L2. Messages sent directly to the OptimismPortal have no form of replayability.         Users are encouraged to use the L1CrossDomainMessenger for a higher-level interface."
  }
}