{"abi":[{"type":"function","name":"getStorageAt","inputs":[{"name":"offset","type":"uint256","internalType":"uint256"},{"name":"length","type":"uint256","internalType":"uint256"}],"outputs":[{"name":"","type":"bytes","internalType":"bytes"}],"stateMutability":"view"},{"type":"function","name":"simulateAndRevert","inputs":[{"name":"targetContract","type":"address","internalType":"address"},{"name":"calldataPayload","type":"bytes","internalType":"bytes"}],"outputs":[],"stateMutability":"nonpayable"}],"bytecode":{"object":"0x608060405234801561001057600080fd5b50610392806100206000396000f3fe608060405234801561001057600080fd5b50600436106100365760003560e01c80635624b25b1461003b578063b4faba0914610064575b600080fd5b61004e610049366004610122565b610079565b60405161005b9190610144565b60405180910390f35b6100776100723660046101e6565b6100ff565b005b60606000610088836020610310565b67ffffffffffffffff8111156100a0576100a06101b7565b6040519080825280601f01601f1916602001820160405280156100ca576020820181803683370190505b50905060005b838110156100f75784810154602080830284010152806100ef8161034d565b9150506100d0565b509392505050565b600080825160208401855af480600052503d6020523d600060403e60403d016000fd5b6000806040838503121561013557600080fd5b50508035926020909101359150565b600060208083528351808285015260005b8181101561017157858101830151858201604001528201610155565b81811115610183576000604083870101525b50601f017fffffffffffffffffffffffffffffffffffffffffffffffffffffffffffffffe016929092016040019392505050565b7f4e487b7100000000000000000000000000000000000000000000000000000000600052604160045260246000fd5b600080604083850312156101f957600080fd5b823573ffffffffffffffffffffffffffffffffffffffff8116811461021d57600080fd5b9150602083013567ffffffffffffffff8082111561023a57600080fd5b818501915085601f83011261024e57600080fd5b813581811115610260576102606101b7565b604051601f82017fffffffffffffffffffffffffffffffffffffffffffffffffffffffffffffffe0908116603f011681019083821181831017156102a6576102a66101b7565b816040528281528860208487010111156102bf57600080fd5b8260208601602083013760006020848301015280955050505050509250929050565b7f4e487b7100000000000000000000000000000000000000000000000000000000600052601160045260246000fd5b6000817fffffffffffffffffffffffffffffffffffffffffffffffffffffffffffffffff0483118215151615610348576103486102e1565b500290565b60007fffffffffffffffffffffffffffffffffffffffffffffffffffffffffffffffff820361037e5761037e6102e1565b506001019056fea164736f6c634300080f000a","linkReferences":{}},"methodIdentifiers":{"getStorageAt(uint256,uint256)":"5624b25b","simulateAndRevert(address,bytes)":"b4faba09"},"storageLayout":{"storage":[],"types":{}},"userdoc":{"version":1,"kind":"user","notice":"See https://github.com/gnosis/util-contracts/blob/bb5fe5fb5df6d8400998094fb1b32a178a47c3a1/contracts/StorageAccessible.sol"},"devdoc":{"version":1,"kind":"dev","methods":{"getStorageAt(uint256,uint256)":{"details":"Reads `length` bytes of storage in the currents contract","params":{"length":"- the number of words (32 bytes) of data to read","offset":"- the offset in the current contract's storage in words to start reading from"},"returns":{"_0":"the bytes that were read."}},"simulateAndRevert(address,bytes)":{"details":"Performs a delegetecall on a targetContract in the context of self. Internally reverts execution to avoid side effects (making it static). This method reverts with data equal to `abi.encode(bool(success), bytes(response))`. Specifically, the `returndata` after a call to this method will be: `success:bool || response.length:uint256 || response:bytes`.","params":{"calldataPayload":"Calldata that should be sent to the target contract (encoded method name and arguments).","targetContract":"Address of the contract containing the code to execute."}}},"title":"StorageAccessible - generic base contract that allows callers to access all internal storage."},"id":154}