{"abi":[{"type":"function","name":"getStorageAt","inputs":[{"name":"offset","type":"uint256","internalType":"uint256"},{"name":"length","type":"uint256","internalType":"uint256"}],"outputs":[{"name":"","type":"bytes","internalType":"bytes"}],"stateMutability":"view"},{"type":"function","name":"simulateAndRevert","inputs":[{"name":"targetContract","type":"address","internalType":"address"},{"name":"calldataPayload","type":"bytes","internalType":"bytes"}],"outputs":[],"stateMutability":"nonpayable"}],"bytecode":{"object":"0x6080604052348015600e575f80fd5b506102ee8061001c5f395ff3fe608060405234801561000f575f80fd5b5060043610610034575f3560e01c80635624b25b14610038578063b4faba0914610061575b5f80fd5b61004b610046366004610111565b610076565b6040516100589190610131565b60405180910390f35b61007461006f3660046101b1565b6100f2565b005b60605f6100848360206102a5565b67ffffffffffffffff81111561009c5761009c610184565b6040519080825280601f01601f1916602001820160405280156100c6576020820181803683370190505b5090505f5b838110156100e857848101546020808302840101526001016100cb565b5090505b92915050565b5f80825160208401855af4805f52503d6020523d5f60403e60403d015ffd5b5f8060408385031215610122575f80fd5b50508035926020909101359150565b602081525f82518060208401528060208501604085015e5f6040828501015260407fffffffffffffffffffffffffffffffffffffffffffffffffffffffffffffffe0601f83011684010191505092915050565b7f4e487b71000000000000000000000000000000000000000000000000000000005f52604160045260245ffd5b5f80604083850312156101c2575f80fd5b823573ffffffffffffffffffffffffffffffffffffffff811681146101e5575f80fd5b9150602083013567ffffffffffffffff80821115610201575f80fd5b818501915085601f830112610214575f80fd5b81358181111561022657610226610184565b604051601f82017fffffffffffffffffffffffffffffffffffffffffffffffffffffffffffffffe0908116603f0116810190838211818310171561026c5761026c610184565b81604052828152886020848701011115610284575f80fd5b826020860160208301375f6020848301015280955050505050509250929050565b80820281158282048414176100ec577f4e487b71000000000000000000000000000000000000000000000000000000005f52601160045260245ffdfea164736f6c6343000819000a","linkReferences":{}},"methodIdentifiers":{"getStorageAt(uint256,uint256)":"5624b25b","simulateAndRevert(address,bytes)":"b4faba09"},"storageLayout":{"storage":[],"types":{}},"userdoc":{"version":1,"kind":"user","notice":"See https://github.com/gnosis/util-contracts/blob/bb5fe5fb5df6d8400998094fb1b32a178a47c3a1/contracts/StorageAccessible.sol"},"devdoc":{"version":1,"kind":"dev","methods":{"getStorageAt(uint256,uint256)":{"details":"Reads `length` bytes of storage in the currents contract","params":{"length":"- the number of words (32 bytes) of data to read","offset":"- the offset in the current contract's storage in words to start reading from"},"returns":{"_0":"the bytes that were read."}},"simulateAndRevert(address,bytes)":{"details":"Performs a delegetecall on a targetContract in the context of self. Internally reverts execution to avoid side effects (making it static). This method reverts with data equal to `abi.encode(bool(success), bytes(response))`. Specifically, the `returndata` after a call to this method will be: `success:bool || response.length:uint256 || response:bytes`.","params":{"calldataPayload":"Calldata that should be sent to the target contract (encoded method name and arguments).","targetContract":"Address of the contract containing the code to execute."}}},"title":"StorageAccessible - generic base contract that allows callers to access all internal storage."},"id":105}