{"abi":[{"type":"constructor","inputs":[],"stateMutability":"nonpayable"},{"type":"receive","stateMutability":"payable"},{"type":"function","name":"MESSENGER","inputs":[],"outputs":[{"name":"","type":"address","internalType":"contract ICrossDomainMessenger"}],"stateMutability":"view"},{"type":"function","name":"OTHER_BRIDGE","inputs":[],"outputs":[{"name":"","type":"address","internalType":"contract StandardBridge"}],"stateMutability":"view"},{"type":"function","name":"bridgeERC20","inputs":[{"name":"_localToken","type":"address","internalType":"address"},{"name":"_remoteToken","type":"address","internalType":"address"},{"name":"_amount","type":"uint256","internalType":"uint256"},{"name":"_minGasLimit","type":"uint32","internalType":"uint32"},{"name":"_extraData","type":"bytes","internalType":"bytes"}],"outputs":[],"stateMutability":"nonpayable"},{"type":"function","name":"bridgeERC20To","inputs":[{"name":"_localToken","type":"address","internalType":"address"},{"name":"_remoteToken","type":"address","internalType":"address"},{"name":"_to","type":"address","internalType":"address"},{"name":"_amount","type":"uint256","internalType":"uint256"},{"name":"_minGasLimit","type":"uint32","internalType":"uint32"},{"name":"_extraData","type":"bytes","internalType":"bytes"}],"outputs":[],"stateMutability":"nonpayable"},{"type":"function","name":"bridgeETH","inputs":[{"name":"_minGasLimit","type":"uint32","internalType":"uint32"},{"name":"_extraData","type":"bytes","internalType":"bytes"}],"outputs":[],"stateMutability":"payable"},{"type":"function","name":"bridgeETHTo","inputs":[{"name":"_to","type":"address","internalType":"address"},{"name":"_minGasLimit","type":"uint32","internalType":"uint32"},{"name":"_extraData","type":"bytes","internalType":"bytes"}],"outputs":[],"stateMutability":"payable"},{"type":"function","name":"depositERC20","inputs":[{"name":"_l1Token","type":"address","internalType":"address"},{"name":"_l2Token","type":"address","internalType":"address"},{"name":"_amount","type":"uint256","internalType":"uint256"},{"name":"_minGasLimit","type":"uint32","internalType":"uint32"},{"name":"_extraData","type":"bytes","internalType":"bytes"}],"outputs":[],"stateMutability":"nonpayable"},{"type":"function","name":"depositERC20To","inputs":[{"name":"_l1Token","type":"address","internalType":"address"},{"name":"_l2Token","type":"address","internalType":"address"},{"name":"_to","type":"address","internalType":"address"},{"name":"_amount","type":"uint256","internalType":"uint256"},{"name":"_minGasLimit","type":"uint32","internalType":"uint32"},{"name":"_extraData","type":"bytes","internalType":"bytes"}],"outputs":[],"stateMutability":"nonpayable"},{"type":"function","name":"depositETH","inputs":[{"name":"_minGasLimit","type":"uint32","internalType":"uint32"},{"name":"_extraData","type":"bytes","internalType":"bytes"}],"outputs":[],"stateMutability":"payable"},{"type":"function","name":"depositETHTo","inputs":[{"name":"_to","type":"address","internalType":"address"},{"name":"_minGasLimit","type":"uint32","internalType":"uint32"},{"name":"_extraData","type":"bytes","internalType":"bytes"}],"outputs":[],"stateMutability":"payable"},{"type":"function","name":"deposits","inputs":[{"name":"","type":"address","internalType":"address"},{"name":"","type":"address","internalType":"address"}],"outputs":[{"name":"","type":"uint256","internalType":"uint256"}],"stateMutability":"view"},{"type":"function","name":"finalizeBridgeERC20","inputs":[{"name":"_localToken","type":"address","internalType":"address"},{"name":"_remoteToken","type":"address","internalType":"address"},{"name":"_from","type":"address","internalType":"address"},{"name":"_to","type":"address","internalType":"address"},{"name":"_amount","type":"uint256","internalType":"uint256"},{"name":"_extraData","type":"bytes","internalType":"bytes"}],"outputs":[],"stateMutability":"nonpayable"},{"type":"function","name":"finalizeBridgeETH","inputs":[{"name":"_from","type":"address","internalType":"address"},{"name":"_to","type":"address","internalType":"address"},{"name":"_amount","type":"uint256","internalType":"uint256"},{"name":"_extraData","type":"bytes","internalType":"bytes"}],"outputs":[],"stateMutability":"payable"},{"type":"function","name":"finalizeERC20Withdrawal","inputs":[{"name":"_l1Token","type":"address","internalType":"address"},{"name":"_l2Token","type":"address","internalType":"address"},{"name":"_from","type":"address","internalType":"address"},{"name":"_to","type":"address","internalType":"address"},{"name":"_amount","type":"uint256","internalType":"uint256"},{"name":"_extraData","type":"bytes","internalType":"bytes"}],"outputs":[],"stateMutability":"nonpayable"},{"type":"function","name":"finalizeETHWithdrawal","inputs":[{"name":"_from","type":"address","internalType":"address"},{"name":"_to","type":"address","internalType":"address"},{"name":"_amount","type":"uint256","internalType":"uint256"},{"name":"_extraData","type":"bytes","internalType":"bytes"}],"outputs":[],"stateMutability":"payable"},{"type":"function","name":"initVersion","inputs":[],"outputs":[{"name":"","type":"uint8","internalType":"uint8"}],"stateMutability":"view"},{"type":"function","name":"initialize","inputs":[{"name":"_messenger","type":"address","internalType":"contract ICrossDomainMessenger"},{"name":"_systemConfig","type":"address","internalType":"contract ISystemConfig"}],"outputs":[],"stateMutability":"nonpayable"},{"type":"function","name":"l2TokenBridge","inputs":[],"outputs":[{"name":"","type":"address","internalType":"address"}],"stateMutability":"view"},{"type":"function","name":"messenger","inputs":[],"outputs":[{"name":"","type":"address","internalType":"contract ICrossDomainMessenger"}],"stateMutability":"view"},{"type":"function","name":"otherBridge","inputs":[],"outputs":[{"name":"","type":"address","internalType":"contract StandardBridge"}],"stateMutability":"view"},{"type":"function","name":"paused","inputs":[],"outputs":[{"name":"","type":"bool","internalType":"bool"}],"stateMutability":"view"},{"type":"function","name":"proxyAdmin","inputs":[],"outputs":[{"name":"","type":"address","internalType":"contract IProxyAdmin"}],"stateMutability":"view"},{"type":"function","name":"proxyAdminOwner","inputs":[],"outputs":[{"name":"","type":"address","internalType":"address"}],"stateMutability":"view"},{"type":"function","name":"superchainConfig","inputs":[],"outputs":[{"name":"","type":"address","internalType":"contract ISuperchainConfig"}],"stateMutability":"view"},{"type":"function","name":"systemConfig","inputs":[],"outputs":[{"name":"","type":"address","internalType":"contract ISystemConfig"}],"stateMutability":"view"},{"type":"function","name":"upgrade","inputs":[{"name":"_systemConfig","type":"address","internalType":"contract ISystemConfig"}],"outputs":[],"stateMutability":"nonpayable"},{"type":"function","name":"version","inputs":[],"outputs":[{"name":"","type":"string","internalType":"string"}],"stateMutability":"view"},{"type":"event","name":"ERC20BridgeFinalized","inputs":[{"name":"localToken","type":"address","indexed":true,"internalType":"address"},{"name":"remoteToken","type":"address","indexed":true,"internalType":"address"},{"name":"from","type":"address","indexed":true,"internalType":"address"},{"name":"to","type":"address","indexed":false,"internalType":"address"},{"name":"amount","type":"uint256","indexed":false,"internalType":"uint256"},{"name":"extraData","type":"bytes","indexed":false,"internalType":"bytes"}],"anonymous":false},{"type":"event","name":"ERC20BridgeInitiated","inputs":[{"name":"localToken","type":"address","indexed":true,"internalType":"address"},{"name":"remoteToken","type":"address","indexed":true,"internalType":"address"},{"name":"from","type":"address","indexed":true,"internalType":"address"},{"name":"to","type":"address","indexed":false,"internalType":"address"},{"name":"amount","type":"uint256","indexed":false,"internalType":"uint256"},{"name":"extraData","type":"bytes","indexed":false,"internalType":"bytes"}],"anonymous":false},{"type":"event","name":"ERC20DepositInitiated","inputs":[{"name":"l1Token","type":"address","indexed":true,"internalType":"address"},{"name":"l2Token","type":"address","indexed":true,"internalType":"address"},{"name":"from","type":"address","indexed":true,"internalType":"address"},{"name":"to","type":"address","indexed":false,"internalType":"address"},{"name":"amount","type":"uint256","indexed":false,"internalType":"uint256"},{"name":"extraData","type":"bytes","indexed":false,"internalType":"bytes"}],"anonymous":false},{"type":"event","name":"ERC20WithdrawalFinalized","inputs":[{"name":"l1Token","type":"address","indexed":true,"internalType":"address"},{"name":"l2Token","type":"address","indexed":true,"internalType":"address"},{"name":"from","type":"address","indexed":true,"internalType":"address"},{"name":"to","type":"address","indexed":false,"internalType":"address"},{"name":"amount","type":"uint256","indexed":false,"internalType":"uint256"},{"name":"extraData","type":"bytes","indexed":false,"internalType":"bytes"}],"anonymous":false},{"type":"event","name":"ETHBridgeFinalized","inputs":[{"name":"from","type":"address","indexed":true,"internalType":"address"},{"name":"to","type":"address","indexed":true,"internalType":"address"},{"name":"amount","type":"uint256","indexed":false,"internalType":"uint256"},{"name":"extraData","type":"bytes","indexed":false,"internalType":"bytes"}],"anonymous":false},{"type":"event","name":"ETHBridgeInitiated","inputs":[{"name":"from","type":"address","indexed":true,"internalType":"address"},{"name":"to","type":"address","indexed":true,"internalType":"address"},{"name":"amount","type":"uint256","indexed":false,"internalType":"uint256"},{"name":"extraData","type":"bytes","indexed":false,"internalType":"bytes"}],"anonymous":false},{"type":"event","name":"ETHDepositInitiated","inputs":[{"name":"from","type":"address","indexed":true,"internalType":"address"},{"name":"to","type":"address","indexed":true,"internalType":"address"},{"name":"amount","type":"uint256","indexed":false,"internalType":"uint256"},{"name":"extraData","type":"bytes","indexed":false,"internalType":"bytes"}],"anonymous":false},{"type":"event","name":"ETHWithdrawalFinalized","inputs":[{"name":"from","type":"address","indexed":true,"internalType":"address"},{"name":"to","type":"address","indexed":true,"internalType":"address"},{"name":"amount","type":"uint256","indexed":false,"internalType":"uint256"},{"name":"extraData","type":"bytes","indexed":false,"internalType":"bytes"}],"anonymous":false},{"type":"event","name":"Initialized","inputs":[{"name":"version","type":"uint8","indexed":false,"internalType":"uint8"}],"anonymous":false},{"type":"error","name":"ProxyAdminOwnedBase_NotProxyAdmin","inputs":[]},{"type":"error","name":"ProxyAdminOwnedBase_NotProxyAdminOrProxyAdminOwner","inputs":[]},{"type":"error","name":"ProxyAdminOwnedBase_NotProxyAdminOwner","inputs":[]},{"type":"error","name":"ProxyAdminOwnedBase_NotResolvedDelegateProxy","inputs":[]},{"type":"error","name":"ProxyAdminOwnedBase_NotSharedProxyAdminOwner","inputs":[]},{"type":"error","name":"ProxyAdminOwnedBase_ProxyAdminNotFound","inputs":[]},{"type":"error","name":"ReinitializableBase_ZeroInitVersion","inputs":[]}],"bytecode":{"object":"0x60a06040523480156200001157600080fd5b5060026080526200002162000027565b620000e9565b600054610100900460ff1615620000945760405162461bcd60e51b815260206004820152602760248201527f496e697469616c697a61626c653a20636f6e747261637420697320696e697469604482015266616c697a696e6760c81b606482015260840160405180910390fd5b60005460ff9081161015620000e7576000805460ff191660ff9081179091556040519081527f7f26b83ff96e1f2b6a682f133852f6798a09c465da95921460cefb38474024989060200160405180910390a15b565b60805161333b620001136000396000818161036c01528181610a96015261149a015261333b6000f3fe6080604052600436106101b05760003560e01c806358a997f6116100ec578063927ede2d1161008a578063b1a1a88211610064578063b1a1a882146105c2578063c89701a2146105d5578063dad544e014610602578063e11013dd1461061757600080fd5b8063927ede2d146105645780639a2ac6d51461058f578063a9f9e675146105a257600080fd5b8063838b2520116100c6578063838b2520146104de57806387087623146104fe5780638f601f661461051e57806391c49bf8146104b357600080fd5b806358a997f61461046e5780635c975abb1461048e5780637f46ddb2146104b357600080fd5b806335e80ab3116101595780633e47158c116101335780633e47158c146103c3578063485cc955146103d8578063540abf73146103f857806354fd4d501461041857600080fd5b806335e80ab31461034357806338d38c97146103585780633cb747bf1461039657600080fd5b80631532ec341161018a5780631532ec34146102c65780631635f5fd146102d957806333d7e2bd146102ec57600080fd5b80630166a07a146102735780630900f0101461029357806309fc8843146102b357600080fd5b3661026e576101bd61062a565b61024e576040517f08c379a000000000000000000000000000000000000000000000000000000000815260206004820152603760248201527f5374616e646172644272696467653a2066756e6374696f6e2063616e206f6e6c60448201527f792062652063616c6c65642066726f6d20616e20454f4100000000000000000060648201526084015b60405180910390fd5b61026c333362030d4060405180602001604052806000815250610667565b005b600080fd5b34801561027f57600080fd5b5061026c61028e366004612d45565b61067a565b34801561029f57600080fd5b5061026c6102ae366004612ddd565b610a94565b61026c6102c1366004612e13565b610c3b565b61026c6102d4366004612e66565b610d17565b61026c6102e7366004612e66565b610d2b565b3480156102f857600080fd5b506034546103199073ffffffffffffffffffffffffffffffffffffffff1681565b60405173ffffffffffffffffffffffffffffffffffffffff90911681526020015b60405180910390f35b34801561034f57600080fd5b506103196111f4565b34801561036457600080fd5b5060405160ff7f000000000000000000000000000000000000000000000000000000000000000016815260200161033a565b3480156103a257600080fd5b506003546103199073ffffffffffffffffffffffffffffffffffffffff1681565b3480156103cf57600080fd5b5061031961128d565b3480156103e457600080fd5b5061026c6103f3366004612ed9565b611498565b34801561040457600080fd5b5061026c610413366004612f12565b61165e565b34801561042457600080fd5b506104616040518060400160405280600581526020017f322e362e3000000000000000000000000000000000000000000000000000000081525081565b60405161033a9190612fff565b34801561047a57600080fd5b5061026c610489366004613012565b6116a3565b34801561049a57600080fd5b506104a361177c565b604051901515815260200161033a565b3480156104bf57600080fd5b5060045473ffffffffffffffffffffffffffffffffffffffff16610319565b3480156104ea57600080fd5b5061026c6104f9366004612f12565b611810565b34801561050a57600080fd5b5061026c610519366004613012565b611855565b34801561052a57600080fd5b50610556610539366004612ed9565b600260209081526000928352604080842090915290825290205481565b60405190815260200161033a565b34801561057057600080fd5b5060035473ffffffffffffffffffffffffffffffffffffffff16610319565b61026c61059d366004613095565b61192e565b3480156105ae57600080fd5b5061026c6105bd366004612d45565b611970565b61026c6105d0366004612e13565b61197f565b3480156105e157600080fd5b506004546103199073ffffffffffffffffffffffffffffffffffffffff1681565b34801561060e57600080fd5b50610319611a55565b61026c610625366004613095565b611aa9565b60003233036106395750600190565b333b60170361066157604051602081016040526020600082333c5160e81c62ef010014905090565b50600090565b6106748484348585611aec565b50505050565b60035473ffffffffffffffffffffffffffffffffffffffff163314801561074d575060048054600354604080517f6e296e45000000000000000000000000000000000000000000000000000000008152905173ffffffffffffffffffffffffffffffffffffffff938416949390921692636e296e459282820192602092908290030181865afa158015610711573d6000803e3d6000fd5b505050506040513d601f19601f8201168201806040525081019061073591906130f8565b73ffffffffffffffffffffffffffffffffffffffff16145b6107ff576040517f08c379a000000000000000000000000000000000000000000000000000000000815260206004820152604160248201527f5374616e646172644272696467653a2066756e6374696f6e2063616e206f6e6c60448201527f792062652063616c6c65642066726f6d20746865206f7468657220627269646760648201527f6500000000000000000000000000000000000000000000000000000000000000608482015260a401610245565b61080761177c565b1561086e576040517f08c379a000000000000000000000000000000000000000000000000000000000815260206004820152601660248201527f5374616e646172644272696467653a20706175736564000000000000000000006044820152606401610245565b61087787611cb6565b156109c5576108868787611d18565b610938576040517f08c379a000000000000000000000000000000000000000000000000000000000815260206004820152604a60248201527f5374616e646172644272696467653a2077726f6e672072656d6f746520746f6b60448201527f656e20666f72204f7074696d69736d204d696e7461626c65204552433230206c60648201527f6f63616c20746f6b656e00000000000000000000000000000000000000000000608482015260a401610245565b6040517f40c10f1900000000000000000000000000000000000000000000000000000000815273ffffffffffffffffffffffffffffffffffffffff8581166004830152602482018590528816906340c10f1990604401600060405180830381600087803b1580156109a857600080fd5b505af11580156109bc573d6000803e3d6000fd5b50505050610a47565b73ffffffffffffffffffffffffffffffffffffffff8088166000908152600260209081526040808320938a1683529290522054610a03908490613144565b73ffffffffffffffffffffffffffffffffffffffff8089166000818152600260209081526040808320948c1683529390529190912091909155610a47908585611e38565b610a8b878787878787878080601f016020809104026020016040519081016040528093929190818152602001838380828437600092019190915250611f0c92505050565b50505050505050565b7f0000000000000000000000000000000000000000000000000000000000000000600054610100900460ff16158015610ad4575060005460ff8083169116105b610b60576040517f08c379a000000000000000000000000000000000000000000000000000000000815260206004820152602e60248201527f496e697469616c697a61626c653a20636f6e747261637420697320616c72656160448201527f647920696e697469616c697a65640000000000000000000000000000000000006064820152608401610245565b600080547fffffffffffffffffffffffffffffffffffffffffffffffffffffffffffff00001660ff831617610100179055610b99611f9a565b603480547fffffffffffffffffffffffff00000000000000000000000000000000000000001673ffffffffffffffffffffffffffffffffffffffff8416179055600080547fffffffffffffffffffffffffffffffffffffffffffffffffffffffffffff00ff16905560405160ff821681527f7f26b83ff96e1f2b6a682f133852f6798a09c465da95921460cefb38474024989060200160405180910390a15050565b610c4361062a565b610ccf576040517f08c379a000000000000000000000000000000000000000000000000000000000815260206004820152603760248201527f5374616e646172644272696467653a2066756e6374696f6e2063616e206f6e6c60448201527f792062652063616c6c65642066726f6d20616e20454f410000000000000000006064820152608401610245565b610d123333348686868080601f016020809104026020016040519081016040528093929190818152602001838380828437600092019190915250611aec92505050565b505050565b610d248585858585610d2b565b5050505050565b60035473ffffffffffffffffffffffffffffffffffffffff1633148015610dfe575060048054600354604080517f6e296e45000000000000000000000000000000000000000000000000000000008152905173ffffffffffffffffffffffffffffffffffffffff938416949390921692636e296e459282820192602092908290030181865afa158015610dc2573d6000803e3d6000fd5b505050506040513d601f19601f82011682018060405250810190610de691906130f8565b73ffffffffffffffffffffffffffffffffffffffff16145b610eb0576040517f08c379a000000000000000000000000000000000000000000000000000000000815260206004820152604160248201527f5374616e646172644272696467653a2066756e6374696f6e2063616e206f6e6c60448201527f792062652063616c6c65642066726f6d20746865206f7468657220627269646760648201527f6500000000000000000000000000000000000000000000000000000000000000608482015260a401610245565b610eb861177c565b15610f1f576040517f08c379a000000000000000000000000000000000000000000000000000000000815260206004820152601660248201527f5374616e646172644272696467653a20706175736564000000000000000000006044820152606401610245565b823414610fae576040517f08c379a000000000000000000000000000000000000000000000000000000000815260206004820152603a60248201527f5374616e646172644272696467653a20616d6f756e742073656e7420646f657360448201527f206e6f74206d6174636820616d6f756e742072657175697265640000000000006064820152608401610245565b3073ffffffffffffffffffffffffffffffffffffffff851603611053576040517f08c379a000000000000000000000000000000000000000000000000000000000815260206004820152602360248201527f5374616e646172644272696467653a2063616e6e6f742073656e6420746f207360448201527f656c6600000000000000000000000000000000000000000000000000000000006064820152608401610245565b60035473ffffffffffffffffffffffffffffffffffffffff908116908516036110fe576040517f08c379a000000000000000000000000000000000000000000000000000000000815260206004820152602860248201527f5374616e646172644272696467653a2063616e6e6f742073656e6420746f206d60448201527f657373656e6765720000000000000000000000000000000000000000000000006064820152608401610245565b61114085858585858080601f01602080910402602001604051908101604052809392919081815260200183838082843760009201919091525061201d92505050565b600061115d855a8660405180602001604052806000815250612090565b9050806111ec576040517f08c379a000000000000000000000000000000000000000000000000000000000815260206004820152602360248201527f5374616e646172644272696467653a20455448207472616e736665722066616960448201527f6c656400000000000000000000000000000000000000000000000000000000006064820152608401610245565b505050505050565b603454604080517f35e80ab3000000000000000000000000000000000000000000000000000000008152905160009273ffffffffffffffffffffffffffffffffffffffff16916335e80ab39160048083019260209291908290030181865afa158015611264573d6000803e3d6000fd5b505050506040513d601f19601f8201168201806040525081019061128891906130f8565b905090565b6000806112b87fb53127684a568b3173ae13b9f8a6016e243e63b6e8ee1178d6a717850b5d61035490565b905073ffffffffffffffffffffffffffffffffffffffff8116156112db57919050565b6040518060400160405280601a81526020017f4f564d5f4c3143726f7373446f6d61696e4d657373656e67657200000000000081525051600261131e919061315b565b604080513060208201526000918101919091527f4f564d5f4c3143726f7373446f6d61696e4d657373656e6765720000000000009190911790611379906060015b604051602081830303815290604052805190602001205490565b146113b0576040517f54e433cd00000000000000000000000000000000000000000000000000000000815260040160405180910390fd5b604080513060208201526001918101919091526000906113d29060600161135f565b905073ffffffffffffffffffffffffffffffffffffffff811615611466578073ffffffffffffffffffffffffffffffffffffffff16638da5cb5b6040518163ffffffff1660e01b8152600401602060405180830381865afa15801561143b573d6000803e3d6000fd5b505050506040513d601f19601f8201168201806040525081019061145f91906130f8565b9250505090565b6040517f332144db00000000000000000000000000000000000000000000000000000000815260040160405180910390fd5b7f0000000000000000000000000000000000000000000000000000000000000000600054610100900460ff161580156114d8575060005460ff8083169116105b611564576040517f08c379a000000000000000000000000000000000000000000000000000000000815260206004820152602e60248201527f496e697469616c697a61626c653a20636f6e747261637420697320616c72656160448201527f647920696e697469616c697a65640000000000000000000000000000000000006064820152608401610245565b600080547fffffffffffffffffffffffffffffffffffffffffffffffffffffffffffff00001660ff83161761010017905561159d611f9a565b603480547fffffffffffffffffffffffff00000000000000000000000000000000000000001673ffffffffffffffffffffffffffffffffffffffff84161790556115fb837342000000000000000000000000000000000000106120a8565b600080547fffffffffffffffffffffffffffffffffffffffffffffffffffffffffffff00ff16905560405160ff821681527f7f26b83ff96e1f2b6a682f133852f6798a09c465da95921460cefb38474024989060200160405180910390a1505050565b610a8b87873388888888888080601f01602080910402602001604051908101604052809392919081815260200183838082843760009201919091525061219292505050565b6116ab61062a565b611737576040517f08c379a000000000000000000000000000000000000000000000000000000000815260206004820152603760248201527f5374616e646172644272696467653a2066756e6374696f6e2063616e206f6e6c60448201527f792062652063616c6c65642066726f6d20616e20454f410000000000000000006064820152608401610245565b6111ec86863333888888888080601f01602080910402602001604051908101604052809392919081815260200183838082843760009201919091525061254b92505050565b603454604080517f5c975abb000000000000000000000000000000000000000000000000000000008152905160009273ffffffffffffffffffffffffffffffffffffffff1691635c975abb9160048083019260209291908290030181865afa1580156117ec573d6000803e3d6000fd5b505050506040513d601f19601f820116820180604052508101906112889190613198565b610a8b87873388888888888080601f01602080910402602001604051908101604052809392919081815260200183838082843760009201919091525061254b92505050565b61185d61062a565b6118e9576040517f08c379a000000000000000000000000000000000000000000000000000000000815260206004820152603760248201527f5374616e646172644272696467653a2066756e6374696f6e2063616e206f6e6c60448201527f792062652063616c6c65642066726f6d20616e20454f410000000000000000006064820152608401610245565b6111ec86863333888888888080601f01602080910402602001604051908101604052809392919081815260200183838082843760009201919091525061219292505050565b61067433858585858080601f01602080910402602001604051908101604052809392919081815260200183838082843760009201919091525061066792505050565b610a8b8787878787878761067a565b61198761062a565b611a13576040517f08c379a000000000000000000000000000000000000000000000000000000000815260206004820152603760248201527f5374616e646172644272696467653a2066756e6374696f6e2063616e206f6e6c60448201527f792062652063616c6c65642066726f6d20616e20454f410000000000000000006064820152608401610245565b610d1233338585858080601f01602080910402602001604051908101604052809392919081815260200183838082843760009201919091525061066792505050565b6000611a5f61128d565b73ffffffffffffffffffffffffffffffffffffffff16638da5cb5b6040518163ffffffff1660e01b8152600401602060405180830381865afa158015611264573d6000803e3d6000fd5b6106743385348686868080601f016020809104026020016040519081016040528093929190818152602001838380828437600092019190915250611aec92505050565b823414611b7b576040517f08c379a000000000000000000000000000000000000000000000000000000000815260206004820152603e60248201527f5374616e646172644272696467653a206272696467696e6720455448206d757360448201527f7420696e636c7564652073756666696369656e74204554482076616c756500006064820152608401610245565b611b878585858461255a565b60035460045460405173ffffffffffffffffffffffffffffffffffffffff92831692633dbb202b9287929116907f1635f5fd0000000000000000000000000000000000000000000000000000000090611bea908b908b9086908a906024016131ba565b604080517fffffffffffffffffffffffffffffffffffffffffffffffffffffffffffffffe08184030181529181526020820180517bffffffffffffffffffffffffffffffffffffffffffffffffffffffff167fffffffff000000000000000000000000000000000000000000000000000000009485161790525160e086901b9092168252611c7d92918890600401613203565b6000604051808303818588803b158015611c9657600080fd5b505af1158015611caa573d6000803e3d6000fd5b50505050505050505050565b6000611ce2827f1d1d8b63000000000000000000000000000000000000000000000000000000006125cd565b80611d125750611d12827fec4fc8e3000000000000000000000000000000000000000000000000000000006125cd565b92915050565b6000611d44837f1d1d8b63000000000000000000000000000000000000000000000000000000006125cd565b15611ded578273ffffffffffffffffffffffffffffffffffffffff1663c01e1bd66040518163ffffffff1660e01b8152600401602060405180830381865afa158015611d94573d6000803e3d6000fd5b505050506040513d601f19601f82011682018060405250810190611db891906130f8565b73ffffffffffffffffffffffffffffffffffffffff168273ffffffffffffffffffffffffffffffffffffffff16149050611d12565b8273ffffffffffffffffffffffffffffffffffffffff1663d6c0b2c46040518163ffffffff1660e01b8152600401602060405180830381865afa158015611d94573d6000803e3d6000fd5b60405173ffffffffffffffffffffffffffffffffffffffff8316602482015260448101829052610d129084907fa9059cbb00000000000000000000000000000000000000000000000000000000906064015b604080517fffffffffffffffffffffffffffffffffffffffffffffffffffffffffffffffe08184030181529190526020810180517bffffffffffffffffffffffffffffffffffffffffffffffffffffffff167fffffffff00000000000000000000000000000000000000000000000000000000909316929092179091526125f0565b8373ffffffffffffffffffffffffffffffffffffffff168573ffffffffffffffffffffffffffffffffffffffff168773ffffffffffffffffffffffffffffffffffffffff167f3ceee06c1e37648fcbb6ed52e17b3e1f275a1f8c7b22a84b2b84732431e046b3868686604051611f8493929190613248565b60405180910390a46111ec8686868686866126fc565b33611fa361128d565b73ffffffffffffffffffffffffffffffffffffffff1614158015611fe4575033611fcb611a55565b73ffffffffffffffffffffffffffffffffffffffff1614155b1561201b576040517fc4050a2600000000000000000000000000000000000000000000000000000000815260040160405180910390fd5b565b8273ffffffffffffffffffffffffffffffffffffffff168473ffffffffffffffffffffffffffffffffffffffff167f2ac69ee804d9a7a0984249f508dfab7cb2534b465b6ce1580f99a38ba9c5e631848460405161207c929190613286565b60405180910390a361067484848484612784565b6000806000835160208501868989f195945050505050565b600054610100900460ff1661213f576040517f08c379a000000000000000000000000000000000000000000000000000000000815260206004820152602b60248201527f496e697469616c697a61626c653a20636f6e7472616374206973206e6f74206960448201527f6e697469616c697a696e670000000000000000000000000000000000000000006064820152608401610245565b6003805473ffffffffffffffffffffffffffffffffffffffff9384167fffffffffffffffffffffffff00000000000000000000000000000000000000009182161790915560048054929093169116179055565b3415612220576040517f08c379a000000000000000000000000000000000000000000000000000000000815260206004820152602160248201527f5374616e646172644272696467653a2063616e6e6f742073656e642076616c7560448201527f65000000000000000000000000000000000000000000000000000000000000006064820152608401610245565b61222987611cb6565b15612377576122388787611d18565b6122ea576040517f08c379a000000000000000000000000000000000000000000000000000000000815260206004820152604a60248201527f5374616e646172644272696467653a2077726f6e672072656d6f746520746f6b60448201527f656e20666f72204f7074696d69736d204d696e7461626c65204552433230206c60648201527f6f63616c20746f6b656e00000000000000000000000000000000000000000000608482015260a401610245565b6040517f9dc29fac00000000000000000000000000000000000000000000000000000000815273ffffffffffffffffffffffffffffffffffffffff868116600483015260248201859052881690639dc29fac90604401600060405180830381600087803b15801561235a57600080fd5b505af115801561236e573d6000803e3d6000fd5b5050505061240b565b61239973ffffffffffffffffffffffffffffffffffffffff88168630866127f1565b73ffffffffffffffffffffffffffffffffffffffff8088166000908152600260209081526040808320938a16835292905220546123d790849061329f565b73ffffffffffffffffffffffffffffffffffffffff8089166000908152600260209081526040808320938b16835292905220555b61241987878787878661284f565b60035460045460405173ffffffffffffffffffffffffffffffffffffffff92831692633dbb202b9216907f0166a07a000000000000000000000000000000000000000000000000000000009061247d908b908d908c908c908c908b906024016132b7565b604080517fffffffffffffffffffffffffffffffffffffffffffffffffffffffffffffffe08184030181529181526020820180517bffffffffffffffffffffffffffffffffffffffffffffffffffffffff167fffffffff000000000000000000000000000000000000000000000000000000009485161790525160e085901b909216825261251092918790600401613203565b600060405180830381600087803b15801561252a57600080fd5b505af115801561253e573d6000803e3d6000fd5b5050505050505050505050565b610a8b87878787878787612192565b8273ffffffffffffffffffffffffffffffffffffffff168473ffffffffffffffffffffffffffffffffffffffff167f35d79ab81f2b2017e19afb5c5571778877782d7a8786f5907f93b0f4702f4f2384846040516125b9929190613286565b60405180910390a3610674848484846128dd565b60006125d88361293c565b80156125e957506125e983836129a0565b9392505050565b6000612652826040518060400160405280602081526020017f5361666545524332303a206c6f772d6c6576656c2063616c6c206661696c65648152508573ffffffffffffffffffffffffffffffffffffffff16612a6f9092919063ffffffff16565b805190915015610d1257808060200190518101906126709190613198565b610d12576040517f08c379a000000000000000000000000000000000000000000000000000000000815260206004820152602a60248201527f5361666545524332303a204552433230206f7065726174696f6e20646964206e60448201527f6f742073756363656564000000000000000000000000000000000000000000006064820152608401610245565b8373ffffffffffffffffffffffffffffffffffffffff168573ffffffffffffffffffffffffffffffffffffffff168773ffffffffffffffffffffffffffffffffffffffff167fd59c65b35445225835c83f50b6ede06a7be047d22e357073e250d9af537518cd86868660405161277493929190613248565b60405180910390a4505050505050565b8273ffffffffffffffffffffffffffffffffffffffff168473ffffffffffffffffffffffffffffffffffffffff167f31b2166ff604fc5672ea5df08a78081d2bc6d746cadce880747f3643d819e83d84846040516127e3929190613286565b60405180910390a350505050565b60405173ffffffffffffffffffffffffffffffffffffffff808516602483015283166044820152606481018290526106749085907f23b872dd0000000000000000000000000000000000000000000000000000000090608401611e8a565b8373ffffffffffffffffffffffffffffffffffffffff168573ffffffffffffffffffffffffffffffffffffffff168773ffffffffffffffffffffffffffffffffffffffff167f718594027abd4eaed59f95162563e0cc6d0e8d5b86b1c7be8b1b0ac3343d03968686866040516128c793929190613248565b60405180910390a46111ec868686868686612a86565b8273ffffffffffffffffffffffffffffffffffffffff168473ffffffffffffffffffffffffffffffffffffffff167f2849b43074093a05396b6f2a937dee8565b15a48a7b3d4bffb732a5017380af584846040516127e3929190613286565b6000612968827f01ffc9a7000000000000000000000000000000000000000000000000000000006129a0565b8015611d125750612999827fffffffff000000000000000000000000000000000000000000000000000000006129a0565b1592915050565b604080517fffffffff000000000000000000000000000000000000000000000000000000008316602480830191909152825180830390910181526044909101909152602080820180517bffffffffffffffffffffffffffffffffffffffffffffffffffffffff167f01ffc9a700000000000000000000000000000000000000000000000000000000178152825160009392849283928392918391908a617530fa92503d91506000519050828015612a58575060208210155b8015612a645750600081115b979650505050505050565b6060612a7e8484600085612afe565b949350505050565b8373ffffffffffffffffffffffffffffffffffffffff168573ffffffffffffffffffffffffffffffffffffffff168773ffffffffffffffffffffffffffffffffffffffff167f7ff126db8024424bbfd9826e8ab82ff59136289ea440b04b39a0df1b03b9cabf86868660405161277493929190613248565b606082471015612b90576040517f08c379a000000000000000000000000000000000000000000000000000000000815260206004820152602660248201527f416464726573733a20696e73756666696369656e742062616c616e636520666f60448201527f722063616c6c00000000000000000000000000000000000000000000000000006064820152608401610245565b73ffffffffffffffffffffffffffffffffffffffff85163b612c0e576040517f08c379a000000000000000000000000000000000000000000000000000000000815260206004820152601d60248201527f416464726573733a2063616c6c20746f206e6f6e2d636f6e74726163740000006044820152606401610245565b6000808673ffffffffffffffffffffffffffffffffffffffff168587604051612c379190613312565b60006040518083038185875af1925050503d8060008114612c74576040519150601f19603f3d011682016040523d82523d6000602084013e612c79565b606091505b5091509150612a6482828660608315612c935750816125e9565b825115612ca35782518084602001fd5b816040517f08c379a00000000000000000000000000000000000000000000000000000000081526004016102459190612fff565b73ffffffffffffffffffffffffffffffffffffffff81168114612cf957600080fd5b50565b60008083601f840112612d0e57600080fd5b50813567ffffffffffffffff811115612d2657600080fd5b602083019150836020828501011115612d3e57600080fd5b9250929050565b600080600080600080600060c0888a031215612d6057600080fd5b8735612d6b81612cd7565b96506020880135612d7b81612cd7565b95506040880135612d8b81612cd7565b94506060880135612d9b81612cd7565b93506080880135925060a088013567ffffffffffffffff811115612dbe57600080fd5b612dca8a828b01612cfc565b989b979a50959850939692959293505050565b600060208284031215612def57600080fd5b81356125e981612cd7565b803563ffffffff81168114612e0e57600080fd5b919050565b600080600060408486031215612e2857600080fd5b612e3184612dfa565b9250602084013567ffffffffffffffff811115612e4d57600080fd5b612e5986828701612cfc565b9497909650939450505050565b600080600080600060808688031215612e7e57600080fd5b8535612e8981612cd7565b94506020860135612e9981612cd7565b935060408601359250606086013567ffffffffffffffff811115612ebc57600080fd5b612ec888828901612cfc565b969995985093965092949392505050565b60008060408385031215612eec57600080fd5b8235612ef781612cd7565b91506020830135612f0781612cd7565b809150509250929050565b600080600080600080600060c0888a031215612f2d57600080fd5b8735612f3881612cd7565b96506020880135612f4881612cd7565b95506040880135612f5881612cd7565b945060608801359350612f6d60808901612dfa565b925060a088013567ffffffffffffffff811115612dbe57600080fd5b60005b83811015612fa4578181015183820152602001612f8c565b838111156106745750506000910152565b60008151808452612fcd816020860160208601612f89565b601f017fffffffffffffffffffffffffffffffffffffffffffffffffffffffffffffffe0169290920160200192915050565b6020815260006125e96020830184612fb5565b60008060008060008060a0878903121561302b57600080fd5b863561303681612cd7565b9550602087013561304681612cd7565b94506040870135935061305b60608801612dfa565b9250608087013567ffffffffffffffff81111561307757600080fd5b61308389828a01612cfc565b979a9699509497509295939492505050565b600080600080606085870312156130ab57600080fd5b84356130b681612cd7565b93506130c460208601612dfa565b9250604085013567ffffffffffffffff8111156130e057600080fd5b6130ec87828801612cfc565b95989497509550505050565b60006020828403121561310a57600080fd5b81516125e981612cd7565b7f4e487b7100000000000000000000000000000000000000000000000000000000600052601160045260246000fd5b60008282101561315657613156613115565b500390565b6000817fffffffffffffffffffffffffffffffffffffffffffffffffffffffffffffffff048311821515161561319357613193613115565b500290565b6000602082840312156131aa57600080fd5b815180151581146125e957600080fd5b600073ffffffffffffffffffffffffffffffffffffffff8087168352808616602084015250836040830152608060608301526131f96080830184612fb5565b9695505050505050565b73ffffffffffffffffffffffffffffffffffffffff841681526060602082015260006132326060830185612fb5565b905063ffffffff83166040830152949350505050565b73ffffffffffffffffffffffffffffffffffffffff8416815282602082015260606040820152600061327d6060830184612fb5565b95945050505050565b828152604060208201526000612a7e6040830184612fb5565b600082198211156132b2576132b2613115565b500190565b600073ffffffffffffffffffffffffffffffffffffffff80891683528088166020840152808716604084015280861660608401525083608083015260c060a083015261330660c0830184612fb5565b98975050505050505050565b60008251613324818460208701612f89565b919091019291505056fea164736f6c634300080f000a","linkReferences":{}},"methodIdentifiers":{"MESSENGER()":"927ede2d","OTHER_BRIDGE()":"7f46ddb2","bridgeERC20(address,address,uint256,uint32,bytes)":"87087623","bridgeERC20To(address,address,address,uint256,uint32,bytes)":"540abf73","bridgeETH(uint32,bytes)":"09fc8843","bridgeETHTo(address,uint32,bytes)":"e11013dd","depositERC20(address,address,uint256,uint32,bytes)":"58a997f6","depositERC20To(address,address,address,uint256,uint32,bytes)":"838b2520","depositETH(uint32,bytes)":"b1a1a882","depositETHTo(address,uint32,bytes)":"9a2ac6d5","deposits(address,address)":"8f601f66","finalizeBridgeERC20(address,address,address,address,uint256,bytes)":"0166a07a","finalizeBridgeETH(address,address,uint256,bytes)":"1635f5fd","finalizeERC20Withdrawal(address,address,address,address,uint256,bytes)":"a9f9e675","finalizeETHWithdrawal(address,address,uint256,bytes)":"1532ec34","initVersion()":"38d38c97","initialize(address,address)":"485cc955","l2TokenBridge()":"91c49bf8","messenger()":"3cb747bf","otherBridge()":"c89701a2","paused()":"5c975abb","proxyAdmin()":"3e47158c","proxyAdminOwner()":"dad544e0","superchainConfig()":"35e80ab3","systemConfig()":"33d7e2bd","upgrade(address)":"0900f010","version()":"54fd4d50"},"storageLayout":{"storage":[{"astId":51321,"contract":"src/L1/L1StandardBridge.sol:L1StandardBridge","label":"_initialized","offset":0,"slot":"0","type":"t_uint8"},{"astId":51324,"contract":"src/L1/L1StandardBridge.sol:L1StandardBridge","label":"_initializing","offset":1,"slot":"0","type":"t_bool"},{"astId":129731,"contract":"src/L1/L1StandardBridge.sol:L1StandardBridge","label":"spacer_0_2_30","offset":2,"slot":"0","type":"t_bytes30"},{"astId":129734,"contract":"src/L1/L1StandardBridge.sol:L1StandardBridge","label":"spacer_1_0_20","offset":0,"slot":"1","type":"t_address"},{"astId":129741,"contract":"src/L1/L1StandardBridge.sol:L1StandardBridge","label":"deposits","offset":0,"slot":"2","type":"t_mapping(t_address,t_mapping(t_address,t_uint256))"},{"astId":129745,"contract":"src/L1/L1StandardBridge.sol:L1StandardBridge","label":"messenger","offset":0,"slot":"3","type":"t_contract(ICrossDomainMessenger)9370"},{"astId":129749,"contract":"src/L1/L1StandardBridge.sol:L1StandardBridge","label":"otherBridge","offset":0,"slot":"4","type":"t_contract(StandardBridge)130467"},{"astId":129754,"contract":"src/L1/L1StandardBridge.sol:L1StandardBridge","label":"__gap","offset":0,"slot":"5","type":"t_array(t_uint256)45_storage"},{"astId":97033,"contract":"src/L1/L1StandardBridge.sol:L1StandardBridge","label":"spacer_50_0_20","offset":0,"slot":"50","type":"t_address"},{"astId":97036,"contract":"src/L1/L1StandardBridge.sol:L1StandardBridge","label":"spacer_51_0_20","offset":0,"slot":"51","type":"t_address"},{"astId":97040,"contract":"src/L1/L1StandardBridge.sol:L1StandardBridge","label":"systemConfig","offset":0,"slot":"52","type":"t_contract(ISystemConfig)2870"}],"types":{"t_address":{"encoding":"inplace","label":"address","numberOfBytes":"20"},"t_array(t_uint256)45_storage":{"encoding":"inplace","label":"uint256[45]","numberOfBytes":"1440","base":"t_uint256"},"t_bool":{"encoding":"inplace","label":"bool","numberOfBytes":"1"},"t_bytes30":{"encoding":"inplace","label":"bytes30","numberOfBytes":"30"},"t_contract(ICrossDomainMessenger)9370":{"encoding":"inplace","label":"contract ICrossDomainMessenger","numberOfBytes":"20"},"t_contract(ISystemConfig)2870":{"encoding":"inplace","label":"contract ISystemConfig","numberOfBytes":"20"},"t_contract(StandardBridge)130467":{"encoding":"inplace","label":"contract StandardBridge","numberOfBytes":"20"},"t_mapping(t_address,t_mapping(t_address,t_uint256))":{"encoding":"mapping","key":"t_address","label":"mapping(address => mapping(address => uint256))","numberOfBytes":"32","value":"t_mapping(t_address,t_uint256)"},"t_mapping(t_address,t_uint256)":{"encoding":"mapping","key":"t_address","label":"mapping(address => uint256)","numberOfBytes":"32","value":"t_uint256"},"t_uint256":{"encoding":"inplace","label":"uint256","numberOfBytes":"32"},"t_uint8":{"encoding":"inplace","label":"uint8","numberOfBytes":"1"}}},"userdoc":{"version":1,"kind":"user","methods":{"MESSENGER()":{"notice":"Getter for messenger contract.         Public getter is legacy and will be removed in the future. Use `messenger` instead."},"OTHER_BRIDGE()":{"notice":"Getter for the other bridge contract.         Public getter is legacy and will be removed in the future. Use `otherBridge` instead."},"bridgeERC20(address,address,uint256,uint32,bytes)":{"notice":"Sends ERC20 tokens to the sender's address on the other chain."},"bridgeERC20To(address,address,address,uint256,uint32,bytes)":{"notice":"Sends ERC20 tokens to a receiver's address on the other chain."},"bridgeETH(uint32,bytes)":{"notice":"Sends ETH to the sender's address on the other chain."},"bridgeETHTo(address,uint32,bytes)":{"notice":"Sends ETH to a receiver's address on the other chain. Note that if ETH is sent to a         smart contract and the call fails, the ETH will be temporarily locked in the         StandardBridge on the other chain until the call is replayed. If the call cannot be         replayed with any amount of gas (call always reverts), then the ETH will be         permanently locked in the StandardBridge on the other chain. ETH will also         be locked if the receiver is the other bridge, because finalizeBridgeETH will revert         in that case."},"constructor":{"notice":"Constructs the L1StandardBridge contract."},"deposits(address,address)":{"notice":"Mapping that stores deposits for a given pair of local and remote tokens."},"finalizeBridgeERC20(address,address,address,address,uint256,bytes)":{"notice":"Finalizes an ERC20 bridge on this chain. Can only be triggered by the other         StandardBridge contract on the remote chain."},"finalizeBridgeETH(address,address,uint256,bytes)":{"notice":"Finalizes an ETH bridge on this chain. Can only be triggered by the other         StandardBridge contract on the remote chain."},"initVersion()":{"notice":"Getter for the current initialization version."},"initialize(address,address)":{"notice":"Initializer."},"messenger()":{"notice":"Messenger contract on this domain."},"otherBridge()":{"notice":"Corresponding bridge on the other domain."},"paused()":{"notice":"This function should return true if the contract is paused.         On L1 this function will check the SuperchainConfig for its paused status.         On L2 this function should be a no-op."},"proxyAdmin()":{"notice":"Getter for the ProxyAdmin contract that owns this Proxy contract."},"proxyAdminOwner()":{"notice":"Getter for the owner of the ProxyAdmin."},"superchainConfig()":{"notice":"Returns the SuperchainConfig contract."},"systemConfig()":{"notice":"Address of the SystemConfig contract."},"upgrade(address)":{"notice":"Upgrades the contract to have a reference to the SystemConfig."},"version()":{"notice":"Semantic version."}},"events":{"ERC20BridgeFinalized(address,address,address,address,uint256,bytes)":{"notice":"Emitted when an ERC20 bridge is finalized on this chain."},"ERC20BridgeInitiated(address,address,address,address,uint256,bytes)":{"notice":"Emitted when an ERC20 bridge is initiated to the other chain."},"ETHBridgeFinalized(address,address,uint256,bytes)":{"notice":"Emitted when an ETH bridge is finalized on this chain."},"ETHBridgeInitiated(address,address,uint256,bytes)":{"notice":"Emitted when an ETH bridge is initiated to the other chain."}},"errors":{"ProxyAdminOwnedBase_NotProxyAdmin()":[{"notice":"Thrown when the caller is not the ProxyAdmin."}],"ProxyAdminOwnedBase_NotProxyAdminOrProxyAdminOwner()":[{"notice":"Thrown when the caller is not the ProxyAdmin owner or the ProxyAdmin."}],"ProxyAdminOwnedBase_NotProxyAdminOwner()":[{"notice":"Thrown when the caller is not the ProxyAdmin owner."}],"ProxyAdminOwnedBase_NotResolvedDelegateProxy()":[{"notice":"Thrown when the current contract is not a ResolvedDelegateProxy."}],"ProxyAdminOwnedBase_NotSharedProxyAdminOwner()":[{"notice":"Thrown when the ProxyAdmin owner of the current contract is not the same as the         ProxyAdmin owner of the other Proxy address provided."}],"ProxyAdminOwnedBase_ProxyAdminNotFound()":[{"notice":"Thrown when the ProxyAdmin owner of the current contract is not found."}],"ReinitializableBase_ZeroInitVersion()":[{"notice":"Thrown when the initialization version is zero."}]},"notice":"The L1StandardBridge is responsible for transfering ETH and ERC20 tokens between L1 and         L2. In the case that an ERC20 token is native to L1, it will be escrowed within this         contract. If the ERC20 token is native to L2, it will be burnt. Before Bedrock, ETH was         stored within this contract. After Bedrock, ETH is instead stored inside the         OptimismPortal contract.         NOTE: this contract is not intended to support all variations of ERC20 tokens. Examples         of some token types that may not be properly supported by this contract include, but are         not limited to: tokens with transfer fees, rebasing tokens, and tokens with blocklists."},"devdoc":{"version":1,"kind":"dev","methods":{"MESSENGER()":{"returns":{"_0":"Contract of the messenger on this domain."}},"OTHER_BRIDGE()":{"returns":{"_0":"Contract of the bridge on the other network."}},"bridgeERC20(address,address,uint256,uint32,bytes)":{"params":{"_amount":"Amount of local tokens to deposit.","_extraData":"Extra data to be sent with the transaction. Note that the recipient will                     not be triggered with this data, but it will be emitted and can be used                     to identify the transaction.","_localToken":"Address of the ERC20 on this chain.","_minGasLimit":"Minimum amount of gas that the bridge can be relayed with.","_remoteToken":"Address of the corresponding token on the remote chain."}},"bridgeERC20To(address,address,address,uint256,uint32,bytes)":{"params":{"_amount":"Amount of local tokens to deposit.","_extraData":"Extra data to be sent with the transaction. Note that the recipient will                     not be triggered with this data, but it will be emitted and can be used                     to identify the transaction.","_localToken":"Address of the ERC20 on this chain.","_minGasLimit":"Minimum amount of gas that the bridge can be relayed with.","_remoteToken":"Address of the corresponding token on the remote chain.","_to":"Address of the receiver."}},"bridgeETH(uint32,bytes)":{"params":{"_extraData":"Extra data to be sent with the transaction. Note that the recipient will                     not be triggered with this data, but it will be emitted and can be used                     to identify the transaction.","_minGasLimit":"Minimum amount of gas that the bridge can be relayed with."}},"bridgeETHTo(address,uint32,bytes)":{"params":{"_extraData":"Extra data to be sent with the transaction. Note that the recipient will                     not be triggered with this data, but it will be emitted and can be used                     to identify the transaction.","_minGasLimit":"Minimum amount of gas that the bridge can be relayed with.","_to":"Address of the receiver."}},"depositERC20(address,address,uint256,uint32,bytes)":{"params":{"_amount":"Amount of the ERC20 to deposit.","_extraData":"Optional data to forward to L2.                     Data supplied here will not be used to execute any code on L2 and is                     only emitted as extra data for the convenience of off-chain tooling.","_l1Token":"Address of the L1 token being deposited.","_l2Token":"Address of the corresponding token on L2.","_minGasLimit":"Minimum gas limit for the deposit message on L2."}},"depositERC20To(address,address,address,uint256,uint32,bytes)":{"params":{"_amount":"Amount of the ERC20 to deposit.","_extraData":"Optional data to forward to L2.                     Data supplied here will not be used to execute any code on L2 and is                     only emitted as extra data for the convenience of off-chain tooling.","_l1Token":"Address of the L1 token being deposited.","_l2Token":"Address of the corresponding token on L2.","_minGasLimit":"Minimum gas limit for the deposit message on L2.","_to":"Address of the recipient on L2."}},"depositETH(uint32,bytes)":{"params":{"_extraData":"Optional data to forward to L2.                     Data supplied here will not be used to execute any code on L2 and is                     only emitted as extra data for the convenience of off-chain tooling.","_minGasLimit":"Minimum gas limit for the deposit message on L2."}},"depositETHTo(address,uint32,bytes)":{"params":{"_extraData":"Optional data to forward to L2.                     Data supplied here will not be used to execute any code on L2 and is                     only emitted as extra data for the convenience of off-chain tooling.","_minGasLimit":"Minimum gas limit for the deposit message on L2.","_to":"Address of the recipient on L2."}},"finalizeBridgeERC20(address,address,address,address,uint256,bytes)":{"params":{"_amount":"Amount of the ERC20 being bridged.","_extraData":"Extra data to be sent with the transaction. Note that the recipient will                     not be triggered with this data, but it will be emitted and can be used                     to identify the transaction.","_from":"Address of the sender.","_localToken":"Address of the ERC20 on this chain.","_remoteToken":"Address of the corresponding token on the remote chain.","_to":"Address of the receiver."}},"finalizeBridgeETH(address,address,uint256,bytes)":{"params":{"_amount":"Amount of ETH being bridged.","_extraData":"Extra data to be sent with the transaction. Note that the recipient will                   not be triggered with this data, but it will be emitted and can be used                   to identify the transaction.","_from":"Address of the sender.","_to":"Address of the receiver."}},"finalizeERC20Withdrawal(address,address,address,address,uint256,bytes)":{"params":{"_amount":"Amount of the ERC20 to withdraw.","_extraData":"Optional data forwarded from L2.","_from":"Address of the withdrawer on L2.","_l1Token":"Address of the token on L1.","_l2Token":"Address of the corresponding token on L2.","_to":"Address of the recipient on L1."}},"finalizeETHWithdrawal(address,address,uint256,bytes)":{"params":{"_amount":"Amount of ETH to withdraw.","_extraData":"Optional data forwarded from L2.","_from":"Address of the withdrawer on L2.","_to":"Address of the recipient on L1."}},"initVersion()":{"returns":{"_0":"The current initialization version."}},"initialize(address,address)":{"params":{"_messenger":"Contract for the CrossDomainMessenger on this network.","_systemConfig":"Contract for the SystemConfig on this network."}},"l2TokenBridge()":{"returns":{"_0":"Address of the corresponding L2 bridge contract."}},"paused()":{"returns":{"_0":"Whether or not the contract is paused."}},"superchainConfig()":{"returns":{"_0":"ISuperchainConfig The SuperchainConfig contract."}},"upgrade(address)":{"params":{"_systemConfig":"SystemConfig contract."}}},"events":{"ERC20DepositInitiated(address,address,address,address,uint256,bytes)":{"params":{"amount":"Amount of the ERC20 deposited.","extraData":"Extra data attached to the deposit.","from":"Address of the depositor.","l1Token":"Address of the token on L1.","l2Token":"Address of the corresponding token on L2.","to":"Address of the recipient on L2."}},"ERC20WithdrawalFinalized(address,address,address,address,uint256,bytes)":{"params":{"amount":"Amount of the ERC20 withdrawn.","extraData":"Extra data attached to the withdrawal.","from":"Address of the withdrawer.","l1Token":"Address of the token on L1.","l2Token":"Address of the corresponding token on L2.","to":"Address of the recipient on L1."}},"ETHDepositInitiated(address,address,uint256,bytes)":{"params":{"amount":"Amount of ETH deposited.","extraData":"Extra data attached to the deposit.","from":"Address of the depositor.","to":"Address of the recipient on L2."}},"ETHWithdrawalFinalized(address,address,uint256,bytes)":{"params":{"amount":"Amount of ETH withdrawn.","extraData":"Extra data attached to the withdrawal.","from":"Address of the withdrawer.","to":"Address of the recipient on L1."}}},"title":"L1StandardBridge"},"id":224}