{"abi":[{"type":"function","name":"L1","inputs":[],"outputs":[],"stateMutability":"nonpayable"},{"type":"function","name":"L2","inputs":[],"outputs":[],"stateMutability":"nonpayable"},{"type":"function","name":"artifacts","inputs":[],"outputs":[{"name":"","type":"address","internalType":"contract Artifacts"}],"stateMutability":"view"},{"type":"function","name":"isForkTest","inputs":[],"outputs":[{"name":"","type":"bool","internalType":"bool"}],"stateMutability":"view"},{"type":"function","name":"isOpFork","inputs":[],"outputs":[{"name":"","type":"bool","internalType":"bool"}],"stateMutability":"view"},{"type":"function","name":"returnIfForkTest","inputs":[{"name":"message","type":"string","internalType":"string"}],"outputs":[],"stateMutability":"view"},{"type":"function","name":"setUp","inputs":[],"outputs":[],"stateMutability":"nonpayable"},{"type":"function","name":"skipIfCoverage","inputs":[],"outputs":[],"stateMutability":"nonpayable"},{"type":"function","name":"skipIfForkTest","inputs":[{"name":"message","type":"string","internalType":"string"}],"outputs":[],"stateMutability":"nonpayable"},{"type":"function","name":"skipIfNotOpFork","inputs":[{"name":"message","type":"string","internalType":"string"}],"outputs":[],"stateMutability":"nonpayable"},{"type":"function","name":"skipIfOpsRepoTest","inputs":[{"name":"message","type":"string","internalType":"string"}],"outputs":[],"stateMutability":"nonpayable"}],"bytecode":{"object":"0x6080604052600080546008919060ff19166001830217905550601780546001600160a01b031990811673420000000000000000000000000000000000002217909155601880548216734200000000000000000000000000000000000007179055601980548216734200000000000000000000000000000000000010179055601a80548216734200000000000000000000000000000000000016179055601b80548216734200000000000000000000000000000000000012179055601c80548216734200000000000000000000000000000000000014179055601d80548216734200000000000000000000000000000000000017179055601e80548216734200000000000000000000000000000000000019179055601f8054821673420000000000000000000000000000000000001117905560208054821673420000000000000000000000000000000000001a17905560218054821673420000000000000000000000000000000000001b17905560228054821673420000000000000000000000000000000000000f179055602380548216734200000000000000000000000000000000000015179055602480548216734200000000000000000000000000000000000042179055602580548216602160991b179055602680548216734200000000000000000000000000000000000006179055602780548216734200000000000000000000000000000000000024179055602880548216734200000000000000000000000000000000000025179055602980548216734200000000000000000000000000000000000028179055602a805490911673420000000000000000000000000000000000002617905534801561027857600080fd5b506176a880620002896000396000f3fe608060405234801561001057600080fd5b50600436106100c95760003560e01c806361547b50116100815780639557a02a1161005b5780639557a02a1461016b578063a2f4f5361461017e578063a92e3a041461018657600080fd5b806361547b50146101385780637809baaf1461014b57806391e73a361461015357600080fd5b806315fb3ab9116100b257806315fb3ab9146100e05780632eee9feb146100f357806338d754ab1461012557600080fd5b8063081752bb146100ce5780630a9254e4146100d8575b600080fd5b6100d661018e565b005b6100d6611f25565b6100d66100ee366004616f8f565b6127ac565b6100fb6127e1565b60405173ffffffffffffffffffffffffffffffffffffffff90911681526020015b60405180910390f35b6100d6610133366004616f8f565b61283e565b6100d6610146366004616f8f565b6128ee565b6100d661298d565b61015b614ad0565b604051901515815260200161011c565b6100d6610179366004616f8f565b614b3d565b61015b614c9c565b6100d6614cab565b610196614c9c565b156101be576101bc6040518060600160405280602c8152602001617670602c9139614dc2565b565b6101ff6040518060600160405280602781526020016175d7602791396000546101fa9060ff1660088111156101f5576101f561700f565b614e51565b61511c565b6040516020016102409060208082526012908201527f6f7074696d69736d2e6c3267656e657369730000000000000000000000000000604082015260600190565b604080518083037fffffffffffffffffffffffffffffffffffffffffffffffffffffffffffffffe0018152828252805160209182012061028084019092526102a0830152600f6102c08301527f6f7074696d69736d2e6465706c6f7900000000000000000000000000000000006102e083015273ffffffffffffffffffffffffffffffffffffffff169063fec1a459908061030081016040516020818303038152906040528051906020012060001c73ffffffffffffffffffffffffffffffffffffffff16630457dad26040518163ffffffff1660e01b8152600401602060405180830381865afa158015610339573d6000803e3d6000fd5b505050506040513d601f19601f8201168201806040525081019061035d9190617060565b73ffffffffffffffffffffffffffffffffffffffff1663cf7bfef56040518163ffffffff1660e01b8152600401602060405180830381865afa1580156103a7573d6000803e3d6000fd5b505050506040513d601f19601f820116820180604052508101906103cb9190617084565b8152602001604051602001610411906020808252600f908201527f6f7074696d69736d2e6465706c6f790000000000000000000000000000000000604082015260600190565b6040516020818303038152906040528051906020012060001c73ffffffffffffffffffffffffffffffffffffffff16630457dad26040518163ffffffff1660e01b8152600401602060405180830381865afa158015610474573d6000803e3d6000fd5b505050506040513d601f19601f820116820180604052508101906104989190617060565b73ffffffffffffffffffffffffffffffffffffffff1663a2af0d1f6040518163ffffffff1660e01b8152600401602060405180830381865afa1580156104e2573d6000803e3d6000fd5b505050506040513d601f19601f820116820180604052508101906105069190617084565b8152600e5473ffffffffffffffffffffffffffffffffffffffff908116602080840191909152600d5482166040808501919091526010549092166060840152905160809092019161058991016020808252600f908201527f6f7074696d69736d2e6465706c6f790000000000000000000000000000000000604082015260600190565b6040516020818303038152906040528051906020012060001c73ffffffffffffffffffffffffffffffffffffffff16630457dad26040518163ffffffff1660e01b8152600401602060405180830381865afa1580156105ec573d6000803e3d6000fd5b505050506040513d601f19601f820116820180604052508101906106109190617060565b73ffffffffffffffffffffffffffffffffffffffff1663dad544e06040518163ffffffff1660e01b8152600401602060405180830381865afa15801561065a573d6000803e3d6000fd5b505050506040513d601f19601f8201168201806040525081019061067e9190617060565b73ffffffffffffffffffffffffffffffffffffffff1681526020016040516020016106da906020808252600f908201527f6f7074696d69736d2e6465706c6f790000000000000000000000000000000000604082015260600190565b6040516020818303038152906040528051906020012060001c73ffffffffffffffffffffffffffffffffffffffff16630457dad26040518163ffffffff1660e01b8152600401602060405180830381865afa15801561073d573d6000803e3d6000fd5b505050506040513d601f19601f820116820180604052508101906107619190617060565b73ffffffffffffffffffffffffffffffffffffffff166342c802956040518163ffffffff1660e01b8152600401602060405180830381865afa1580156107ab573d6000803e3d6000fd5b505050506040513d601f19601f820116820180604052508101906107cf9190617060565b73ffffffffffffffffffffffffffffffffffffffff16815260200160405160200161082b906020808252600f908201527f6f7074696d69736d2e6465706c6f790000000000000000000000000000000000604082015260600190565b6040516020818303038152906040528051906020012060001c73ffffffffffffffffffffffffffffffffffffffff16630457dad26040518163ffffffff1660e01b8152600401602060405180830381865afa15801561088e573d6000803e3d6000fd5b505050506040513d601f19601f820116820180604052508101906108b29190617060565b73ffffffffffffffffffffffffffffffffffffffff1663e4b14f856040518163ffffffff1660e01b8152600401602060405180830381865afa1580156108fc573d6000803e3d6000fd5b505050506040513d601f19601f820116820180604052508101906109209190617084565b8152602001604051602001610966906020808252600f908201527f6f7074696d69736d2e6465706c6f790000000000000000000000000000000000604082015260600190565b6040516020818303038152906040528051906020012060001c73ffffffffffffffffffffffffffffffffffffffff16630457dad26040518163ffffffff1660e01b8152600401602060405180830381865afa1580156109c9573d6000803e3d6000fd5b505050506040513d601f19601f820116820180604052508101906109ed9190617060565b73ffffffffffffffffffffffffffffffffffffffff1663a1f1478c6040518163ffffffff1660e01b8152600401602060405180830381865afa158015610a37573d6000803e3d6000fd5b505050506040513d601f19601f82011682018060405250810190610a5b9190617084565b8152602001604051602001610aa1906020808252600f908201527f6f7074696d69736d2e6465706c6f790000000000000000000000000000000000604082015260600190565b6040516020818303038152906040528051906020012060001c73ffffffffffffffffffffffffffffffffffffffff16630457dad26040518163ffffffff1660e01b8152600401602060405180830381865afa158015610b04573d6000803e3d6000fd5b505050506040513d601f19601f82011682018060405250810190610b289190617060565b73ffffffffffffffffffffffffffffffffffffffff16637cf48b406040518163ffffffff1660e01b8152600401602060405180830381865afa158015610b72573d6000803e3d6000fd5b505050506040513d601f19601f82011682018060405250810190610b969190617060565b73ffffffffffffffffffffffffffffffffffffffff168152602001604051602001610bf2906020808252600f908201527f6f7074696d69736d2e6465706c6f790000000000000000000000000000000000604082015260600190565b6040516020818303038152906040528051906020012060001c73ffffffffffffffffffffffffffffffffffffffff16630457dad26040518163ffffffff1660e01b8152600401602060405180830381865afa158015610c55573d6000803e3d6000fd5b505050506040513d601f19601f82011682018060405250810190610c799190617060565b73ffffffffffffffffffffffffffffffffffffffff166343160d9d6040518163ffffffff1660e01b8152600401602060405180830381865afa158015610cc3573d6000803e3d6000fd5b505050506040513d601f19601f82011682018060405250810190610ce79190617084565b8152602001604051602001610d2d906020808252600f908201527f6f7074696d69736d2e6465706c6f790000000000000000000000000000000000604082015260600190565b6040516020818303038152906040528051906020012060001c73ffffffffffffffffffffffffffffffffffffffff16630457dad26040518163ffffffff1660e01b8152600401602060405180830381865afa158015610d90573d6000803e3d6000fd5b505050506040513d601f19601f82011682018060405250810190610db49190617060565b73ffffffffffffffffffffffffffffffffffffffff16633100f9f16040518163ffffffff1660e01b8152600401602060405180830381865afa158015610dfe573d6000803e3d6000fd5b505050506040513d601f19601f82011682018060405250810190610e229190617084565b8152602001604051602001610e68906020808252600f908201527f6f7074696d69736d2e6465706c6f790000000000000000000000000000000000604082015260600190565b6040516020818303038152906040528051906020012060001c73ffffffffffffffffffffffffffffffffffffffff16630457dad26040518163ffffffff1660e01b8152600401602060405180830381865afa158015610ecb573d6000803e3d6000fd5b505050506040513d601f19601f82011682018060405250810190610eef9190617060565b73ffffffffffffffffffffffffffffffffffffffff166355d62b7d6040518163ffffffff1660e01b8152600401602060405180830381865afa158015610f39573d6000803e3d6000fd5b505050506040513d601f19601f82011682018060405250810190610f5d9190617060565b73ffffffffffffffffffffffffffffffffffffffff168152602001604051602001610fb9906020808252600f908201527f6f7074696d69736d2e6465706c6f790000000000000000000000000000000000604082015260600190565b6040516020818303038152906040528051906020012060001c73ffffffffffffffffffffffffffffffffffffffff16630457dad26040518163ffffffff1660e01b8152600401602060405180830381865afa15801561101c573d6000803e3d6000fd5b505050506040513d601f19601f820116820180604052508101906110409190617060565b73ffffffffffffffffffffffffffffffffffffffff1663752642ee6040518163ffffffff1660e01b8152600401602060405180830381865afa15801561108a573d6000803e3d6000fd5b505050506040513d601f19601f820116820180604052508101906110ae9190617084565b81526020016040516020016110f4906020808252600f908201527f6f7074696d69736d2e6465706c6f790000000000000000000000000000000000604082015260600190565b6040516020818303038152906040528051906020012060001c73ffffffffffffffffffffffffffffffffffffffff16630457dad26040518163ffffffff1660e01b8152600401602060405180830381865afa158015611157573d6000803e3d6000fd5b505050506040513d601f19601f8201168201806040525081019061117b9190617060565b73ffffffffffffffffffffffffffffffffffffffff166358371a456040518163ffffffff1660e01b8152600401602060405180830381865afa1580156111c5573d6000803e3d6000fd5b505050506040513d601f19601f820116820180604052508101906111e99190617084565b815260200160405160200161122f906020808252600f908201527f6f7074696d69736d2e6465706c6f790000000000000000000000000000000000604082015260600190565b6040516020818303038152906040528051906020012060001c73ffffffffffffffffffffffffffffffffffffffff16630457dad26040518163ffffffff1660e01b8152600401602060405180830381865afa158015611292573d6000803e3d6000fd5b505050506040513d601f19601f820116820180604052508101906112b69190617060565b73ffffffffffffffffffffffffffffffffffffffff1663090894dc6040518163ffffffff1660e01b8152600401602060405180830381865afa158015611300573d6000803e3d6000fd5b505050506040513d601f19601f820116820180604052508101906113249190617060565b73ffffffffffffffffffffffffffffffffffffffff16815260005460209091019060ff1660088111156113595761135961700f565b815260200160405160200161139f906020808252600f908201527f6f7074696d69736d2e6465706c6f790000000000000000000000000000000000604082015260600190565b6040516020818303038152906040528051906020012060001c73ffffffffffffffffffffffffffffffffffffffff16630457dad26040518163ffffffff1660e01b8152600401602060405180830381865afa158015611402573d6000803e3d6000fd5b505050506040513d601f19601f820116820180604052508101906114269190617060565b73ffffffffffffffffffffffffffffffffffffffff1663493f862b6040518163ffffffff1660e01b8152600401602060405180830381865afa158015611470573d6000803e3d6000fd5b505050506040513d601f19601f82011682018060405250810190611494919061709d565b151581526020016040516020016114dc906020808252600f908201527f6f7074696d69736d2e6465706c6f790000000000000000000000000000000000604082015260600190565b6040516020818303038152906040528051906020012060001c73ffffffffffffffffffffffffffffffffffffffff16630457dad26040518163ffffffff1660e01b8152600401602060405180830381865afa15801561153f573d6000803e3d6000fd5b505050506040513d601f19601f820116820180604052508101906115639190617060565b73ffffffffffffffffffffffffffffffffffffffff1663ea175afd6040518163ffffffff1660e01b8152600401602060405180830381865afa1580156115ad573d6000803e3d6000fd5b505050506040513d601f19601f820116820180604052508101906115d1919061709d565b15158152602001604051602001611619906020808252600f908201527f6f7074696d69736d2e6465706c6f790000000000000000000000000000000000604082015260600190565b6040516020818303038152906040528051906020012060001c73ffffffffffffffffffffffffffffffffffffffff16630457dad26040518163ffffffff1660e01b8152600401602060405180830381865afa15801561167c573d6000803e3d6000fd5b505050506040513d601f19601f820116820180604052508101906116a09190617060565b73ffffffffffffffffffffffffffffffffffffffff16632e3905226040518163ffffffff1660e01b8152600401602060405180830381865afa1580156116ea573d6000803e3d6000fd5b505050506040513d601f19601f8201168201806040525081019061170e919061709d565b15158152506040518263ffffffff1660e01b815260040161172f91906170bf565b600060405180830381600087803b15801561174957600080fd5b505af115801561175d573d6000803e3d6000fd5b5050505060006040516020016117a4906020808252600f908201527f6f7074696d69736d2e6465706c6f790000000000000000000000000000000000604082015260600190565b6040516020818303038152906040528051906020012060001c73ffffffffffffffffffffffffffffffffffffffff16630457dad26040518163ffffffff1660e01b8152600401602060405180830381865afa158015611807573d6000803e3d6000fd5b505050506040513d601f19601f8201168201806040525081019061182b9190617060565b73ffffffffffffffffffffffffffffffffffffffff1663d2354f206040518163ffffffff1660e01b8152600401602060405180830381865afa158015611875573d6000803e3d6000fd5b505050506040513d601f19601f820116820180604052508101906118999190617060565b602454604080517f8da5cb5b0000000000000000000000000000000000000000000000000000000081529051929350737109709ecfa91a80626ff3989d68f67f5b1dd12d926306447d569273ffffffffffffffffffffffffffffffffffffffff1691638da5cb5b9160048083019260209291908290030181865afa158015611925573d6000803e3d6000fd5b505050506040513d601f19601f820116820180604052508101906119499190617060565b6040517fffffffff0000000000000000000000000000000000000000000000000000000060e084901b16815273ffffffffffffffffffffffffffffffffffffffff9091166004820152602401600060405180830381600087803b1580156119af57600080fd5b505af11580156119c3573d6000803e3d6000fd5b5050602480546040517ff2fde38b00000000000000000000000000000000000000000000000000000000815273ffffffffffffffffffffffffffffffffffffffff8681166004830152909116935063f2fde38b925001600060405180830381600087803b158015611a3357600080fd5b505af1158015611a47573d6000803e3d6000fd5b50505050737109709ecfa91a80626ff3989d68f67f5b1dd12d73ffffffffffffffffffffffffffffffffffffffff166390c5013b6040518163ffffffff1660e01b8152600401600060405180830381600087803b158015611aa757600080fd5b505af1158015611abb573d6000803e3d6000fd5b50505050611adc7342000000000000000000000000000000000000106151b1565b611af97342000000000000000000000000000000000000076151b1565b611b167342000000000000000000000000000000000000166151b1565b611b337342000000000000000000000000000000000000116151b1565b611b507342000000000000000000000000000000000000146151b1565b611b6d7342000000000000000000000000000000000000176151b1565b611b8a7342000000000000000000000000000000000000196151b1565b611ba773420000000000000000000000000000000000001a6151b1565b611bc473420000000000000000000000000000000000001b6151b1565b611be17342000000000000000000000000000000000000156151b1565b611bfe73420000000000000000000000000000000000000f6151b1565b611c1b7342000000000000000000000000000000000000006151b1565b611c387342000000000000000000000000000000000000426151b1565b611c557342000000000000000000000000000000000000216151b1565b611c727342000000000000000000000000000000000000206151b1565b611c8f7342000000000000000000000000000000000000066151b1565b611cac7342000000000000000000000000000000000000246151b1565b611cc97342000000000000000000000000000000000000256151b1565b611ce67342000000000000000000000000000000000000266151b1565b611d037342000000000000000000000000000000000000276151b1565b611d207342000000000000000000000000000000000000286151b1565b611d3d73ca11bde05977b3631167028862be2a173976ca11615227565b611d5a7313b0d85ccb8bf860b6b79af3029fca081ae9bef2615227565b611d777369f4d1788e39c87893c980c06edf4b7f686e2938615227565b611d9473fb1bffc9d739b8d520daf37df666da4c687191ea615227565b611db173a1dabef33b3b82c7814b6d82a79e50f4ac44102b615227565b611dce73914d7fec6aac8cd542e72bca78b30650d45643d7615227565b611deb734e59b44847b379578588920ca78fbf26c0b4956c615227565b611e0873998739bfdaadde7c933b942a68053933098f9eda615227565b611e206e22d473030f116ddee9f6b43ac78ba3615227565b611e3d737fc98430eaedbb6070b35b39d798725049088348615227565b611e5a735ff137d4b0fdcd49dca30c7cf57e578a026d2789615227565b611e7773efc2c1444ebcc4db75e7613d20c6a62ff67a167c615227565b611e906f71727de22e5e9d8baf0edac6f37da032615227565b611eac720f3df6d732807ef1319fb7b8bb8522d0beac02615227565b611ec771f90827f1c53a10cb7a02335b175320002935615227565b611ee473ba5ed099633d3b313e4d5f7bdc1305d3c28ba5ed615227565b611f226040518060400160405280601b81526020017f53657475703a20636f6d706c65746564204c322067656e657369730000000000815250614dc2565b50565b611f636040518060400160405280601681526020017f53657475703a204c312073657475702073746172742100000000000000000000815250614dc2565b611f6b614c9c565b1561210157737109709ecfa91a80626ff3989d68f67f5b1dd12d6371ee464d611f9261524b565b611f9a61532b565b6040518363ffffffff1660e01b8152600401611fb79291906172cf565b6020604051808303816000875af1158015611fd6573d6000803e3d6000fd5b505050506040513d601f19601f82011682018060405250810190611ffa9190617084565b506120396040518060400160405280601581526020017f53657475703a20666f726b2073656c6563746564210000000000000000000000815250614dc2565b62aa36a746148061204a5750600146145b612101576040517f08c379a000000000000000000000000000000000000000000000000000000000815260206004820152604b60248201527f53657475703a204554485f5250435f55524c206d75737420626520736574207460448201527f6f20612070726f64756374696f6e20285365706f6c6961206f72204d61696e6e60648201527f657429205250432055524c000000000000000000000000000000000000000000608482015260a4015b60405180910390fd5b6121b0604051602001612145906020808252600f908201527f6f7074696d69736d2e6465706c6f790000000000000000000000000000000000604082015260600190565b604080517fffffffffffffffffffffffffffffffffffffffffffffffffffffffffffffffe08184030181528282528051602091820120838301909252600683527f4465706c6f79000000000000000000000000000000000000000000000000000090830152906153e8565b61225f6040516020016121f49060208082526011908201527f6f7074696d69736d2e666f726b6c697665000000000000000000000000000000604082015260600190565b604080517fffffffffffffffffffffffffffffffffffffffffffffffffffffffffffffffe08184030181528282528051602091820120838301909252600883527f466f726b4c69766500000000000000000000000000000000000000000000000090830152906153e8565b6040516020016122a0906020808252600f908201527f6f7074696d69736d2e6465706c6f790000000000000000000000000000000000604082015260600190565b6040516020818303038152906040528051906020012060001c73ffffffffffffffffffffffffffffffffffffffff16630a9254e46040518163ffffffff1660e01b8152600401600060405180830381600087803b15801561230057600080fd5b505af1158015612314573d6000803e3d6000fd5b505050506040516020016123599060208082526011908201527f6f7074696d69736d2e666f726b6c697665000000000000000000000000000000604082015260600190565b6040516020818303038152906040528051906020012060001c73ffffffffffffffffffffffffffffffffffffffff16630a9254e46040518163ffffffff1660e01b8152600401600060405180830381600087803b1580156123b957600080fd5b505af11580156123cd573d6000803e3d6000fd5b5050505061240f6040518060400160405280601581526020017f53657475703a204c3120736574757020646f6e65210000000000000000000000815250614dc2565b612417614c9c565b1561243d576101bc60405180606001604052806039815260200161763760399139614dc2565b61247b6040518060400160405280601681526020017f53657475703a204c322073657475702073746172742100000000000000000000815250614dc2565b737109709ecfa91a80626ff3989d68f67f5b1dd12d73ffffffffffffffffffffffffffffffffffffffff1663b4d6c7826040516020016124ec9060208082526012908201527f6f7074696d69736d2e6c3267656e657369730000000000000000000000000000604082015260600190565b604080518083037fffffffffffffffffffffffffffffffffffffffffffffffffffffffffffffffe00181529082905280516020918201207f3ebf73b40000000000000000000000000000000000000000000000000000000083526004830191909152601960248301527f4c3247656e657369732e732e736f6c3a4c3247656e6573697300000000000000604483015290737109709ecfa91a80626ff3989d68f67f5b1dd12d90633ebf73b490606401600060405180830381865afa1580156125b8573d6000803e3d6000fd5b505050506040513d6000823e601f3d9081017fffffffffffffffffffffffffffffffffffffffffffffffffffffffffffffffe01682016040526125fe9190810190617321565b6040518363ffffffff1660e01b815260040161261b929190617372565b600060405180830381600087803b15801561263557600080fd5b505af1158015612649573d6000803e3d6000fd5b50505050737109709ecfa91a80626ff3989d68f67f5b1dd12d73ffffffffffffffffffffffffffffffffffffffff1663ea0602916040516020016126be9060208082526012908201527f6f7074696d69736d2e6c3267656e657369730000000000000000000000000000604082015260600190565b604080518083037fffffffffffffffffffffffffffffffffffffffffffffffffffffffffffffffe001815290829052805160209091012060e083901b7fffffffff0000000000000000000000000000000000000000000000000000000016825273ffffffffffffffffffffffffffffffffffffffff166004820152602401600060405180830381600087803b15801561275657600080fd5b505af115801561276a573d6000803e3d6000fd5b505050506101bc6040518060400160405280601581526020017f53657475703a204c3220736574757020646f6e65210000000000000000000000815250614dc2565b6127b4614c9c565b15611f22576100d6816040516020016127cd91906173a1565b604051602081830303815290604052614dc2565b6040516020016128229060208082526012908201527f6f7074696d69736d2e6172746966616374730000000000000000000000000000604082015260600190565b6040516020818303038152906040528051906020012060001c81565b612846614c9c565b80156128575750612855614ad0565b155b15611f22576040517fdd82d13e00000000000000000000000000000000000000000000000000000000815260016004820152737109709ecfa91a80626ff3989d68f67f5b1dd12d9063dd82d13e90602401600060405180830381600087803b1580156128c257600080fd5b505af11580156128d6573d6000803e3d6000fd5b50505050611f22816040516020016127cd91906173e6565b6128f6614c9c565b15611f22576040517fdd82d13e00000000000000000000000000000000000000000000000000000000815260016004820152737109709ecfa91a80626ff3989d68f67f5b1dd12d9063dd82d13e90602401600060405180830381600087803b15801561296157600080fd5b505af1158015612975573d6000803e3d6000fd5b50505050611f22816040516020016127cd919061742b565b6129cb6040518060400160405280601e81526020017f53657475703a206372656174696e67204c31206465706c6f796d656e74730000815250614dc2565b604080517fb4d6c782000000000000000000000000000000000000000000000000000000008152734e59b44847b379578588920ca78fbf26c0b4956c60048201526024810191909152604560448201527f7fffffffffffffffffffffffffffffffffffffffffffffffffffffffffffffff60648201527fe03601600081602082378035828234f58015156039578182fd5b80825250505060848201527f6014600cf300000000000000000000000000000000000000000000000000000060a4820152737109709ecfa91a80626ff3989d68f67f5b1dd12d9063b4d6c7829060c401600060405180830381600087803b158015612ac657600080fd5b505af1158015612ada573d6000803e3d6000fd5b50505050612ae6614c9c565b15612ba957604051602001612b2c9060208082526011908201527f6f7074696d69736d2e666f726b6c697665000000000000000000000000000000604082015260600190565b6040516020818303038152906040528051906020012060001c73ffffffffffffffffffffffffffffffffffffffff1663c04062266040518163ffffffff1660e01b8152600401600060405180830381600087803b158015612b8c57600080fd5b505af1158015612ba0573d6000803e3d6000fd5b50505050612c63565b604051602001612bea906020808252600f908201527f6f7074696d69736d2e6465706c6f790000000000000000000000000000000000604082015260600190565b6040516020818303038152906040528051906020012060001c73ffffffffffffffffffffffffffffffffffffffff1663c04062266040518163ffffffff1660e01b8152600401600060405180830381600087803b158015612c4a57600080fd5b505af1158015612c5e573d6000803e3d6000fd5b505050505b612c846040518060600160405280603981526020016175fe60399139614dc2565b604051602001612cc59060208082526012908201527f6f7074696d69736d2e6172746966616374730000000000000000000000000000604082015260600190565b604080518083037fffffffffffffffffffffffffffffffffffffffffffffffffffffffffffffffe00181529082905280516020918201207f3fb902710000000000000000000000000000000000000000000000000000000083526004830191909152601360248301527f4f7074696d69736d506f7274616c50726f787900000000000000000000000000604483015273ffffffffffffffffffffffffffffffffffffffff1690633fb9027190606401602060405180830381865afa158015612d91573d6000803e3d6000fd5b505050506040513d601f19601f82011682018060405250810190612db59190617060565b600a80547fffffffffffffffffffffffff00000000000000000000000000000000000000001673ffffffffffffffffffffffffffffffffffffffff92909216919091179055612e02614c9c565b1580612f3f5750604051602001612e4a906020808252600f908201527f6f7074696d69736d2e6465706c6f790000000000000000000000000000000000604082015260600190565b6040516020818303038152906040528051906020012060001c73ffffffffffffffffffffffffffffffffffffffff16630457dad26040518163ffffffff1660e01b8152600401602060405180830381865afa158015612ead573d6000803e3d6000fd5b505050506040513d601f19601f82011682018060405250810190612ed19190617060565b73ffffffffffffffffffffffffffffffffffffffff1663718a389c6040518163ffffffff1660e01b8152600401602060405180830381865afa158015612f1b573d6000803e3d6000fd5b505050506040513d601f19601f82011682018060405250810190612f3f919061709d565b156130bb57604051602001612f859060208082526012908201527f6f7074696d69736d2e6172746966616374730000000000000000000000000000604082015260600190565b604080518083037fffffffffffffffffffffffffffffffffffffffffffffffffffffffffffffffe00181529082905280516020918201207f3fb902710000000000000000000000000000000000000000000000000000000083526004830191909152600f60248301527f4554484c6f636b626f7850726f78790000000000000000000000000000000000604483015273ffffffffffffffffffffffffffffffffffffffff1690633fb9027190606401602060405180830381865afa158015613051573d6000803e3d6000fd5b505050506040513d601f19601f820116820180604052508101906130759190617060565b600b80547fffffffffffffffffffffffff00000000000000000000000000000000000000001673ffffffffffffffffffffffffffffffffffffffff929092169190911790555b6040516020016130fc9060208082526012908201527f6f7074696d69736d2e6172746966616374730000000000000000000000000000604082015260600190565b604080518083037fffffffffffffffffffffffffffffffffffffffffffffffffffffffffffffffe00181529082905280516020918201207f3fb902710000000000000000000000000000000000000000000000000000000083526004830191909152601160248301527f53797374656d436f6e66696750726f7879000000000000000000000000000000604483015273ffffffffffffffffffffffffffffffffffffffff1690633fb9027190606401602060405180830381865afa1580156131c8573d6000803e3d6000fd5b505050506040513d601f19601f820116820180604052508101906131ec9190617060565b600c80547fffffffffffffffffffffffff00000000000000000000000000000000000000001673ffffffffffffffffffffffffffffffffffffffff92909216919091179055604080516020808201526012918101919091527f6f7074696d69736d2e61727469666163747300000000000000000000000000006060820152608001604080518083037fffffffffffffffffffffffffffffffffffffffffffffffffffffffffffffffe00181529082905280516020918201207f3fb902710000000000000000000000000000000000000000000000000000000083526004830191909152601560248301527f4c315374616e6461726442726964676550726f78790000000000000000000000604483015273ffffffffffffffffffffffffffffffffffffffff1690633fb9027190606401602060405180830381865afa158015613339573d6000803e3d6000fd5b505050506040513d601f19601f8201168201806040525081019061335d9190617060565b600d80547fffffffffffffffffffffffff00000000000000000000000000000000000000001673ffffffffffffffffffffffffffffffffffffffff92909216919091179055604080516020808201526012918101919091527f6f7074696d69736d2e61727469666163747300000000000000000000000000006060820152608001604080518083037fffffffffffffffffffffffffffffffffffffffffffffffffffffffffffffffe00181529082905280516020918201207f3fb902710000000000000000000000000000000000000000000000000000000083526004830191909152601b60248301527f4c3143726f7373446f6d61696e4d657373656e67657250726f78790000000000604483015273ffffffffffffffffffffffffffffffffffffffff1690633fb9027190606401602060405180830381865afa1580156134aa573d6000803e3d6000fd5b505050506040513d601f19601f820116820180604052508101906134ce9190617060565b600e80547fffffffffffffffffffffffff00000000000000000000000000000000000000001673ffffffffffffffffffffffffffffffffffffffff929092169182179055737109709ecfa91a80626ff3989d68f67f5b1dd12d9063c657c7189073111100000000000000000000000000000000111101604080517fffffffff0000000000000000000000000000000000000000000000000000000060e085901b16815273ffffffffffffffffffffffffffffffffffffffff90921660048301526024820152602360448201527f4c3143726f7373446f6d61696e4d657373656e67657250726f78795f616c696160648201527f7365640000000000000000000000000000000000000000000000000000000000608482015260a401600060405180830381600087803b15801561360357600080fd5b505af1158015613617573d6000803e3d6000fd5b5050505060405160200161365c9060208082526012908201527f6f7074696d69736d2e6172746966616374730000000000000000000000000000604082015260600190565b604080518083037fffffffffffffffffffffffffffffffffffffffffffffffffffffffffffffffe00181529082905280516020918201207f3fb902710000000000000000000000000000000000000000000000000000000083526004830191909152600e60248301527f416464726573734d616e61676572000000000000000000000000000000000000604483015273ffffffffffffffffffffffffffffffffffffffff1690633fb9027190606401602060405180830381865afa158015613728573d6000803e3d6000fd5b505050506040513d601f19601f8201168201806040525081019061374c9190617060565b600f80547fffffffffffffffffffffffff00000000000000000000000000000000000000001673ffffffffffffffffffffffffffffffffffffffff92909216919091179055604080516020808201526012918101919091527f6f7074696d69736d2e61727469666163747300000000000000000000000000006060820152608001604080518083037fffffffffffffffffffffffffffffffffffffffffffffffffffffffffffffffe00181529082905280516020918201207f3fb902710000000000000000000000000000000000000000000000000000000083526004830191909152601360248301527f4c3145524337323142726964676550726f787900000000000000000000000000604483015273ffffffffffffffffffffffffffffffffffffffff1690633fb9027190606401602060405180830381865afa158015613899573d6000803e3d6000fd5b505050506040513d601f19601f820116820180604052508101906138bd9190617060565b601080547fffffffffffffffffffffffff00000000000000000000000000000000000000001673ffffffffffffffffffffffffffffffffffffffff92909216919091179055604080516020808201526012918101919091527f6f7074696d69736d2e61727469666163747300000000000000000000000000006060820152608001604080518083037fffffffffffffffffffffffffffffffffffffffffffffffffffffffffffffffe00181529082905280516020918201207f3fb902710000000000000000000000000000000000000000000000000000000083526004830191909152602160248301527f4f7074696d69736d4d696e7461626c654552433230466163746f727950726f7860448301527f7900000000000000000000000000000000000000000000000000000000000000606483015273ffffffffffffffffffffffffffffffffffffffff1690633fb9027190608401602060405180830381865afa158015613a30573d6000803e3d6000fd5b505050506040513d601f19601f82011682018060405250810190613a549190617060565b601180547fffffffffffffffffffffffff00000000000000000000000000000000000000001673ffffffffffffffffffffffffffffffffffffffff92909216919091179055604080516020808201526012918101919091527f6f7074696d69736d2e61727469666163747300000000000000000000000000006060820152608001604080518083037fffffffffffffffffffffffffffffffffffffffffffffffffffffffffffffffe00181529082905280516020918201207f3fb902710000000000000000000000000000000000000000000000000000000083526004830191909152601560248301527f50726f746f636f6c56657273696f6e7350726f78790000000000000000000000604483015273ffffffffffffffffffffffffffffffffffffffff1690633fb9027190606401602060405180830381865afa158015613ba1573d6000803e3d6000fd5b505050506040513d601f19601f82011682018060405250810190613bc59190617060565b601280547fffffffffffffffffffffffff00000000000000000000000000000000000000001673ffffffffffffffffffffffffffffffffffffffff9290921691909117815560408051602080820152908101919091527f6f7074696d69736d2e61727469666163747300000000000000000000000000006060820152608001604080518083037fffffffffffffffffffffffffffffffffffffffffffffffffffffffffffffffe00181529082905280516020918201207f3fb902710000000000000000000000000000000000000000000000000000000083526004830191909152601560248301527f5375706572636861696e436f6e66696750726f78790000000000000000000000604483015273ffffffffffffffffffffffffffffffffffffffff1690633fb9027190606401602060405180830381865afa158015613d10573d6000803e3d6000fd5b505050506040513d601f19601f82011682018060405250810190613d349190617060565b601380547fffffffffffffffffffffffff00000000000000000000000000000000000000001673ffffffffffffffffffffffffffffffffffffffff92909216919091179055604080516020808201526012918101919091527f6f7074696d69736d2e61727469666163747300000000000000000000000000006060820152608001604080518083037fffffffffffffffffffffffffffffffffffffffffffffffffffffffffffffffe00181529082905280516020918201207f3fb902710000000000000000000000000000000000000000000000000000000083526004830191909152601860248301527f416e63686f725374617465526567697374727950726f78790000000000000000604483015273ffffffffffffffffffffffffffffffffffffffff1690633fb9027190606401602060405180830381865afa158015613e81573d6000803e3d6000fd5b505050506040513d601f19601f82011682018060405250810190613ea59190617060565b600180547fffffffffffffffffffffffff00000000000000000000000000000000000000001673ffffffffffffffffffffffffffffffffffffffff92909216919091179055604080516020808201526012918101919091527f6f7074696d69736d2e61727469666163747300000000000000000000000000006060820152608001604080518083037fffffffffffffffffffffffffffffffffffffffffffffffffffffffffffffffe00181529082905280516020918201207f3fb902710000000000000000000000000000000000000000000000000000000083526004830191909152601760248301527f4469737075746547616d65466163746f727950726f7879000000000000000000604483015273ffffffffffffffffffffffffffffffffffffffff1690633fb9027190606401602060405180830381865afa158015613ff2573d6000803e3d6000fd5b505050506040513d601f19601f820116820180604052508101906140169190617060565b600060016101000a81548173ffffffffffffffffffffffffffffffffffffffff021916908373ffffffffffffffffffffffffffffffffffffffff1602179055506040516020016140979060208082526012908201527f6f7074696d69736d2e6172746966616374730000000000000000000000000000604082015260600190565b604080518083037fffffffffffffffffffffffffffffffffffffffffffffffffffffffffffffffe00181529082905280516020918201207f3fb902710000000000000000000000000000000000000000000000000000000083526004830191909152601060248301527f44656c617965645745544850726f787900000000000000000000000000000000604483015273ffffffffffffffffffffffffffffffffffffffff1690633fb9027190606401602060405180830381865afa158015614163573d6000803e3d6000fd5b505050506040513d601f19601f820116820180604052508101906141879190617060565b600380547fffffffffffffffffffffffff00000000000000000000000000000000000000001673ffffffffffffffffffffffffffffffffffffffff92909216919091179055604080516020808201526012918101919091527f6f7074696d69736d2e61727469666163747300000000000000000000000000006060820152608001604080518083037fffffffffffffffffffffffffffffffffffffffffffffffffffffffffffffffe00181529082905280516020918201207f3fb902710000000000000000000000000000000000000000000000000000000083526004830191909152601260248301527f4f50436f6e7472616374734d616e616765720000000000000000000000000000604483015273ffffffffffffffffffffffffffffffffffffffff1690633fb9027190606401602060405180830381865afa1580156142d4573d6000803e3d6000fd5b505050506040513d601f19601f820116820180604052508101906142f89190617060565b601580547fffffffffffffffffffffffff00000000000000000000000000000000000000001673ffffffffffffffffffffffffffffffffffffffff92909216919091179055604080516020808201526012918101919091527f6f7074696d69736d2e61727469666163747300000000000000000000000000006060820152608001604080518083037fffffffffffffffffffffffffffffffffffffffffffffffffffffffffffffffe00181529082905280516020918201207f3fb902710000000000000000000000000000000000000000000000000000000083526004830191909152600a60248301527f50726f787941646d696e00000000000000000000000000000000000000000000604483015273ffffffffffffffffffffffffffffffffffffffff1690633fb9027190606401602060405180830381865afa158015614445573d6000803e3d6000fd5b505050506040513d601f19601f820116820180604052508101906144699190617060565b600780547fffffffffffffffffffffffff00000000000000000000000000000000000000001673ffffffffffffffffffffffffffffffffffffffff929092169182179055604080517f8da5cb5b0000000000000000000000000000000000000000000000000000000081529051638da5cb5b916004808201926020929091908290030181865afa158015614501573d6000803e3d6000fd5b505050506040513d601f19601f820116820180604052508101906145259190617060565b600680547fffffffffffffffffffffffff00000000000000000000000000000000000000001673ffffffffffffffffffffffffffffffffffffffff928316179055601354614573911661541e565b600980547fffffffffffffffffffffffff00000000000000000000000000000000000000001673ffffffffffffffffffffffffffffffffffffffff929092169182179055604080517f8da5cb5b0000000000000000000000000000000000000000000000000000000081529051638da5cb5b916004808201926020929091908290030181865afa15801561460b573d6000803e3d6000fd5b505050506040513d601f19601f8201168201806040525081019061462f9190617060565b600880547fffffffffffffffffffffffff00000000000000000000000000000000000000001673ffffffffffffffffffffffffffffffffffffffff92909216919091179055604080516020808201526012918101919091527f6f7074696d69736d2e61727469666163747300000000000000000000000000006060820152608001604080518083037fffffffffffffffffffffffffffffffffffffffffffffffffffffffffffffffe00181529082905280516020918201207f3fb902710000000000000000000000000000000000000000000000000000000083526004830191909152600d60248301527f4d69707353696e676c65746f6e00000000000000000000000000000000000000604483015273ffffffffffffffffffffffffffffffffffffffff1690633fb9027190606401602060405180830381865afa15801561477c573d6000803e3d6000fd5b505050506040513d601f19601f820116820180604052508101906147a09190617060565b601680547fffffffffffffffffffffffff00000000000000000000000000000000000000001673ffffffffffffffffffffffffffffffffffffffff9290921691909117905560408051602080820152600f918101919091527f6f7074696d69736d2e6465706c6f79000000000000000000000000000000000060608201526080016040516020818303038152906040528051906020012060001c73ffffffffffffffffffffffffffffffffffffffff16630457dad26040518163ffffffff1660e01b8152600401602060405180830381865afa158015614884573d6000803e3d6000fd5b505050506040513d601f19601f820116820180604052508101906148a89190617060565b73ffffffffffffffffffffffffffffffffffffffff166308e0e2bb6040518163ffffffff1660e01b8152600401602060405180830381865afa1580156148f2573d6000803e3d6000fd5b505050506040513d601f19601f82011682018060405250810190614916919061709d565b15614a925760405160200161495c9060208082526012908201527f6f7074696d69736d2e6172746966616374730000000000000000000000000000604082015260600190565b604080518083037fffffffffffffffffffffffffffffffffffffffffffffffffffffffffffffffe00181529082905280516020918201207f3fb902710000000000000000000000000000000000000000000000000000000083526004830191909152601e60248301527f44617461417661696c6162696c6974794368616c6c656e676550726f78790000604483015273ffffffffffffffffffffffffffffffffffffffff1690633fb9027190606401602060405180830381865afa158015614a28573d6000803e3d6000fd5b505050506040513d601f19601f82011682018060405250810190614a4c9190617060565b601480547fffffffffffffffffffffffff00000000000000000000000000000000000000001673ffffffffffffffffffffffffffffffffffffffff929092169190911790555b6101bc6040518060400160405280602081526020017f53657475703a2072656769737465726564204c31206465706c6f796d656e7473815250614dc2565b600080614adb6154ef565b60408051808201909152600281527f6f7000000000000000000000000000000000000000000000000000000000000060209182015281519101207fbc41dd7236fa8be09e593a876f5868355879efd89a87f2a6d06bb0b228b3a3b21492915050565b604051602001614b7e9060208082526011908201527f6f7074696d69736d2e666f726b6c697665000000000000000000000000000000604082015260600190565b6040516020818303038152906040528051906020012060001c73ffffffffffffffffffffffffffffffffffffffff166316c9ce2d6040518163ffffffff1660e01b8152600401602060405180830381865afa158015614be1573d6000803e3d6000fd5b505050506040513d601f19601f82011682018060405250810190614c05919061709d565b15611f22576040517fdd82d13e00000000000000000000000000000000000000000000000000000000815260016004820152737109709ecfa91a80626ff3989d68f67f5b1dd12d9063dd82d13e90602401600060405180830381600087803b158015614c7057600080fd5b505af1158015614c84573d6000803e3d6000fd5b50505050611f22816040516020016127cd9190617470565b6000614ca6615572565b905090565b6040517f64af255d000000000000000000000000000000000000000000000000000000008152737109709ecfa91a80626ff3989d68f67f5b1dd12d906364af255d90614cfc906002906004016174b5565b602060405180830381865afa158015614d19573d6000803e3d6000fd5b505050506040513d601f19601f82011682018060405250810190614d3d919061709d565b156101bc576040517fdd82d13e00000000000000000000000000000000000000000000000000000000815260016004820152737109709ecfa91a80626ff3989d68f67f5b1dd12d9063dd82d13e90602401600060405180830381600087803b158015614da857600080fd5b505af1158015614dbc573d6000803e3d6000fd5b50505050565b611f2281604051602401614dd691906174f6565b604080517fffffffffffffffffffffffffffffffffffffffffffffffffffffffffffffffe08184030181529190526020810180517bffffffffffffffffffffffffffffffffffffffffffffffffffffffff167f41304fac00000000000000000000000000000000000000000000000000000000179052615638565b60606000826008811115614e6757614e6761700f565b03614ea557505060408051808201909152600481527f6e6f6e6500000000000000000000000000000000000000000000000000000000602082015290565b6001826008811115614eb957614eb961700f565b03614ef757505060408051808201909152600581527f64656c7461000000000000000000000000000000000000000000000000000000602082015290565b6002826008811115614f0b57614f0b61700f565b03614f4957505060408051808201909152600781527f65636f746f6e6500000000000000000000000000000000000000000000000000602082015290565b6003826008811115614f5d57614f5d61700f565b03614f9b57505060408051808201909152600581527f666a6f7264000000000000000000000000000000000000000000000000000000602082015290565b6004826008811115614faf57614faf61700f565b03614fed57505060408051808201909152600781527f6772616e69746500000000000000000000000000000000000000000000000000602082015290565b60058260088111156150015761500161700f565b0361503f57505060408051808201909152600881527f686f6c6f63656e65000000000000000000000000000000000000000000000000602082015290565b60068260088111156150535761505361700f565b0361509157505060408051808201909152600781527f697374686d757300000000000000000000000000000000000000000000000000602082015290565b60078260088111156150a5576150a561700f565b036150e357505060408051808201909152600681527f6a6f7669616e0000000000000000000000000000000000000000000000000000602082015290565b505060408051808201909152600781527f756e6b6e6f776e00000000000000000000000000000000000000000000000000602082015290565b6151ad8282604051602401615132929190617509565b604080517fffffffffffffffffffffffffffffffffffffffffffffffffffffffffffffffe08184030181529190526020810180517bffffffffffffffffffffffffffffffffffffffffffffffffffffffff167f4b5c427700000000000000000000000000000000000000000000000000000000179052615638565b5050565b737109709ecfa91a80626ff3989d68f67f5b1dd12d63c657c718826151d581615641565b6040518363ffffffff1660e01b81526004016151f2929190617372565b600060405180830381600087803b15801561520c57600080fd5b505af1158015615220573d6000803e3d6000fd5b5050505050565b737109709ecfa91a80626ff3989d68f67f5b1dd12d63c657c718826151d5816164be565b6040517ff877cb1900000000000000000000000000000000000000000000000000000000815260206004820152600c60248201527f464f524b5f5250435f55524c00000000000000000000000000000000000000006044820152606090737109709ecfa91a80626ff3989d68f67f5b1dd12d9063f877cb19906064015b600060405180830381865afa1580156152e5573d6000803e3d6000fd5b505050506040513d6000823e601f3d9081017fffffffffffffffffffffffffffffffffffffffffffffffffffffffffffffffe0168201604052614ca69190810190617321565b6040517fc1978d1f00000000000000000000000000000000000000000000000000000000815260206004820152601160248201527f464f524b5f424c4f434b5f4e554d4245520000000000000000000000000000006044820152600090737109709ecfa91a80626ff3989d68f67f5b1dd12d9063c1978d1f90606401602060405180830381865afa1580156153c4573d6000803e3d6000fd5b505050506040513d601f19601f82011682018060405250810190614ca69190617084565b600081826040516020016153fd929190617537565b6040516020818303038152906040529050615419838383616c82565b505050565b6040517f667f9d7000000000000000000000000000000000000000000000000000000000815273ffffffffffffffffffffffffffffffffffffffff821660048201527fb53127684a568b3173ae13b9f8a6016e243e63b6e8ee1178d6a717850b5d61036024820152600090737109709ecfa91a80626ff3989d68f67f5b1dd12d9063667f9d7090604401602060405180830381865afa1580156154c5573d6000803e3d6000fd5b505050506040513d601f19601f820116820180604052508101906154e99190617084565b92915050565b604080518082018252600281527f6f70000000000000000000000000000000000000000000000000000000000000602082015290517fd145736c000000000000000000000000000000000000000000000000000000008152606091737109709ecfa91a80626ff3989d68f67f5b1dd12d9163d145736c916152c89160040161758f565b604080517f4777f3cf0000000000000000000000000000000000000000000000000000000081526004810191909152600960448201527f464f524b5f544553540000000000000000000000000000000000000000000000606482015260006024820181905290737109709ecfa91a80626ff3989d68f67f5b1dd12d90634777f3cf90608401602060405180830381865afa158015615614573d6000803e3d6000fd5b505050506040513d601f19601f82011682018060405250810190614ca6919061709d565b611f2281616eaa565b60607208400000000000000000000000000000000000600b83901c721fffffffffffffffffffffffffffffffffffff16146156fe576040517f08c379a000000000000000000000000000000000000000000000000000000000815260206004820152602760248201527f5072656465706c6f79733a2061646472657373206d757374206265206120707260448201527f656465706c6f790000000000000000000000000000000000000000000000000060648201526084016120f8565b7fffffffffffffffffffffffffbe0000000000000000000000000000000000000073ffffffffffffffffffffffffffffffffffffffff83160161577457505060408051808201909152601381527f4c65676163794d65737361676550617373657200000000000000000000000000602082015290565b7fffffffffffffffffffffffffbdffffffffffffffffffffffffffffffffffffff73ffffffffffffffffffffffffffffffffffffffff8316016157ea57505060408051808201909152600f81527f4c314d65737361676553656e6465720000000000000000000000000000000000602082015290565b7fffffffffffffffffffffffffbdfffffffffffffffffffffffffffffffffffffe73ffffffffffffffffffffffffffffffffffffffff83160161586057505060408051808201909152601181527f4465706c6f79657257686974656c697374000000000000000000000000000000602082015290565b7fffffffffffffffffffffffffbdfffffffffffffffffffffffffffffffffffffa73ffffffffffffffffffffffffffffffffffffffff8316016158d657505060408051808201909152600481527f5745544800000000000000000000000000000000000000000000000000000000602082015290565b7fffffffffffffffffffffffffbdfffffffffffffffffffffffffffffffffffff973ffffffffffffffffffffffffffffffffffffffff83160161594c57505060408051808201909152601681527f4c3243726f7373446f6d61696e4d657373656e67657200000000000000000000602082015290565b7fffffffffffffffffffffffffbdfffffffffffffffffffffffffffffffffffff173ffffffffffffffffffffffffffffffffffffffff8316016159c257505060408051808201909152600e81527f47617350726963654f7261636c65000000000000000000000000000000000000602082015290565b7fffffffffffffffffffffffffbdfffffffffffffffffffffffffffffffffffff073ffffffffffffffffffffffffffffffffffffffff831601615a3857505060408051808201909152601081527f4c325374616e6461726442726964676500000000000000000000000000000000602082015290565b7fffffffffffffffffffffffffbdffffffffffffffffffffffffffffffffffffef73ffffffffffffffffffffffffffffffffffffffff831601615aae57505060408051808201909152601181527f53657175656e6365724665655661756c74000000000000000000000000000000602082015290565b7fffffffffffffffffffffffffbdffffffffffffffffffffffffffffffffffffee73ffffffffffffffffffffffffffffffffffffffff831601615b2457505060408051808201909152601c81527f4f7074696d69736d4d696e7461626c654552433230466163746f727900000000602082015290565b7fffffffffffffffffffffffffbdffffffffffffffffffffffffffffffffffffed73ffffffffffffffffffffffffffffffffffffffff831601615b9a57505060408051808201909152600d81527f4c31426c6f636b4e756d62657200000000000000000000000000000000000000602082015290565b7fffffffffffffffffffffffffbdffffffffffffffffffffffffffffffffffffec73ffffffffffffffffffffffffffffffffffffffff831601615c1057505060408051808201909152600e81527f4c32455243373231427269646765000000000000000000000000000000000000602082015290565b7fffffffffffffffffffffffffbdffffffffffffffffffffffffffffffffffffeb73ffffffffffffffffffffffffffffffffffffffff831601615c8657505060408051808201909152600781527f4c31426c6f636b00000000000000000000000000000000000000000000000000602082015290565b7fffffffffffffffffffffffffbdffffffffffffffffffffffffffffffffffffea73ffffffffffffffffffffffffffffffffffffffff831601615cfc57505060408051808201909152601381527f4c32546f4c314d65737361676550617373657200000000000000000000000000602082015290565b7fffffffffffffffffffffffffbdffffffffffffffffffffffffffffffffffffe973ffffffffffffffffffffffffffffffffffffffff831601615d7257505060408051808201909152601d81527f4f7074696d69736d4d696e7461626c65455243373231466163746f7279000000602082015290565b7fffffffffffffffffffffffffbdffffffffffffffffffffffffffffffffffffe873ffffffffffffffffffffffffffffffffffffffff831601615de857505060408051808201909152600a81527f50726f787941646d696e00000000000000000000000000000000000000000000602082015290565b7fffffffffffffffffffffffffbdffffffffffffffffffffffffffffffffffffe773ffffffffffffffffffffffffffffffffffffffff831601615e5e57505060408051808201909152600c81527f426173654665655661756c740000000000000000000000000000000000000000602082015290565b7fffffffffffffffffffffffffbdffffffffffffffffffffffffffffffffffffe673ffffffffffffffffffffffffffffffffffffffff831601615ed457505060408051808201909152600a81527f4c314665655661756c7400000000000000000000000000000000000000000000602082015290565b7fffffffffffffffffffffffffbdffffffffffffffffffffffffffffffffffffe573ffffffffffffffffffffffffffffffffffffffff831601615f4a57505060408051808201909152601081527f4f70657261746f724665655661756c7400000000000000000000000000000000602082015290565b7fffffffffffffffffffffffffbdffffffffffffffffffffffffffffffffffffe073ffffffffffffffffffffffffffffffffffffffff831601615fc057505060408051808201909152600e81527f536368656d615265676973747279000000000000000000000000000000000000602082015290565b7fffffffffffffffffffffffffbdffffffffffffffffffffffffffffffffffffdf73ffffffffffffffffffffffffffffffffffffffff83160161603657505060408051808201909152600381527f4541530000000000000000000000000000000000000000000000000000000000602082015290565b7fffffffffffffffffffffffffbdffffffffffffffffffffffffffffffffffffbe73ffffffffffffffffffffffffffffffffffffffff8316016160ac57505060408051808201909152600f81527f476f7665726e616e6365546f6b656e0000000000000000000000000000000000602082015290565b7fffffffffffffffffffffffff215221522152215221522152215221522153000073ffffffffffffffffffffffffffffffffffffffff83160161612257505060408051808201909152600e81527f4c65676163794552433230455448000000000000000000000000000000000000602082015290565b7fffffffffffffffffffffffffbdffffffffffffffffffffffffffffffffffffde73ffffffffffffffffffffffffffffffffffffffff83160161619857505060408051808201909152600c81527f43726f73734c32496e626f780000000000000000000000000000000000000000602082015290565b7fffffffffffffffffffffffffbdffffffffffffffffffffffffffffffffffffdd73ffffffffffffffffffffffffffffffffffffffff83160161620e57505060408051808201909152601a81527f4c32546f4c3243726f7373446f6d61696e4d657373656e676572000000000000602082015290565b7fffffffffffffffffffffffffbdffffffffffffffffffffffffffffffffffffdc73ffffffffffffffffffffffffffffffffffffffff83160161628457505060408051808201909152601381527f5375706572636861696e45544842726964676500000000000000000000000000602082015290565b7fffffffffffffffffffffffffbdffffffffffffffffffffffffffffffffffffdb73ffffffffffffffffffffffffffffffffffffffff8316016162fa57505060408051808201909152600c81527f4554484c69717569646974790000000000000000000000000000000000000000602082015290565b7fffffffffffffffffffffffffbdffffffffffffffffffffffffffffffffffffda73ffffffffffffffffffffffffffffffffffffffff83160161637057505060408051808201909152601e81527f4f7074696d69736d5375706572636861696e4552433230466163746f72790000602082015290565b7fffffffffffffffffffffffffbdffffffffffffffffffffffffffffffffffffd973ffffffffffffffffffffffffffffffffffffffff8316016163e657505060408051808201909152601d81527f4f7074696d69736d5375706572636861696e4552433230426561636f6e000000602082015290565b7fffffffffffffffffffffffffbdffffffffffffffffffffffffffffffffffffd873ffffffffffffffffffffffffffffffffffffffff83160161645c57505060408051808201909152601581527f5375706572636861696e546f6b656e4272696467650000000000000000000000602082015290565b6040517f08c379a000000000000000000000000000000000000000000000000000000000815260206004820152601d60248201527f5072656465706c6f79733a20756e6e616d6564207072656465706c6f7900000060448201526064016120f8565b60607fffffffffffffffffffffffffffffffffffdd2b8cfcf0ee922116094bc538745d73ffffffffffffffffffffffffffffffffffffffff83160161653657505060408051808201909152600781527f5065726d69743200000000000000000000000000000000000000000000000000602082015290565b7fffffffffffffffffffffffff35ee421fa6884c9cee98fd779d41d5e8c68935ef73ffffffffffffffffffffffffffffffffffffffff8316016165ac57505060408051808201909152600a81527f4d756c746943616c6c3300000000000000000000000000000000000000000000602082015290565b7fffffffffffffffffffffffffec4f27a33474079f4948650cfd6035f7e516410e73ffffffffffffffffffffffffffffffffffffffff83160161662257505060408051808201909152600f81527f437265617465324465706c6f7965720000000000000000000000000000000000602082015290565b7fffffffffffffffffffffffff960b2e8771c637876c367f3f9120b4809791d6c873ffffffffffffffffffffffffffffffffffffffff83160161669857505060408051808201909152600981527f536166655f763133300000000000000000000000000000000000000000000000602082015290565b7fffffffffffffffffffffffff04e4003628c6472adf250c82099925b3978e6e1673ffffffffffffffffffffffffffffffffffffffff83160161670e57505060408051808201909152600b81527f536166654c325f76313330000000000000000000000000000000000000000000602082015290565b7fffffffffffffffffffffffff5e25410cc4c47d387eb4927d5861af0b53bbefd573ffffffffffffffffffffffffffffffffffffffff83160161678457505060408051808201909152601681527f4d756c746953656e6443616c6c4f6e6c795f7631333000000000000000000000602082015290565b7fffffffffffffffffffffffff6eb280139553732abd18d435874cf9af2ba9bc2973ffffffffffffffffffffffffffffffffffffffff8316016167fa57505060408051808201909152601481527f5361666553696e676c65746f6e466163746f7279000000000000000000000000602082015290565b7fffffffffffffffffffffffffb1a64bb7b84c86a87a776df3587040d93f4b6a9473ffffffffffffffffffffffffffffffffffffffff83160161687057505060408051808201909152601c81527f44657465726d696e69737469634465706c6f796d656e7450726f787900000000602082015290565b7fffffffffffffffffffffffff6678c640255221836cc46bd597fac6ccf670612673ffffffffffffffffffffffffffffffffffffffff8316016168e657505060408051808201909152600e81527f4d756c746953656e645f76313330000000000000000000000000000000000000602082015290565b7fffffffffffffffffffffffff80367bcf1512449f8f4ca4c628678dafb6f77cb873ffffffffffffffffffffffffffffffffffffffff83160161695c57505060408051808201909152601281527f53656e64657243726561746f725f763036300000000000000000000000000000602082015290565b7fffffffffffffffffffffffffa00ec82b4f0232b6235cf3830a81a875fd92d87773ffffffffffffffffffffffffffffffffffffffff8316016169d257505060408051808201909152600f81527f456e747279506f696e745f763036300000000000000000000000000000000000602082015290565b7fffffffffffffffffffffffff103d3ebbb1433b248a189ec2df3959d00985e98473ffffffffffffffffffffffffffffffffffffffff831601616a4857505060408051808201909152601281527f53656e64657243726561746f725f763037300000000000000000000000000000602082015290565b7fffffffffffffffffffffffffffffffff8e8d821dd1a1627450f125390c825fce73ffffffffffffffffffffffffffffffffffffffff831601616abe57505060408051808201909152600f81527f456e747279506f696e745f763037300000000000000000000000000000000000602082015290565b7ffffffffffffffffffffffffffff0c20928cd7f810ece604847447add2f4153fe73ffffffffffffffffffffffffffffffffffffffff831601616b3457505060408051808201909152601081527f426561636f6e426c6f636b526f6f747300000000000000000000000000000000602082015290565b7fffffffffffffffffffffffffffff06f7d80e3ac5ef3485fdcca4e8acdfffd6cb73ffffffffffffffffffffffffffffffffffffffff831601616baa57505060408051808201909152600e81527f486973746f727953746f72616765000000000000000000000000000000000000602082015290565b7fffffffffffffffffffffffff45a12f669cc2c4cec1b2a08423ecfa2c3d745a1373ffffffffffffffffffffffffffffffffffffffff831601616c2057505060408051808201909152600781527f4372656174655800000000000000000000000000000000000000000000000000602082015290565b6040517f08c379a000000000000000000000000000000000000000000000000000000000815260206004820152601f60248201527f507265696e7374616c6c733a20756e6e616d656420707265696e7374616c6c0060448201526064016120f8565b6040517f3ebf73b4000000000000000000000000000000000000000000000000000000008152737109709ecfa91a80626ff3989d68f67f5b1dd12d9063b4d6c7829085908390633ebf73b490616cdc9087906004016174f6565b600060405180830381865afa158015616cf9573d6000803e3d6000fd5b505050506040513d6000823e601f3d9081017fffffffffffffffffffffffffffffffffffffffffffffffffffffffffffffffe0168201604052616d3f9190810190617321565b6040518363ffffffff1660e01b8152600401616d5c929190617372565b600060405180830381600087803b158015616d7657600080fd5b505af1158015616d8a573d6000803e3d6000fd5b50506040517fc657c718000000000000000000000000000000000000000000000000000000008152737109709ecfa91a80626ff3989d68f67f5b1dd12d925063c657c7189150616de09086908690600401617372565b600060405180830381600087803b158015616dfa57600080fd5b505af1158015616e0e573d6000803e3d6000fd5b50506040517fea06029100000000000000000000000000000000000000000000000000000000815273ffffffffffffffffffffffffffffffffffffffff86166004820152737109709ecfa91a80626ff3989d68f67f5b1dd12d925063ea0602919150602401600060405180830381600087803b158015616e8d57600080fd5b505af1158015616ea1573d6000803e3d6000fd5b50505050505050565b60006a636f6e736f6c652e6c6f679050600080835160208501845afa505050565b7f4e487b7100000000000000000000000000000000000000000000000000000000600052604160045260246000fd5b604051601f82017fffffffffffffffffffffffffffffffffffffffffffffffffffffffffffffffe016810167ffffffffffffffff81118282101715616f4157616f41616ecb565b604052919050565b600067ffffffffffffffff821115616f6357616f63616ecb565b50601f017fffffffffffffffffffffffffffffffffffffffffffffffffffffffffffffffe01660200190565b600060208284031215616fa157600080fd5b813567ffffffffffffffff811115616fb857600080fd5b8201601f81018413616fc957600080fd5b8035616fdc616fd782616f49565b616efa565b818152856020838501011115616ff157600080fd5b81602084016020830137600091810160200191909152949350505050565b7f4e487b7100000000000000000000000000000000000000000000000000000000600052602160045260246000fd5b73ffffffffffffffffffffffffffffffffffffffff81168114611f2257600080fd5b60006020828403121561707257600080fd5b815161707d8161703e565b9392505050565b60006020828403121561709657600080fd5b5051919050565b6000602082840312156170af57600080fd5b8151801515811461707d57600080fd5b600061028082019050825182526020830151602083015260408301516170fd604084018273ffffffffffffffffffffffffffffffffffffffff169052565b506060830151617125606084018273ffffffffffffffffffffffffffffffffffffffff169052565b50608083015161714d608084018273ffffffffffffffffffffffffffffffffffffffff169052565b5060a083015161717560a084018273ffffffffffffffffffffffffffffffffffffffff169052565b5060c083015161719d60c084018273ffffffffffffffffffffffffffffffffffffffff169052565b5060e0838101519083015261010080840151908301526101208084015173ffffffffffffffffffffffffffffffffffffffff9081169184019190915261014080850151908401526101608085015190840152610180808501518216908401526101a080850151908401526101c080850151908401526101e0808501519091169083015261020080840151908301526102208084015115159083015261024080840151151590830152610260928301511515929091019190915290565b60005b8381101561727457818101518382015260200161725c565b83811115614dbc5750506000910152565b6000815180845261729d816020860160208601617259565b601f017fffffffffffffffffffffffffffffffffffffffffffffffffffffffffffffffe0169290920160200192915050565b6040815260006172e26040830185617285565b90508260208301529392505050565b60006172ff616fd784616f49565b905082815283838301111561731357600080fd5b61707d836020830184617259565b60006020828403121561733357600080fd5b815167ffffffffffffffff81111561734a57600080fd5b8201601f8101841361735b57600080fd5b61736a848251602084016172f1565b949350505050565b73ffffffffffffffffffffffffffffffffffffffff8316815260406020820152600061736a6040830184617285565b7f52657475726e696e67206561726c792066726f6d20666f726b20746573743a208152600082516173d9816020850160208701617259565b9190910160200192915050565b7f536b697070696e67206e6f6e2d4f5020666f726b20746573743a20000000000081526000825161741e81601b850160208701617259565b91909101601b0192915050565b7f536b697070696e6720666f726b20746573743a20000000000000000000000000815260008251617463816014850160208701617259565b9190910160140192915050565b7f536b697070696e67206f7073207265706f20746573743a2000000000000000008152600082516174a8816018850160208701617259565b9190910160180192915050565b60208101600983106174f0577f4e487b7100000000000000000000000000000000000000000000000000000000600052602160045260246000fd5b91905290565b60208152600061707d6020830184617285565b60408152600061751c6040830185617285565b828103602084015261752e8185617285565b95945050505050565b60008351617549818460208801617259565b7f2e732e736f6c3a000000000000000000000000000000000000000000000000009083019081528351617583816007840160208801617259565b01600701949350505050565b60408152600d60408201527f464f524b5f4f505f434841494e00000000000000000000000000000000000000606082015260806020820152600061707d608083018461728556fe53657475703a206372656174696e67204c322067656e65736973207769746820666f726b20257353657475703a20636f6d706c65746564204c31206465706c6f796d656e742c207265676973746572696e6720616464726573736573206e6f7753657475703a20666f726b20746573742064657465637465642c20736b697070696e67204c322067656e657369732067656e65726174696f6e53657475703a20666f726b20746573742064657465637465642c20736b697070696e67204c32207365747570a164736f6c634300080f000a","linkReferences":{}},"methodIdentifiers":{"L1()":"7809baaf","L2()":"081752bb","artifacts()":"2eee9feb","isForkTest()":"a2f4f536","isOpFork()":"91e73a36","returnIfForkTest(string)":"15fb3ab9","setUp()":"0a9254e4","skipIfCoverage()":"a92e3a04","skipIfForkTest(string)":"61547b50","skipIfNotOpFork(string)":"38d754ab","skipIfOpsRepoTest(string)":"9557a02a"},"storageLayout":{"storage":[{"astId":284215,"contract":"test/setup/Setup.sol:Setup","label":"l2Fork","offset":0,"slot":"0","type":"t_enum(Fork)88816"},{"astId":284218,"contract":"test/setup/Setup.sol:Setup","label":"disputeGameFactory","offset":1,"slot":"0","type":"t_contract(IDisputeGameFactory)5972"},{"astId":284221,"contract":"test/setup/Setup.sol:Setup","label":"anchorStateRegistry","offset":0,"slot":"1","type":"t_contract(IAnchorStateRegistry)5399"},{"astId":284224,"contract":"test/setup/Setup.sol:Setup","label":"faultDisputeGame","offset":0,"slot":"2","type":"t_contract(IFaultDisputeGame)6464"},{"astId":284227,"contract":"test/setup/Setup.sol:Setup","label":"delayedWeth","offset":0,"slot":"3","type":"t_contract(IDelayedWETH)5654"},{"astId":284230,"contract":"test/setup/Setup.sol:Setup","label":"permissionedDisputeGame","offset":0,"slot":"4","type":"t_contract(IPermissionedDisputeGame)6946"},{"astId":284233,"contract":"test/setup/Setup.sol:Setup","label":"delayedWETHPermissionedGameProxy","offset":0,"slot":"5","type":"t_contract(IDelayedWETH)5654"},{"astId":284235,"contract":"test/setup/Setup.sol:Setup","label":"proxyAdminOwner","offset":0,"slot":"6","type":"t_address"},{"astId":284238,"contract":"test/setup/Setup.sol:Setup","label":"proxyAdmin","offset":0,"slot":"7","type":"t_contract(IProxyAdmin)10019"},{"astId":284240,"contract":"test/setup/Setup.sol:Setup","label":"superchainProxyAdminOwner","offset":0,"slot":"8","type":"t_address"},{"astId":284243,"contract":"test/setup/Setup.sol:Setup","label":"superchainProxyAdmin","offset":0,"slot":"9","type":"t_contract(IProxyAdmin)10019"},{"astId":284246,"contract":"test/setup/Setup.sol:Setup","label":"optimismPortal2","offset":0,"slot":"10","type":"t_contract(IOptimismPortal2)2082"},{"astId":284249,"contract":"test/setup/Setup.sol:Setup","label":"ethLockbox","offset":0,"slot":"11","type":"t_contract(IETHLockbox)380"},{"astId":284252,"contract":"test/setup/Setup.sol:Setup","label":"systemConfig","offset":0,"slot":"12","type":"t_contract(ISystemConfig)2870"},{"astId":284255,"contract":"test/setup/Setup.sol:Setup","label":"l1StandardBridge","offset":0,"slot":"13","type":"t_contract(IL1StandardBridge)751"},{"astId":284258,"contract":"test/setup/Setup.sol:Setup","label":"l1CrossDomainMessenger","offset":0,"slot":"14","type":"t_contract(IL1CrossDomainMessenger)451"},{"astId":284261,"contract":"test/setup/Setup.sol:Setup","label":"addressManager","offset":0,"slot":"15","type":"t_contract(IAddressManager)8678"},{"astId":284264,"contract":"test/setup/Setup.sol:Setup","label":"l1ERC721Bridge","offset":0,"slot":"16","type":"t_contract(IL1ERC721Bridge)569"},{"astId":284267,"contract":"test/setup/Setup.sol:Setup","label":"l1OptimismMintableERC20Factory","offset":0,"slot":"17","type":"t_contract(IOptimismMintableERC20Factory)9594"},{"astId":284270,"contract":"test/setup/Setup.sol:Setup","label":"protocolVersions","offset":0,"slot":"18","type":"t_contract(IProtocolVersions)2180"},{"astId":284273,"contract":"test/setup/Setup.sol:Setup","label":"superchainConfig","offset":0,"slot":"19","type":"t_contract(ISuperchainConfig)2532"},{"astId":284276,"contract":"test/setup/Setup.sol:Setup","label":"dataAvailabilityChallenge","offset":0,"slot":"20","type":"t_contract(IDataAvailabilityChallenge)232"},{"astId":284279,"contract":"test/setup/Setup.sol:Setup","label":"opcm","offset":0,"slot":"21","type":"t_contract(IOPContractsManager)1423"},{"astId":284282,"contract":"test/setup/Setup.sol:Setup","label":"mips","offset":0,"slot":"22","type":"t_contract(IBigStepper)5424"},{"astId":284292,"contract":"test/setup/Setup.sol:Setup","label":"crossL2Inbox","offset":0,"slot":"23","type":"t_contract(ICrossL2Inbox)3004"},{"astId":284302,"contract":"test/setup/Setup.sol:Setup","label":"l2CrossDomainMessenger","offset":0,"slot":"24","type":"t_contract(IL2CrossDomainMessenger)3445"},{"astId":284312,"contract":"test/setup/Setup.sol:Setup","label":"l2StandardBridge","offset":0,"slot":"25","type":"t_contract(IL2StandardBridgeInterop)3779"},{"astId":284322,"contract":"test/setup/Setup.sol:Setup","label":"l2ToL1MessagePasser","offset":0,"slot":"26","type":"t_contract(IL2ToL1MessagePasser)3842"},{"astId":284329,"contract":"test/setup/Setup.sol:Setup","label":"l2OptimismMintableERC20Factory","offset":0,"slot":"27","type":"t_contract(IOptimismMintableERC20Factory)9594"},{"astId":284336,"contract":"test/setup/Setup.sol:Setup","label":"l2ERC721Bridge","offset":0,"slot":"28","type":"t_contract(IL2ERC721Bridge)3480"},{"astId":284343,"contract":"test/setup/Setup.sol:Setup","label":"l2OptimismMintableERC721Factory","offset":0,"slot":"29","type":"t_contract(IOptimismMintableERC721Factory)4390"},{"astId":284353,"contract":"test/setup/Setup.sol:Setup","label":"baseFeeVault","offset":0,"slot":"30","type":"t_contract(IBaseFeeVault)2952"},{"astId":284363,"contract":"test/setup/Setup.sol:Setup","label":"sequencerFeeVault","offset":0,"slot":"31","type":"t_contract(ISequencerFeeVault)4583"},{"astId":284373,"contract":"test/setup/Setup.sol:Setup","label":"l1FeeVault","offset":0,"slot":"32","type":"t_contract(IL1FeeVault)3413"},{"astId":284383,"contract":"test/setup/Setup.sol:Setup","label":"operatorFeeVault","offset":0,"slot":"33","type":"t_contract(IOperatorFeeVault)4092"},{"astId":284390,"contract":"test/setup/Setup.sol:Setup","label":"gasPriceOracle","offset":0,"slot":"34","type":"t_contract(IGasPriceOracle)3203"},{"astId":284397,"contract":"test/setup/Setup.sol:Setup","label":"l1Block","offset":0,"slot":"35","type":"t_contract(IL1Block)3331"},{"astId":284404,"contract":"test/setup/Setup.sol:Setup","label":"governanceToken","offset":0,"slot":"36","type":"t_contract(IGovernanceToken)8576"},{"astId":284411,"contract":"test/setup/Setup.sol:Setup","label":"legacyMessagePasser","offset":0,"slot":"37","type":"t_contract(ILegacyMessagePasser)8846"},{"astId":284421,"contract":"test/setup/Setup.sol:Setup","label":"weth","offset":0,"slot":"38","type":"t_contract(IWETH98)10341"},{"astId":284431,"contract":"test/setup/Setup.sol:Setup","label":"superchainETHBridge","offset":0,"slot":"39","type":"t_contract(ISuperchainETHBridge)4665"},{"astId":284438,"contract":"test/setup/Setup.sol:Setup","label":"ethLiquidity","offset":0,"slot":"40","type":"t_contract(IETHLiquidity)3090"},{"astId":284445,"contract":"test/setup/Setup.sol:Setup","label":"superchainTokenBridge","offset":0,"slot":"41","type":"t_contract(ISuperchainTokenBridge)4732"},{"astId":284452,"contract":"test/setup/Setup.sol:Setup","label":"l2OptimismSuperchainERC20Factory","offset":0,"slot":"42","type":"t_contract(IOptimismSuperchainERC20Factory)4496"}],"types":{"t_address":{"encoding":"inplace","label":"address","numberOfBytes":"20"},"t_contract(IAddressManager)8678":{"encoding":"inplace","label":"contract IAddressManager","numberOfBytes":"20"},"t_contract(IAnchorStateRegistry)5399":{"encoding":"inplace","label":"contract IAnchorStateRegistry","numberOfBytes":"20"},"t_contract(IBaseFeeVault)2952":{"encoding":"inplace","label":"contract IBaseFeeVault","numberOfBytes":"20"},"t_contract(IBigStepper)5424":{"encoding":"inplace","label":"contract IBigStepper","numberOfBytes":"20"},"t_contract(ICrossL2Inbox)3004":{"encoding":"inplace","label":"contract ICrossL2Inbox","numberOfBytes":"20"},"t_contract(IDataAvailabilityChallenge)232":{"encoding":"inplace","label":"contract IDataAvailabilityChallenge","numberOfBytes":"20"},"t_contract(IDelayedWETH)5654":{"encoding":"inplace","label":"contract IDelayedWETH","numberOfBytes":"20"},"t_contract(IDisputeGameFactory)5972":{"encoding":"inplace","label":"contract IDisputeGameFactory","numberOfBytes":"20"},"t_contract(IETHLiquidity)3090":{"encoding":"inplace","label":"contract IETHLiquidity","numberOfBytes":"20"},"t_contract(IETHLockbox)380":{"encoding":"inplace","label":"contract IETHLockbox","numberOfBytes":"20"},"t_contract(IFaultDisputeGame)6464":{"encoding":"inplace","label":"contract IFaultDisputeGame","numberOfBytes":"20"},"t_contract(IGasPriceOracle)3203":{"encoding":"inplace","label":"contract IGasPriceOracle","numberOfBytes":"20"},"t_contract(IGovernanceToken)8576":{"encoding":"inplace","label":"contract IGovernanceToken","numberOfBytes":"20"},"t_contract(IL1Block)3331":{"encoding":"inplace","label":"contract IL1Block","numberOfBytes":"20"},"t_contract(IL1CrossDomainMessenger)451":{"encoding":"inplace","label":"contract IL1CrossDomainMessenger","numberOfBytes":"20"},"t_contract(IL1ERC721Bridge)569":{"encoding":"inplace","label":"contract IL1ERC721Bridge","numberOfBytes":"20"},"t_contract(IL1FeeVault)3413":{"encoding":"inplace","label":"contract IL1FeeVault","numberOfBytes":"20"},"t_contract(IL1StandardBridge)751":{"encoding":"inplace","label":"contract IL1StandardBridge","numberOfBytes":"20"},"t_contract(IL2CrossDomainMessenger)3445":{"encoding":"inplace","label":"contract IL2CrossDomainMessenger","numberOfBytes":"20"},"t_contract(IL2ERC721Bridge)3480":{"encoding":"inplace","label":"contract IL2ERC721Bridge","numberOfBytes":"20"},"t_contract(IL2StandardBridgeInterop)3779":{"encoding":"inplace","label":"contract IL2StandardBridgeInterop","numberOfBytes":"20"},"t_contract(IL2ToL1MessagePasser)3842":{"encoding":"inplace","label":"contract IL2ToL1MessagePasser","numberOfBytes":"20"},"t_contract(ILegacyMessagePasser)8846":{"encoding":"inplace","label":"contract ILegacyMessagePasser","numberOfBytes":"20"},"t_contract(IOPContractsManager)1423":{"encoding":"inplace","label":"contract IOPContractsManager","numberOfBytes":"20"},"t_contract(IOperatorFeeVault)4092":{"encoding":"inplace","label":"contract IOperatorFeeVault","numberOfBytes":"20"},"t_contract(IOptimismMintableERC20Factory)9594":{"encoding":"inplace","label":"contract IOptimismMintableERC20Factory","numberOfBytes":"20"},"t_contract(IOptimismMintableERC721Factory)4390":{"encoding":"inplace","label":"contract IOptimismMintableERC721Factory","numberOfBytes":"20"},"t_contract(IOptimismPortal2)2082":{"encoding":"inplace","label":"contract IOptimismPortal2","numberOfBytes":"20"},"t_contract(IOptimismSuperchainERC20Factory)4496":{"encoding":"inplace","label":"contract IOptimismSuperchainERC20Factory","numberOfBytes":"20"},"t_contract(IPermissionedDisputeGame)6946":{"encoding":"inplace","label":"contract IPermissionedDisputeGame","numberOfBytes":"20"},"t_contract(IProtocolVersions)2180":{"encoding":"inplace","label":"contract IProtocolVersions","numberOfBytes":"20"},"t_contract(IProxyAdmin)10019":{"encoding":"inplace","label":"contract IProxyAdmin","numberOfBytes":"20"},"t_contract(ISequencerFeeVault)4583":{"encoding":"inplace","label":"contract ISequencerFeeVault","numberOfBytes":"20"},"t_contract(ISuperchainConfig)2532":{"encoding":"inplace","label":"contract ISuperchainConfig","numberOfBytes":"20"},"t_contract(ISuperchainETHBridge)4665":{"encoding":"inplace","label":"contract ISuperchainETHBridge","numberOfBytes":"20"},"t_contract(ISuperchainTokenBridge)4732":{"encoding":"inplace","label":"contract ISuperchainTokenBridge","numberOfBytes":"20"},"t_contract(ISystemConfig)2870":{"encoding":"inplace","label":"contract ISystemConfig","numberOfBytes":"20"},"t_contract(IWETH98)10341":{"encoding":"inplace","label":"contract IWETH98","numberOfBytes":"20"},"t_enum(Fork)88816":{"encoding":"inplace","label":"enum Fork","numberOfBytes":"1"}}},"userdoc":{"version":1,"kind":"user","methods":{"artifacts()":{"notice":"The address of the Artifacts contract. Set into state by Deployer.setUp() with `etch` to avoid         mutating any nonces. MUST not have constructor logic."},"isForkTest()":{"notice":"Indicates whether a test is running against a forked production network."},"isOpFork()":{"notice":"Indicates whether a test is running against a forked network that is OP."}}},"devdoc":{"version":1,"kind":"dev","details":"This contact is responsible for setting up the contracts in state. It currently      sets the L2 contracts directly at the predeploy addresses instead of setting them      up behind proxies. In the future we will migrate to importing the genesis JSON      file that is created to set up the L2 contracts instead of setting them up manually.","methods":{"L1()":{"details":"Sets up the L1 contracts."},"L2()":{"details":"Sets up the L2 contracts. Depends on `L1()` being called first."},"returnIfForkTest(string)":{"details":"Returns early when running against a forked production network. Useful for allowing a portion of a test      to run."},"setUp()":{"details":"Deploys either the Deploy.s.sol or Fork.s.sol contract, by fetching the bytecode dynamically using      `vm.getDeployedCode()` and etching it into the state.      This enables us to avoid including the bytecode of those contracts in the bytecode of this contract.      If the bytecode of those contracts was included in this contract, then it will double      the compile time and bloat all of the test contract artifacts since they      will also need to include the bytecode for the Deploy contract.      This is a hack as we are pushing solidity to the edge."},"skipIfCoverage()":{"details":"Skips tests when running in coverage mode."},"skipIfForkTest(string)":{"details":"Skips tests when running against a forked production network."},"skipIfNotOpFork(string)":{"details":"Skips tests when running against a forked production network that is not OP."},"skipIfOpsRepoTest(string)":{"details":"Skips tests when running against a forked production network using the superchain ops repo."}},"title":"Setup"},"id":180}