{"abi":[{"type":"constructor","inputs":[],"stateMutability":"nonpayable"},{"type":"function","name":"expiration","inputs":[{"name":"_identifier","type":"address","internalType":"address"}],"outputs":[{"name":"","type":"uint256","internalType":"uint256"}],"stateMutability":"view"},{"type":"function","name":"extend","inputs":[{"name":"_identifier","type":"address","internalType":"address"}],"outputs":[],"stateMutability":"nonpayable"},{"type":"function","name":"guardian","inputs":[],"outputs":[{"name":"","type":"address","internalType":"address"}],"stateMutability":"view"},{"type":"function","name":"initVersion","inputs":[],"outputs":[{"name":"","type":"uint8","internalType":"uint8"}],"stateMutability":"view"},{"type":"function","name":"initialize","inputs":[{"name":"_guardian","type":"address","internalType":"address"}],"outputs":[],"stateMutability":"nonpayable"},{"type":"function","name":"pausable","inputs":[{"name":"_identifier","type":"address","internalType":"address"}],"outputs":[{"name":"","type":"bool","internalType":"bool"}],"stateMutability":"view"},{"type":"function","name":"pause","inputs":[{"name":"_identifier","type":"address","internalType":"address"}],"outputs":[],"stateMutability":"nonpayable"},{"type":"function","name":"pauseExpiry","inputs":[],"outputs":[{"name":"","type":"uint256","internalType":"uint256"}],"stateMutability":"pure"},{"type":"function","name":"pauseTimestamps","inputs":[{"name":"","type":"address","internalType":"address"}],"outputs":[{"name":"","type":"uint256","internalType":"uint256"}],"stateMutability":"view"},{"type":"function","name":"paused","inputs":[{"name":"_identifier","type":"address","internalType":"address"}],"outputs":[{"name":"","type":"bool","internalType":"bool"}],"stateMutability":"view"},{"type":"function","name":"paused","inputs":[],"outputs":[{"name":"","type":"bool","internalType":"bool"}],"stateMutability":"view"},{"type":"function","name":"proxyAdmin","inputs":[],"outputs":[{"name":"","type":"address","internalType":"contract IProxyAdmin"}],"stateMutability":"view"},{"type":"function","name":"proxyAdminOwner","inputs":[],"outputs":[{"name":"","type":"address","internalType":"address"}],"stateMutability":"view"},{"type":"function","name":"unpause","inputs":[{"name":"_identifier","type":"address","internalType":"address"}],"outputs":[],"stateMutability":"nonpayable"},{"type":"function","name":"upgrade","inputs":[],"outputs":[],"stateMutability":"nonpayable"},{"type":"function","name":"version","inputs":[],"outputs":[{"name":"","type":"string","internalType":"string"}],"stateMutability":"view"},{"type":"event","name":"ConfigUpdate","inputs":[{"name":"updateType","type":"uint8","indexed":true,"internalType":"enum SuperchainConfig.UpdateType"},{"name":"data","type":"bytes","indexed":false,"internalType":"bytes"}],"anonymous":false},{"type":"event","name":"Initialized","inputs":[{"name":"version","type":"uint8","indexed":false,"internalType":"uint8"}],"anonymous":false},{"type":"event","name":"Paused","inputs":[{"name":"identifier","type":"address","indexed":false,"internalType":"address"}],"anonymous":false},{"type":"event","name":"Unpaused","inputs":[{"name":"identifier","type":"address","indexed":false,"internalType":"address"}],"anonymous":false},{"type":"error","name":"ProxyAdminOwnedBase_NotProxyAdmin","inputs":[]},{"type":"error","name":"ProxyAdminOwnedBase_NotProxyAdminOrProxyAdminOwner","inputs":[]},{"type":"error","name":"ProxyAdminOwnedBase_NotProxyAdminOwner","inputs":[]},{"type":"error","name":"ProxyAdminOwnedBase_NotResolvedDelegateProxy","inputs":[]},{"type":"error","name":"ProxyAdminOwnedBase_NotSharedProxyAdminOwner","inputs":[]},{"type":"error","name":"ProxyAdminOwnedBase_ProxyAdminNotFound","inputs":[]},{"type":"error","name":"ReinitializableBase_ZeroInitVersion","inputs":[]},{"type":"error","name":"SuperchainConfig_AlreadyPaused","inputs":[{"name":"identifier","type":"address","internalType":"address"}]},{"type":"error","name":"SuperchainConfig_NotAlreadyPaused","inputs":[{"name":"identifier","type":"address","internalType":"address"}]},{"type":"error","name":"SuperchainConfig_OnlyGuardian","inputs":[]}],"bytecode":{"object":"0x60a060405234801561001057600080fd5b50600260805261001e610023565b6100e3565b600054610100900460ff161561008f5760405162461bcd60e51b815260206004820152602760248201527f496e697469616c697a61626c653a20636f6e747261637420697320696e697469604482015266616c697a696e6760c81b606482015260840160405180910390fd5b60005460ff90811610156100e1576000805460ff191660ff9081179091556040519081527f7f26b83ff96e1f2b6a682f133852f6798a09c465da95921460cefb38474024989060200160405180910390a15b565b608051610e3c61010c600039600081816101ac0152818161075601526108c60152610e3c6000f3fe608060405234801561001057600080fd5b50600436106101005760003560e01c806357b001f911610097578063c4d66de811610066578063c4d66de8146102b5578063d55ec697146102c8578063dad544e0146102d0578063f125af6b146102d857600080fd5b806357b001f9146102725780635c975abb1461028757806376a67a511461028f57806382005715146102a257600080fd5b806338d38c97116100d357806338d38c97146101a55780633e47158c146101d6578063452a93201461020357806354fd4d501461022957600080fd5b806304dbe3fe146101055780630e3b6d1f1461012b5780632e48152c1461014b57806332dfadd91461016e575b600080fd5b610118610113366004610cdc565b6102e1565b6040519081526020015b60405180910390f35b610118610139366004610cdc565b60016020526000908152604090205481565b61015e610159366004610cdc565b61032b565b6040519015158152602001610122565b61015e61017c366004610cdc565b73ffffffffffffffffffffffffffffffffffffffff166000908152600160205260409020541590565b60405160ff7f0000000000000000000000000000000000000000000000000000000000000000168152602001610122565b6101de610377565b60405173ffffffffffffffffffffffffffffffffffffffff9091168152602001610122565b6000546101de9062010000900473ffffffffffffffffffffffffffffffffffffffff1681565b6102656040518060400160405280600581526020017f322e332e3000000000000000000000000000000000000000000000000000000081525081565b6040516101229190610d64565b610285610280366004610cdc565b610582565b005b61015e6105ea565b61028561029d366004610cdc565b6105fb565b6102856102b0366004610cdc565b6106d6565b6102856102c3366004610cdc565b610754565b6102856108c4565b6101de610a9a565b62784ce0610118565b73ffffffffffffffffffffffffffffffffffffffff81166000908152600160205260408120548082036103175750600092915050565b61032462784ce082610da6565b9392505050565b73ffffffffffffffffffffffffffffffffffffffff81166000908152600160205260408120548082036103615750600092915050565b61036e62784ce082610da6565b42109392505050565b6000806103a27fb53127684a568b3173ae13b9f8a6016e243e63b6e8ee1178d6a717850b5d61035490565b905073ffffffffffffffffffffffffffffffffffffffff8116156103c557919050565b6040518060400160405280601a81526020017f4f564d5f4c3143726f7373446f6d61696e4d657373656e6765720000000000008152505160026104089190610dbe565b604080513060208201526000918101919091527f4f564d5f4c3143726f7373446f6d61696e4d657373656e6765720000000000009190911790610463906060015b604051602081830303815290604052805190602001205490565b1461049a576040517f54e433cd00000000000000000000000000000000000000000000000000000000815260040160405180910390fd5b604080513060208201526001918101919091526000906104bc90606001610449565b905073ffffffffffffffffffffffffffffffffffffffff811615610550578073ffffffffffffffffffffffffffffffffffffffff16638da5cb5b6040518163ffffffff1660e01b8152600401602060405180830381865afa158015610525573d6000803e3d6000fd5b505050506040513d601f19601f820116820180604052508101906105499190610dfb565b9250505090565b6040517f332144db00000000000000000000000000000000000000000000000000000000815260040160405180910390fd5b61058a610b12565b73ffffffffffffffffffffffffffffffffffffffff811660008181526001602090815260408083209290925590519182527f5db9ee0a495bf2e6ff9c91a7834c1ba4fdd244a5e8aa4e537bd38aeae4b073aa91015b60405180910390a150565b60006105f6600061032b565b905090565b610603610b12565b73ffffffffffffffffffffffffffffffffffffffff81166000908152600160205260409020541561067d576040517fb7d8689400000000000000000000000000000000000000000000000000000000815273ffffffffffffffffffffffffffffffffffffffff821660048201526024015b60405180910390fd5b73ffffffffffffffffffffffffffffffffffffffff811660008181526001602090815260409182902042905590519182527f62e78cea01bee320cd4e420270b5ea74000d11b0c9f74754ebdbfc544b05a25891016105df565b6106de610b12565b73ffffffffffffffffffffffffffffffffffffffff8116600090815260016020526040812054900361067d576040517f335b869500000000000000000000000000000000000000000000000000000000815273ffffffffffffffffffffffffffffffffffffffff82166004820152602401610674565b7f0000000000000000000000000000000000000000000000000000000000000000600054610100900460ff16158015610794575060005460ff8083169116105b610820576040517f08c379a000000000000000000000000000000000000000000000000000000000815260206004820152602e60248201527f496e697469616c697a61626c653a20636f6e747261637420697320616c72656160448201527f647920696e697469616c697a65640000000000000000000000000000000000006064820152608401610674565b600080547fffffffffffffffffffffffffffffffffffffffffffffffffffffffffffff00001660ff831617610100179055610859610b6b565b61086282610bec565b600080547fffffffffffffffffffffffffffffffffffffffffffffffffffffffffffff00ff16905560405160ff821681527f7f26b83ff96e1f2b6a682f133852f6798a09c465da95921460cefb38474024989060200160405180910390a15050565b7f0000000000000000000000000000000000000000000000000000000000000000600054610100900460ff16158015610904575060005460ff8083169116105b610990576040517f08c379a000000000000000000000000000000000000000000000000000000000815260206004820152602e60248201527f496e697469616c697a61626c653a20636f6e747261637420697320616c72656160448201527f647920696e697469616c697a65640000000000000000000000000000000000006064820152608401610674565b600080547fffffffffffffffffffffffffffffffffffffffffffffffffffffffffffff00001660ff8316176101001790556109c9610b6b565b60006109f660017fd30e835d3f35624761057ff5b27d558f97bd5be034621e62240e5c0b784abe69610e18565b9050610a08610a03825490565b610bec565b600081556000610a3960017f54176ff9944c4784e5857ec4e5ef560a462c483bf534eda43f91bb01a470b1b7610e18565b60009081905580547fffffffffffffffffffffffffffffffffffffffffffffffffffffffffffff00ff169055505060405160ff821681527f7f26b83ff96e1f2b6a682f133852f6798a09c465da95921460cefb3847402498906020016105df565b6000610aa4610377565b73ffffffffffffffffffffffffffffffffffffffff16638da5cb5b6040518163ffffffff1660e01b8152600401602060405180830381865afa158015610aee573d6000803e3d6000fd5b505050506040513d601f19601f820116820180604052508101906105f69190610dfb565b60005462010000900473ffffffffffffffffffffffffffffffffffffffff163314610b69576040517fafbe9bc600000000000000000000000000000000000000000000000000000000815260040160405180910390fd5b565b33610b74610377565b73ffffffffffffffffffffffffffffffffffffffff1614158015610bb5575033610b9c610a9a565b73ffffffffffffffffffffffffffffffffffffffff1614155b15610b69576040517fc4050a2600000000000000000000000000000000000000000000000000000000815260040160405180910390fd5b600080547fffffffffffffffffffff0000000000000000000000000000000000000000ffff166201000073ffffffffffffffffffffffffffffffffffffffff8416021781556040805173ffffffffffffffffffffffffffffffffffffffff841660208201527f7b743789cff01dafdeae47739925425aab5dfd02d0c8229e4a508bcd2b9f42bb9101604080517fffffffffffffffffffffffffffffffffffffffffffffffffffffffffffffffe081840301815290829052610cac91610d64565b60405180910390a250565b73ffffffffffffffffffffffffffffffffffffffff81168114610cd957600080fd5b50565b600060208284031215610cee57600080fd5b813561032481610cb7565b6000815180845260005b81811015610d1f57602081850181015186830182015201610d03565b81811115610d31576000602083870101525b50601f017fffffffffffffffffffffffffffffffffffffffffffffffffffffffffffffffe0169290920160200192915050565b6020815260006103246020830184610cf9565b7f4e487b7100000000000000000000000000000000000000000000000000000000600052601160045260246000fd5b60008219821115610db957610db9610d77565b500190565b6000817fffffffffffffffffffffffffffffffffffffffffffffffffffffffffffffffff0483118215151615610df657610df6610d77565b500290565b600060208284031215610e0d57600080fd5b815161032481610cb7565b600082821015610e2a57610e2a610d77565b50039056fea164736f6c634300080f000a","linkReferences":{}},"methodIdentifiers":{"expiration(address)":"04dbe3fe","extend(address)":"82005715","guardian()":"452a9320","initVersion()":"38d38c97","initialize(address)":"c4d66de8","pausable(address)":"32dfadd9","pause(address)":"76a67a51","pauseExpiry()":"f125af6b","pauseTimestamps(address)":"0e3b6d1f","paused()":"5c975abb","paused(address)":"2e48152c","proxyAdmin()":"3e47158c","proxyAdminOwner()":"dad544e0","unpause(address)":"57b001f9","upgrade()":"d55ec697","version()":"54fd4d50"},"storageLayout":{"storage":[{"astId":51321,"contract":"src/L1/SuperchainConfig.sol:SuperchainConfig","label":"_initialized","offset":0,"slot":"0","type":"t_uint8"},{"astId":51324,"contract":"src/L1/SuperchainConfig.sol:SuperchainConfig","label":"_initializing","offset":1,"slot":"0","type":"t_bool"},{"astId":99473,"contract":"src/L1/SuperchainConfig.sol:SuperchainConfig","label":"guardian","offset":2,"slot":"0","type":"t_address"},{"astId":99478,"contract":"src/L1/SuperchainConfig.sol:SuperchainConfig","label":"pauseTimestamps","offset":0,"slot":"1","type":"t_mapping(t_address,t_uint256)"}],"types":{"t_address":{"encoding":"inplace","label":"address","numberOfBytes":"20"},"t_bool":{"encoding":"inplace","label":"bool","numberOfBytes":"1"},"t_mapping(t_address,t_uint256)":{"encoding":"mapping","key":"t_address","label":"mapping(address => uint256)","numberOfBytes":"32","value":"t_uint256"},"t_uint256":{"encoding":"inplace","label":"uint256","numberOfBytes":"32"},"t_uint8":{"encoding":"inplace","label":"uint8","numberOfBytes":"1"}}},"userdoc":{"version":1,"kind":"user","methods":{"constructor":{"notice":"Constructs the SuperchainConfig contract."},"expiration(address)":{"notice":"Gets the expiration timestamp for a specific pause identifier."},"extend(address)":{"notice":"Extends the pause for a specific identifier by resetting the pause timestamp."},"guardian()":{"notice":"The address of the guardian, which can pause withdrawals from the System.         It can only be modified by an upgrade."},"initVersion()":{"notice":"Getter for the current initialization version."},"initialize(address)":{"notice":"Initializer."},"pausable(address)":{"notice":"Checks if the system can be paused for a specific identifier."},"pause(address)":{"notice":"Pauses the system for a specific superchain cluster identifier."},"pauseExpiry()":{"notice":"Returns the duration after which a pause expires."},"pauseTimestamps(address)":{"notice":"Mapping of pause identifiers to their pause timestamps"},"paused(address)":{"notice":"Checks if the system is currently paused for a specific identifier."},"proxyAdmin()":{"notice":"Getter for the ProxyAdmin contract that owns this Proxy contract."},"proxyAdminOwner()":{"notice":"Getter for the owner of the ProxyAdmin."},"unpause(address)":{"notice":"Unpauses the system for a specific identifier."},"upgrade()":{"notice":"Upgrades the SuperchainConfig contract."},"version()":{"notice":"Semantic version."}},"events":{"ConfigUpdate(uint8,bytes)":{"notice":"Emitted when configuration is updated."},"Paused(address)":{"notice":"Emitted when the pause is triggered."},"Unpaused(address)":{"notice":"Emitted when the pause is lifted."}},"errors":{"ProxyAdminOwnedBase_NotProxyAdmin()":[{"notice":"Thrown when the caller is not the ProxyAdmin."}],"ProxyAdminOwnedBase_NotProxyAdminOrProxyAdminOwner()":[{"notice":"Thrown when the caller is not the ProxyAdmin owner or the ProxyAdmin."}],"ProxyAdminOwnedBase_NotProxyAdminOwner()":[{"notice":"Thrown when the caller is not the ProxyAdmin owner."}],"ProxyAdminOwnedBase_NotResolvedDelegateProxy()":[{"notice":"Thrown when the current contract is not a ResolvedDelegateProxy."}],"ProxyAdminOwnedBase_NotSharedProxyAdminOwner()":[{"notice":"Thrown when the ProxyAdmin owner of the current contract is not the same as the         ProxyAdmin owner of the other Proxy address provided."}],"ProxyAdminOwnedBase_ProxyAdminNotFound()":[{"notice":"Thrown when the ProxyAdmin owner of the current contract is not found."}],"ReinitializableBase_ZeroInitVersion()":[{"notice":"Thrown when the initialization version is zero."}],"SuperchainConfig_AlreadyPaused(address)":[{"notice":"Thrown when attempting to pause an identifier that is already paused"}],"SuperchainConfig_NotAlreadyPaused(address)":[{"notice":"Thrown when attempting to extend a pause that is not already paused."}],"SuperchainConfig_OnlyGuardian()":[{"notice":"Thrown when a caller is not the guardian but tries to call a guardian-only function"}]},"notice":"The SuperchainConfig contract is used to manage configuration of global superchain values."},"devdoc":{"version":1,"kind":"dev","details":"WARNING: When upgrading this contract, any active pause states will be lost as the pause state      is stored in storage variables that are not preserved during upgrades. Therefore, this contract      should not be upgraded while the system is paused.","methods":{"expiration(address)":{"params":{"_identifier":"The address identifier to check."},"returns":{"_0":"The timestamp when the pause expires, or 0 if not paused."}},"extend(address)":{"params":{"_identifier":"The address identifier to extend."}},"initVersion()":{"returns":{"_0":"The current initialization version."}},"initialize(address)":{"params":{"_guardian":"Address of the guardian, can pause the OptimismPortal."}},"pausable(address)":{"params":{"_identifier":"The address identifier to check."},"returns":{"_0":"True if the system can be paused for this identifier."}},"pause(address)":{"params":{"_identifier":"The address identifier for the pause."}},"pauseExpiry()":{"returns":{"_0":"The duration after which a pause expires."}},"paused()":{"returns":{"_0":"True if the global superchain system is paused."}},"paused(address)":{"params":{"_identifier":"The address identifier to check."},"returns":{"_0":"True if the system is paused for this identifier and not expired."}},"unpause(address)":{"params":{"_identifier":"The address identifier to unpause."}}},"events":{"ConfigUpdate(uint8,bytes)":{"params":{"data":"Encoded update data.","updateType":"Type of update."}},"Paused(address)":{"params":{"identifier":"A string helping to identify provenance of the pause transaction."}}},"title":"SuperchainConfig"},"id":229}