{"abi":[{"type":"function","name":"calculateCreateProxyWithNonceAddress","inputs":[{"name":"_singleton","type":"address","internalType":"address"},{"name":"initializer","type":"bytes","internalType":"bytes"},{"name":"saltNonce","type":"uint256","internalType":"uint256"}],"outputs":[{"name":"proxy","type":"address","internalType":"contract GnosisSafeProxy"}],"stateMutability":"nonpayable"},{"type":"function","name":"createProxy","inputs":[{"name":"singleton","type":"address","internalType":"address"},{"name":"data","type":"bytes","internalType":"bytes"}],"outputs":[{"name":"proxy","type":"address","internalType":"contract GnosisSafeProxy"}],"stateMutability":"nonpayable"},{"type":"function","name":"createProxyWithCallback","inputs":[{"name":"_singleton","type":"address","internalType":"address"},{"name":"initializer","type":"bytes","internalType":"bytes"},{"name":"saltNonce","type":"uint256","internalType":"uint256"},{"name":"callback","type":"address","internalType":"contract IProxyCreationCallback"}],"outputs":[{"name":"proxy","type":"address","internalType":"contract GnosisSafeProxy"}],"stateMutability":"nonpayable"},{"type":"function","name":"createProxyWithNonce","inputs":[{"name":"_singleton","type":"address","internalType":"address"},{"name":"initializer","type":"bytes","internalType":"bytes"},{"name":"saltNonce","type":"uint256","internalType":"uint256"}],"outputs":[{"name":"proxy","type":"address","internalType":"contract GnosisSafeProxy"}],"stateMutability":"nonpayable"},{"type":"function","name":"proxyCreationCode","inputs":[],"outputs":[{"name":"","type":"bytes","internalType":"bytes"}],"stateMutability":"pure"},{"type":"function","name":"proxyRuntimeCode","inputs":[],"outputs":[{"name":"","type":"bytes","internalType":"bytes"}],"stateMutability":"pure"},{"type":"event","name":"ProxyCreation","inputs":[{"name":"proxy","type":"address","indexed":false,"internalType":"contract GnosisSafeProxy"},{"name":"singleton","type":"address","indexed":false,"internalType":"address"}],"anonymous":false}],"bytecode":{"object":"0x608060405234801561001057600080fd5b50610ba2806100206000396000f3fe608060405234801561001057600080fd5b50600436106100725760003560e01c806361b69abd1161005057806361b69abd146100dc578063addacc0f146100ef578063d18af54d146100f757600080fd5b80631688f0b9146100775780632500510e146100b457806353e5d935146100c7575b600080fd5b61008a61008536600461070e565b61010a565b60405173ffffffffffffffffffffffffffffffffffffffff90911681526020015b60405180910390f35b61008a6100c2366004610767565b610192565b6100cf610272565b6040516100ab919061086c565b61008a6100ea366004610886565b6102ba565b6100cf61037d565b61008a6101053660046108d6565b61038f565b60006101178484846104ab565b83519091501561013b5760008060008551602087016000865af10361013b57600080fd5b6040805173ffffffffffffffffffffffffffffffffffffffff8084168252861660208201527f4f51faf6c4561ff95f067657e43439f0f856d97c04d9ec9070a6199ad418e235910160405180910390a19392505050565b60006101d68585858080601f0160208091040260200160405190810160405280939291908181526020018383808284376000920191909152508792506104ab915050565b6040517fffffffffffffffffffffffffffffffffffffffff000000000000000000000000606083901b166020820152909150603401604080517fffffffffffffffffffffffffffffffffffffffffffffffffffffffffffffffe0818403018152908290527f08c379a00000000000000000000000000000000000000000000000000000000082526102699160040161086c565b60405180910390fd5b606060405180602001610284906105f6565b7fffffffffffffffffffffffffffffffffffffffffffffffffffffffffffffffe082820381018352601f90910116604052919050565b6000826040516102c9906105f6565b73ffffffffffffffffffffffffffffffffffffffff9091168152602001604051809103906000f080158015610302573d6000803e3d6000fd5b508251909150156103275760008060008451602086016000865af10361032757600080fd5b6040805173ffffffffffffffffffffffffffffffffffffffff8084168252851660208201527f4f51faf6c4561ff95f067657e43439f0f856d97c04d9ec9070a6199ad418e235910160405180910390a192915050565b60606040518060200161028490610603565b60008083836040516020016103d392919091825260601b7fffffffffffffffffffffffffffffffffffffffff00000000000000000000000016602082015260340190565b6040516020818303038152906040528051906020012060001c90506103f986868361010a565b915073ffffffffffffffffffffffffffffffffffffffff8316156104a2576040517f1e52b51800000000000000000000000000000000000000000000000000000000815273ffffffffffffffffffffffffffffffffffffffff841690631e52b5189061046f9085908a908a908a90600401610942565b600060405180830381600087803b15801561048957600080fd5b505af115801561049d573d6000803e3d6000fd5b505050505b50949350505050565b6000808380519060200120836040516020016104d1929190918252602082015260400190565b6040516020818303038152906040528051906020012090506000604051806020016104fb906105f6565b7fffffffffffffffffffffffffffffffffffffffffffffffffffffffffffffffe082820381018352601f909101166040819052610553919073ffffffffffffffffffffffffffffffffffffffff89169060200161098c565b6040516020818303038152906040529050818151826020016000f5925073ffffffffffffffffffffffffffffffffffffffff83166105ed576040517f08c379a000000000000000000000000000000000000000000000000000000000815260206004820152601360248201527f437265617465322063616c6c206661696c6564000000000000000000000000006044820152606401610269565b50509392505050565b61016f806109af83390190565b607880610b1e83390190565b73ffffffffffffffffffffffffffffffffffffffff8116811461063157600080fd5b50565b7f4e487b7100000000000000000000000000000000000000000000000000000000600052604160045260246000fd5b600082601f83011261067457600080fd5b813567ffffffffffffffff8082111561068f5761068f610634565b604051601f83017fffffffffffffffffffffffffffffffffffffffffffffffffffffffffffffffe0908116603f011681019082821181831017156106d5576106d5610634565b816040528381528660208588010111156106ee57600080fd5b836020870160208301376000602085830101528094505050505092915050565b60008060006060848603121561072357600080fd5b833561072e8161060f565b9250602084013567ffffffffffffffff81111561074a57600080fd5b61075686828701610663565b925050604084013590509250925092565b6000806000806060858703121561077d57600080fd5b84356107888161060f565b9350602085013567ffffffffffffffff808211156107a557600080fd5b818701915087601f8301126107b957600080fd5b8135818111156107c857600080fd5b8860208285010111156107da57600080fd5b95986020929092019750949560400135945092505050565b60005b8381101561080d5781810151838201526020016107f5565b8381111561081c576000848401525b50505050565b6000815180845261083a8160208601602086016107f2565b601f017fffffffffffffffffffffffffffffffffffffffffffffffffffffffffffffffe0169290920160200192915050565b60208152600061087f6020830184610822565b9392505050565b6000806040838503121561089957600080fd5b82356108a48161060f565b9150602083013567ffffffffffffffff8111156108c057600080fd5b6108cc85828601610663565b9150509250929050565b600080600080608085870312156108ec57600080fd5b84356108f78161060f565b9350602085013567ffffffffffffffff81111561091357600080fd5b61091f87828801610663565b9350506040850135915060608501356109378161060f565b939692955090935050565b600073ffffffffffffffffffffffffffffffffffffffff80871683528086166020840152506080604083015261097b6080830185610822565b905082606083015295945050505050565b6000835161099e8184602088016107f2565b919091019182525060200191905056fe608060405234801561001057600080fd5b5060405161016f38038061016f83398101604081905261002f916100b9565b6001600160a01b0381166100945760405162461bcd60e51b815260206004820152602260248201527f496e76616c69642073696e676c65746f6e20616464726573732070726f766964604482015261195960f21b606482015260840160405180910390fd5b600080546001600160a01b0319166001600160a01b03929092169190911790556100e9565b6000602082840312156100cb57600080fd5b81516001600160a01b03811681146100e257600080fd5b9392505050565b6078806100f76000396000f3fe6080604052600073ffffffffffffffffffffffffffffffffffffffff8154167fa619486e00000000000000000000000000000000000000000000000000000000823503604d57808252602082f35b3682833781823684845af490503d82833e806066573d82fd5b503d81f3fea164736f6c634300080f000a6080604052600073ffffffffffffffffffffffffffffffffffffffff8154167fa619486e00000000000000000000000000000000000000000000000000000000823503604d57808252602082f35b3682833781823684845af490503d82833e806066573d82fd5b503d81f3fea164736f6c634300080f000aa164736f6c634300080f000a","linkReferences":{}},"methodIdentifiers":{"calculateCreateProxyWithNonceAddress(address,bytes,uint256)":"2500510e","createProxy(address,bytes)":"61b69abd","createProxyWithCallback(address,bytes,uint256,address)":"d18af54d","createProxyWithNonce(address,bytes,uint256)":"1688f0b9","proxyCreationCode()":"53e5d935","proxyRuntimeCode()":"addacc0f"},"storageLayout":{"storage":[],"types":{}},"userdoc":{"version":1,"kind":"user"},"devdoc":{"version":1,"kind":"dev","author":"Stefan George - <stefan@gnosis.pm>","methods":{"calculateCreateProxyWithNonceAddress(address,bytes,uint256)":{"details":"Allows to get the address for a new proxy contact created via `createProxyWithNonce`      This method is only meant for address calculation purpose when you use an initializer that would revert,      therefore the response is returned with a revert. When calling this method set `from` to the address of the proxy factory.","params":{"_singleton":"Address of singleton contract.","initializer":"Payload for message call sent to new proxy contract.","saltNonce":"Nonce that will be used to generate the salt to calculate the address of the new proxy contract."}},"createProxy(address,bytes)":{"details":"Allows to create new proxy contact and execute a message call to the new proxy within one transaction.","params":{"data":"Payload for message call sent to new proxy contract.","singleton":"Address of singleton contract."}},"createProxyWithCallback(address,bytes,uint256,address)":{"details":"Allows to create new proxy contact, execute a message call to the new proxy and call a specified callback within one transaction","params":{"_singleton":"Address of singleton contract.","callback":"Callback that will be invoced after the new proxy contract has been successfully deployed and initialized.","initializer":"Payload for message call sent to new proxy contract.","saltNonce":"Nonce that will be used to generate the salt to calculate the address of the new proxy contract."}},"createProxyWithNonce(address,bytes,uint256)":{"details":"Allows to create new proxy contact and execute a message call to the new proxy within one transaction.","params":{"_singleton":"Address of singleton contract.","initializer":"Payload for message call sent to new proxy contract.","saltNonce":"Nonce that will be used to generate the salt to calculate the address of the new proxy contract."}},"proxyCreationCode()":{"details":"Allows to retrieve the creation code used for the Proxy deployment. With this it is easily possible to calculate predicted address."},"proxyRuntimeCode()":{"details":"Allows to retrieve the runtime code of a deployed Proxy. This can be used to check that the expected Proxy was deployed."}},"title":"Proxy Factory - Allows to create new proxy contact and execute a message call to the new proxy within one transaction."},"id":164}