{"abi":[{"type":"constructor","inputs":[{"name":"_recipient","type":"address","internalType":"address"},{"name":"_minWithdrawalAmount","type":"uint256","internalType":"uint256"},{"name":"_withdrawalNetwork","type":"uint8","internalType":"enum Types.WithdrawalNetwork"}],"stateMutability":"nonpayable"},{"type":"receive","stateMutability":"payable"},{"type":"function","name":"MIN_WITHDRAWAL_AMOUNT","inputs":[],"outputs":[{"name":"","type":"uint256","internalType":"uint256"}],"stateMutability":"view"},{"type":"function","name":"RECIPIENT","inputs":[],"outputs":[{"name":"","type":"address","internalType":"address"}],"stateMutability":"view"},{"type":"function","name":"WITHDRAWAL_NETWORK","inputs":[],"outputs":[{"name":"","type":"uint8","internalType":"enum Types.WithdrawalNetwork"}],"stateMutability":"view"},{"type":"function","name":"l1FeeWallet","inputs":[],"outputs":[{"name":"","type":"address","internalType":"address"}],"stateMutability":"view"},{"type":"function","name":"minWithdrawalAmount","inputs":[],"outputs":[{"name":"amount_","type":"uint256","internalType":"uint256"}],"stateMutability":"view"},{"type":"function","name":"recipient","inputs":[],"outputs":[{"name":"recipient_","type":"address","internalType":"address"}],"stateMutability":"view"},{"type":"function","name":"totalProcessed","inputs":[],"outputs":[{"name":"","type":"uint256","internalType":"uint256"}],"stateMutability":"view"},{"type":"function","name":"version","inputs":[],"outputs":[{"name":"","type":"string","internalType":"string"}],"stateMutability":"view"},{"type":"function","name":"withdraw","inputs":[],"outputs":[],"stateMutability":"nonpayable"},{"type":"function","name":"withdrawalNetwork","inputs":[],"outputs":[{"name":"network_","type":"uint8","internalType":"enum Types.WithdrawalNetwork"}],"stateMutability":"view"},{"type":"event","name":"Withdrawal","inputs":[{"name":"value","type":"uint256","indexed":false,"internalType":"uint256"},{"name":"to","type":"address","indexed":false,"internalType":"address"},{"name":"from","type":"address","indexed":false,"internalType":"address"}],"anonymous":false},{"type":"event","name":"Withdrawal","inputs":[{"name":"value","type":"uint256","indexed":false,"internalType":"uint256"},{"name":"to","type":"address","indexed":false,"internalType":"address"},{"name":"from","type":"address","indexed":false,"internalType":"address"},{"name":"withdrawalNetwork","type":"uint8","indexed":false,"internalType":"enum Types.WithdrawalNetwork"}],"anonymous":false}],"bytecode":{"object":"0x60e060405234801561001057600080fd5b5060405161096038038061096083398101604081905261002f91610079565b6001600160a01b03831660a0526080829052828282806001811115610056576100566100cc565b60c081600181111561006a5761006a6100cc565b815250505050505050506100e2565b60008060006060848603121561008e57600080fd5b83516001600160a01b03811681146100a557600080fd5b602085015160408601519194509250600281106100c157600080fd5b809150509250925092565b634e487b7160e01b600052602160045260246000fd5b60805160a05160c05161080a610156600039600081816101ce015281816102600152818161046601526104a101526000818160d30152818161019b015281816103b501528181610444015281816104dd01526105d201526000818161020a0152818161029401526102b8015261080a6000f3fe6080604052600436106100b55760003560e01c80638312f14911610069578063d0e12f901161004e578063d0e12f901461024e578063d3e5792b14610282578063d4ff92181461018c57600080fd5b80638312f149146101fb57806384411d651461023857600080fd5b806354fd4d501161009a57806354fd4d501461013657806366d003ac1461018c57806382356d8a146101bf57600080fd5b80630d9019e1146100c15780633ccfd60b1461011f57600080fd5b366100bc57005b600080fd5b3480156100cd57600080fd5b506100f57f000000000000000000000000000000000000000000000000000000000000000081565b60405173ffffffffffffffffffffffffffffffffffffffff90911681526020015b60405180910390f35b34801561012b57600080fd5b506101346102b6565b005b34801561014257600080fd5b5061017f6040518060400160405280600581526020017f312e352e3100000000000000000000000000000000000000000000000000000081525081565b604051610116919061068c565b34801561019857600080fd5b507f00000000000000000000000000000000000000000000000000000000000000006100f5565b3480156101cb57600080fd5b507f00000000000000000000000000000000000000000000000000000000000000005b6040516101169190610769565b34801561020757600080fd5b507f00000000000000000000000000000000000000000000000000000000000000005b604051908152602001610116565b34801561024457600080fd5b5061022a60005481565b34801561025a57600080fd5b506101ee7f000000000000000000000000000000000000000000000000000000000000000081565b34801561028e57600080fd5b5061022a7f000000000000000000000000000000000000000000000000000000000000000081565b7f0000000000000000000000000000000000000000000000000000000000000000471015610391576040517f08c379a000000000000000000000000000000000000000000000000000000000815260206004820152604a60248201527f4665655661756c743a207769746864726177616c20616d6f756e74206d75737460448201527f2062652067726561746572207468616e206d696e696d756d207769746864726160648201527f77616c20616d6f756e7400000000000000000000000000000000000000000000608482015260a4015b60405180910390fd5b6000479050806000808282546103a7919061077d565b9091555050604080518281527f000000000000000000000000000000000000000000000000000000000000000073ffffffffffffffffffffffffffffffffffffffff166020820152338183015290517fc8a211cc64b6ed1b50595a9fcb1932b6d1e5a6e8ef15b60e5b1f988ea9086bba9181900360600190a17f38e04cbeb8c10f8f568618aa75be0f10b6729b8b4237743b4de20cbcde2839ee817f0000000000000000000000000000000000000000000000000000000000000000337f000000000000000000000000000000000000000000000000000000000000000060405161049594939291906107bc565b60405180910390a160017f000000000000000000000000000000000000000000000000000000000000000060018111156104d1576104d16106ff565b036105955760006105027f000000000000000000000000000000000000000000000000000000000000000083610664565b905080610591576040517f08c379a000000000000000000000000000000000000000000000000000000000815260206004820152603060248201527f4665655661756c743a206661696c656420746f2073656e642045544820746f2060448201527f4c322066656520726563697069656e74000000000000000000000000000000006064820152608401610388565b5050565b6040517fc2b3e5ac00000000000000000000000000000000000000000000000000000000815273ffffffffffffffffffffffffffffffffffffffff7f000000000000000000000000000000000000000000000000000000000000000016600482015262061a80602482015260606044820152600060648201527342000000000000000000000000000000000000169063c2b3e5ac9083906084016000604051808303818588803b15801561064857600080fd5b505af115801561065c573d6000803e3d6000fd5b505050505050565b6000610671835a84610678565b9392505050565b6000806000806000858888f1949350505050565b600060208083528351808285015260005b818110156106b95785810183015185820160400152820161069d565b818111156106cb576000604083870101525b50601f017fffffffffffffffffffffffffffffffffffffffffffffffffffffffffffffffe016929092016040019392505050565b7f4e487b7100000000000000000000000000000000000000000000000000000000600052602160045260246000fd5b60028110610765577f4e487b7100000000000000000000000000000000000000000000000000000000600052602160045260246000fd5b9052565b60208101610777828461072e565b92915050565b600082198211156107b7577f4e487b7100000000000000000000000000000000000000000000000000000000600052601160045260246000fd5b500190565b84815273ffffffffffffffffffffffffffffffffffffffff848116602083015283166040820152608081016107f4606083018461072e565b9594505050505056fea164736f6c634300080f000a","linkReferences":{}},"methodIdentifiers":{"MIN_WITHDRAWAL_AMOUNT()":"d3e5792b","RECIPIENT()":"0d9019e1","WITHDRAWAL_NETWORK()":"d0e12f90","l1FeeWallet()":"d4ff9218","minWithdrawalAmount()":"8312f149","recipient()":"66d003ac","totalProcessed()":"84411d65","version()":"54fd4d50","withdraw()":"3ccfd60b","withdrawalNetwork()":"82356d8a"},"storageLayout":{"storage":[{"astId":101310,"contract":"src/L2/SequencerFeeVault.sol:SequencerFeeVault","label":"totalProcessed","offset":0,"slot":"0","type":"t_uint256"},{"astId":101315,"contract":"src/L2/SequencerFeeVault.sol:SequencerFeeVault","label":"__gap","offset":0,"slot":"1","type":"t_array(t_uint256)48_storage"}],"types":{"t_array(t_uint256)48_storage":{"encoding":"inplace","label":"uint256[48]","numberOfBytes":"1536","base":"t_uint256"},"t_uint256":{"encoding":"inplace","label":"uint256","numberOfBytes":"32"}}},"userdoc":{"version":1,"kind":"user","methods":{"MIN_WITHDRAWAL_AMOUNT()":{"notice":"Minimum balance before a withdrawal can be triggered.         Use the `minWithdrawalAmount()` getter as this is deprecated         and is subject to be removed in the future."},"RECIPIENT()":{"notice":"Account that will receive the fees. Can be located on L1 or L2.         Use the `recipient()` getter as this is deprecated         and is subject to be removed in the future."},"WITHDRAWAL_NETWORK()":{"notice":"Network which the recipient will receive fees on.         Use the `withdrawalNetwork()` getter as this is deprecated         and is subject to be removed in the future."},"constructor":{"notice":"Constructs the SequencerFeeVault contract."},"minWithdrawalAmount()":{"notice":"Minimum balance before a withdrawal can be triggered."},"recipient()":{"notice":"Account that will receive the fees. Can be located on L1 or L2."},"totalProcessed()":{"notice":"Total amount of wei processed by the contract."},"withdraw()":{"notice":"Triggers a withdrawal of funds to the fee wallet on L1 or L2."},"withdrawalNetwork()":{"notice":"Network which the recipient will receive fees on."}},"events":{"Withdrawal(uint256,address,address)":{"notice":"Emitted each time a withdrawal occurs. This event will be deprecated         in favor of the Withdrawal event containing the WithdrawalNetwork parameter."},"Withdrawal(uint256,address,address,uint8)":{"notice":"Emitted each time a withdrawal occurs."}},"notice":"The SequencerFeeVault is the contract that holds any fees paid to the Sequencer during         transaction processing and block production."},"devdoc":{"version":1,"kind":"dev","methods":{"constructor":{"params":{"_minWithdrawalAmount":"Minimum balance for withdrawals.","_recipient":"Wallet that will receive the fees.","_withdrawalNetwork":"Network which the recipient will receive fees on."}},"l1FeeWallet()":{"returns":{"_0":"The recipient address."}}},"title":"SequencerFeeVault"},"id":249}