{"abi":[{"type":"constructor","inputs":[{"name":"_guardianSafe","type":"address","internalType":"contract GnosisSafe"},{"name":"_foundationSafe","type":"address","internalType":"contract GnosisSafe"},{"name":"_superchainConfig","type":"address","internalType":"contract ISuperchainConfig"},{"name":"_deputy","type":"address","internalType":"address"},{"name":"_deputySignature","type":"bytes","internalType":"bytes"}],"stateMutability":"nonpayable"},{"type":"function","name":"deputy","inputs":[],"outputs":[{"name":"","type":"address","internalType":"address"}],"stateMutability":"view"},{"type":"function","name":"deputyAuthMessageTypehash","inputs":[],"outputs":[{"name":"deputyAuthMessageTypehash_","type":"bytes32","internalType":"bytes32"}],"stateMutability":"pure"},{"type":"function","name":"eip712Domain","inputs":[],"outputs":[{"name":"fields","type":"bytes1","internalType":"bytes1"},{"name":"name","type":"string","internalType":"string"},{"name":"version","type":"string","internalType":"string"},{"name":"chainId","type":"uint256","internalType":"uint256"},{"name":"verifyingContract","type":"address","internalType":"address"},{"name":"salt","type":"bytes32","internalType":"bytes32"},{"name":"extensions","type":"uint256[]","internalType":"uint256[]"}],"stateMutability":"view"},{"type":"function","name":"foundationSafe","inputs":[],"outputs":[{"name":"foundationSafe_","type":"address","internalType":"contract GnosisSafe"}],"stateMutability":"view"},{"type":"function","name":"guardianSafe","inputs":[],"outputs":[{"name":"guardianSafe_","type":"address","internalType":"contract GnosisSafe"}],"stateMutability":"view"},{"type":"function","name":"pause","inputs":[{"name":"_nonce","type":"bytes32","internalType":"bytes32"},{"name":"_identifier","type":"address","internalType":"address"},{"name":"_signature","type":"bytes","internalType":"bytes"}],"outputs":[],"stateMutability":"nonpayable"},{"type":"function","name":"pauseMessageTypehash","inputs":[],"outputs":[{"name":"pauseMessageTypehash_","type":"bytes32","internalType":"bytes32"}],"stateMutability":"pure"},{"type":"function","name":"setDeputy","inputs":[{"name":"_deputy","type":"address","internalType":"address"},{"name":"_deputySignature","type":"bytes","internalType":"bytes"}],"outputs":[],"stateMutability":"nonpayable"},{"type":"function","name":"superchainConfig","inputs":[],"outputs":[{"name":"superchainConfig_","type":"address","internalType":"contract ISuperchainConfig"}],"stateMutability":"view"},{"type":"function","name":"usedNonces","inputs":[{"name":"","type":"bytes32","internalType":"bytes32"}],"outputs":[{"name":"","type":"bool","internalType":"bool"}],"stateMutability":"view"},{"type":"function","name":"version","inputs":[],"outputs":[{"name":"","type":"string","internalType":"string"}],"stateMutability":"view"},{"type":"event","name":"DeputySet","inputs":[{"name":"deputy","type":"address","indexed":true,"internalType":"address"}],"anonymous":false},{"type":"event","name":"EIP712DomainChanged","inputs":[],"anonymous":false},{"type":"event","name":"PauseTriggered","inputs":[{"name":"deputy","type":"address","indexed":true,"internalType":"address"},{"name":"nonce","type":"bytes32","indexed":false,"internalType":"bytes32"},{"name":"identifier","type":"address","indexed":false,"internalType":"address"}],"anonymous":false},{"type":"error","name":"DeputyPauseModule_ExecutionFailed","inputs":[{"name":"","type":"string","internalType":"string"}]},{"type":"error","name":"DeputyPauseModule_InvalidDeputy","inputs":[]},{"type":"error","name":"DeputyPauseModule_NonceAlreadyUsed","inputs":[]},{"type":"error","name":"DeputyPauseModule_NotFromSafe","inputs":[]},{"type":"error","name":"DeputyPauseModule_SuperchainNotPaused","inputs":[]},{"type":"error","name":"DeputyPauseModule_Unauthorized","inputs":[]},{"type":"error","name":"ECDSAInvalidSignature","inputs":[]},{"type":"error","name":"ECDSAInvalidSignatureLength","inputs":[{"name":"length","type":"uint256","internalType":"uint256"}]},{"type":"error","name":"ECDSAInvalidSignatureS","inputs":[{"name":"s","type":"bytes32","internalType":"bytes32"}]},{"type":"error","name":"InvalidShortString","inputs":[]},{"type":"error","name":"StringTooLong","inputs":[{"name":"str","type":"string","internalType":"string"}]}],"bytecode":{"object":"0x6101c0604052348015610010575f80fd5b50604051611c0c380380611c0c83398101604081905261002f91610573565b604080518082018252601181527044657075747950617573654d6f64756c6560781b602080830191909152825180840190935260018352603160f81b908301529061007a825f610137565b61012052610089816001610137565b61014052815160208084019190912060e052815190820120610100524660a05261010260e05161010051604080515f80516020611bec83398151915260208201529081019290925260608201524660808201523060a08201525f9060c00160405160208183030381529060405280519060200120905090565b60805250503060c0526101158282610169565b50506001600160a01b039283166101605290821661018052166101a052610819565b5f6020835110156101525761014b8361025b565b9050610163565b8161015d84826106ee565b5060ff90505b92915050565b5f6101d37f92e47526b2e32be4f66cd2600e9cda9147735107631c0b241a067693f49b7f38846040516020016101b29291909182526001600160a01b0316602082015260400190565b604051602081830303815290604052805190602001206102a160201b60201c565b90506001600160a01b0383166101e982846102cd565b6001600160a01b03161461021057604051630618de0760e01b815260040160405180910390fd5b600280546001600160a01b0319166001600160a01b0385169081179091556040517f6b5500f6cd2cd4a29ab2c706a6c65833d0633a568f7263460775cebcc8e9a99b905f90a2505050565b5f80829050601f8151111561028e578260405163305a27a960e01b815260040161028591906107ad565b60405180910390fd5b8051610299826107e2565b179392505050565b5f6101636102ad6102f6565b8360405161190160f01b8152600281019290925260228201526042902090565b5f8080806102db8686610385565b919450925090506102ec82826103ce565b5090949350505050565b5f60c0516001600160a01b0316306001600160a01b031614801561031b575060a05146145b15610327575060805190565b61038060e05161010051604080515f80516020611bec83398151915260208201529081019290925260608201524660808201523060a08201525f9060c00160405160208183030381529060405280519060200120905090565b905090565b5f805f83516041036103bc576020840151604085015160608601515f1a6103ae8882858561048a565b9550955095505050506103c7565b505081515f91506002905b9250925092565b5f8260038111156103e1576103e1610805565b036103ea575050565b60018260038111156103fe576103fe610805565b0361041c5760405163f645eedf60e01b815260040160405180910390fd5b600282600381111561043057610430610805565b036104515760405163fce698f760e01b815260048101829052602401610285565b600382600381111561046557610465610805565b03610486576040516335e2f38360e21b815260048101829052602401610285565b5050565b5f80806fa2a8918ca85bafe22016d0b997e4df60600160ff1b038411156104b957505f9150600390508261053e565b604080515f808252602082018084528a905260ff891692820192909252606081018790526080810186905260019060a0016020604051602081039080840390855afa15801561050a573d5f803e3d5ffd5b5050604051601f1901519150506001600160a01b03811661053557505f92506001915082905061053e565b92505f91508190505b9450945094915050565b6001600160a01b038116811461055c575f80fd5b50565b634e487b7160e01b5f52604160045260245ffd5b5f805f805f60a08688031215610587575f80fd5b855161059281610548565b60208701519095506105a381610548565b60408701519094506105b481610548565b60608701519093506105c581610548565b60808701519092506001600160401b03808211156105e1575f80fd5b818801915088601f8301126105f4575f80fd5b8151818111156106065761060661055f565b604051601f8201601f19908116603f0116810190838211818310171561062e5761062e61055f565b816040528281528b6020848701011115610646575f80fd5b8260208601602083015e5f6020848301015280955050505050509295509295909350565b600181811c9082168061067e57607f821691505b60208210810361069c57634e487b7160e01b5f52602260045260245ffd5b50919050565b601f8211156106e957805f5260205f20601f840160051c810160208510156106c75750805b601f840160051c820191505b818110156106e6575f81556001016106d3565b50505b505050565b81516001600160401b038111156107075761070761055f565b61071b81610715845461066a565b846106a2565b602080601f83116001811461074e575f84156107375750858301515b5f19600386901b1c1916600185901b1785556107a5565b5f85815260208120601f198616915b8281101561077c5788860151825594840194600190910190840161075d565b508582101561079957878501515f19600388901b60f8161c191681555b505060018460011b0185555b505050505050565b602081525f82518060208401528060208501604085015e5f604082850101526040601f19601f83011684010191505092915050565b8051602080830151919081101561069c575f1960209190910360031b1b16919050565b634e487b7160e01b5f52602160045260245ffd5b60805160a05160c05160e05161010051610120516101405161016051610180516101a0516113496108a35f395f818160f201528181610444015261060501525f81816101a2015261071a01525f81816101c8015261041901525f6109c001525f61098f01525f610acc01525f610aa401525f6109ff01525f610a2901525f610a5301526113495ff3fe608060405234801561000f575f80fd5b50600436106100c4575f3560e01c80638851bfbd1161007d578063da931fe411610058578063da931fe41461021c578063f1c9eed714610242578063feb6172414610262575f80fd5b80638851bfbd146101a05780639d786a02146101c6578063cf2e2379146101ec575f80fd5b806335e80ab3116100ad57806335e80ab3146100f057806354fd4d501461013c57806384b0196e14610185575f80fd5b8063142b53c9146100c8578063183b708b146100dd575b5f80fd5b6100db6100d6366004610fbc565b610294565b005b6100db6100eb36600461100f565b610702565b7f00000000000000000000000000000000000000000000000000000000000000005b60405173ffffffffffffffffffffffffffffffffffffffff90911681526020015b60405180910390f35b6101786040518060400160405280600581526020017f322e312e3000000000000000000000000000000000000000000000000000000081525081565b60405161013391906110a6565b61018d61077f565b60405161013397969594939291906110bf565b7f0000000000000000000000000000000000000000000000000000000000000000610112565b7f0000000000000000000000000000000000000000000000000000000000000000610112565b7f92e47526b2e32be4f66cd2600e9cda9147735107631c0b241a067693f49b7f385b604051908152602001610133565b7f0ad9a3778ba0f89045b0ba6e23129cdbd178a22b085d85b5dd8a48c8af831b5461020e565b6002546101129073ffffffffffffffffffffffffffffffffffffffff1681565b61028461027036600461117f565b60036020525f908152604090205460ff1681565b6040519015158152602001610133565b604080517f0ad9a3778ba0f89045b0ba6e23129cdbd178a22b085d85b5dd8a48c8af831b54602082015290810184905273ffffffffffffffffffffffffffffffffffffffff831660608201525f90610305906080015b604051602081830303815290604052805190602001206107dd565b60025490915073ffffffffffffffffffffffffffffffffffffffff1661032b828461082a565b73ffffffffffffffffffffffffffffffffffffffff1614610378576040517f8d279ab500000000000000000000000000000000000000000000000000000000815260040160405180910390fd5b5f8481526003602052604090205460ff16156103c0576040517f7313456500000000000000000000000000000000000000000000000000000000815260040160405180910390fd5b5f8481526003602052604080822080547fffffffffffffffffffffffffffffffffffffffffffffffffffffffffffffff001660011790555173ffffffffffffffffffffffffffffffffffffffff858116602483015282917f000000000000000000000000000000000000000000000000000000000000000090911690635229073f907f0000000000000000000000000000000000000000000000000000000000000000908490604401604080517fffffffffffffffffffffffffffffffffffffffffffffffffffffffffffffffe08184030181529181526020820180517bffffffffffffffffffffffffffffffffffffffffffffffffffffffff167f76a67a5100000000000000000000000000000000000000000000000000000000179052517fffffffff0000000000000000000000000000000000000000000000000000000060e086901b16815261051a939291905f906004016111c3565b5f604051808303815f875af1158015610535573d5f803e3d5ffd5b505050506040513d5f823e601f3d9081017fffffffffffffffffffffffffffffffffffffffffffffffffffffffffffffffe016820160405261057a919081019061124c565b91509150816105c057806040517f8d1364be0000000000000000000000000000000000000000000000000000000081526004016105b791906110a6565b60405180910390fd5b6040517f2e48152c00000000000000000000000000000000000000000000000000000000815273ffffffffffffffffffffffffffffffffffffffff86811660048301527f00000000000000000000000000000000000000000000000000000000000000001690632e48152c90602401602060405180830381865afa15801561064a573d5f803e3d5ffd5b505050506040513d601f19601f8201168201806040525081019061066e91906112d2565b6106a4576040517feb7171cd00000000000000000000000000000000000000000000000000000000815260040160405180910390fd5b6002546040805188815273ffffffffffffffffffffffffffffffffffffffff8881166020830152909216917faa64a95e3acb9db4deaf865d9fcc62a5d47996b643e7fcc799e3b499c9bff2d9910160405180910390a2505050505050565b3373ffffffffffffffffffffffffffffffffffffffff7f00000000000000000000000000000000000000000000000000000000000000001614610771576040517f71da2c9100000000000000000000000000000000000000000000000000000000815260040160405180910390fd5b61077b8282610852565b5050565b5f6060805f805f6060610790610988565b6107986109b9565b604080515f808252602082019092527f0f000000000000000000000000000000000000000000000000000000000000009b939a50919850469750309650945092509050565b5f6108246107e96109e6565b836040517f19010000000000000000000000000000000000000000000000000000000000008152600281019290925260228201526042902090565b92915050565b5f805f806108388686610b1c565b9250925092506108488282610b65565b5090949350505050565b5f6108a87f92e47526b2e32be4f66cd2600e9cda9147735107631c0b241a067693f49b7f38846040516020016102ea92919091825273ffffffffffffffffffffffffffffffffffffffff16602082015260400190565b90508273ffffffffffffffffffffffffffffffffffffffff166108cb828461082a565b73ffffffffffffffffffffffffffffffffffffffff1614610918576040517f0618de0700000000000000000000000000000000000000000000000000000000815260040160405180910390fd5b600280547fffffffffffffffffffffffff00000000000000000000000000000000000000001673ffffffffffffffffffffffffffffffffffffffff85169081179091556040517f6b5500f6cd2cd4a29ab2c706a6c65833d0633a568f7263460775cebcc8e9a99b905f90a2505050565b60606109b47f00000000000000000000000000000000000000000000000000000000000000005f610c68565b905090565b60606109b47f00000000000000000000000000000000000000000000000000000000000000006001610c68565b5f3073ffffffffffffffffffffffffffffffffffffffff7f000000000000000000000000000000000000000000000000000000000000000016148015610a4b57507f000000000000000000000000000000000000000000000000000000000000000046145b15610a7557507f000000000000000000000000000000000000000000000000000000000000000090565b6109b4604080517f8b73c3c69bb8fe3d512ecc4cf759cc79239f7b179b0ffacaa9a75d522b39400f60208201527f0000000000000000000000000000000000000000000000000000000000000000918101919091527f000000000000000000000000000000000000000000000000000000000000000060608201524660808201523060a08201525f9060c00160405160208183030381529060405280519060200120905090565b5f805f8351604103610b53576020840151604085015160608601515f1a610b4588828585610d11565b955095509550505050610b5e565b505081515f91506002905b9250925092565b5f826003811115610b7857610b78611196565b03610b81575050565b6001826003811115610b9557610b95611196565b03610bcc576040517ff645eedf00000000000000000000000000000000000000000000000000000000815260040160405180910390fd5b6002826003811115610be057610be0611196565b03610c1a576040517ffce698f7000000000000000000000000000000000000000000000000000000008152600481018290526024016105b7565b6003826003811115610c2e57610c2e611196565b0361077b576040517fd78bce0c000000000000000000000000000000000000000000000000000000008152600481018290526024016105b7565b606060ff8314610c8257610c7b83610e04565b9050610824565b818054610c8e906112eb565b80601f0160208091040260200160405190810160405280929190818152602001828054610cba906112eb565b8015610d055780601f10610cdc57610100808354040283529160200191610d05565b820191905f5260205f20905b815481529060010190602001808311610ce857829003601f168201915b50505050509050610824565b5f80807f7fffffffffffffffffffffffffffffff5d576e7357a4501ddfe92f46681b20a0841115610d4a57505f91506003905082610dfa565b604080515f808252602082018084528a905260ff891692820192909252606081018790526080810186905260019060a0016020604051602081039080840390855afa158015610d9b573d5f803e3d5ffd5b50506040517fffffffffffffffffffffffffffffffffffffffffffffffffffffffffffffffe0015191505073ffffffffffffffffffffffffffffffffffffffff8116610df157505f925060019150829050610dfa565b92505f91508190505b9450945094915050565b60605f610e1083610e41565b6040805160208082528183019092529192505f91906020820181803683375050509182525060208101929092525090565b5f60ff8216601f811115610824576040517fb3512b0c00000000000000000000000000000000000000000000000000000000815260040160405180910390fd5b803573ffffffffffffffffffffffffffffffffffffffff81168114610ea4575f80fd5b919050565b7f4e487b71000000000000000000000000000000000000000000000000000000005f52604160045260245ffd5b604051601f82017fffffffffffffffffffffffffffffffffffffffffffffffffffffffffffffffe016810167ffffffffffffffff81118282101715610f1d57610f1d610ea9565b604052919050565b5f67ffffffffffffffff821115610f3e57610f3e610ea9565b50601f017fffffffffffffffffffffffffffffffffffffffffffffffffffffffffffffffe01660200190565b5f82601f830112610f79575f80fd5b8135610f8c610f8782610f25565b610ed6565b818152846020838601011115610fa0575f80fd5b816020850160208301375f918101602001919091529392505050565b5f805f60608486031215610fce575f80fd5b83359250610fde60208501610e81565b9150604084013567ffffffffffffffff811115610ff9575f80fd5b61100586828701610f6a565b9150509250925092565b5f8060408385031215611020575f80fd5b61102983610e81565b9150602083013567ffffffffffffffff811115611044575f80fd5b61105085828601610f6a565b9150509250929050565b5f81518084528060208401602086015e5f6020828601015260207fffffffffffffffffffffffffffffffffffffffffffffffffffffffffffffffe0601f83011685010191505092915050565b602081525f6110b8602083018461105a565b9392505050565b7fff00000000000000000000000000000000000000000000000000000000000000881681525f602060e060208401526110fb60e084018a61105a565b838103604085015261110d818a61105a565b6060850189905273ffffffffffffffffffffffffffffffffffffffff8816608086015260a0850187905284810360c0860152855180825260208088019350909101905f5b8181101561116d57835183529284019291840191600101611151565b50909c9b505050505050505050505050565b5f6020828403121561118f575f80fd5b5035919050565b7f4e487b71000000000000000000000000000000000000000000000000000000005f52602160045260245ffd5b73ffffffffffffffffffffffffffffffffffffffff85168152836020820152608060408201525f6111f7608083018561105a565b90506002831061122e577f4e487b71000000000000000000000000000000000000000000000000000000005f52602160045260245ffd5b82606083015295945050505050565b80518015158114610ea4575f80fd5b5f806040838503121561125d575f80fd5b6112668361123d565b9150602083015167ffffffffffffffff811115611281575f80fd5b8301601f81018513611291575f80fd5b805161129f610f8782610f25565b8181528660208385010111156112b3575f80fd5b8160208401602083015e5f602083830101528093505050509250929050565b5f602082840312156112e2575f80fd5b6110b88261123d565b600181811c908216806112ff57607f821691505b602082108103611336577f4e487b71000000000000000000000000000000000000000000000000000000005f52602260045260245ffd5b5091905056fea164736f6c6343000819000a8b73c3c69bb8fe3d512ecc4cf759cc79239f7b179b0ffacaa9a75d522b39400f","linkReferences":{}},"methodIdentifiers":{"deputy()":"f1c9eed7","deputyAuthMessageTypehash()":"cf2e2379","eip712Domain()":"84b0196e","foundationSafe()":"8851bfbd","guardianSafe()":"9d786a02","pause(bytes32,address,bytes)":"142b53c9","pauseMessageTypehash()":"da931fe4","setDeputy(address,bytes)":"183b708b","superchainConfig()":"35e80ab3","usedNonces(bytes32)":"feb61724","version()":"54fd4d50"},"storageLayout":{"storage":[{"astId":47452,"contract":"src/safe/DeputyPauseModule.sol:DeputyPauseModule","label":"_nameFallback","offset":0,"slot":"0","type":"t_string_storage"},{"astId":47454,"contract":"src/safe/DeputyPauseModule.sol:DeputyPauseModule","label":"_versionFallback","offset":0,"slot":"1","type":"t_string_storage"},{"astId":83712,"contract":"src/safe/DeputyPauseModule.sol:DeputyPauseModule","label":"deputy","offset":0,"slot":"2","type":"t_address"},{"astId":83717,"contract":"src/safe/DeputyPauseModule.sol:DeputyPauseModule","label":"usedNonces","offset":0,"slot":"3","type":"t_mapping(t_bytes32,t_bool)"}],"types":{"t_address":{"encoding":"inplace","label":"address","numberOfBytes":"20"},"t_bool":{"encoding":"inplace","label":"bool","numberOfBytes":"1"},"t_bytes32":{"encoding":"inplace","label":"bytes32","numberOfBytes":"32"},"t_mapping(t_bytes32,t_bool)":{"encoding":"mapping","key":"t_bytes32","label":"mapping(bytes32 => bool)","numberOfBytes":"32","value":"t_bool"},"t_string_storage":{"encoding":"bytes","label":"string","numberOfBytes":"32"}}},"userdoc":{"version":1,"kind":"user","methods":{"deputy()":{"notice":"Address of the Deputy account."},"deputyAuthMessageTypehash()":{"notice":"Getter function for the DeputyAuth message typehash."},"foundationSafe()":{"notice":"Getter function for the Foundation Safe address."},"guardianSafe()":{"notice":"Getter function for the Guardian Safe address."},"pause(bytes32,address,bytes)":{"notice":"Calls the Guardian Safe's `execTransactionFromModuleReturnData()` function with         the arguments necessary to call `pause()` on the SuperchainConfig.         Front-running this function is completely safe, it'll pause either way."},"pauseMessageTypehash()":{"notice":"Getter function for the Pause message typehash."},"setDeputy(address,bytes)":{"notice":"Sets the deputy address."},"superchainConfig()":{"notice":"Getter function for the SuperchainConfig address."},"usedNonces(bytes32)":{"notice":"Used nonces."},"version()":{"notice":"Semantic version."}},"events":{"DeputySet(address)":{"notice":"Event emitted when the deputy address is set."},"PauseTriggered(address,bytes32,address)":{"notice":"Event emitted when the pause is triggered."}},"errors":{"DeputyPauseModule_ExecutionFailed(string)":[{"notice":"Error message for failed transaction execution."}],"DeputyPauseModule_InvalidDeputy()":[{"notice":"Error message for deputy being invalid."}],"DeputyPauseModule_NonceAlreadyUsed()":[{"notice":"Error message for nonce reuse."}],"DeputyPauseModule_NotFromSafe()":[{"notice":"Error message for the call not being from the Foundation Safe."}],"DeputyPauseModule_SuperchainNotPaused()":[{"notice":"Error message for the SuperchainConfig not being paused."}],"DeputyPauseModule_Unauthorized()":[{"notice":"Error message for unauthorized calls."}]},"notice":"Safe Module designed to be installed into the Guardian Safe which allows a specific         deputy address to act as the Guardian Safe for the sake of triggering a pause within         the SuperchainConfig contract."},"devdoc":{"version":1,"kind":"dev","methods":{"constructor":{"params":{"_deputy":"Address of the deputy account.","_deputySignature":"Signature from the deputy verifying that the account is an EOA.","_foundationSafe":"Address of the Foundation Safe.","_guardianSafe":"Address of the Guardian Safe.","_superchainConfig":"Address of the SuperchainConfig contract."}},"deputyAuthMessageTypehash()":{"returns":{"deputyAuthMessageTypehash_":"DeputyAuth message typehash."}},"eip712Domain()":{"details":"See {IERC-5267}."},"foundationSafe()":{"returns":{"foundationSafe_":"Foundation Safe address."}},"guardianSafe()":{"returns":{"guardianSafe_":"Guardian Safe address."}},"pause(bytes32,address,bytes)":{"params":{"_identifier":"The identifier to pause in the SuperchainConfig.","_nonce":"Signature nonce.","_signature":"ECDSA signature."}},"pauseMessageTypehash()":{"returns":{"pauseMessageTypehash_":"Pause message typehash."}},"setDeputy(address,bytes)":{"params":{"_deputy":"Deputy address.","_deputySignature":"Deputy signature."}},"superchainConfig()":{"returns":{"superchainConfig_":"SuperchainConfig address."}}},"events":{"EIP712DomainChanged()":{"details":"MAY be emitted to signal that the domain could have changed."}},"errors":{"ECDSAInvalidSignature()":[{"details":"The signature derives the `address(0)`."}],"ECDSAInvalidSignatureLength(uint256)":[{"details":"The signature has an invalid length."}],"ECDSAInvalidSignatureS(bytes32)":[{"details":"The signature has an S value that is in the upper half order."}]},"title":"DeputyPauseModule"},"id":192}