{"abi":[{"type":"function","name":"db","inputs":[{"name":"","type":"bytes32","internalType":"bytes32"}],"outputs":[{"name":"","type":"bytes32","internalType":"bytes32"}],"stateMutability":"view"},{"type":"function","name":"get","inputs":[{"name":"_key","type":"bytes32","internalType":"bytes32"}],"outputs":[{"name":"","type":"bytes32","internalType":"bytes32"}],"stateMutability":"view"},{"type":"function","name":"set","inputs":[{"name":"_key","type":"bytes32","internalType":"bytes32"},{"name":"_value","type":"bytes32","internalType":"bytes32"}],"outputs":[],"stateMutability":"payable"}],"bytecode":{"object":"0x6080604052348015600e575f80fd5b5060f38061001b5f395ff3fe608060405260043610602f575f3560e01c80638eaa6ac0146033578063ecf265bc14606c578063f71f7a25146093575b5f80fd5b348015603d575f80fd5b50605a604936600460b1565b5f9081526020819052604090205490565b60405190815260200160405180910390f35b3480156076575f80fd5b50605a608236600460b1565b5f6020819052908152604090205481565b60af609e36600460c7565b5f9182526020829052604090912055565b005b5f6020828403121560c0575f80fd5b5035919050565b5f806040838503121560d7575f80fd5b5050803592602090910135915056fea164736f6c6343000819000a","linkReferences":{}},"methodIdentifiers":{"db(bytes32)":"ecf265bc","get(bytes32)":"8eaa6ac0","set(bytes32,bytes32)":"f71f7a25"},"storageLayout":{"storage":[{"astId":95952,"contract":"test/mocks/SimpleStorage.sol:SimpleStorage","label":"db","offset":0,"slot":"0","type":"t_mapping(t_bytes32,t_bytes32)"}],"types":{"t_bytes32":{"encoding":"inplace","label":"bytes32","numberOfBytes":"32"},"t_mapping(t_bytes32,t_bytes32)":{"encoding":"mapping","key":"t_bytes32","label":"mapping(bytes32 => bytes32)","numberOfBytes":"32","value":"t_bytes32"}}},"userdoc":{"version":1,"kind":"user"},"devdoc":{"version":1,"kind":"dev"},"id":227}