{"abi":[{"type":"constructor","inputs":[],"stateMutability":"nonpayable"},{"type":"fallback","stateMutability":"nonpayable"},{"type":"receive","stateMutability":"payable"},{"type":"function","name":"VERSION","inputs":[],"outputs":[{"name":"","type":"string","internalType":"string"}],"stateMutability":"view"},{"type":"function","name":"addOwnerWithThreshold","inputs":[{"name":"owner","type":"address","internalType":"address"},{"name":"_threshold","type":"uint256","internalType":"uint256"}],"outputs":[],"stateMutability":"nonpayable"},{"type":"function","name":"approveHash","inputs":[{"name":"hashToApprove","type":"bytes32","internalType":"bytes32"}],"outputs":[],"stateMutability":"nonpayable"},{"type":"function","name":"approvedHashes","inputs":[{"name":"","type":"address","internalType":"address"},{"name":"","type":"bytes32","internalType":"bytes32"}],"outputs":[{"name":"","type":"uint256","internalType":"uint256"}],"stateMutability":"view"},{"type":"function","name":"changeThreshold","inputs":[{"name":"_threshold","type":"uint256","internalType":"uint256"}],"outputs":[],"stateMutability":"nonpayable"},{"type":"function","name":"checkNSignatures","inputs":[{"name":"dataHash","type":"bytes32","internalType":"bytes32"},{"name":"data","type":"bytes","internalType":"bytes"},{"name":"signatures","type":"bytes","internalType":"bytes"},{"name":"requiredSignatures","type":"uint256","internalType":"uint256"}],"outputs":[],"stateMutability":"view"},{"type":"function","name":"checkSignatures","inputs":[{"name":"dataHash","type":"bytes32","internalType":"bytes32"},{"name":"data","type":"bytes","internalType":"bytes"},{"name":"signatures","type":"bytes","internalType":"bytes"}],"outputs":[],"stateMutability":"view"},{"type":"function","name":"disableModule","inputs":[{"name":"prevModule","type":"address","internalType":"address"},{"name":"module","type":"address","internalType":"address"}],"outputs":[],"stateMutability":"nonpayable"},{"type":"function","name":"domainSeparator","inputs":[],"outputs":[{"name":"","type":"bytes32","internalType":"bytes32"}],"stateMutability":"view"},{"type":"function","name":"enableModule","inputs":[{"name":"module","type":"address","internalType":"address"}],"outputs":[],"stateMutability":"nonpayable"},{"type":"function","name":"encodeTransactionData","inputs":[{"name":"to","type":"address","internalType":"address"},{"name":"value","type":"uint256","internalType":"uint256"},{"name":"data","type":"bytes","internalType":"bytes"},{"name":"operation","type":"uint8","internalType":"enum Enum.Operation"},{"name":"safeTxGas","type":"uint256","internalType":"uint256"},{"name":"baseGas","type":"uint256","internalType":"uint256"},{"name":"gasPrice","type":"uint256","internalType":"uint256"},{"name":"gasToken","type":"address","internalType":"address"},{"name":"refundReceiver","type":"address","internalType":"address"},{"name":"_nonce","type":"uint256","internalType":"uint256"}],"outputs":[{"name":"","type":"bytes","internalType":"bytes"}],"stateMutability":"view"},{"type":"function","name":"execTransaction","inputs":[{"name":"to","type":"address","internalType":"address"},{"name":"value","type":"uint256","internalType":"uint256"},{"name":"data","type":"bytes","internalType":"bytes"},{"name":"operation","type":"uint8","internalType":"enum Enum.Operation"},{"name":"safeTxGas","type":"uint256","internalType":"uint256"},{"name":"baseGas","type":"uint256","internalType":"uint256"},{"name":"gasPrice","type":"uint256","internalType":"uint256"},{"name":"gasToken","type":"address","internalType":"address"},{"name":"refundReceiver","type":"address","internalType":"address payable"},{"name":"signatures","type":"bytes","internalType":"bytes"}],"outputs":[{"name":"success","type":"bool","internalType":"bool"}],"stateMutability":"payable"},{"type":"function","name":"execTransactionFromModule","inputs":[{"name":"to","type":"address","internalType":"address"},{"name":"value","type":"uint256","internalType":"uint256"},{"name":"data","type":"bytes","internalType":"bytes"},{"name":"operation","type":"uint8","internalType":"enum Enum.Operation"}],"outputs":[{"name":"success","type":"bool","internalType":"bool"}],"stateMutability":"nonpayable"},{"type":"function","name":"execTransactionFromModuleReturnData","inputs":[{"name":"to","type":"address","internalType":"address"},{"name":"value","type":"uint256","internalType":"uint256"},{"name":"data","type":"bytes","internalType":"bytes"},{"name":"operation","type":"uint8","internalType":"enum Enum.Operation"}],"outputs":[{"name":"success","type":"bool","internalType":"bool"},{"name":"returnData","type":"bytes","internalType":"bytes"}],"stateMutability":"nonpayable"},{"type":"function","name":"getChainId","inputs":[],"outputs":[{"name":"","type":"uint256","internalType":"uint256"}],"stateMutability":"view"},{"type":"function","name":"getModulesPaginated","inputs":[{"name":"start","type":"address","internalType":"address"},{"name":"pageSize","type":"uint256","internalType":"uint256"}],"outputs":[{"name":"array","type":"address[]","internalType":"address[]"},{"name":"next","type":"address","internalType":"address"}],"stateMutability":"view"},{"type":"function","name":"getOwners","inputs":[],"outputs":[{"name":"","type":"address[]","internalType":"address[]"}],"stateMutability":"view"},{"type":"function","name":"getStorageAt","inputs":[{"name":"offset","type":"uint256","internalType":"uint256"},{"name":"length","type":"uint256","internalType":"uint256"}],"outputs":[{"name":"","type":"bytes","internalType":"bytes"}],"stateMutability":"view"},{"type":"function","name":"getThreshold","inputs":[],"outputs":[{"name":"","type":"uint256","internalType":"uint256"}],"stateMutability":"view"},{"type":"function","name":"getTransactionHash","inputs":[{"name":"to","type":"address","internalType":"address"},{"name":"value","type":"uint256","internalType":"uint256"},{"name":"data","type":"bytes","internalType":"bytes"},{"name":"operation","type":"uint8","internalType":"enum Enum.Operation"},{"name":"safeTxGas","type":"uint256","internalType":"uint256"},{"name":"baseGas","type":"uint256","internalType":"uint256"},{"name":"gasPrice","type":"uint256","internalType":"uint256"},{"name":"gasToken","type":"address","internalType":"address"},{"name":"refundReceiver","type":"address","internalType":"address"},{"name":"_nonce","type":"uint256","internalType":"uint256"}],"outputs":[{"name":"","type":"bytes32","internalType":"bytes32"}],"stateMutability":"view"},{"type":"function","name":"isModuleEnabled","inputs":[{"name":"module","type":"address","internalType":"address"}],"outputs":[{"name":"","type":"bool","internalType":"bool"}],"stateMutability":"view"},{"type":"function","name":"isOwner","inputs":[{"name":"owner","type":"address","internalType":"address"}],"outputs":[{"name":"","type":"bool","internalType":"bool"}],"stateMutability":"view"},{"type":"function","name":"nonce","inputs":[],"outputs":[{"name":"","type":"uint256","internalType":"uint256"}],"stateMutability":"view"},{"type":"function","name":"removeOwner","inputs":[{"name":"prevOwner","type":"address","internalType":"address"},{"name":"owner","type":"address","internalType":"address"},{"name":"_threshold","type":"uint256","internalType":"uint256"}],"outputs":[],"stateMutability":"nonpayable"},{"type":"function","name":"requiredTxGas","inputs":[{"name":"to","type":"address","internalType":"address"},{"name":"value","type":"uint256","internalType":"uint256"},{"name":"data","type":"bytes","internalType":"bytes"},{"name":"operation","type":"uint8","internalType":"enum Enum.Operation"}],"outputs":[{"name":"","type":"uint256","internalType":"uint256"}],"stateMutability":"nonpayable"},{"type":"function","name":"setFallbackHandler","inputs":[{"name":"handler","type":"address","internalType":"address"}],"outputs":[],"stateMutability":"nonpayable"},{"type":"function","name":"setGuard","inputs":[{"name":"guard","type":"address","internalType":"address"}],"outputs":[],"stateMutability":"nonpayable"},{"type":"function","name":"setup","inputs":[{"name":"_owners","type":"address[]","internalType":"address[]"},{"name":"_threshold","type":"uint256","internalType":"uint256"},{"name":"to","type":"address","internalType":"address"},{"name":"data","type":"bytes","internalType":"bytes"},{"name":"fallbackHandler","type":"address","internalType":"address"},{"name":"paymentToken","type":"address","internalType":"address"},{"name":"payment","type":"uint256","internalType":"uint256"},{"name":"paymentReceiver","type":"address","internalType":"address payable"}],"outputs":[],"stateMutability":"nonpayable"},{"type":"function","name":"signedMessages","inputs":[{"name":"","type":"bytes32","internalType":"bytes32"}],"outputs":[{"name":"","type":"uint256","internalType":"uint256"}],"stateMutability":"view"},{"type":"function","name":"simulateAndRevert","inputs":[{"name":"targetContract","type":"address","internalType":"address"},{"name":"calldataPayload","type":"bytes","internalType":"bytes"}],"outputs":[],"stateMutability":"nonpayable"},{"type":"function","name":"swapOwner","inputs":[{"name":"prevOwner","type":"address","internalType":"address"},{"name":"oldOwner","type":"address","internalType":"address"},{"name":"newOwner","type":"address","internalType":"address"}],"outputs":[],"stateMutability":"nonpayable"},{"type":"event","name":"AddedOwner","inputs":[{"name":"owner","type":"address","indexed":false,"internalType":"address"}],"anonymous":false},{"type":"event","name":"ApproveHash","inputs":[{"name":"approvedHash","type":"bytes32","indexed":true,"internalType":"bytes32"},{"name":"owner","type":"address","indexed":true,"internalType":"address"}],"anonymous":false},{"type":"event","name":"ChangedFallbackHandler","inputs":[{"name":"handler","type":"address","indexed":false,"internalType":"address"}],"anonymous":false},{"type":"event","name":"ChangedGuard","inputs":[{"name":"guard","type":"address","indexed":false,"internalType":"address"}],"anonymous":false},{"type":"event","name":"ChangedThreshold","inputs":[{"name":"threshold","type":"uint256","indexed":false,"internalType":"uint256"}],"anonymous":false},{"type":"event","name":"DisabledModule","inputs":[{"name":"module","type":"address","indexed":false,"internalType":"address"}],"anonymous":false},{"type":"event","name":"EnabledModule","inputs":[{"name":"module","type":"address","indexed":false,"internalType":"address"}],"anonymous":false},{"type":"event","name":"ExecutionFailure","inputs":[{"name":"txHash","type":"bytes32","indexed":false,"internalType":"bytes32"},{"name":"payment","type":"uint256","indexed":false,"internalType":"uint256"}],"anonymous":false},{"type":"event","name":"ExecutionFromModuleFailure","inputs":[{"name":"module","type":"address","indexed":true,"internalType":"address"}],"anonymous":false},{"type":"event","name":"ExecutionFromModuleSuccess","inputs":[{"name":"module","type":"address","indexed":true,"internalType":"address"}],"anonymous":false},{"type":"event","name":"ExecutionSuccess","inputs":[{"name":"txHash","type":"bytes32","indexed":false,"internalType":"bytes32"},{"name":"payment","type":"uint256","indexed":false,"internalType":"uint256"}],"anonymous":false},{"type":"event","name":"RemovedOwner","inputs":[{"name":"owner","type":"address","indexed":false,"internalType":"address"}],"anonymous":false},{"type":"event","name":"SafeReceived","inputs":[{"name":"sender","type":"address","indexed":true,"internalType":"address"},{"name":"value","type":"uint256","indexed":false,"internalType":"uint256"}],"anonymous":false},{"type":"event","name":"SafeSetup","inputs":[{"name":"initiator","type":"address","indexed":true,"internalType":"address"},{"name":"owners","type":"address[]","indexed":false,"internalType":"address[]"},{"name":"threshold","type":"uint256","indexed":false,"internalType":"uint256"},{"name":"initializer","type":"address","indexed":false,"internalType":"address"},{"name":"fallbackHandler","type":"address","indexed":false,"internalType":"address"}],"anonymous":false},{"type":"event","name":"SignMsg","inputs":[{"name":"msgHash","type":"bytes32","indexed":true,"internalType":"bytes32"}],"anonymous":false}],"bytecode":{"object":"0x608060405234801561001057600080fd5b506001600455613fb6806100256000396000f3fe6080604052600436106101dc5760003560e01c8063affed0e011610102578063e19a9dd911610095578063f08a032311610064578063f08a032314610620578063f698da2514610640578063f8dc5dd9146106a7578063ffa1ad74146106c757610218565b8063e19a9dd9146105ab578063e318b52b146105cb578063e75235b8146105eb578063e86637db1461060057610218565b8063cc2f8452116100d1578063cc2f84521461051d578063d4d9bdcd1461054b578063d8d11f781461056b578063e009cfde1461058b57610218565b8063affed0e0146104a7578063b4faba09146104bd578063b63e800d146104dd578063c4ca3a9c146104fd57610218565b80635624b25b1161017a5780636a761202116101495780636a7612021461041a5780637d8329741461042d578063934f3a1114610465578063a0e67e2b1461048557610218565b80635624b25b146103805780635ae6bd37146103ad578063610b5925146103da578063694e80c3146103fa57610218565b80632f54bf6e116101b65780632f54bf6e146102f55780633408e47014610315578063468721a7146103325780635229073f1461035257610218565b80630d582f131461027e57806312fb68e0146102a05780632d9ad53d146102c057610218565b366102185760405134815233907f3d0ce9bfc3ed7d6862dbb28b2dea94561fe714a1b4d019aa8af39730d1ad7c3d9060200160405180910390a2005b34801561022457600080fd5b507f6c9a6c4a39284e37ed1cf53d337577d14212a4870fb976a4366c693b939918d580548061024f57005b36600080373360601b365260008060143601600080855af190503d6000803e80610278573d6000fd5b503d6000f35b34801561028a57600080fd5b5061029e6102993660046132ce565b610710565b005b3480156102ac57600080fd5b5061029e6102bb3660046133d4565b610966565b3480156102cc57600080fd5b506102e06102db366004613449565b610fbb565b60405190151581526020015b60405180910390f35b34801561030157600080fd5b506102e0610310366004613449565b611010565b34801561032157600080fd5b50465b6040519081526020016102ec565b34801561033e57600080fd5b506102e061034d366004613475565b611062565b34801561035e57600080fd5b5061037261036d366004613475565b611178565b6040516102ec92919061354a565b34801561038c57600080fd5b506103a061039b366004613565565b6111ae565b6040516102ec9190613587565b3480156103b957600080fd5b506103246103c836600461359a565b60076020526000908152604090205481565b3480156103e657600080fd5b5061029e6103f5366004613449565b611234565b34801561040657600080fd5b5061029e61041536600461359a565b611426565b6102e06104283660046135fc565b61153a565b34801561043957600080fd5b506103246104483660046132ce565b600860209081526000928352604080842090915290825290205481565b34801561047157600080fd5b5061029e6104803660046136d5565b611934565b34801561049157600080fd5b5061049a6119b0565b6040516102ec9190613793565b3480156104b357600080fd5b5061032460055481565b3480156104c957600080fd5b5061029e6104d83660046137a6565b611ac8565b3480156104e957600080fd5b5061029e6104f83660046137f6565b611aeb565b34801561050957600080fd5b506103246105183660046138eb565b611c26565b34801561052957600080fd5b5061053d6105383660046132ce565b611cf8565b6040516102ec92919061395c565b34801561055757600080fd5b5061029e61056636600461359a565b611e26565b34801561057757600080fd5b50610324610586366004613994565b611efa565b34801561059757600080fd5b5061029e6105a6366004613a55565b611f27565b3480156105b757600080fd5b5061029e6105c6366004613449565b612106565b3480156105d757600080fd5b5061029e6105e6366004613a8e565b612178565b3480156105f757600080fd5b50600454610324565b34801561060c57600080fd5b506103a061061b366004613994565b612504565b34801561062c57600080fd5b5061029e61063b366004613449565b61269d565b34801561064c57600080fd5b5061032460007f47e79534a245952e8b16893a336b85a3d9ea9fa8c573f3d803afb92a794692184660408051602081019390935282015230606082015260800160405160208183030381529060405280519060200120905090565b3480156106b357600080fd5b5061029e6106c2366004613ad9565b612713565b3480156106d357600080fd5b506103a06040518060400160405280600581526020017f312e332e3000000000000000000000000000000000000000000000000000000081525081565b6107186129a5565b73ffffffffffffffffffffffffffffffffffffffff821615801590610754575073ffffffffffffffffffffffffffffffffffffffff8216600114155b8015610776575073ffffffffffffffffffffffffffffffffffffffff82163014155b6107e1576040517f08c379a000000000000000000000000000000000000000000000000000000000815260206004820152600560248201527f475332303300000000000000000000000000000000000000000000000000000060448201526064015b60405180910390fd5b73ffffffffffffffffffffffffffffffffffffffff8281166000908152600260205260409020541615610870576040517f08c379a000000000000000000000000000000000000000000000000000000000815260206004820152600560248201527f475332303400000000000000000000000000000000000000000000000000000060448201526064016107d8565b60026020527fe90b7bceb6e7df5418fb78d8ee546e97c83a08bbccc01a0644d599ccd2a7c2e0805473ffffffffffffffffffffffffffffffffffffffff8481166000818152604081208054939094167fffffffffffffffffffffffff00000000000000000000000000000000000000009384161790935560018352835490911617909155600380549161090283613b49565b909155505060405173ffffffffffffffffffffffffffffffffffffffff831681527f9465fa0c962cc76958e6373a993326400c1c94f8be2fe3a952adfa7f60b2ea269060200160405180910390a180600454146109625761096281611426565b5050565b610971816041612a10565b825110156109db576040517f08c379a000000000000000000000000000000000000000000000000000000000815260206004820152600560248201527f475330323000000000000000000000000000000000000000000000000000000060448201526064016107d8565b6000808060008060005b86811015610faf576041818102890160208101516040820151919092015160ff16955090935091506000849003610cbc579193508391610a26876041612a10565b821015610a8f576040517f08c379a000000000000000000000000000000000000000000000000000000000815260206004820152600560248201527f475330323100000000000000000000000000000000000000000000000000000060448201526064016107d8565b8751610a9c836020612a4c565b1115610b04576040517f08c379a000000000000000000000000000000000000000000000000000000000815260206004820152600560248201527f475330323200000000000000000000000000000000000000000000000000000060448201526064016107d8565b602082890181015189519091610b27908390610b21908790612a4c565b90612a4c565b1115610b8f576040517f08c379a000000000000000000000000000000000000000000000000000000000815260206004820152600560248201527f475330323300000000000000000000000000000000000000000000000000000060448201526064016107d8565b6040517f20c13b0b000000000000000000000000000000000000000000000000000000008082528a85016020019173ffffffffffffffffffffffffffffffffffffffff8916906320c13b0b90610beb908f908690600401613b81565b602060405180830381865afa158015610c08573d6000803e3d6000fd5b505050506040513d601f19601f82011682018060405250810190610c2c9190613ba6565b7fffffffff000000000000000000000000000000000000000000000000000000001614610cb5576040517f08c379a000000000000000000000000000000000000000000000000000000000815260206004820152600560248201527f475330323400000000000000000000000000000000000000000000000000000060448201526064016107d8565b5050610eaf565b8360ff16600103610d8a5791935083913373ffffffffffffffffffffffffffffffffffffffff84161480610d1f575073ffffffffffffffffffffffffffffffffffffffff851660009081526008602090815260408083208d845290915290205415155b610d85576040517f08c379a000000000000000000000000000000000000000000000000000000000815260206004820152600560248201527f475330323500000000000000000000000000000000000000000000000000000060448201526064016107d8565b610eaf565b601e8460ff161115610e4f576040517f19457468657265756d205369676e6564204d6573736167653a0a3332000000006020820152603c81018b9052600190605c0160405160208183030381529060405280519060200120600486610def9190613be8565b6040805160008152602081018083529390935260ff90911690820152606081018590526080810184905260a0016020604051602081039080840390855afa158015610e3e573d6000803e3d6000fd5b505050602060405103519450610eaf565b6040805160008152602081018083528c905260ff861691810191909152606081018490526080810183905260019060a0016020604051602081039080840390855afa158015610ea2573d6000803e3d6000fd5b5050506020604051035194505b8573ffffffffffffffffffffffffffffffffffffffff168573ffffffffffffffffffffffffffffffffffffffff16118015610f10575073ffffffffffffffffffffffffffffffffffffffff8581166000908152600260205260409020541615155b8015610f33575073ffffffffffffffffffffffffffffffffffffffff8516600114155b610f99576040517f08c379a000000000000000000000000000000000000000000000000000000000815260206004820152600560248201527f475330323600000000000000000000000000000000000000000000000000000060448201526064016107d8565b8495508080610fa790613b49565b9150506109e5565b50505050505050505050565b6000600173ffffffffffffffffffffffffffffffffffffffff83161480159061100a575073ffffffffffffffffffffffffffffffffffffffff8281166000908152600160205260409020541615155b92915050565b600073ffffffffffffffffffffffffffffffffffffffff821660011480159061100a57505073ffffffffffffffffffffffffffffffffffffffff90811660009081526002602052604090205416151590565b60003360011480159061109957503360009081526001602052604090205473ffffffffffffffffffffffffffffffffffffffff1615155b6110ff576040517f08c379a000000000000000000000000000000000000000000000000000000000815260206004820152600560248201527f475331303400000000000000000000000000000000000000000000000000000060448201526064016107d8565b61110c858585855a612a68565b905080156111445760405133907f6895c13664aa4f67288b25d7a21d7aaa34916e355fb9b6fae0a139a9085becb890600090a2611170565b60405133907facd2c8702804128fdb0db2bb49f6d127dd0181c13fd45dbfe16de0930e2bd37590600090a25b949350505050565b6000606061118886868686611062565b915060405160203d0181016040523d81523d6000602083013e8091505094509492505050565b606060006111bd836020613c0b565b67ffffffffffffffff8111156111d5576111d56132fa565b6040519080825280601f01601f1916602001820160405280156111ff576020820181803683370190505b50905060005b8381101561122c57848101546020808302840101528061122481613b49565b915050611205565b509392505050565b61123c6129a5565b73ffffffffffffffffffffffffffffffffffffffff811615801590611278575073ffffffffffffffffffffffffffffffffffffffff8116600114155b6112de576040517f08c379a000000000000000000000000000000000000000000000000000000000815260206004820152600560248201527f475331303100000000000000000000000000000000000000000000000000000060448201526064016107d8565b73ffffffffffffffffffffffffffffffffffffffff818116600090815260016020526040902054161561136d576040517f08c379a000000000000000000000000000000000000000000000000000000000815260206004820152600560248201527f475331303200000000000000000000000000000000000000000000000000000060448201526064016107d8565b600160208181527fcc69885fda6bcc1a4ace058b4a62bf5e179ea78fd58a1ccd71c22cc9b688792f805473ffffffffffffffffffffffffffffffffffffffff858116600081815260408082208054949095167fffffffffffffffffffffffff000000000000000000000000000000000000000094851617909455959095528254168417909155519182527fecdf3a3effea5783a3c4c2140e677577666428d44ed9d474a0b3a4c9943f844091015b60405180910390a150565b61142e6129a5565b60035481111561149a576040517f08c379a000000000000000000000000000000000000000000000000000000000815260206004820152600560248201527f475332303100000000000000000000000000000000000000000000000000000060448201526064016107d8565b6001811015611505576040517f08c379a000000000000000000000000000000000000000000000000000000000815260206004820152600560248201527f475332303200000000000000000000000000000000000000000000000000000060448201526064016107d8565b60048190556040518181527f610f7ff2b304ae8903c3de74c60c6ab1f7d6226b3f52c5161905bb5ad4039c939060200161141b565b60008060006115548e8e8e8e8e8e8e8e8e8e600554612504565b60058054919250600061156683613b49565b909155505080516020820120915061157f828286611934565b5060006115aa7f4a204f620c8c5ccdca3fd54d003badd85ba500436a431f0cbda4f558c93c34c85490565b905073ffffffffffffffffffffffffffffffffffffffff81161561164a578073ffffffffffffffffffffffffffffffffffffffff166375f0bb528f8f8f8f8f8f8f8f8f8f8f336040518d63ffffffff1660e01b81526004016116179c9b9a99989796959493929190613cb2565b600060405180830381600087803b15801561163157600080fd5b505af1158015611645573d6000803e3d6000fd5b505050505b6116766116598a6109c4613dc8565b603f6116668c6040613c0b565b6116709190613de0565b90612aaf565b611682906101f4613dc8565b5a10156116eb576040517f08c379a000000000000000000000000000000000000000000000000000000000815260206004820152600560248201527f475330313000000000000000000000000000000000000000000000000000000060448201526064016107d8565b60005a905061175c8f8f8f8f8080601f016020809104026020016040519081016040528093929190818152602001838380828437600081840152601f19601f820116905080830192505050505050508e8c600014611749578e612a68565b6109c45a6117579190613e1b565b612a68565b93506117695a8290612ac6565b9050838061177657508915155b8061178057508715155b6117e6576040517f08c379a000000000000000000000000000000000000000000000000000000000815260206004820152600560248201527f475330313300000000000000000000000000000000000000000000000000000060448201526064016107d8565b600088156117fe576117fb828b8b8b8b612ae1565b90505b84156118425760408051858152602081018390527f442e715f626346e8c54381002da614f62bee8d27386535b2521ec8540898556e910160405180910390a161187c565b60408051858152602081018390527f23428b18acfb3ea64b08dc0c1d296ea9c09702c09083ca5272e64d115b687d23910160405180910390a15b505073ffffffffffffffffffffffffffffffffffffffff811615611923576040517f9327136800000000000000000000000000000000000000000000000000000000815260048101839052831515602482015273ffffffffffffffffffffffffffffffffffffffff821690639327136890604401600060405180830381600087803b15801561190a57600080fd5b505af115801561191e573d6000803e3d6000fd5b505050505b50509b9a5050505050505050505050565b6004548061199e576040517f08c379a000000000000000000000000000000000000000000000000000000000815260206004820152600560248201527f475330303100000000000000000000000000000000000000000000000000000060448201526064016107d8565b6119aa84848484610966565b50505050565b6060600060035467ffffffffffffffff8111156119cf576119cf6132fa565b6040519080825280602002602001820160405280156119f8578160200160208202803683370190505b506001600090815260026020527fe90b7bceb6e7df5418fb78d8ee546e97c83a08bbccc01a0644d599ccd2a7c2e0549192509073ffffffffffffffffffffffffffffffffffffffff165b73ffffffffffffffffffffffffffffffffffffffff8116600114611ac05780838381518110611a7357611a73613e32565b73ffffffffffffffffffffffffffffffffffffffff928316602091820292909201810191909152918116600090815260029092526040909120541681611ab881613b49565b925050611a42565b509092915050565b600080825160208401855af480600052503d6020523d600060403e60403d016000fd5b611b298a8a808060200260200160405190810160405280939291908181526020018383602002808284376000920191909152508c9250612c72915050565b73ffffffffffffffffffffffffffffffffffffffff841615611b6d57611b6d847f6c9a6c4a39284e37ed1cf53d337577d14212a4870fb976a4366c693b939918d555565b611bad8787878080601f01602080910402602001604051908101604052809392919081815260200183838082843760009201919091525061303f92505050565b8115611bc457611bc282600060018685612ae1565b505b3373ffffffffffffffffffffffffffffffffffffffff167f141df868a6331af528e38c83b7aa03edc19be66e37ae67f9285bf4f8e3c6a1a88b8b8b8b89604051611c12959493929190613e61565b60405180910390a250505050505050505050565b6000805a9050611c6f878787878080601f01602080910402602001604051908101604052809392919081815260200183838082843760009201919091525089925050505a612a68565b611c7857600080fd5b60005a611c859083613e1b565b905080604051602001611c9a91815260200190565b604080517fffffffffffffffffffffffffffffffffffffffffffffffffffffffffffffffe0818403018152908290527f08c379a00000000000000000000000000000000000000000000000000000000082526107d891600401613587565b606060008267ffffffffffffffff811115611d1557611d156132fa565b604051908082528060200260200182016040528015611d3e578160200160208202803683370190505b5073ffffffffffffffffffffffffffffffffffffffff80861660009081526001602052604081205492945091165b73ffffffffffffffffffffffffffffffffffffffff811615801590611da8575073ffffffffffffffffffffffffffffffffffffffff8116600114155b8015611db357508482105b15611e185780848381518110611dcb57611dcb613e32565b73ffffffffffffffffffffffffffffffffffffffff928316602091820292909201810191909152918116600090815260019092526040909120541681611e1081613b49565b925050611d6c565b908352919491935090915050565b3360009081526002602052604090205473ffffffffffffffffffffffffffffffffffffffff16611eb2576040517f08c379a000000000000000000000000000000000000000000000000000000000815260206004820152600560248201527f475330333000000000000000000000000000000000000000000000000000000060448201526064016107d8565b336000818152600860209081526040808320858452909152808220600190555183917ff2a0eb156472d1440255b0d7c1e19cc07115d1051fe605b0dce69acfec884d9c91a350565b6000611f0f8c8c8c8c8c8c8c8c8c8c8c612504565b8051906020012090509b9a5050505050505050505050565b611f2f6129a5565b73ffffffffffffffffffffffffffffffffffffffff811615801590611f6b575073ffffffffffffffffffffffffffffffffffffffff8116600114155b611fd1576040517f08c379a000000000000000000000000000000000000000000000000000000000815260206004820152600560248201527f475331303100000000000000000000000000000000000000000000000000000060448201526064016107d8565b73ffffffffffffffffffffffffffffffffffffffff828116600090815260016020526040902054811690821614612064576040517f08c379a000000000000000000000000000000000000000000000000000000000815260206004820152600560248201527f475331303300000000000000000000000000000000000000000000000000000060448201526064016107d8565b73ffffffffffffffffffffffffffffffffffffffff8181166000818152600160209081526040808320805488871685528285208054919097167fffffffffffffffffffffffff00000000000000000000000000000000000000009182161790965592849052825490941690915591519081527faab4fa2b463f581b2b32cb3b7e3b704b9ce37cc209b5fb4d77e593ace405427691015b60405180910390a15050565b61210e6129a5565b7f4a204f620c8c5ccdca3fd54d003badd85ba500436a431f0cbda4f558c93c34c881815560405173ffffffffffffffffffffffffffffffffffffffff831681527f1151116914515bc0891ff9047a6cb32cf902546f83066499bcf8ba33d2353fa2906020016120fa565b6121806129a5565b73ffffffffffffffffffffffffffffffffffffffff8116158015906121bc575073ffffffffffffffffffffffffffffffffffffffff8116600114155b80156121de575073ffffffffffffffffffffffffffffffffffffffff81163014155b612244576040517f08c379a000000000000000000000000000000000000000000000000000000000815260206004820152600560248201527f475332303300000000000000000000000000000000000000000000000000000060448201526064016107d8565b73ffffffffffffffffffffffffffffffffffffffff81811660009081526002602052604090205416156122d3576040517f08c379a000000000000000000000000000000000000000000000000000000000815260206004820152600560248201527f475332303400000000000000000000000000000000000000000000000000000060448201526064016107d8565b73ffffffffffffffffffffffffffffffffffffffff82161580159061230f575073ffffffffffffffffffffffffffffffffffffffff8216600114155b612375576040517f08c379a000000000000000000000000000000000000000000000000000000000815260206004820152600560248201527f475332303300000000000000000000000000000000000000000000000000000060448201526064016107d8565b73ffffffffffffffffffffffffffffffffffffffff838116600090815260026020526040902054811690831614612408576040517f08c379a000000000000000000000000000000000000000000000000000000000815260206004820152600560248201527f475332303500000000000000000000000000000000000000000000000000000060448201526064016107d8565b73ffffffffffffffffffffffffffffffffffffffff8281166000818152600260209081526040808320805487871680865283862080549289167fffffffffffffffffffffffff0000000000000000000000000000000000000000938416179055968a1685528285208054821690971790965592849052825490941690915591519081527ff8d49fc529812e9a7c5c50e69c20f0dccc0db8fa95c98bc58cc9a4f1c1299eaf910160405180910390a160405173ffffffffffffffffffffffffffffffffffffffff821681527f9465fa0c962cc76958e6373a993326400c1c94f8be2fe3a952adfa7f60b2ea269060200160405180910390a1505050565b606060007fbb8310d486368db6bd6f849402fdd73ad53d316b5a4b2644ad6efe0f941286d860001b8d8d8d8d60405161253e929190613ee7565b604051908190038120612564949392918e908e908e908e908e908e908e90602001613ef7565b604080517fffffffffffffffffffffffffffffffffffffffffffffffffffffffffffffffe0818403018152919052805160209091012090507f19000000000000000000000000000000000000000000000000000000000000007f010000000000000000000000000000000000000000000000000000000000000061263860007f47e79534a245952e8b16893a336b85a3d9ea9fa8c573f3d803afb92a794692184660408051602081019390935282015230606082015260800160405160208183030381529060405280519060200120905090565b6040517fff0000000000000000000000000000000000000000000000000000000000000093841660208201529290911660218301526022820152604281018290526062016040516020818303038152906040529150509b9a5050505050505050505050565b6126a56129a5565b6126cd817f6c9a6c4a39284e37ed1cf53d337577d14212a4870fb976a4366c693b939918d555565b60405173ffffffffffffffffffffffffffffffffffffffff821681527f5ac6c46c93c8d0e53714ba3b53db3e7c046da994313d7ed0d192028bc7c228b09060200161141b565b61271b6129a5565b80600160035461272b9190613e1b565b1015612793576040517f08c379a000000000000000000000000000000000000000000000000000000000815260206004820152600560248201527f475332303100000000000000000000000000000000000000000000000000000060448201526064016107d8565b73ffffffffffffffffffffffffffffffffffffffff8216158015906127cf575073ffffffffffffffffffffffffffffffffffffffff8216600114155b612835576040517f08c379a000000000000000000000000000000000000000000000000000000000815260206004820152600560248201527f475332303300000000000000000000000000000000000000000000000000000060448201526064016107d8565b73ffffffffffffffffffffffffffffffffffffffff8381166000908152600260205260409020548116908316146128c8576040517f08c379a000000000000000000000000000000000000000000000000000000000815260206004820152600560248201527f475332303500000000000000000000000000000000000000000000000000000060448201526064016107d8565b73ffffffffffffffffffffffffffffffffffffffff828116600081815260026020526040808220805488861684529183208054929095167fffffffffffffffffffffffff0000000000000000000000000000000000000000928316179094559181528254909116909155600380549161294083613f74565b909155505060405173ffffffffffffffffffffffffffffffffffffffff831681527ff8d49fc529812e9a7c5c50e69c20f0dccc0db8fa95c98bc58cc9a4f1c1299eaf9060200160405180910390a180600454146129a0576129a081611426565b505050565b333014612a0e576040517f08c379a000000000000000000000000000000000000000000000000000000000815260206004820152600560248201527f475330333100000000000000000000000000000000000000000000000000000060448201526064016107d8565b565b600082600003612a225750600061100a565b6000612a2e8385613c0b565b905082612a3b8583613de0565b14612a4557600080fd5b9392505050565b600080612a598385613dc8565b905083811015612a4557600080fd5b60006001836001811115612a7e57612a7e613c48565b03612a96576000808551602087018986f49050612aa6565b600080855160208701888a87f190505b95945050505050565b600081831015612abf5781612a45565b5090919050565b600082821115612ad557600080fd5b60006111708385613e1b565b60008073ffffffffffffffffffffffffffffffffffffffff831615612b065782612b08565b325b905073ffffffffffffffffffffffffffffffffffffffff8416612be757612b473a8610612b35573a612b37565b855b612b418989612a4c565b90612a10565b60405190925073ffffffffffffffffffffffffffffffffffffffff82169083156108fc029084906000818181858888f19350505050612be2576040517f08c379a000000000000000000000000000000000000000000000000000000000815260206004820152600560248201527f475330313100000000000000000000000000000000000000000000000000000060448201526064016107d8565b612c68565b612bf585612b418989612a4c565b9150612c028482846131cf565b612c68576040517f08c379a000000000000000000000000000000000000000000000000000000000815260206004820152600560248201527f475330313200000000000000000000000000000000000000000000000000000060448201526064016107d8565b5095945050505050565b60045415612cdc576040517f08c379a000000000000000000000000000000000000000000000000000000000815260206004820152600560248201527f475332303000000000000000000000000000000000000000000000000000000060448201526064016107d8565b8151811115612d47576040517f08c379a000000000000000000000000000000000000000000000000000000000815260206004820152600560248201527f475332303100000000000000000000000000000000000000000000000000000060448201526064016107d8565b6001811015612db2576040517f08c379a000000000000000000000000000000000000000000000000000000000815260206004820152600560248201527f475332303200000000000000000000000000000000000000000000000000000060448201526064016107d8565b600160005b8351811015612fe7576000848281518110612dd457612dd4613e32565b60200260200101519050600073ffffffffffffffffffffffffffffffffffffffff168173ffffffffffffffffffffffffffffffffffffffff1614158015612e32575073ffffffffffffffffffffffffffffffffffffffff8116600114155b8015612e54575073ffffffffffffffffffffffffffffffffffffffff81163014155b8015612e8c57508073ffffffffffffffffffffffffffffffffffffffff168373ffffffffffffffffffffffffffffffffffffffff1614155b612ef2576040517f08c379a000000000000000000000000000000000000000000000000000000000815260206004820152600560248201527f475332303300000000000000000000000000000000000000000000000000000060448201526064016107d8565b73ffffffffffffffffffffffffffffffffffffffff8181166000908152600260205260409020541615612f81576040517f08c379a000000000000000000000000000000000000000000000000000000000815260206004820152600560248201527f475332303400000000000000000000000000000000000000000000000000000060448201526064016107d8565b73ffffffffffffffffffffffffffffffffffffffff928316600090815260026020526040902080547fffffffffffffffffffffffff0000000000000000000000000000000000000000169382169390931790925580612fdf81613b49565b915050612db7565b5073ffffffffffffffffffffffffffffffffffffffff16600090815260026020526040902080547fffffffffffffffffffffffff00000000000000000000000000000000000000001660011790559051600355600455565b600160008190526020527fcc69885fda6bcc1a4ace058b4a62bf5e179ea78fd58a1ccd71c22cc9b688792f5473ffffffffffffffffffffffffffffffffffffffff16156130e8576040517f08c379a000000000000000000000000000000000000000000000000000000000815260206004820152600560248201527f475331303000000000000000000000000000000000000000000000000000000060448201526064016107d8565b6001600081905260208190527fcc69885fda6bcc1a4ace058b4a62bf5e179ea78fd58a1ccd71c22cc9b688792f80547fffffffffffffffffffffffff000000000000000000000000000000000000000016909117905573ffffffffffffffffffffffffffffffffffffffff821615610962576131698260008360015a612a68565b610962576040517f08c379a000000000000000000000000000000000000000000000000000000000815260206004820152600560248201527f475330303000000000000000000000000000000000000000000000000000000060448201526064016107d8565b6040805173ffffffffffffffffffffffffffffffffffffffff841660248201526044808201849052825180830390910181526064909101909152602080820180517bffffffffffffffffffffffffffffffffffffffffffffffffffffffff167fa9059cbb000000000000000000000000000000000000000000000000000000001781528251600093929184919082896127105a03f13d801561327c5760208114613284576000935061328f565b81935061328f565b600051158215171593505b5050509392505050565b73ffffffffffffffffffffffffffffffffffffffff811681146132bb57600080fd5b50565b80356132c981613299565b919050565b600080604083850312156132e157600080fd5b82356132ec81613299565b946020939093013593505050565b7f4e487b7100000000000000000000000000000000000000000000000000000000600052604160045260246000fd5b600082601f83011261333a57600080fd5b813567ffffffffffffffff80821115613355576133556132fa565b604051601f83017fffffffffffffffffffffffffffffffffffffffffffffffffffffffffffffffe0908116603f0116810190828211818310171561339b5761339b6132fa565b816040528381528660208588010111156133b457600080fd5b836020870160208301376000602085830101528094505050505092915050565b600080600080608085870312156133ea57600080fd5b84359350602085013567ffffffffffffffff8082111561340957600080fd5b61341588838901613329565b9450604087013591508082111561342b57600080fd5b5061343887828801613329565b949793965093946060013593505050565b60006020828403121561345b57600080fd5b8135612a4581613299565b8035600281106132c957600080fd5b6000806000806080858703121561348b57600080fd5b843561349681613299565b935060208501359250604085013567ffffffffffffffff8111156134b957600080fd5b6134c587828801613329565b9250506134d460608601613466565b905092959194509250565b6000815180845260005b81811015613505576020818501810151868301820152016134e9565b81811115613517576000602083870101525b50601f017fffffffffffffffffffffffffffffffffffffffffffffffffffffffffffffffe0169290920160200192915050565b821515815260406020820152600061117060408301846134df565b6000806040838503121561357857600080fd5b50508035926020909101359150565b602081526000612a4560208301846134df565b6000602082840312156135ac57600080fd5b5035919050565b60008083601f8401126135c557600080fd5b50813567ffffffffffffffff8111156135dd57600080fd5b6020830191508360208285010111156135f557600080fd5b9250929050565b60008060008060008060008060008060006101408c8e03121561361e57600080fd5b6136278c6132be565b9a5060208c0135995067ffffffffffffffff8060408e0135111561364a57600080fd5b61365a8e60408f01358f016135b3565b909a50985061366b60608e01613466565b975060808d0135965060a08d0135955060c08d0135945061368e60e08e016132be565b935061369d6101008e016132be565b9250806101208e013511156136b157600080fd5b506136c38d6101208e01358e01613329565b90509295989b509295989b9093969950565b6000806000606084860312156136ea57600080fd5b83359250602084013567ffffffffffffffff8082111561370957600080fd5b61371587838801613329565b9350604086013591508082111561372b57600080fd5b5061373886828701613329565b9150509250925092565b600081518084526020808501945080840160005b8381101561378857815173ffffffffffffffffffffffffffffffffffffffff1687529582019590820190600101613756565b509495945050505050565b602081526000612a456020830184613742565b600080604083850312156137b957600080fd5b82356137c481613299565b9150602083013567ffffffffffffffff8111156137e057600080fd5b6137ec85828601613329565b9150509250929050565b6000806000806000806000806000806101008b8d03121561381657600080fd5b8a3567ffffffffffffffff8082111561382e57600080fd5b818d0191508d601f83011261384257600080fd5b81358181111561385157600080fd5b8e60208260051b850101111561386657600080fd5b60208381019d50909b508d0135995061388160408e016132be565b985060608d013591508082111561389757600080fd5b506138a48d828e016135b3565b90975095506138b7905060808c016132be565b93506138c560a08c016132be565b925060c08b013591506138da60e08c016132be565b90509295989b9194979a5092959850565b60008060008060006080868803121561390357600080fd5b853561390e81613299565b945060208601359350604086013567ffffffffffffffff81111561393157600080fd5b61393d888289016135b3565b9094509250613950905060608701613466565b90509295509295909350565b60408152600061396f6040830185613742565b905073ffffffffffffffffffffffffffffffffffffffff831660208301529392505050565b60008060008060008060008060008060006101408c8e0312156139b657600080fd5b8b356139c181613299565b9a5060208c0135995060408c013567ffffffffffffffff8111156139e457600080fd5b6139f08e828f016135b3565b909a509850613a03905060608d01613466565b965060808c0135955060a08c0135945060c08c0135935060e08c0135613a2881613299565b92506101008c0135613a3981613299565b809250506101208c013590509295989b509295989b9093969950565b60008060408385031215613a6857600080fd5b8235613a7381613299565b91506020830135613a8381613299565b809150509250929050565b600080600060608486031215613aa357600080fd5b8335613aae81613299565b92506020840135613abe81613299565b91506040840135613ace81613299565b809150509250925092565b600080600060608486031215613aee57600080fd5b8335613af981613299565b92506020840135613b0981613299565b929592945050506040919091013590565b7f4e487b7100000000000000000000000000000000000000000000000000000000600052601160045260246000fd5b60007fffffffffffffffffffffffffffffffffffffffffffffffffffffffffffffffff8203613b7a57613b7a613b1a565b5060010190565b604081526000613b9460408301856134df565b8281036020840152612aa681856134df565b600060208284031215613bb857600080fd5b81517fffffffff0000000000000000000000000000000000000000000000000000000081168114612a4557600080fd5b600060ff821660ff841680821015613c0257613c02613b1a565b90039392505050565b6000817fffffffffffffffffffffffffffffffffffffffffffffffffffffffffffffffff0483118215151615613c4357613c43613b1a565b500290565b7f4e487b7100000000000000000000000000000000000000000000000000000000600052602160045260246000fd5b60028110613cae577f4e487b7100000000000000000000000000000000000000000000000000000000600052602160045260246000fd5b9052565b600061016073ffffffffffffffffffffffffffffffffffffffff8f1683528d60208401528060408401528b81840152506101808b8d828501376000818d850101527fffffffffffffffffffffffffffffffffffffffffffffffffffffffffffffffe0601f8d01168301613d28606085018d613c77565b8a60808501528960a08501528860c0850152613d5c60e085018973ffffffffffffffffffffffffffffffffffffffff169052565b73ffffffffffffffffffffffffffffffffffffffff87166101008501528184820301610120850152613d90828201876134df565b92505050613db761014083018473ffffffffffffffffffffffffffffffffffffffff169052565b9d9c50505050505050505050505050565b60008219821115613ddb57613ddb613b1a565b500190565b600082613e16577f4e487b7100000000000000000000000000000000000000000000000000000000600052601260045260246000fd5b500490565b600082821015613e2d57613e2d613b1a565b500390565b7f4e487b7100000000000000000000000000000000000000000000000000000000600052603260045260246000fd5b6080808252810185905260008660a08301825b88811015613eb1578235613e8781613299565b73ffffffffffffffffffffffffffffffffffffffff16825260209283019290910190600101613e74565b506020840196909652505073ffffffffffffffffffffffffffffffffffffffff9283166040820152911660609091015292915050565b8183823760009101908152919050565b6000610160820190508c825273ffffffffffffffffffffffffffffffffffffffff808d1660208401528b60408401528a6060840152613f39608084018b613c77565b60a083019890985260c082019690965260e0810194909452918516610100840152909316610120820152610140019190915295945050505050565b600081613f8357613f83613b1a565b507fffffffffffffffffffffffffffffffffffffffffffffffffffffffffffffffff019056fea164736f6c634300080f000a","linkReferences":{}},"methodIdentifiers":{"VERSION()":"ffa1ad74","addOwnerWithThreshold(address,uint256)":"0d582f13","approveHash(bytes32)":"d4d9bdcd","approvedHashes(address,bytes32)":"7d832974","changeThreshold(uint256)":"694e80c3","checkNSignatures(bytes32,bytes,bytes,uint256)":"12fb68e0","checkSignatures(bytes32,bytes,bytes)":"934f3a11","disableModule(address,address)":"e009cfde","domainSeparator()":"f698da25","enableModule(address)":"610b5925","encodeTransactionData(address,uint256,bytes,uint8,uint256,uint256,uint256,address,address,uint256)":"e86637db","execTransaction(address,uint256,bytes,uint8,uint256,uint256,uint256,address,address,bytes)":"6a761202","execTransactionFromModule(address,uint256,bytes,uint8)":"468721a7","execTransactionFromModuleReturnData(address,uint256,bytes,uint8)":"5229073f","getChainId()":"3408e470","getModulesPaginated(address,uint256)":"cc2f8452","getOwners()":"a0e67e2b","getStorageAt(uint256,uint256)":"5624b25b","getThreshold()":"e75235b8","getTransactionHash(address,uint256,bytes,uint8,uint256,uint256,uint256,address,address,uint256)":"d8d11f78","isModuleEnabled(address)":"2d9ad53d","isOwner(address)":"2f54bf6e","nonce()":"affed0e0","removeOwner(address,address,uint256)":"f8dc5dd9","requiredTxGas(address,uint256,bytes,uint8)":"c4ca3a9c","setFallbackHandler(address)":"f08a0323","setGuard(address)":"e19a9dd9","setup(address[],uint256,address,bytes,address,address,uint256,address)":"b63e800d","signedMessages(bytes32)":"5ae6bd37","simulateAndRevert(address,bytes)":"b4faba09","swapOwner(address,address,address)":"e318b52b"},"storageLayout":{"storage":[{"astId":61391,"contract":"lib/safe-contracts/contracts/GnosisSafe.sol:GnosisSafe","label":"singleton","offset":0,"slot":"0","type":"t_address"},{"astId":60442,"contract":"lib/safe-contracts/contracts/GnosisSafe.sol:GnosisSafe","label":"modules","offset":0,"slot":"1","type":"t_mapping(t_address,t_address)"},{"astId":60801,"contract":"lib/safe-contracts/contracts/GnosisSafe.sol:GnosisSafe","label":"owners","offset":0,"slot":"2","type":"t_mapping(t_address,t_address)"},{"astId":60803,"contract":"lib/safe-contracts/contracts/GnosisSafe.sol:GnosisSafe","label":"ownerCount","offset":0,"slot":"3","type":"t_uint256"},{"astId":60805,"contract":"lib/safe-contracts/contracts/GnosisSafe.sol:GnosisSafe","label":"threshold","offset":0,"slot":"4","type":"t_uint256"},{"astId":59375,"contract":"lib/safe-contracts/contracts/GnosisSafe.sol:GnosisSafe","label":"nonce","offset":0,"slot":"5","type":"t_uint256"},{"astId":59377,"contract":"lib/safe-contracts/contracts/GnosisSafe.sol:GnosisSafe","label":"_deprecatedDomainSeparator","offset":0,"slot":"6","type":"t_bytes32"},{"astId":59381,"contract":"lib/safe-contracts/contracts/GnosisSafe.sol:GnosisSafe","label":"signedMessages","offset":0,"slot":"7","type":"t_mapping(t_bytes32,t_uint256)"},{"astId":59387,"contract":"lib/safe-contracts/contracts/GnosisSafe.sol:GnosisSafe","label":"approvedHashes","offset":0,"slot":"8","type":"t_mapping(t_address,t_mapping(t_bytes32,t_uint256))"}],"types":{"t_address":{"encoding":"inplace","label":"address","numberOfBytes":"20"},"t_bytes32":{"encoding":"inplace","label":"bytes32","numberOfBytes":"32"},"t_mapping(t_address,t_address)":{"encoding":"mapping","key":"t_address","label":"mapping(address => address)","numberOfBytes":"32","value":"t_address"},"t_mapping(t_address,t_mapping(t_bytes32,t_uint256))":{"encoding":"mapping","key":"t_address","label":"mapping(address => mapping(bytes32 => uint256))","numberOfBytes":"32","value":"t_mapping(t_bytes32,t_uint256)"},"t_mapping(t_bytes32,t_uint256)":{"encoding":"mapping","key":"t_bytes32","label":"mapping(bytes32 => uint256)","numberOfBytes":"32","value":"t_uint256"},"t_uint256":{"encoding":"inplace","label":"uint256","numberOfBytes":"32"}}},"userdoc":{"version":1,"kind":"user","methods":{"addOwnerWithThreshold(address,uint256)":{"notice":"Adds the owner `owner` to the Safe and updates the threshold to `_threshold`."},"changeThreshold(uint256)":{"notice":"Changes the threshold of the Safe to `_threshold`."},"disableModule(address,address)":{"notice":"Disables the module `module` for the Safe."},"enableModule(address)":{"notice":"Enables the module `module` for the Safe."},"removeOwner(address,address,uint256)":{"notice":"Removes the owner `owner` from the Safe and updates the threshold to `_threshold`."},"requiredTxGas(address,uint256,bytes,uint8)":{"notice":"Deprecated in favor of common/StorageAccessible.sol and will be removed in next version."},"swapOwner(address,address,address)":{"notice":"Replaces the owner `oldOwner` in the Safe with `newOwner`."}}},"devdoc":{"version":1,"kind":"dev","author":"Stefan George - <stefan@gnosis.io>Richard Meissner - <richard@gnosis.io>","methods":{"addOwnerWithThreshold(address,uint256)":{"details":"Allows to add a new owner to the Safe and update the threshold at the same time.      This can only be done via a Safe transaction.","params":{"_threshold":"New threshold.","owner":"New owner address."}},"approveHash(bytes32)":{"details":"Marks a hash as approved. This can be used to validate a hash that is used by a signature.","params":{"hashToApprove":"The hash that should be marked as approved for signatures that are verified by this contract."}},"changeThreshold(uint256)":{"details":"Allows to update the number of required confirmations by Safe owners.      This can only be done via a Safe transaction.","params":{"_threshold":"New threshold."}},"checkNSignatures(bytes32,bytes,bytes,uint256)":{"details":"Checks whether the signature provided is valid for the provided data, hash. Will revert otherwise.","params":{"data":"That should be signed (this is passed to an external validator contract)","dataHash":"Hash of the data (could be either a message hash or transaction hash)","requiredSignatures":"Amount of required valid signatures.","signatures":"Signature data that should be verified. Can be ECDSA signature, contract signature (EIP-1271) or approved hash."}},"checkSignatures(bytes32,bytes,bytes)":{"details":"Checks whether the signature provided is valid for the provided data, hash. Will revert otherwise.","params":{"data":"That should be signed (this is passed to an external validator contract)","dataHash":"Hash of the data (could be either a message hash or transaction hash)","signatures":"Signature data that should be verified. Can be ECDSA signature, contract signature (EIP-1271) or approved hash."}},"disableModule(address,address)":{"details":"Allows to remove a module from the whitelist.      This can only be done via a Safe transaction.","params":{"module":"Module to be removed.","prevModule":"Module that pointed to the module to be removed in the linked list"}},"enableModule(address)":{"details":"Allows to add a module to the whitelist.      This can only be done via a Safe transaction.","params":{"module":"Module to be whitelisted."}},"encodeTransactionData(address,uint256,bytes,uint8,uint256,uint256,uint256,address,address,uint256)":{"details":"Returns the bytes that are hashed to be signed by owners.","params":{"_nonce":"Transaction nonce.","baseGas":"Gas costs for that are independent of the transaction execution(e.g. base transaction fee, signature check, payment of the refund)","data":"Data payload.","gasPrice":"Maximum gas price that should be used for this transaction.","gasToken":"Token address (or 0 if ETH) that is used for the payment.","operation":"Operation type.","refundReceiver":"Address of receiver of gas payment (or 0 if tx.origin).","safeTxGas":"Gas that should be used for the safe transaction.","to":"Destination address.","value":"Ether value."},"returns":{"_0":"Transaction hash bytes."}},"execTransaction(address,uint256,bytes,uint8,uint256,uint256,uint256,address,address,bytes)":{"details":"Allows to execute a Safe transaction confirmed by required number of owners and then pays the account that submitted the transaction.      Note: The fees are always transferred, even if the user transaction fails.","params":{"baseGas":"Gas costs that are independent of the transaction execution(e.g. base transaction fee, signature check, payment of the refund)","data":"Data payload of Safe transaction.","gasPrice":"Gas price that should be used for the payment calculation.","gasToken":"Token address (or 0 if ETH) that is used for the payment.","operation":"Operation type of Safe transaction.","refundReceiver":"Address of receiver of gas payment (or 0 if tx.origin).","safeTxGas":"Gas that should be used for the Safe transaction.","signatures":"Packed signature data ({bytes32 r}{bytes32 s}{uint8 v})","to":"Destination address of Safe transaction.","value":"Ether value of Safe transaction."}},"execTransactionFromModule(address,uint256,bytes,uint8)":{"details":"Allows a Module to execute a Safe transaction without any further confirmations.","params":{"data":"Data payload of module transaction.","operation":"Operation type of module transaction.","to":"Destination address of module transaction.","value":"Ether value of module transaction."}},"execTransactionFromModuleReturnData(address,uint256,bytes,uint8)":{"details":"Allows a Module to execute a Safe transaction without any further confirmations and return data","params":{"data":"Data payload of module transaction.","operation":"Operation type of module transaction.","to":"Destination address of module transaction.","value":"Ether value of module transaction."}},"getChainId()":{"details":"Returns the chain id used by this contract."},"getModulesPaginated(address,uint256)":{"details":"Returns array of modules.","params":{"pageSize":"Maximum number of modules that should be returned.","start":"Start of the page."},"returns":{"array":"Array of modules.","next":"Start of the next page."}},"getOwners()":{"details":"Returns array of owners.","returns":{"_0":"Array of Safe owners."}},"getStorageAt(uint256,uint256)":{"details":"Reads `length` bytes of storage in the currents contract","params":{"length":"- the number of words (32 bytes) of data to read","offset":"- the offset in the current contract's storage in words to start reading from"},"returns":{"_0":"the bytes that were read."}},"getTransactionHash(address,uint256,bytes,uint8,uint256,uint256,uint256,address,address,uint256)":{"details":"Returns hash to be signed by owners.","params":{"_nonce":"Transaction nonce.","baseGas":"Gas costs for data used to trigger the safe transaction.","data":"Data payload.","gasPrice":"Maximum gas price that should be used for this transaction.","gasToken":"Token address (or 0 if ETH) that is used for the payment.","operation":"Operation type.","refundReceiver":"Address of receiver of gas payment (or 0 if tx.origin).","safeTxGas":"Fas that should be used for the safe transaction.","to":"Destination address.","value":"Ether value."},"returns":{"_0":"Transaction hash."}},"isModuleEnabled(address)":{"details":"Returns if an module is enabled","returns":{"_0":"True if the module is enabled"}},"removeOwner(address,address,uint256)":{"details":"Allows to remove an owner from the Safe and update the threshold at the same time.      This can only be done via a Safe transaction.","params":{"_threshold":"New threshold.","owner":"Owner address to be removed.","prevOwner":"Owner that pointed to the owner to be removed in the linked list"}},"requiredTxGas(address,uint256,bytes,uint8)":{"details":"Allows to estimate a Safe transaction.      This method is only meant for estimation purpose, therefore the call will always revert and encode the result in the revert data.      Since the `estimateGas` function includes refunds, call this method to get an estimated of the costs that are deducted from the safe with `execTransaction`","params":{"data":"Data payload of Safe transaction.","operation":"Operation type of Safe transaction.","to":"Destination address of Safe transaction.","value":"Ether value of Safe transaction."},"returns":{"_0":"Estimate without refunds and overhead fees (base transaction and payload data gas costs)."}},"setFallbackHandler(address)":{"details":"Allows to add a contract to handle fallback calls.      Only fallback calls without value and with data will be forwarded.      This can only be done via a Safe transaction.","params":{"handler":"contract to handle fallbacks calls."}},"setGuard(address)":{"details":"Set a guard that checks transactions before execution","params":{"guard":"The address of the guard to be used or the 0 address to disable the guard"}},"setup(address[],uint256,address,bytes,address,address,uint256,address)":{"details":"Setup function sets initial storage of contract.","params":{"_owners":"List of Safe owners.","_threshold":"Number of required confirmations for a Safe transaction.","data":"Data payload for optional delegate call.","fallbackHandler":"Handler for fallback calls to this contract","payment":"Value that should be paid","paymentReceiver":"Adddress that should receive the payment (or 0 if tx.origin)","paymentToken":"Token that should be used for the payment (0 is ETH)","to":"Contract address for optional delegate call."}},"simulateAndRevert(address,bytes)":{"details":"Performs a delegetecall on a targetContract in the context of self. Internally reverts execution to avoid side effects (making it static). This method reverts with data equal to `abi.encode(bool(success), bytes(response))`. Specifically, the `returndata` after a call to this method will be: `success:bool || response.length:uint256 || response:bytes`.","params":{"calldataPayload":"Calldata that should be sent to the target contract (encoded method name and arguments).","targetContract":"Address of the contract containing the code to execute."}},"swapOwner(address,address,address)":{"details":"Allows to swap/replace an owner from the Safe with another address.      This can only be done via a Safe transaction.","params":{"newOwner":"New owner address.","oldOwner":"Owner address to be replaced.","prevOwner":"Owner that pointed to the owner to be replaced in the linked list"}}},"title":"Gnosis Safe - A multisignature wallet with support for confirmations using signed messages based on ERC191."},"id":142}