{"abi":[{"type":"function","name":"addOwnerWithThreshold","inputs":[{"name":"owner","type":"address","internalType":"address"},{"name":"_threshold","type":"uint256","internalType":"uint256"}],"outputs":[],"stateMutability":"nonpayable"},{"type":"function","name":"changeThreshold","inputs":[{"name":"_threshold","type":"uint256","internalType":"uint256"}],"outputs":[],"stateMutability":"nonpayable"},{"type":"function","name":"getOwners","inputs":[],"outputs":[{"name":"","type":"address[]","internalType":"address[]"}],"stateMutability":"view"},{"type":"function","name":"getThreshold","inputs":[],"outputs":[{"name":"","type":"uint256","internalType":"uint256"}],"stateMutability":"view"},{"type":"function","name":"isOwner","inputs":[{"name":"owner","type":"address","internalType":"address"}],"outputs":[{"name":"","type":"bool","internalType":"bool"}],"stateMutability":"view"},{"type":"function","name":"removeOwner","inputs":[{"name":"prevOwner","type":"address","internalType":"address"},{"name":"owner","type":"address","internalType":"address"},{"name":"_threshold","type":"uint256","internalType":"uint256"}],"outputs":[],"stateMutability":"nonpayable"},{"type":"function","name":"swapOwner","inputs":[{"name":"prevOwner","type":"address","internalType":"address"},{"name":"oldOwner","type":"address","internalType":"address"},{"name":"newOwner","type":"address","internalType":"address"}],"outputs":[],"stateMutability":"nonpayable"},{"type":"event","name":"AddedOwner","inputs":[{"name":"owner","type":"address","indexed":false,"internalType":"address"}],"anonymous":false},{"type":"event","name":"ChangedThreshold","inputs":[{"name":"threshold","type":"uint256","indexed":false,"internalType":"uint256"}],"anonymous":false},{"type":"event","name":"RemovedOwner","inputs":[{"name":"owner","type":"address","indexed":false,"internalType":"address"}],"anonymous":false}],"bytecode":{"object":"0x608060405234801561001057600080fd5b50610f06806100206000396000f3fe608060405234801561001057600080fd5b506004361061007d5760003560e01c8063a0e67e2b1161005b578063a0e67e2b146100d2578063e318b52b146100e7578063e75235b8146100fa578063f8dc5dd91461010b57600080fd5b80630d582f13146100825780632f54bf6e14610097578063694e80c3146100bf575b600080fd5b610095610090366004610caa565b61011e565b005b6100aa6100a5366004610cd4565b610375565b60405190151581526020015b60405180910390f35b6100956100cd366004610cf6565b6103ca565b6100da6104e4565b6040516100b69190610d0f565b6100956100f5366004610d69565b6105fb565b6002546040519081526020016100b6565b610095610119366004610dac565b610985565b610126610c16565b73ffffffffffffffffffffffffffffffffffffffff821615801590610162575073ffffffffffffffffffffffffffffffffffffffff8216600114155b8015610184575073ffffffffffffffffffffffffffffffffffffffff82163014155b6101ef576040517f08c379a000000000000000000000000000000000000000000000000000000000815260206004820152600560248201527f475332303300000000000000000000000000000000000000000000000000000060448201526064015b60405180910390fd5b73ffffffffffffffffffffffffffffffffffffffff828116600090815260208190526040902054161561027e576040517f08c379a000000000000000000000000000000000000000000000000000000000815260206004820152600560248201527f475332303400000000000000000000000000000000000000000000000000000060448201526064016101e6565b600060208190527fada5013122d395ba3c54772283fb069b10426056ef8ca54750cb9bb552a59e7d805473ffffffffffffffffffffffffffffffffffffffff858116808552604085208054929093167fffffffffffffffffffffffff0000000000000000000000000000000000000000928316179092556001808552835490911690911790915580549161031183610e17565b909155505060405173ffffffffffffffffffffffffffffffffffffffff831681527f9465fa0c962cc76958e6373a993326400c1c94f8be2fe3a952adfa7f60b2ea269060200160405180910390a1806002541461037157610371816103ca565b5050565b600073ffffffffffffffffffffffffffffffffffffffff82166001148015906103c4575073ffffffffffffffffffffffffffffffffffffffff8281166000908152602081905260409020541615155b92915050565b6103d2610c16565b60015481111561043e576040517f08c379a000000000000000000000000000000000000000000000000000000000815260206004820152600560248201527f475332303100000000000000000000000000000000000000000000000000000060448201526064016101e6565b60018110156104a9576040517f08c379a000000000000000000000000000000000000000000000000000000000815260206004820152600560248201527f475332303200000000000000000000000000000000000000000000000000000060448201526064016101e6565b60028190556040518181527f610f7ff2b304ae8903c3de74c60c6ab1f7d6226b3f52c5161905bb5ad4039c939060200160405180910390a150565b6060600060015467ffffffffffffffff81111561050357610503610e4f565b60405190808252806020026020018201604052801561052c578160200160208202803683370190505b506001600090815260208190527fada5013122d395ba3c54772283fb069b10426056ef8ca54750cb9bb552a59e7d549192509073ffffffffffffffffffffffffffffffffffffffff165b73ffffffffffffffffffffffffffffffffffffffff81166001146105f357808383815181106105a7576105a7610e7e565b73ffffffffffffffffffffffffffffffffffffffff92831660209182029290920181019190915291811660009081529182905260409091205416816105eb81610e17565b925050610576565b509092915050565b610603610c16565b73ffffffffffffffffffffffffffffffffffffffff81161580159061063f575073ffffffffffffffffffffffffffffffffffffffff8116600114155b8015610661575073ffffffffffffffffffffffffffffffffffffffff81163014155b6106c7576040517f08c379a000000000000000000000000000000000000000000000000000000000815260206004820152600560248201527f475332303300000000000000000000000000000000000000000000000000000060448201526064016101e6565b73ffffffffffffffffffffffffffffffffffffffff8181166000908152602081905260409020541615610756576040517f08c379a000000000000000000000000000000000000000000000000000000000815260206004820152600560248201527f475332303400000000000000000000000000000000000000000000000000000060448201526064016101e6565b73ffffffffffffffffffffffffffffffffffffffff821615801590610792575073ffffffffffffffffffffffffffffffffffffffff8216600114155b6107f8576040517f08c379a000000000000000000000000000000000000000000000000000000000815260206004820152600560248201527f475332303300000000000000000000000000000000000000000000000000000060448201526064016101e6565b73ffffffffffffffffffffffffffffffffffffffff83811660009081526020819052604090205481169083161461088b576040517f08c379a000000000000000000000000000000000000000000000000000000000815260206004820152600560248201527f475332303500000000000000000000000000000000000000000000000000000060448201526064016101e6565b73ffffffffffffffffffffffffffffffffffffffff828116600081815260208181526040808320805487871680865283862080549289167fffffffffffffffffffffffff0000000000000000000000000000000000000000938416179055968a1685528285208054821690971790965592849052825490941690915591519081527ff8d49fc529812e9a7c5c50e69c20f0dccc0db8fa95c98bc58cc9a4f1c1299eaf910160405180910390a160405173ffffffffffffffffffffffffffffffffffffffff821681527f9465fa0c962cc76958e6373a993326400c1c94f8be2fe3a952adfa7f60b2ea269060200160405180910390a1505050565b61098d610c16565b806001805461099c9190610ead565b1015610a04576040517f08c379a000000000000000000000000000000000000000000000000000000000815260206004820152600560248201527f475332303100000000000000000000000000000000000000000000000000000060448201526064016101e6565b73ffffffffffffffffffffffffffffffffffffffff821615801590610a40575073ffffffffffffffffffffffffffffffffffffffff8216600114155b610aa6576040517f08c379a000000000000000000000000000000000000000000000000000000000815260206004820152600560248201527f475332303300000000000000000000000000000000000000000000000000000060448201526064016101e6565b73ffffffffffffffffffffffffffffffffffffffff838116600090815260208190526040902054811690831614610b39576040517f08c379a000000000000000000000000000000000000000000000000000000000815260206004820152600560248201527f475332303500000000000000000000000000000000000000000000000000000060448201526064016101e6565b73ffffffffffffffffffffffffffffffffffffffff828116600081815260208190526040808220805488861684529183208054929095167fffffffffffffffffffffffff00000000000000000000000000000000000000009283161790945591815282549091169091556001805491610bb183610ec4565b909155505060405173ffffffffffffffffffffffffffffffffffffffff831681527ff8d49fc529812e9a7c5c50e69c20f0dccc0db8fa95c98bc58cc9a4f1c1299eaf9060200160405180910390a18060025414610c1157610c11816103ca565b505050565b333014610c7f576040517f08c379a000000000000000000000000000000000000000000000000000000000815260206004820152600560248201527f475330333100000000000000000000000000000000000000000000000000000060448201526064016101e6565b565b803573ffffffffffffffffffffffffffffffffffffffff81168114610ca557600080fd5b919050565b60008060408385031215610cbd57600080fd5b610cc683610c81565b946020939093013593505050565b600060208284031215610ce657600080fd5b610cef82610c81565b9392505050565b600060208284031215610d0857600080fd5b5035919050565b6020808252825182820181905260009190848201906040850190845b81811015610d5d57835173ffffffffffffffffffffffffffffffffffffffff1683529284019291840191600101610d2b565b50909695505050505050565b600080600060608486031215610d7e57600080fd5b610d8784610c81565b9250610d9560208501610c81565b9150610da360408501610c81565b90509250925092565b600080600060608486031215610dc157600080fd5b610dca84610c81565b9250610dd860208501610c81565b9150604084013590509250925092565b7f4e487b7100000000000000000000000000000000000000000000000000000000600052601160045260246000fd5b60007fffffffffffffffffffffffffffffffffffffffffffffffffffffffffffffffff8203610e4857610e48610de8565b5060010190565b7f4e487b7100000000000000000000000000000000000000000000000000000000600052604160045260246000fd5b7f4e487b7100000000000000000000000000000000000000000000000000000000600052603260045260246000fd5b600082821015610ebf57610ebf610de8565b500390565b600081610ed357610ed3610de8565b507fffffffffffffffffffffffffffffffffffffffffffffffffffffffffffffffff019056fea164736f6c634300080f000a","linkReferences":{}},"methodIdentifiers":{"addOwnerWithThreshold(address,uint256)":"0d582f13","changeThreshold(uint256)":"694e80c3","getOwners()":"a0e67e2b","getThreshold()":"e75235b8","isOwner(address)":"2f54bf6e","removeOwner(address,address,uint256)":"f8dc5dd9","swapOwner(address,address,address)":"e318b52b"},"storageLayout":{"storage":[{"astId":60801,"contract":"lib/safe-contracts/contracts/base/OwnerManager.sol:OwnerManager","label":"owners","offset":0,"slot":"0","type":"t_mapping(t_address,t_address)"},{"astId":60803,"contract":"lib/safe-contracts/contracts/base/OwnerManager.sol:OwnerManager","label":"ownerCount","offset":0,"slot":"1","type":"t_uint256"},{"astId":60805,"contract":"lib/safe-contracts/contracts/base/OwnerManager.sol:OwnerManager","label":"threshold","offset":0,"slot":"2","type":"t_uint256"}],"types":{"t_address":{"encoding":"inplace","label":"address","numberOfBytes":"20"},"t_mapping(t_address,t_address)":{"encoding":"mapping","key":"t_address","label":"mapping(address => address)","numberOfBytes":"32","value":"t_address"},"t_uint256":{"encoding":"inplace","label":"uint256","numberOfBytes":"32"}}},"userdoc":{"version":1,"kind":"user","methods":{"addOwnerWithThreshold(address,uint256)":{"notice":"Adds the owner `owner` to the Safe and updates the threshold to `_threshold`."},"changeThreshold(uint256)":{"notice":"Changes the threshold of the Safe to `_threshold`."},"removeOwner(address,address,uint256)":{"notice":"Removes the owner `owner` from the Safe and updates the threshold to `_threshold`."},"swapOwner(address,address,address)":{"notice":"Replaces the owner `oldOwner` in the Safe with `newOwner`."}}},"devdoc":{"version":1,"kind":"dev","author":"Stefan George - <stefan@gnosis.pm>Richard Meissner - <richard@gnosis.pm>","methods":{"addOwnerWithThreshold(address,uint256)":{"details":"Allows to add a new owner to the Safe and update the threshold at the same time.      This can only be done via a Safe transaction.","params":{"_threshold":"New threshold.","owner":"New owner address."}},"changeThreshold(uint256)":{"details":"Allows to update the number of required confirmations by Safe owners.      This can only be done via a Safe transaction.","params":{"_threshold":"New threshold."}},"getOwners()":{"details":"Returns array of owners.","returns":{"_0":"Array of Safe owners."}},"removeOwner(address,address,uint256)":{"details":"Allows to remove an owner from the Safe and update the threshold at the same time.      This can only be done via a Safe transaction.","params":{"_threshold":"New threshold.","owner":"Owner address to be removed.","prevOwner":"Owner that pointed to the owner to be removed in the linked list"}},"swapOwner(address,address,address)":{"details":"Allows to swap/replace an owner from the Safe with another address.      This can only be done via a Safe transaction.","params":{"newOwner":"New owner address.","oldOwner":"Owner address to be replaced.","prevOwner":"Owner that pointed to the owner to be replaced in the linked list"}}},"title":"OwnerManager - Manages a set of owners and a threshold to perform actions."},"id":147}