{"abi":[{"type":"function","name":"_setupSafe","inputs":[{"name":"ownerPKs","type":"uint256[]","internalType":"uint256[]"},{"name":"threshold","type":"uint256","internalType":"uint256"}],"outputs":[{"name":"","type":"tuple","internalType":"struct SafeInstance","components":[{"name":"instanceId","type":"uint256","internalType":"uint256"},{"name":"ownerPKs","type":"uint256[]","internalType":"uint256[]"},{"name":"owners","type":"address[]","internalType":"address[]"},{"name":"threshold","type":"uint256","internalType":"uint256"},{"name":"safe","type":"address","internalType":"contract DeployedSafe"}]}],"stateMutability":"nonpayable"},{"type":"function","name":"_setupSafe","inputs":[{"name":"ownerPKs","type":"uint256[]","internalType":"uint256[]"},{"name":"threshold","type":"uint256","internalType":"uint256"},{"name":"initialBalance","type":"uint256","internalType":"uint256"},{"name":"advancedParams","type":"tuple","internalType":"struct AdvancedSafeInitParams","components":[{"name":"includeFallbackHandler","type":"bool","internalType":"bool"},{"name":"saltNonce","type":"uint256","internalType":"uint256"},{"name":"setupModulesCall_to","type":"address","internalType":"address"},{"name":"setupModulesCall_data","type":"bytes","internalType":"bytes"},{"name":"refundAmount","type":"uint256","internalType":"uint256"},{"name":"refundToken","type":"address","internalType":"address"},{"name":"refundReceiver","type":"address","internalType":"address payable"},{"name":"initData","type":"bytes","internalType":"bytes"}]}],"outputs":[{"name":"","type":"tuple","internalType":"struct SafeInstance","components":[{"name":"instanceId","type":"uint256","internalType":"uint256"},{"name":"ownerPKs","type":"uint256[]","internalType":"uint256[]"},{"name":"owners","type":"address[]","internalType":"address[]"},{"name":"threshold","type":"uint256","internalType":"uint256"},{"name":"safe","type":"address","internalType":"contract DeployedSafe"}]}],"stateMutability":"nonpayable"},{"type":"function","name":"_setupSafe","inputs":[{"name":"ownerPKs","type":"uint256[]","internalType":"uint256[]"},{"name":"threshold","type":"uint256","internalType":"uint256"},{"name":"initialBalance","type":"uint256","internalType":"uint256"}],"outputs":[{"name":"","type":"tuple","internalType":"struct SafeInstance","components":[{"name":"instanceId","type":"uint256","internalType":"uint256"},{"name":"ownerPKs","type":"uint256[]","internalType":"uint256[]"},{"name":"owners","type":"address[]","internalType":"address[]"},{"name":"threshold","type":"uint256","internalType":"uint256"},{"name":"safe","type":"address","internalType":"contract DeployedSafe"}]}],"stateMutability":"nonpayable"},{"type":"function","name":"_setupSafe","inputs":[],"outputs":[{"name":"","type":"tuple","internalType":"struct SafeInstance","components":[{"name":"instanceId","type":"uint256","internalType":"uint256"},{"name":"ownerPKs","type":"uint256[]","internalType":"uint256[]"},{"name":"owners","type":"address[]","internalType":"address[]"},{"name":"threshold","type":"uint256","internalType":"uint256"},{"name":"safe","type":"address","internalType":"contract DeployedSafe"}]}],"stateMutability":"nonpayable"},{"type":"function","name":"getSafe","inputs":[],"outputs":[{"name":"","type":"tuple","internalType":"struct SafeInstance","components":[{"name":"instanceId","type":"uint256","internalType":"uint256"},{"name":"ownerPKs","type":"uint256[]","internalType":"uint256[]"},{"name":"owners","type":"address[]","internalType":"address[]"},{"name":"threshold","type":"uint256","internalType":"uint256"},{"name":"safe","type":"address","internalType":"contract DeployedSafe"}]}],"stateMutability":"view"},{"type":"function","name":"getSafe","inputs":[{"name":"_safe","type":"address","internalType":"address"}],"outputs":[{"name":"","type":"tuple","internalType":"struct SafeInstance","components":[{"name":"instanceId","type":"uint256","internalType":"uint256"},{"name":"ownerPKs","type":"uint256[]","internalType":"uint256[]"},{"name":"owners","type":"address[]","internalType":"address[]"},{"name":"threshold","type":"uint256","internalType":"uint256"},{"name":"safe","type":"address","internalType":"contract DeployedSafe"}]}],"stateMutability":"view"}],"bytecode":{"object":"0x60806040526040516100109061012b565b604051809103905ff080158015610029573d5f803e3d5ffd5b505f80546001600160a01b0319166001600160a01b039290921691909117905560405161005590610138565b604051809103905ff08015801561006e573d5f803e3d5ffd5b50600180546001600160a01b0319166001600160a01b039290921691909117905560405161009b90610145565b604051809103905ff0801580156100b4573d5f803e3d5ffd5b50600280546001600160a01b0319166001600160a01b039290921691909117905560408051808201909152600981526814d0519148151154d560ba1b6020909101527fbff0e1d6be3df3bedf05c892f554fbea3c6ca2bb9d224bc3f3d3fbc3ec267d1c600455348015610125575f80fd5b50610152565b613e668061220a83390190565b610b3e8061607083390190565b6110a080616bae83390190565b6120ab8061015f5f395ff3fe608060405234801561000f575f80fd5b506004361061006f575f3560e01c806368bc573e1161004d57806368bc573e146100c2578063894adc65146100ca578063b38b4717146100dd575f80fd5b8063080df7f114610073578063403b551a1461009c5780634867cf9a146100af575b5f80fd5b610086610081366004611992565b6100e5565b6040516100939190611a24565b60405180910390f35b6100866100aa366004611bc2565b6101e3565b6100866100bd366004611cdc565b610704565b6100866107f9565b6100866100d8366004611d26565b610a20565b610086610c82565b61012a6040518060a001604052805f815260200160608152602001606081526020015f81526020015f73ffffffffffffffffffffffffffffffffffffffff1681525090565b6101dc838369021e19e0c9bab240000060405180610100016040528060011515815260200160045481526020015f73ffffffffffffffffffffffffffffffffffffffff16815260200160405180602001604052805f81525081526020015f81526020015f73ffffffffffffffffffffffffffffffffffffffff1681526020015f73ffffffffffffffffffffffffffffffffffffffff16815260200160405180602001604052805f8152508152506101e3565b9392505050565b6102286040518060a001604052805f815260200160608152602001606081526020015f81526020015f73ffffffffffffffffffffffffffffffffffffffff1681525090565b5f61023286610dc4565b90505f815167ffffffffffffffff81111561024f5761024f61186f565b604051908082528060200260200182016040528015610278578160200160208202803683370190505b5090505f5b82518110156103ba576102b783828151811061029b5761029b611d41565b602002602001015160a01c6bffffffffffffffffffffffff1490565b15610343576102f28382815181106102d1576102d1611d41565b602002602001015173ffffffffffffffffffffffffffffffffffffffff1690565b82828151811061030457610304611d41565b602002602001019073ffffffffffffffffffffffffffffffffffffffff16908173ffffffffffffffffffffffffffffffffffffffff16815250506103b2565b61036583828151811061035857610358611d41565b60200260200101516111d5565b82828151811061037757610377611d41565b602002602001019073ffffffffffffffffffffffffffffffffffffffff16908173ffffffffffffffffffffffffffffffffffffffff16815250505b60010161027d565b505f808560e00151511161049d57818786604001518760600151885f01516103e2575f6103fc565b60025473ffffffffffffffffffffffffffffffffffffffff165b8960a001518a608001518b60c00151604051602401610422989796959493929190611dba565b604080517fffffffffffffffffffffffffffffffffffffffffffffffffffffffffffffffe08184030181529190526020810180517bffffffffffffffffffffffffffffffffffffffffffffffffffffffff167fb63e800d000000000000000000000000000000000000000000000000000000001790526104a3565b8460e001515b6001545f805460208901516040517f1688f0b9000000000000000000000000000000000000000000000000000000008152949550919373ffffffffffffffffffffffffffffffffffffffff93841693631688f0b99361050b9390911691879190600401611ebe565b6020604051808303815f875af1158015610527573d5f803e3d5ffd5b505050506040513d601f19601f8201168201806040525081019061054b9190611efc565b6040805160a0810182526003805480835260208084018a8152948401899052606084018e905273ffffffffffffffffffffffffffffffffffffffff861660808501526001820183555f92909252825160059091027fc2575a0e9e593c00f959f8c92f12db2869c3395a3b0502d05e2516446f71f85b810191825593518051959650929485949193610602937fc2575a0e9e593c00f959f8c92f12db2869c3395a3b0502d05e2516446f71f85c909301920190611780565b506040820151805161061e9160028401916020909101906117c5565b5060608201516003820155608090910151600491820180547fffffffffffffffffffffffff00000000000000000000000000000000000000001673ffffffffffffffffffffffffffffffffffffffff9283161790556040517fc88a5e6d0000000000000000000000000000000000000000000000000000000081529084169181019190915260248101899052737109709ecfa91a80626ff3989d68f67f5b1dd12d9063c88a5e6d906044015f604051808303815f87803b1580156106e0575f80fd5b505af11580156106f2573d5f803e3d5ffd5b50929c9b505050505050505050505050565b6107496040518060a001604052805f815260200160608152602001606081526020015f81526020015f73ffffffffffffffffffffffffffffffffffffffff1681525090565b6107f184848460405180610100016040528060011515815260200160045481526020015f73ffffffffffffffffffffffffffffffffffffffff16815260200160405180602001604052805f81525081526020015f81526020015f73ffffffffffffffffffffffffffffffffffffffff1681526020015f73ffffffffffffffffffffffffffffffffffffffff16815260200160405180602001604052805f8152508152506101e3565b949350505050565b61083e6040518060a001604052805f815260200160608152602001606081526020015f81526020015f73ffffffffffffffffffffffffffffffffffffffff1681525090565b6003545f036108fa576040517f08c379a000000000000000000000000000000000000000000000000000000000815260206004820152604f60248201527f5341464554455354544f4f4c533a2054657374205361666520686173206e6f7460448201527f206265656e206465706c6f7965642c20757365205f736574757053616665282960648201527f2063616c6c696e67207361666528290000000000000000000000000000000000608482015260a4015b60405180910390fd5b60035f8154811061090d5761090d611d41565b905f5260205f2090600502016040518060a00160405290815f82015481526020016001820180548060200260200160405190810160405280929190818152602001828054801561097a57602002820191905f5260205f20905b815481526020019060010190808311610966575b50505050508152602001600282018054806020026020016040519081016040528092919081815260200182805480156109e757602002820191905f5260205f20905b815473ffffffffffffffffffffffffffffffffffffffff1681526001909101906020018083116109bc575b50505091835250506003820154602082015260049091015473ffffffffffffffffffffffffffffffffffffffff16604090910152919050565b610a656040518060a001604052805f815260200160608152602001606081526020015f81526020015f73ffffffffffffffffffffffffffffffffffffffff1681525090565b5f5b600354811015610bf9578273ffffffffffffffffffffffffffffffffffffffff1660038281548110610a9b57610a9b611d41565b5f91825260209091206004600590920201015473ffffffffffffffffffffffffffffffffffffffff1603610bf15760038181548110610adc57610adc611d41565b905f5260205f2090600502016040518060a00160405290815f820154815260200160018201805480602002602001604051908101604052809291908181526020018280548015610b4957602002820191905f5260205f20905b815481526020019060010190808311610b35575b5050505050815260200160028201805480602002602001604051908101604052809291908181526020018280548015610bb657602002820191905f5260205f20905b815473ffffffffffffffffffffffffffffffffffffffff168152600190910190602001808311610b8b575b50505091835250506003820154602082015260049091015473ffffffffffffffffffffffffffffffffffffffff166040909101529392505050565b600101610a67565b506040517f08c379a000000000000000000000000000000000000000000000000000000000815260206004820152602660248201527f5341464554455354544f4f4c533a205361666520696e7374616e6365206e6f7460448201527f20666f756e64000000000000000000000000000000000000000000000000000060648201526084016108f1565b610cc76040518060a001604052805f815260200160608152602001606081526020015f81526020015f73ffffffffffffffffffffffffffffffffffffffff1681525090565b5f610d086040518060400160405280600781526020017f64656661756c74000000000000000000000000000000000000000000000000008152506003611268565b915050610dbe81600269021e19e0c9bab240000060405180610100016040528060011515815260200160045481526020015f73ffffffffffffffffffffffffffffffffffffffff16815260200160405180602001604052805f81525081526020015f81526020015f73ffffffffffffffffffffffffffffffffffffffff1681526020015f73ffffffffffffffffffffffffffffffffffffffff16815260200160405180602001604052805f8152508152506101e3565b91505090565b60605f825167ffffffffffffffff811115610de157610de161186f565b604051908082528060200260200182016040528015610e0a578160200160208202803683370190505b5090505f835167ffffffffffffffff811115610e2857610e2861186f565b604051908082528060200260200182016040528015610e51578160200160208202803683370190505b5090505f845167ffffffffffffffff811115610e6f57610e6f61186f565b604051908082528060200260200182016040528015610ea857816020015b610e9561183d565b815260200190600190039081610e8d5790505b5090505f5b8551811015610ffe575f868281518110610ec957610ec9611d41565b602002602001015190505f610edd826111d5565b9050610ef78260a01c6bffffffffffffffffffffffff1490565b15610f15575073ffffffffffffffffffffffffffffffffffffffff81165b80858481518110610f2857610f28611d41565b73ffffffffffffffffffffffffffffffffffffffff909216602092830291909101820152604051610f779183910173ffffffffffffffffffffffffffffffffffffffff91909116815260200190565b604051602081830303815290604052610f8f90611f17565b848481518110610fa157610fa1611d41565b60200260200101515f60028110610fba57610fba611d41565b602002015283518290859085908110610fd557610fd5611d41565b6020026020010151600160028110610fef57610fef611d41565b60200201525050600101610ead565b50611008826115c2565b91505f805b8351811015611113575f84828151811061102957611029611d41565b602002602001015190505f805b85518110156110ea578273ffffffffffffffffffffffffffffffffffffffff1686828151811061106857611068611d41565b60200260200101515f6002811061108157611081611d41565b602002015173ffffffffffffffffffffffffffffffffffffffff16036110e2578581815181106110b3576110b3611d41565b60200260200101516001600281106110cd576110cd611d41565b60200201519150846110de81611f5c565b9550505b600101611036565b50808784815181106110fe576110fe611d41565b6020908102919091010152505060010161100d565b5085518110156111cb576040517f08c379a000000000000000000000000000000000000000000000000000000000815260206004820152604d60248201527f5341464554455354544f4f4c533a20697373756520776974682070726976617460448201527f65206b657920736f7274696e672c20706c65617365206f70656e20612074696360648201527f6b6574206f6e2067697468756200000000000000000000000000000000000000608482015260a4016108f1565b5091949350505050565b6040517fffa18649000000000000000000000000000000000000000000000000000000008152600481018290525f90737109709ecfa91a80626ff3989d68f67f5b1dd12d9063ffa1864990602401602060405180830381865afa15801561123e573d5f803e3d5ffd5b505050506040513d601f19601f820116820180604052508101906112629190611efc565b92915050565b6060808267ffffffffffffffff8111156112845761128461186f565b6040519080825280602002602001820160405280156112ad578160200160208202803683370190505b5090508267ffffffffffffffff8111156112c9576112c961186f565b6040519080825280602002602001820160405280156112f2578160200160208202803683370190505b5091505f5b83811015611354575f8582604051602001611313929190611fcf565b604051602081830303815290604052805190602001205f1c90508083838151811061134057611340611d41565b6020908102919091010152506001016112f7565b505f5b838110156115ba57737109709ecfa91a80626ff3989d68f67f5b1dd12d73ffffffffffffffffffffffffffffffffffffffff1663ffa186498383815181106113a1576113a1611d41565b60200260200101516040518263ffffffff1660e01b81526004016113c791815260200190565b602060405180830381865afa1580156113e2573d5f803e3d5ffd5b505050506040513d601f19601f820116820180604052508101906114069190611efc565b83828151811061141857611418611d41565b602002602001019073ffffffffffffffffffffffffffffffffffffffff16908173ffffffffffffffffffffffffffffffffffffffff1681525050737109709ecfa91a80626ff3989d68f67f5b1dd12d73ffffffffffffffffffffffffffffffffffffffff1663c657c71861149784848151811061035857610358611d41565b6040517f6900a3ae000000000000000000000000000000000000000000000000000000008152600481018590528890737109709ecfa91a80626ff3989d68f67f5b1dd12d90636900a3ae906024015f60405180830381865afa1580156114ff573d5f803e3d5ffd5b505050506040513d5f823e601f3d9081017fffffffffffffffffffffffffffffffffffffffffffffffffffffffffffffffe01682016040526115449190810190611fe7565b60405160200161155592919061205c565b6040516020818303038152906040526040518363ffffffff1660e01b8152600401611581929190612070565b5f604051808303815f87803b158015611598575f80fd5b505af11580156115aa573d5f803e3d5ffd5b5050600190920191506113579050565b509250929050565b60606115cd826115d1565b5090565b6115da816115dd565b50565b601f19602082515f84526040516002821061166a578285018260051b8601815b85810151815111828214176116135785016115fd565b8181036116225750505061166a565b50805b86810151815111611637578601611625565b82810361165e575b8251825184528252918501919086019081831061163f5750505061166a565b50908252838201526040015b6040515b80821461177757604082039150815184830151610180828203116116e25785820180518351106116a15780518351825283525b5b86018181116116da57805188820180518281116116c1575050506116a2565b5b818a0152890180518281116116c257508801526116a2565b50505061166e565b81601f1681830160061c60051b01825182518082106116fd57905b825181811061170857905b80831061171157915b835283528352518190835b5b88018051821161171d57825b8a01805183106117295792508281101561174a57805183518252835261171c565b50508681018552818782011060061b85019450828552808786015282811160061b8501945050505061166e565b50509092525050565b828054828255905f5260205f209081019282156117b9579160200282015b828111156117b957825182559160200191906001019061179e565b506115cd92915061185b565b828054828255905f5260205f209081019282156117b9579160200282015b828111156117b957825182547fffffffffffffffffffffffff00000000000000000000000000000000000000001673ffffffffffffffffffffffffffffffffffffffff9091161782556020909201916001909101906117e3565b60405180604001604052806002906020820280368337509192915050565b5b808211156115cd575f815560010161185c565b7f4e487b71000000000000000000000000000000000000000000000000000000005f52604160045260245ffd5b604051610100810167ffffffffffffffff811182821017156118c0576118c061186f565b60405290565b604051601f82017fffffffffffffffffffffffffffffffffffffffffffffffffffffffffffffffe016810167ffffffffffffffff8111828210171561190d5761190d61186f565b604052919050565b5f82601f830112611924575f80fd5b8135602067ffffffffffffffff8211156119405761194061186f565b8160051b61194f8282016118c6565b9283528481018201928281019087851115611968575f80fd5b83870192505b848310156119875782358252918301919083019061196e565b979650505050505050565b5f80604083850312156119a3575f80fd5b823567ffffffffffffffff8111156119b9575f80fd5b6119c585828601611915565b95602094909401359450505050565b5f815180845260208085019450602084015f5b83811015611a1957815173ffffffffffffffffffffffffffffffffffffffff16875295820195908201906001016119e7565b509495945050505050565b60208082528251828201528281015160a06040840152805160c084018190525f9291820190839060e08601905b80831015611a715783518252928401926001929092019190840190611a51565b50604087015193507fffffffffffffffffffffffffffffffffffffffffffffffffffffffffffffffe0868203016060870152611aad81856119d4565b9350505050606084015160808401526080840151611ae360a085018273ffffffffffffffffffffffffffffffffffffffff169052565b509392505050565b80358015158114611afa575f80fd5b919050565b73ffffffffffffffffffffffffffffffffffffffff811681146115da575f80fd5b8035611afa81611aff565b5f67ffffffffffffffff821115611b4457611b4461186f565b50601f017fffffffffffffffffffffffffffffffffffffffffffffffffffffffffffffffe01660200190565b5f82601f830112611b7f575f80fd5b8135611b92611b8d82611b2b565b6118c6565b818152846020838601011115611ba6575f80fd5b816020850160208301375f918101602001919091529392505050565b5f805f8060808587031215611bd5575f80fd5b843567ffffffffffffffff80821115611bec575f80fd5b611bf888838901611915565b955060208701359450604087013593506060870135915080821115611c1b575f80fd5b908601906101008289031215611c2f575f80fd5b611c3761189c565b611c4083611aeb565b815260208301356020820152611c5860408401611b20565b6040820152606083013582811115611c6e575f80fd5b611c7a8a828601611b70565b60608301525060808301356080820152611c9660a08401611b20565b60a0820152611ca760c08401611b20565b60c082015260e083013582811115611cbd575f80fd5b611cc98a828601611b70565b60e0830152509598949750929550505050565b5f805f60608486031215611cee575f80fd5b833567ffffffffffffffff811115611d04575f80fd5b611d1086828701611915565b9660208601359650604090950135949350505050565b5f60208284031215611d36575f80fd5b81356101dc81611aff565b7f4e487b71000000000000000000000000000000000000000000000000000000005f52603260045260245ffd5b5f81518084528060208401602086015e5f6020828601015260207fffffffffffffffffffffffffffffffffffffffffffffffffffffffffffffffe0601f83011685010191505092915050565b61010080825289519082018190525f90610120830190602090818d01845b82811015611e0a57815173ffffffffffffffffffffffffffffffffffffffff1685529383019390830190600101611dd8565b50505050896020840152611e36604084018a73ffffffffffffffffffffffffffffffffffffffff169052565b8281036060840152611e488189611d6e565b915050611e6d608083018773ffffffffffffffffffffffffffffffffffffffff169052565b73ffffffffffffffffffffffffffffffffffffffff851660a08301528360c0830152611eb160e083018473ffffffffffffffffffffffffffffffffffffffff169052565b9998505050505050505050565b73ffffffffffffffffffffffffffffffffffffffff84168152606060208201525f611eec6060830185611d6e565b9050826040830152949350505050565b5f60208284031215611f0c575f80fd5b81516101dc81611aff565b80516020808301519190811015611f56577fffffffffffffffffffffffffffffffffffffffffffffffffffffffffffffffff8160200360031b1b821691505b50919050565b5f7fffffffffffffffffffffffffffffffffffffffffffffffffffffffffffffffff8203611fb1577f4e487b71000000000000000000000000000000000000000000000000000000005f52601160045260245ffd5b5060010190565b5f81518060208401855e5f93019283525090919050565b5f611fda8285611fb8565b9283525050602001919050565b5f60208284031215611ff7575f80fd5b815167ffffffffffffffff81111561200d575f80fd5b8201601f8101841361201d575f80fd5b805161202b611b8d82611b2b565b81815285602083850101111561203f575f80fd5b8160208401602083015e5f91810160200191909152949350505050565b5f6107f161206a8386611fb8565b84611fb8565b73ffffffffffffffffffffffffffffffffffffffff83168152604060208201525f6107f16040830184611d6e56fea164736f6c6343000819000a6080604052348015600e575f80fd5b506001600455613e45806100215f395ff3fe6080604052600436106101db575f3560e01c8063affed0e011610101578063e19a9dd911610094578063f08a032311610063578063f08a0323146105fc578063f698da251461061b578063f8dc5dd914610680578063ffa1ad741461069f57610217565b8063e19a9dd91461058b578063e318b52b146105aa578063e75235b8146105c9578063e86637db146105dd57610217565b8063cc2f8452116100d0578063cc2f845214610501578063d4d9bdcd1461052e578063d8d11f781461054d578063e009cfde1461056c57610217565b8063affed0e01461048f578063b4faba09146104a4578063b63e800d146104c3578063c4ca3a9c146104e257610217565b80635624b25b116101795780636a761202116101485780636a761202146104065780637d83297414610419578063934f3a111461044f578063a0e67e2b1461046e57610217565b80635624b25b146103715780635ae6bd371461039d578063610b5925146103c8578063694e80c3146103e757610217565b80632f54bf6e116101b55780632f54bf6e146102ea5780633408e47014610309578063468721a7146103255780635229073f1461034457610217565b80630d582f131461027657806312fb68e0146102975780632d9ad53d146102b657610217565b366102175760405134815233907f3d0ce9bfc3ed7d6862dbb28b2dea94561fe714a1b4d019aa8af39730d1ad7c3d9060200160405180910390a2005b348015610222575f80fd5b507f6c9a6c4a39284e37ed1cf53d337577d14212a4870fb976a4366c693b939918d580548061024d57005b365f80373360601b36525f80601436015f80855af190503d5f803e80610271573d5ffd5b503d5ff35b348015610281575f80fd5b5061029561029036600461321d565b6106e7565b005b3480156102a2575f80fd5b506102956102b136600461331b565b61093b565b3480156102c1575f80fd5b506102d56102d036600461338b565b610f79565b60405190151581526020015b60405180910390f35b3480156102f5575f80fd5b506102d561030436600461338b565b610fcc565b348015610314575f80fd5b50465b6040519081526020016102e1565b348015610330575f80fd5b506102d561033f3660046133b4565b61101c565b34801561034f575f80fd5b5061036361035e3660046133b4565b61112e565b6040516102e1929190613466565b34801561037c575f80fd5b5061039061038b366004613480565b611162565b6040516102e191906134a0565b3480156103a8575f80fd5b506103176103b73660046134b2565b60076020525f908152604090205481565b3480156103d3575f80fd5b506102956103e236600461338b565b6111dc565b3480156103f2575f80fd5b506102956104013660046134b2565b6113cc565b6102d561041436600461350e565b6114e0565b348015610424575f80fd5b5061031761043336600461321d565b600860209081525f928352604080842090915290825290205481565b34801561045a575f80fd5b506102956104693660046135de565b6118c8565b348015610479575f80fd5b50610482611944565b6040516102e19190613696565b34801561049a575f80fd5b5061031760055481565b3480156104af575f80fd5b506102956104be3660046136a8565b611a59565b3480156104ce575f80fd5b506102956104dd3660046136f5565b611a78565b3480156104ed575f80fd5b506103176104fc3660046137df565b611bb0565b34801561050c575f80fd5b5061052061051b36600461321d565b611c7e565b6040516102e192919061384b565b348015610539575f80fd5b506102956105483660046134b2565b611da9565b348015610558575f80fd5b50610317610567366004613882565b611e7b565b348015610577575f80fd5b5061029561058636600461393b565b611ea7565b348015610596575f80fd5b506102956105a536600461338b565b612084565b3480156105b5575f80fd5b506102956105c4366004613972565b6120f6565b3480156105d4575f80fd5b50600454610317565b3480156105e8575f80fd5b506103906105f7366004613882565b61247f565b348015610607575f80fd5b5061029561061636600461338b565b612615565b348015610626575f80fd5b506103175f7f47e79534a245952e8b16893a336b85a3d9ea9fa8c573f3d803afb92a794692184660408051602081019390935282015230606082015260800160405160208183030381529060405280519060200120905090565b34801561068b575f80fd5b5061029561069a3660046139ba565b61268b565b3480156106aa575f80fd5b506103906040518060400160405280600581526020017f312e332e3000000000000000000000000000000000000000000000000000000081525081565b6106ef61291b565b73ffffffffffffffffffffffffffffffffffffffff82161580159061072b575073ffffffffffffffffffffffffffffffffffffffff8216600114155b801561074d575073ffffffffffffffffffffffffffffffffffffffff82163014155b6107b8576040517f08c379a000000000000000000000000000000000000000000000000000000000815260206004820152600560248201527f475332303300000000000000000000000000000000000000000000000000000060448201526064015b60405180910390fd5b73ffffffffffffffffffffffffffffffffffffffff8281165f908152600260205260409020541615610846576040517f08c379a000000000000000000000000000000000000000000000000000000000815260206004820152600560248201527f475332303400000000000000000000000000000000000000000000000000000060448201526064016107af565b60026020527fe90b7bceb6e7df5418fb78d8ee546e97c83a08bbccc01a0644d599ccd2a7c2e0805473ffffffffffffffffffffffffffffffffffffffff8481165f818152604081208054939094167fffffffffffffffffffffffff0000000000000000000000000000000000000000938416179093556001835283549091161790915560038054916108d783613a25565b909155505060405173ffffffffffffffffffffffffffffffffffffffff831681527f9465fa0c962cc76958e6373a993326400c1c94f8be2fe3a952adfa7f60b2ea269060200160405180910390a1806004541461093757610937816113cc565b5050565b610946816041612986565b825110156109b0576040517f08c379a000000000000000000000000000000000000000000000000000000000815260206004820152600560248201527f475330323000000000000000000000000000000000000000000000000000000060448201526064016107af565b5f80805f805f5b86811015610f6d576041818102890160208101516040820151919092015160ff16955090935091505f849003610c8b5791935083916109f7876041612986565b821015610a60576040517f08c379a000000000000000000000000000000000000000000000000000000000815260206004820152600560248201527f475330323100000000000000000000000000000000000000000000000000000060448201526064016107af565b8751610a6d8360206129bd565b1115610ad5576040517f08c379a000000000000000000000000000000000000000000000000000000000815260206004820152600560248201527f475330323200000000000000000000000000000000000000000000000000000060448201526064016107af565b602082890181015189519091610af8908390610af29087906129bd565b906129bd565b1115610b60576040517f08c379a000000000000000000000000000000000000000000000000000000000815260206004820152600560248201527f475330323300000000000000000000000000000000000000000000000000000060448201526064016107af565b6040517f20c13b0b000000000000000000000000000000000000000000000000000000008082528a85016020019173ffffffffffffffffffffffffffffffffffffffff8916906320c13b0b90610bbc908f908690600401613a5c565b602060405180830381865afa158015610bd7573d5f803e3d5ffd5b505050506040513d601f19601f82011682018060405250810190610bfb9190613a80565b7fffffffff000000000000000000000000000000000000000000000000000000001614610c84576040517f08c379a000000000000000000000000000000000000000000000000000000000815260206004820152600560248201527f475330323400000000000000000000000000000000000000000000000000000060448201526064016107af565b5050610e77565b8360ff16600103610d585791935083913373ffffffffffffffffffffffffffffffffffffffff84161480610ced575073ffffffffffffffffffffffffffffffffffffffff85165f9081526008602090815260408083208d845290915290205415155b610d53576040517f08c379a000000000000000000000000000000000000000000000000000000000815260206004820152600560248201527f475330323500000000000000000000000000000000000000000000000000000060448201526064016107af565b610e77565b601e8460ff161115610e1a576040517f19457468657265756d205369676e6564204d6573736167653a0a3332000000006020820152603c81018b9052600190605c0160405160208183030381529060405280519060200120600486610dbd9190613abf565b604080515f8152602081018083529390935260ff90911690820152606081018590526080810184905260a0016020604051602081039080840390855afa158015610e09573d5f803e3d5ffd5b505050602060405103519450610e77565b604080515f8152602081018083528c905260ff861691810191909152606081018490526080810183905260019060a0016020604051602081039080840390855afa158015610e6a573d5f803e3d5ffd5b5050506020604051035194505b8573ffffffffffffffffffffffffffffffffffffffff168573ffffffffffffffffffffffffffffffffffffffff16118015610ed7575073ffffffffffffffffffffffffffffffffffffffff8581165f908152600260205260409020541615155b8015610efa575073ffffffffffffffffffffffffffffffffffffffff8516600114155b610f60576040517f08c379a000000000000000000000000000000000000000000000000000000000815260206004820152600560248201527f475330323600000000000000000000000000000000000000000000000000000060448201526064016107af565b93945084936001016109b7565b50505050505050505050565b5f600173ffffffffffffffffffffffffffffffffffffffff831614801590610fc6575073ffffffffffffffffffffffffffffffffffffffff8281165f908152600160205260409020541615155b92915050565b5f73ffffffffffffffffffffffffffffffffffffffff8216600114801590610fc657505073ffffffffffffffffffffffffffffffffffffffff9081165f9081526002602052604090205416151590565b5f336001148015906110515750335f9081526001602052604090205473ffffffffffffffffffffffffffffffffffffffff1615155b6110b7576040517f08c379a000000000000000000000000000000000000000000000000000000000815260206004820152600560248201527f475331303400000000000000000000000000000000000000000000000000000060448201526064016107af565b6110c4858585855a6129d7565b905080156110fb5760405133907f6895c13664aa4f67288b25d7a21d7aaa34916e355fb9b6fae0a139a9085becb8905f90a2611126565b60405133907facd2c8702804128fdb0db2bb49f6d127dd0181c13fd45dbfe16de0930e2bd375905f90a25b949350505050565b5f606061113d8686868661101c565b915060405160203d0181016040523d81523d5f602083013e8091505094509492505050565b60605f611170836020613ad8565b67ffffffffffffffff81111561118857611188613247565b6040519080825280601f01601f1916602001820160405280156111b2576020820181803683370190505b5090505f5b838110156111d457848101546020808302840101526001016111b7565b509392505050565b6111e461291b565b73ffffffffffffffffffffffffffffffffffffffff811615801590611220575073ffffffffffffffffffffffffffffffffffffffff8116600114155b611286576040517f08c379a000000000000000000000000000000000000000000000000000000000815260206004820152600560248201527f475331303100000000000000000000000000000000000000000000000000000060448201526064016107af565b73ffffffffffffffffffffffffffffffffffffffff8181165f908152600160205260409020541615611314576040517f08c379a000000000000000000000000000000000000000000000000000000000815260206004820152600560248201527f475331303200000000000000000000000000000000000000000000000000000060448201526064016107af565b600160208181527fcc69885fda6bcc1a4ace058b4a62bf5e179ea78fd58a1ccd71c22cc9b688792f805473ffffffffffffffffffffffffffffffffffffffff8581165f81815260408082208054949095167fffffffffffffffffffffffff000000000000000000000000000000000000000094851617909455959095528254168417909155519182527fecdf3a3effea5783a3c4c2140e677577666428d44ed9d474a0b3a4c9943f844091015b60405180910390a150565b6113d461291b565b600354811115611440576040517f08c379a000000000000000000000000000000000000000000000000000000000815260206004820152600560248201527f475332303100000000000000000000000000000000000000000000000000000060448201526064016107af565b60018110156114ab576040517f08c379a000000000000000000000000000000000000000000000000000000000815260206004820152600560248201527f475332303200000000000000000000000000000000000000000000000000000060448201526064016107af565b60048190556040518181527f610f7ff2b304ae8903c3de74c60c6ab1f7d6226b3f52c5161905bb5ad4039c93906020016113c1565b5f805f6114f88e8e8e8e8e8e8e8e8e8e60055461247f565b600580549192505f61150983613a25565b90915550508051602082012091506115228282866118c8565b505f61154c7f4a204f620c8c5ccdca3fd54d003badd85ba500436a431f0cbda4f558c93c34c85490565b905073ffffffffffffffffffffffffffffffffffffffff8116156115e7578073ffffffffffffffffffffffffffffffffffffffff166375f0bb528f8f8f8f8f8f8f8f8f8f8f336040518d63ffffffff1660e01b81526004016115b99c9b9a99989796959493929190613b55565b5f604051808303815f87803b1580156115d0575f80fd5b505af11580156115e2573d5f803e3d5ffd5b505050505b6116136115f68a6109c4613c69565b603f6116038c6040613ad8565b61160d9190613c7c565b90612a1b565b61161f906101f4613c69565b5a1015611688576040517f08c379a000000000000000000000000000000000000000000000000000000000815260206004820152600560248201527f475330313000000000000000000000000000000000000000000000000000000060448201526064016107af565b5f5a90506116f68f8f8f8f8080601f0160208091040260200160405190810160405280939291908181526020018383808284375f81840152601f19601f820116905080830192505050505050508e8c5f146116e3578e6129d7565b6109c45a6116f19190613cb4565b6129d7565b93506117035a8290612a31565b9050838061171057508915155b8061171a57508715155b611780576040517f08c379a000000000000000000000000000000000000000000000000000000000815260206004820152600560248201527f475330313300000000000000000000000000000000000000000000000000000060448201526064016107af565b5f881561179757611794828b8b8b8b612a49565b90505b84156117db5760408051858152602081018390527f442e715f626346e8c54381002da614f62bee8d27386535b2521ec8540898556e910160405180910390a1611815565b60408051858152602081018390527f23428b18acfb3ea64b08dc0c1d296ea9c09702c09083ca5272e64d115b687d23910160405180910390a15b505073ffffffffffffffffffffffffffffffffffffffff8116156118b7576040517f9327136800000000000000000000000000000000000000000000000000000000815260048101839052831515602482015273ffffffffffffffffffffffffffffffffffffffff8216906393271368906044015f604051808303815f87803b1580156118a0575f80fd5b505af11580156118b2573d5f803e3d5ffd5b505050505b50509b9a5050505050505050505050565b60045480611932576040517f08c379a000000000000000000000000000000000000000000000000000000000815260206004820152600560248201527f475330303100000000000000000000000000000000000000000000000000000060448201526064016107af565b61193e8484848461093b565b50505050565b60605f60035467ffffffffffffffff81111561196257611962613247565b60405190808252806020026020018201604052801561198b578160200160208202803683370190505b5060015f90815260026020527fe90b7bceb6e7df5418fb78d8ee546e97c83a08bbccc01a0644d599ccd2a7c2e0549192509073ffffffffffffffffffffffffffffffffffffffff165b73ffffffffffffffffffffffffffffffffffffffff8116600114611a515780838381518110611a0557611a05613cc7565b73ffffffffffffffffffffffffffffffffffffffff9283166020918202929092018101919091529181165f90815260029092526040909120541681611a4981613a25565b9250506119d4565b509092915050565b5f80825160208401855af4805f52503d6020523d5f60403e60403d015ffd5b611ab58a8a808060200260200160405190810160405280939291908181526020018383602002808284375f920191909152508c9250612bd8915050565b73ffffffffffffffffffffffffffffffffffffffff841615611af957611af9847f6c9a6c4a39284e37ed1cf53d337577d14212a4870fb976a4366c693b939918d555565b611b388787878080601f0160208091040260200160405190810160405280939291908181526020018383808284375f92019190915250612f9592505050565b8115611b4e57611b4c825f60018685612a49565b505b3373ffffffffffffffffffffffffffffffffffffffff167f141df868a6331af528e38c83b7aa03edc19be66e37ae67f9285bf4f8e3c6a1a88b8b8b8b89604051611b9c959493929190613cf4565b60405180910390a250505050505050505050565b5f805a9050611bf7878787878080601f0160208091040260200160405190810160405280939291908181526020018383808284375f9201919091525089925050505a6129d7565b611bff575f80fd5b5f5a611c0b9083613cb4565b905080604051602001611c2091815260200190565b604080517fffffffffffffffffffffffffffffffffffffffffffffffffffffffffffffffe0818403018152908290527f08c379a00000000000000000000000000000000000000000000000000000000082526107af916004016134a0565b60605f8267ffffffffffffffff811115611c9a57611c9a613247565b604051908082528060200260200182016040528015611cc3578160200160208202803683370190505b5073ffffffffffffffffffffffffffffffffffffffff8086165f9081526001602052604081205492945091165b73ffffffffffffffffffffffffffffffffffffffff811615801590611d2c575073ffffffffffffffffffffffffffffffffffffffff8116600114155b8015611d3757508482105b15611d9b5780848381518110611d4f57611d4f613cc7565b73ffffffffffffffffffffffffffffffffffffffff9283166020918202929092018101919091529181165f90815260019092526040909120541681611d9381613a25565b925050611cf0565b908352919491935090915050565b335f9081526002602052604090205473ffffffffffffffffffffffffffffffffffffffff16611e34576040517f08c379a000000000000000000000000000000000000000000000000000000000815260206004820152600560248201527f475330333000000000000000000000000000000000000000000000000000000060448201526064016107af565b335f818152600860209081526040808320858452909152808220600190555183917ff2a0eb156472d1440255b0d7c1e19cc07115d1051fe605b0dce69acfec884d9c91a350565b5f611e8f8c8c8c8c8c8c8c8c8c8c8c61247f565b8051906020012090509b9a5050505050505050505050565b611eaf61291b565b73ffffffffffffffffffffffffffffffffffffffff811615801590611eeb575073ffffffffffffffffffffffffffffffffffffffff8116600114155b611f51576040517f08c379a000000000000000000000000000000000000000000000000000000000815260206004820152600560248201527f475331303100000000000000000000000000000000000000000000000000000060448201526064016107af565b73ffffffffffffffffffffffffffffffffffffffff8281165f90815260016020526040902054811690821614611fe3576040517f08c379a000000000000000000000000000000000000000000000000000000000815260206004820152600560248201527f475331303300000000000000000000000000000000000000000000000000000060448201526064016107af565b73ffffffffffffffffffffffffffffffffffffffff8181165f818152600160209081526040808320805488871685528285208054919097167fffffffffffffffffffffffff00000000000000000000000000000000000000009182161790965592849052825490941690915591519081527faab4fa2b463f581b2b32cb3b7e3b704b9ce37cc209b5fb4d77e593ace405427691015b60405180910390a15050565b61208c61291b565b7f4a204f620c8c5ccdca3fd54d003badd85ba500436a431f0cbda4f558c93c34c881815560405173ffffffffffffffffffffffffffffffffffffffff831681527f1151116914515bc0891ff9047a6cb32cf902546f83066499bcf8ba33d2353fa290602001612078565b6120fe61291b565b73ffffffffffffffffffffffffffffffffffffffff81161580159061213a575073ffffffffffffffffffffffffffffffffffffffff8116600114155b801561215c575073ffffffffffffffffffffffffffffffffffffffff81163014155b6121c2576040517f08c379a000000000000000000000000000000000000000000000000000000000815260206004820152600560248201527f475332303300000000000000000000000000000000000000000000000000000060448201526064016107af565b73ffffffffffffffffffffffffffffffffffffffff8181165f908152600260205260409020541615612250576040517f08c379a000000000000000000000000000000000000000000000000000000000815260206004820152600560248201527f475332303400000000000000000000000000000000000000000000000000000060448201526064016107af565b73ffffffffffffffffffffffffffffffffffffffff82161580159061228c575073ffffffffffffffffffffffffffffffffffffffff8216600114155b6122f2576040517f08c379a000000000000000000000000000000000000000000000000000000000815260206004820152600560248201527f475332303300000000000000000000000000000000000000000000000000000060448201526064016107af565b73ffffffffffffffffffffffffffffffffffffffff8381165f90815260026020526040902054811690831614612384576040517f08c379a000000000000000000000000000000000000000000000000000000000815260206004820152600560248201527f475332303500000000000000000000000000000000000000000000000000000060448201526064016107af565b73ffffffffffffffffffffffffffffffffffffffff8281165f818152600260209081526040808320805487871680865283862080549289167fffffffffffffffffffffffff0000000000000000000000000000000000000000938416179055968a1685528285208054821690971790965592849052825490941690915591519081527ff8d49fc529812e9a7c5c50e69c20f0dccc0db8fa95c98bc58cc9a4f1c1299eaf910160405180910390a160405173ffffffffffffffffffffffffffffffffffffffff821681527f9465fa0c962cc76958e6373a993326400c1c94f8be2fe3a952adfa7f60b2ea269060200160405180910390a1505050565b60605f7fbb8310d486368db6bd6f849402fdd73ad53d316b5a4b2644ad6efe0f941286d85f1b8d8d8d8d6040516124b7929190613d79565b6040519081900381206124dd949392918e908e908e908e908e908e908e90602001613d88565b604080517fffffffffffffffffffffffffffffffffffffffffffffffffffffffffffffffe0818403018152919052805160209091012090507f19000000000000000000000000000000000000000000000000000000000000007f01000000000000000000000000000000000000000000000000000000000000006125b05f7f47e79534a245952e8b16893a336b85a3d9ea9fa8c573f3d803afb92a794692184660408051602081019390935282015230606082015260800160405160208183030381529060405280519060200120905090565b6040517fff0000000000000000000000000000000000000000000000000000000000000093841660208201529290911660218301526022820152604281018290526062016040516020818303038152906040529150509b9a5050505050505050505050565b61261d61291b565b612645817f6c9a6c4a39284e37ed1cf53d337577d14212a4870fb976a4366c693b939918d555565b60405173ffffffffffffffffffffffffffffffffffffffff821681527f5ac6c46c93c8d0e53714ba3b53db3e7c046da994313d7ed0d192028bc7c228b0906020016113c1565b61269361291b565b8060016003546126a39190613cb4565b101561270b576040517f08c379a000000000000000000000000000000000000000000000000000000000815260206004820152600560248201527f475332303100000000000000000000000000000000000000000000000000000060448201526064016107af565b73ffffffffffffffffffffffffffffffffffffffff821615801590612747575073ffffffffffffffffffffffffffffffffffffffff8216600114155b6127ad576040517f08c379a000000000000000000000000000000000000000000000000000000000815260206004820152600560248201527f475332303300000000000000000000000000000000000000000000000000000060448201526064016107af565b73ffffffffffffffffffffffffffffffffffffffff8381165f9081526002602052604090205481169083161461283f576040517f08c379a000000000000000000000000000000000000000000000000000000000815260206004820152600560248201527f475332303500000000000000000000000000000000000000000000000000000060448201526064016107af565b73ffffffffffffffffffffffffffffffffffffffff8281165f81815260026020526040808220805488861684529183208054929095167fffffffffffffffffffffffff000000000000000000000000000000000000000092831617909455918152825490911690915560038054916128b683613e04565b909155505060405173ffffffffffffffffffffffffffffffffffffffff831681527ff8d49fc529812e9a7c5c50e69c20f0dccc0db8fa95c98bc58cc9a4f1c1299eaf9060200160405180910390a1806004541461291657612916816113cc565b505050565b333014612984576040517f08c379a000000000000000000000000000000000000000000000000000000000815260206004820152600560248201527f475330333100000000000000000000000000000000000000000000000000000060448201526064016107af565b565b5f825f0361299557505f610fc6565b5f6129a08385613ad8565b9050826129ad8583613c7c565b146129b6575f80fd5b9392505050565b5f806129c98385613c69565b9050838110156129b6575f80fd5b5f60018360018111156129ec576129ec613aef565b03612a03575f808551602087018986f49050612a12565b5f80855160208701888a87f190505b95945050505050565b5f81831015612a2a57816129b6565b5090919050565b5f82821115612a3e575f80fd5b5f6111268385613cb4565b5f8073ffffffffffffffffffffffffffffffffffffffff831615612a6d5782612a6f565b325b905073ffffffffffffffffffffffffffffffffffffffff8416612b4d57612aae3a8610612a9c573a612a9e565b855b612aa889896129bd565b90612986565b60405190925073ffffffffffffffffffffffffffffffffffffffff82169083156108fc029084905f818181858888f19350505050612b48576040517f08c379a000000000000000000000000000000000000000000000000000000000815260206004820152600560248201527f475330313100000000000000000000000000000000000000000000000000000060448201526064016107af565b612bce565b612b5b85612aa889896129bd565b9150612b68848284613122565b612bce576040517f08c379a000000000000000000000000000000000000000000000000000000000815260206004820152600560248201527f475330313200000000000000000000000000000000000000000000000000000060448201526064016107af565b5095945050505050565b60045415612c42576040517f08c379a000000000000000000000000000000000000000000000000000000000815260206004820152600560248201527f475332303000000000000000000000000000000000000000000000000000000060448201526064016107af565b8151811115612cad576040517f08c379a000000000000000000000000000000000000000000000000000000000815260206004820152600560248201527f475332303100000000000000000000000000000000000000000000000000000060448201526064016107af565b6001811015612d18576040517f08c379a000000000000000000000000000000000000000000000000000000000815260206004820152600560248201527f475332303200000000000000000000000000000000000000000000000000000060448201526064016107af565b60015f5b8351811015612f3e575f848281518110612d3857612d38613cc7565b602002602001015190505f73ffffffffffffffffffffffffffffffffffffffff168173ffffffffffffffffffffffffffffffffffffffff1614158015612d95575073ffffffffffffffffffffffffffffffffffffffff8116600114155b8015612db7575073ffffffffffffffffffffffffffffffffffffffff81163014155b8015612def57508073ffffffffffffffffffffffffffffffffffffffff168373ffffffffffffffffffffffffffffffffffffffff1614155b612e55576040517f08c379a000000000000000000000000000000000000000000000000000000000815260206004820152600560248201527f475332303300000000000000000000000000000000000000000000000000000060448201526064016107af565b73ffffffffffffffffffffffffffffffffffffffff8181165f908152600260205260409020541615612ee3576040517f08c379a000000000000000000000000000000000000000000000000000000000815260206004820152600560248201527f475332303400000000000000000000000000000000000000000000000000000060448201526064016107af565b73ffffffffffffffffffffffffffffffffffffffff9283165f90815260026020526040902080547fffffffffffffffffffffffff00000000000000000000000000000000000000001693821693909317909255600101612d1c565b5073ffffffffffffffffffffffffffffffffffffffff165f90815260026020526040902080547fffffffffffffffffffffffff00000000000000000000000000000000000000001660011790559051600355600455565b60015f8190526020527fcc69885fda6bcc1a4ace058b4a62bf5e179ea78fd58a1ccd71c22cc9b688792f5473ffffffffffffffffffffffffffffffffffffffff161561303d576040517f08c379a000000000000000000000000000000000000000000000000000000000815260206004820152600560248201527f475331303000000000000000000000000000000000000000000000000000000060448201526064016107af565b60015f81905260208190527fcc69885fda6bcc1a4ace058b4a62bf5e179ea78fd58a1ccd71c22cc9b688792f80547fffffffffffffffffffffffff000000000000000000000000000000000000000016909117905573ffffffffffffffffffffffffffffffffffffffff821615610937576130bc825f8360015a6129d7565b610937576040517f08c379a000000000000000000000000000000000000000000000000000000000815260206004820152600560248201527f475330303000000000000000000000000000000000000000000000000000000060448201526064016107af565b6040805173ffffffffffffffffffffffffffffffffffffffff841660248201526044808201849052825180830390910181526064909101909152602080820180517bffffffffffffffffffffffffffffffffffffffffffffffffffffffff167fa9059cbb0000000000000000000000000000000000000000000000000000000017815282515f93929184919082896127105a03f13d80156131cd57602081146131d5575f93506131df565b8193506131df565b5f51158215171593505b5050509392505050565b73ffffffffffffffffffffffffffffffffffffffff8116811461320a575f80fd5b50565b8035613218816131e9565b919050565b5f806040838503121561322e575f80fd5b8235613239816131e9565b946020939093013593505050565b7f4e487b71000000000000000000000000000000000000000000000000000000005f52604160045260245ffd5b5f82601f830112613283575f80fd5b813567ffffffffffffffff8082111561329e5761329e613247565b604051601f83017fffffffffffffffffffffffffffffffffffffffffffffffffffffffffffffffe0908116603f011681019082821181831017156132e4576132e4613247565b816040528381528660208588010111156132fc575f80fd5b836020870160208301375f602085830101528094505050505092915050565b5f805f806080858703121561332e575f80fd5b84359350602085013567ffffffffffffffff8082111561334c575f80fd5b61335888838901613274565b9450604087013591508082111561336d575f80fd5b5061337a87828801613274565b949793965093946060013593505050565b5f6020828403121561339b575f80fd5b81356129b6816131e9565b803560028110613218575f80fd5b5f805f80608085870312156133c7575f80fd5b84356133d2816131e9565b935060208501359250604085013567ffffffffffffffff8111156133f4575f80fd5b61340087828801613274565b92505061340f606086016133a6565b905092959194509250565b5f81518084528060208401602086015e5f6020828601015260207fffffffffffffffffffffffffffffffffffffffffffffffffffffffffffffffe0601f83011685010191505092915050565b8215158152604060208201525f611126604083018461341a565b5f8060408385031215613491575f80fd5b50508035926020909101359150565b602081525f6129b6602083018461341a565b5f602082840312156134c2575f80fd5b5035919050565b5f8083601f8401126134d9575f80fd5b50813567ffffffffffffffff8111156134f0575f80fd5b602083019150836020828501011115613507575f80fd5b9250929050565b5f805f805f805f805f805f6101408c8e031215613529575f80fd5b6135328c61320d565b9a5060208c0135995067ffffffffffffffff8060408e01351115613554575f80fd5b6135648e60408f01358f016134c9565b909a50985061357560608e016133a6565b975060808d0135965060a08d0135955060c08d0135945061359860e08e0161320d565b93506135a76101008e0161320d565b9250806101208e013511156135ba575f80fd5b506135cc8d6101208e01358e01613274565b90509295989b509295989b9093969950565b5f805f606084860312156135f0575f80fd5b83359250602084013567ffffffffffffffff8082111561360e575f80fd5b61361a87838801613274565b9350604086013591508082111561362f575f80fd5b5061363c86828701613274565b9150509250925092565b5f815180845260208085019450602084015f5b8381101561368b57815173ffffffffffffffffffffffffffffffffffffffff1687529582019590820190600101613659565b509495945050505050565b602081525f6129b66020830184613646565b5f80604083850312156136b9575f80fd5b82356136c4816131e9565b9150602083013567ffffffffffffffff8111156136df575f80fd5b6136eb85828601613274565b9150509250929050565b5f805f805f805f805f806101008b8d03121561370f575f80fd5b8a3567ffffffffffffffff80821115613726575f80fd5b818d0191508d601f830112613739575f80fd5b813581811115613747575f80fd5b8e60208260051b850101111561375b575f80fd5b60208381019d50909b508d0135995061377660408e0161320d565b985060608d013591508082111561378b575f80fd5b506137988d828e016134c9565b90975095506137ab905060808c0161320d565b93506137b960a08c0161320d565b925060c08b013591506137ce60e08c0161320d565b90509295989b9194979a5092959850565b5f805f805f608086880312156137f3575f80fd5b85356137fe816131e9565b945060208601359350604086013567ffffffffffffffff811115613820575f80fd5b61382c888289016134c9565b909450925061383f9050606087016133a6565b90509295509295909350565b604081525f61385d6040830185613646565b905073ffffffffffffffffffffffffffffffffffffffff831660208301529392505050565b5f805f805f805f805f805f6101408c8e03121561389d575f80fd5b8b356138a8816131e9565b9a5060208c0135995060408c013567ffffffffffffffff8111156138ca575f80fd5b6138d68e828f016134c9565b909a5098506138e9905060608d016133a6565b965060808c0135955060a08c0135945060c08c0135935060e08c013561390e816131e9565b92506101008c013561391f816131e9565b809250506101208c013590509295989b509295989b9093969950565b5f806040838503121561394c575f80fd5b8235613957816131e9565b91506020830135613967816131e9565b809150509250929050565b5f805f60608486031215613984575f80fd5b833561398f816131e9565b9250602084013561399f816131e9565b915060408401356139af816131e9565b809150509250925092565b5f805f606084860312156139cc575f80fd5b83356139d7816131e9565b925060208401356139e7816131e9565b929592945050506040919091013590565b7f4e487b71000000000000000000000000000000000000000000000000000000005f52601160045260245ffd5b5f7fffffffffffffffffffffffffffffffffffffffffffffffffffffffffffffffff8203613a5557613a556139f8565b5060010190565b604081525f613a6e604083018561341a565b8281036020840152612a12818561341a565b5f60208284031215613a90575f80fd5b81517fffffffff00000000000000000000000000000000000000000000000000000000811681146129b6575f80fd5b60ff8281168282160390811115610fc657610fc66139f8565b8082028115828204841417610fc657610fc66139f8565b7f4e487b71000000000000000000000000000000000000000000000000000000005f52602160045260245ffd5b60028110613b51577f4e487b71000000000000000000000000000000000000000000000000000000005f52602160045260245ffd5b9052565b5f61016073ffffffffffffffffffffffffffffffffffffffff8f1683528d60208401528060408401528b81840152506101808b8d828501375f818d850101527fffffffffffffffffffffffffffffffffffffffffffffffffffffffffffffffe0601f8d01168301613bc9606085018d613b1c565b8a60808501528960a08501528860c0850152613bfd60e085018973ffffffffffffffffffffffffffffffffffffffff169052565b73ffffffffffffffffffffffffffffffffffffffff87166101008501528184820301610120850152613c318282018761341a565b92505050613c5861014083018473ffffffffffffffffffffffffffffffffffffffff169052565b9d9c50505050505050505050505050565b80820180821115610fc657610fc66139f8565b5f82613caf577f4e487b71000000000000000000000000000000000000000000000000000000005f52601260045260245ffd5b500490565b81810381811115610fc657610fc66139f8565b7f4e487b71000000000000000000000000000000000000000000000000000000005f52603260045260245ffd5b608080825281018590525f8660a08301825b88811015613d43578235613d19816131e9565b73ffffffffffffffffffffffffffffffffffffffff16825260209283019290910190600101613d06565b506020840196909652505073ffffffffffffffffffffffffffffffffffffffff9283166040820152911660609091015292915050565b818382375f9101908152919050565b5f610160820190508c825273ffffffffffffffffffffffffffffffffffffffff808d1660208401528b60408401528a6060840152613dc9608084018b613b1c565b60a083019890985260c082019690965260e0810194909452918516610100840152909316610120820152610140019190915295945050505050565b5f81613e1257613e126139f8565b507fffffffffffffffffffffffffffffffffffffffffffffffffffffffffffffffff019056fea164736f6c6343000819000a6080604052348015600e575f80fd5b50610b228061001c5f395ff3fe608060405234801561000f575f80fd5b506004361061006f575f3560e01c806361b69abd1161004d57806361b69abd146100d8578063addacc0f146100eb578063d18af54d146100f3575f80fd5b80631688f0b9146100735780632500510e146100b057806353e5d935146100c3575b5f80fd5b6100866100813660046106ea565b610106565b60405173ffffffffffffffffffffffffffffffffffffffff90911681526020015b60405180910390f35b6100866100be36600461073f565b610189565b6100cb610267565b6040516100a7919061080f565b6100866100e6366004610828565b6102af565b6100cb61036a565b610086610101366004610875565b61037c565b5f610112848484610491565b835190915015610132575f805f8551602087015f865af103610132575f80fd5b6040805173ffffffffffffffffffffffffffffffffffffffff8084168252861660208201527f4f51faf6c4561ff95f067657e43439f0f856d97c04d9ec9070a6199ad418e235910160405180910390a19392505050565b5f6101cb8585858080601f0160208091040260200160405190810160405280939291908181526020018383808284375f92019190915250879250610491915050565b6040517fffffffffffffffffffffffffffffffffffffffff000000000000000000000000606083901b166020820152909150603401604080517fffffffffffffffffffffffffffffffffffffffffffffffffffffffffffffffe0818403018152908290527f08c379a000000000000000000000000000000000000000000000000000000000825261025e9160040161080f565b60405180910390fd5b606060405180602001610279906105d9565b7fffffffffffffffffffffffffffffffffffffffffffffffffffffffffffffffe082820381018352601f90910116604052919050565b5f826040516102bd906105d9565b73ffffffffffffffffffffffffffffffffffffffff9091168152602001604051809103905ff0801580156102f3573d5f803e3d5ffd5b50825190915015610314575f805f8451602086015f865af103610314575f80fd5b6040805173ffffffffffffffffffffffffffffffffffffffff8084168252851660208201527f4f51faf6c4561ff95f067657e43439f0f856d97c04d9ec9070a6199ad418e235910160405180910390a192915050565b606060405180602001610279906105e6565b5f8083836040516020016103bf92919091825260601b7fffffffffffffffffffffffffffffffffffffffff00000000000000000000000016602082015260340190565b604051602081830303815290604052805190602001205f1c90506103e4868683610106565b915073ffffffffffffffffffffffffffffffffffffffff831615610488576040517f1e52b51800000000000000000000000000000000000000000000000000000000815273ffffffffffffffffffffffffffffffffffffffff841690631e52b5189061045a9085908a908a908a906004016108dd565b5f604051808303815f87803b158015610471575f80fd5b505af1158015610483573d5f803e3d5ffd5b505050505b50949350505050565b5f808380519060200120836040516020016104b6929190918252602082015260400190565b6040516020818303038152906040528051906020012090505f604051806020016104df906105d9565b7fffffffffffffffffffffffffffffffffffffffffffffffffffffffffffffffe082820381018352601f909101166040819052610537919073ffffffffffffffffffffffffffffffffffffffff891690602001610926565b6040516020818303038152906040529050818151826020015ff5925073ffffffffffffffffffffffffffffffffffffffff83166105d0576040517f08c379a000000000000000000000000000000000000000000000000000000000815260206004820152601360248201527f437265617465322063616c6c206661696c656400000000000000000000000000604482015260640161025e565b50509392505050565b61015f8061094183390190565b607680610aa083390190565b73ffffffffffffffffffffffffffffffffffffffff81168114610613575f80fd5b50565b7f4e487b71000000000000000000000000000000000000000000000000000000005f52604160045260245ffd5b5f82601f830112610652575f80fd5b813567ffffffffffffffff8082111561066d5761066d610616565b604051601f83017fffffffffffffffffffffffffffffffffffffffffffffffffffffffffffffffe0908116603f011681019082821181831017156106b3576106b3610616565b816040528381528660208588010111156106cb575f80fd5b836020870160208301375f602085830101528094505050505092915050565b5f805f606084860312156106fc575f80fd5b8335610707816105f2565b9250602084013567ffffffffffffffff811115610722575f80fd5b61072e86828701610643565b925050604084013590509250925092565b5f805f8060608587031215610752575f80fd5b843561075d816105f2565b9350602085013567ffffffffffffffff80821115610779575f80fd5b818701915087601f83011261078c575f80fd5b81358181111561079a575f80fd5b8860208285010111156107ab575f80fd5b95986020929092019750949560400135945092505050565b5f81518084528060208401602086015e5f6020828601015260207fffffffffffffffffffffffffffffffffffffffffffffffffffffffffffffffe0601f83011685010191505092915050565b602081525f61082160208301846107c3565b9392505050565b5f8060408385031215610839575f80fd5b8235610844816105f2565b9150602083013567ffffffffffffffff81111561085f575f80fd5b61086b85828601610643565b9150509250929050565b5f805f8060808587031215610888575f80fd5b8435610893816105f2565b9350602085013567ffffffffffffffff8111156108ae575f80fd5b6108ba87828801610643565b9350506040850135915060608501356108d2816105f2565b939692955090935050565b5f73ffffffffffffffffffffffffffffffffffffffff80871683528086166020840152506080604083015261091560808301856107c3565b905082606083015295945050505050565b5f83518060208601845e919091019182525060200191905056fe6080604052348015600e575f80fd5b5060405161015f38038061015f833981016040819052602b9160b2565b6001600160a01b038116608f5760405162461bcd60e51b815260206004820152602260248201527f496e76616c69642073696e676c65746f6e20616464726573732070726f766964604482015261195960f21b606482015260840160405180910390fd5b5f80546001600160a01b0319166001600160a01b039290921691909117905560dd565b5f6020828403121560c1575f80fd5b81516001600160a01b038116811460d6575f80fd5b9392505050565b6076806100e95f395ff3fe608060405273ffffffffffffffffffffffffffffffffffffffff5f54167fa619486e000000000000000000000000000000000000000000000000000000005f3503604b57805f5260205ff35b365f80375f80365f845af490503d5f803e806064573d5ffd5b503d5ff3fea164736f6c6343000819000a608060405273ffffffffffffffffffffffffffffffffffffffff5f54167fa619486e000000000000000000000000000000000000000000000000000000005f3503604b57805f5260205ff35b365f80375f80365f845af490503d5f803e806064573d5ffd5b503d5ff3fea164736f6c6343000819000aa164736f6c6343000819000a6080604052348015600e575f80fd5b506110848061001c5f395ff3fe608060405234801561000f575f80fd5b50600436106100c3575f3560e01c806320c13b0b1161007d578063bc197c8111610058578063bc197c81146101e1578063bd61951d1461021c578063f23a6e611461023c575f80fd5b806320c13b0b146101a65780636ac24784146101b9578063b2494df3146101cc575f80fd5b80630a1028c4116100ad5780630a1028c414610109578063150b7a021461012a5780631626ba7e14610193575f80fd5b806223de29146100c757806301ffc9a7146100e1575b5f80fd5b6100df6100d5366004610918565b5050505050505050565b005b6100f46100ef3660046109ef565b610275565b60405190151581526020015b60405180910390f35b61011c610117366004610b10565b610359565b604051908152602001610100565b610162610138366004610b4a565b7f150b7a020000000000000000000000000000000000000000000000000000000095945050505050565b6040517fffffffff000000000000000000000000000000000000000000000000000000009091168152602001610100565b6101626101a1366004610bb8565b610364565b6101626101b4366004610c00565b610481565b61011c6101c7366004610c60565b610669565b6101d46107a2565b6040516101009190610ca3565b6101626101ef366004610d3d565b7fbc197c810000000000000000000000000000000000000000000000000000000098975050505050505050565b61022f61022a366004610dd3565b61084f565b6040516101009190610e57565b61016261024a366004610e69565b7ff23a6e61000000000000000000000000000000000000000000000000000000009695505050505050565b5f7fffffffff0000000000000000000000000000000000000000000000000000000082167f4e2312e000000000000000000000000000000000000000000000000000000000148061030757507fffffffff0000000000000000000000000000000000000000000000000000000082167f150b7a0200000000000000000000000000000000000000000000000000000000145b8061035357507fffffffff0000000000000000000000000000000000000000000000000000000082167f01ffc9a700000000000000000000000000000000000000000000000000000000145b92915050565b5f6103533383610669565b60408051602080820186905282518083039091018152818301928390527f20c13b0b000000000000000000000000000000000000000000000000000000009092525f913391839183916320c13b0b916103c39189908990604401610ee0565b602060405180830381865afa1580156103de573d5f803e3d5ffd5b505050506040513d601f19601f820116820180604052508101906104029190610f42565b90507fffffffff0000000000000000000000000000000000000000000000000000000081167f20c13b0b0000000000000000000000000000000000000000000000000000000014610453575f610475565b7f1626ba7e000000000000000000000000000000000000000000000000000000005b925050505b9392505050565b5f338161048e8286610669565b905083515f036105bc576040517f5ae6bd370000000000000000000000000000000000000000000000000000000081526004810182905273ffffffffffffffffffffffffffffffffffffffff831690635ae6bd3790602401602060405180830381865afa158015610501573d5f803e3d5ffd5b505050506040513d601f19601f820116820180604052508101906105259190610f5d565b5f036105b7576040517f08c379a000000000000000000000000000000000000000000000000000000000815260206004820152602f60248201527f436f6d7061746962696c69747946616c6c6261636b48616e646c65723a20486160448201527f7368206e6f7420617070726f7665640000000000000000000000000000000000606482015260840160405180910390fd5b61063f565b6040517f934f3a1100000000000000000000000000000000000000000000000000000000815273ffffffffffffffffffffffffffffffffffffffff83169063934f3a119061061290849089908990600401610f74565b5f6040518083038186803b158015610628575f80fd5b505afa15801561063a573d5f803e3d5ffd5b505050505b507f20c13b0b00000000000000000000000000000000000000000000000000000000949350505050565b5f807f60b3cbf8b4a223d68d641b3b6ddf9a298e7f33710cf3d3a9d1146b5a6150fbca5f1b83805190602001206040516020016106b0929190918252602082015260400190565b604051602081830303815290604052805190602001209050601960f81b600160f81b8573ffffffffffffffffffffffffffffffffffffffff1663f698da256040518163ffffffff1660e01b8152600401602060405180830381865afa15801561071b573d5f803e3d5ffd5b505050506040513d601f19601f8201168201806040525081019061073f9190610f5d565b6040517fff0000000000000000000000000000000000000000000000000000000000000093841660208201529290911660218301526022820152604281018290526062016040516020818303038152906040528051906020012091505092915050565b6040517fcc2f845200000000000000000000000000000000000000000000000000000000815260016004820152600a602482015260609033905f90829063cc2f8452906044015f60405180830381865afa158015610802573d5f803e3d5ffd5b505050506040513d5f823e601f3d9081017fffffffffffffffffffffffffffffffffffffffffffffffffffffffffffffffe01682016040526108479190810190610fb8565b509392505050565b60606040517fb4faba090000000000000000000000000000000000000000000000000000000081526004360360048083013760205f36835f335af1505060203d036040519150808201604052806020833e505f5161047a57805160208201fd5b73ffffffffffffffffffffffffffffffffffffffff811681146108d0575f80fd5b50565b5f8083601f8401126108e3575f80fd5b50813567ffffffffffffffff8111156108fa575f80fd5b602083019150836020828501011115610911575f80fd5b9250929050565b5f805f805f805f8060c0898b03121561092f575f80fd5b883561093a816108af565b9750602089013561094a816108af565b9650604089013561095a816108af565b955060608901359450608089013567ffffffffffffffff8082111561097d575f80fd5b6109898c838d016108d3565b909650945060a08b01359150808211156109a1575f80fd5b506109ae8b828c016108d3565b999c989b5096995094979396929594505050565b7fffffffff00000000000000000000000000000000000000000000000000000000811681146108d0575f80fd5b5f602082840312156109ff575f80fd5b813561047a816109c2565b7f4e487b71000000000000000000000000000000000000000000000000000000005f52604160045260245ffd5b604051601f82017fffffffffffffffffffffffffffffffffffffffffffffffffffffffffffffffe016810167ffffffffffffffff81118282101715610a7e57610a7e610a0a565b604052919050565b5f82601f830112610a95575f80fd5b813567ffffffffffffffff811115610aaf57610aaf610a0a565b610ae060207fffffffffffffffffffffffffffffffffffffffffffffffffffffffffffffffe0601f84011601610a37565b818152846020838601011115610af4575f80fd5b816020850160208301375f918101602001919091529392505050565b5f60208284031215610b20575f80fd5b813567ffffffffffffffff811115610b36575f80fd5b610b4284828501610a86565b949350505050565b5f805f805f60808688031215610b5e575f80fd5b8535610b69816108af565b94506020860135610b79816108af565b935060408601359250606086013567ffffffffffffffff811115610b9b575f80fd5b610ba7888289016108d3565b969995985093965092949392505050565b5f805f60408486031215610bca575f80fd5b83359250602084013567ffffffffffffffff811115610be7575f80fd5b610bf3868287016108d3565b9497909650939450505050565b5f8060408385031215610c11575f80fd5b823567ffffffffffffffff80821115610c28575f80fd5b610c3486838701610a86565b93506020850135915080821115610c49575f80fd5b50610c5685828601610a86565b9150509250929050565b5f8060408385031215610c71575f80fd5b8235610c7c816108af565b9150602083013567ffffffffffffffff811115610c97575f80fd5b610c5685828601610a86565b602080825282518282018190525f9190848201906040850190845b81811015610cf057835173ffffffffffffffffffffffffffffffffffffffff1683529284019291840191600101610cbe565b50909695505050505050565b5f8083601f840112610d0c575f80fd5b50813567ffffffffffffffff811115610d23575f80fd5b6020830191508360208260051b8501011115610911575f80fd5b5f805f805f805f8060a0898b031215610d54575f80fd5b8835610d5f816108af565b97506020890135610d6f816108af565b9650604089013567ffffffffffffffff80821115610d8b575f80fd5b610d978c838d01610cfc565b909850965060608b0135915080821115610daf575f80fd5b610dbb8c838d01610cfc565b909650945060808b01359150808211156109a1575f80fd5b5f805f60408486031215610de5575f80fd5b8335610df0816108af565b9250602084013567ffffffffffffffff811115610be7575f80fd5b5f81518084528060208401602086015e5f6020828601015260207fffffffffffffffffffffffffffffffffffffffffffffffffffffffffffffffe0601f83011685010191505092915050565b602081525f61047a6020830184610e0b565b5f805f805f8060a08789031215610e7e575f80fd5b8635610e89816108af565b95506020870135610e99816108af565b94506040870135935060608701359250608087013567ffffffffffffffff811115610ec2575f80fd5b610ece89828a016108d3565b979a9699509497509295939492505050565b604081525f610ef26040830186610e0b565b8281036020840152838152838560208301375f6020858301015260207fffffffffffffffffffffffffffffffffffffffffffffffffffffffffffffffe0601f860116820101915050949350505050565b5f60208284031215610f52575f80fd5b815161047a816109c2565b5f60208284031215610f6d575f80fd5b5051919050565b838152606060208201525f610f8c6060830185610e0b565b8281036040840152610f9e8185610e0b565b9695505050505050565b8051610fb3816108af565b919050565b5f8060408385031215610fc9575f80fd5b825167ffffffffffffffff80821115610fe0575f80fd5b818501915085601f830112610ff3575f80fd5b815160208282111561100757611007610a0a565b8160051b9250611018818401610a37565b8281529284018101928181019089851115611031575f80fd5b948201945b8486101561105b578551935061104b846108af565b8382529482019490820190611036565b965061106a9050878201610fa8565b945050505050925092905056fea164736f6c6343000819000a","linkReferences":{}},"methodIdentifiers":{"_setupSafe()":"b38b4717","_setupSafe(uint256[],uint256)":"080df7f1","_setupSafe(uint256[],uint256,uint256)":"4867cf9a","_setupSafe(uint256[],uint256,uint256,(bool,uint256,address,bytes,uint256,address,address,bytes))":"403b551a","getSafe()":"68bc573e","getSafe(address)":"894adc65"},"storageLayout":{"storage":[{"astId":97919,"contract":"test/safe-tools/SafeTestTools.sol:SafeTestTools","label":"singleton","offset":0,"slot":"0","type":"t_contract(GnosisSafe)53029"},{"astId":97926,"contract":"test/safe-tools/SafeTestTools.sol:SafeTestTools","label":"proxyFactory","offset":0,"slot":"1","type":"t_contract(GnosisSafeProxyFactory)54840"},{"astId":97933,"contract":"test/safe-tools/SafeTestTools.sol:SafeTestTools","label":"handler","offset":0,"slot":"2","type":"t_contract(CompatibilityFallbackHandler)96480"},{"astId":97937,"contract":"test/safe-tools/SafeTestTools.sol:SafeTestTools","label":"instances","offset":0,"slot":"3","type":"t_array(t_struct(SafeInstance)96578_storage)dyn_storage"},{"astId":97948,"contract":"test/safe-tools/SafeTestTools.sol:SafeTestTools","label":"saltNonce","offset":0,"slot":"4","type":"t_uint256"}],"types":{"t_address":{"encoding":"inplace","label":"address","numberOfBytes":"20"},"t_array(t_address)dyn_storage":{"encoding":"dynamic_array","label":"address[]","numberOfBytes":"32","base":"t_address"},"t_array(t_struct(SafeInstance)96578_storage)dyn_storage":{"encoding":"dynamic_array","label":"struct SafeInstance[]","numberOfBytes":"32","base":"t_struct(SafeInstance)96578_storage"},"t_array(t_uint256)dyn_storage":{"encoding":"dynamic_array","label":"uint256[]","numberOfBytes":"32","base":"t_uint256"},"t_contract(CompatibilityFallbackHandler)96480":{"encoding":"inplace","label":"contract CompatibilityFallbackHandler","numberOfBytes":"20"},"t_contract(DeployedSafe)96547":{"encoding":"inplace","label":"contract DeployedSafe","numberOfBytes":"20"},"t_contract(GnosisSafe)53029":{"encoding":"inplace","label":"contract GnosisSafe","numberOfBytes":"20"},"t_contract(GnosisSafeProxyFactory)54840":{"encoding":"inplace","label":"contract GnosisSafeProxyFactory","numberOfBytes":"20"},"t_struct(SafeInstance)96578_storage":{"encoding":"inplace","label":"struct SafeInstance","numberOfBytes":"160","members":[{"astId":96566,"contract":"test/safe-tools/SafeTestTools.sol:SafeTestTools","label":"instanceId","offset":0,"slot":"0","type":"t_uint256"},{"astId":96569,"contract":"test/safe-tools/SafeTestTools.sol:SafeTestTools","label":"ownerPKs","offset":0,"slot":"1","type":"t_array(t_uint256)dyn_storage"},{"astId":96572,"contract":"test/safe-tools/SafeTestTools.sol:SafeTestTools","label":"owners","offset":0,"slot":"2","type":"t_array(t_address)dyn_storage"},{"astId":96574,"contract":"test/safe-tools/SafeTestTools.sol:SafeTestTools","label":"threshold","offset":0,"slot":"3","type":"t_uint256"},{"astId":96577,"contract":"test/safe-tools/SafeTestTools.sol:SafeTestTools","label":"safe","offset":0,"slot":"4","type":"t_contract(DeployedSafe)96547"}]},"t_uint256":{"encoding":"inplace","label":"uint256","numberOfBytes":"32"}}},"userdoc":{"version":1,"kind":"user"},"devdoc":{"version":1,"kind":"dev","details":"SafeTestTools implements a set of helper functions for testing Safe contracts.","methods":{"_setupSafe()":{"details":"Sets up a Safe with default parameters. The SafeInstance will have 3 owners and a threshold of 2.","returns":{"_0":"The initialized Safe instance."}},"_setupSafe(uint256[],uint256)":{"details":"Sets up a Safe with the given parameters.","params":{"ownerPKs":"The public keys of the owners.","threshold":"The threshold for the Safe."},"returns":{"_0":"The initialized Safe instance."}},"_setupSafe(uint256[],uint256,uint256)":{"details":"Sets up a Safe with the given parameters.","params":{"initialBalance":"The initial balance of the Safe.","ownerPKs":"The public keys of the owners.","threshold":"The threshold for the Safe."},"returns":{"_0":"The initialized Safe instance."}},"_setupSafe(uint256[],uint256,uint256,(bool,uint256,address,bytes,uint256,address,address,bytes))":{"details":"Sets up a Safe with the given parameters.","params":{"advancedParams":"The advanced parameters for the Safe initialization.","initialBalance":"The initial balance of the Safe.","ownerPKs":"The public keys of the owners.","threshold":"The threshold for the Safe."},"returns":{"_0":"The initialized Safe instance."}},"getSafe()":{"details":"Returns the first Safe instance.","returns":{"_0":"The first Safe instance."}},"getSafe(address)":{"details":"Returns the Safe instance with the given address.","params":{"_safe":"The address of the Safe instance to return."},"returns":{"_0":"The Safe instance with the given address."}}}},"id":233}