{"abi":[{"type":"constructor","inputs":[{"name":"_bridge","type":"address","internalType":"address"},{"name":"_remoteToken","type":"address","internalType":"address"},{"name":"_name","type":"string","internalType":"string"},{"name":"_symbol","type":"string","internalType":"string"},{"name":"_decimals","type":"uint8","internalType":"uint8"}],"stateMutability":"nonpayable"},{"type":"function","name":"BRIDGE","inputs":[],"outputs":[{"name":"","type":"address","internalType":"address"}],"stateMutability":"view"},{"type":"function","name":"DOMAIN_SEPARATOR","inputs":[],"outputs":[{"name":"","type":"bytes32","internalType":"bytes32"}],"stateMutability":"view"},{"type":"function","name":"PERMIT2","inputs":[],"outputs":[{"name":"","type":"address","internalType":"address"}],"stateMutability":"pure"},{"type":"function","name":"REMOTE_TOKEN","inputs":[],"outputs":[{"name":"","type":"address","internalType":"address"}],"stateMutability":"view"},{"type":"function","name":"allowance","inputs":[{"name":"_owner","type":"address","internalType":"address"},{"name":"_spender","type":"address","internalType":"address"}],"outputs":[{"name":"","type":"uint256","internalType":"uint256"}],"stateMutability":"view"},{"type":"function","name":"approve","inputs":[{"name":"spender","type":"address","internalType":"address"},{"name":"amount","type":"uint256","internalType":"uint256"}],"outputs":[{"name":"","type":"bool","internalType":"bool"}],"stateMutability":"nonpayable"},{"type":"function","name":"balanceOf","inputs":[{"name":"account","type":"address","internalType":"address"}],"outputs":[{"name":"","type":"uint256","internalType":"uint256"}],"stateMutability":"view"},{"type":"function","name":"bridge","inputs":[],"outputs":[{"name":"","type":"address","internalType":"address"}],"stateMutability":"view"},{"type":"function","name":"burn","inputs":[{"name":"_from","type":"address","internalType":"address"},{"name":"_amount","type":"uint256","internalType":"uint256"}],"outputs":[],"stateMutability":"nonpayable"},{"type":"function","name":"decimals","inputs":[],"outputs":[{"name":"","type":"uint8","internalType":"uint8"}],"stateMutability":"view"},{"type":"function","name":"decreaseAllowance","inputs":[{"name":"spender","type":"address","internalType":"address"},{"name":"subtractedValue","type":"uint256","internalType":"uint256"}],"outputs":[{"name":"","type":"bool","internalType":"bool"}],"stateMutability":"nonpayable"},{"type":"function","name":"increaseAllowance","inputs":[{"name":"spender","type":"address","internalType":"address"},{"name":"addedValue","type":"uint256","internalType":"uint256"}],"outputs":[{"name":"","type":"bool","internalType":"bool"}],"stateMutability":"nonpayable"},{"type":"function","name":"l1Token","inputs":[],"outputs":[{"name":"","type":"address","internalType":"address"}],"stateMutability":"view"},{"type":"function","name":"l2Bridge","inputs":[],"outputs":[{"name":"","type":"address","internalType":"address"}],"stateMutability":"view"},{"type":"function","name":"mint","inputs":[{"name":"_to","type":"address","internalType":"address"},{"name":"_amount","type":"uint256","internalType":"uint256"}],"outputs":[],"stateMutability":"nonpayable"},{"type":"function","name":"name","inputs":[],"outputs":[{"name":"","type":"string","internalType":"string"}],"stateMutability":"view"},{"type":"function","name":"nonces","inputs":[{"name":"owner","type":"address","internalType":"address"}],"outputs":[{"name":"","type":"uint256","internalType":"uint256"}],"stateMutability":"view"},{"type":"function","name":"permit","inputs":[{"name":"owner","type":"address","internalType":"address"},{"name":"spender","type":"address","internalType":"address"},{"name":"value","type":"uint256","internalType":"uint256"},{"name":"deadline","type":"uint256","internalType":"uint256"},{"name":"v","type":"uint8","internalType":"uint8"},{"name":"r","type":"bytes32","internalType":"bytes32"},{"name":"s","type":"bytes32","internalType":"bytes32"}],"outputs":[],"stateMutability":"nonpayable"},{"type":"function","name":"remoteToken","inputs":[],"outputs":[{"name":"","type":"address","internalType":"address"}],"stateMutability":"view"},{"type":"function","name":"supportsInterface","inputs":[{"name":"_interfaceId","type":"bytes4","internalType":"bytes4"}],"outputs":[{"name":"","type":"bool","internalType":"bool"}],"stateMutability":"pure"},{"type":"function","name":"symbol","inputs":[],"outputs":[{"name":"","type":"string","internalType":"string"}],"stateMutability":"view"},{"type":"function","name":"totalSupply","inputs":[],"outputs":[{"name":"","type":"uint256","internalType":"uint256"}],"stateMutability":"view"},{"type":"function","name":"transfer","inputs":[{"name":"to","type":"address","internalType":"address"},{"name":"amount","type":"uint256","internalType":"uint256"}],"outputs":[{"name":"","type":"bool","internalType":"bool"}],"stateMutability":"nonpayable"},{"type":"function","name":"transferFrom","inputs":[{"name":"from","type":"address","internalType":"address"},{"name":"to","type":"address","internalType":"address"},{"name":"amount","type":"uint256","internalType":"uint256"}],"outputs":[{"name":"","type":"bool","internalType":"bool"}],"stateMutability":"nonpayable"},{"type":"function","name":"version","inputs":[],"outputs":[{"name":"","type":"string","internalType":"string"}],"stateMutability":"view"},{"type":"event","name":"Approval","inputs":[{"name":"owner","type":"address","indexed":true,"internalType":"address"},{"name":"spender","type":"address","indexed":true,"internalType":"address"},{"name":"value","type":"uint256","indexed":false,"internalType":"uint256"}],"anonymous":false},{"type":"event","name":"Burn","inputs":[{"name":"account","type":"address","indexed":true,"internalType":"address"},{"name":"amount","type":"uint256","indexed":false,"internalType":"uint256"}],"anonymous":false},{"type":"event","name":"Mint","inputs":[{"name":"account","type":"address","indexed":true,"internalType":"address"},{"name":"amount","type":"uint256","indexed":false,"internalType":"uint256"}],"anonymous":false},{"type":"event","name":"Transfer","inputs":[{"name":"from","type":"address","indexed":true,"internalType":"address"},{"name":"to","type":"address","indexed":true,"internalType":"address"},{"name":"value","type":"uint256","indexed":false,"internalType":"uint256"}],"anonymous":false}],"bytecode":{"object":"0x6101a06040523480156200001257600080fd5b50604051620020e0380380620020e0833981016040819052620000359162000215565b6040805180820190915260018152603160f81b6020820152839081908185600362000061838262000350565b50600462000070828262000350565b5050825160208085019190912083518483012060e08290526101008190524660a0818152604080517f8b73c3c69bb8fe3d512ecc4cf759cc79239f7b179b0ffacaa9a75d522b39400f81880181905281830187905260608201869052608082019490945230818401528151808203909301835260c0019052805194019390932091935091906080523060c05261012052505050506001600160a01b0394851661014052509390921661016052505060ff16610180526200041c565b80516001600160a01b03811681146200014357600080fd5b919050565b634e487b7160e01b600052604160045260246000fd5b600082601f8301126200017057600080fd5b81516001600160401b03808211156200018d576200018d62000148565b604051601f8301601f19908116603f01168101908282118183101715620001b857620001b862000148565b81604052838152602092508683858801011115620001d557600080fd5b600091505b83821015620001f95785820183015181830184015290820190620001da565b838211156200020b5760008385830101525b9695505050505050565b600080600080600060a086880312156200022e57600080fd5b62000239866200012b565b945062000249602087016200012b565b60408701519094506001600160401b03808211156200026757600080fd5b6200027589838a016200015e565b945060608801519150808211156200028c57600080fd5b506200029b888289016200015e565b925050608086015160ff81168114620002b357600080fd5b809150509295509295909350565b600181811c90821680620002d657607f821691505b602082108103620002f757634e487b7160e01b600052602260045260246000fd5b50919050565b601f8211156200034b57600081815260208120601f850160051c81016020861015620003265750805b601f850160051c820191505b81811015620003475782815560010162000332565b5050505b505050565b81516001600160401b038111156200036c576200036c62000148565b62000384816200037d8454620002c1565b84620002fd565b602080601f831160018114620003bc5760008415620003a35750858301515b600019600386901b1c1916600185901b17855562000347565b600085815260208120601f198616915b82811015620003ed57888601518255948401946001909101908401620003cc565b50858210156200040c5787850151600019600388901b60f8161c191681555b5050505050600190811b01905550565b60805160a05160c05160e0516101005161012051610140516101605161018051611c37620004a960003960006102700152600081816103a70152818161041c0152818161064801526107aa0152600081816101d501526103cd01526000611174015260006111c30152600061119e015260006110f7015260006111210152600061114b0152611c376000f3fe608060405234801561001057600080fd5b50600436106101a35760003560e01c806370a08231116100ee578063ae1f6aaf11610097578063d6c0b2c411610071578063d6c0b2c4146103cb578063dd62ed3e14610404578063e78cea92146103a5578063ee9a31a21461041757600080fd5b8063ae1f6aaf146103a5578063c01e1bd6146103cb578063d505accf146103f157600080fd5b80639dc29fac116100c85780639dc29fac1461036c578063a457c2d71461037f578063a9059cbb1461039257600080fd5b806370a082311461031b5780637ecebe001461035157806395d89b411461036457600080fd5b8063313ce5671161015057806340c10f191161012a57806340c10f19146102b557806354fd4d50146102ca5780636afdd8501461030657600080fd5b8063313ce567146102695780633644e5151461029a57806339509351146102a257600080fd5b8063095ea7b311610181578063095ea7b31461023157806318160ddd1461024457806323b872dd1461025657600080fd5b806301ffc9a7146101a8578063033964be146101d057806306fdde031461021c575b600080fd5b6101bb6101b636600461194b565b61043e565b60405190151581526020015b60405180910390f35b6101f77f000000000000000000000000000000000000000000000000000000000000000081565b60405173ffffffffffffffffffffffffffffffffffffffff90911681526020016101c7565b61022461052f565b6040516101c7919061198d565b6101bb61023f366004611a29565b6105c1565b6002545b6040519081526020016101c7565b6101bb610264366004611a53565b6105db565b60405160ff7f00000000000000000000000000000000000000000000000000000000000000001681526020016101c7565b6102486105ff565b6101bb6102b0366004611a29565b61060e565b6102c86102c3366004611a29565b610630565b005b6102246040518060400160405280600c81526020017f312e342e302d626574612e35000000000000000000000000000000000000000081525081565b6e22d473030f116ddee9f6b43ac78ba36101f7565b610248610329366004611a8f565b73ffffffffffffffffffffffffffffffffffffffff1660009081526020819052604090205490565b61024861035f366004611a8f565b610758565b610224610783565b6102c861037a366004611a29565b610792565b6101bb61038d366004611a29565b6108a9565b6101bb6103a0366004611a29565b610956565b7f00000000000000000000000000000000000000000000000000000000000000006101f7565b7f00000000000000000000000000000000000000000000000000000000000000006101f7565b6102c86103ff366004611aaa565b610964565b610248610412366004611b1d565b610b23565b6101f77f000000000000000000000000000000000000000000000000000000000000000081565b60007f01ffc9a7000000000000000000000000000000000000000000000000000000007f1d1d8b63000000000000000000000000000000000000000000000000000000007fec4fc8e3000000000000000000000000000000000000000000000000000000007fffffffff0000000000000000000000000000000000000000000000000000000085168314806104f757507fffffffff00000000000000000000000000000000000000000000000000000000858116908316145b8061052657507fffffffff00000000000000000000000000000000000000000000000000000000858116908216145b95945050505050565b60606003805461053e90611b50565b80601f016020809104026020016040519081016040528092919081815260200182805461056a90611b50565b80156105b75780601f1061058c576101008083540402835291602001916105b7565b820191906000526020600020905b81548152906001019060200180831161059a57829003601f168201915b5050505050905090565b6000336105cf818585610bc4565b60019150505b92915050565b6000336105e9858285610d78565b6105f4858585610e2a565b506001949350505050565b60006106096110dd565b905090565b6000336105cf8185856106218383610b23565b61062b9190611bcc565b610bc4565b3373ffffffffffffffffffffffffffffffffffffffff7f000000000000000000000000000000000000000000000000000000000000000016146106fa576040517f08c379a000000000000000000000000000000000000000000000000000000000815260206004820152603460248201527f4f7074696d69736d4d696e7461626c6545524332303a206f6e6c79206272696460448201527f67652063616e206d696e7420616e64206275726e00000000000000000000000060648201526084015b60405180910390fd5b6107048282611211565b8173ffffffffffffffffffffffffffffffffffffffff167f0f6798a560793a54c3bcfe86a93cde1e73087d944c0ea20544137d41213968858260405161074c91815260200190565b60405180910390a25050565b73ffffffffffffffffffffffffffffffffffffffff81166000908152600560205260408120546105d5565b60606004805461053e90611b50565b3373ffffffffffffffffffffffffffffffffffffffff7f00000000000000000000000000000000000000000000000000000000000000001614610857576040517f08c379a000000000000000000000000000000000000000000000000000000000815260206004820152603460248201527f4f7074696d69736d4d696e7461626c6545524332303a206f6e6c79206272696460448201527f67652063616e206d696e7420616e64206275726e00000000000000000000000060648201526084016106f1565b6108618282611331565b8173ffffffffffffffffffffffffffffffffffffffff167fcc16f5dbb4873280815c1ee09dbd06736cffcc184412cf7a71a0fdb75d397ca58260405161074c91815260200190565b600033816108b78286610b23565b905083811015610949576040517f08c379a000000000000000000000000000000000000000000000000000000000815260206004820152602560248201527f45524332303a2064656372656173656420616c6c6f77616e63652062656c6f7760448201527f207a65726f00000000000000000000000000000000000000000000000000000060648201526084016106f1565b6105f48286868403610bc4565b6000336105cf818585610e2a565b834211156109ce576040517f08c379a000000000000000000000000000000000000000000000000000000000815260206004820152601d60248201527f45524332305065726d69743a206578706972656420646561646c696e6500000060448201526064016106f1565b60007f6e71edae12b1b97f4d1f60370fef10105fa2faae0126114a169c64845d6126c98888886109fd8c611516565b60408051602081019690965273ffffffffffffffffffffffffffffffffffffffff94851690860152929091166060840152608083015260a082015260c0810186905260e0016040516020818303038152906040528051906020012090506000610a658261154b565b90506000610a75828787876115b4565b90508973ffffffffffffffffffffffffffffffffffffffff168173ffffffffffffffffffffffffffffffffffffffff1614610b0c576040517f08c379a000000000000000000000000000000000000000000000000000000000815260206004820152601e60248201527f45524332305065726d69743a20696e76616c6964207369676e6174757265000060448201526064016106f1565b610b178a8a8a610bc4565b50505050505050505050565b60007fffffffffffffffffffffffffffffffffffdd2b8cfcf0ee922116094bc538745d73ffffffffffffffffffffffffffffffffffffffff831601610b8957507fffffffffffffffffffffffffffffffffffffffffffffffffffffffffffffffff6105d5565b73ffffffffffffffffffffffffffffffffffffffff8084166000908152600160209081526040808320938616835292905220545b9392505050565b73ffffffffffffffffffffffffffffffffffffffff8316610c66576040517f08c379a0000000000000000000000000000000000000000000000000000000008152602060048201526024808201527f45524332303a20617070726f76652066726f6d20746865207a65726f2061646460448201527f726573730000000000000000000000000000000000000000000000000000000060648201526084016106f1565b73ffffffffffffffffffffffffffffffffffffffff8216610d09576040517f08c379a000000000000000000000000000000000000000000000000000000000815260206004820152602260248201527f45524332303a20617070726f766520746f20746865207a65726f20616464726560448201527f737300000000000000000000000000000000000000000000000000000000000060648201526084016106f1565b73ffffffffffffffffffffffffffffffffffffffff83811660008181526001602090815260408083209487168084529482529182902085905590518481527f8c5be1e5ebec7d5bd14f71427d1e84f3dd0314c0f7b2291e5b200ac8c7c3b92591015b60405180910390a3505050565b6000610d848484610b23565b90507fffffffffffffffffffffffffffffffffffffffffffffffffffffffffffffffff8114610e245781811015610e17576040517f08c379a000000000000000000000000000000000000000000000000000000000815260206004820152601d60248201527f45524332303a20696e73756666696369656e7420616c6c6f77616e636500000060448201526064016106f1565b610e248484848403610bc4565b50505050565b73ffffffffffffffffffffffffffffffffffffffff8316610ecd576040517f08c379a000000000000000000000000000000000000000000000000000000000815260206004820152602560248201527f45524332303a207472616e736665722066726f6d20746865207a65726f20616460448201527f647265737300000000000000000000000000000000000000000000000000000060648201526084016106f1565b73ffffffffffffffffffffffffffffffffffffffff8216610f70576040517f08c379a000000000000000000000000000000000000000000000000000000000815260206004820152602360248201527f45524332303a207472616e7366657220746f20746865207a65726f206164647260448201527f657373000000000000000000000000000000000000000000000000000000000060648201526084016106f1565b73ffffffffffffffffffffffffffffffffffffffff831660009081526020819052604090205481811015611026576040517f08c379a000000000000000000000000000000000000000000000000000000000815260206004820152602660248201527f45524332303a207472616e7366657220616d6f756e742065786365656473206260448201527f616c616e6365000000000000000000000000000000000000000000000000000060648201526084016106f1565b73ffffffffffffffffffffffffffffffffffffffff80851660009081526020819052604080822085850390559185168152908120805484929061106a908490611bcc565b925050819055508273ffffffffffffffffffffffffffffffffffffffff168473ffffffffffffffffffffffffffffffffffffffff167fddf252ad1be2c89b69c2b068fc378daa952ba7f163c4a11628f55a4df523b3ef846040516110d091815260200190565b60405180910390a3610e24565b60003073ffffffffffffffffffffffffffffffffffffffff7f00000000000000000000000000000000000000000000000000000000000000001614801561114357507f000000000000000000000000000000000000000000000000000000000000000046145b1561116d57507f000000000000000000000000000000000000000000000000000000000000000090565b50604080517f00000000000000000000000000000000000000000000000000000000000000006020808301919091527f0000000000000000000000000000000000000000000000000000000000000000828401527f000000000000000000000000000000000000000000000000000000000000000060608301524660808301523060a0808401919091528351808403909101815260c0909201909252805191012090565b73ffffffffffffffffffffffffffffffffffffffff821661128e576040517f08c379a000000000000000000000000000000000000000000000000000000000815260206004820152601f60248201527f45524332303a206d696e7420746f20746865207a65726f20616464726573730060448201526064016106f1565b80600260008282546112a09190611bcc565b909155505073ffffffffffffffffffffffffffffffffffffffff8216600090815260208190526040812080548392906112da908490611bcc565b909155505060405181815273ffffffffffffffffffffffffffffffffffffffff8316906000907fddf252ad1be2c89b69c2b068fc378daa952ba7f163c4a11628f55a4df523b3ef9060200160405180910390a35050565b73ffffffffffffffffffffffffffffffffffffffff82166113d4576040517f08c379a000000000000000000000000000000000000000000000000000000000815260206004820152602160248201527f45524332303a206275726e2066726f6d20746865207a65726f2061646472657360448201527f730000000000000000000000000000000000000000000000000000000000000060648201526084016106f1565b73ffffffffffffffffffffffffffffffffffffffff82166000908152602081905260409020548181101561148a576040517f08c379a000000000000000000000000000000000000000000000000000000000815260206004820152602260248201527f45524332303a206275726e20616d6f756e7420657863656564732062616c616e60448201527f636500000000000000000000000000000000000000000000000000000000000060648201526084016106f1565b73ffffffffffffffffffffffffffffffffffffffff831660009081526020819052604081208383039055600280548492906114c6908490611be4565b909155505060405182815260009073ffffffffffffffffffffffffffffffffffffffff8516907fddf252ad1be2c89b69c2b068fc378daa952ba7f163c4a11628f55a4df523b3ef90602001610d6b565b73ffffffffffffffffffffffffffffffffffffffff811660009081526005602052604090208054600181018255905b50919050565b60006105d56115586110dd565b836040517f19010000000000000000000000000000000000000000000000000000000000006020820152602281018390526042810182905260009060620160405160208183030381529060405280519060200120905092915050565b60008060006115c5878787876115dc565b915091506115d2816116f4565b5095945050505050565b6000807f7fffffffffffffffffffffffffffffff5d576e7357a4501ddfe92f46681b20a083111561161357506000905060036116eb565b8460ff16601b1415801561162b57508460ff16601c14155b1561163c57506000905060046116eb565b6040805160008082526020820180845289905260ff881692820192909252606081018690526080810185905260019060a0016020604051602081039080840390855afa158015611690573d6000803e3d6000fd5b50506040517fffffffffffffffffffffffffffffffffffffffffffffffffffffffffffffffe0015191505073ffffffffffffffffffffffffffffffffffffffff81166116e4576000600192509250506116eb565b9150600090505b94509492505050565b600081600481111561170857611708611bfb565b036117105750565b600181600481111561172457611724611bfb565b0361178b576040517f08c379a000000000000000000000000000000000000000000000000000000000815260206004820152601860248201527f45434453413a20696e76616c6964207369676e6174757265000000000000000060448201526064016106f1565b600281600481111561179f5761179f611bfb565b03611806576040517f08c379a000000000000000000000000000000000000000000000000000000000815260206004820152601f60248201527f45434453413a20696e76616c6964207369676e6174757265206c656e6774680060448201526064016106f1565b600381600481111561181a5761181a611bfb565b036118a7576040517f08c379a000000000000000000000000000000000000000000000000000000000815260206004820152602260248201527f45434453413a20696e76616c6964207369676e6174757265202773272076616c60448201527f756500000000000000000000000000000000000000000000000000000000000060648201526084016106f1565b60048160048111156118bb576118bb611bfb565b03611948576040517f08c379a000000000000000000000000000000000000000000000000000000000815260206004820152602260248201527f45434453413a20696e76616c6964207369676e6174757265202776272076616c60448201527f756500000000000000000000000000000000000000000000000000000000000060648201526084016106f1565b50565b60006020828403121561195d57600080fd5b81357fffffffff0000000000000000000000000000000000000000000000000000000081168114610bbd57600080fd5b600060208083528351808285015260005b818110156119ba5785810183015185820160400152820161199e565b818111156119cc576000604083870101525b50601f017fffffffffffffffffffffffffffffffffffffffffffffffffffffffffffffffe016929092016040019392505050565b803573ffffffffffffffffffffffffffffffffffffffff81168114611a2457600080fd5b919050565b60008060408385031215611a3c57600080fd5b611a4583611a00565b946020939093013593505050565b600080600060608486031215611a6857600080fd5b611a7184611a00565b9250611a7f60208501611a00565b9150604084013590509250925092565b600060208284031215611aa157600080fd5b610bbd82611a00565b600080600080600080600060e0888a031215611ac557600080fd5b611ace88611a00565b9650611adc60208901611a00565b95506040880135945060608801359350608088013560ff81168114611b0057600080fd5b9699959850939692959460a0840135945060c09093013592915050565b60008060408385031215611b3057600080fd5b611b3983611a00565b9150611b4760208401611a00565b90509250929050565b600181811c90821680611b6457607f821691505b602082108103611545577f4e487b7100000000000000000000000000000000000000000000000000000000600052602260045260246000fd5b7f4e487b7100000000000000000000000000000000000000000000000000000000600052601160045260246000fd5b60008219821115611bdf57611bdf611b9d565b500190565b600082821015611bf657611bf6611b9d565b500390565b7f4e487b7100000000000000000000000000000000000000000000000000000000600052602160045260246000fdfea164736f6c634300080f000a","linkReferences":{}},"methodIdentifiers":{"BRIDGE()":"ee9a31a2","DOMAIN_SEPARATOR()":"3644e515","PERMIT2()":"6afdd850","REMOTE_TOKEN()":"033964be","allowance(address,address)":"dd62ed3e","approve(address,uint256)":"095ea7b3","balanceOf(address)":"70a08231","bridge()":"e78cea92","burn(address,uint256)":"9dc29fac","decimals()":"313ce567","decreaseAllowance(address,uint256)":"a457c2d7","increaseAllowance(address,uint256)":"39509351","l1Token()":"c01e1bd6","l2Bridge()":"ae1f6aaf","mint(address,uint256)":"40c10f19","name()":"06fdde03","nonces(address)":"7ecebe00","permit(address,address,uint256,uint256,uint8,bytes32,bytes32)":"d505accf","remoteToken()":"d6c0b2c4","supportsInterface(bytes4)":"01ffc9a7","symbol()":"95d89b41","totalSupply()":"18160ddd","transfer(address,uint256)":"a9059cbb","transferFrom(address,address,uint256)":"23b872dd","version()":"54fd4d50"},"storageLayout":{"storage":[{"astId":51521,"contract":"src/universal/OptimismMintableERC20.sol:OptimismMintableERC20","label":"_balances","offset":0,"slot":"0","type":"t_mapping(t_address,t_uint256)"},{"astId":51527,"contract":"src/universal/OptimismMintableERC20.sol:OptimismMintableERC20","label":"_allowances","offset":0,"slot":"1","type":"t_mapping(t_address,t_mapping(t_address,t_uint256))"},{"astId":51529,"contract":"src/universal/OptimismMintableERC20.sol:OptimismMintableERC20","label":"_totalSupply","offset":0,"slot":"2","type":"t_uint256"},{"astId":51531,"contract":"src/universal/OptimismMintableERC20.sol:OptimismMintableERC20","label":"_name","offset":0,"slot":"3","type":"t_string_storage"},{"astId":51533,"contract":"src/universal/OptimismMintableERC20.sol:OptimismMintableERC20","label":"_symbol","offset":0,"slot":"4","type":"t_string_storage"},{"astId":52898,"contract":"src/universal/OptimismMintableERC20.sol:OptimismMintableERC20","label":"_nonces","offset":0,"slot":"5","type":"t_mapping(t_address,t_struct(Counter)55084_storage)"},{"astId":52906,"contract":"src/universal/OptimismMintableERC20.sol:OptimismMintableERC20","label":"_PERMIT_TYPEHASH_DEPRECATED_SLOT","offset":0,"slot":"6","type":"t_bytes32"}],"types":{"t_address":{"encoding":"inplace","label":"address","numberOfBytes":"20"},"t_bytes32":{"encoding":"inplace","label":"bytes32","numberOfBytes":"32"},"t_mapping(t_address,t_mapping(t_address,t_uint256))":{"encoding":"mapping","key":"t_address","label":"mapping(address => mapping(address => uint256))","numberOfBytes":"32","value":"t_mapping(t_address,t_uint256)"},"t_mapping(t_address,t_struct(Counter)55084_storage)":{"encoding":"mapping","key":"t_address","label":"mapping(address => struct Counters.Counter)","numberOfBytes":"32","value":"t_struct(Counter)55084_storage"},"t_mapping(t_address,t_uint256)":{"encoding":"mapping","key":"t_address","label":"mapping(address => uint256)","numberOfBytes":"32","value":"t_uint256"},"t_string_storage":{"encoding":"bytes","label":"string","numberOfBytes":"32"},"t_struct(Counter)55084_storage":{"encoding":"inplace","label":"struct Counters.Counter","numberOfBytes":"32","members":[{"astId":55083,"contract":"src/universal/OptimismMintableERC20.sol:OptimismMintableERC20","label":"_value","offset":0,"slot":"0","type":"t_uint256"}]},"t_uint256":{"encoding":"inplace","label":"uint256","numberOfBytes":"32"}}},"userdoc":{"version":1,"kind":"user","methods":{"BRIDGE()":{"notice":"Address of the StandardBridge on this network."},"PERMIT2()":{"notice":"Getter function for the permit2 address. It deterministically deployed         so it will always be at the same address. It is also included as a preinstall,         so it exists in the genesis state of chains."},"REMOTE_TOKEN()":{"notice":"Address of the corresponding version of this token on the remote chain."},"allowance(address,address)":{"notice":"Returns the allowance for a spender on the owner's tokens.         If the spender is the permit2 address, returns the maximum uint256 value."},"burn(address,uint256)":{"notice":"Allows the StandardBridge on this network to burn tokens."},"mint(address,uint256)":{"notice":"Allows the StandardBridge on this network to mint tokens."},"supportsInterface(bytes4)":{"notice":"ERC165 interface check function."},"version()":{"notice":"Semantic version."}},"events":{"Burn(address,uint256)":{"notice":"Emitted whenever tokens are burned from an account."},"Mint(address,uint256)":{"notice":"Emitted whenever tokens are minted for an account."}},"notice":"OptimismMintableERC20 is a standard extension of the base ERC20 token contract designed         to allow the StandardBridge contracts to mint and burn tokens. This makes it possible to         use an OptimismMintablERC20 as the L2 representation of an L1 token, or vice-versa.         Designed to be backwards compatible with the older StandardL2ERC20 token which was only         meant for use on L2."},"devdoc":{"version":1,"kind":"dev","methods":{"DOMAIN_SEPARATOR()":{"details":"See {IERC20Permit-DOMAIN_SEPARATOR}."},"PERMIT2()":{"returns":{"_0":"Address of permit2 on this network."}},"allowance(address,address)":{"params":{"_owner":"owner of the tokens.","_spender":"spender of the tokens."},"returns":{"_0":"Allowance for the spender."}},"approve(address,uint256)":{"details":"See {IERC20-approve}. NOTE: If `amount` is the maximum `uint256`, the allowance is not updated on `transferFrom`. This is semantically equivalent to an infinite approval. Requirements: - `spender` cannot be the zero address."},"balanceOf(address)":{"details":"See {IERC20-balanceOf}."},"bridge()":{},"burn(address,uint256)":{"params":{"_amount":"Amount of tokens to burn.","_from":"Address to burn tokens from."}},"constructor":{"params":{"_bridge":"Address of the L2 standard bridge.","_name":"ERC20 name.","_remoteToken":"Address of the corresponding L1 token.","_symbol":"ERC20 symbol."}},"decimals()":{"details":"Returns the number of decimals used to get its user representation. For example, if `decimals` equals `2`, a balance of `505` tokens should be displayed to a user as `5.05` (`505 / 10 ** 2`). NOTE: This information is only used for _display_ purposes: it in no way affects any of the arithmetic of the contract, including {IERC20-balanceOf} and {IERC20-transfer}."},"decreaseAllowance(address,uint256)":{"details":"Atomically decreases the allowance granted to `spender` by the caller. This is an alternative to {approve} that can be used as a mitigation for problems described in {IERC20-approve}. Emits an {Approval} event indicating the updated allowance. Requirements: - `spender` cannot be the zero address. - `spender` must have allowance for the caller of at least `subtractedValue`."},"increaseAllowance(address,uint256)":{"details":"Atomically increases the allowance granted to `spender` by the caller. This is an alternative to {approve} that can be used as a mitigation for problems described in {IERC20-approve}. Emits an {Approval} event indicating the updated allowance. Requirements: - `spender` cannot be the zero address."},"l1Token()":{},"l2Bridge()":{},"mint(address,uint256)":{"params":{"_amount":"Amount of tokens to mint.","_to":"Address to mint tokens to."}},"name()":{"details":"Returns the name of the token."},"nonces(address)":{"details":"See {IERC20Permit-nonces}."},"permit(address,address,uint256,uint256,uint8,bytes32,bytes32)":{"details":"See {IERC20Permit-permit}."},"remoteToken()":{},"supportsInterface(bytes4)":{"params":{"_interfaceId":"Interface ID to check."},"returns":{"_0":"Whether or not the interface is supported by this contract."}},"symbol()":{"details":"Returns the symbol of the token, usually a shorter version of the name."},"totalSupply()":{"details":"See {IERC20-totalSupply}."},"transfer(address,uint256)":{"details":"See {IERC20-transfer}. Requirements: - `to` cannot be the zero address. - the caller must have a balance of at least `amount`."},"transferFrom(address,address,uint256)":{"details":"See {IERC20-transferFrom}. Emits an {Approval} event indicating the updated allowance. This is not required by the EIP. See the note at the beginning of {ERC20}. NOTE: Does not update the allowance if the current allowance is the maximum `uint256`. Requirements: - `from` and `to` cannot be the zero address. - `from` must have a balance of at least `amount`. - the caller must have allowance for ``from``'s tokens of at least `amount`."}},"events":{"Burn(address,uint256)":{"params":{"account":"Address of the account tokens are being burned from.","amount":"Amount of tokens burned."}},"Mint(address,uint256)":{"params":{"account":"Address of the account tokens are being minted for.","amount":"Amount of tokens minted."}}},"title":"OptimismMintableERC20"},"id":319}