{"abi":[{"type":"function","name":"upgrade","inputs":[{"name":"_a","type":"uint256","internalType":"uint256"}],"outputs":[],"stateMutability":"nonpayable"}],"bytecode":{"object":"0x6080604052348015600e575f80fd5b5060cf80601a5f395ff3fe6080604052348015600e575f80fd5b50600436106026575f3560e01c806345977d0314602a575b5f80fd5b6039603536600460ac565b603b565b005b600a8110156047575f80fd5b6014811015602657606f73ffffffffffffffffffffffffffffffffffffffff1663d55ec6976040518163ffffffff1660e01b81526004015f604051808303815f87803b1580156094575f80fd5b505af115801560a5573d5f803e3d5ffd5b5050505050565b5f6020828403121560bb575f80fd5b503591905056fea164736f6c6343000819000a","linkReferences":{}},"methodIdentifiers":{"upgrade(uint256)":"45977d03"},"storageLayout":{"storage":[],"types":{}},"userdoc":{"version":1,"kind":"user"},"devdoc":{"version":1,"kind":"dev"},"id":128}