{"abi":[{"type":"function","name":"MIPS_VERSION","inputs":[],"outputs":[{"name":"","type":"uint256","internalType":"uint256"}],"stateMutability":"view"}],"bytecode":{"object":"0x605e610038600b82828239805160001a607314602b57634e487b7160e01b600052600060045260246000fd5b30600052607381538281f3fe730000000000000000000000000000000000000000301460806040526004361060335760003560e01c8063b3cb6281146038575b600080fd5b603f600881565b60405190815260200160405180910390f3fea164736f6c634300080f000a","linkReferences":{}},"deployedBytecode":{"object":"0x730000000000000000000000000000000000000000301460806040526004361060335760003560e01c8063b3cb6281146038575b600080fd5b603f600881565b60405190815260200160405180910390f3fea164736f6c634300080f000a","linkReferences":{}},"methodIdentifiers":{"MIPS_VERSION()":"b3cb6281"},"storageLayout":{"storage":[],"types":{}},"userdoc":{"version":1,"kind":"user"},"devdoc":{"version":1,"kind":"dev"},"id":206}