{"abi":[{"type":"constructor","inputs":[{"name":"_owner","type":"address","internalType":"address"}],"stateMutability":"nonpayable"},{"type":"function","name":"CALL","inputs":[{"name":"_target","type":"address","internalType":"address"},{"name":"_data","type":"bytes","internalType":"bytes"},{"name":"_value","type":"uint256","internalType":"uint256"}],"outputs":[{"name":"success_","type":"bool","internalType":"bool"},{"name":"data_","type":"bytes","internalType":"bytes"}],"stateMutability":"payable"},{"type":"function","name":"DELEGATECALL","inputs":[{"name":"_target","type":"address","internalType":"address"},{"name":"_data","type":"bytes","internalType":"bytes"}],"outputs":[{"name":"success_","type":"bool","internalType":"bool"},{"name":"data_","type":"bytes","internalType":"bytes"}],"stateMutability":"payable"},{"type":"function","name":"owner","inputs":[],"outputs":[{"name":"","type":"address","internalType":"address"}],"stateMutability":"view"},{"type":"function","name":"setOwner","inputs":[{"name":"newOwner","type":"address","internalType":"address"}],"outputs":[],"stateMutability":"nonpayable"},{"type":"event","name":"OwnerUpdated","inputs":[{"name":"user","type":"address","indexed":true,"internalType":"address"},{"name":"newOwner","type":"address","indexed":true,"internalType":"address"}],"anonymous":false}],"bytecode":{"object":"0x6080604052348015600e575f80fd5b506040516106b53803806106b5833981016040819052602b916078565b5f80546001600160a01b0319166001600160a01b03831690811782556040518392907f8292fce18fa69edf4db7b94ea2e58241df0ae57f97e0a6c9b29067028bf92d76908290a3505060a3565b5f602082840312156087575f80fd5b81516001600160a01b0381168114609c575f80fd5b9392505050565b610605806100b05f395ff3fe60806040526004361061003e575f3560e01c806313af4035146100425780636e2d44ae146100635780638da5cb5b1461008d578063edee6239146100dd575b5f80fd5b34801561004d575f80fd5b5061006161005c3660046103f4565b6100f0565b005b6100766100713660046104e8565b6101e4565b60405161008492919061053b565b60405180910390f35b348015610098575f80fd5b505f546100b89073ffffffffffffffffffffffffffffffffffffffff1681565b60405173ffffffffffffffffffffffffffffffffffffffff9091168152602001610084565b6100766100eb366004610597565b6102da565b5f5473ffffffffffffffffffffffffffffffffffffffff163314610175576040517f08c379a000000000000000000000000000000000000000000000000000000000815260206004820152600c60248201527f554e415554484f52495a4544000000000000000000000000000000000000000060448201526064015b60405180910390fd5b5f80547fffffffffffffffffffffffff00000000000000000000000000000000000000001673ffffffffffffffffffffffffffffffffffffffff83169081178255604051909133917f8292fce18fa69edf4db7b94ea2e58241df0ae57f97e0a6c9b29067028bf92d769190a350565b5f805460609073ffffffffffffffffffffffffffffffffffffffff163314610268576040517f08c379a000000000000000000000000000000000000000000000000000000000815260206004820152600c60248201527f554e415554484f52495a45440000000000000000000000000000000000000000604482015260640161016c565b8473ffffffffffffffffffffffffffffffffffffffff16838560405161028e91906105e2565b5f6040518083038185875af1925050503d805f81146102c8576040519150601f19603f3d011682016040523d82523d5f602084013e6102cd565b606091505b5090969095509350505050565b5f805460609073ffffffffffffffffffffffffffffffffffffffff16331461035e576040517f08c379a000000000000000000000000000000000000000000000000000000000815260206004820152600c60248201527f554e415554484f52495a45440000000000000000000000000000000000000000604482015260640161016c565b8373ffffffffffffffffffffffffffffffffffffffff168360405161038391906105e2565b5f60405180830381855af49150503d805f81146103bb576040519150601f19603f3d011682016040523d82523d5f602084013e6103c0565b606091505b50909590945092505050565b803573ffffffffffffffffffffffffffffffffffffffff811681146103ef575f80fd5b919050565b5f60208284031215610404575f80fd5b61040d826103cc565b9392505050565b7f4e487b71000000000000000000000000000000000000000000000000000000005f52604160045260245ffd5b5f82601f830112610450575f80fd5b813567ffffffffffffffff8082111561046b5761046b610414565b604051601f83017fffffffffffffffffffffffffffffffffffffffffffffffffffffffffffffffe0908116603f011681019082821181831017156104b1576104b1610414565b816040528381528660208588010111156104c9575f80fd5b836020870160208301375f602085830101528094505050505092915050565b5f805f606084860312156104fa575f80fd5b610503846103cc565b9250602084013567ffffffffffffffff81111561051e575f80fd5b61052a86828701610441565b925050604084013590509250925092565b8215158152604060208201525f82518060408401528060208501606085015e5f6060828501015260607fffffffffffffffffffffffffffffffffffffffffffffffffffffffffffffffe0601f8301168401019150509392505050565b5f80604083850312156105a8575f80fd5b6105b1836103cc565b9150602083013567ffffffffffffffff8111156105cc575f80fd5b6105d885828601610441565b9150509250929050565b5f82518060208501845e5f92019182525091905056fea164736f6c6343000819000a","linkReferences":{}},"methodIdentifiers":{"CALL(address,bytes,uint256)":"6e2d44ae","DELEGATECALL(address,bytes)":"edee6239","owner()":"8da5cb5b","setOwner(address)":"13af4035"},"storageLayout":{"storage":[{"astId":56722,"contract":"src/periphery/Transactor.sol:Transactor","label":"owner","offset":0,"slot":"0","type":"t_address"}],"types":{"t_address":{"encoding":"inplace","label":"address","numberOfBytes":"20"}}},"userdoc":{"version":1,"kind":"user","methods":{"CALL(address,bytes,uint256)":{"notice":"Sends a CALL to a target address."},"DELEGATECALL(address,bytes)":{"notice":"Sends a DELEGATECALL to a target address."}},"notice":"Transactor is a minimal contract that can send transactions."},"devdoc":{"version":1,"kind":"dev","methods":{"CALL(address,bytes,uint256)":{"params":{"_data":"Data to send with the call.","_target":"Address to call.","_value":"ETH value to send with the call."},"returns":{"data_":"Bytes data returned by the call.","success_":"Boolean success value."}},"DELEGATECALL(address,bytes)":{"params":{"_data":"Data to send with the call.","_target":"Address to call."},"returns":{"data_":"Bytes data returned by the call.","success_":"Boolean success value."}},"constructor":{"params":{"_owner":"Initial contract owner."}}},"title":"Transactor"},"id":189}