{"abi":[{"type":"constructor","inputs":[{"name":"_oracle","type":"address","internalType":"contract IPreimageOracle"},{"name":"_stateVersion","type":"uint256","internalType":"uint256"}],"stateMutability":"nonpayable"},{"type":"function","name":"oracle","inputs":[],"outputs":[{"name":"oracle_","type":"address","internalType":"contract IPreimageOracle"}],"stateMutability":"view"},{"type":"function","name":"stateVersion","inputs":[],"outputs":[{"name":"stateVersion_","type":"uint256","internalType":"uint256"}],"stateMutability":"view"},{"type":"function","name":"step","inputs":[{"name":"_stateData","type":"bytes","internalType":"bytes"},{"name":"_proof","type":"bytes","internalType":"bytes"},{"name":"_localContext","type":"bytes32","internalType":"bytes32"}],"outputs":[{"name":"postState_","type":"bytes32","internalType":"bytes32"}],"stateMutability":"nonpayable"},{"type":"function","name":"version","inputs":[],"outputs":[{"name":"","type":"string","internalType":"string"}],"stateMutability":"view"},{"type":"error","name":"InvalidExitedValue","inputs":[]},{"type":"error","name":"InvalidMemoryProof","inputs":[]},{"type":"error","name":"InvalidPC","inputs":[]},{"type":"error","name":"InvalidRMWInstruction","inputs":[]},{"type":"error","name":"InvalidSecondMemoryProof","inputs":[]},{"type":"error","name":"UnsupportedStateVersion","inputs":[]}],"bytecode":{"object":"0x60c06040523480156200001157600080fd5b50604051620055173803806200551783398101604081905262000034916200007d565b8060071415801562000047575080600814155b156200006657604051630fc5815160e11b815260040160405180910390fd5b6001600160a01b0390911660805260a052620000b9565b600080604083850312156200009157600080fd5b82516001600160a01b0381168114620000a957600080fd5b6020939093015192949293505050565b60805160a05161542c620000eb60003960008181605301526117b501526000818160e9015261121a015261542c6000f3fe608060405234801561001057600080fd5b506004361061004c5760003560e01c80631219a4e41461005157806354fd4d50146100865780637dc0d1d0146100cf578063e14ced3214610113575b600080fd5b7f00000000000000000000000000000000000000000000000000000000000000005b6040519081526020015b60405180910390f35b6100c26040518060400160405280600581526020017f312e392e3000000000000000000000000000000000000000000000000000000081525081565b60405161007d9190615195565b60405173ffffffffffffffffffffffffffffffffffffffff7f000000000000000000000000000000000000000000000000000000000000000016815260200161007d565b61007361012136600461524a565b60006101308686868686610143565b905061013a61066b565b95945050505050565b604080516101e081018252600080825260208201819052918101829052606081018290526080810182905260a0810182905260c0810182905260e08101829052610100810182905261012081018290526101408101829052610160810182905261018081018290526101a081018290526101c081018290526101c361512b565b6000608083146101d257600080fd5b61026082146101e057600080fd5b604051610760146101f057600080fd5b608489146101fd57600080fd5b610164871461020b57600080fd5b508735608052602088013560a052604088013560c090811c81526048890135811c60e052605089013560f890811c6101005260518a0135821c6101205260598a0135821c6101405260618a0135811c6101605260628a0135811c61018081905260638b0135831c6101a052606b8b0135831c6101c05260738b013590911c6101e05260748a01356102005260948a01356102205260b48a013590911c610240526102b4816107b5565b826101000151156102d1576102c76107f9565b935050505061013a565b7fad3228b676f7d3cd4284a5443f17f1962b36e491b30a40b2405849e597ba5fb58361018001511480156103085750826101600151155b8061034457507fad3228b676f7d3cd4284a5443f17f1962b36e491b30a40b2405849e597ba5fb5836101a0015114801561034457508261016001515b156103d5576040517f08c379a0000000000000000000000000000000000000000000000000000000008152602060048201526024808201527f4d49505336343a206163746976652074687265616420737461636b206973206560448201527f6d7074790000000000000000000000000000000000000000000000000000000060648201526084015b60405180910390fd5b6101208301805160010167ffffffffffffffff1690526103f482610919565b6103fe8383610a3d565b8160400151156104195761041183610ae1565b6102c76107f9565b620186a067ffffffffffffffff1683610140015167ffffffffffffffff161061044f576104468383610b6c565b506102c76107f9565b6101408301805160010167ffffffffffffffff16905260006102ae905060008060006104848660600151886000015186610d4a565b9250925092508163ffffffff1660001480156104a657508063ffffffff16600c145b156104c2576104b489610dd0565b97505050505050505061013a565b63ffffffff8216603014806104dd575063ffffffff82166038145b156104ee576104b487878585611fc5565b63ffffffff821660341480610509575063ffffffff8216603c145b1561051a576104b487878585611fc5565b60006105a4876040805160808101825260008082526020820181905291810182905260608101919091526040518060800160405280836060015167ffffffffffffffff168152602001836080015167ffffffffffffffff1681526020018360a0015167ffffffffffffffff1681526020018360c0015167ffffffffffffffff168152509050919050565b6040805160e080820183528382528a015160208201528a5191810191909152610a2e606082015263ffffffff808716608083015285811660a0830152841660c08201529091506000806105f68361227a565b918d52855167ffffffffffffffff9081166060808f01919091526020880151821660808f01526040880151821660a08f01528701511660c08d01529250905061063d61282f565b811561064d5761064d8b826128ec565b6106556107f9565b9b50505050505050505050505095945050505050565b604080516101e0808201835260008083526020830181905292820183905260608201839052608080830184905260a0830184905260c0830184905260e08301849052610100830184905261012083018490526101408301849052610160830184905261018083018490526101a083018490526101c0909201839052519091906106f957816101800151610700565b816101a001515b90507fad3228b676f7d3cd4284a5443f17f1962b36e491b30a40b2405849e597ba5fb581036107b1576040517f08c379a000000000000000000000000000000000000000000000000000000000815260206004820152602f60248201527f4d49505336343a20706f73742d7374617465206163746976652074687265616460448201527f20737461636b20697320656d707479000000000000000000000000000000000060648201526084016103cc565b5050565b60018163ffffffff1611156107f6576040517f0136cc7600000000000000000000000000000000000000000000000000000000815260040160405180910390fd5b50565b60408051608051815260a051602082015260d8519181019190915260f851604882015261011f5160508201526101385160518201526101585160598201526101605161017f5160618301526101805161019f5160628401526101b85160638401526101d851606b8401526101ff5160738401526102005160748401526102205160948401526102585160b4840152600060bc8085018281529194929361026093929183a06000935084600181146108b357600394506108db565b8180156108cb57600181146108d457600295506108d9565b600095506108d9565b600195505b505b505081900390207effffffffffffffffffffffffffffffffffffffffffffffffffffffffffffff1660f89190911b179150610915816107b5565b5090565b3661092861012a6101646152ed565b8110156109b7576040517f08c379a000000000000000000000000000000000000000000000000000000000815260206004820152603060248201527f4d49505336343a20696e73756666696369656e742063616c6c6461746120666f60448201527f7220746872656164207769746e6573730000000000000000000000000000000060648201526084016103cc565b6101643560c090811c835261016c3560f890811c602085015261016d35901c604084015261016e35811c606084015261017635811c608084015261017e35811c60a084015261018635811c9083015260e082015161018e9060005b6020811015610a3657823560c01c8252600890920191602090910190600101610a12565b5050505050565b6000610a50610a4a612924565b836129d7565b90506000836101600151610a6957836101800151610a70565b836101a001515b9050818114610adb576040517f08c379a000000000000000000000000000000000000000000000000000000000815260206004820152601e60248201527f4d49505336343a20696e76616c696420746872656164207769746e657373000060448201526064016103cc565b50505050565b80610160015115610aff57610af4612924565b6101a0820152610b0e565b610b07612924565b6101808201525b6000816101600151610b2557816101800151610b2c565b816101a001515b90507fad3228b676f7d3cd4284a5443f17f1962b36e491b30a40b2405849e597ba5fb58103610b6057610160820180511590525b50600061014090910152565b600082610160015115610c30577fad3228b676f7d3cd4284a5443f17f1962b36e491b30a40b2405849e597ba5fb5836101a0015103610c07576040517f08c379a000000000000000000000000000000000000000000000000000000000815260206004820181905260248201527f4d49505336343a20656d7074792072696768742074687265616420737461636b60448201526064016103cc565b610c0f612924565b6101a0840152610180830151610c2590836129d7565b610180840152610ce3565b7fad3228b676f7d3cd4284a5443f17f1962b36e491b30a40b2405849e597ba5fb583610180015103610cbe576040517f08c379a000000000000000000000000000000000000000000000000000000000815260206004820152601f60248201527f4d49505336343a20656d707479206c6566742074687265616420737461636b0060448201526064016103cc565b610cc6612924565b6101808401526101a0830151610cdc90836129d7565b6101a08401525b6000836101600151610cfa57836101800151610d01565b836101a001515b90507fad3228b676f7d3cd4284a5443f17f1962b36e491b30a40b2405849e597ba5fb58103610d395761016084018051159052600191505b506000610140909301929092525090565b600080806003861615610d89576040517f3f8200bc00000000000000000000000000000000000000000000000000000000815260040160405180910390fd5b6000610da08667fffffffffffffff8891687612a19565b9050610db0878260046000612a6b565b9350601a8463ffffffff16901c925083603f169150505b93509350939050565b604080516101e081018252600080825260208201819052918101829052606081018290526080810182905260a0810182905260c0810182905260e08101829052610100810182905261012081018290526101408101829052610160810182905261018081018290526101a081018290526101c08101829052610e5061512b565b608091506102609050600080600080610e6c8560e00151612abb565b935093509350935060008061139163ffffffff168667ffffffffffffffff1603610eb857610e9f85858a60600151612ad7565b67ffffffffffffffff1660608b01529092509050611ebf565b7fffffffffffffffffffffffffffffffffffffffffffffffffffffffffffffec6c67ffffffffffffffff871601610ef757654000000000009150611ebf565b7fffffffffffffffffffffffffffffffffffffffffffffffffffffffffffffec4167ffffffffffffffff87160161114e5762050f0067ffffffffffffffff861614610f61576001610100890152600260e0890152610f536107f9565b9a9950505050505050505050565b50506101c08601516000610f7361512b565b6101c089015167ffffffffffffffff9081168252600060208301819052604083018190526080808b018051841660608601525160040183169084015260a0808b015183169084015260c0808b0151909216918301919091525b6020811015611022578860e001518160208110610feb57610feb615305565b60200201518260e00151826020811061100657611006615305565b67ffffffffffffffff9092166020929092020152600101610fcc565b5060e0818101805167ffffffffffffffff8881166103a09092019190915281516000604091820181905292519093018290526101c08c018051600101821690528251608080820185528382526020808301859052828601859052606092830185905285518083018752838f015185168152918e015184169082015260a08d015183169481019490945260c08c0151909116908301529060e0808b015167ffffffffffffffff80881660408301528087169190920152602082018051808316845260040190911690529050805167ffffffffffffffff9081166060808c01919091526020830151821660808c01526040830151821660a08c01528201511660c08a015261112c61282f565b6111368a83612b89565b61113e6107f9565b9c9b505050505050505050505050565b7fffffffffffffffffffffffffffffffffffffffffffffffffffffffffffffebab67ffffffffffffffff8716016111a057600161010089015260ff851660e089015261119861282f565b610f536107f9565b7fffffffffffffffffffffffffffffffffffffffffffffffffffffffffffffec7867ffffffffffffffff87160161127a57604080516101208101825267ffffffffffffffff8781168252868116602080840191909152868216838501528b01516060830152918a0151909116608082015260a081018b90527f000000000000000000000000000000000000000000000000000000000000000073ffffffffffffffffffffffffffffffffffffffff1660c0820152610a2e60e0820152885161010082015261126e8982612bcf565b9093509150611ebf9050565b7fffffffffffffffffffffffffffffffffffffffffffffffffffffffffffffec7767ffffffffffffffff871601611322576040805160e08101825267ffffffffffffffff8781168252868116602080840191909152868216838501528b01516060830152918a01519091166080820152610a2e60a0820152885160c082015261130281612c15565b67ffffffffffffffff1660408d015260208c01529093509150611ebf9050565b7fffffffffffffffffffffffffffffffffffffffffffffffffffffffffffffec3267ffffffffffffffff8716016113675761135d8585612da7565b9092509050611ebf565b7fffffffffffffffffffffffffffffffffffffffffffffffffffffffffffffebc667ffffffffffffffff8716016113a357505084516000611ebf565b7fffffffffffffffffffffffffffffffffffffffffffffffffffffffffffffec3e67ffffffffffffffff87160161140c576001604088015260ff851660208801526113ed88612f2e565b1561140457600161010089015260ff851660e08901525b61119861282f565b7fffffffffffffffffffffffffffffffffffffffffffffffffffffffffffffebb667ffffffffffffffff87160161152d5767fffffffffffffffc85167fffffffffffffffffffffffffffffffffffffffffffffffffffffffffffffff8067ffffffffffffffff8616016114cd57600061148482612fb1565b90508463ffffffff808316908216146114ab57600b945067ffffffffffffffff93506114c6565b6114b58b8b61303b565b9d9c50505050505050505050505050565b5050611527565b7fffffffffffffffffffffffffffffffffffffffffffffffffffffffffffffff7f67ffffffffffffffff86160161151757611508898961303b565b9b9a5050505050505050505050565b6016925067ffffffffffffffff91505b50611ebf565b67ffffffffffffffff861661139f1480611552575067ffffffffffffffff86166113aa145b1561156157610f53888861303b565b7fffffffffffffffffffffffffffffffffffffffffffffffffffffffffffffec7667ffffffffffffffff8716016115a557506009905067ffffffffffffffff611ebf565b7fffffffffffffffffffffffffffffffffffffffffffffffffffffffffffffeb9a67ffffffffffffffff8716016117435767ffffffffffffffff851615806115f7575067ffffffffffffffff85166001145b156117305750600090508080807fffffffffffffffffffffffffffffffffffffffffffffffffffffffffffffffff67ffffffffffffffff8816016116575750506101208801516298968067ffffffffffffffff9091168181049190066064025b895167fffffffffffffff88716906116729082610a2e613151565b6116a8576040517f8e77b2b700000000000000000000000000000000000000000000000000000000815260040160405180910390fd5b6116b581610a2e8561315e565b8b526116c18b826128ec565b8a516116d390600883016111ae613151565b611709576040517f834c4cd400000000000000000000000000000000000000000000000000000000815260040160405180910390fd5b611719600882016111ae8461315e565b8b526117288b600883016128ec565b505050611ebf565b506016905067ffffffffffffffff611ebf565b7fffffffffffffffffffffffffffffffffffffffffffffffffffffffffffffec5267ffffffffffffffff87160161177f57506000905080611ebf565b7fffffffffffffffffffffffffffffffffffffffffffffffffffffffffffffeb3f67ffffffffffffffff8716016117f7576117d97f000000000000000000000000000000000000000000000000000000000000000061322d565b51156117f2576117ea88868661324e565b8a5290925090505b611ebf565b7fffffffffffffffffffffffffffffffffffffffffffffffffffffffffffffec6d67ffffffffffffffff87160115611ebf577fffffffffffffffffffffffffffffffffffffffffffffffffffffffffffffec6e67ffffffffffffffff87160115611ebf577fffffffffffffffffffffffffffffffffffffffffffffffffffffffffffffebb467ffffffffffffffff87160115611ebf577fffffffffffffffffffffffffffffffffffffffffffffffffffffffffffffec5d67ffffffffffffffff87160115611ebf577fffffffffffffffffffffffffffffffffffffffffffffffffffffffffffffec6a67ffffffffffffffff87160115611ebf577fffffffffffffffffffffffffffffffffffffffffffffffffffffffffffffebf767ffffffffffffffff87160115611ebf577fffffffffffffffffffffffffffffffffffffffffffffffffffffffffffffec6b67ffffffffffffffff87160115611ebf577fffffffffffffffffffffffffffffffffffffffffffffffffffffffffffffeb4f67ffffffffffffffff87160115611ebf577fffffffffffffffffffffffffffffffffffffffffffffffffffffffffffffec7567ffffffffffffffff87160115611ebf577fffffffffffffffffffffffffffffffffffffffffffffffffffffffffffffec6867ffffffffffffffff87160115611ebf577fffffffffffffffffffffffffffffffffffffffffffffffffffffffffffffec7467ffffffffffffffff87160115611ebf577fffffffffffffffffffffffffffffffffffffffffffffffffffffffffffffec7367ffffffffffffffff87160115611ebf577fffffffffffffffffffffffffffffffffffffffffffffffffffffffffffffeb8167ffffffffffffffff87160115611ebf577fffffffffffffffffffffffffffffffffffffffffffffffffffffffffffffec2167ffffffffffffffff87160115611ebf577fffffffffffffffffffffffffffffffffffffffffffffffffffffffffffffeb7767ffffffffffffffff87160115611ebf577fffffffffffffffffffffffffffffffffffffffffffffffffffffffffffffec6967ffffffffffffffff87160115611ebf577fffffffffffffffffffffffffffffffffffffffffffffffffffffffffffffeb5b67ffffffffffffffff87160115611ebf577fffffffffffffffffffffffffffffffffffffffffffffffffffffffffffffeb5967ffffffffffffffff87160115611ebf577fffffffffffffffffffffffffffffffffffffffffffffffffffffffffffffeba867ffffffffffffffff87160115611ebf577fffffffffffffffffffffffffffffffffffffffffffffffffffffffffffffeb6867ffffffffffffffff87160115611ebf577fffffffffffffffffffffffffffffffffffffffffffffffffffffffffffffec3b67ffffffffffffffff87160115611ebf577fffffffffffffffffffffffffffffffffffffffffffffffffffffffffffffec1467ffffffffffffffff87160115611ebf577fffffffffffffffffffffffffffffffffffffffffffffffffffffffffffffec1267ffffffffffffffff87160115611ebf577fffffffffffffffffffffffffffffffffffffffffffffffffffffffffffffec5e67ffffffffffffffff87160115611ebf577fffffffffffffffffffffffffffffffffffffffffffffffffffffffffffffeb9767ffffffffffffffff87160115611ebf577fffffffffffffffffffffffffffffffffffffffffffffffffffffffffffffec5467ffffffffffffffff87160115611ebf577fffffffffffffffffffffffffffffffffffffffffffffffffffffffffffffeba067ffffffffffffffff87160115611ebf577fffffffffffffffffffffffffffffffffffffffffffffffffffffffffffffeb9f67ffffffffffffffff87160115611ebf577fffffffffffffffffffffffffffffffffffffffffffffffffffffffffffffeb9c67ffffffffffffffff87160115611ebf577fffffffffffffffffffffffffffffffffffffffffffffffffffffffffffffec1967ffffffffffffffff87160115611ebf577fffffffffffffffffffffffffffffffffffffffffffffffffffffffffffffec7067ffffffffffffffff87160115611ebf577fffffffffffffffffffffffffffffffffffffffffffffffffffffffffffffeb5c67ffffffffffffffff871601611e5d5760808416600003611e5457506016905067ffffffffffffffff611ebf565b60649150611ebf565b6040517f08c379a000000000000000000000000000000000000000000000000000000000815260206004820152601d60248201527f4d49505336343a20756e696d706c656d656e7465642073797363616c6c00000060448201526064016103cc565b6000611f49886040805160808101825260008082526020820181905291810182905260608101919091526040518060800160405280836060015167ffffffffffffffff168152602001836080015167ffffffffffffffff1681526020018360a0015167ffffffffffffffff1681526020018360c0015167ffffffffffffffff168152509050919050565b60e0808a015167ffffffffffffffff80871660408301528086169190920152602082018051808316845260040190911690529050805167ffffffffffffffff9081166060808b01919091526020830151821660808b01526040830151821660a08b01528201511660c0890152611fbd61282f565b6115086107f9565b60e08301516000908190601f601586901c1660208110611fe757611fe7615305565b60200201519050601f601085901c166000612001866133db565b830190506001600463ffffffff871660341480612024575063ffffffff8716603c145b1561203157506002905060085b885160009063ffffffff891660301480612051575063ffffffff89166034145b1561208b576120638c868560016133f2565b60ff851660808e015267ffffffffffffffff80871660a08f0152821660c08e0152915061218e565b63ffffffff8916603814806120a6575063ffffffff8916603c145b1561215c578360ff168c6080015160ff161480156120db57508067ffffffffffffffff168c60c0015167ffffffffffffffff16145b80156120fe57508467ffffffffffffffff168c60a0015167ffffffffffffffff16145b1561215357600060808d0181905260a08d0181905260c08d015260008b60e001518763ffffffff166020811061213657612136615305565b602002015190506121498d878684613432565b600192505061218e565b6000915061218e565b6040517fecf79d0d00000000000000000000000000000000000000000000000000000000815260040160405180910390fd5b60006122188c6040805160808101825260008082526020820181905291810182905260608101919091526040518060800160405280836060015167ffffffffffffffff168152602001836080015167ffffffffffffffff1681526020018360a0015167ffffffffffffffff1681526020018360c0015167ffffffffffffffff168152509050919050565b9050612232818d60e001518963ffffffff1686600161348c565b805167ffffffffffffffff9081166060808f01919091526020830151821660808f01526040830151821660a08f01528201511660c08d015261227261282f565b6114b56107f9565b604081015160a0820151600090819063ffffffff16600214806122a757508360a0015163ffffffff166003145b1561230b57608084015160009060021b630ffffffc166122cc63f00000006020613570565b86600001516020015116179050612305858660a0015163ffffffff166002146122f657601f6122f9565b60005b63ffffffff16836135ea565b50612828565b60808401516020808601516000928392601f601083901c8116939260151c1690811061233957612339615305565b6020020151925060008190508760a0015163ffffffff166027148061236857508760a0015163ffffffff16601a145b8061237d57508760a0015163ffffffff16601b145b156123b15787602001518267ffffffffffffffff16602081106123a2576123a2615305565b602002015192508190506124ee565b60a088015163ffffffff1615806123d257508760a0015163ffffffff16601c145b156124115787602001518267ffffffffffffffff16602081106123f7576123f7615305565b60200201516080890151909350600b1c601f1690506124ee565b60208860a0015163ffffffff161015612485578760a0015163ffffffff16600c148061244757508760a0015163ffffffff16600d145b8061245c57508760a0015163ffffffff16600e145b1561247157608088015161ffff1692506124ee565b61247e88608001516133db565b92506124ee565b60288860a0015163ffffffff161015806124a957508760a0015163ffffffff166022145b806124be57508760a0015163ffffffff166026145b156124ee5787602001518267ffffffffffffffff16602081106124e3576124e3615305565b602002015192508190505b60048860a0015163ffffffff1610158015612513575060088860a0015163ffffffff16105b8061252857508760a0015163ffffffff166001145b156125545761254b886000015189602001518a60a001518b6080015186896136d4565b50505050612828565b600067ffffffffffffffff9050600060208a60a0015163ffffffff16101580612587575060a08a015163ffffffff16601a145b8061259c575060a08a015163ffffffff16601b145b15612604576125ae8a608001516133db565b86019550600067fffffffffffffff8871690506125d48b60400151828d60600151612a19565b915060288b60a0015163ffffffff1610612602578a60a0015163ffffffff1660371461260257809250600093505b505b60006040518060c001604052808c6080015163ffffffff1681526020018c60a0015163ffffffff1681526020018c60c0015163ffffffff1681526020018867ffffffffffffffff1681526020018767ffffffffffffffff1681526020018367ffffffffffffffff168152509050600067ffffffffffffffff61268583613947565b60a08e01519116915060209063ffffffff161580156126af575060088d60c0015163ffffffff1610155b80156126ce57508067ffffffffffffffff168d60c0015163ffffffff16105b156127de578c60c0015163ffffffff16600814806126f657508c60c0015163ffffffff166009145b1561272e576127208d8e60c0015163ffffffff16600814612717578761271a565b60005b8b6135ea565b505050505050505050612828565b8c60c0015163ffffffff16600a0361275f578c5160208e01516127209190888c67ffffffffffffffff8d161561348c565b8c60c0015163ffffffff16600b03612791578c5160208e01516127209190888c67ffffffffffffffff8d16151561348c565b60108d60c0015163ffffffff16101580156127bf57508067ffffffffffffffff168d60c0015163ffffffff16105b156127de576127208d600001518e602001518f60c001518c8c8b6145c1565b67ffffffffffffffff85811614612808576127fe858e606001518461315e565b9b5060019a508499505b61281e8d600001518e602001518885600161348c565b5050505050505050505b9193909250565b604080516101e081018252600080825260208201819052918101829052606081018290526080810182905260a0810182905260c0810182905260e08101829052610100810182905261012081018290526101408101829052610160810182905261018081018290526101a081018290526101c08101919091526128b061512b565b506080905061026060006128c5610a4a612924565b9050826101600151156128df576101a08301819052505050565b6101808301819052505050565b60a082015167fffffffffffffff81667ffffffffffffffff8216036107b15760006080830181905260a0830181905260c08301525050565b61028e353661293661012a6020615363565b6129489063ffffffff166101646152ed565b811015610915576040517f08c379a000000000000000000000000000000000000000000000000000000000815260206004820152603060248201527f4d49505336343a20696e73756666696369656e742063616c6c6461746120666f60448201527f7220746872656164207769746e6573730000000000000000000000000000000060648201526084016103cc565b6000806129e383614b9b565b60408051602081018790529081018290529091506060016040516020818303038152906040528051906020012091505092915050565b600080612a27858585614c24565b909250905080612a63576040517f8e77b2b700000000000000000000000000000000000000000000000000000000815260040160405180910390fd5b509392505050565b600080600080612a7b8887614cfc565b925092509250828267ffffffffffffffff168867ffffffffffffffff16901c1693508415612ab057612aad8482613570565b93505b505050949350505050565b6040810151608082015160a083015160c08401515b9193509193565b6000808284610fff811615612af157610fff811661100003015b8667ffffffffffffffff16600003612b7b57849350908101906560000000000067ffffffffffffffff83161180612b3b57508467ffffffffffffffff168267ffffffffffffffff16105b80612b5957508567ffffffffffffffff168167ffffffffffffffff16105b15612b7657506016925067ffffffffffffffff9150839050610dc7565b612b7f565b8693505b5093509350939050565b81610160015115612bae57612ba3826101a00151826129d7565b6101a0830152610b60565b612bbd826101800151826129d7565b61018083015250600061014090910152565b600080600080612bde85614d80565b918b5267ffffffffffffffff90921660408b0152929650909450925090508115612c0c57612c0c86826128ec565b50509250929050565b6060810151608082015182516000928392909167ffffffffffffffff1660011480612c4b5750845167ffffffffffffffff166002145b80612c615750845167ffffffffffffffff166004145b15612c725784604001519350612ad0565b845167ffffffffffffffff167ffffffffffffffffffffffffffffffffffffffffffffffffffffffffffffffffa01612d4c576000612cc78660c0015167fffffffffffffff88860200151168860a00151612a19565b60608701516020880151604089015192935090916007821660080381811015612cee578091505b67ffffffffffffffff821660408b018190529850600880830294851b600190951b7fffffffffffffffffffffffffffffffffffffffffffffffffffffffffffffffff0192909103029390931c9290921617925060009150612ad09050565b845167ffffffffffffffff167fffffffffffffffffffffffffffffffffffffffffffffffffffffffffffffff9c01612d9257600b935067ffffffffffffffff9250612ad0565b60099567ffffffffffffffff95509193509150565b60008067ffffffffffffffff8316600103612e675767ffffffffffffffff84161580612ddd575067ffffffffffffffff84166001145b80612df2575067ffffffffffffffff84166002145b80612e07575067ffffffffffffffff84166005145b80612e1c575067ffffffffffffffff84166003145b80612e31575067ffffffffffffffff84166006145b80612e46575067ffffffffffffffff84166004145b15612e545760009150612f27565b506009905067ffffffffffffffff612f27565b8267ffffffffffffffff16600303612f185767ffffffffffffffff84161580612e9a575067ffffffffffffffff84166005145b80612eaf575067ffffffffffffffff84166003145b15612ebd5760009150612f27565b67ffffffffffffffff841660011480612ee0575067ffffffffffffffff84166002145b80612ef5575067ffffffffffffffff84166006145b80612f0a575067ffffffffffffffff84166004145b15612e545760019150612f27565b506016905067ffffffffffffffff5b9250929050565b600080826101600151612f4657826101a00151612f4d565b8261018001515b905060007fad3228b676f7d3cd4284a5443f17f1962b36e491b30a40b2405849e597ba5fb5612f7a612924565b1490507fad3228b676f7d3cd4284a5443f17f1962b36e491b30a40b2405849e597ba5fb582148015612fa95750805b949350505050565b604080516101e081018252600080825260208201819052918101829052606081018290526080810182905260a0810182905260c0810182905260e08101829052610100810182905261012081018290526101408101829052610160810182905261018081018290526101a081018290526101c081018290525060806000612fa982856004846133f2565b60008080806130c8856040805160808101825260008082526020820181905291810182905260608101919091526040518060800160405280836060015167ffffffffffffffff168152602001836080015167ffffffffffffffff1681526020018360a0015167ffffffffffffffff1681526020018360c0015167ffffffffffffffff168152509050919050565b60e08087015167ffffffffffffffff80871660408301528086169190920152602082018051808316845260040190911690529050805167ffffffffffffffff9081166060808801919091526020830151821660808801526040830151821660a08801528201511660c086015261313e8686610b6c565b506131476107f9565b9695505050505050565b600061013a848484614c24565b60006131698361505e565b600784161561319d576040517fe6c4247b000000000000000000000000000000000000000000000000000000008152600481fd5b6020830192601f851660180360031b83811b913567ffffffffffffffff90911b191617600585901c603b60005b818110156132215760208701963583821c60011680156131f1576001811461320657613217565b60008681526020839052604090209550613217565b600082815260208790526040902095505b50506001016131ca565b50919695505050505050565b6040805160208101909152600081526008821061324957600181525b919050565b6000808067fffffffffffffff885168161328161326f61012a6101646152ed565b61327a9060206152ed565b6107800190565b9050600061329489600001518484612a19565b905060006133048a610120015160008082679e3779b97f4a7c15019050601e8167ffffffffffffffff16901c811867bf58476d1ce4e5b9029050601b8167ffffffffffffffff16901c81186794d049bb133111eb029050601f8167ffffffffffffffff16901c8118915050919050565b90506000613312858b61538b565b9050600061332182600861538b565b90508967ffffffffffffffff808216908316101561333c5750805b6000600161334b8360086153b4565b67ffffffffffffffff166001901b61336391906153e4565b905061337082600861538b565b61337b9060086153b4565b67ffffffffffffffff91821691161b6133958460086153b4565b67ffffffffffffffff91821691161c80198616858216176133b789898361315e565b99506133c38f8a6128ec565b50909d60009d50979b50969950505050505050505050565b60006133ec61ffff83166010613570565b92915050565b600067fffffffffffffff884168161341161326f61012a6101646152ed565b9050600061342488600001518484612a19565b9050612aad87828888612a6b565b67fffffffffffffff88316600061345061326f61012a6101646152ed565b9050600061346387600001518484612a19565b90506000613473878388886150f3565b905061348084848361315e565b90975250505050505050565b60208367ffffffffffffffff1610613500576040517f08c379a000000000000000000000000000000000000000000000000000000000815260206004820152601660248201527f4d49505336343a2076616c69642072656769737465720000000000000000000060448201526064016103cc565b67ffffffffffffffff8316158015906135165750805b1561354d5781848467ffffffffffffffff166020811061353857613538615305565b67ffffffffffffffff90921660209290920201525b5050505060208101805167ffffffffffffffff8082169093526004019091169052565b6000600167ffffffffffffffff8481167fffffffffffffffffffffffffffffffffffffffffffffffffffffffffffffffff85810183169190911c83161515926040869003831681901b820192861692831b921b01826135d05760006135d2565b815b90861667ffffffffffffffff16179250505092915050565b8251805160209091015167ffffffffffffffff9081166004909201161461366d576040517f08c379a000000000000000000000000000000000000000000000000000000000815260206004820152601a60248201527f4d49505336343a206a756d7020696e2064656c617920736c6f7400000000000060448201526064016103cc565b8251805160208083015167ffffffffffffffff908116909352855184841691015290831615610adb578060080184602001518467ffffffffffffffff16602081106136ba576136ba615305565b67ffffffffffffffff909216602092909202015250505050565b6000866000015160040167ffffffffffffffff16876020015167ffffffffffffffff161461375e576040517f08c379a000000000000000000000000000000000000000000000000000000000815260206004820152601c60248201527f4d49505336343a206272616e636820696e2064656c617920736c6f740000000060448201526064016103cc565b8463ffffffff166004148061377957508463ffffffff166005145b15613804576000868467ffffffffffffffff166020811061379c5761379c615305565b602002015190508067ffffffffffffffff168367ffffffffffffffff161480156137cc57508563ffffffff166004145b806137fc57508067ffffffffffffffff168367ffffffffffffffff16141580156137fc57508563ffffffff166005145b9150506138de565b8463ffffffff166006036138215760008260070b131590506138de565b8463ffffffff1660070361383d5760008260070b1390506138de565b8463ffffffff166001036138de57601f601085901c1660008190036138665760008360070b1291505b8063ffffffff1660100361389457875160080167ffffffffffffffff166103e08801526000600784900b1291505b8063ffffffff166001036138ad5760008360070b121591505b8063ffffffff166011036138dc57875160080167ffffffffffffffff166103e08801526000600784900b121591505b505b8651602088015167ffffffffffffffff168852811561392757600261390861ffff87166010613570565b67ffffffffffffffff90811690911b820160040116602089015261393d565b60208801805160040167ffffffffffffffff1690525b5050505050505050565b8051602082015160408301516060840151608085015160a0860151600095949392919063ffffffff85161580613995575060088563ffffffff16101580156139955750600f8563ffffffff16105b806139a657508463ffffffff166018145b806139b757508463ffffffff166019145b156140eb578460088114613a0a5760098114613a1357600a8114613a1c57600b8114613a2557600c8114613a2e57600d8114613a3757600e8114613a405760188114613a495760198114613a5257613a57565b60209450613a57565b60219450613a57565b602a9450613a57565b602b9450613a57565b60249450613a57565b60259450613a57565b60269450613a57565b602c9450613a57565b602d94505b508363ffffffff16600003613a9857601f600687901c16613a8b67ffffffffffffffff8416821b63ffffffff166020613570565b9998505050505050505050565b8363ffffffff16600203613acc57613ac063ffffffff8316601f600689901c161c6020613570565b98975050505050505050565b8363ffffffff16600303613afb57601f600687901c16613a8b63ffffffff848116831c90602084900316613570565b8363ffffffff16600403613b2a57601f8316613a8b67ffffffffffffffff8416821b63ffffffff166020613570565b8363ffffffff16600603613b4e57613ac063ffffffff8316601f85161c6020613570565b8363ffffffff16600703613b7657601f8316613a8b63ffffffff8416821c6020839003613570565b8363ffffffff16600803613b905750909695505050505050565b8363ffffffff16600903613baa5750909695505050505050565b8363ffffffff16600a03613bc45750909695505050505050565b8363ffffffff16600b03613bde5750909695505050505050565b8363ffffffff16600c03613bf85750909695505050505050565b8363ffffffff16600f03613c125750909695505050505050565b8363ffffffff16601003613c2c5750909695505050505050565b8363ffffffff16601103613c465750909695505050505050565b8363ffffffff16601203613c605750909695505050505050565b8363ffffffff16601303613c7a5750909695505050505050565b8363ffffffff16601403613c9357509695505050505050565b8363ffffffff16601603613cac57509695505050505050565b8363ffffffff16601703613cc557509695505050505050565b8363ffffffff16601803613cdf5750909695505050505050565b8363ffffffff16601903613cf95750909695505050505050565b8363ffffffff16601a03613d135750909695505050505050565b8363ffffffff16601b03613d2d5750909695505050505050565b8363ffffffff16601c03613d475750909695505050505050565b8363ffffffff16601d03613d615750909695505050505050565b8363ffffffff16601e03613d7b5750909695505050505050565b8363ffffffff16601f03613d955750909695505050505050565b8363ffffffff16602003613db657613ac082840163ffffffff166020613570565b8363ffffffff16602103613dd757613ac082840163ffffffff166020613570565b8363ffffffff16602203613df857613ac082840363ffffffff166020613570565b8363ffffffff16602303613e1957613ac082840363ffffffff166020613570565b8363ffffffff16602403613e3257501695945050505050565b8363ffffffff16602503613e4b57501795945050505050565b8363ffffffff16602603613e6457501895945050505050565b8363ffffffff16602703613e7e5750171995945050505050565b8363ffffffff16602a03613eb2578160070b8360070b12613ea0576000613ea3565b60015b60ff1698975050505050505050565b8363ffffffff16602b03613ee2578167ffffffffffffffff168367ffffffffffffffff1610613ea0576000613ea3565b8363ffffffff16602c03613efb57500195945050505050565b8363ffffffff16602d03613f1457500195945050505050565b8363ffffffff16602e03613f2e5750900395945050505050565b8363ffffffff16602f03613f485750900395945050505050565b8363ffffffff16603803613f77575067ffffffffffffffff1660069490941c601f169390931b95945050505050565b8363ffffffff16603a03613fa6575067ffffffffffffffff1660069490941c601f169390931c95945050505050565b8363ffffffff16603b03613fce575060070b60069490941c601f169390931d95945050505050565b8363ffffffff16603c0361400d5760068663ffffffff16901c601f1660200163ffffffff168267ffffffffffffffff16901b9650505050505050919050565b8363ffffffff16603e0361404c5760068663ffffffff16901c601f1660200163ffffffff168267ffffffffffffffff16901c9650505050505050919050565b8363ffffffff16603f036140845760068663ffffffff16901c601f1660200163ffffffff168260070b901d9650505050505050919050565b6040517f08c379a000000000000000000000000000000000000000000000000000000000815260206004820152601b60248201527f4d49505336343a20696e76616c696420696e737472756374696f6e000000000060448201526064016103cc565b614084565b8463ffffffff16601c036141e0578363ffffffff1660020361411a57613ac082840263ffffffff166020613570565b8363ffffffff166020148061413557508363ffffffff166021145b15614184578363ffffffff1660200361414c579119915b60005b6380000000841615614172576801fffffffffffffffe600194851b16930161414f565b63ffffffff1698975050505050505050565b8363ffffffff166024148061419f57508363ffffffff166025145b156140e6578363ffffffff166024036141b6579119915b60005b678000000000000000841615614172576801fffffffffffffffe600194851b1693016141b9565b8463ffffffff16600f0361420757613ac060108367ffffffffffffffff16901b6020613570565b8463ffffffff1660200361422257613ac08382600180612a6b565b8463ffffffff1660210361423e57613ac0838260026001612a6b565b8463ffffffff1660220361428f57600061425c848360046000612a6b565b905063ffffffff80821660086003871602821690811b919081901b81169061150890821987168116908416176020613570565b8463ffffffff166023036142ab57613ac0838260046001612a6b565b8463ffffffff166024036142c757613ac0838260016000612a6b565b8463ffffffff166025036142e357613ac0838260026000612a6b565b8463ffffffff16602603614360576000614301848360046000612a6b565b905063ffffffff80821660038681166008810260180367ffffffffffffffff1692831c939283901c928319881685171691036143425761113e816020613570565b67ffffffff00000000959095169094179a9950505050505050505050565b8463ffffffff1660280361437b57613ac083826001856150f3565b8463ffffffff1660290361439657613ac083826002856150f3565b8463ffffffff16602a036143e95763ffffffff601860039490941b93841681811c67ffffffffffffffff9081166020968716909603811695861b199390931693909116901c1690911b1795945050505050565b8463ffffffff16602b0361440457613ac083826004856150f3565b8463ffffffff16602e03614464576000614422848360046000612a6b565b905067ffffffffffffffff838116600860038716026018039182161b9063ffffffff90811681901b8116908119841681169083161761113e87866004846150f3565b8463ffffffff16601a036144985767ffffffffffffffff90811660039390931b60381692831b921b19161795945050505050565b8463ffffffff16601b036144db5767ffffffffffffffff90811660039390931b60389081169081900382169390931c60089390930181161b161795945050505050565b8463ffffffff166027036145175767ffffffffffffffff908116602060039490941b8416909303169190911c63ffffffff169695505050505050565b8463ffffffff16602c036145505767ffffffffffffffff91821660039390931b60381692831c9190921c19919091161795945050505050565b8463ffffffff16602d0361458f5767ffffffffffffffff603860039490941b8416909303831683811b19919091169190921690911b1795945050505050565b8463ffffffff166037036145a857979650505050505050565b8463ffffffff16603f0361408457509695505050505050565b60008463ffffffff166010036145dc57506060860151614b33565b8463ffffffff166011036145ff5767ffffffffffffffff84166060880152614b33565b8463ffffffff1660120361461857506040860151614b33565b8463ffffffff1660130361463b5767ffffffffffffffff84166040880152614b33565b8463ffffffff166018036146a45760008360030b8560030b02905061466f60208267ffffffffffffffff16901c6020613570565b67ffffffffffffffff16606089015261468f63ffffffff82166020613570565b67ffffffffffffffff16604089015250614b33565b8463ffffffff166019036146de5760008363ffffffff168563ffffffff1602905061466f60208267ffffffffffffffff16901c6020613570565b8463ffffffff16601a036147cc578263ffffffff1660000361475c576040517f08c379a000000000000000000000000000000000000000000000000000000000815260206004820152601860248201527f4d49505336343a206469766973696f6e206279207a65726f000000000000000060448201526064016103cc565b6147828360030b8560030b8161477457614774615334565b0763ffffffff166020613570565b67ffffffffffffffff1660608801526147b8600384810b9086900b816147aa576147aa615334565b0563ffffffff166020613570565b67ffffffffffffffff166040880152614b33565b8463ffffffff16601b036148ae578263ffffffff1660000361484a576040517f08c379a000000000000000000000000000000000000000000000000000000000815260206004820152601860248201527f4d49505336343a206469766973696f6e206279207a65726f000000000000000060448201526064016103cc565b6148768363ffffffff168563ffffffff168161486857614868615334565b0663ffffffff166020613570565b67ffffffffffffffff1660608801526147b863ffffffff808516908616816148a0576148a0615334565b0463ffffffff166020613570565b8463ffffffff166014036148d2575067ffffffffffffffff8216603f84161b614b33565b8463ffffffff166016036148f6575067ffffffffffffffff8216603f84161c614b33565b8463ffffffff166017036149145750600782900b603f84161d614b33565b8463ffffffff16601c036149515767ffffffffffffffff600785810b9085900b02600f81900b604090811d831660608b0152911690880152614b33565b8463ffffffff16601d036149865767ffffffffffffffff84811681851602604081811c831660608b0152911690880152614b33565b8463ffffffff16601e03614a58578267ffffffffffffffff16600003614a08576040517f08c379a000000000000000000000000000000000000000000000000000000000815260206004820152601860248201527f4d49505336343a206469766973696f6e206279207a65726f000000000000000060448201526064016103cc565b8260070b8460070b81614a1d57614a1d615334565b0767ffffffffffffffff166060880152600783810b9085900b81614a4357614a43615334565b0567ffffffffffffffff166040880152614b33565b8463ffffffff16601f03614b33578267ffffffffffffffff16600003614ada576040517f08c379a000000000000000000000000000000000000000000000000000000000815260206004820152601860248201527f4d49505336343a206469766973696f6e206279207a65726f000000000000000060448201526064016103cc565b8267ffffffffffffffff168467ffffffffffffffff1681614afd57614afd615334565b0667ffffffffffffffff908116606089015283811690851681614b2257614b22615334565b0467ffffffffffffffff1660408801525b67ffffffffffffffff821615614b755780868367ffffffffffffffff1660208110614b6057614b60615305565b67ffffffffffffffff90921660209290920201525b50505060208401805167ffffffffffffffff808216909652600401909416909352505050565b60405160188201518152603f8201516008820152605f82015160098201526078820151600a8201526098820151601282015260b8820151601a82015260d8820151602282015260e0820151600091602a8101835b6020811015614c135760188401518252602090930192600890910190600101614bef565b506000815281900390209392505050565b600080614c308361505e565b6007841615614c64576040517fe6c4247b000000000000000000000000000000000000000000000000000000008152600481fd5b602083019235600585901c81603b60005b81811015614ccc5760208801973584821c6001168015614c9c5760018114614cb157614cc2565b60008581526020839052604090209450614cc2565b600082815260208690526040902094505b5050600101614c75565b505087149250508115614cf357601f851660180360031b81901c67ffffffffffffffff1692505b50935093915050565b600080806807fffffffffffffff8600385901b1681614d1c82604061538b565b67ffffffffffffffff9081161c90506000614d3860018861538b565b19881660071690506000614d4d88600861538b565b905088821660006003614d60838561538b565b959c67ffffffffffffffff909616901b9a50949850929650505050505050565b610100810151608082015182516000928392918390819067ffffffffffffffff161561505557865167ffffffffffffffff167ffffffffffffffffffffffffffffffffffffffffffffffffffffffffffffffffb01614fc157600067fffffffffffffff888602001511690506000614e01896101000151838b60e00151612a19565b60608a015190915060001a600103614e8357614e7d89606001518a60a0015160408051600093845233602052918152606090922091527effffffffffffffffffffffffffffffffffffffffffffffffffffffffffffff167f01000000000000000000000000000000000000000000000000000000000000001790565b60608a01525b6000808a60c0015173ffffffffffffffffffffffffffffffffffffffff1663e03110e18c606001518d608001516040518363ffffffff1660e01b8152600401614ee092919091825267ffffffffffffffff16602082015260400190565b6040805180830381865afa158015614efc573d6000803e3d6000fd5b505050506040513d601f19601f82011682018060405250810190614f2091906153fb565b60208d015160408e01519294509092509060078216600881900384811015614f46578094505b5083821015614f53578193505b8460088502610100031c9450846008828660080303021b9450600180600883600803021b036001806008878560080303021b03915081198116905085811988161796505050614fa7868e60e001518761315e565b929b50505096890196955060019450919250615055915050565b865167ffffffffffffffff167ffffffffffffffffffffffffffffffffffffffffffffffffffffffffffffffffd01614fff5786604001519550615055565b865167ffffffffffffffff167fffffffffffffffffffffffffffffffffffffffffffffffffffffffffffffff9c0161504557600b955067ffffffffffffffff9450615055565b6009955067ffffffffffffffff94505b91939550919395565b3661078082018110156107b1576040517f08c379a000000000000000000000000000000000000000000000000000000000815260206004820152603160248201527f4d49505336344d656d6f72793a20636865636b2074686174207468657265206960448201527f7320656e6f7567682063616c6c6461746100000000000000000000000000000060648201526084016103cc565b60008060006151028786614cfc565b5067ffffffffffffffff868316811691811691821b9216901b1987161792505050949350505050565b6040805161010081018252600080825260208201819052918101829052606081018290526080810182905260a0810182905260c081019190915260e08101615171615176565b905290565b6040518061040001604052806020906020820280368337509192915050565b600060208083528351808285015260005b818110156151c2578581018301518582016040015282016151a6565b818111156151d4576000604083870101525b50601f017fffffffffffffffffffffffffffffffffffffffffffffffffffffffffffffffe016929092016040019392505050565b60008083601f84011261521a57600080fd5b50813567ffffffffffffffff81111561523257600080fd5b602083019150836020828501011115612f2757600080fd5b60008060008060006060868803121561526257600080fd5b853567ffffffffffffffff8082111561527a57600080fd5b61528689838a01615208565b9097509550602088013591508082111561529f57600080fd5b506152ac88828901615208565b96999598509660400135949350505050565b7f4e487b7100000000000000000000000000000000000000000000000000000000600052601160045260246000fd5b60008219821115615300576153006152be565b500190565b7f4e487b7100000000000000000000000000000000000000000000000000000000600052603260045260246000fd5b7f4e487b7100000000000000000000000000000000000000000000000000000000600052601260045260246000fd5b600063ffffffff808316818516808303821115615382576153826152be565b01949350505050565b600067ffffffffffffffff838116908316818110156153ac576153ac6152be565b039392505050565b600067ffffffffffffffff808316818516818304811182151516156153db576153db6152be565b02949350505050565b6000828210156153f6576153f66152be565b500390565b6000806040838503121561540e57600080fd5b50508051602090910151909290915056fea164736f6c634300080f000a","linkReferences":{}},"methodIdentifiers":{"oracle()":"7dc0d1d0","stateVersion()":"1219a4e4","step(bytes,bytes,bytes32)":"e14ced32","version()":"54fd4d50"},"storageLayout":{"storage":[],"types":{}},"userdoc":{"version":1,"kind":"user","methods":{"oracle()":{"notice":"Getter for the pre-image oracle contract."},"stateVersion()":{"notice":"Getter for the state version."},"step(bytes,bytes,bytes32)":{"notice":"Executes a single step of the multi-threaded vm.         Will revert if any required input state is missing."},"version()":{"notice":"The semantic version of the MIPS64 contract."}},"errors":{"InvalidExitedValue()":[{"notice":"Thrown when the value of the exited boolean is not 0 or 1."}],"InvalidMemoryProof()":[{"notice":"Thrown when reading an invalid memory"}],"InvalidRMWInstruction()":[{"notice":"Thrown when an RMW instruction is expected, but a different instruction is provided."}],"InvalidSecondMemoryProof()":[{"notice":"Thrown when the second memory location is invalid"}],"UnsupportedStateVersion()":[{"notice":"Thrown when the state version set is not supported."}]},"notice":"The MIPS64 contract emulates a single MIPS instruction.         It differs from MIPS.sol in that it supports MIPS64 instructions and multi-tasking."},"devdoc":{"version":1,"kind":"dev","methods":{"constructor":{"params":{"_oracle":"The address of the preimage oracle contract."}},"oracle()":{"returns":{"oracle_":"The IPreimageOracle contract."}},"stateVersion()":{"returns":{"stateVersion_":"The state version implemented by this contract."}},"step(bytes,bytes,bytes32)":{"params":{"_localContext":"The local key context for the preimage oracle. Optional, can be set as a constant                      if the caller only requires one set of local keys.","_proof":"The encoded proof data: <<thread_context, inner_root>, <memory proof>.               Contains the thread context witness and the memory proof data for leaves within the MIPS VM's memory.               The thread context witness is a packed tuple of the thread context and the immediate inner root of the current thread stack.","_stateData":"The encoded state witness data."},"returns":{"postState_":"The hash of the post state witness after the state transition."}}},"title":"MIPS64"},"id":252}