{"abi":[{"type":"function","name":"getMessageHash","inputs":[{"name":"message","type":"bytes","internalType":"bytes"}],"outputs":[{"name":"","type":"bytes32","internalType":"bytes32"}],"stateMutability":"view"},{"type":"function","name":"getMessageHashForSafe","inputs":[{"name":"safe","type":"address","internalType":"contract GnosisSafe"},{"name":"message","type":"bytes","internalType":"bytes"}],"outputs":[{"name":"","type":"bytes32","internalType":"bytes32"}],"stateMutability":"view"},{"type":"function","name":"getModules","inputs":[],"outputs":[{"name":"","type":"address[]","internalType":"address[]"}],"stateMutability":"view"},{"type":"function","name":"isValidSignature","inputs":[{"name":"_dataHash","type":"bytes32","internalType":"bytes32"},{"name":"_signature","type":"bytes","internalType":"bytes"}],"outputs":[{"name":"","type":"bytes4","internalType":"bytes4"}],"stateMutability":"view"},{"type":"function","name":"isValidSignature","inputs":[{"name":"_data","type":"bytes","internalType":"bytes"},{"name":"_signature","type":"bytes","internalType":"bytes"}],"outputs":[{"name":"","type":"bytes4","internalType":"bytes4"}],"stateMutability":"view"},{"type":"function","name":"onERC1155BatchReceived","inputs":[{"name":"","type":"address","internalType":"address"},{"name":"","type":"address","internalType":"address"},{"name":"","type":"uint256[]","internalType":"uint256[]"},{"name":"","type":"uint256[]","internalType":"uint256[]"},{"name":"","type":"bytes","internalType":"bytes"}],"outputs":[{"name":"","type":"bytes4","internalType":"bytes4"}],"stateMutability":"pure"},{"type":"function","name":"onERC1155Received","inputs":[{"name":"","type":"address","internalType":"address"},{"name":"","type":"address","internalType":"address"},{"name":"","type":"uint256","internalType":"uint256"},{"name":"","type":"uint256","internalType":"uint256"},{"name":"","type":"bytes","internalType":"bytes"}],"outputs":[{"name":"","type":"bytes4","internalType":"bytes4"}],"stateMutability":"pure"},{"type":"function","name":"onERC721Received","inputs":[{"name":"","type":"address","internalType":"address"},{"name":"","type":"address","internalType":"address"},{"name":"","type":"uint256","internalType":"uint256"},{"name":"","type":"bytes","internalType":"bytes"}],"outputs":[{"name":"","type":"bytes4","internalType":"bytes4"}],"stateMutability":"pure"},{"type":"function","name":"simulate","inputs":[{"name":"targetContract","type":"address","internalType":"address"},{"name":"calldataPayload","type":"bytes","internalType":"bytes"}],"outputs":[{"name":"response","type":"bytes","internalType":"bytes"}],"stateMutability":"nonpayable"},{"type":"function","name":"supportsInterface","inputs":[{"name":"interfaceId","type":"bytes4","internalType":"bytes4"}],"outputs":[{"name":"","type":"bool","internalType":"bool"}],"stateMutability":"view"},{"type":"function","name":"tokensReceived","inputs":[{"name":"","type":"address","internalType":"address"},{"name":"","type":"address","internalType":"address"},{"name":"","type":"address","internalType":"address"},{"name":"","type":"uint256","internalType":"uint256"},{"name":"","type":"bytes","internalType":"bytes"},{"name":"","type":"bytes","internalType":"bytes"}],"outputs":[],"stateMutability":"pure"}],"bytecode":{"object":"0x608060405234801561001057600080fd5b5061110f806100206000396000f3fe608060405234801561001057600080fd5b50600436106100c85760003560e01c806320c13b0b11610081578063bc197c811161005b578063bc197c81146101e7578063bd61951d14610222578063f23a6e611461024257600080fd5b806320c13b0b146101ac5780636ac24784146101bf578063b2494df3146101d257600080fd5b80630a1028c4116100b25780630a1028c41461010f578063150b7a02146101305780631626ba7e1461019957600080fd5b806223de29146100cd57806301ffc9a7146100e7575b600080fd5b6100e56100db36600461093e565b5050505050505050565b005b6100fa6100f5366004610a1d565b61027b565b60405190151581526020015b60405180910390f35b61012261011d366004610b46565b610360565b604051908152602001610106565b61016861013e366004610b83565b7f150b7a020000000000000000000000000000000000000000000000000000000095945050505050565b6040517fffffffff000000000000000000000000000000000000000000000000000000009091168152602001610106565b6101686101a7366004610bf6565b61036c565b6101686101ba366004610c42565b61048d565b6101226101cd366004610ca6565b61067e565b6101da6107bb565b6040516101069190610cec565b6101686101f5366004610d8b565b7fbc197c810000000000000000000000000000000000000000000000000000000098975050505050505050565b610235610230366004610e29565b61086d565b6040516101069190610ed0565b610168610250366004610ee3565b7ff23a6e61000000000000000000000000000000000000000000000000000000009695505050505050565b60007fffffffff0000000000000000000000000000000000000000000000000000000082167f4e2312e000000000000000000000000000000000000000000000000000000000148061030e57507fffffffff0000000000000000000000000000000000000000000000000000000082167f150b7a0200000000000000000000000000000000000000000000000000000000145b8061035a57507fffffffff0000000000000000000000000000000000000000000000000000000082167f01ffc9a700000000000000000000000000000000000000000000000000000000145b92915050565b600061035a338361067e565b60408051602080820186905282518083039091018152818301928390527f20c13b0b000000000000000000000000000000000000000000000000000000009092526000913391839183916320c13b0b916103cc9189908990604401610f5f565b602060405180830381865afa1580156103e9573d6000803e3d6000fd5b505050506040513d601f19601f8201168201806040525081019061040d9190610fc3565b90507fffffffff0000000000000000000000000000000000000000000000000000000081167f20c13b0b000000000000000000000000000000000000000000000000000000001461045f576000610481565b7f1626ba7e000000000000000000000000000000000000000000000000000000005b925050505b9392505050565b6000338161049b828661067e565b905083516000036105cd576040517f5ae6bd370000000000000000000000000000000000000000000000000000000081526004810182905273ffffffffffffffffffffffffffffffffffffffff831690635ae6bd3790602401602060405180830381865afa158015610511573d6000803e3d6000fd5b505050506040513d601f19601f820116820180604052508101906105359190610fe0565b6000036105c8576040517f08c379a000000000000000000000000000000000000000000000000000000000815260206004820152602f60248201527f436f6d7061746962696c69747946616c6c6261636b48616e646c65723a20486160448201527f7368206e6f7420617070726f7665640000000000000000000000000000000000606482015260840160405180910390fd5b610654565b6040517f934f3a1100000000000000000000000000000000000000000000000000000000815273ffffffffffffffffffffffffffffffffffffffff83169063934f3a119061062390849089908990600401610ff9565b60006040518083038186803b15801561063b57600080fd5b505afa15801561064f573d6000803e3d6000fd5b505050505b507f20c13b0b00000000000000000000000000000000000000000000000000000000949350505050565b6000807f60b3cbf8b4a223d68d641b3b6ddf9a298e7f33710cf3d3a9d1146b5a6150fbca60001b83805190602001206040516020016106c7929190918252602082015260400190565b604051602081830303815290604052805190602001209050601960f81b600160f81b8573ffffffffffffffffffffffffffffffffffffffff1663f698da256040518163ffffffff1660e01b8152600401602060405180830381865afa158015610734573d6000803e3d6000fd5b505050506040513d601f19601f820116820180604052508101906107589190610fe0565b6040517fff0000000000000000000000000000000000000000000000000000000000000093841660208201529290911660218301526022820152604281018290526062016040516020818303038152906040528051906020012091505092915050565b6040517fcc2f845200000000000000000000000000000000000000000000000000000000815260016004820152600a60248201526060903390600090829063cc2f845290604401600060405180830381865afa15801561081f573d6000803e3d6000fd5b505050506040513d6000823e601f3d9081017fffffffffffffffffffffffffffffffffffffffffffffffffffffffffffffffe0168201604052610865919081019061103e565b509392505050565b60606040517fb4faba09000000000000000000000000000000000000000000000000000000008152600436036004808301376020600036836000335af1505060203d036040519150808201604052806020833e5060005161048657805160208201fd5b73ffffffffffffffffffffffffffffffffffffffff811681146108f257600080fd5b50565b60008083601f84011261090757600080fd5b50813567ffffffffffffffff81111561091f57600080fd5b60208301915083602082850101111561093757600080fd5b9250929050565b60008060008060008060008060c0898b03121561095a57600080fd5b8835610965816108d0565b97506020890135610975816108d0565b96506040890135610985816108d0565b955060608901359450608089013567ffffffffffffffff808211156109a957600080fd5b6109b58c838d016108f5565b909650945060a08b01359150808211156109ce57600080fd5b506109db8b828c016108f5565b999c989b5096995094979396929594505050565b7fffffffff00000000000000000000000000000000000000000000000000000000811681146108f257600080fd5b600060208284031215610a2f57600080fd5b8135610486816109ef565b7f4e487b7100000000000000000000000000000000000000000000000000000000600052604160045260246000fd5b604051601f82017fffffffffffffffffffffffffffffffffffffffffffffffffffffffffffffffe016810167ffffffffffffffff81118282101715610ab057610ab0610a3a565b604052919050565b600082601f830112610ac957600080fd5b813567ffffffffffffffff811115610ae357610ae3610a3a565b610b1460207fffffffffffffffffffffffffffffffffffffffffffffffffffffffffffffffe0601f84011601610a69565b818152846020838601011115610b2957600080fd5b816020850160208301376000918101602001919091529392505050565b600060208284031215610b5857600080fd5b813567ffffffffffffffff811115610b6f57600080fd5b610b7b84828501610ab8565b949350505050565b600080600080600060808688031215610b9b57600080fd5b8535610ba6816108d0565b94506020860135610bb6816108d0565b935060408601359250606086013567ffffffffffffffff811115610bd957600080fd5b610be5888289016108f5565b969995985093965092949392505050565b600080600060408486031215610c0b57600080fd5b83359250602084013567ffffffffffffffff811115610c2957600080fd5b610c35868287016108f5565b9497909650939450505050565b60008060408385031215610c5557600080fd5b823567ffffffffffffffff80821115610c6d57600080fd5b610c7986838701610ab8565b93506020850135915080821115610c8f57600080fd5b50610c9c85828601610ab8565b9150509250929050565b60008060408385031215610cb957600080fd5b8235610cc4816108d0565b9150602083013567ffffffffffffffff811115610ce057600080fd5b610c9c85828601610ab8565b6020808252825182820181905260009190848201906040850190845b81811015610d3a57835173ffffffffffffffffffffffffffffffffffffffff1683529284019291840191600101610d08565b50909695505050505050565b60008083601f840112610d5857600080fd5b50813567ffffffffffffffff811115610d7057600080fd5b6020830191508360208260051b850101111561093757600080fd5b60008060008060008060008060a0898b031215610da757600080fd5b8835610db2816108d0565b97506020890135610dc2816108d0565b9650604089013567ffffffffffffffff80821115610ddf57600080fd5b610deb8c838d01610d46565b909850965060608b0135915080821115610e0457600080fd5b610e108c838d01610d46565b909650945060808b01359150808211156109ce57600080fd5b600080600060408486031215610e3e57600080fd5b8335610e49816108d0565b9250602084013567ffffffffffffffff811115610c2957600080fd5b6000815180845260005b81811015610e8b57602081850181015186830182015201610e6f565b81811115610e9d576000602083870101525b50601f017fffffffffffffffffffffffffffffffffffffffffffffffffffffffffffffffe0169290920160200192915050565b6020815260006104866020830184610e65565b60008060008060008060a08789031215610efc57600080fd5b8635610f07816108d0565b95506020870135610f17816108d0565b94506040870135935060608701359250608087013567ffffffffffffffff811115610f4157600080fd5b610f4d89828a016108f5565b979a9699509497509295939492505050565b604081526000610f726040830186610e65565b82810360208401528381528385602083013760006020858301015260207fffffffffffffffffffffffffffffffffffffffffffffffffffffffffffffffe0601f860116820101915050949350505050565b600060208284031215610fd557600080fd5b8151610486816109ef565b600060208284031215610ff257600080fd5b5051919050565b8381526060602082015260006110126060830185610e65565b82810360408401526110248185610e65565b9695505050505050565b8051611039816108d0565b919050565b6000806040838503121561105157600080fd5b825167ffffffffffffffff8082111561106957600080fd5b818501915085601f83011261107d57600080fd5b815160208282111561109157611091610a3a565b8160051b92506110a2818401610a69565b82815292840181019281810190898511156110bc57600080fd5b948201945b848610156110e657855193506110d6846108d0565b83825294820194908201906110c1565b96506110f5905087820161102e565b945050505050925092905056fea164736f6c634300080f000a","linkReferences":{}},"methodIdentifiers":{"getMessageHash(bytes)":"0a1028c4","getMessageHashForSafe(address,bytes)":"6ac24784","getModules()":"b2494df3","isValidSignature(bytes,bytes)":"20c13b0b","isValidSignature(bytes32,bytes)":"1626ba7e","onERC1155BatchReceived(address,address,uint256[],uint256[],bytes)":"bc197c81","onERC1155Received(address,address,uint256,uint256,bytes)":"f23a6e61","onERC721Received(address,address,uint256,bytes)":"150b7a02","simulate(address,bytes)":"bd61951d","supportsInterface(bytes4)":"01ffc9a7","tokensReceived(address,address,address,uint256,bytes,bytes)":"0023de29"},"storageLayout":{"storage":[],"types":{}},"userdoc":{"version":1,"kind":"user","methods":{"isValidSignature(bytes,bytes)":{"notice":"Implementation of ISignatureValidator (see `interfaces/ISignatureValidator.sol`)"},"isValidSignature(bytes32,bytes)":{"notice":"Implementation of updated EIP-1271See https://github.com/gnosis/util-contracts/blob/bb5fe5fb5df6d8400998094fb1b32a178a47c3a1/contracts/StorageAccessible.sol"}}},"devdoc":{"version":1,"kind":"dev","author":"Richard Meissner - <richard@gnosis.pm>","methods":{"getMessageHash(bytes)":{"details":"Returns hash of a message that can be signed by owners.","params":{"message":"Message that should be hashed"},"returns":{"_0":"Message hash."}},"getMessageHashForSafe(address,bytes)":{"details":"Returns hash of a message that can be signed by owners.","params":{"message":"Message that should be hashed","safe":"Safe to which the message is targeted"},"returns":{"_0":"Message hash."}},"getModules()":{"details":"Returns array of first 10 modules.","returns":{"_0":"Array of modules."}},"isValidSignature(bytes,bytes)":{"details":"Should return whether the signature provided is valid for the provided data.","params":{"_data":"Arbitrary length data signed on the behalf of address(msg.sender)","_signature":"Signature byte array associated with _data"},"returns":{"_0":"a bool upon valid or invalid signature with corresponding _data"}},"isValidSignature(bytes32,bytes)":{"details":"Should return whether the signature provided is valid for the provided data.       The save does not implement the interface since `checkSignatures` is not a view method.       The method will not perform any state changes (see parameters of `checkSignatures`)","params":{"_dataHash":"Hash of the data signed on the behalf of address(msg.sender)","_signature":"Signature byte array associated with _dataHash"},"returns":{"_0":"a bool upon valid or invalid signature with corresponding _dataHash"}},"simulate(address,bytes)":{"details":"Performs a delegetecall on a targetContract in the context of self. Internally reverts execution to avoid side effects (making it static). Catches revert and returns encoded result as bytes.","params":{"calldataPayload":"Calldata that should be sent to the target contract (encoded method name and arguments).","targetContract":"Address of the contract containing the code to execute."}},"supportsInterface(bytes4)":{"details":"Returns true if this contract implements the interface defined by `interfaceId`. See the corresponding https://eips.ethereum.org/EIPS/eip-165#how-interfaces-are-identified[EIP section] to learn more about how these ids are created. This function call must use less than 30 000 gas."}},"title":"Compatibility Fallback Handler - fallback handler to provider compatibility between pre 1.3.0 and 1.3.0+ Safe contracts"},"id":458}