{"abi":[{"type":"constructor","inputs":[{"name":"_proofMaturityDelaySeconds","type":"uint256","internalType":"uint256"}],"stateMutability":"nonpayable"},{"type":"receive","stateMutability":"payable"},{"type":"function","name":"anchorStateRegistry","inputs":[],"outputs":[{"name":"","type":"address","internalType":"contract IAnchorStateRegistry"}],"stateMutability":"view"},{"type":"function","name":"checkWithdrawal","inputs":[{"name":"_withdrawalHash","type":"bytes32","internalType":"bytes32"},{"name":"_proofSubmitter","type":"address","internalType":"address"}],"outputs":[],"stateMutability":"view"},{"type":"function","name":"depositTransaction","inputs":[{"name":"_to","type":"address","internalType":"address"},{"name":"_value","type":"uint256","internalType":"uint256"},{"name":"_gasLimit","type":"uint64","internalType":"uint64"},{"name":"_isCreation","type":"bool","internalType":"bool"},{"name":"_data","type":"bytes","internalType":"bytes"}],"outputs":[],"stateMutability":"payable"},{"type":"function","name":"disputeGameBlacklist","inputs":[{"name":"_disputeGame","type":"address","internalType":"contract IDisputeGame"}],"outputs":[{"name":"","type":"bool","internalType":"bool"}],"stateMutability":"view"},{"type":"function","name":"disputeGameFactory","inputs":[],"outputs":[{"name":"","type":"address","internalType":"contract IDisputeGameFactory"}],"stateMutability":"view"},{"type":"function","name":"disputeGameFinalityDelaySeconds","inputs":[],"outputs":[{"name":"","type":"uint256","internalType":"uint256"}],"stateMutability":"view"},{"type":"function","name":"donateETH","inputs":[],"outputs":[],"stateMutability":"payable"},{"type":"function","name":"ethLockbox","inputs":[],"outputs":[{"name":"","type":"address","internalType":"contract IETHLockbox"}],"stateMutability":"view"},{"type":"function","name":"finalizeWithdrawalTransaction","inputs":[{"name":"_tx","type":"tuple","internalType":"struct Types.WithdrawalTransaction","components":[{"name":"nonce","type":"uint256","internalType":"uint256"},{"name":"sender","type":"address","internalType":"address"},{"name":"target","type":"address","internalType":"address"},{"name":"value","type":"uint256","internalType":"uint256"},{"name":"gasLimit","type":"uint256","internalType":"uint256"},{"name":"data","type":"bytes","internalType":"bytes"}]}],"outputs":[],"stateMutability":"nonpayable"},{"type":"function","name":"finalizeWithdrawalTransactionExternalProof","inputs":[{"name":"_tx","type":"tuple","internalType":"struct Types.WithdrawalTransaction","components":[{"name":"nonce","type":"uint256","internalType":"uint256"},{"name":"sender","type":"address","internalType":"address"},{"name":"target","type":"address","internalType":"address"},{"name":"value","type":"uint256","internalType":"uint256"},{"name":"gasLimit","type":"uint256","internalType":"uint256"},{"name":"data","type":"bytes","internalType":"bytes"}]},{"name":"_proofSubmitter","type":"address","internalType":"address"}],"outputs":[],"stateMutability":"nonpayable"},{"type":"function","name":"finalizedWithdrawals","inputs":[{"name":"","type":"bytes32","internalType":"bytes32"}],"outputs":[{"name":"","type":"bool","internalType":"bool"}],"stateMutability":"view"},{"type":"function","name":"guardian","inputs":[],"outputs":[{"name":"","type":"address","internalType":"address"}],"stateMutability":"view"},{"type":"function","name":"initVersion","inputs":[],"outputs":[{"name":"","type":"uint8","internalType":"uint8"}],"stateMutability":"view"},{"type":"function","name":"initialize","inputs":[{"name":"_systemConfig","type":"address","internalType":"contract ISystemConfig"},{"name":"_anchorStateRegistry","type":"address","internalType":"contract IAnchorStateRegistry"},{"name":"_ethLockbox","type":"address","internalType":"contract IETHLockbox"}],"outputs":[],"stateMutability":"nonpayable"},{"type":"function","name":"l2Sender","inputs":[],"outputs":[{"name":"","type":"address","internalType":"address"}],"stateMutability":"view"},{"type":"function","name":"migrateLiquidity","inputs":[],"outputs":[],"stateMutability":"nonpayable"},{"type":"function","name":"migrateToSuperRoots","inputs":[{"name":"_newLockbox","type":"address","internalType":"contract IETHLockbox"},{"name":"_newAnchorStateRegistry","type":"address","internalType":"contract IAnchorStateRegistry"}],"outputs":[],"stateMutability":"nonpayable"},{"type":"function","name":"minimumGasLimit","inputs":[{"name":"_byteCount","type":"uint64","internalType":"uint64"}],"outputs":[{"name":"","type":"uint64","internalType":"uint64"}],"stateMutability":"pure"},{"type":"function","name":"numProofSubmitters","inputs":[{"name":"_withdrawalHash","type":"bytes32","internalType":"bytes32"}],"outputs":[{"name":"","type":"uint256","internalType":"uint256"}],"stateMutability":"view"},{"type":"function","name":"params","inputs":[],"outputs":[{"name":"prevBaseFee","type":"uint128","internalType":"uint128"},{"name":"prevBoughtGas","type":"uint64","internalType":"uint64"},{"name":"prevBlockNum","type":"uint64","internalType":"uint64"}],"stateMutability":"view"},{"type":"function","name":"paused","inputs":[],"outputs":[{"name":"","type":"bool","internalType":"bool"}],"stateMutability":"view"},{"type":"function","name":"proofMaturityDelaySeconds","inputs":[],"outputs":[{"name":"","type":"uint256","internalType":"uint256"}],"stateMutability":"view"},{"type":"function","name":"proofSubmitters","inputs":[{"name":"","type":"bytes32","internalType":"bytes32"},{"name":"","type":"uint256","internalType":"uint256"}],"outputs":[{"name":"","type":"address","internalType":"address"}],"stateMutability":"view"},{"type":"function","name":"proveWithdrawalTransaction","inputs":[{"name":"_tx","type":"tuple","internalType":"struct Types.WithdrawalTransaction","components":[{"name":"nonce","type":"uint256","internalType":"uint256"},{"name":"sender","type":"address","internalType":"address"},{"name":"target","type":"address","internalType":"address"},{"name":"value","type":"uint256","internalType":"uint256"},{"name":"gasLimit","type":"uint256","internalType":"uint256"},{"name":"data","type":"bytes","internalType":"bytes"}]},{"name":"_disputeGameIndex","type":"uint256","internalType":"uint256"},{"name":"_outputRootProof","type":"tuple","internalType":"struct Types.OutputRootProof","components":[{"name":"version","type":"bytes32","internalType":"bytes32"},{"name":"stateRoot","type":"bytes32","internalType":"bytes32"},{"name":"messagePasserStorageRoot","type":"bytes32","internalType":"bytes32"},{"name":"latestBlockhash","type":"bytes32","internalType":"bytes32"}]},{"name":"_withdrawalProof","type":"bytes[]","internalType":"bytes[]"}],"outputs":[],"stateMutability":"nonpayable"},{"type":"function","name":"proveWithdrawalTransaction","inputs":[{"name":"_tx","type":"tuple","internalType":"struct Types.WithdrawalTransaction","components":[{"name":"nonce","type":"uint256","internalType":"uint256"},{"name":"sender","type":"address","internalType":"address"},{"name":"target","type":"address","internalType":"address"},{"name":"value","type":"uint256","internalType":"uint256"},{"name":"gasLimit","type":"uint256","internalType":"uint256"},{"name":"data","type":"bytes","internalType":"bytes"}]},{"name":"_disputeGameProxy","type":"address","internalType":"contract IDisputeGame"},{"name":"_outputRootIndex","type":"uint256","internalType":"uint256"},{"name":"_superRootProof","type":"tuple","internalType":"struct Types.SuperRootProof","components":[{"name":"version","type":"bytes1","internalType":"bytes1"},{"name":"timestamp","type":"uint64","internalType":"uint64"},{"name":"outputRoots","type":"tuple[]","internalType":"struct Types.OutputRootWithChainId[]","components":[{"name":"chainId","type":"uint256","internalType":"uint256"},{"name":"root","type":"bytes32","internalType":"bytes32"}]}]},{"name":"_outputRootProof","type":"tuple","internalType":"struct Types.OutputRootProof","components":[{"name":"version","type":"bytes32","internalType":"bytes32"},{"name":"stateRoot","type":"bytes32","internalType":"bytes32"},{"name":"messagePasserStorageRoot","type":"bytes32","internalType":"bytes32"},{"name":"latestBlockhash","type":"bytes32","internalType":"bytes32"}]},{"name":"_withdrawalProof","type":"bytes[]","internalType":"bytes[]"}],"outputs":[],"stateMutability":"nonpayable"},{"type":"function","name":"provenWithdrawals","inputs":[{"name":"","type":"bytes32","internalType":"bytes32"},{"name":"","type":"address","internalType":"address"}],"outputs":[{"name":"disputeGameProxy","type":"address","internalType":"contract IDisputeGame"},{"name":"timestamp","type":"uint64","internalType":"uint64"}],"stateMutability":"view"},{"type":"function","name":"proxyAdmin","inputs":[],"outputs":[{"name":"","type":"address","internalType":"contract IProxyAdmin"}],"stateMutability":"view"},{"type":"function","name":"proxyAdminOwner","inputs":[],"outputs":[{"name":"","type":"address","internalType":"address"}],"stateMutability":"view"},{"type":"function","name":"respectedGameType","inputs":[],"outputs":[{"name":"","type":"uint32","internalType":"GameType"}],"stateMutability":"view"},{"type":"function","name":"respectedGameTypeUpdatedAt","inputs":[],"outputs":[{"name":"","type":"uint64","internalType":"uint64"}],"stateMutability":"view"},{"type":"function","name":"superRootsActive","inputs":[],"outputs":[{"name":"","type":"bool","internalType":"bool"}],"stateMutability":"view"},{"type":"function","name":"superchainConfig","inputs":[],"outputs":[{"name":"","type":"address","internalType":"contract ISuperchainConfig"}],"stateMutability":"view"},{"type":"function","name":"systemConfig","inputs":[],"outputs":[{"name":"","type":"address","internalType":"contract ISystemConfig"}],"stateMutability":"view"},{"type":"function","name":"upgrade","inputs":[{"name":"_anchorStateRegistry","type":"address","internalType":"contract IAnchorStateRegistry"},{"name":"_ethLockbox","type":"address","internalType":"contract IETHLockbox"}],"outputs":[],"stateMutability":"nonpayable"},{"type":"function","name":"version","inputs":[],"outputs":[{"name":"","type":"string","internalType":"string"}],"stateMutability":"pure"},{"type":"event","name":"ETHMigrated","inputs":[{"name":"lockbox","type":"address","indexed":true,"internalType":"address"},{"name":"ethBalance","type":"uint256","indexed":false,"internalType":"uint256"}],"anonymous":false},{"type":"event","name":"Initialized","inputs":[{"name":"version","type":"uint8","indexed":false,"internalType":"uint8"}],"anonymous":false},{"type":"event","name":"PortalMigrated","inputs":[{"name":"oldLockbox","type":"address","indexed":false,"internalType":"contract IETHLockbox"},{"name":"newLockbox","type":"address","indexed":false,"internalType":"contract IETHLockbox"},{"name":"oldAnchorStateRegistry","type":"address","indexed":false,"internalType":"contract IAnchorStateRegistry"},{"name":"newAnchorStateRegistry","type":"address","indexed":false,"internalType":"contract IAnchorStateRegistry"}],"anonymous":false},{"type":"event","name":"TransactionDeposited","inputs":[{"name":"from","type":"address","indexed":true,"internalType":"address"},{"name":"to","type":"address","indexed":true,"internalType":"address"},{"name":"version","type":"uint256","indexed":true,"internalType":"uint256"},{"name":"opaqueData","type":"bytes","indexed":false,"internalType":"bytes"}],"anonymous":false},{"type":"event","name":"WithdrawalFinalized","inputs":[{"name":"withdrawalHash","type":"bytes32","indexed":true,"internalType":"bytes32"},{"name":"success","type":"bool","indexed":false,"internalType":"bool"}],"anonymous":false},{"type":"event","name":"WithdrawalProven","inputs":[{"name":"withdrawalHash","type":"bytes32","indexed":true,"internalType":"bytes32"},{"name":"from","type":"address","indexed":true,"internalType":"address"},{"name":"to","type":"address","indexed":true,"internalType":"address"}],"anonymous":false},{"type":"event","name":"WithdrawalProvenExtension1","inputs":[{"name":"withdrawalHash","type":"bytes32","indexed":true,"internalType":"bytes32"},{"name":"proofSubmitter","type":"address","indexed":true,"internalType":"address"}],"anonymous":false},{"type":"error","name":"ContentLengthMismatch","inputs":[]},{"type":"error","name":"EmptyItem","inputs":[]},{"type":"error","name":"Encoding_EmptySuperRoot","inputs":[]},{"type":"error","name":"Encoding_InvalidSuperRootVersion","inputs":[]},{"type":"error","name":"InvalidDataRemainder","inputs":[]},{"type":"error","name":"InvalidHeader","inputs":[]},{"type":"error","name":"OptimismPortal_AlreadyFinalized","inputs":[]},{"type":"error","name":"OptimismPortal_BadTarget","inputs":[]},{"type":"error","name":"OptimismPortal_CallPaused","inputs":[]},{"type":"error","name":"OptimismPortal_CalldataTooLarge","inputs":[]},{"type":"error","name":"OptimismPortal_GasEstimation","inputs":[]},{"type":"error","name":"OptimismPortal_GasLimitTooLow","inputs":[]},{"type":"error","name":"OptimismPortal_ImproperDisputeGame","inputs":[]},{"type":"error","name":"OptimismPortal_InvalidDisputeGame","inputs":[]},{"type":"error","name":"OptimismPortal_InvalidMerkleProof","inputs":[]},{"type":"error","name":"OptimismPortal_InvalidOutputRootChainId","inputs":[]},{"type":"error","name":"OptimismPortal_InvalidOutputRootIndex","inputs":[]},{"type":"error","name":"OptimismPortal_InvalidOutputRootProof","inputs":[]},{"type":"error","name":"OptimismPortal_InvalidProofTimestamp","inputs":[]},{"type":"error","name":"OptimismPortal_InvalidRootClaim","inputs":[]},{"type":"error","name":"OptimismPortal_InvalidSuperRootProof","inputs":[]},{"type":"error","name":"OptimismPortal_MigratingToSameRegistry","inputs":[]},{"type":"error","name":"OptimismPortal_NoReentrancy","inputs":[]},{"type":"error","name":"OptimismPortal_ProofNotOldEnough","inputs":[]},{"type":"error","name":"OptimismPortal_Unauthorized","inputs":[]},{"type":"error","name":"OptimismPortal_Unproven","inputs":[]},{"type":"error","name":"OptimismPortal_WrongProofMethod","inputs":[]},{"type":"error","name":"OutOfGas","inputs":[]},{"type":"error","name":"ProxyAdminOwnedBase_NotProxyAdmin","inputs":[]},{"type":"error","name":"ProxyAdminOwnedBase_NotProxyAdminOrProxyAdminOwner","inputs":[]},{"type":"error","name":"ProxyAdminOwnedBase_NotProxyAdminOwner","inputs":[]},{"type":"error","name":"ProxyAdminOwnedBase_NotResolvedDelegateProxy","inputs":[]},{"type":"error","name":"ProxyAdminOwnedBase_NotSharedProxyAdminOwner","inputs":[]},{"type":"error","name":"ProxyAdminOwnedBase_ProxyAdminNotFound","inputs":[]},{"type":"error","name":"ReinitializableBase_ZeroInitVersion","inputs":[]},{"type":"error","name":"UnexpectedList","inputs":[]},{"type":"error","name":"UnexpectedString","inputs":[]}],"bytecode":{"object":"0x60c06040523480156200001157600080fd5b50604051620059d2380380620059d2833981016040819052620000349162000111565b600260805260a0819052620000486200004f565b506200012b565b600054610100900460ff1615620000bc5760405162461bcd60e51b815260206004820152602760248201527f496e697469616c697a61626c653a20636f6e747261637420697320696e697469604482015266616c697a696e6760c81b606482015260840160405180910390fd5b60005460ff90811610156200010f576000805460ff191660ff9081179091556040519081527f7f26b83ff96e1f2b6a682f133852f6798a09c465da95921460cefb38474024989060200160405180910390a15b565b6000602082840312156200012457600080fd5b5051919050565b60805160a05161586c62000166600039600081816106b801526115fd0152600081816102ea015281816118460152611afa015261586c6000f3fe6080604052600436106102385760003560e01c80638c3152e911610138578063bb2c727e116100b0578063cff0ab961161007f578063dad544e011610064578063dad544e0146107cf578063e9e05c42146107e4578063f2b4e617146107f757600080fd5b8063cff0ab96146106fc578063d325d3bf1461079d57600080fd5b8063bb2c727e14610607578063bda204bb14610694578063bf653a5c146106a9578063c0c53b8b146106dc57600080fd5b80639bf62d8211610107578063a35d99df116100ec578063a35d99df146105a7578063a3860f48146105c7578063b682c444146105e757600080fd5b80639bf62d8214610557578063a14238e71461057757600080fd5b80638c3152e9146104e25780638c90dd6514610502578063952b27971461052257806399a88ec41461053757600080fd5b806345884d32116101cb57806354fd4d501161019a5780635c975abb1161017f5780635c975abb146104ad57806371c1566e146104c25780638b4c40b01461025d57600080fd5b806354fd4d50146104415780635c0cba331461048d57600080fd5b806345884d32146103885780634870496f146103b85780634fd0434c146103d8578063513747ab1461040657600080fd5b80633c9f397c116102075780633c9f397c146103145780633e47158c1461033e57806343ca1c5014610353578063452a93201461037357600080fd5b80632152f2be1461026457806333d7e2bd1461028457806335e80ab3146102c157806338d38c97146102d657600080fd5b3661025f5761025d3334620186a060006040518060200160405280600081525061080c565b005b600080fd5b34801561027057600080fd5b5061025d61027f3660046149b2565b610a17565b34801561029057600080fd5b506037546102a4906001600160a01b031681565b6040516001600160a01b0390911681526020015b60405180910390f35b3480156102cd57600080fd5b506102a4610b43565b3480156102e257600080fd5b5060405160ff7f00000000000000000000000000000000000000000000000000000000000000001681526020016102b8565b34801561032057600080fd5b50610329610bcf565b60405163ffffffff90911681526020016102b8565b34801561034a57600080fd5b506102a4610c56565b34801561035f57600080fd5b5061025d61036e366004614bb6565b610e3a565b34801561037f57600080fd5b506102a461112d565b34801561039457600080fd5b506103a86103a3366004614bfd565b611190565b60405190151581526020016102b8565b3480156103c457600080fd5b5061025d6103d3366004614c7e565b61121e565b3480156103e457600080fd5b506103ed611341565b60405167ffffffffffffffff90911681526020016102b8565b34801561041257600080fd5b50610433610421366004614d04565b6000908152603c602052604090205490565b6040519081526020016102b8565b34801561044d57600080fd5b50604080518082018252600581527f342e362e30000000000000000000000000000000000000000000000000000000602082015290516102b89190614d75565b34801561049957600080fd5b50603e546102a4906001600160a01b031681565b3480156104b957600080fd5b506103a86113c8565b3480156104ce57600080fd5b5061025d6104dd366004614d88565b61144f565b3480156104ee57600080fd5b5061025d6104fd366004614dad565b61172c565b34801561050e57600080fd5b5061025d61051d366004614dea565b611739565b34801561052e57600080fd5b506104336117bd565b34801561054357600080fd5b5061025d6105523660046149b2565b611844565b34801561056357600080fd5b506032546102a4906001600160a01b031681565b34801561058357600080fd5b506103a8610592366004614d04565b60336020526000908152604090205460ff1681565b3480156105b357600080fd5b506103ed6105c2366004614eca565b6119df565b3480156105d357600080fd5b506102a46105e2366004614ee7565b6119f8565b3480156105f357600080fd5b50603f546102a4906001600160a01b031681565b34801561061357600080fd5b5061066c610622366004614d88565b60396020908152600092835260408084209091529082529020546001600160a01b0381169074010000000000000000000000000000000000000000900467ffffffffffffffff1682565b604080516001600160a01b03909316835267ffffffffffffffff9091166020830152016102b8565b3480156106a057600080fd5b5061025d611a30565b3480156106b557600080fd5b507f0000000000000000000000000000000000000000000000000000000000000000610433565b3480156106e857600080fd5b5061025d6106f7366004614f09565b611af8565b34801561070857600080fd5b50600154610764906fffffffffffffffffffffffffffffffff81169067ffffffffffffffff7001000000000000000000000000000000008204811691780100000000000000000000000000000000000000000000000090041683565b604080516fffffffffffffffffffffffffffffffff909416845267ffffffffffffffff92831660208501529116908201526060016102b8565b3480156107a957600080fd5b50603f546103a89074010000000000000000000000000000000000000000900460ff1681565b3480156107db57600080fd5b506102a4611cce565b61025d6107f2366004614f62565b61080c565b34801561080357600080fd5b506102a4611d15565b8260005a9050341561088257603f60009054906101000a90046001600160a01b03166001600160a01b0316631ee116bf346040518263ffffffff1660e01b81526004016000604051808303818588803b15801561086857600080fd5b505af115801561087c573d6000803e3d6000fd5b50505050505b83801561089757506001600160a01b03871615155b156108ce576040517fc5defbad00000000000000000000000000000000000000000000000000000000815260040160405180910390fd5b6108d883516119df565b67ffffffffffffffff168567ffffffffffffffff161015610925576040517f70c8bdbd00000000000000000000000000000000000000000000000000000000815260040160405180910390fd5b6201d4c083511115610963576040517f5aa3bac900000000000000000000000000000000000000000000000000000000815260040160405180910390fd5b3361096c611d78565b610989575033731111000000000000000000000000000000001111015b600034888888886040516020016109a4959493929190614fe1565b60405160208183030381529060405290506000896001600160a01b0316836001600160a01b03167fb3813568d9991fc951961fcb4c784893574240a28925604d09fc577c55bb7c32846040516109fa9190614d75565b60405180910390a45050610a0e8282611db6565b50505050505050565b610a1f61208d565b610a276120cc565b603e546001600160a01b03808316911603610a6e576040517f785df91100000000000000000000000000000000000000000000000000000000815260040160405180910390fd5b603f8054603e80546001600160a01b038581167fffffffffffffffffffffffff0000000000000000000000000000000000000000831681179093557fffffffffffffffffffffff0000000000000000000000000000000000000000008416878216908117740100000000000000000000000000000000000000001790955560408051948216808652602086019690965291169083018190526060830191909152907f9e5368471a58d81987e5dc7d6374dd5ed5e756cc95a79ff726903423bce0060d906080015b60405180910390a150505050565b603754604080517f35e80ab300000000000000000000000000000000000000000000000000000000815290516000926001600160a01b0316916335e80ab39160048083019260209291908290030181865afa158015610ba6573d6000803e3d6000fd5b505050506040513d601f19601f82011682018060405250810190610bca9190615046565b905090565b603e54604080517f3c9f397c00000000000000000000000000000000000000000000000000000000815290516000926001600160a01b031691633c9f397c9160048083019260209291908290030181865afa158015610c32573d6000803e3d6000fd5b505050506040513d601f19601f82011682018060405250810190610bca9190615075565b600080610c817fb53127684a568b3173ae13b9f8a6016e243e63b6e8ee1178d6a717850b5d61035490565b90506001600160a01b03811615610c9757919050565b6040518060400160405280601a81526020017f4f564d5f4c3143726f7373446f6d61696e4d657373656e676572000000000000815250516002610cda91906150c1565b604080513060208201526000918101919091527f4f564d5f4c3143726f7373446f6d61696e4d657373656e6765720000000000009190911790610d35906060015b604051602081830303815290604052805190602001205490565b14610d6c576040517f54e433cd00000000000000000000000000000000000000000000000000000000815260040160405180910390fd5b60408051306020820152600191810191909152600090610d8e90606001610d1b565b90506001600160a01b03811615610e0857806001600160a01b0316638da5cb5b6040518163ffffffff1660e01b8152600401602060405180830381865afa158015610ddd573d6000803e3d6000fd5b505050506040513d601f19601f82011682018060405250810190610e019190615046565b9250505090565b6040517f332144db00000000000000000000000000000000000000000000000000000000815260040160405180910390fd5b610e4261208d565b6032546001600160a01b031661dead14610e88576040517fdfeaaeb800000000000000000000000000000000000000000000000000000000815260040160405180910390fd5b610e958260400151612115565b15610ecc576040517fc5defbad00000000000000000000000000000000000000000000000000000000815260040160405180910390fd5b6000610ed78361213e565b9050610ee3818361144f565b600081815260336020526040902080547fffffffffffffffffffffffffffffffffffffffffffffffffffffffffffffff00166001179055606083015115610fa757603f5460608401516040517f8d445bd00000000000000000000000000000000000000000000000000000000081526001600160a01b0390921691638d445bd091610f749160040190815260200190565b600060405180830381600087803b158015610f8e57600080fd5b505af1158015610fa2573d6000803e3d6000fd5b505050505b8260200151603260006101000a8154816001600160a01b0302191690836001600160a01b031602179055506000610ff08460400151856080015186606001518760a0015161218b565b603280547fffffffffffffffffffffffff00000000000000000000000000000000000000001661dead17905560405190915082907fdb5c7652857aa163daadd670e116628fb42e869d8ac4251ef8971d9e5727df1b9061105590841515815260200190565b60405180910390a28015801561106f575060008460600151115b156110e257603f60009054906101000a90046001600160a01b03166001600160a01b0316631ee116bf85606001516040518263ffffffff1660e01b81526004016000604051808303818588803b1580156110c857600080fd5b505af11580156110dc573d6000803e3d6000fd5b50505050505b801580156110f05750326001145b15611127576040517fab58103600000000000000000000000000000000000000000000000000000000815260040160405180910390fd5b50505050565b603754604080517f452a932000000000000000000000000000000000000000000000000000000000815290516000926001600160a01b03169163452a93209160048083019260209291908290030181865afa158015610ba6573d6000803e3d6000fd5b603e546040517f45884d320000000000000000000000000000000000000000000000000000000081526001600160a01b03838116600483015260009216906345884d3290602401602060405180830381865afa1580156111f4573d6000803e3d6000fd5b505050506040513d601f19601f8201168201806040525081019061121891906150e0565b92915050565b61122661208d565b603f5474010000000000000000000000000000000000000000900460ff161561127b576040517f5e74b54200000000000000000000000000000000000000000000000000000000815260040160405180910390fd5b6000611285611d15565b6001600160a01b031663bb8aa1fc866040518263ffffffff1660e01b81526004016112b291815260200190565b606060405180830381865afa1580156112cf573d6000803e3d6000fd5b505050506040513d601f19601f820116820180604052508101906112f391906150fd565b60408051606080820183526000808352602083015291810191909152909350915061131b9050565b610a0e8783600084611332368b90038b018b61513f565b61133c898b6151c9565b6121e9565b603e54604080517f4086d18300000000000000000000000000000000000000000000000000000000815290516000926001600160a01b031691634086d1839160048083019260209291908290030181865afa1580156113a4573d6000803e3d6000fd5b505050506040513d601f19601f82011682018060405250810190610bca9190615242565b603754604080517f5c975abb00000000000000000000000000000000000000000000000000000000815290516000926001600160a01b031691635c975abb9160048083019260209291908290030181865afa15801561142b573d6000803e3d6000fd5b505050506040513d601f19601f82011682018060405250810190610bca91906150e0565b60008281526039602090815260408083206001600160a01b0385811685529083528184208251808401845290549182168082527401000000000000000000000000000000000000000090920467ffffffffffffffff1681850152868552603390935292205490919060ff16156114f1576040517f730a107400000000000000000000000000000000000000000000000000000000815260040160405180910390fd5b816020015167ffffffffffffffff16600003611539576040517fcca6afda00000000000000000000000000000000000000000000000000000000815260040160405180910390fd5b6115ab816001600160a01b031663cf09e0d06040518163ffffffff1660e01b8152600401602060405180830381865afa15801561157a573d6000803e3d6000fd5b505050506040513d601f19601f8201168201806040525081019061159e9190615242565b67ffffffffffffffff1690565b67ffffffffffffffff16826020015167ffffffffffffffff16116115fb576040517fb4caa4e500000000000000000000000000000000000000000000000000000000815260040160405180910390fd5b7f0000000000000000000000000000000000000000000000000000000000000000826020015167ffffffffffffffff1642611636919061525f565b1161166d576040517fd9bc01be00000000000000000000000000000000000000000000000000000000815260040160405180910390fd5b603e546040517f6c4f44670000000000000000000000000000000000000000000000000000000081526001600160a01b03838116600483015290911690636c4f446790602401602060405180830381865afa1580156116d0573d6000803e3d6000fd5b505050506040513d601f19601f820116820180604052508101906116f491906150e0565b611127576040517f332a57f800000000000000000000000000000000000000000000000000000000815260040160405180910390fd5b565b6117368133610e3a565b50565b61174161208d565b603f5474010000000000000000000000000000000000000000900460ff16611795576040517f5e74b54200000000000000000000000000000000000000000000000000000000815260040160405180910390fd5b610a0e8787876117a488615276565b6117b33689900389018961513f565b61133c87896151c9565b603e54604080517f952b279700000000000000000000000000000000000000000000000000000000815290516000926001600160a01b03169163952b27979160048083019260209291908290030181865afa158015611820573d6000803e3d6000fd5b505050506040513d601f19601f82011682018060405250810190610bca9190615380565b7f0000000000000000000000000000000000000000000000000000000000000000600054610100900460ff16158015611884575060005460ff8083169116105b6118fb5760405162461bcd60e51b815260206004820152602e60248201527f496e697469616c697a61626c653a20636f6e747261637420697320616c72656160448201527f647920696e697469616c697a656400000000000000000000000000000000000060648201526084015b60405180910390fd5b600080547fffffffffffffffffffffffffffffffffffffffffffffffffffffffffffff00001660ff831617610100179055611934612993565b603e80546001600160a01b038581167fffffffffffffffffffffffff000000000000000000000000000000000000000092831617909255603f805492851692909116919091179055600080547fffffffffffffffffffffffffffffffffffffffffffffffffffffffffffff00ff16905560405160ff821681527f7f26b83ff96e1f2b6a682f133852f6798a09c465da95921460cefb38474024989060200160405180910390a1505050565b60006119ec826028615399565b611218906152086153c9565b603c6020528160005260406000208181548110611a1457600080fd5b6000918252602090912001546001600160a01b03169150829050565b611a386120cc565b603f54604080517f1ee116bf000000000000000000000000000000000000000000000000000000008152905147926001600160a01b031691631ee116bf91849160048082019260009290919082900301818588803b158015611a9957600080fd5b505af1158015611aad573d6000803e3d6000fd5b5050603f546040518581526001600160a01b0390911693507fd893f630c6867fa43689da9ae949ebf04cac24aad3b45c759d442ed3c32e3a379250602001905060405180910390a250565b7f0000000000000000000000000000000000000000000000000000000000000000600054610100900460ff16158015611b38575060005460ff8083169116105b611baa5760405162461bcd60e51b815260206004820152602e60248201527f496e697469616c697a61626c653a20636f6e747261637420697320616c72656160448201527f647920696e697469616c697a656400000000000000000000000000000000000060648201526084016118f2565b600080547fffffffffffffffffffffffffffffffffffffffffffffffffffffffffffff00001660ff831617610100179055611be3612993565b603780546001600160a01b038087167fffffffffffffffffffffffff000000000000000000000000000000000000000092831617909255603e8054868416908316179055603f8054858416921691909117905560325416611c6b57603280547fffffffffffffffffffffffff00000000000000000000000000000000000000001661dead1790555b611c736129fa565b600080547fffffffffffffffffffffffffffffffffffffffffffffffffffffffffffff00ff16905560405160ff821681527f7f26b83ff96e1f2b6a682f133852f6798a09c465da95921460cefb384740249890602001610b35565b6000611cd8610c56565b6001600160a01b0316638da5cb5b6040518163ffffffff1660e01b8152600401602060405180830381865afa158015610ba6573d6000803e3d6000fd5b603e54604080517ff2b4e61700000000000000000000000000000000000000000000000000000000815290516000926001600160a01b03169163f2b4e6179160048083019260209291908290030181865afa158015610ba6573d6000803e3d6000fd5b6000323303611d875750600190565b333b601703611daf57604051602081016040526020600082333c5160e81c62ef010014905090565b5060005b90565b600154600090611dec907801000000000000000000000000000000000000000000000000900467ffffffffffffffff164361525f565b90506000611df8612af3565b90506000816020015160ff16826000015163ffffffff16611e199190615424565b90508215611f5057600154600090611e50908390700100000000000000000000000000000000900467ffffffffffffffff1661546e565b90506000836040015160ff1683611e6791906154e2565b600154611e879084906fffffffffffffffffffffffffffffffff166154e2565b611e919190615424565b600154909150600090611ee290611ebb9084906fffffffffffffffffffffffffffffffff1661559e565b866060015163ffffffff168760a001516fffffffffffffffffffffffffffffffff16612bac565b90506001861115611f1157611f0e611ebb82876040015160ff1660018a611f09919061525f565b612bcb565b90505b6fffffffffffffffffffffffffffffffff16780100000000000000000000000000000000000000000000000067ffffffffffffffff4316021760015550505b60018054869190601090611f83908490700100000000000000000000000000000000900467ffffffffffffffff166153c9565b92506101000a81548167ffffffffffffffff021916908367ffffffffffffffff160217905550816000015163ffffffff16600160000160109054906101000a900467ffffffffffffffff1667ffffffffffffffff161315612010576040517f77ebef4d00000000000000000000000000000000000000000000000000000000815260040160405180910390fd5b60015460009061203c906fffffffffffffffffffffffffffffffff1667ffffffffffffffff88166150c1565b9050600061204e48633b9aca00612c20565b6120589083615612565b905060005a612067908861525f565b9050808211156120835761208361207e828461525f565b612c37565b5050505050505050565b6120956113c8565b1561172a576040517fb9c3c2ef00000000000000000000000000000000000000000000000000000000815260040160405180910390fd5b336120d5611cce565b6001600160a01b03161461172a576040517f7f12c64b00000000000000000000000000000000000000000000000000000000815260040160405180910390fd5b60006001600160a01b038216301480611218575050603f546001600160a01b0390811691161490565b80516020808301516040808501516060860151608087015160a0880151935160009761216e979096959101615626565b604051602081830303815290604052805190602001209050919050565b600080600061219b866000612c65565b9050806121d1576308c379a06000526020805278185361666543616c6c3a204e6f7420656e6f756768206761736058526064601cfd5b600080855160208701888b5af1979650505050505050565b6121f68660400151612115565b1561222d576040517fc5defbad00000000000000000000000000000000000000000000000000000000815260040160405180910390fd5b603e546040517f496b9c160000000000000000000000000000000000000000000000000000000081526001600160a01b0387811660048301529091169063496b9c1690602401602060405180830381865afa158015612290573d6000803e3d6000fd5b505050506040513d601f19601f820116820180604052508101906122b491906150e0565b6122ea576040517ff395240e00000000000000000000000000000000000000000000000000000000815260040160405180910390fd5b603e546040517f04e50fed0000000000000000000000000000000000000000000000000000000081526001600160a01b038781166004830152909116906304e50fed90602401602060405180830381865afa15801561234d573d6000803e3d6000fd5b505050506040513d601f19601f8201168201806040525081019061237191906150e0565b6123a7576040517fe29927ed00000000000000000000000000000000000000000000000000000000815260040160405180910390fd5b6001856001600160a01b031663200d2ed26040518163ffffffff1660e01b8152600401602060405180830381865afa1580156123e7573d6000803e3d6000fd5b505050506040513d601f19601f8201168201806040525081019061240b919061569f565b600281111561241c5761241c615670565b03612453576040517fe29927ed00000000000000000000000000000000000000000000000000000000815260040160405180910390fd5b612494856001600160a01b031663cf09e0d06040518163ffffffff1660e01b8152600401602060405180830381865afa15801561157a573d6000803e3d6000fd5b67ffffffffffffffff1642116124d6576040517fb4caa4e500000000000000000000000000000000000000000000000000000000815260040160405180910390fd5b603f5474010000000000000000000000000000000000000000900460ff16156126f95761250283612c83565b612567866001600160a01b031663bcef3b556040518163ffffffff1660e01b8152600401602060405180830381865afa158015612543573d6000803e3d6000fd5b505050506040513d601f19601f82011682018060405250810190611db39190615380565b1461259e576040517f2b1a9a6600000000000000000000000000000000000000000000000000000000815260040160405180910390fd5b82604001515184106125dc576040517f32dc285c00000000000000000000000000000000000000000000000000000000815260040160405180910390fd5b6000836040015185815181106125f4576125f46156c0565b60200260200101519050603760009054906101000a90046001600160a01b03166001600160a01b031663d6ae3cd56040518163ffffffff1660e01b8152600401602060405180830381865afa158015612651573d6000803e3d6000fd5b505050506040513d601f19601f820116820180604052508101906126759190615380565b8151146126ae576040517f7cc2f31b00000000000000000000000000000000000000000000000000000000815260040160405180910390fd5b6126b783612c9c565b8160200151146126f3576040517f426149af00000000000000000000000000000000000000000000000000000000815260040160405180910390fd5b5061277a565b61270282612c9c565b612743866001600160a01b031663bcef3b556040518163ffffffff1660e01b8152600401602060405180830381865afa158015612543573d6000803e3d6000fd5b1461277a576040517f426149af00000000000000000000000000000000000000000000000000000000815260040160405180910390fd5b60006127858761213e565b905060008160006040516020016127a6929190918252602082015260400190565b60408051601f1981840301815282825280516020918201209083018190529250612815910160408051601f198184030181528282018252600183527f01000000000000000000000000000000000000000000000000000000000000006020840152908701519091908690612cdb565b1515600003612850576040517f2e57ef3a00000000000000000000000000000000000000000000000000000000815260040160405180910390fd5b6040805180820182526001600160a01b03808a16825267ffffffffffffffff42811660208085019182526000888152603982528681203380835290835287822096518754945190951674010000000000000000000000000000000000000000027fffffffff000000000000000000000000000000000000000000000000000000009094169486169490941792909217909455868152603c845284812080546001810182559082528482200180547fffffffffffffffffffffffff0000000000000000000000000000000000000000169092179091558b840151928c01519351928216939091169185917f67a6208cfcc0801d50f6cbe764733f4fddf66ac0b04442061a8a8c0cb6b63f6291a4604051339083907f798f9f13695f8f045aa5f80ed8efebb695f3c7fe65da381969f2f28bf3c60b9790600090a35050505050505050565b3361299c610c56565b6001600160a01b0316141580156129c35750336129b7611cce565b6001600160a01b031614155b1561172a576040517fc4050a2600000000000000000000000000000000000000000000000000000000815260040160405180910390fd5b600054610100900460ff16612a775760405162461bcd60e51b815260206004820152602b60248201527f496e697469616c697a61626c653a20636f6e7472616374206973206e6f74206960448201527f6e697469616c697a696e6700000000000000000000000000000000000000000060648201526084016118f2565b6001547801000000000000000000000000000000000000000000000000900467ffffffffffffffff1660000361172a5760408051606081018252633b9aca00808252600060208301524367ffffffffffffffff169190920181905278010000000000000000000000000000000000000000000000000217600155565b6040805160c081018252600080825260208201819052918101829052606081018290526080810182905260a0810191909152603754604080517fcc731b0200000000000000000000000000000000000000000000000000000000815290516000926001600160a01b03169163cc731b029160048083019260c09291908290030181865afa158015612b88573d6000803e3d6000fd5b505050506040513d601f19601f820116820180604052508101906112189190615705565b6000612bc1612bbb8585612cff565b83612d0f565b90505b9392505050565b6000670de0b6b3a7640000612c0c612be38583615424565b612bf590670de0b6b3a764000061546e565b612c0785670de0b6b3a76400006154e2565b612d1e565b612c1690866154e2565b612bc19190615424565b600081831015612c305781612bc4565b5090919050565b6000805a90505b825a612c4a908361525f565b1015612c6057612c59826157c1565b9150612c3e565b505050565b600080603f83619c4001026040850201603f5a021015949350505050565b6000612c8e82612d4f565b805190602001209050919050565b6000816000015182602001518360400151846060015160405160200161216e949392919093845260208401929092526040830152606082015260800190565b600080612ce786612f05565b9050612cf581868686612f37565b9695505050505050565b600081831215612c305781612bc4565b6000818312612c305781612bc4565b6000612bc4670de0b6b3a764000083612d3686612f67565b612d4091906154e2565b612d4a9190615424565b613191565b80516060907fff00000000000000000000000000000000000000000000000000000000000000167f010000000000000000000000000000000000000000000000000000000000000014612dce576040517fc06b523800000000000000000000000000000000000000000000000000000000815260040160405180910390fd5b816040015151600003612e0d576040517f9103e7cd00000000000000000000000000000000000000000000000000000000815260040160405180910390fd5b60008260000151836020015160c01b604051602001612e7c9291907fff000000000000000000000000000000000000000000000000000000000000009290921682527fffffffffffffffff00000000000000000000000000000000000000000000000016600182015260090190565b604051602081830303815290604052905060005b836040015151811015612efe57600084604001518281518110612eb557612eb56156c0565b602090810291909101810151805181830151604051929450612ed9938793016157db565b6040516020818303038152906040529250508080612ef6906157c1565b915050612e90565b5092915050565b60608180519060200120604051602001612f2191815260200190565b6040516020818303038152906040529050919050565b6000612f5e84612f488786866133b6565b8051602091820120825192909101919091201490565b95945050505050565b6000808213612fb85760405162461bcd60e51b815260206004820152600960248201527f554e444546494e4544000000000000000000000000000000000000000000000060448201526064016118f2565b60006060612fc584613cc8565b03609f8181039490941b90931c6c465772b2bbbb5f824b15207a3081018102606090811d6d0388eaa27412d5aca026815d636e018202811d6d0df99ac502031bf953eff472fdcc018202811d6d13cdffb29d51d99322bdff5f2211018202811d6d0a0f742023def783a307a986912e018202811d6d01920d8043ca89b5239253284e42018202811d6c0b7a86d7375468fac667a0a527016c29508e458543d8aa4df2abee7883018302821d6d0139601a2efabe717e604cbb4894018302821d6d02247f7a7b6594320649aa03aba1018302821d7fffffffffffffffffffffffffffffffffffffff73c0c716a594e00d54e3c4cbc9018302821d7ffffffffffffffffffffffffffffffffffffffdc7b88c420e53a9890533129f6f01830290911d7fffffffffffffffffffffffffffffffffffffff465fda27eb4d63ded474e5f832019091027ffffffffffffffff5f6af8f7b3396644f18e157960000000000000000000000000105711340daa0d5f769dba1915cef59f0815a5506027d0267a36c0c95b3975ab3ee5b203a7614a3f75373f047d803ae7b6687f2b393909302929092017d57115e47018c7177eebf7cd370a3356a1b7863008a5ae8028c72b88642840160ae1d92915050565b60007ffffffffffffffffffffffffffffffffffffffffffffffffdb731c958f34d94c182136131c257506000919050565b680755bf798b4a1bf1e5821261321a5760405162461bcd60e51b815260206004820152600c60248201527f4558505f4f564552464c4f57000000000000000000000000000000000000000060448201526064016118f2565b6503782dace9d9604e83901b059150600060606bb17217f7d1cf79abc9e3b39884821b056b80000000000000000000000001901d6bb17217f7d1cf79abc9e3b39881029093037fffffffffffffffffffffffffffffffffffffffdbf3ccf1604d263450f02a550481018102606090811d6d0277594991cfc85f6e2461837cd9018202811d7fffffffffffffffffffffffffffffffffffffe5adedaa1cb095af9e4da10e363c018202811d6db1bbb201f443cf962f1a1d3db4a5018202811d7ffffffffffffffffffffffffffffffffffffd38dc772608b0ae56cce01296c0eb018202811d6e05180bb14799ab47a8a8cb2a527d57016d02d16720577bd19bf614176fe9ea6c10fe68e7fd37d0007b713f765084018402831d9081019084017ffffffffffffffffffffffffffffffffffffffe2c69812cf03b0763fd454a8f7e010290911d6e0587f503bb6ea29d25fcb7401964500190910279d835ebba824c98fb31b83b2ca45c000000000000000000000000010574029d9dc38563c32e5c2f6dc192ee70ef65f9978af30260c3939093039290921c92915050565b606060008451116134095760405162461bcd60e51b815260206004820152601560248201527f4d65726b6c65547269653a20656d707479206b6579000000000000000000000060448201526064016118f2565b600061341484613d84565b9050600061342186613e70565b905060008460405160200161343891815260200190565b60405160208183030381529060405290506000805b8451811015613c5957600085828151811061346a5761346a6156c0565b6020026020010151905084518311156134eb5760405162461bcd60e51b815260206004820152602e60248201527f4d65726b6c65547269653a206b657920696e646578206578636565647320746f60448201527f74616c206b6579206c656e67746800000000000000000000000000000000000060648201526084016118f2565b8260000361358a57805180516020918201206040516135399261351392910190815260200190565b604051602081830303815290604052858051602091820120825192909101919091201490565b6135855760405162461bcd60e51b815260206004820152601d60248201527f4d65726b6c65547269653a20696e76616c696420726f6f74206861736800000060448201526064016118f2565b6136ad565b80515160201161362657805180516020918201206040516135b49261351392910190815260200190565b6135855760405162461bcd60e51b815260206004820152602760248201527f4d65726b6c65547269653a20696e76616c6964206c6172676520696e7465726e60448201527f616c20686173680000000000000000000000000000000000000000000000000060648201526084016118f2565b8051845160208087019190912082519190920120146136ad5760405162461bcd60e51b815260206004820152602660248201527f4d65726b6c65547269653a20696e76616c696420696e7465726e616c206e6f6460448201527f652068617368000000000000000000000000000000000000000000000000000060648201526084016118f2565b6136b960106001615802565b8160200151510361386157845183036137f9576136f381602001516010815181106136e6576136e66156c0565b6020026020010151613ed3565b9650600087511161376c5760405162461bcd60e51b815260206004820152603b60248201527f4d65726b6c65547269653a2076616c7565206c656e677468206d75737420626560448201527f2067726561746572207468616e207a65726f20286272616e636829000000000060648201526084016118f2565b6001865161377a919061525f565b82146137ee5760405162461bcd60e51b815260206004820152603a60248201527f4d65726b6c65547269653a2076616c7565206e6f6465206d757374206265206c60448201527f617374206e6f646520696e2070726f6f6620286272616e63682900000000000060648201526084016118f2565b505050505050612bc4565b600085848151811061380d5761380d6156c0565b602001015160f81c60f81b60f81c9050600082602001518260ff1681518110613838576138386156c0565b6020026020010151905061384b81613f87565b9550613858600186615802565b94505050613c46565b600281602001515103613bd857600061387982613fac565b9050600081600081518110613890576138906156c0565b016020015160f81c905060006138a760028361581a565b6138b290600261583c565b905060006138c3848360ff16613fd0565b905060006138d18a89613fd0565b905060006138df8383614006565b9050808351146139575760405162461bcd60e51b815260206004820152603a60248201527f4d65726b6c65547269653a20706174682072656d61696e646572206d7573742060448201527f736861726520616c6c206e6962626c65732077697468206b657900000000000060648201526084016118f2565b60ff85166002148061396c575060ff85166003145b15613b0d57808251146139e75760405162461bcd60e51b815260206004820152603d60248201527f4d65726b6c65547269653a206b65792072656d61696e646572206d757374206260448201527f65206964656e746963616c20746f20706174682072656d61696e64657200000060648201526084016118f2565b613a0187602001516001815181106136e6576136e66156c0565b9c5060008d5111613a7a5760405162461bcd60e51b815260206004820152603960248201527f4d65726b6c65547269653a2076616c7565206c656e677468206d75737420626560448201527f2067726561746572207468616e207a65726f20286c656166290000000000000060648201526084016118f2565b60018c51613a88919061525f565b8814613afc5760405162461bcd60e51b815260206004820152603860248201527f4d65726b6c65547269653a2076616c7565206e6f6465206d757374206265206c60448201527f617374206e6f646520696e2070726f6f6620286c65616629000000000000000060648201526084016118f2565b505050505050505050505050612bc4565b60ff85161580613b20575060ff85166001145b15613b5f57613b4c8760200151600181518110613b3f57613b3f6156c0565b6020026020010151613f87565b9950613b58818a615802565b9850613bcd565b60405162461bcd60e51b815260206004820152603260248201527f4d65726b6c65547269653a2072656365697665642061206e6f6465207769746860448201527f20616e20756e6b6e6f776e20707265666978000000000000000000000000000060648201526084016118f2565b505050505050613c46565b60405162461bcd60e51b815260206004820152602860248201527f4d65726b6c65547269653a20726563656976656420616e20756e70617273656160448201527f626c65206e6f646500000000000000000000000000000000000000000000000060648201526084016118f2565b5080613c51816157c1565b91505061344d565b5060405162461bcd60e51b815260206004820152602560248201527f4d65726b6c65547269653a2072616e206f7574206f662070726f6f6620656c6560448201527f6d656e747300000000000000000000000000000000000000000000000000000060648201526084016118f2565b6000808211613d195760405162461bcd60e51b815260206004820152600960248201527f554e444546494e4544000000000000000000000000000000000000000000000060448201526064016118f2565b5060016fffffffffffffffffffffffffffffffff821160071b82811c67ffffffffffffffff1060061b1782811c63ffffffff1060051b1782811c61ffff1060041b1782811c60ff10600390811b90911783811c600f1060021b1783811c909110821b1791821c111790565b80516060908067ffffffffffffffff811115613da257613da26149eb565b604051908082528060200260200182016040528015613de757816020015b6040805180820190915260608082526020820152815260200190600190039081613dc05790505b50915060005b81811015613e69576040518060400160405280858381518110613e1257613e126156c0565b60200260200101518152602001613e41868481518110613e3457613e346156c0565b60200260200101516140b3565b815250838281518110613e5657613e566156c0565b6020908102919091010152600101613ded565b5050919050565b606080604051905082518060011b603f8101601f1916830160405280835250602084016020830160005b83811015613ec8578060011b82018184015160001a8060041c8253600f811660018301535050600101613e9a565b509295945050505050565b60606000806000613ee3856140c6565b919450925090506000816001811115613efe57613efe615670565b14613f35576040517f1ff9b2e400000000000000000000000000000000000000000000000000000000815260040160405180910390fd5b613f3f8284615802565b855114613f78576040517f5c5537b800000000000000000000000000000000000000000000000000000000815260040160405180910390fd5b612f5e85602001518484614564565b60606020826000015110613fa357613f9e82613ed3565b611218565b611218826145f8565b6060611218613fcb83602001516000815181106136e6576136e66156c0565b613e70565b606082518210613fef5750604080516020810190915260008152611218565b612bc48383848651614001919061525f565b61460e565b600080825184511061401957825161401c565b83515b90505b80821080156140a3575082828151811061403b5761403b6156c0565b602001015160f81c60f81b7effffffffffffffffffffffffffffffffffffffffffffffffffffffffffffff191684838151811061407a5761407a6156c0565b01602001517fff0000000000000000000000000000000000000000000000000000000000000016145b15612efe5781600101915061401f565b60606112186140c18361477a565b6147e7565b60008060008360000151600003614109576040517f5ab458fb00000000000000000000000000000000000000000000000000000000815260040160405180910390fd5b6020840151805160001a607f811161412e57600060016000945094509450505061455d565b60b7811161424457600061414360808361525f565b905080876000015111614182576040517f66c9448500000000000000000000000000000000000000000000000000000000815260040160405180910390fd5b6001838101517fff000000000000000000000000000000000000000000000000000000000000001690821480156141fa57507f80000000000000000000000000000000000000000000000000000000000000007fff000000000000000000000000000000000000000000000000000000000000008216105b15614231576040517fbabb01dd00000000000000000000000000000000000000000000000000000000815260040160405180910390fd5b506001955093506000925061455d915050565b60bf81116143a257600061425960b78361525f565b905080876000015111614298576040517f66c9448500000000000000000000000000000000000000000000000000000000815260040160405180910390fd5b60018301517fff000000000000000000000000000000000000000000000000000000000000001660008190036142fa576040517fbabb01dd00000000000000000000000000000000000000000000000000000000815260040160405180910390fd5b600184015160088302610100031c60378111614342576040517fbabb01dd00000000000000000000000000000000000000000000000000000000815260040160405180910390fd5b61434c8184615802565b895111614385576040517f66c9448500000000000000000000000000000000000000000000000000000000815260040160405180910390fd5b614390836001615802565b975095506000945061455d9350505050565b60f781116144075760006143b760c08361525f565b9050808760000151116143f6576040517f66c9448500000000000000000000000000000000000000000000000000000000815260040160405180910390fd5b60019550935084925061455d915050565b600061441460f78361525f565b905080876000015111614453576040517f66c9448500000000000000000000000000000000000000000000000000000000815260040160405180910390fd5b60018301517fff000000000000000000000000000000000000000000000000000000000000001660008190036144b5576040517fbabb01dd00000000000000000000000000000000000000000000000000000000815260040160405180910390fd5b600184015160088302610100031c603781116144fd576040517fbabb01dd00000000000000000000000000000000000000000000000000000000815260040160405180910390fd5b6145078184615802565b895111614540576040517f66c9448500000000000000000000000000000000000000000000000000000000815260040160405180910390fd5b61454b836001615802565b975095506001945061455d9350505050565b9193909250565b60608167ffffffffffffffff81111561457f5761457f6149eb565b6040519080825280601f01601f1916602001820160405280156145a9576020820181803683370190505b5090508115612bc45760006145be8486615802565b90506020820160005b848110156145df5782810151828201526020016145c7565b848111156145ee576000858301525b5050509392505050565b6060611218826020015160008460000151614564565b60608182601f0110156146635760405162461bcd60e51b815260206004820152600e60248201527f736c6963655f6f766572666c6f7700000000000000000000000000000000000060448201526064016118f2565b8282840110156146b55760405162461bcd60e51b815260206004820152600e60248201527f736c6963655f6f766572666c6f7700000000000000000000000000000000000060448201526064016118f2565b818301845110156147085760405162461bcd60e51b815260206004820152601160248201527f736c6963655f6f75744f66426f756e647300000000000000000000000000000060448201526064016118f2565b6060821580156147275760405191506000825260208201604052614771565b6040519150601f8416801560200281840101858101878315602002848b0101015b81831015614760578051835260209283019201614748565b5050858452601f01601f1916604052505b50949350505050565b604080518082019091526000808252602082015281516000036147c9576040517f5ab458fb00000000000000000000000000000000000000000000000000000000815260040160405180910390fd5b50604080518082019091528151815260209182019181019190915290565b606060008060006147f7856140c6565b91945092509050600181600181111561481257614812615670565b14614849576040517f4b9c6abe00000000000000000000000000000000000000000000000000000000815260040160405180910390fd5b84516148558385615802565b1461488c576040517f5c5537b800000000000000000000000000000000000000000000000000000000815260040160405180910390fd5b604080516020808252610420820190925290816020015b60408051808201909152600080825260208201528152602001906001900390816148a35790505093506000835b8651811015614991576000806149166040518060400160405280858c600001516148fa919061525f565b8152602001858c6020015161490f9190615802565b90526140c6565b5091509150604051806040016040528083836149329190615802565b8152602001848b602001516149479190615802565b81525088858151811061495c5761495c6156c0565b6020908102919091010152614972600185615802565b935061497e8183615802565b6149889084615802565b925050506148d0565b50845250919392505050565b6001600160a01b038116811461173657600080fd5b600080604083850312156149c557600080fd5b82356149d08161499d565b915060208301356149e08161499d565b809150509250929050565b7f4e487b7100000000000000000000000000000000000000000000000000000000600052604160045260246000fd5b6040516060810167ffffffffffffffff81118282101715614a3d57614a3d6149eb565b60405290565b6040805190810167ffffffffffffffff81118282101715614a3d57614a3d6149eb565b604051601f8201601f1916810167ffffffffffffffff81118282101715614a8f57614a8f6149eb565b604052919050565b600082601f830112614aa857600080fd5b813567ffffffffffffffff811115614ac257614ac26149eb565b614ad56020601f19601f84011601614a66565b818152846020838601011115614aea57600080fd5b816020850160208301376000918101602001919091529392505050565b600060c08284031215614b1957600080fd5b60405160c0810167ffffffffffffffff8282108183111715614b3d57614b3d6149eb565b816040528293508435835260208501359150614b588261499d565b81602084015260408501359150614b6e8261499d565b816040840152606085013560608401526080850135608084015260a0850135915080821115614b9c57600080fd5b50614ba985828601614a97565b60a0830152505092915050565b60008060408385031215614bc957600080fd5b823567ffffffffffffffff811115614be057600080fd5b614bec85828601614b07565b92505060208301356149e08161499d565b600060208284031215614c0f57600080fd5b8135612bc48161499d565b600060808284031215614c2c57600080fd5b50919050565b60008083601f840112614c4457600080fd5b50813567ffffffffffffffff811115614c5c57600080fd5b6020830191508360208260051b8501011115614c7757600080fd5b9250929050565b600080600080600060e08688031215614c9657600080fd5b853567ffffffffffffffff80821115614cae57600080fd5b614cba89838a01614b07565b965060208801359550614cd08960408a01614c1a565b945060c0880135915080821115614ce657600080fd5b50614cf388828901614c32565b969995985093965092949392505050565b600060208284031215614d1657600080fd5b5035919050565b60005b83811015614d38578181015183820152602001614d20565b838111156111275750506000910152565b60008151808452614d61816020860160208601614d1d565b601f01601f19169290920160200192915050565b602081526000612bc46020830184614d49565b60008060408385031215614d9b57600080fd5b8235915060208301356149e08161499d565b600060208284031215614dbf57600080fd5b813567ffffffffffffffff811115614dd657600080fd5b614de284828501614b07565b949350505050565b6000806000806000806000610120888a031215614e0657600080fd5b873567ffffffffffffffff80821115614e1e57600080fd5b614e2a8b838c01614b07565b985060208a01359150614e3c8261499d565b9096506040890135955060608901359080821115614e5957600080fd5b908901906060828c031215614e6d57600080fd5b819550614e7d8b60808c01614c1a565b94506101008a0135915080821115614e9457600080fd5b50614ea18a828b01614c32565b989b979a50959850939692959293505050565b67ffffffffffffffff8116811461173657600080fd5b600060208284031215614edc57600080fd5b8135612bc481614eb4565b60008060408385031215614efa57600080fd5b50508035926020909101359150565b600080600060608486031215614f1e57600080fd5b8335614f298161499d565b92506020840135614f398161499d565b91506040840135614f498161499d565b809150509250925092565b801515811461173657600080fd5b600080600080600060a08688031215614f7a57600080fd5b8535614f858161499d565b9450602086013593506040860135614f9c81614eb4565b92506060860135614fac81614f54565b9150608086013567ffffffffffffffff811115614fc857600080fd5b614fd488828901614a97565b9150509295509295909350565b8581528460208201527fffffffffffffffff0000000000000000000000000000000000000000000000008460c01b16604082015282151560f81b604882015260008251615035816049850160208701614d1d565b919091016049019695505050505050565b60006020828403121561505857600080fd5b8151612bc48161499d565b63ffffffff8116811461173657600080fd5b60006020828403121561508757600080fd5b8151612bc481615063565b7f4e487b7100000000000000000000000000000000000000000000000000000000600052601160045260246000fd5b60008160001904831182151516156150db576150db615092565b500290565b6000602082840312156150f257600080fd5b8151612bc481614f54565b60008060006060848603121561511257600080fd5b835161511d81615063565b602085015190935061512e81614eb4565b6040850151909250614f498161499d565b60006080828403121561515157600080fd5b6040516080810181811067ffffffffffffffff82111715615174576151746149eb565b8060405250823581526020830135602082015260408301356040820152606083013560608201528091505092915050565b600067ffffffffffffffff8211156151bf576151bf6149eb565b5060051b60200190565b60006151dc6151d7846151a5565b614a66565b80848252602080830192508560051b8501368111156151fa57600080fd5b855b8181101561523657803567ffffffffffffffff81111561521c5760008081fd5b61522836828a01614a97565b8652509382019382016151fc565b50919695505050505050565b60006020828403121561525457600080fd5b8151612bc481614eb4565b60008282101561527157615271615092565b500390565b60006060823603121561528857600080fd5b615290614a1a565b82357fff00000000000000000000000000000000000000000000000000000000000000811681146152c057600080fd5b81526020838101356152d181614eb4565b8282015260408481013567ffffffffffffffff8111156152f057600080fd5b850136601f82011261530157600080fd5b803561530f6151d7826151a5565b81815260069190911b8201840190848101903683111561532e57600080fd5b928501925b8284101561536e5784843603121561534b5760008081fd5b615353614a43565b84358152868501358782015282529284019290850190615333565b93860193909352509295945050505050565b60006020828403121561539257600080fd5b5051919050565b600067ffffffffffffffff808316818516818304811182151516156153c0576153c0615092565b02949350505050565b600067ffffffffffffffff8083168185168083038211156153ec576153ec615092565b01949350505050565b7f4e487b7100000000000000000000000000000000000000000000000000000000600052601260045260246000fd5b600082615433576154336153f5565b60001983147f80000000000000000000000000000000000000000000000000000000000000008314161561546957615469615092565b500590565b6000808312837f8000000000000000000000000000000000000000000000000000000000000000018312811516156154a8576154a8615092565b837f7fffffffffffffffffffffffffffffffffffffffffffffffffffffffffffffff0183138116156154dc576154dc615092565b50500390565b60007f7fffffffffffffffffffffffffffffffffffffffffffffffffffffffffffffff60008413600084138583048511828216161561552357615523615092565b7f8000000000000000000000000000000000000000000000000000000000000000600087128682058812818416161561555e5761555e615092565b6000871292508782058712848416161561557a5761557a615092565b8785058712818416161561559057615590615092565b505050929093029392505050565b6000808212827f7fffffffffffffffffffffffffffffffffffffffffffffffffffffffffffffff038413811516156155d8576155d8615092565b827f800000000000000000000000000000000000000000000000000000000000000003841281161561560c5761560c615092565b50500190565b600082615621576156216153f5565b500490565b86815260006001600160a01b03808816602084015280871660408401525084606083015283608083015260c060a083015261566460c0830184614d49565b98975050505050505050565b7f4e487b7100000000000000000000000000000000000000000000000000000000600052602160045260246000fd5b6000602082840312156156b157600080fd5b815160038110612bc457600080fd5b7f4e487b7100000000000000000000000000000000000000000000000000000000600052603260045260246000fd5b805160ff8116811461570057600080fd5b919050565b600060c0828403121561571757600080fd5b60405160c0810181811067ffffffffffffffff8211171561573a5761573a6149eb565b604052825161574881615063565b8152615756602084016156ef565b6020820152615767604084016156ef565b6040820152606083015161577a81615063565b6060820152608083015161578d81615063565b608082015260a08301516fffffffffffffffffffffffffffffffff811681146157b557600080fd5b60a08201529392505050565b600060001982036157d4576157d4615092565b5060010190565b600084516157ed818460208901614d1d565b91909101928352506020820152604001919050565b6000821982111561581557615815615092565b500190565b600060ff83168061582d5761582d6153f5565b8060ff84160691505092915050565b600060ff821660ff84168082101561585657615856615092565b9003939250505056fea164736f6c634300080f000a","linkReferences":{}},"methodIdentifiers":{"anchorStateRegistry()":"5c0cba33","checkWithdrawal(bytes32,address)":"71c1566e","depositTransaction(address,uint256,uint64,bool,bytes)":"e9e05c42","disputeGameBlacklist(address)":"45884d32","disputeGameFactory()":"f2b4e617","disputeGameFinalityDelaySeconds()":"952b2797","donateETH()":"8b4c40b0","ethLockbox()":"b682c444","finalizeWithdrawalTransaction((uint256,address,address,uint256,uint256,bytes))":"8c3152e9","finalizeWithdrawalTransactionExternalProof((uint256,address,address,uint256,uint256,bytes),address)":"43ca1c50","finalizedWithdrawals(bytes32)":"a14238e7","guardian()":"452a9320","initVersion()":"38d38c97","initialize(address,address,address)":"c0c53b8b","l2Sender()":"9bf62d82","migrateLiquidity()":"bda204bb","migrateToSuperRoots(address,address)":"2152f2be","minimumGasLimit(uint64)":"a35d99df","numProofSubmitters(bytes32)":"513747ab","params()":"cff0ab96","paused()":"5c975abb","proofMaturityDelaySeconds()":"bf653a5c","proofSubmitters(bytes32,uint256)":"a3860f48","proveWithdrawalTransaction((uint256,address,address,uint256,uint256,bytes),address,uint256,(bytes1,uint64,(uint256,bytes32)[]),(bytes32,bytes32,bytes32,bytes32),bytes[])":"8c90dd65","proveWithdrawalTransaction((uint256,address,address,uint256,uint256,bytes),uint256,(bytes32,bytes32,bytes32,bytes32),bytes[])":"4870496f","provenWithdrawals(bytes32,address)":"bb2c727e","proxyAdmin()":"3e47158c","proxyAdminOwner()":"dad544e0","respectedGameType()":"3c9f397c","respectedGameTypeUpdatedAt()":"4fd0434c","superRootsActive()":"d325d3bf","superchainConfig()":"35e80ab3","systemConfig()":"33d7e2bd","upgrade(address,address)":"99a88ec4","version()":"54fd4d50"},"storageLayout":{"storage":[{"astId":48879,"contract":"src/L1/OptimismPortal2.sol:OptimismPortal2","label":"_initialized","offset":0,"slot":"0","type":"t_uint8"},{"astId":48882,"contract":"src/L1/OptimismPortal2.sol:OptimismPortal2","label":"_initializing","offset":1,"slot":"0","type":"t_bool"},{"astId":90301,"contract":"src/L1/OptimismPortal2.sol:OptimismPortal2","label":"params","offset":0,"slot":"1","type":"t_struct(ResourceParams)90284_storage"},{"astId":90306,"contract":"src/L1/OptimismPortal2.sol:OptimismPortal2","label":"__gap","offset":0,"slot":"2","type":"t_array(t_uint256)48_storage"},{"astId":88823,"contract":"src/L1/OptimismPortal2.sol:OptimismPortal2","label":"l2Sender","offset":0,"slot":"50","type":"t_address"},{"astId":88828,"contract":"src/L1/OptimismPortal2.sol:OptimismPortal2","label":"finalizedWithdrawals","offset":0,"slot":"51","type":"t_mapping(t_bytes32,t_bool)"},{"astId":88831,"contract":"src/L1/OptimismPortal2.sol:OptimismPortal2","label":"spacer_52_0_32","offset":0,"slot":"52","type":"t_bytes32"},{"astId":88834,"contract":"src/L1/OptimismPortal2.sol:OptimismPortal2","label":"spacer_53_0_1","offset":0,"slot":"53","type":"t_bool"},{"astId":88837,"contract":"src/L1/OptimismPortal2.sol:OptimismPortal2","label":"spacer_53_1_20","offset":1,"slot":"53","type":"t_address"},{"astId":88840,"contract":"src/L1/OptimismPortal2.sol:OptimismPortal2","label":"spacer_54_0_20","offset":0,"slot":"54","type":"t_address"},{"astId":88844,"contract":"src/L1/OptimismPortal2.sol:OptimismPortal2","label":"systemConfig","offset":0,"slot":"55","type":"t_contract(ISystemConfig)2912"},{"astId":88847,"contract":"src/L1/OptimismPortal2.sol:OptimismPortal2","label":"spacer_56_0_20","offset":0,"slot":"56","type":"t_address"},{"astId":88855,"contract":"src/L1/OptimismPortal2.sol:OptimismPortal2","label":"provenWithdrawals","offset":0,"slot":"57","type":"t_mapping(t_bytes32,t_mapping(t_address,t_struct(ProvenWithdrawal)88809_storage))"},{"astId":88858,"contract":"src/L1/OptimismPortal2.sol:OptimismPortal2","label":"spacer_58_0_32","offset":0,"slot":"58","type":"t_bytes32"},{"astId":88862,"contract":"src/L1/OptimismPortal2.sol:OptimismPortal2","label":"spacer_59_0_4","offset":0,"slot":"59","type":"t_userDefinedValueType(GameType)95352"},{"astId":88865,"contract":"src/L1/OptimismPortal2.sol:OptimismPortal2","label":"spacer_59_4_8","offset":4,"slot":"59","type":"t_uint64"},{"astId":88871,"contract":"src/L1/OptimismPortal2.sol:OptimismPortal2","label":"proofSubmitters","offset":0,"slot":"60","type":"t_mapping(t_bytes32,t_array(t_address)dyn_storage)"},{"astId":88874,"contract":"src/L1/OptimismPortal2.sol:OptimismPortal2","label":"spacer_61_0_32","offset":0,"slot":"61","type":"t_uint256"},{"astId":88878,"contract":"src/L1/OptimismPortal2.sol:OptimismPortal2","label":"anchorStateRegistry","offset":0,"slot":"62","type":"t_contract(IAnchorStateRegistry)4901"},{"astId":88882,"contract":"src/L1/OptimismPortal2.sol:OptimismPortal2","label":"ethLockbox","offset":0,"slot":"63","type":"t_contract(IETHLockbox)380"},{"astId":88885,"contract":"src/L1/OptimismPortal2.sol:OptimismPortal2","label":"superRootsActive","offset":20,"slot":"63","type":"t_bool"}],"types":{"t_address":{"encoding":"inplace","label":"address","numberOfBytes":"20"},"t_array(t_address)dyn_storage":{"encoding":"dynamic_array","label":"address[]","numberOfBytes":"32","base":"t_address"},"t_array(t_uint256)48_storage":{"encoding":"inplace","label":"uint256[48]","numberOfBytes":"1536","base":"t_uint256"},"t_bool":{"encoding":"inplace","label":"bool","numberOfBytes":"1"},"t_bytes32":{"encoding":"inplace","label":"bytes32","numberOfBytes":"32"},"t_contract(IAnchorStateRegistry)4901":{"encoding":"inplace","label":"contract IAnchorStateRegistry","numberOfBytes":"20"},"t_contract(IDisputeGame)5247":{"encoding":"inplace","label":"contract IDisputeGame","numberOfBytes":"20"},"t_contract(IETHLockbox)380":{"encoding":"inplace","label":"contract IETHLockbox","numberOfBytes":"20"},"t_contract(ISystemConfig)2912":{"encoding":"inplace","label":"contract ISystemConfig","numberOfBytes":"20"},"t_mapping(t_address,t_struct(ProvenWithdrawal)88809_storage)":{"encoding":"mapping","key":"t_address","label":"mapping(address => struct OptimismPortal2.ProvenWithdrawal)","numberOfBytes":"32","value":"t_struct(ProvenWithdrawal)88809_storage"},"t_mapping(t_bytes32,t_array(t_address)dyn_storage)":{"encoding":"mapping","key":"t_bytes32","label":"mapping(bytes32 => address[])","numberOfBytes":"32","value":"t_array(t_address)dyn_storage"},"t_mapping(t_bytes32,t_bool)":{"encoding":"mapping","key":"t_bytes32","label":"mapping(bytes32 => bool)","numberOfBytes":"32","value":"t_bool"},"t_mapping(t_bytes32,t_mapping(t_address,t_struct(ProvenWithdrawal)88809_storage))":{"encoding":"mapping","key":"t_bytes32","label":"mapping(bytes32 => mapping(address => struct OptimismPortal2.ProvenWithdrawal))","numberOfBytes":"32","value":"t_mapping(t_address,t_struct(ProvenWithdrawal)88809_storage)"},"t_struct(ProvenWithdrawal)88809_storage":{"encoding":"inplace","label":"struct OptimismPortal2.ProvenWithdrawal","numberOfBytes":"32","members":[{"astId":88806,"contract":"src/L1/OptimismPortal2.sol:OptimismPortal2","label":"disputeGameProxy","offset":0,"slot":"0","type":"t_contract(IDisputeGame)5247"},{"astId":88808,"contract":"src/L1/OptimismPortal2.sol:OptimismPortal2","label":"timestamp","offset":20,"slot":"0","type":"t_uint64"}]},"t_struct(ResourceParams)90284_storage":{"encoding":"inplace","label":"struct ResourceMetering.ResourceParams","numberOfBytes":"32","members":[{"astId":90279,"contract":"src/L1/OptimismPortal2.sol:OptimismPortal2","label":"prevBaseFee","offset":0,"slot":"0","type":"t_uint128"},{"astId":90281,"contract":"src/L1/OptimismPortal2.sol:OptimismPortal2","label":"prevBoughtGas","offset":16,"slot":"0","type":"t_uint64"},{"astId":90283,"contract":"src/L1/OptimismPortal2.sol:OptimismPortal2","label":"prevBlockNum","offset":24,"slot":"0","type":"t_uint64"}]},"t_uint128":{"encoding":"inplace","label":"uint128","numberOfBytes":"16"},"t_uint256":{"encoding":"inplace","label":"uint256","numberOfBytes":"32"},"t_uint64":{"encoding":"inplace","label":"uint64","numberOfBytes":"8"},"t_uint8":{"encoding":"inplace","label":"uint8","numberOfBytes":"1"},"t_userDefinedValueType(GameType)95352":{"encoding":"inplace","label":"GameType","numberOfBytes":"4"}}},"userdoc":{"version":1,"kind":"user","methods":{"anchorStateRegistry()":{"notice":"Address of the AnchorStateRegistry contract."},"checkWithdrawal(bytes32,address)":{"notice":"Checks that a withdrawal has been proven and is ready to be finalized."},"depositTransaction(address,uint256,uint64,bool,bytes)":{"notice":"Accepts deposits of ETH and data, and emits a TransactionDeposited event for use in         deriving deposit transactions. Note that if a deposit is made by a contract, its         address will be aliased when retrieved using `tx.origin` or `msg.sender`. Consider         using the CrossDomainMessenger contracts for a simpler developer experience."},"disputeGameFactory()":{"notice":"Getter for the address of the DisputeGameFactory contract."},"donateETH()":{"notice":"Accepts ETH value without triggering a deposit to L2."},"ethLockbox()":{"notice":"Address of the ETHLockbox contract."},"finalizeWithdrawalTransaction((uint256,address,address,uint256,uint256,bytes))":{"notice":"Finalizes a withdrawal transaction."},"finalizeWithdrawalTransactionExternalProof((uint256,address,address,uint256,uint256,bytes),address)":{"notice":"Finalizes a withdrawal transaction, using an external proof submitter."},"finalizedWithdrawals(bytes32)":{"notice":"A list of withdrawal hashes which have been successfully finalized."},"initVersion()":{"notice":"Getter for the current initialization version."},"initialize(address,address,address)":{"notice":"Initializer."},"l2Sender()":{"notice":"Address of the L2 account which initiated a withdrawal in this transaction.         If the value of this variable is the default L2 sender address, then we are NOT         inside of a call to finalizeWithdrawalTransaction."},"migrateLiquidity()":{"notice":"Migrates the total ETH balance to the ETHLockbox."},"migrateToSuperRoots(address,address)":{"notice":"Allows the owner of the ProxyAdmin to migrate the OptimismPortal to use a new         lockbox, point at a new AnchorStateRegistry, and start to use the Super Roots proof         method. Primarily used for OptimismPortal instances to join the interop set, but         can also be used to swap the proof method from Output Roots to Super Roots if the         provided lockbox is the same as the current one."},"minimumGasLimit(uint64)":{"notice":"Computes the minimum gas limit for a deposit.         The minimum gas limit linearly increases based on the size of the calldata.         This is to prevent users from creating L2 resource usage without paying for it.         This function can be used when interacting with the portal to ensure forwards         compatibility."},"numProofSubmitters(bytes32)":{"notice":"External getter for the number of proof submitters for a withdrawal hash."},"params()":{"notice":"EIP-1559 style gas parameters."},"paused()":{"notice":"Getter for the current paused status."},"proofMaturityDelaySeconds()":{"notice":"Getter for the proof maturity delay."},"proofSubmitters(bytes32,uint256)":{"notice":"Mapping of withdrawal hashes to addresses that have submitted a proof for the         withdrawal. Original OptimismPortal contract only allowed one proof to be submitted         for any given withdrawal hash. Fault Proofs version of this contract must allow         multiple proofs for the same withdrawal hash to prevent a malicious user from         blocking other withdrawals by proving them against invalid proposals. Submitters         are tracked in an array to simplify the off-chain process of determining which         proof submission should be used when finalizing a withdrawal."},"proveWithdrawalTransaction((uint256,address,address,uint256,uint256,bytes),address,uint256,(bytes1,uint64,(uint256,bytes32)[]),(bytes32,bytes32,bytes32,bytes32),bytes[])":{"notice":"Proves a withdrawal transaction using a Super Root proof. Only callable when the         OptimismPortal is using Super Roots (superRootsActive flag is true)."},"proveWithdrawalTransaction((uint256,address,address,uint256,uint256,bytes),uint256,(bytes32,bytes32,bytes32,bytes32),bytes[])":{"notice":"Proves a withdrawal transaction using an Output Root proof. Only callable when the         OptimismPortal is using Output Roots (superRootsActive flag is false)."},"provenWithdrawals(bytes32,address)":{"notice":"A mapping of withdrawal hashes to proof submitters to ProvenWithdrawal data."},"proxyAdmin()":{"notice":"Getter for the ProxyAdmin contract that owns this Proxy contract."},"proxyAdminOwner()":{"notice":"Getter for the owner of the ProxyAdmin."},"superRootsActive()":{"notice":"Whether the OptimismPortal is using Super Roots or Output Roots."},"superchainConfig()":{"notice":"Returns the SuperchainConfig contract."},"systemConfig()":{"notice":"Address of the SystemConfig contract."},"upgrade(address,address)":{"notice":"Upgrades the OptimismPortal contract to have a reference to the AnchorStateRegistry and SystemConfig"},"version()":{"notice":"Semantic version."}},"events":{"ETHMigrated(address,uint256)":{"notice":"Emitted when the total ETH balance is migrated to the ETHLockbox."},"PortalMigrated(address,address,address,address)":{"notice":"Emitted when the ETHLockbox contract is updated."},"TransactionDeposited(address,address,uint256,bytes)":{"notice":"Emitted when a transaction is deposited from L1 to L2. The parameters of this event         are read by the rollup node and used to derive deposit transactions on L2."},"WithdrawalFinalized(bytes32,bool)":{"notice":"Emitted when a withdrawal transaction is finalized."},"WithdrawalProven(bytes32,address,address)":{"notice":"Emitted when a withdrawal transaction is proven."},"WithdrawalProvenExtension1(bytes32,address)":{"notice":"Emitted when a withdrawal transaction is proven. Exists as a separate event to         allow for backwards compatibility for tooling that observes the WithdrawalProven         event."}},"errors":{"ContentLengthMismatch()":[{"notice":"The length of the content must be greater than the RLP item length"}],"EmptyItem()":[{"notice":"The length of an RLP item must be greater than zero to be decodable"}],"Encoding_EmptySuperRoot()":[{"notice":"Thrown when a provided Super Root proof has no Output Roots."}],"Encoding_InvalidSuperRootVersion()":[{"notice":"Thrown when a provided Super Root proof has an invalid version."}],"InvalidDataRemainder()":[{"notice":"The RLP item has an invalid data remainder"}],"InvalidHeader()":[{"notice":"Invalid RLP header for RLP item"}],"OptimismPortal_AlreadyFinalized()":[{"notice":"Thrown when a withdrawal has already been finalized."}],"OptimismPortal_BadTarget()":[{"notice":"Thrown when the target of a withdrawal is unsafe."}],"OptimismPortal_CallPaused()":[{"notice":"Thrown when the portal is paused."}],"OptimismPortal_CalldataTooLarge()":[{"notice":"Thrown when the calldata for a deposit is too large."}],"OptimismPortal_GasEstimation()":[{"notice":"Thrown when a gas estimation transaction is being executed."}],"OptimismPortal_GasLimitTooLow()":[{"notice":"Thrown when the gas limit for a deposit is too low."}],"OptimismPortal_ImproperDisputeGame()":[{"notice":"Thrown when the target of a withdrawal is not a proper dispute game."}],"OptimismPortal_InvalidDisputeGame()":[{"notice":"Thrown when a withdrawal has not been proven against a valid dispute game."}],"OptimismPortal_InvalidMerkleProof()":[{"notice":"Thrown when a withdrawal has not been proven against a valid merkle proof."}],"OptimismPortal_InvalidOutputRootChainId()":[{"notice":"Thrown when an output root chain id is invalid."}],"OptimismPortal_InvalidOutputRootIndex()":[{"notice":"Thrown when an output root index is invalid."}],"OptimismPortal_InvalidOutputRootProof()":[{"notice":"Thrown when a withdrawal has not been proven against a valid output root proof."}],"OptimismPortal_InvalidProofTimestamp()":[{"notice":"Thrown when a withdrawal's timestamp is not greater than the dispute game's creation timestamp."}],"OptimismPortal_InvalidRootClaim()":[{"notice":"Thrown when the root claim of a dispute game is invalid."}],"OptimismPortal_InvalidSuperRootProof()":[{"notice":"Thrown when a super root proof is invalid."}],"OptimismPortal_MigratingToSameRegistry()":[{"notice":"Thrown when trying to migrate to the same AnchorStateRegistry."}],"OptimismPortal_NoReentrancy()":[{"notice":"Thrown when a withdrawal is being finalized by a reentrant call."}],"OptimismPortal_ProofNotOldEnough()":[{"notice":"Thrown when a withdrawal has not been proven for long enough."}],"OptimismPortal_Unauthorized()":[{"notice":"Thrown when the caller is not authorized to call the function."}],"OptimismPortal_Unproven()":[{"notice":"Thrown when a withdrawal has not been proven."}],"OptimismPortal_WrongProofMethod()":[{"notice":"Thrown when the wrong proof method is used."}],"OutOfGas()":[{"notice":"Error returned when too much gas resource is consumed."}],"ProxyAdminOwnedBase_NotProxyAdmin()":[{"notice":"Thrown when the caller is not the ProxyAdmin."}],"ProxyAdminOwnedBase_NotProxyAdminOrProxyAdminOwner()":[{"notice":"Thrown when the caller is not the ProxyAdmin owner or the ProxyAdmin."}],"ProxyAdminOwnedBase_NotProxyAdminOwner()":[{"notice":"Thrown when the caller is not the ProxyAdmin owner."}],"ProxyAdminOwnedBase_NotResolvedDelegateProxy()":[{"notice":"Thrown when the current contract is not a ResolvedDelegateProxy."}],"ProxyAdminOwnedBase_NotSharedProxyAdminOwner()":[{"notice":"Thrown when the ProxyAdmin owner of the current contract is not the same as the         ProxyAdmin owner of the other Proxy address provided."}],"ProxyAdminOwnedBase_ProxyAdminNotFound()":[{"notice":"Thrown when the ProxyAdmin owner of the current contract is not found."}],"ReinitializableBase_ZeroInitVersion()":[{"notice":"Thrown when the initialization version is zero."}],"UnexpectedList()":[{"notice":"Decoded item type for bytes is not a string item"}],"UnexpectedString()":[{"notice":"The decoded item type for list is not a list item"}]},"notice":"The OptimismPortal is a low-level contract responsible for passing messages between L1         and L2. Messages sent directly to the OptimismPortal have no form of replayability.         Users are encouraged to use the L1CrossDomainMessenger for a higher-level interface."},"devdoc":{"version":1,"kind":"dev","methods":{"checkWithdrawal(bytes32,address)":{"params":{"_proofSubmitter":"Address of the proof submitter.","_withdrawalHash":"Hash of the withdrawal."}},"constructor":{"params":{"_proofMaturityDelaySeconds":"The proof maturity delay in seconds."}},"depositTransaction(address,uint256,uint64,bool,bytes)":{"details":"The `msg.value` is locked on the ETHLockbox and minted as ETH when the deposit         arrives on L2, while `_value` specifies how much ETH to send to the target.","params":{"_data":"Data to trigger the recipient with.","_gasLimit":"Amount of L2 gas to purchase by burning gas on L1.","_isCreation":"Whether or not the transaction is a contract creation.","_to":"Target address on L2.","_value":"ETH value to send to the recipient."}},"disputeGameBlacklist(address)":{"params":{"_disputeGame":"The dispute game to check."},"returns":{"_0":"Whether the dispute game is blacklisted."}},"disputeGameFinalityDelaySeconds()":{},"finalizeWithdrawalTransaction((uint256,address,address,uint256,uint256,bytes))":{"params":{"_tx":"Withdrawal transaction to finalize."}},"finalizeWithdrawalTransactionExternalProof((uint256,address,address,uint256,uint256,bytes),address)":{"params":{"_proofSubmitter":"Address of the proof submitter.","_tx":"Withdrawal transaction to finalize."}},"guardian()":{},"initVersion()":{"returns":{"_0":"The current initialization version."}},"initialize(address,address,address)":{"params":{"_anchorStateRegistry":"Address of the AnchorStateRegistry.","_ethLockbox":"Contract of the ETHLockbox.","_systemConfig":"Address of the SystemConfig."}},"migrateToSuperRoots(address,address)":{"details":"It is possible to change lockboxes without migrating liquidity. This can cause one         of the OptimismPortal instances connected to the new lockbox to not be able to         unlock sufficient ETH to finalize withdrawals which would trigger reverts. To avoid         this issue, guarantee that this function is called atomically alongside the         ETHLockbox.migrateLiquidity() function within the same transaction.","params":{"_newAnchorStateRegistry":"The address of the new AnchorStateRegistry contract.","_newLockbox":"The address of the new ETHLockbox contract."}},"minimumGasLimit(uint64)":{"params":{"_byteCount":"Number of bytes in the calldata."},"returns":{"_0":"The minimum gas limit for a deposit."}},"numProofSubmitters(bytes32)":{"params":{"_withdrawalHash":"Hash of the withdrawal."},"returns":{"_0":"The number of proof submitters for the withdrawal hash."}},"proveWithdrawalTransaction((uint256,address,address,uint256,uint256,bytes),address,uint256,(bytes1,uint64,(uint256,bytes32)[]),(bytes32,bytes32,bytes32,bytes32),bytes[])":{"params":{"_disputeGameProxy":"Address of the dispute game to prove the withdrawal against.","_outputRootIndex":"Index of the target Output Root within the Super Root.","_outputRootProof":"Inclusion proof of the L2ToL1MessagePasser storage root.","_superRootProof":"Inclusion proof of the Output Root within the Super Root.","_tx":"Withdrawal transaction to finalize.","_withdrawalProof":"Inclusion proof of the withdrawal within the L2ToL1MessagePasser."}},"proveWithdrawalTransaction((uint256,address,address,uint256,uint256,bytes),uint256,(bytes32,bytes32,bytes32,bytes32),bytes[])":{"params":{"_disputeGameIndex":"Index of the dispute game to prove the withdrawal against.","_outputRootProof":"Inclusion proof of the L2ToL1MessagePasser storage root.","_tx":"Withdrawal transaction to finalize.","_withdrawalProof":"Inclusion proof of the withdrawal within the L2ToL1MessagePasser."}},"respectedGameType()":{},"respectedGameTypeUpdatedAt()":{},"superchainConfig()":{"returns":{"_0":"ISuperchainConfig The SuperchainConfig contract."}},"upgrade(address,address)":{"params":{"_anchorStateRegistry":"AnchorStateRegistry contract.","_ethLockbox":"ETHLockbox contract."}},"version()":{}},"events":{"ETHMigrated(address,uint256)":{"params":{"ethBalance":"Amount of ETH migrated.","lockbox":"The address of the ETHLockbox contract."}},"PortalMigrated(address,address,address,address)":{"params":{"newAnchorStateRegistry":"The address of the new AnchorStateRegistry contract.","newLockbox":"The address of the new ETHLockbox contract.","oldAnchorStateRegistry":"The address of the old AnchorStateRegistry contract.","oldLockbox":"The address of the old ETHLockbox contract."}},"TransactionDeposited(address,address,uint256,bytes)":{"params":{"from":"Address that triggered the deposit transaction.","opaqueData":"ABI encoded deposit data to be parsed off-chain.","to":"Address that the deposit transaction is directed to.","version":"Version of this deposit transaction event."}},"WithdrawalFinalized(bytes32,bool)":{"params":{"success":"Whether the withdrawal transaction was successful.","withdrawalHash":"Hash of the withdrawal transaction."}},"WithdrawalProven(bytes32,address,address)":{"params":{"from":"Address that triggered the withdrawal transaction.","to":"Address that the withdrawal transaction is directed to.","withdrawalHash":"Hash of the withdrawal transaction."}},"WithdrawalProvenExtension1(bytes32,address)":{"params":{"proofSubmitter":"Address of the proof submitter.","withdrawalHash":"Hash of the withdrawal transaction."}}},"title":"OptimismPortal2"},"id":137}