{"abi":[{"type":"constructor","inputs":[{"name":"_implementations","type":"tuple","internalType":"struct OPContractsManagerStandardValidator.Implementations","components":[{"name":"l1ERC721BridgeImpl","type":"address","internalType":"address"},{"name":"optimismPortalImpl","type":"address","internalType":"address"},{"name":"ethLockboxImpl","type":"address","internalType":"address"},{"name":"systemConfigImpl","type":"address","internalType":"address"},{"name":"optimismMintableERC20FactoryImpl","type":"address","internalType":"address"},{"name":"l1CrossDomainMessengerImpl","type":"address","internalType":"address"},{"name":"l1StandardBridgeImpl","type":"address","internalType":"address"},{"name":"disputeGameFactoryImpl","type":"address","internalType":"address"},{"name":"anchorStateRegistryImpl","type":"address","internalType":"address"},{"name":"delayedWETHImpl","type":"address","internalType":"address"},{"name":"mipsImpl","type":"address","internalType":"address"}]},{"name":"_superchainConfig","type":"address","internalType":"contract ISuperchainConfig"},{"name":"_l1PAOMultisig","type":"address","internalType":"address"},{"name":"_challenger","type":"address","internalType":"address"},{"name":"_withdrawalDelaySeconds","type":"uint256","internalType":"uint256"}],"stateMutability":"nonpayable"},{"type":"function","name":"anchorStateRegistryImpl","inputs":[],"outputs":[{"name":"","type":"address","internalType":"address"}],"stateMutability":"view"},{"type":"function","name":"anchorStateRegistryVersion","inputs":[],"outputs":[{"name":"","type":"string","internalType":"string"}],"stateMutability":"pure"},{"type":"function","name":"challenger","inputs":[],"outputs":[{"name":"","type":"address","internalType":"address"}],"stateMutability":"view"},{"type":"function","name":"delayedWETHImpl","inputs":[],"outputs":[{"name":"","type":"address","internalType":"address"}],"stateMutability":"view"},{"type":"function","name":"delayedWETHVersion","inputs":[],"outputs":[{"name":"","type":"string","internalType":"string"}],"stateMutability":"pure"},{"type":"function","name":"disputeGameFactoryImpl","inputs":[],"outputs":[{"name":"","type":"address","internalType":"address"}],"stateMutability":"view"},{"type":"function","name":"disputeGameFactoryVersion","inputs":[],"outputs":[{"name":"","type":"string","internalType":"string"}],"stateMutability":"pure"},{"type":"function","name":"ethLockboxImpl","inputs":[],"outputs":[{"name":"","type":"address","internalType":"address"}],"stateMutability":"view"},{"type":"function","name":"ethLockboxVersion","inputs":[],"outputs":[{"name":"","type":"string","internalType":"string"}],"stateMutability":"pure"},{"type":"function","name":"l1CrossDomainMessengerImpl","inputs":[],"outputs":[{"name":"","type":"address","internalType":"address"}],"stateMutability":"view"},{"type":"function","name":"l1CrossDomainMessengerVersion","inputs":[],"outputs":[{"name":"","type":"string","internalType":"string"}],"stateMutability":"pure"},{"type":"function","name":"l1ERC721BridgeImpl","inputs":[],"outputs":[{"name":"","type":"address","internalType":"address"}],"stateMutability":"view"},{"type":"function","name":"l1ERC721BridgeVersion","inputs":[],"outputs":[{"name":"","type":"string","internalType":"string"}],"stateMutability":"pure"},{"type":"function","name":"l1PAOMultisig","inputs":[],"outputs":[{"name":"","type":"address","internalType":"address"}],"stateMutability":"view"},{"type":"function","name":"l1StandardBridgeImpl","inputs":[],"outputs":[{"name":"","type":"address","internalType":"address"}],"stateMutability":"view"},{"type":"function","name":"l1StandardBridgeVersion","inputs":[],"outputs":[{"name":"","type":"string","internalType":"string"}],"stateMutability":"pure"},{"type":"function","name":"mipsImpl","inputs":[],"outputs":[{"name":"","type":"address","internalType":"address"}],"stateMutability":"view"},{"type":"function","name":"mipsVersion","inputs":[],"outputs":[{"name":"","type":"string","internalType":"string"}],"stateMutability":"pure"},{"type":"function","name":"optimismMintableERC20FactoryImpl","inputs":[],"outputs":[{"name":"","type":"address","internalType":"address"}],"stateMutability":"view"},{"type":"function","name":"optimismMintableERC20FactoryVersion","inputs":[],"outputs":[{"name":"","type":"string","internalType":"string"}],"stateMutability":"pure"},{"type":"function","name":"optimismPortalImpl","inputs":[],"outputs":[{"name":"","type":"address","internalType":"address"}],"stateMutability":"view"},{"type":"function","name":"optimismPortalVersion","inputs":[],"outputs":[{"name":"","type":"string","internalType":"string"}],"stateMutability":"pure"},{"type":"function","name":"permissionedDisputeGameVersion","inputs":[],"outputs":[{"name":"","type":"string","internalType":"string"}],"stateMutability":"pure"},{"type":"function","name":"preimageOracleVersion","inputs":[],"outputs":[{"name":"","type":"string","internalType":"string"}],"stateMutability":"pure"},{"type":"function","name":"superchainConfig","inputs":[],"outputs":[{"name":"","type":"address","internalType":"contract ISuperchainConfig"}],"stateMutability":"view"},{"type":"function","name":"systemConfigImpl","inputs":[],"outputs":[{"name":"","type":"address","internalType":"address"}],"stateMutability":"view"},{"type":"function","name":"systemConfigVersion","inputs":[],"outputs":[{"name":"","type":"string","internalType":"string"}],"stateMutability":"pure"},{"type":"function","name":"validate","inputs":[{"name":"_input","type":"tuple","internalType":"struct OPContractsManagerStandardValidator.ValidationInput","components":[{"name":"proxyAdmin","type":"address","internalType":"contract IProxyAdmin"},{"name":"sysCfg","type":"address","internalType":"contract ISystemConfig"},{"name":"absolutePrestate","type":"bytes32","internalType":"bytes32"},{"name":"l2ChainID","type":"uint256","internalType":"uint256"}]},{"name":"_allowFailure","type":"bool","internalType":"bool"}],"outputs":[{"name":"","type":"string","internalType":"string"}],"stateMutability":"view"},{"type":"function","name":"validateWithOverrides","inputs":[{"name":"_input","type":"tuple","internalType":"struct OPContractsManagerStandardValidator.ValidationInput","components":[{"name":"proxyAdmin","type":"address","internalType":"contract IProxyAdmin"},{"name":"sysCfg","type":"address","internalType":"contract ISystemConfig"},{"name":"absolutePrestate","type":"bytes32","internalType":"bytes32"},{"name":"l2ChainID","type":"uint256","internalType":"uint256"}]},{"name":"_allowFailure","type":"bool","internalType":"bool"},{"name":"_overrides","type":"tuple","internalType":"struct OPContractsManagerStandardValidator.ValidationOverrides","components":[{"name":"l1PAOMultisig","type":"address","internalType":"address"},{"name":"challenger","type":"address","internalType":"address"}]}],"outputs":[{"name":"","type":"string","internalType":"string"}],"stateMutability":"view"},{"type":"function","name":"version","inputs":[],"outputs":[{"name":"","type":"string","internalType":"string"}],"stateMutability":"view"},{"type":"function","name":"withdrawalDelaySeconds","inputs":[],"outputs":[{"name":"","type":"uint256","internalType":"uint256"}],"stateMutability":"view"}],"bytecode":{"object":"0x60806040523480156200001157600080fd5b50604051620052fa380380620052fa8339810160408190526200003491620001ab565b600080546001600160a01b03199081166001600160a01b039687161790915560018054821694861694909417909355600280548416928516929092179091556003558251600480548316918416919091179055602083015160058054831691841691909117905560408301516006805483169184169190911790556060830151600780548316918416919091179055608083015160088054831691841691909117905560a083015160098054831691841691909117905560c0830151600a8054831691841691909117905560e0830151600b80548316918416919091179055610100830151600c80548316918416919091179055610120830151600d8054831691841691909117905561014090920151600e80549093169116179055620002fa565b60405161016081016001600160401b03811182821017156200018857634e487b7160e01b600052604160045260246000fd5b60405290565b80516001600160a01b0381168114620001a657600080fd5b919050565b60008060008060008587036101e0811215620001c657600080fd5b61016080821215620001d757600080fd5b620001e162000156565b9150620001ee886200018e565b8252620001fe602089016200018e565b602083015262000211604089016200018e565b604083015262000224606089016200018e565b606083015262000237608089016200018e565b60808301526200024a60a089016200018e565b60a08301526200025d60c089016200018e565b60c08301526200027060e089016200018e565b60e083015261010062000285818a016200018e565b90830152610120620002998982016200018e565b90830152610140620002ad8982016200018e565b8184015250819650620002c28189016200018e565b95505050620002d561018087016200018e565b9250620002e66101a087016200018e565b91506101c086015190509295509295909350565b614ff0806200030a6000396000f3fe608060405234801561001057600080fd5b50600436106101e55760003560e01c80637b491a981161010f578063ad7e7e40116100a2578063ceb0251911610071578063ceb02519146105e4578063e303272c1461061d578063e3fef4a814610630578063ed7636ad1461046857600080fd5b8063ad7e7e4014610572578063bb98b3f4146105ab578063bc3f6fd4146105be578063c34e047a146105d157600080fd5b8063a1480306116100de578063a1480306146104da578063a38d559514610513578063a4d8c1fd14610526578063a4dec37a1461055f57600080fd5b80637b491a98146104425780637d8bd0d81461045557806384a98f4c1461046857806395f194c6146104a157600080fd5b806352b6357d1161018757806367cda69c1161015657806367cda69c146103cc57806371839418146103df57806374459cf3146103f65780637648ffea1461040957600080fd5b806352b6357d14610331578063534db0e21461036a57806354fd4d501461037d57806358256afb146103b957600080fd5b806335e80ab3116101c357806335e80ab3146102735780633a69fed8146102865780634772166c146102bf57806350c5a541146102f857600080fd5b80630bcab66f146101ea5780632aecd35c1461023557806330d1488814610260575b600080fd5b60408051808201909152600581527f322e392e3000000000000000000000000000000000000000000000000000000060208201525b60405161022c9190614610565b60405180910390f35b600c54610248906001600160a01b031681565b6040516001600160a01b03909116815260200161022c565b61021f61026e366004614710565b610643565b600054610248906001600160a01b031681565b60408051808201909152600581527f342e362e30000000000000000000000000000000000000000000000000000000602082015261021f565b60408051808201909152600581527f312e392e30000000000000000000000000000000000000000000000000000000602082015261021f565b60408051808201909152600581527f332e352e30000000000000000000000000000000000000000000000000000000602082015261021f565b60408051808201909152600581527f332e342e30000000000000000000000000000000000000000000000000000000602082015261021f565b600254610248906001600160a01b031681565b61021f6040518060400160405280600581526020017f312e382e3000000000000000000000000000000000000000000000000000000081525081565b600954610248906001600160a01b031681565b61021f6103da366004614748565b61067f565b6103e860035481565b60405190815260200161022c565b600d54610248906001600160a01b031681565b60408051808201909152600581527f312e352e30000000000000000000000000000000000000000000000000000000602082015261021f565b600654610248906001600160a01b031681565b600454610248906001600160a01b031681565b60408051808201909152600581527f312e322e30000000000000000000000000000000000000000000000000000000602082015261021f565b60408051808201909152600681527f312e31302e310000000000000000000000000000000000000000000000000000602082015261021f565b60408051808201909152600581527f312e382e30000000000000000000000000000000000000000000000000000000602082015261021f565b600554610248906001600160a01b031681565b60408051808201909152600581527f322e372e30000000000000000000000000000000000000000000000000000000602082015261021f565b600154610248906001600160a01b031681565b60408051808201909152600581527f312e312e34000000000000000000000000000000000000000000000000000000602082015261021f565b600b54610248906001600160a01b031681565b600754610248906001600160a01b031681565b600a54610248906001600160a01b031681565b60408051808201909152600581527f322e362e30000000000000000000000000000000000000000000000000000000602082015261021f565b600e54610248906001600160a01b031681565b600854610248906001600160a01b031681565b60606106788383604051806040016040528060006001600160a01b0316815260200160006001600160a01b031681525061067f565b9392505050565b60408051602081019091526000815260609061069a81610858565b90506106ab81866000015185610928565b90506106c081866020015187600001516109f5565b90506106d58186602001518760000151611138565b90506106ea8186602001518760000151611706565b90506106ff8186602001518760000151611cd4565b90506107148186602001518760000151611ff7565b905061072981866020015187600001516125c5565b905061073f8186602001518760000151866129ff565b905061075f81866020015187604001518860600151896000015188612c7b565b905061077f81866020015187604001518860600151896000015188612ee0565b90506107948186602001518760000151613073565b905060006107a1846133ca565b80519091508290156107e0578251156107dd5781836040516020016107c7929190614800565b60405160208183030381529060405290506107e0565b50805b600083511180156107ef575085155b1561084e57806040516020016108059190614858565b60408051601f19818403018152908290527f08c379a000000000000000000000000000000000000000000000000000000000825261084591600401614610565b60405180910390fd5b9695505050505050565b600080546040517f2e48152c0000000000000000000000000000000000000000000000000000000081526004810192909252606091610922916001600160a01b031690632e48152c90602401602060405180830381865afa1580156108c1573d6000803e3d6000fd5b505050506040513d601f19601f820116820180604052508101906108e591906148c3565b156040518060400160405280600981526020017f5350524346472d3130000000000000000000000000000000000000000000000081525084613467565b92915050565b60606000610935836134b3565b90506109ec816001600160a01b0316856001600160a01b0316638da5cb5b6040518163ffffffff1660e01b8152600401602060405180830381865afa158015610982573d6000803e3d6000fd5b505050506040513d601f19601f820116820180604052508101906109a691906148e0565b6001600160a01b0316146040518060400160405280600981526020017f50524f5859412d3130000000000000000000000000000000000000000000000081525087613467565b95945050505050565b6060610a8d610a51610a06856134dc565b60408051808201909152600581527f332e342e3000000000000000000000000000000000000000000000000000000060208201525b8051602091820120825192909101919091201490565b6040518060400160405280600981526020017f535953434f4e2d3130000000000000000000000000000000000000000000000081525086613467565b9350610b4b631dcd650067ffffffffffffffff16846001600160a01b031663f68016b76040518163ffffffff1660e01b8152600401602060405180830381865afa158015610adf573d6000803e3d6000fd5b505050506040513d601f19601f82011682018060405250810190610b039190614913565b67ffffffffffffffff1611156040518060400160405280600981526020017f535953434f4e2d3230000000000000000000000000000000000000000000000081525086613467565b9350610bf2836001600160a01b031663f45e65d86040518163ffffffff1660e01b8152600401602060405180830381865afa158015610b8e573d6000803e3d6000fd5b505050506040513d601f19601f82011682018060405250810190610bb29190614930565b600014156040518060400160405280600981526020017f535953434f4e2d3330000000000000000000000000000000000000000000000081525086613467565b600754909450610c55906001600160a01b0316610c0f8486613544565b6001600160a01b0316146040518060400160405280600981526020017f535953434f4e2d3430000000000000000000000000000000000000000000000081525086613467565b93506000836001600160a01b031663cc731b026040518163ffffffff1660e01b815260040160c060405180830381865afa158015610c97573d6000803e3d6000fd5b505050506040513d601f19601f82011682018060405250810190610cbb9190614971565b9050610d0d816000015163ffffffff166301312d00146040518060400160405280600981526020017f535953434f4e2d3530000000000000000000000000000000000000000000000081525087613467565b9450610d59816020015160ff16600a146040518060400160405280600981526020017f535953434f4e2d3630000000000000000000000000000000000000000000000081525087613467565b9450610da5816040015160ff166008146040518060400160405280600981526020017f535953434f4e2d3730000000000000000000000000000000000000000000000081525087613467565b9450610df6816080015163ffffffff16620f4240146040518060400160405280600981526020017f535953434f4e2d3830000000000000000000000000000000000000000000000081525087613467565b9450610e48816060015163ffffffff16633b9aca00146040518060400160405280600981526020017f535953434f4e2d3930000000000000000000000000000000000000000000000081525087613467565b9450610eb46fffffffffffffffffffffffffffffffff80168260a001516fffffffffffffffffffffffffffffffff16146040518060400160405280600a81526020017f535953434f4e2d3130300000000000000000000000000000000000000000000081525087613467565b9450610f60846001600160a01b0316634d5d9a2a6040518163ffffffff1660e01b8152600401602060405180830381865afa158015610ef7573d6000803e3d6000fd5b505050506040513d601f19601f82011682018060405250810190610f1b9190614a2d565b63ffffffff166000146040518060400160405280600a81526020017f535953434f4e2d3131300000000000000000000000000000000000000000000081525087613467565b9450611010846001600160a01b03166316d3bc7f6040518163ffffffff1660e01b8152600401602060405180830381865afa158015610fa3573d6000803e3d6000fd5b505050506040513d601f19601f82011682018060405250810190610fc79190614913565b67ffffffffffffffff166000146040518060400160405280600a81526020017f535953434f4e2d3132300000000000000000000000000000000000000000000081525087613467565b945061106e836001600160a01b0316611028866135cb565b6001600160a01b0316146040518060400160405280600a81526020017f535953434f4e2d3133300000000000000000000000000000000000000000000081525087613467565b94506109ec60008054906101000a90046001600160a01b03166001600160a01b0316856001600160a01b03166335e80ab36040518163ffffffff1660e01b8152600401602060405180830381865afa1580156110ce573d6000803e3d6000fd5b505050506040513d601f19601f820116820180604052508101906110f291906148e0565b6001600160a01b0316146040518060400160405280600a81526020017f535953434f4e2d3134300000000000000000000000000000000000000000000081525087613467565b60606000836001600160a01b031663a71198696040518163ffffffff1660e01b8152600401602060405180830381865afa15801561117a573d6000803e3d6000fd5b505050506040513d601f19601f8201168201806040525081019061119e91906148e0565b90506112246111e86111af836134dc565b60408051808201909152600581527f322e392e300000000000000000000000000000000000000000000000000000006020820152610a3b565b6040518060400160405280600881526020017f4c3178444d2d313000000000000000000000000000000000000000000000000081525087613467565b600954909550611287906001600160a01b03166112418584613544565b6001600160a01b0316146040518060400160405280600881526020017f4c3178444d2d323000000000000000000000000000000000000000000000000081525087613467565b94506000846001600160a01b0316630a49cb036040518163ffffffff1660e01b8152600401602060405180830381865afa1580156112c9573d6000803e3d6000fd5b505050506040513d601f19601f820116820180604052508101906112ed91906148e0565b90506113b87342000000000000000000000000000000000000076001600160a01b0316836001600160a01b0316639fce812c6040518163ffffffff1660e01b8152600401602060405180830381865afa15801561134e573d6000803e3d6000fd5b505050506040513d601f19601f8201168201806040525081019061137291906148e0565b6001600160a01b0316146040518060400160405280600881526020017f4c3178444d2d333000000000000000000000000000000000000000000000000081525088613467565b95506114837342000000000000000000000000000000000000076001600160a01b0316836001600160a01b031663db505d806040518163ffffffff1660e01b8152600401602060405180830381865afa158015611419573d6000803e3d6000fd5b505050506040513d601f19601f8201168201806040525081019061143d91906148e0565b6001600160a01b0316146040518060400160405280600881526020017f4c3178444d2d343000000000000000000000000000000000000000000000000081525088613467565b955061153a816001600160a01b0316836001600160a01b0316630ff754ea6040518163ffffffff1660e01b8152600401602060405180830381865afa1580156114d0573d6000803e3d6000fd5b505050506040513d601f19601f820116820180604052508101906114f491906148e0565b6001600160a01b0316146040518060400160405280600881526020017f4c3178444d2d353000000000000000000000000000000000000000000000000081525088613467565b95506115f1816001600160a01b0316836001600160a01b0316636425666b6040518163ffffffff1660e01b8152600401602060405180830381865afa158015611587573d6000803e3d6000fd5b505050506040513d601f19601f820116820180604052508101906115ab91906148e0565b6001600160a01b0316146040518060400160405280600881526020017f4c3178444d2d363000000000000000000000000000000000000000000000000081525088613467565b95506116a8856001600160a01b0316836001600160a01b03166333d7e2bd6040518163ffffffff1660e01b8152600401602060405180830381865afa15801561163e573d6000803e3d6000fd5b505050506040513d601f19601f8201168201806040525081019061166291906148e0565b6001600160a01b0316146040518060400160405280600881526020017f4c3178444d2d373000000000000000000000000000000000000000000000000081525088613467565b955061084e846001600160a01b03166116c0846135cb565b6001600160a01b0316146040518060400160405280600881526020017f4c3178444d2d383000000000000000000000000000000000000000000000000081525088613467565b60606000836001600160a01b031663078f29cf6040518163ffffffff1660e01b8152600401602060405180830381865afa158015611748573d6000803e3d6000fd5b505050506040513d601f19601f8201168201806040525081019061176c91906148e0565b90506117f26117b661177d836134dc565b60408051808201909152600581527f322e362e300000000000000000000000000000000000000000000000000000006020820152610a3b565b6040518060400160405280600781526020017f4c3153422d31300000000000000000000000000000000000000000000000000081525087613467565b600a54909550611855906001600160a01b031661180f8584613544565b6001600160a01b0316146040518060400160405280600781526020017f4c3153422d32300000000000000000000000000000000000000000000000000081525087613467565b94506000846001600160a01b031663a71198696040518163ffffffff1660e01b8152600401602060405180830381865afa158015611897573d6000803e3d6000fd5b505050506040513d601f19601f820116820180604052508101906118bb91906148e0565b9050611972816001600160a01b0316836001600160a01b031663927ede2d6040518163ffffffff1660e01b8152600401602060405180830381865afa158015611908573d6000803e3d6000fd5b505050506040513d601f19601f8201168201806040525081019061192c91906148e0565b6001600160a01b0316146040518060400160405280600781526020017f4c3153422d33300000000000000000000000000000000000000000000000000081525088613467565b9550611a29816001600160a01b0316836001600160a01b0316633cb747bf6040518163ffffffff1660e01b8152600401602060405180830381865afa1580156119bf573d6000803e3d6000fd5b505050506040513d601f19601f820116820180604052508101906119e391906148e0565b6001600160a01b0316146040518060400160405280600781526020017f4c3153422d34300000000000000000000000000000000000000000000000000081525088613467565b9550611af47342000000000000000000000000000000000000106001600160a01b0316836001600160a01b0316637f46ddb26040518163ffffffff1660e01b8152600401602060405180830381865afa158015611a8a573d6000803e3d6000fd5b505050506040513d601f19601f82011682018060405250810190611aae91906148e0565b6001600160a01b0316146040518060400160405280600781526020017f4c3153422d35300000000000000000000000000000000000000000000000000081525088613467565b9550611bbf7342000000000000000000000000000000000000106001600160a01b0316836001600160a01b031663c89701a26040518163ffffffff1660e01b8152600401602060405180830381865afa158015611b55573d6000803e3d6000fd5b505050506040513d601f19601f82011682018060405250810190611b7991906148e0565b6001600160a01b0316146040518060400160405280600781526020017f4c3153422d36300000000000000000000000000000000000000000000000000081525088613467565b9550611c76856001600160a01b0316836001600160a01b03166333d7e2bd6040518163ffffffff1660e01b8152600401602060405180830381865afa158015611c0c573d6000803e3d6000fd5b505050506040513d601f19601f82011682018060405250810190611c3091906148e0565b6001600160a01b0316146040518060400160405280600781526020017f4c3153422d37300000000000000000000000000000000000000000000000000081525088613467565b955061084e846001600160a01b0316611c8e846135cb565b6001600160a01b0316146040518060400160405280600781526020017f4c3153422d38300000000000000000000000000000000000000000000000000081525088613467565b60606000836001600160a01b0316639b7d7f0a6040518163ffffffff1660e01b8152600401602060405180830381865afa158015611d16573d6000803e3d6000fd5b505050506040513d601f19601f82011682018060405250810190611d3a91906148e0565b9050611dc0611d84611d4b836134dc565b60408051808201909152600681527f312e31302e3100000000000000000000000000000000000000000000000000006020820152610a3b565b6040518060400160405280600a81526020017f4d4552433230462d31300000000000000000000000000000000000000000000081525087613467565b600854909550611e23906001600160a01b0316611ddd8584613544565b6001600160a01b0316146040518060400160405280600a81526020017f4d4552433230462d32300000000000000000000000000000000000000000000081525087613467565b94506000846001600160a01b031663078f29cf6040518163ffffffff1660e01b8152600401602060405180830381865afa158015611e65573d6000803e3d6000fd5b505050506040513d601f19601f82011682018060405250810190611e8991906148e0565b9050611f40816001600160a01b0316836001600160a01b031663ee9a31a26040518163ffffffff1660e01b8152600401602060405180830381865afa158015611ed6573d6000803e3d6000fd5b505050506040513d601f19601f82011682018060405250810190611efa91906148e0565b6001600160a01b0316146040518060400160405280600a81526020017f4d4552433230462d33300000000000000000000000000000000000000000000081525088613467565b955061084e816001600160a01b0316836001600160a01b031663e78cea926040518163ffffffff1660e01b8152600401602060405180830381865afa158015611f8d573d6000803e3d6000fd5b505050506040513d601f19601f82011682018060405250810190611fb191906148e0565b6001600160a01b0316146040518060400160405280600a81526020017f4d4552433230462d34300000000000000000000000000000000000000000000081525088613467565b60606000836001600160a01b031663c4e8ddfa6040518163ffffffff1660e01b8152600401602060405180830381865afa158015612039573d6000803e3d6000fd5b505050506040513d601f19601f8201168201806040525081019061205d91906148e0565b90506120e36120a761206e836134dc565b60408051808201909152600581527f322e372e300000000000000000000000000000000000000000000000000000006020820152610a3b565b6040518060400160405280600881526020017f4c373231422d313000000000000000000000000000000000000000000000000081525087613467565b600454909550612146906001600160a01b03166121008584613544565b6001600160a01b0316146040518060400160405280600881526020017f4c373231422d323000000000000000000000000000000000000000000000000081525087613467565b94506000846001600160a01b031663a71198696040518163ffffffff1660e01b8152600401602060405180830381865afa158015612188573d6000803e3d6000fd5b505050506040513d601f19601f820116820180604052508101906121ac91906148e0565b90506122777342000000000000000000000000000000000000146001600160a01b0316836001600160a01b0316637f46ddb26040518163ffffffff1660e01b8152600401602060405180830381865afa15801561220d573d6000803e3d6000fd5b505050506040513d601f19601f8201168201806040525081019061223191906148e0565b6001600160a01b0316146040518060400160405280600881526020017f4c373231422d333000000000000000000000000000000000000000000000000081525088613467565b95506123427342000000000000000000000000000000000000146001600160a01b0316836001600160a01b031663c89701a26040518163ffffffff1660e01b8152600401602060405180830381865afa1580156122d8573d6000803e3d6000fd5b505050506040513d601f19601f820116820180604052508101906122fc91906148e0565b6001600160a01b0316146040518060400160405280600881526020017f4c373231422d343000000000000000000000000000000000000000000000000081525088613467565b95506123f9816001600160a01b0316836001600160a01b031663927ede2d6040518163ffffffff1660e01b8152600401602060405180830381865afa15801561238f573d6000803e3d6000fd5b505050506040513d601f19601f820116820180604052508101906123b391906148e0565b6001600160a01b0316146040518060400160405280600881526020017f4c373231422d353000000000000000000000000000000000000000000000000081525088613467565b95506124b0816001600160a01b0316836001600160a01b0316633cb747bf6040518163ffffffff1660e01b8152600401602060405180830381865afa158015612446573d6000803e3d6000fd5b505050506040513d601f19601f8201168201806040525081019061246a91906148e0565b6001600160a01b0316146040518060400160405280600881526020017f4c373231422d363000000000000000000000000000000000000000000000000081525088613467565b9550612567856001600160a01b0316836001600160a01b03166333d7e2bd6040518163ffffffff1660e01b8152600401602060405180830381865afa1580156124fd573d6000803e3d6000fd5b505050506040513d601f19601f8201168201806040525081019061252191906148e0565b6001600160a01b0316146040518060400160405280600881526020017f4c373231422d373000000000000000000000000000000000000000000000000081525088613467565b955061084e846001600160a01b031661257f846135cb565b6001600160a01b0316146040518060400160405280600881526020017f4c373231422d383000000000000000000000000000000000000000000000000081525088613467565b60606000836001600160a01b0316630a49cb036040518163ffffffff1660e01b8152600401602060405180830381865afa158015612607573d6000803e3d6000fd5b505050506040513d601f19601f8201168201806040525081019061262b91906148e0565b90506126b161267561263c836134dc565b60408051808201909152600581527f342e362e300000000000000000000000000000000000000000000000000000006020820152610a3b565b6040518060400160405280600981526020017f504f5254414c2d3130000000000000000000000000000000000000000000000081525087613467565b600554909550612714906001600160a01b03166126ce8584613544565b6001600160a01b0316146040518060400160405280600981526020017f504f5254414c2d3230000000000000000000000000000000000000000000000081525087613467565b94506000846001600160a01b031663f2b4e6176040518163ffffffff1660e01b8152600401602060405180830381865afa158015612756573d6000803e3d6000fd5b505050506040513d601f19601f8201168201806040525081019061277a91906148e0565b9050612831816001600160a01b0316836001600160a01b031663f2b4e6176040518163ffffffff1660e01b8152600401602060405180830381865afa1580156127c7573d6000803e3d6000fd5b505050506040513d601f19601f820116820180604052508101906127eb91906148e0565b6001600160a01b0316146040518060400160405280600981526020017f504f5254414c2d3330000000000000000000000000000000000000000000000081525088613467565b95506128e8856001600160a01b0316836001600160a01b03166333d7e2bd6040518163ffffffff1660e01b8152600401602060405180830381865afa15801561287e573d6000803e3d6000fd5b505050506040513d601f19601f820116820180604052508101906128a291906148e0565b6001600160a01b0316146040518060400160405280600981526020017f504f5254414c2d3430000000000000000000000000000000000000000000000081525088613467565b95506129a161dead6001600160a01b0316836001600160a01b0316639bf62d826040518163ffffffff1660e01b8152600401602060405180830381865afa158015612937573d6000803e3d6000fd5b505050506040513d601f19601f8201168201806040525081019061295b91906148e0565b6001600160a01b0316146040518060400160405280600981526020017f504f5254414c2d3830000000000000000000000000000000000000000000000081525088613467565b955061084e846001600160a01b03166129b9846135cb565b6001600160a01b0316146040518060400160405280600981526020017f504f5254414c2d3930000000000000000000000000000000000000000000000081525088613467565b60606000612a0c836134b3565b90506000856001600160a01b031663f2b4e6176040518163ffffffff1660e01b8152600401602060405180830381865afa158015612a4e573d6000803e3d6000fd5b505050506040513d601f19601f82011682018060405250810190612a7291906148e0565b9050612af8612abc612a83836134dc565b60408051808201909152600581527f312e322e300000000000000000000000000000000000000000000000000000006020820152610a3b565b6040518060400160405280600581526020017f44462d313000000000000000000000000000000000000000000000000000000081525089613467565b600b54909750612b5b906001600160a01b0316612b158784613544565b6001600160a01b0316146040518060400160405280600581526020017f44462d323000000000000000000000000000000000000000000000000000000081525089613467565b9650612c12826001600160a01b0316826001600160a01b0316638da5cb5b6040518163ffffffff1660e01b8152600401602060405180830381865afa158015612ba8573d6000803e3d6000fd5b505050506040513d601f19601f82011682018060405250810190612bcc91906148e0565b6001600160a01b0316146040518060400160405280600581526020017f44462d333000000000000000000000000000000000000000000000000000000081525089613467565b9650612c70856001600160a01b0316612c2a836135cb565b6001600160a01b0316146040518060400160405280600581526020017f44462d343000000000000000000000000000000000000000000000000000000081525089613467565b979650505050505050565b60606000866001600160a01b031663f2b4e6176040518163ffffffff1660e01b8152600401602060405180830381865afa158015612cbd573d6000803e3d6000fd5b505050506040513d601f19601f82011682018060405250810190612ce191906148e0565b6040517f1b685b9e000000000000000000000000000000000000000000000000000000008152600160048201529091506000906001600160a01b03831690631b685b9e90602401602060405180830381865afa158015612d45573d6000803e3d6000fd5b505050506040513d601f19601f82011682018060405250810190612d6991906148e0565b90506001600160a01b038116612dc657612dba60006040518060400160405280600781526020017f504444472d3130000000000000000000000000000000000000000000000000008152508b613467565b9850889250505061084e565b612e0e898983858b8b8b60018c6040518060400160405280600481526020017f504444470000000000000000000000000000000000000000000000000000000081525061362f565b98506000612e1b85613de1565b9050612ed2816001600160a01b0316836001600160a01b031663534db0e26040518163ffffffff1660e01b8152600401602060405180830381865afa158015612e68573d6000803e3d6000fd5b505050506040513d601f19601f82011682018060405250810190612e8c91906148e0565b6001600160a01b0316146040518060400160405280600881526020017f504444472d3133300000000000000000000000000000000000000000000000008152508c613467565b9a9950505050505050505050565b60606000866001600160a01b031663f2b4e6176040518163ffffffff1660e01b8152600401602060405180830381865afa158015612f22573d6000803e3d6000fd5b505050506040513d601f19601f82011682018060405250810190612f4691906148e0565b6040517f1b685b9e0000000000000000000000000000000000000000000000000000000081526000600482018190529192506001600160a01b03831690631b685b9e90602401602060405180830381865afa158015612fa9573d6000803e3d6000fd5b505050506040513d601f19601f82011682018060405250810190612fcd91906148e0565b90506001600160a01b03811661301e57612dba60006040518060400160405280600781526020017f504c44472d3130000000000000000000000000000000000000000000000000008152508b613467565b613066898983858b8b8b60008c6040518060400160405280600481526020017f504c44470000000000000000000000000000000000000000000000000000000081525061362f565b9998505050505050505050565b60606000836001600160a01b0316630a49cb036040518163ffffffff1660e01b8152600401602060405180830381865afa1580156130b5573d6000803e3d6000fd5b505050506040513d601f19601f820116820180604052508101906130d991906148e0565b90506000816001600160a01b031663b682c4446040518163ffffffff1660e01b8152600401602060405180830381865afa15801561311b573d6000803e3d6000fd5b505050506040513d601f19601f8201168201806040525081019061313f91906148e0565b905061318c613150612a83836134dc565b6040518060400160405280600a81526020017f4c4f434b424f582d31300000000000000000000000000000000000000000000081525088613467565b6006549096506131ef906001600160a01b03166131a98684613544565b6001600160a01b0316146040518060400160405280600a81526020017f4c4f434b424f582d32300000000000000000000000000000000000000000000081525088613467565b955061324d846001600160a01b0316613207836135cb565b6001600160a01b0316146040518060400160405280600a81526020017f4c4f434b424f582d33300000000000000000000000000000000000000000000081525088613467565b9550613304856001600160a01b0316826001600160a01b03166333d7e2bd6040518163ffffffff1660e01b8152600401602060405180830381865afa15801561329a573d6000803e3d6000fd5b505050506040513d601f19601f820116820180604052508101906132be91906148e0565b6001600160a01b0316146040518060400160405280600a81526020017f4c4f434b424f582d34300000000000000000000000000000000000000000000081525088613467565b6040517f0fd110770000000000000000000000000000000000000000000000000000000081526001600160a01b03848116600483015291975061084e91831690630fd1107790602401602060405180830381865afa15801561336a573d6000803e3d6000fd5b505050506040513d601f19601f8201168201806040525081019061338e91906148c3565b6040518060400160405280600a81526020017f4c4f434b424f582d35300000000000000000000000000000000000000000000081525088613467565b805160609081906001600160a01b03161561340257806040516020016133f09190614a4a565b60405160208183030381529060405290505b60208301516001600160a01b0316156109225780511561343f578060405160200161342d9190614a8b565b60405160208183030381529060405290505b806040516020016134509190614acc565b604051602081830303815290604052905092915050565b60608315613476575080610678565b8151600003613487578291506134ac565b818360405160200161349a929190614800565b60405160208183030381529060405291505b5092915050565b80516000906001600160a01b0316156134cb57505190565b50506001546001600160a01b031690565b6060816001600160a01b03166354fd4d506040518163ffffffff1660e01b8152600401600060405180830381865afa15801561351c573d6000803e3d6000fd5b505050506040513d6000823e601f3d908101601f191682016040526109229190810190614b0d565b6040517f204e1c7a0000000000000000000000000000000000000000000000000000000081526001600160a01b0382811660048301526000919084169063204e1c7a90602401602060405180830381865afa1580156135a7573d6000803e3d6000fd5b505050506040513d601f19601f8201168201806040525081019061067891906148e0565b6000816001600160a01b0316633e47158c6040518163ffffffff1660e01b8152600401602060405180830381865afa15801561360b573d6000803e3d6000fd5b505050506040513d601f19601f8201168201806040525081019061092291906148e0565b60606000896001600160a01b0316635c0cba336040518163ffffffff1660e01b8152600401602060405180830381865afa158015613671573d6000803e3d6000fd5b505050506040513d601f19601f8201168201806040525081019061369591906148e0565b90506000816001600160a01b031663d83ef2676040518163ffffffff1660e01b81526004016040805180830381865afa1580156136d6573d6000803e3d6000fd5b505050506040513d601f19601f820116820180604052508101906136fa9190614baf565b50905061376b61374561370c8d6134dc565b60408051808201909152600581527f312e382e300000000000000000000000000000000000000000000000000000006020820152610a3b565b856040516020016137569190614bd3565b6040516020818303038152906040528f613467565b9c506137f18663ffffffff168c6001600160a01b031663bbdc02db6040518163ffffffff1660e01b8152600401602060405180830381865afa1580156137b5573d6000803e3d6000fd5b505050506040513d601f19601f820116820180604052508101906137d99190614a2d565b63ffffffff1614856040516020016137569190614c14565b9c5061386b898c6001600160a01b0316638d450a956040518163ffffffff1660e01b8152600401602060405180830381865afa158015613835573d6000803e3d6000fd5b505050506040513d601f19601f820116820180604052508101906138599190614930565b14856040516020016137569190614c55565b9c506138e5888c6001600160a01b031663d6ae3cd56040518163ffffffff1660e01b8152600401602060405180830381865afa1580156138af573d6000803e3d6000fd5b505050506040513d601f19601f820116820180604052508101906138d39190614930565b14856040516020016137569190614c96565b9c506139608b6001600160a01b03166399735e326040518163ffffffff1660e01b8152600401602060405180830381865afa158015613928573d6000803e3d6000fd5b505050506040513d601f19601f8201168201806040525081019061394c9190614930565b600014856040516020016137569190614cd7565b9c506139e68b6001600160a01b0316636b6716c06040518163ffffffff1660e01b8152600401602060405180830381865afa1580156139a3573d6000803e3d6000fd5b505050506040513d601f19601f820116820180604052508101906139c79190614913565b67ffffffffffffffff16612a3014856040516020016137569190614d18565b9c50613a618b6001600160a01b031663ec5e63086040518163ffffffff1660e01b8152600401602060405180830381865afa158015613a29573d6000803e3d6000fd5b505050506040513d601f19601f82011682018060405250810190613a4d9190614930565b601e14856040516020016137569190614d59565b9c50613adc8b6001600160a01b031663fa315aa96040518163ffffffff1660e01b8152600401602060405180830381865afa158015613aa4573d6000803e3d6000fd5b505050506040513d601f19601f82011682018060405250810190613ac89190614930565b604914856040516020016137569190614d9a565b9c50613b638b6001600160a01b031663dabd396d6040518163ffffffff1660e01b8152600401602060405180830381865afa158015613b1f573d6000803e3d6000fd5b505050506040513d601f19601f82011682018060405250810190613b439190614913565b67ffffffffffffffff1662049d4014856040516020016137569190614ddb565b9c50613b806000801b821415856040516020016137569190614e1c565b9c50613bf18d8d8d6001600160a01b0316633fc8cef36040518163ffffffff1660e01b8152600401602060405180830381865afa158015613bc5573d6000803e3d6000fd5b505050506040513d601f19601f82011682018060405250810190613be991906148e0565b8a8989613e10565b9c50613c018d8d8c858b896140cf565b9c50613c6f8d8c6001600160a01b0316633a7684636040518163ffffffff1660e01b8152600401602060405180830381865afa158015613c45573d6000803e3d6000fd5b505050506040513d601f19601f82011682018060405250810190613c6991906148e0565b86614328565b9c50600e60009054906101000a90046001600160a01b03166001600160a01b03168b6001600160a01b0316633a7684636040518163ffffffff1660e01b8152600401602060405180830381865afa158015613cce573d6000803e3d6000fd5b505050506040513d601f19601f82011682018060405250810190613cf291906148e0565b6001600160a01b031603613dd057613dcd8d8c6001600160a01b0316633a7684636040518163ffffffff1660e01b8152600401602060405180830381865afa158015613d42573d6000803e3d6000fd5b505050506040513d601f19601f82011682018060405250810190613d6691906148e0565b6001600160a01b0316637dc0d1d06040518163ffffffff1660e01b8152600401602060405180830381865afa158015613da3573d6000803e3d6000fd5b505050506040513d601f19601f82011682018060405250810190613dc791906148e0565b86614469565b9c505b509a9b9a5050505050505050505050565b60208101516000906001600160a01b031615613dff57506020015190565b50506002546001600160a01b031690565b606081604051602001613e239190614e5d565b6040516020818303038152906040529150613ea2613e7c613e43876134dc565b60408051808201909152600581527f312e352e300000000000000000000000000000000000000000000000000000006020820152610a3b565b83604051602001613e8d9190614e9e565b60405160208183030381529060405289613467565b600d54909750613eda906001600160a01b0316613ebf8688613544565b6001600160a01b03161483604051602001613e8d9190614bd3565b96506000613ee7846134b3565b9050613f88816001600160a01b0316876001600160a01b031663dad544e06040518163ffffffff1660e01b8152600401602060405180830381865afa158015613f34573d6000803e3d6000fd5b505050506040513d601f19601f82011682018060405250810190613f5891906148e0565b6001600160a01b03161484604051602001613f739190614c14565b6040516020818303038152906040528a613467565b9750614004600354876001600160a01b0316636a42b8f86040518163ffffffff1660e01b8152600401602060405180830381865afa158015613fce573d6000803e3d6000fd5b505050506040513d601f19601f82011682018060405250810190613ff29190614930565b1484604051602001613f739190614c55565b9750614090876001600160a01b0316876001600160a01b03166333d7e2bd6040518163ffffffff1660e01b8152600401602060405180830381865afa158015614051573d6000803e3d6000fd5b505050506040513d601f19601f8201168201806040525081019061407591906148e0565b6001600160a01b03161484604051602001613f739190614edf565b97506140c3856001600160a01b03166140a8886135cb565b6001600160a01b03161484604051602001613f739190614c96565b98975050505050505050565b6060816040516020016140e29190614f20565b604051602081830303815290604052915061413b613e7c614102866134dc565b60408051808201909152600581527f332e352e300000000000000000000000000000000000000000000000000000006020820152610a3b565b600c54909750614158906001600160a01b0316613ebf8587613544565b96506141e4856001600160a01b0316856001600160a01b031663f2b4e6176040518163ffffffff1660e01b8152600401602060405180830381865afa1580156141a5573d6000803e3d6000fd5b505050506040513d601f19601f820116820180604052508101906141c991906148e0565b6001600160a01b03161483604051602001613e8d9190614c14565b9650614270866001600160a01b0316856001600160a01b03166333d7e2bd6040518163ffffffff1660e01b8152600401602060405180830381865afa158015614231573d6000803e3d6000fd5b505050506040513d601f19601f8201168201806040525081019061425591906148e0565b6001600160a01b03161483604051602001613e8d9190614c55565b96506142a3836001600160a01b0316614288866135cb565b6001600160a01b03161483604051602001613e8d9190614edf565b9650612c706000856001600160a01b0316634086d1836040518163ffffffff1660e01b8152600401602060405180830381865afa1580156142e8573d6000803e3d6000fd5b505050506040513d601f19601f8201168201806040525081019061430c9190614913565b67ffffffffffffffff161183604051602001613e8d9190614c96565b60608160405160200161433b9190614f61565b60408051601f1981840301815290829052600e5490935061438b916001600160a01b0386811692169190911490614376908590602001614e9e565b60405160208183030381529060405286613467565b93506143e66143d561439c856134dc565b60408051808201909152600581527f312e392e300000000000000000000000000000000000000000000000000000006020820152610a3b565b836040516020016143769190614bd3565b9350614461836001600160a01b0316631219a4e46040518163ffffffff1660e01b8152600401602060405180830381865afa158015614429573d6000803e3d6000fd5b505050506040513d601f19601f8201168201806040525081019061444d9190614930565b600814836040516020016143769190614c14565b949350505050565b60608160405160200161447c9190614fa2565b60405160208183030381529060405291506144e66144d561449c856134dc565b60408051808201909152600581527f312e312e340000000000000000000000000000000000000000000000000000006020820152610a3b565b836040516020016143769190614e9e565b9350614563836001600160a01b031663f3f480d96040518163ffffffff1660e01b8152600401602060405180830381865afa158015614529573d6000803e3d6000fd5b505050506040513d601f19601f8201168201806040525081019061454d9190614930565b6201518014836040516020016143769190614bd3565b9350614461836001600160a01b031663dd24f9bf6040518163ffffffff1660e01b8152600401602060405180830381865afa1580156145a6573d6000803e3d6000fd5b505050506040513d601f19601f820116820180604052508101906145ca9190614930565b6201ec3014836040516020016143769190614c14565b60005b838110156145fb5781810151838201526020016145e3565b8381111561460a576000848401525b50505050565b602081526000825180602084015261462f8160408501602087016145e0565b601f01601f19169190910160400192915050565b7f4e487b7100000000000000000000000000000000000000000000000000000000600052604160045260246000fd5b6001600160a01b038116811461468757600080fd5b50565b60006080828403121561469c57600080fd5b6040516080810181811067ffffffffffffffff821117156146bf576146bf614643565b60405290508082356146d081614672565b815260208301356146e081614672565b8060208301525060408301356040820152606083013560608201525092915050565b801515811461468757600080fd5b60008060a0838503121561472357600080fd5b61472d848461468a565b9150608083013561473d81614702565b809150509250929050565b600080600083850360e081121561475e57600080fd5b614768868661468a565b9350608085013561477881614702565b925060407fffffffffffffffffffffffffffffffffffffffffffffffffffffffffffffff60820112156147aa57600080fd5b506040516040810181811067ffffffffffffffff821117156147ce576147ce614643565b60405260a08501356147df81614672565b815260c08501356147ef81614672565b602082015292959194509192509050565b600083516148128184602088016145e0565b7f2c00000000000000000000000000000000000000000000000000000000000000908301908152835161484c8160018401602088016145e0565b01600101949350505050565b7f4f50436f6e7472616374734d616e616765725374616e6461726456616c69646181527f746f723a200000000000000000000000000000000000000000000000000000006020820152600082516148b68160258501602087016145e0565b9190910160250192915050565b6000602082840312156148d557600080fd5b815161067881614702565b6000602082840312156148f257600080fd5b815161067881614672565b67ffffffffffffffff8116811461468757600080fd5b60006020828403121561492557600080fd5b8151610678816148fd565b60006020828403121561494257600080fd5b5051919050565b63ffffffff8116811461468757600080fd5b805160ff8116811461496c57600080fd5b919050565b600060c0828403121561498357600080fd5b60405160c0810181811067ffffffffffffffff821117156149a6576149a6614643565b60405282516149b481614949565b81526149c26020840161495b565b60208201526149d36040840161495b565b604082015260608301516149e681614949565b606082015260808301516149f981614949565b608082015260a08301516fffffffffffffffffffffffffffffffff81168114614a2157600080fd5b60a08201529392505050565b600060208284031215614a3f57600080fd5b815161067881614949565b60008251614a5c8184602087016145e0565b7f4f56455252494445532d4c3150414f4d554c5449534947000000000000000000920191825250601701919050565b60008251614a9d8184602087016145e0565b7f2c00000000000000000000000000000000000000000000000000000000000000920191825250600101919050565b60008251614ade8184602087016145e0565b7f4f56455252494445532d4348414c4c454e474552000000000000000000000000920191825250601401919050565b600060208284031215614b1f57600080fd5b815167ffffffffffffffff80821115614b3757600080fd5b818401915084601f830112614b4b57600080fd5b815181811115614b5d57614b5d614643565b604051601f8201601f19908116603f01168101908382118183101715614b8557614b85614643565b81604052828152876020848701011115614b9e57600080fd5b612c708360208301602088016145e0565b60008060408385031215614bc257600080fd5b505080516020909101519092909150565b60008251614be58184602087016145e0565b7f2d32300000000000000000000000000000000000000000000000000000000000920191825250600301919050565b60008251614c268184602087016145e0565b7f2d33300000000000000000000000000000000000000000000000000000000000920191825250600301919050565b60008251614c678184602087016145e0565b7f2d34300000000000000000000000000000000000000000000000000000000000920191825250600301919050565b60008251614ca88184602087016145e0565b7f2d36300000000000000000000000000000000000000000000000000000000000920191825250600301919050565b60008251614ce98184602087016145e0565b7f2d37300000000000000000000000000000000000000000000000000000000000920191825250600301919050565b60008251614d2a8184602087016145e0565b7f2d38300000000000000000000000000000000000000000000000000000000000920191825250600301919050565b60008251614d6b8184602087016145e0565b7f2d39300000000000000000000000000000000000000000000000000000000000920191825250600301919050565b60008251614dac8184602087016145e0565b7f2d31303000000000000000000000000000000000000000000000000000000000920191825250600401919050565b60008251614ded8184602087016145e0565b7f2d31313000000000000000000000000000000000000000000000000000000000920191825250600401919050565b60008251614e2e8184602087016145e0565b7f2d31323000000000000000000000000000000000000000000000000000000000920191825250600401919050565b60008251614e6f8184602087016145e0565b7f2d44574554480000000000000000000000000000000000000000000000000000920191825250600601919050565b60008251614eb08184602087016145e0565b7f2d31300000000000000000000000000000000000000000000000000000000000920191825250600301919050565b60008251614ef18184602087016145e0565b7f2d35300000000000000000000000000000000000000000000000000000000000920191825250600301919050565b60008251614f328184602087016145e0565b7f2d414e43484f5250000000000000000000000000000000000000000000000000920191825250600801919050565b60008251614f738184602087016145e0565b7f2d564d0000000000000000000000000000000000000000000000000000000000920191825250600301919050565b60008251614fb48184602087016145e0565b7f2d50494d474f000000000000000000000000000000000000000000000000000092019182525060060191905056fea164736f6c634300080f000a","linkReferences":{}},"methodIdentifiers":{"anchorStateRegistryImpl()":"2aecd35c","anchorStateRegistryVersion()":"50c5a541","challenger()":"534db0e2","delayedWETHImpl()":"74459cf3","delayedWETHVersion()":"7648ffea","disputeGameFactoryImpl()":"bb98b3f4","disputeGameFactoryVersion()":"84a98f4c","ethLockboxImpl()":"7b491a98","ethLockboxVersion()":"ed7636ad","l1CrossDomainMessengerImpl()":"58256afb","l1CrossDomainMessengerVersion()":"0bcab66f","l1ERC721BridgeImpl()":"7d8bd0d8","l1ERC721BridgeVersion()":"a4d8c1fd","l1PAOMultisig()":"a4dec37a","l1StandardBridgeImpl()":"c34e047a","l1StandardBridgeVersion()":"ceb02519","mipsImpl()":"e303272c","mipsVersion()":"4772166c","optimismMintableERC20FactoryImpl()":"e3fef4a8","optimismMintableERC20FactoryVersion()":"95f194c6","optimismPortalImpl()":"a38d5595","optimismPortalVersion()":"3a69fed8","permissionedDisputeGameVersion()":"a1480306","preimageOracleVersion()":"ad7e7e40","superchainConfig()":"35e80ab3","systemConfigImpl()":"bc3f6fd4","systemConfigVersion()":"52b6357d","validate((address,address,bytes32,uint256),bool)":"30d14888","validateWithOverrides((address,address,bytes32,uint256),bool,(address,address))":"67cda69c","version()":"54fd4d50","withdrawalDelaySeconds()":"71839418"},"storageLayout":{"storage":[{"astId":85821,"contract":"src/L1/OPContractsManagerStandardValidator.sol:OPContractsManagerStandardValidator","label":"superchainConfig","offset":0,"slot":"0","type":"t_contract(ISuperchainConfig)2574"},{"astId":85824,"contract":"src/L1/OPContractsManagerStandardValidator.sol:OPContractsManagerStandardValidator","label":"l1PAOMultisig","offset":0,"slot":"1","type":"t_address"},{"astId":85827,"contract":"src/L1/OPContractsManagerStandardValidator.sol:OPContractsManagerStandardValidator","label":"challenger","offset":0,"slot":"2","type":"t_address"},{"astId":85830,"contract":"src/L1/OPContractsManagerStandardValidator.sol:OPContractsManagerStandardValidator","label":"withdrawalDelaySeconds","offset":0,"slot":"3","type":"t_uint256"},{"astId":85833,"contract":"src/L1/OPContractsManagerStandardValidator.sol:OPContractsManagerStandardValidator","label":"l1ERC721BridgeImpl","offset":0,"slot":"4","type":"t_address"},{"astId":85836,"contract":"src/L1/OPContractsManagerStandardValidator.sol:OPContractsManagerStandardValidator","label":"optimismPortalImpl","offset":0,"slot":"5","type":"t_address"},{"astId":85839,"contract":"src/L1/OPContractsManagerStandardValidator.sol:OPContractsManagerStandardValidator","label":"ethLockboxImpl","offset":0,"slot":"6","type":"t_address"},{"astId":85842,"contract":"src/L1/OPContractsManagerStandardValidator.sol:OPContractsManagerStandardValidator","label":"systemConfigImpl","offset":0,"slot":"7","type":"t_address"},{"astId":85845,"contract":"src/L1/OPContractsManagerStandardValidator.sol:OPContractsManagerStandardValidator","label":"optimismMintableERC20FactoryImpl","offset":0,"slot":"8","type":"t_address"},{"astId":85848,"contract":"src/L1/OPContractsManagerStandardValidator.sol:OPContractsManagerStandardValidator","label":"l1CrossDomainMessengerImpl","offset":0,"slot":"9","type":"t_address"},{"astId":85851,"contract":"src/L1/OPContractsManagerStandardValidator.sol:OPContractsManagerStandardValidator","label":"l1StandardBridgeImpl","offset":0,"slot":"10","type":"t_address"},{"astId":85854,"contract":"src/L1/OPContractsManagerStandardValidator.sol:OPContractsManagerStandardValidator","label":"disputeGameFactoryImpl","offset":0,"slot":"11","type":"t_address"},{"astId":85857,"contract":"src/L1/OPContractsManagerStandardValidator.sol:OPContractsManagerStandardValidator","label":"anchorStateRegistryImpl","offset":0,"slot":"12","type":"t_address"},{"astId":85860,"contract":"src/L1/OPContractsManagerStandardValidator.sol:OPContractsManagerStandardValidator","label":"delayedWETHImpl","offset":0,"slot":"13","type":"t_address"},{"astId":85863,"contract":"src/L1/OPContractsManagerStandardValidator.sol:OPContractsManagerStandardValidator","label":"mipsImpl","offset":0,"slot":"14","type":"t_address"}],"types":{"t_address":{"encoding":"inplace","label":"address","numberOfBytes":"20"},"t_contract(ISuperchainConfig)2574":{"encoding":"inplace","label":"contract ISuperchainConfig","numberOfBytes":"20"},"t_uint256":{"encoding":"inplace","label":"uint256","numberOfBytes":"32"}}},"userdoc":{"version":1,"kind":"user","methods":{"anchorStateRegistryImpl()":{"notice":"The AnchorStateRegistry implementation address."},"anchorStateRegistryVersion()":{"notice":"Returns the expected AnchorStateRegistry version."},"challenger()":{"notice":"The challenger address for permissioned dispute games."},"constructor":{"notice":"Constructor for the OPContractsManagerStandardValidator contract."},"delayedWETHImpl()":{"notice":"The DelayedWETH implementation address."},"delayedWETHVersion()":{"notice":"Returns the expected DelayedWETH version."},"disputeGameFactoryImpl()":{"notice":"The DisputeGameFactory implementation address."},"disputeGameFactoryVersion()":{"notice":"Returns the expected DisputeGameFactory version."},"ethLockboxImpl()":{"notice":"The ETHLockbox implementation address."},"ethLockboxVersion()":{"notice":"Returns the expected ETHLockbox version."},"l1CrossDomainMessengerImpl()":{"notice":"The L1CrossDomainMessenger implementation address."},"l1CrossDomainMessengerVersion()":{"notice":"Returns the expected L1CrossDomainMessenger version."},"l1ERC721BridgeImpl()":{"notice":"The L1ERC721Bridge implementation address."},"l1ERC721BridgeVersion()":{"notice":"Returns the expected L1ERC721Bridge version."},"l1PAOMultisig()":{"notice":"The L1 PAO multisig address."},"l1StandardBridgeImpl()":{"notice":"The L1StandardBridge implementation address."},"l1StandardBridgeVersion()":{"notice":"Returns the expected L1StandardBridge version."},"mipsImpl()":{"notice":"The MIPS implementation address."},"mipsVersion()":{"notice":"Returns the expected MIPS version."},"optimismMintableERC20FactoryImpl()":{"notice":"The OptimismMintableERC20Factory implementation address."},"optimismMintableERC20FactoryVersion()":{"notice":"Returns the expected OptimismMintableERC20Factory version."},"optimismPortalImpl()":{"notice":"The OptimismPortal implementation address."},"optimismPortalVersion()":{"notice":"Returns the expected OptimismPortal version."},"permissionedDisputeGameVersion()":{"notice":"Returns the expected PermissionedDisputeGame version."},"preimageOracleVersion()":{"notice":"Returns the expected PreimageOracle version."},"superchainConfig()":{"notice":"The SuperchainConfig contract."},"systemConfigImpl()":{"notice":"The SystemConfig implementation address."},"systemConfigVersion()":{"notice":"Returns the expected SystemConfig version."},"validate((address,address,bytes32,uint256),bool)":{"notice":"Validates the configuration of the L1 contracts."},"validateWithOverrides((address,address,bytes32,uint256),bool,(address,address))":{"notice":"Validates the configuration of the L1 contracts. Supports overrides of certain storage values denoted in the ValidationOverrides struct."},"version()":{"notice":"The semantic version of the OPContractsManagerStandardValidator contract."},"withdrawalDelaySeconds()":{"notice":"The withdrawal delay in seconds for the DelayedWETH contract."}},"notice":"This contract is used to validate the configuration of the L1 contracts of an OP Stack chain. It is a stateless contract that can be used to ensure that the L1 contracts are configured correctly. It is intended to be used by the L1 PAO multisig to validate the configuration of the L1 contracts before and after an upgrade."},"devdoc":{"version":1,"kind":"dev","title":"OPContractsManagerStandardValidator"},"id":136}