{"abi":[{"type":"function","name":"getUnresolvedGames","inputs":[{"name":"_factory","type":"address","internalType":"contract IDisputeGameFactory"},{"name":"_creationRangeStart","type":"uint256","internalType":"uint256"},{"name":"_creationRangeEnd","type":"uint256","internalType":"uint256"}],"outputs":[{"name":"unresolvedGames_","type":"address[]","internalType":"contract IDisputeGame[]"}],"stateMutability":"view"},{"type":"function","name":"isGameRegistered","inputs":[{"name":"_factory","type":"address","internalType":"contract IDisputeGameFactory"},{"name":"_game","type":"address","internalType":"contract IDisputeGame"}],"outputs":[{"name":"isValid_","type":"bool","internalType":"bool"}],"stateMutability":"view"},{"type":"function","name":"search","inputs":[{"name":"_factory","type":"address","internalType":"contract IDisputeGameFactory"},{"name":"_targetTimestamp","type":"uint256","internalType":"uint256"},{"name":"_direction","type":"uint8","internalType":"enum DisputeMonitorHelper.SearchDirection"}],"outputs":[{"name":"index_","type":"uint256","internalType":"uint256"}],"stateMutability":"view"},{"type":"function","name":"toRpcHexString","inputs":[{"name":"_value","type":"uint256","internalType":"uint256"}],"outputs":[{"name":"hexString_","type":"string","internalType":"string"}],"stateMutability":"pure"},{"type":"error","name":"DisputeMonitorHelper_InvalidSearchRange","inputs":[]}],"bytecode":{"object":"0x608060405234801561001057600080fd5b50610dd6806100206000396000f3fe608060405234801561001057600080fd5b506004361061004c5760003560e01c80633e7d773314610051578063c376d31f1461007a578063cb4e6ab11461009d578063cf8d0f75146100be575b600080fd5b61006461005f3660046108a7565b6100de565b604051610071919061093a565b60405180910390f35b61008d610088366004610972565b6100ef565b6040519015158152602001610071565b6100b06100ab3660046109ab565b610234565b604051908152602001610071565b6100d16100cc3660046109f1565b610482565b6040516100719190610a26565b60606100e9826107ef565b92915050565b6000806000808473ffffffffffffffffffffffffffffffffffffffff1663fa24f7436040518163ffffffff1660e01b8152600401600060405180830381865afa158015610140573d6000803e3d6000fd5b505050506040513d6000823e601f3d9081017fffffffffffffffffffffffffffffffffffffffffffffffffffffffffffffffe01682016040526101869190810190610ac8565b92509250925060008673ffffffffffffffffffffffffffffffffffffffff16635f0150cb8585856040518463ffffffff1660e01b81526004016101cb93929190610baf565b6040805180830381865afa1580156101e7573d6000803e3d6000fd5b505050506040513d601f19601f8201168201806040525081019061020b9190610bf5565b5073ffffffffffffffffffffffffffffffffffffffff9081169616959095149695505050505050565b6000808473ffffffffffffffffffffffffffffffffffffffff16634d1975b46040518163ffffffff1660e01b8152600401602060405180830381865afa158015610282573d6000803e3d6000fd5b505050506040513d601f19601f820116820180604052508101906102a69190610c2a565b9050806000036102d9577fffffffffffffffffffffffffffffffffffffffffffffffffffffffffffffffff91505061047b565b6000806102e7600184610c72565b90507fffffffffffffffffffffffffffffffffffffffffffffffffffffffffffffffff93505b80821161047757600060026103228484610c72565b61032c9190610c89565b6103369084610cc4565b6040517fbb8aa1fc0000000000000000000000000000000000000000000000000000000081526004810182905290915060009073ffffffffffffffffffffffffffffffffffffffff8a169063bb8aa1fc90602401606060405180830381865afa1580156103a7573d6000803e3d6000fd5b505050506040513d601f19601f820116820180604052508101906103cb9190610cdc565b5091505060006103e28267ffffffffffffffff1690565b67ffffffffffffffff169050600088600181111561040257610402610d18565b03610447578881116104255782965082600161041e9190610cc4565b945061046f565b8260000361043557505050610477565b610440600184610c72565b935061046f565b888110610461578296508260000361043557505050610477565b61046c836001610cc4565b94505b50505061030d565b5050505b9392505050565b6060828210156104be576040517fb22d5a5c00000000000000000000000000000000000000000000000000000000815260040160405180910390fd5b8373ffffffffffffffffffffffffffffffffffffffff16634d1975b46040518163ffffffff1660e01b8152600401602060405180830381865afa158015610509573d6000803e3d6000fd5b505050506040513d601f19601f8201168201806040525081019061052d9190610c2a565b600003610549575060408051600081526020810190915261047b565b600061055785856001610234565b9050600061056786856000610234565b90507fffffffffffffffffffffffffffffffffffffffffffffffffffffffffffffffff8214806105b657507fffffffffffffffffffffffffffffffffffffffffffffffffffffffffffffffff81145b156105f15760005b6040519080825280602002602001820160405280156105e7578160200160208202803683370190505b509250505061047b565b818110156106005760006105be565b61060a8282610c72565b610615906001610cc4565b67ffffffffffffffff81111561062d5761062d610a99565b604051908082528060200260200182016040528015610656578160200160208202803683370190505b5092506000825b8281116107e3576040517fbb8aa1fc0000000000000000000000000000000000000000000000000000000081526004810182905260009073ffffffffffffffffffffffffffffffffffffffff8a169063bb8aa1fc90602401606060405180830381865afa1580156106d2573d6000803e3d6000fd5b505050506040513d601f19601f820116820180604052508101906106f69190610cdc565b925050506107798173ffffffffffffffffffffffffffffffffffffffff166319effeb46040518163ffffffff1660e01b8152600401602060405180830381865afa158015610748573d6000803e3d6000fd5b505050506040513d601f19601f8201168201806040525081019061076c9190610d47565b67ffffffffffffffff1690565b67ffffffffffffffff166000036107d0578086848151811061079d5761079d610d62565b73ffffffffffffffffffffffffffffffffffffffff90921660209283029190910190910152826107cc81610d91565b9350505b50806107db81610d91565b91505061065d565b50835250509392505050565b60606107fa82610827565b90506030602082015160001a14600282510161307882840152600282840103925081810383525050919050565b606060806040510190506020810160405260008152806f30313233343536373839616263646566600f52600119835b600f811651938201936001850153600f8160041c1651845360081c806108565750508190037fffffffffffffffffffffffffffffffffffffffffffffffffffffffffffffffe0909101908152919050565b6000602082840312156108b957600080fd5b5035919050565b60005b838110156108db5781810151838201526020016108c3565b838111156108ea576000848401525b50505050565b600081518084526109088160208601602086016108c0565b601f017fffffffffffffffffffffffffffffffffffffffffffffffffffffffffffffffe0169290920160200192915050565b60208152600061047b60208301846108f0565b73ffffffffffffffffffffffffffffffffffffffff8116811461096f57600080fd5b50565b6000806040838503121561098557600080fd5b82356109908161094d565b915060208301356109a08161094d565b809150509250929050565b6000806000606084860312156109c057600080fd5b83356109cb8161094d565b9250602084013591506040840135600281106109e657600080fd5b809150509250925092565b600080600060608486031215610a0657600080fd5b8335610a118161094d565b95602085013595506040909401359392505050565b6020808252825182820181905260009190848201906040850190845b81811015610a7457835173ffffffffffffffffffffffffffffffffffffffff1683529284019291840191600101610a42565b50909695505050505050565b805163ffffffff81168114610a9457600080fd5b919050565b7f4e487b7100000000000000000000000000000000000000000000000000000000600052604160045260246000fd5b600080600060608486031215610add57600080fd5b610ae684610a80565b925060208401519150604084015167ffffffffffffffff80821115610b0a57600080fd5b818601915086601f830112610b1e57600080fd5b815181811115610b3057610b30610a99565b604051601f82017fffffffffffffffffffffffffffffffffffffffffffffffffffffffffffffffe0908116603f01168101908382118183101715610b7657610b76610a99565b81604052828152896020848701011115610b8f57600080fd5b610ba08360208301602088016108c0565b80955050505050509250925092565b63ffffffff84168152826020820152606060408201526000610bd460608301846108f0565b95945050505050565b805167ffffffffffffffff81168114610a9457600080fd5b60008060408385031215610c0857600080fd5b8251610c138161094d565b9150610c2160208401610bdd565b90509250929050565b600060208284031215610c3c57600080fd5b5051919050565b7f4e487b7100000000000000000000000000000000000000000000000000000000600052601160045260246000fd5b600082821015610c8457610c84610c43565b500390565b600082610cbf577f4e487b7100000000000000000000000000000000000000000000000000000000600052601260045260246000fd5b500490565b60008219821115610cd757610cd7610c43565b500190565b600080600060608486031215610cf157600080fd5b610cfa84610a80565b9250610d0860208501610bdd565b915060408401516109e68161094d565b7f4e487b7100000000000000000000000000000000000000000000000000000000600052602160045260246000fd5b600060208284031215610d5957600080fd5b61047b82610bdd565b7f4e487b7100000000000000000000000000000000000000000000000000000000600052603260045260246000fd5b60007fffffffffffffffffffffffffffffffffffffffffffffffffffffffffffffffff8203610dc257610dc2610c43565b506001019056fea164736f6c634300080f000a","linkReferences":{}},"methodIdentifiers":{"getUnresolvedGames(address,uint256,uint256)":"cf8d0f75","isGameRegistered(address,address)":"c376d31f","search(address,uint256,uint8)":"cb4e6ab1","toRpcHexString(uint256)":"3e7d7733"},"storageLayout":{"storage":[],"types":{}},"userdoc":{"version":1,"kind":"user","methods":{"getUnresolvedGames(address,uint256,uint256)":{"notice":"Finds all unresolved games in a given time range."},"isGameRegistered(address,address)":{"notice":"Checks if a game was created by the provided factory."},"search(address,uint256,uint8)":{"notice":"Searches for a game by timestamp, returning the index of the game that best matches the         given search direction."},"toRpcHexString(uint256)":{"notice":"Converts a uint256 to an RPC hex string."}},"errors":{"DisputeMonitorHelper_InvalidSearchRange()":[{"notice":"Thrown when the end index is less than the start index."}]},"notice":"Peripheral contract that can help to monitor dispute games. Supplements offchain tools         by simplifying certain queries about dispute games."},"devdoc":{"version":1,"kind":"dev","methods":{"getUnresolvedGames(address,uint256,uint256)":{"params":{"_creationRangeEnd":"End of the range of game creation timestamps.","_creationRangeStart":"Start of the range of game creation timestamps.","_factory":"The factory of the dispute games."},"returns":{"unresolvedGames_":"The array of unresolved games."}},"isGameRegistered(address,address)":{"params":{"_factory":"The factory of the dispute games.","_game":"The game to check."},"returns":{"isValid_":"True if the game was created by the factory, false otherwise."}},"search(address,uint256,uint8)":{"params":{"_direction":"The direction to search in (older or newer).","_factory":"The factory of the dispute games.","_targetTimestamp":"The timestamp to search for."},"returns":{"index_":"         The index of the matching game, if it exists."}},"toRpcHexString(uint256)":{"params":{"_value":"The value to convert."},"returns":{"hexString_":"The hex string."}}},"title":"DisputeMonitorHelper"},"id":313}