{"abi":[{"type":"constructor","inputs":[{"name":"_safe","type":"address","internalType":"contract GnosisSafe"}],"stateMutability":"nonpayable"},{"type":"function","name":"checkAfterExecution","inputs":[{"name":"","type":"bytes32","internalType":"bytes32"},{"name":"","type":"bool","internalType":"bool"}],"outputs":[],"stateMutability":"nonpayable"},{"type":"function","name":"checkTransaction","inputs":[{"name":"_to","type":"address","internalType":"address"},{"name":"_value","type":"uint256","internalType":"uint256"},{"name":"_data","type":"bytes","internalType":"bytes"},{"name":"_operation","type":"uint8","internalType":"enum Enum.Operation"},{"name":"_safeTxGas","type":"uint256","internalType":"uint256"},{"name":"_baseGas","type":"uint256","internalType":"uint256"},{"name":"_gasPrice","type":"uint256","internalType":"uint256"},{"name":"_gasToken","type":"address","internalType":"address"},{"name":"_refundReceiver","type":"address","internalType":"address payable"},{"name":"_signatures","type":"bytes","internalType":"bytes"},{"name":"_msgSender","type":"address","internalType":"address"}],"outputs":[],"stateMutability":"nonpayable"},{"type":"function","name":"lastLive","inputs":[{"name":"","type":"address","internalType":"address"}],"outputs":[{"name":"","type":"uint256","internalType":"uint256"}],"stateMutability":"view"},{"type":"function","name":"safe","inputs":[],"outputs":[{"name":"safe_","type":"address","internalType":"contract GnosisSafe"}],"stateMutability":"view"},{"type":"function","name":"showLiveness","inputs":[],"outputs":[],"stateMutability":"nonpayable"},{"type":"function","name":"version","inputs":[],"outputs":[{"name":"","type":"string","internalType":"string"}],"stateMutability":"view"},{"type":"event","name":"OwnerRecorded","inputs":[{"name":"owner","type":"address","indexed":false,"internalType":"address"}],"anonymous":false}],"bytecode":{"object":"0x60a06040523480156200001157600080fd5b506040516200167138038062001671833981016040819052620000349162000170565b806001600160a01b03166080816001600160a01b0316815250506000816001600160a01b031663a0e67e2b6040518163ffffffff1660e01b8152600401600060405180830381865afa1580156200008f573d6000803e3d6000fd5b505050506040513d6000823e601f3d908101601f19168201604052620000b99190810190620001bf565b905060005b81518110156200014e576000828281518110620000df57620000df62000291565b6020908102919091018101516001600160a01b0381166000818152808452604090819020429055519081529092507f833bc129023866d52116d61e94b791eb8be46f05709362e0bcf1fe7c1a8c225c910160405180910390a150806200014581620002a7565b915050620000be565b505050620002cf565b6001600160a01b03811681146200016d57600080fd5b50565b6000602082840312156200018357600080fd5b8151620001908162000157565b9392505050565b634e487b7160e01b600052604160045260246000fd5b8051620001ba8162000157565b919050565b60006020808385031215620001d357600080fd5b82516001600160401b0380821115620001eb57600080fd5b818501915085601f8301126200020057600080fd5b81518181111562000215576200021562000197565b8060051b604051601f19603f830116810181811085821117156200023d576200023d62000197565b6040529182528482019250838101850191888311156200025c57600080fd5b938501935b8285101562000285576200027585620001ad565b8452938501939285019262000261565b98975050505050505050565b634e487b7160e01b600052603260045260246000fd5b600060018201620002c857634e487b7160e01b600052601160045260246000fd5b5060010190565b6080516113566200031b60003960008181609101528181610195015281816102f8015281816103fa0152818161044101528181610544015281816106e601526108be01526113566000f3fe608060405234801561001057600080fd5b50600436106100725760003560e01c806375f0bb521161005057806375f0bb52146101135780639327136814610126578063e458779b1461013957600080fd5b8063186f0354146100775780634c205d0d146100c057806354fd4d50146100ca575b600080fd5b60405173ffffffffffffffffffffffffffffffffffffffff7f00000000000000000000000000000000000000000000000000000000000000001681526020015b60405180910390f35b6100c8610167565b005b6101066040518060400160405280600c81526020017f312e302e312d626574612e34000000000000000000000000000000000000000081525081565b6040516100b79190610df4565b6100c8610121366004610f57565b6102ec565b6100c861013436600461104a565b6106da565b61015961014736600461107a565b60006020819052908152604090205481565b6040519081526020016100b7565b6040517f2f54bf6e0000000000000000000000000000000000000000000000000000000081523360048201527f000000000000000000000000000000000000000000000000000000000000000073ffffffffffffffffffffffffffffffffffffffff1690632f54bf6e90602401602060405180830381865afa1580156101f1573d6000803e3d6000fd5b505050506040513d601f19601f820116820180604052508101906102159190611097565b6102a6576040517f08c379a000000000000000000000000000000000000000000000000000000000815260206004820152603860248201527f4c6976656e65737347756172643a206f6e6c792053616665206f776e6572732060448201527f6d61792064656d6f6e737472617465206c6976656e657373000000000000000060648201526084015b60405180910390fd5b336000818152602081815260409182902042905590519182527f833bc129023866d52116d61e94b791eb8be46f05709362e0bcf1fe7c1a8c225c910160405180910390a1565b6102f46108a6565b60007f000000000000000000000000000000000000000000000000000000000000000073ffffffffffffffffffffffffffffffffffffffff1663a0e67e2b6040518163ffffffff1660e01b8152600401600060405180830381865afa158015610361573d6000803e3d6000fd5b505050506040513d6000823e601f3d9081017fffffffffffffffffffffffffffffffffffffffffffffffffffffffffffffffe01682016040526103a791908101906110b4565b905060005b81518110156103f5576103e28282815181106103ca576103ca611166565b6020026020010151600161096d90919063ffffffff16565b50806103ed816111c4565b9150506103ac565b5060007f000000000000000000000000000000000000000000000000000000000000000073ffffffffffffffffffffffffffffffffffffffff1663d8d11f788e8e8e8e8e8e8e8e8e60017f000000000000000000000000000000000000000000000000000000000000000073ffffffffffffffffffffffffffffffffffffffff1663affed0e06040518163ffffffff1660e01b8152600401602060405180830381865afa1580156104aa573d6000803e3d6000fd5b505050506040513d601f19601f820116820180604052508101906104ce91906111fc565b6104d89190611215565b6040518b63ffffffff1660e01b81526004016104fd9a9998979695949392919061122c565b602060405180830381865afa15801561051a573d6000803e3d6000fd5b505050506040513d601f19601f8201168201806040525081019061053e91906111fc565b905060007f000000000000000000000000000000000000000000000000000000000000000073ffffffffffffffffffffffffffffffffffffffff1663e75235b86040518163ffffffff1660e01b8152600401602060405180830381865afa1580156105ad573d6000803e3d6000fd5b505050506040513d601f19601f820116820180604052508101906105d191906111fc565b905060006105e0838784610998565b905060005b81518110156106c8574260008084848151811061060457610604611166565b602002602001015173ffffffffffffffffffffffffffffffffffffffff1673ffffffffffffffffffffffffffffffffffffffff168152602001908152602001600020819055507f833bc129023866d52116d61e94b791eb8be46f05709362e0bcf1fe7c1a8c225c82828151811061067d5761067d611166565b60200260200101516040516106ae919073ffffffffffffffffffffffffffffffffffffffff91909116815260200190565b60405180910390a1806106c0816111c4565b9150506105e5565b50505050505050505050505050505050565b6106e26108a6565b60007f000000000000000000000000000000000000000000000000000000000000000073ffffffffffffffffffffffffffffffffffffffff1663a0e67e2b6040518163ffffffff1660e01b8152600401600060405180830381865afa15801561074f573d6000803e3d6000fd5b505050506040513d6000823e601f3d9081017fffffffffffffffffffffffffffffffffffffffffffffffffffffffffffffffe016820160405261079591908101906110b4565b905060005b815181101561081a5760008282815181106107b7576107b7611166565b602002602001015190506107d5816001610bb590919063ffffffff16565b15156000036108075773ffffffffffffffffffffffffffffffffffffffff811660009081526020819052604090204290555b5080610812816111c4565b91505061079a565b5060006108276001610bd7565b905060005b815181101561089f57600082828151811061084957610849611166565b60209081029190910181015173ffffffffffffffffffffffffffffffffffffffff81166000908152918290526040822091909155905061088a600182610bb5565b50508080610897906111c4565b91505061082c565b5050505050565b3373ffffffffffffffffffffffffffffffffffffffff7f0000000000000000000000000000000000000000000000000000000000000000161461096b576040517f08c379a000000000000000000000000000000000000000000000000000000000815260206004820152602f60248201527f4c6976656e65737347756172643a206f6e6c7920536166652063616e2063616c60448201527f6c20746869732066756e6374696f6e0000000000000000000000000000000000606482015260840161029d565b565b600061098f8373ffffffffffffffffffffffffffffffffffffffff8416610beb565b90505b92915050565b60608167ffffffffffffffff8111156109b3576109b3610e3c565b6040519080825280602002602001820160405280156109dc578160200160208202803683370190505b50905060008060008060005b86811015610ba9576041818102890160208101516040820151919092015160ff16955090935091506000849003610a24578260001c9450610b5f565b8360ff16600103610a3a578260001c9450610b5f565b601e8460ff161115610aff576040517f19457468657265756d205369676e6564204d6573736167653a0a3332000000006020820152603c81018a9052600190605c0160405160208183030381529060405280519060200120600486610a9f91906112f7565b6040805160008152602081018083529390935260ff90911690820152606081018590526080810184905260a0016020604051602081039080840390855afa158015610aee573d6000803e3d6000fd5b505050602060405103519450610b5f565b6040805160008152602081018083528b905260ff861691810191909152606081018490526080810183905260019060a0016020604051602081039080840390855afa158015610b52573d6000803e3d6000fd5b5050506020604051035194505b84868281518110610b7257610b72611166565b73ffffffffffffffffffffffffffffffffffffffff9092166020928302919091019091015280610ba1816111c4565b9150506109e8565b50505050509392505050565b600061098f8373ffffffffffffffffffffffffffffffffffffffff8416610c3a565b60606000610be483610d2d565b9392505050565b6000818152600183016020526040812054610c3257508154600181810184556000848152602080822090930184905584548482528286019093526040902091909155610992565b506000610992565b60008181526001830160205260408120548015610d23576000610c5e600183611215565b8554909150600090610c7290600190611215565b9050818114610cd7576000866000018281548110610c9257610c92611166565b9060005260206000200154905080876000018481548110610cb557610cb5611166565b6000918252602080832090910192909255918252600188019052604090208390555b8554869080610ce857610ce861131a565b600190038181906000526020600020016000905590558560010160008681526020019081526020016000206000905560019350505050610992565b6000915050610992565b606081600001805480602002602001604051908101604052809291908181526020018280548015610d7d57602002820191906000526020600020905b815481526020019060010190808311610d69575b50505050509050919050565b6000815180845260005b81811015610daf57602081850181015186830182015201610d93565b81811115610dc1576000602083870101525b50601f017fffffffffffffffffffffffffffffffffffffffffffffffffffffffffffffffe0169290920160200192915050565b60208152600061098f6020830184610d89565b73ffffffffffffffffffffffffffffffffffffffff81168114610e2957600080fd5b50565b8035610e3781610e07565b919050565b7f4e487b7100000000000000000000000000000000000000000000000000000000600052604160045260246000fd5b604051601f82017fffffffffffffffffffffffffffffffffffffffffffffffffffffffffffffffe016810167ffffffffffffffff81118282101715610eb257610eb2610e3c565b604052919050565b600082601f830112610ecb57600080fd5b813567ffffffffffffffff811115610ee557610ee5610e3c565b610f1660207fffffffffffffffffffffffffffffffffffffffffffffffffffffffffffffffe0601f84011601610e6b565b818152846020838601011115610f2b57600080fd5b816020850160208301376000918101602001919091529392505050565b803560028110610e3757600080fd5b60008060008060008060008060008060006101608c8e031215610f7957600080fd5b610f828c610e2c565b9a5060208c0135995067ffffffffffffffff8060408e01351115610fa557600080fd5b610fb58e60408f01358f01610eba565b9950610fc360608e01610f48565b985060808d0135975060a08d0135965060c08d01359550610fe660e08e01610e2c565b9450610ff56101008e01610e2c565b9350806101208e0135111561100957600080fd5b5061101b8d6101208e01358e01610eba565b915061102a6101408d01610e2c565b90509295989b509295989b9093969950565b8015158114610e2957600080fd5b6000806040838503121561105d57600080fd5b82359150602083013561106f8161103c565b809150509250929050565b60006020828403121561108c57600080fd5b8135610be481610e07565b6000602082840312156110a957600080fd5b8151610be48161103c565b600060208083850312156110c757600080fd5b825167ffffffffffffffff808211156110df57600080fd5b818501915085601f8301126110f357600080fd5b81518181111561110557611105610e3c565b8060051b9150611116848301610e6b565b818152918301840191848101908884111561113057600080fd5b938501935b8385101561115a578451925061114a83610e07565b8282529385019390850190611135565b98975050505050505050565b7f4e487b7100000000000000000000000000000000000000000000000000000000600052603260045260246000fd5b7f4e487b7100000000000000000000000000000000000000000000000000000000600052601160045260246000fd5b60007fffffffffffffffffffffffffffffffffffffffffffffffffffffffffffffffff82036111f5576111f5611195565b5060010190565b60006020828403121561120e57600080fd5b5051919050565b60008282101561122757611227611195565b500390565b600061014073ffffffffffffffffffffffffffffffffffffffff808e1684528c60208501528160408501526112638285018d610d89565b925060028b1061129c577f4e487b7100000000000000000000000000000000000000000000000000000000600052602160045260246000fd5b8a60608501528960808501528860a08501528760c085015280871660e085015250506112e161010083018573ffffffffffffffffffffffffffffffffffffffff169052565b826101208301529b9a5050505050505050505050565b600060ff821660ff84168082101561131157611311611195565b90039392505050565b7f4e487b7100000000000000000000000000000000000000000000000000000000600052603160045260246000fdfea164736f6c634300080f000a","linkReferences":{}},"methodIdentifiers":{"checkAfterExecution(bytes32,bool)":"93271368","checkTransaction(address,uint256,bytes,uint8,uint256,uint256,uint256,address,address,bytes,address)":"75f0bb52","lastLive(address)":"e458779b","safe()":"186f0354","showLiveness()":"4c205d0d","version()":"54fd4d50"},"storageLayout":{"storage":[{"astId":126594,"contract":"src/safe/LivenessGuard.sol:LivenessGuard","label":"lastLive","offset":0,"slot":"0","type":"t_mapping(t_address,t_uint256)"},{"astId":126598,"contract":"src/safe/LivenessGuard.sol:LivenessGuard","label":"ownersBefore","offset":0,"slot":"1","type":"t_struct(AddressSet)59005_storage"}],"types":{"t_address":{"encoding":"inplace","label":"address","numberOfBytes":"20"},"t_array(t_bytes32)dyn_storage":{"encoding":"dynamic_array","label":"bytes32[]","numberOfBytes":"32","base":"t_bytes32"},"t_bytes32":{"encoding":"inplace","label":"bytes32","numberOfBytes":"32"},"t_mapping(t_address,t_uint256)":{"encoding":"mapping","key":"t_address","label":"mapping(address => uint256)","numberOfBytes":"32","value":"t_uint256"},"t_mapping(t_bytes32,t_uint256)":{"encoding":"mapping","key":"t_bytes32","label":"mapping(bytes32 => uint256)","numberOfBytes":"32","value":"t_uint256"},"t_struct(AddressSet)59005_storage":{"encoding":"inplace","label":"struct EnumerableSet.AddressSet","numberOfBytes":"64","members":[{"astId":59004,"contract":"src/safe/LivenessGuard.sol:LivenessGuard","label":"_inner","offset":0,"slot":"0","type":"t_struct(Set)58704_storage"}]},"t_struct(Set)58704_storage":{"encoding":"inplace","label":"struct EnumerableSet.Set","numberOfBytes":"64","members":[{"astId":58699,"contract":"src/safe/LivenessGuard.sol:LivenessGuard","label":"_values","offset":0,"slot":"0","type":"t_array(t_bytes32)dyn_storage"},{"astId":58703,"contract":"src/safe/LivenessGuard.sol:LivenessGuard","label":"_indexes","offset":0,"slot":"1","type":"t_mapping(t_bytes32,t_uint256)"}]},"t_uint256":{"encoding":"inplace","label":"uint256","numberOfBytes":"32"}}},"userdoc":{"version":1,"kind":"user","methods":{"checkAfterExecution(bytes32,bool)":{"notice":"Update the lastLive mapping according to the set of owners before and after execution."},"checkTransaction(address,uint256,bytes,uint8,uint256,uint256,uint256,address,address,bytes,address)":{"notice":"Records the most recent time which any owner has signed a transaction."},"constructor":{"notice":"Constructor."},"lastLive(address)":{"notice":"A mapping of the timestamp at which an owner last participated in signing a         an executed transaction, or called showLiveness."},"safe()":{"notice":"Getter function for the Safe contract instance"},"showLiveness()":{"notice":"Enables an owner to demonstrate liveness by calling this method directly.         This is useful for owners who have not recently signed a transaction via the Safe."},"version()":{"notice":"Semantic version."}},"events":{"OwnerRecorded(address)":{"notice":"Emitted when an owner is recorded."}},"notice":"This Guard contract is used to track the liveness of Safe owners."},"devdoc":{"version":1,"kind":"dev","details":"It keeps track of the last time each owner participated in signing a transaction.      If an owner does not participate in a transaction for a certain period of time, they are considered inactive.      This Guard is intended to be used in conjunction with the LivenessModule contract, but does      not depend on it.      Note: Both `checkTransaction` and `checkAfterExecution` are called once each by the Safe contract      before and after the execution of a transaction. It is critical that neither function revert,      otherwise the Safe contract will be unable to execute a transaction.","methods":{"checkAfterExecution(bytes32,bool)":{"details":"Called by the Safe contract after the execution of a transaction.      We use this post execution hook to compare the set of owners before and after.      If the set of owners has changed then we:      1. Add new owners to the lastLive mapping      2. Delete removed owners from the lastLive mapping"},"checkTransaction(address,uint256,bytes,uint8,uint256,uint256,uint256,address,address,bytes,address)":{"details":"Called by the Safe contract before execution of a transaction."},"constructor":{"params":{"_safe":"The safe account for which this contract will be the guard."}},"safe()":{"returns":{"safe_":"The Safe contract instance"}}},"events":{"OwnerRecorded(address)":{"params":{"owner":"The owner's address."}}},"title":"LivenessGuard"},"id":314}