{"abi":[{"type":"function","name":"getAddress","inputs":[{"name":"_name","type":"string","internalType":"string"}],"outputs":[{"name":"","type":"address","internalType":"address"}],"stateMutability":"view"},{"type":"function","name":"owner","inputs":[],"outputs":[{"name":"","type":"address","internalType":"address"}],"stateMutability":"view"},{"type":"function","name":"renounceOwnership","inputs":[],"outputs":[],"stateMutability":"nonpayable"},{"type":"function","name":"setAddress","inputs":[{"name":"_name","type":"string","internalType":"string"},{"name":"_address","type":"address","internalType":"address"}],"outputs":[],"stateMutability":"nonpayable"},{"type":"function","name":"transferOwnership","inputs":[{"name":"newOwner","type":"address","internalType":"address"}],"outputs":[],"stateMutability":"nonpayable"},{"type":"event","name":"AddressSet","inputs":[{"name":"name","type":"string","indexed":true,"internalType":"string"},{"name":"newAddress","type":"address","indexed":false,"internalType":"address"},{"name":"oldAddress","type":"address","indexed":false,"internalType":"address"}],"anonymous":false},{"type":"event","name":"OwnershipTransferred","inputs":[{"name":"previousOwner","type":"address","indexed":true,"internalType":"address"},{"name":"newOwner","type":"address","indexed":true,"internalType":"address"}],"anonymous":false}],"bytecode":{"object":"0x608060405234801561001057600080fd5b5061001a3361001f565b61006f565b600080546001600160a01b038381166001600160a01b0319831681178455604051919092169283917f8be0079c531659141344cd1fd0a4f28419497f9722a3daafe3b4186f6b6457e09190a35050565b6104b88061007e6000396000f3fe608060405234801561001057600080fd5b50600436106100575760003560e01c8063715018a61461005c5780638da5cb5b146100665780639b2ea4bd1461008f578063bf40fac1146100a2578063f2fde38b146100b5575b600080fd5b6100646100c8565b005b6000546001600160a01b03165b6040516001600160a01b03909116815260200160405180910390f35b61006461009d3660046103c3565b6100dc565b6100736100b0366004610411565b61017d565b6100646100c336600461044e565b6101ac565b6100d061022a565b6100da6000610284565b565b6100e461022a565b60006100ef836102d4565b6000818152600160205260409081902080546001600160a01b038681166001600160a01b03198316179092559151929350169061012d908590610470565b604080519182900382206001600160a01b03808716845284166020840152917f9416a153a346f93d95f94b064ae3f148b6460473c6e82b3f9fc2521b873fcd6c910160405180910390a250505050565b60006001600061018c846102d4565b81526020810191909152604001600020546001600160a01b031692915050565b6101b461022a565b6001600160a01b03811661021e5760405162461bcd60e51b815260206004820152602660248201527f4f776e61626c653a206e6577206f776e657220697320746865207a65726f206160448201526564647265737360d01b60648201526084015b60405180910390fd5b61022781610284565b50565b6000546001600160a01b031633146100da5760405162461bcd60e51b815260206004820181905260248201527f4f776e61626c653a2063616c6c6572206973206e6f7420746865206f776e65726044820152606401610215565b600080546001600160a01b038381166001600160a01b0319831681178455604051919092169283917f8be0079c531659141344cd1fd0a4f28419497f9722a3daafe3b4186f6b6457e09190a35050565b6000816040516020016102e79190610470565b604051602081830303815290604052805190602001209050919050565b634e487b7160e01b600052604160045260246000fd5b600082601f83011261032b57600080fd5b813567ffffffffffffffff8082111561034657610346610304565b604051601f8301601f19908116603f0116810190828211818310171561036e5761036e610304565b8160405283815286602085880101111561038757600080fd5b836020870160208301376000602085830101528094505050505092915050565b80356001600160a01b03811681146103be57600080fd5b919050565b600080604083850312156103d657600080fd5b823567ffffffffffffffff8111156103ed57600080fd5b6103f98582860161031a565b925050610408602084016103a7565b90509250929050565b60006020828403121561042357600080fd5b813567ffffffffffffffff81111561043a57600080fd5b6104468482850161031a565b949350505050565b60006020828403121561046057600080fd5b610469826103a7565b9392505050565b6000825160005b818110156104915760208186018101518583015201610477565b818111156104a0576000828501525b50919091019291505056fea164736f6c634300080f000a","linkReferences":{}},"methodIdentifiers":{"getAddress(string)":"bf40fac1","owner()":"8da5cb5b","renounceOwnership()":"715018a6","setAddress(string,address)":"9b2ea4bd","transferOwnership(address)":"f2fde38b"},"id":244}