{"abi":[{"type":"constructor","inputs":[{"name":"_disputeGameFactory","type":"address","internalType":"contract IDisputeGameFactory"}],"stateMutability":"nonpayable"},{"type":"function","name":"anchors","inputs":[{"name":"","type":"uint32","internalType":"GameType"}],"outputs":[{"name":"root","type":"bytes32","internalType":"Hash"},{"name":"l2BlockNumber","type":"uint256","internalType":"uint256"}],"stateMutability":"view"},{"type":"function","name":"disputeGameFactory","inputs":[],"outputs":[{"name":"","type":"address","internalType":"contract IDisputeGameFactory"}],"stateMutability":"view"},{"type":"function","name":"initialize","inputs":[{"name":"_startingAnchorRoots","type":"tuple[]","internalType":"struct AnchorStateRegistry.StartingAnchorRoot[]","components":[{"name":"gameType","type":"uint32","internalType":"GameType"},{"name":"outputRoot","type":"tuple","internalType":"struct OutputRoot","components":[{"name":"root","type":"bytes32","internalType":"Hash"},{"name":"l2BlockNumber","type":"uint256","internalType":"uint256"}]}]},{"name":"_superchainConfig","type":"address","internalType":"contract SuperchainConfig"}],"outputs":[],"stateMutability":"nonpayable"},{"type":"function","name":"setAnchorState","inputs":[{"name":"_game","type":"address","internalType":"contract IFaultDisputeGame"}],"outputs":[],"stateMutability":"nonpayable"},{"type":"function","name":"superchainConfig","inputs":[],"outputs":[{"name":"","type":"address","internalType":"contract SuperchainConfig"}],"stateMutability":"view"},{"type":"function","name":"tryUpdateAnchorState","inputs":[],"outputs":[],"stateMutability":"nonpayable"},{"type":"function","name":"version","inputs":[],"outputs":[{"name":"","type":"string","internalType":"string"}],"stateMutability":"view"},{"type":"event","name":"Initialized","inputs":[{"name":"version","type":"uint8","indexed":false,"internalType":"uint8"}],"anonymous":false},{"type":"error","name":"InvalidGameStatus","inputs":[]},{"type":"error","name":"Unauthorized","inputs":[]},{"type":"error","name":"UnregisteredGame","inputs":[]}],"bytecode":{"object":"0x60a060405234801561001057600080fd5b50604051610e79380380610e7983398101604081905261002f9161010a565b6001600160a01b03811660805261004461004a565b5061013a565b600054610100900460ff16156100b65760405162461bcd60e51b815260206004820152602760248201527f496e697469616c697a61626c653a20636f6e747261637420697320696e697469604482015266616c697a696e6760c81b606482015260840160405180910390fd5b60005460ff9081161015610108576000805460ff191660ff9081179091556040519081527f7f26b83ff96e1f2b6a682f133852f6798a09c465da95921460cefb38474024989060200160405180910390a15b565b60006020828403121561011c57600080fd5b81516001600160a01b038116811461013357600080fd5b9392505050565b608051610d16610163600039600081816101510152818161029101526106fc0152610d166000f3fe608060405234801561001057600080fd5b506004361061007d5760003560e01c80635e05fbd01161005b5780635e05fbd0146100f85780637258a8071461010b578063838c2d1e14610147578063f2b4e6171461014f57600080fd5b806317cf21a91461008257806335e80ab31461009757806354fd4d50146100c7575b600080fd5b6100956100903660046108e9565b610175565b005b6002546100aa906001600160a01b031681565b6040516001600160a01b0390911681526020015b60405180910390f35b6100eb604051806040016040528060058152602001640322e302e360dc1b81525081565b6040516100be9190610969565b610095610106366004610a0e565b6104f1565b610132610119366004610b1a565b6001602081905260009182526040909120805491015482565b604080519283526020830191909152016100be565b610095610682565b7f00000000000000000000000000000000000000000000000000000000000000006100aa565b600260009054906101000a90046001600160a01b03166001600160a01b031663452a93206040518163ffffffff1660e01b8152600401602060405180830381865afa1580156101c8573d6000803e3d6000fd5b505050506040513d601f19601f820116820180604052508101906101ec9190610b37565b6001600160a01b0316336001600160a01b03161461021c576040516282b42960e81b815260040160405180910390fd5b6000806000836001600160a01b031663fa24f7436040518163ffffffff1660e01b8152600401600060405180830381865afa15801561025f573d6000803e3d6000fd5b505050506040513d6000823e601f3d908101601f191682016040526102879190810190610b54565b92509250925060007f00000000000000000000000000000000000000000000000000000000000000006001600160a01b0316635f0150cb8585856040518463ffffffff1660e01b81526004016102df93929190610c07565b6040805180830381865afa1580156102fb573d6000803e3d6000fd5b505050506040513d601f19601f8201168201806040525081019061031f9190610c35565b509050846001600160a01b0316816001600160a01b03161461035457604051636b0f689160e01b815260040160405180910390fd5b6002856001600160a01b031663200d2ed26040518163ffffffff1660e01b8152600401602060405180830381865afa158015610394573d6000803e3d6000fd5b505050506040513d601f19601f820116820180604052508101906103b89190610c92565b60028111156103c9576103c9610c7c565b146103e757604051638f8af25f60e01b815260040160405180910390fd5b604051806040016040528061045a876001600160a01b031663bcef3b556040518163ffffffff1660e01b8152600401602060405180830381865afa158015610433573d6000803e3d6000fd5b505050506040513d601f19601f820116820180604052508101906104579190610cb3565b90565b8152602001866001600160a01b0316638b85902b6040518163ffffffff1660e01b8152600401602060405180830381865afa15801561049d573d6000803e3d6000fd5b505050506040513d601f19601f820116820180604052508101906104c19190610cb3565b905263ffffffff909416600090815260016020818152604090922086518155959091015194019390935550505050565b600054610100900460ff16158080156105115750600054600160ff909116105b8061052b5750303b15801561052b575060005460ff166001145b6105925760405162461bcd60e51b815260206004820152602e60248201527f496e697469616c697a61626c653a20636f6e747261637420697320616c72656160448201526d191e481a5b9a5d1a585b1a5e995960921b606482015260840160405180910390fd5b6000805460ff1916600117905580156105b5576000805461ff0019166101001790555b60005b835181101561061b5760008482815181106105d5576105d5610ccc565b60209081029190910181015180820151905163ffffffff16600090815260018084526040909120825181559190920151910155508061061381610ce2565b9150506105b8565b50600280546001600160a01b0319166001600160a01b038416179055801561067d576000805461ff0019169055604051600181527f7f26b83ff96e1f2b6a682f133852f6798a09c465da95921460cefb38474024989060200160405180910390a15b505050565b60003390506000806000836001600160a01b031663fa24f7436040518163ffffffff1660e01b8152600401600060405180830381865afa1580156106ca573d6000803e3d6000fd5b505050506040513d6000823e601f3d908101601f191682016040526106f29190810190610b54565b92509250925060007f00000000000000000000000000000000000000000000000000000000000000006001600160a01b0316635f0150cb8585856040518463ffffffff1660e01b815260040161074a93929190610c07565b6040805180830381865afa158015610766573d6000803e3d6000fd5b505050506040513d601f19601f8201168201806040525081019061078a9190610c35565b509050846001600160a01b0316816001600160a01b0316146107bf57604051636b0f689160e01b815260040160405180910390fd5b600160008563ffffffff1663ffffffff16815260200190815260200160002060010154856001600160a01b0316638b85902b6040518163ffffffff1660e01b8152600401602060405180830381865afa158015610820573d6000803e3d6000fd5b505050506040513d601f19601f820116820180604052508101906108449190610cb3565b11610850575050505050565b6002856001600160a01b031663200d2ed26040518163ffffffff1660e01b8152600401602060405180830381865afa158015610890573d6000803e3d6000fd5b505050506040513d601f19601f820116820180604052508101906108b49190610c92565b60028111156108c5576108c5610c7c565b146103e7575050505050565b6001600160a01b03811681146108e657600080fd5b50565b6000602082840312156108fb57600080fd5b8135610906816108d1565b9392505050565b60005b83811015610928578181015183820152602001610910565b83811115610937576000848401525b50505050565b6000815180845261095581602086016020860161090d565b601f01601f19169290920160200192915050565b602081526000610906602083018461093d565b634e487b7160e01b600052604160045260246000fd5b6040805190810167ffffffffffffffff811182821017156109b5576109b561097c565b60405290565b604051601f8201601f1916810167ffffffffffffffff811182821017156109e4576109e461097c565b604052919050565b63ffffffff811681146108e657600080fd5b8035610a09816108d1565b919050565b6000806040808486031215610a2257600080fd5b833567ffffffffffffffff80821115610a3a57600080fd5b818601915086601f830112610a4e57600080fd5b8135602082821115610a6257610a6261097c565b610a70818360051b016109bb565b8281528181019350606092830285018201928a841115610a8f57600080fd5b948201945b83861015610afe57858b0381811215610aad5760008081fd5b610ab5610992565b8735610ac0816109ec565b8152601f198201891315610ad45760008081fd5b610adc610992565b8886013581528989013586820152818601528652509485019493820193610a94565b509650610b0c8882016109fe565b955050505050509250929050565b600060208284031215610b2c57600080fd5b8135610906816109ec565b600060208284031215610b4957600080fd5b8151610906816108d1565b600080600060608486031215610b6957600080fd5b8351610b74816109ec565b60208501516040860151919450925067ffffffffffffffff80821115610b9957600080fd5b818601915086601f830112610bad57600080fd5b815181811115610bbf57610bbf61097c565b610bd2601f8201601f19166020016109bb565b9150808252876020828501011115610be957600080fd5b610bfa81602084016020860161090d565b5080925050509250925092565b63ffffffff84168152826020820152606060408201526000610c2c606083018461093d565b95945050505050565b60008060408385031215610c4857600080fd5b8251610c53816108d1565b602084015190925067ffffffffffffffff81168114610c7157600080fd5b809150509250929050565b634e487b7160e01b600052602160045260246000fd5b600060208284031215610ca457600080fd5b81516003811061090657600080fd5b600060208284031215610cc557600080fd5b5051919050565b634e487b7160e01b600052603260045260246000fd5b600060018201610d0257634e487b7160e01b600052601160045260246000fd5b506001019056fea164736f6c634300080f000a","linkReferences":{}},"methodIdentifiers":{"anchors(uint32)":"7258a807","disputeGameFactory()":"f2b4e617","initialize((uint32,(bytes32,uint256))[],address)":"5e05fbd0","setAnchorState(address)":"17cf21a9","superchainConfig()":"35e80ab3","tryUpdateAnchorState()":"838c2d1e","version()":"54fd4d50"},"id":224}