{"abi":[{"type":"constructor","inputs":[],"stateMutability":"nonpayable"},{"type":"function","name":"create","inputs":[{"name":"_gameType","type":"uint32","internalType":"GameType"},{"name":"_rootClaim","type":"bytes32","internalType":"Claim"},{"name":"_extraData","type":"bytes","internalType":"bytes"}],"outputs":[{"name":"proxy_","type":"address","internalType":"contract IDisputeGame"}],"stateMutability":"payable"},{"type":"function","name":"findLatestGames","inputs":[{"name":"_gameType","type":"uint32","internalType":"GameType"},{"name":"_start","type":"uint256","internalType":"uint256"},{"name":"_n","type":"uint256","internalType":"uint256"}],"outputs":[{"name":"games_","type":"tuple[]","internalType":"struct IDisputeGameFactory.GameSearchResult[]","components":[{"name":"index","type":"uint256","internalType":"uint256"},{"name":"metadata","type":"bytes32","internalType":"GameId"},{"name":"timestamp","type":"uint64","internalType":"Timestamp"},{"name":"rootClaim","type":"bytes32","internalType":"Claim"},{"name":"extraData","type":"bytes","internalType":"bytes"}]}],"stateMutability":"view"},{"type":"function","name":"gameAtIndex","inputs":[{"name":"_index","type":"uint256","internalType":"uint256"}],"outputs":[{"name":"gameType_","type":"uint32","internalType":"GameType"},{"name":"timestamp_","type":"uint64","internalType":"Timestamp"},{"name":"proxy_","type":"address","internalType":"contract IDisputeGame"}],"stateMutability":"view"},{"type":"function","name":"gameCount","inputs":[],"outputs":[{"name":"gameCount_","type":"uint256","internalType":"uint256"}],"stateMutability":"view"},{"type":"function","name":"gameImpls","inputs":[{"name":"","type":"uint32","internalType":"GameType"}],"outputs":[{"name":"","type":"address","internalType":"contract IDisputeGame"}],"stateMutability":"view"},{"type":"function","name":"games","inputs":[{"name":"_gameType","type":"uint32","internalType":"GameType"},{"name":"_rootClaim","type":"bytes32","internalType":"Claim"},{"name":"_extraData","type":"bytes","internalType":"bytes"}],"outputs":[{"name":"proxy_","type":"address","internalType":"contract IDisputeGame"},{"name":"timestamp_","type":"uint64","internalType":"Timestamp"}],"stateMutability":"view"},{"type":"function","name":"getGameUUID","inputs":[{"name":"_gameType","type":"uint32","internalType":"GameType"},{"name":"_rootClaim","type":"bytes32","internalType":"Claim"},{"name":"_extraData","type":"bytes","internalType":"bytes"}],"outputs":[{"name":"uuid_","type":"bytes32","internalType":"Hash"}],"stateMutability":"pure"},{"type":"function","name":"initBonds","inputs":[{"name":"","type":"uint32","internalType":"GameType"}],"outputs":[{"name":"","type":"uint256","internalType":"uint256"}],"stateMutability":"view"},{"type":"function","name":"initialize","inputs":[{"name":"_owner","type":"address","internalType":"address"}],"outputs":[],"stateMutability":"nonpayable"},{"type":"function","name":"owner","inputs":[],"outputs":[{"name":"","type":"address","internalType":"address"}],"stateMutability":"view"},{"type":"function","name":"renounceOwnership","inputs":[],"outputs":[],"stateMutability":"nonpayable"},{"type":"function","name":"setImplementation","inputs":[{"name":"_gameType","type":"uint32","internalType":"GameType"},{"name":"_impl","type":"address","internalType":"contract IDisputeGame"}],"outputs":[],"stateMutability":"nonpayable"},{"type":"function","name":"setInitBond","inputs":[{"name":"_gameType","type":"uint32","internalType":"GameType"},{"name":"_initBond","type":"uint256","internalType":"uint256"}],"outputs":[],"stateMutability":"nonpayable"},{"type":"function","name":"transferOwnership","inputs":[{"name":"newOwner","type":"address","internalType":"address"}],"outputs":[],"stateMutability":"nonpayable"},{"type":"function","name":"version","inputs":[],"outputs":[{"name":"","type":"string","internalType":"string"}],"stateMutability":"view"},{"type":"event","name":"DisputeGameCreated","inputs":[{"name":"disputeProxy","type":"address","indexed":true,"internalType":"address"},{"name":"gameType","type":"uint32","indexed":true,"internalType":"GameType"},{"name":"rootClaim","type":"bytes32","indexed":true,"internalType":"Claim"}],"anonymous":false},{"type":"event","name":"ImplementationSet","inputs":[{"name":"impl","type":"address","indexed":true,"internalType":"address"},{"name":"gameType","type":"uint32","indexed":true,"internalType":"GameType"}],"anonymous":false},{"type":"event","name":"InitBondUpdated","inputs":[{"name":"gameType","type":"uint32","indexed":true,"internalType":"GameType"},{"name":"newBond","type":"uint256","indexed":true,"internalType":"uint256"}],"anonymous":false},{"type":"event","name":"Initialized","inputs":[{"name":"version","type":"uint8","indexed":false,"internalType":"uint8"}],"anonymous":false},{"type":"event","name":"OwnershipTransferred","inputs":[{"name":"previousOwner","type":"address","indexed":true,"internalType":"address"},{"name":"newOwner","type":"address","indexed":true,"internalType":"address"}],"anonymous":false},{"type":"error","name":"GameAlreadyExists","inputs":[{"name":"uuid","type":"bytes32","internalType":"Hash"}]},{"type":"error","name":"IncorrectBondAmount","inputs":[]},{"type":"error","name":"NoImplementation","inputs":[{"name":"gameType","type":"uint32","internalType":"GameType"}]}],"bytecode":{"object":"0x60806040523480156200001157600080fd5b506200001e600062000024565b62000292565b600054610100900460ff1615808015620000455750600054600160ff909116105b8062000075575062000062306200016260201b62000a8c1760201c565b15801562000075575060005460ff166001145b620000de5760405162461bcd60e51b815260206004820152602e60248201527f496e697469616c697a61626c653a20636f6e747261637420697320616c72656160448201526d191e481a5b9a5d1a585b1a5e995960921b60648201526084015b60405180910390fd5b6000805460ff19166001179055801562000102576000805461ff0019166101001790555b6200010c62000171565b6200011782620001d9565b80156200015e576000805461ff0019169055604051600181527f7f26b83ff96e1f2b6a682f133852f6798a09c465da95921460cefb38474024989060200160405180910390a15b5050565b6001600160a01b03163b151590565b600054610100900460ff16620001cd5760405162461bcd60e51b815260206004820152602b6024820152600080516020620013d683398151915260448201526a6e697469616c697a696e6760a81b6064820152608401620000d5565b620001d76200022b565b565b603380546001600160a01b038381166001600160a01b0319831681179093556040519116919082907f8be0079c531659141344cd1fd0a4f28419497f9722a3daafe3b4186f6b6457e090600090a35050565b600054610100900460ff16620002875760405162461bcd60e51b815260206004820152602b6024820152600080516020620013d683398151915260448201526a6e697469616c697a696e6760a81b6064820152608401620000d5565b620001d733620001d9565b61113480620002a26000396000f3fe6080604052600436106100e85760003560e01c80636593dc6e1161008a57806396cd97201161005957806396cd9720146102c7578063bb8aa1fc146102e7578063c4d66de81461033b578063f2fde38b1461035b57600080fd5b80636593dc6e14610254578063715018a61461028157806382ecf2f6146102965780638da5cb5b146102a957600080fd5b8063254bd683116100c6578063254bd683146101825780634d1975b4146101af57806354fd4d50146101ce5780635f0150cb1461020c57600080fd5b806314f6b1a3146100ed5780631b685b9e1461010f5780631e33424014610162575b600080fd5b3480156100f957600080fd5b5061010d610108366004610cce565b61037b565b005b34801561011b57600080fd5b5061014561012a366004610d05565b6065602052600090815260409020546001600160a01b031681565b6040516001600160a01b0390911681526020015b60405180910390f35b34801561016e57600080fd5b5061010d61017d366004610d20565b6103e0565b34801561018e57600080fd5b506101a261019d366004610d4a565b61042c565b6040516101599190610dd9565b3480156101bb57600080fd5b506068545b604051908152602001610159565b3480156101da57600080fd5b506101ff604051806040016040528060058152602001640312e302e360dc1b81525081565b6040516101599190610e78565b34801561021857600080fd5b5061022c610227366004610e8b565b61060d565b604080516001600160a01b03909316835267ffffffffffffffff909116602083015201610159565b34801561026057600080fd5b506101c061026f366004610d05565b60666020526000908152604090205481565b34801561028d57600080fd5b5061010d610653565b6101456102a4366004610e8b565b610667565b3480156102b557600080fd5b506033546001600160a01b0316610145565b3480156102d357600080fd5b506101c06102e2366004610e8b565b610863565b3480156102f357600080fd5b50610307610302366004610f12565b61089c565b6040805163ffffffff909416845267ffffffffffffffff90921660208401526001600160a01b031690820152606001610159565b34801561034757600080fd5b5061010d610356366004610f2b565b6108f8565b34801561036757600080fd5b5061010d610376366004610f2b565b610a13565b610383610a9b565b63ffffffff821660008181526065602052604080822080546001600160a01b0319166001600160a01b038616908117909155905190917fff513d80e2c7fa487608f70a618dfbc0cf415699dc69588c747e8c71566c88de91a35050565b6103e8610a9b565b63ffffffff8216600081815260666020526040808220849055518392917f74d6665c4b26d5596a5aa13d3014e0c06af4d322075a797f87b03cd4c5bc91ca91a35050565b6068546060908310158061043e575081155b610606575060408051600583901b8101602001909152825b8381116106045760006068828154811061047257610472610f48565b600091825260209091200154905060e081901c60a082901c67ffffffffffffffff166001600160a01b03831663ffffffff891683036105f357600186510186526000816001600160a01b031663609d33346040518163ffffffff1660e01b8152600401600060405180830381865afa1580156104f2573d6000803e3d6000fd5b505050506040513d6000823e601f3d908101601f1916820160405261051a9190810190610f74565b90506000826001600160a01b031663bcef3b556040518163ffffffff1660e01b8152600401602060405180830381865afa15801561055c573d6000803e3d6000fd5b505050506040513d601f19601f820116820180604052508101906105809190611021565b90506040518060a001604052808881526020018781526020018567ffffffffffffffff168152602001828152602001838152508860018a516105c2919061103a565b815181106105d2576105d2610f48565b6020026020010181905250888851106105f057505050505050610604565b50505b505060001990920191506104569050565b505b9392505050565b600080600061061e87878787610863565b6000908152606760205260409020546001600160a01b0381169860a09190911c67ffffffffffffffff16975095505050505050565b61065b610a9b565b6106656000610af5565b565b63ffffffff84166000908152606560205260408120546001600160a01b0316806106b05760405162c71b7960e21b815263ffffffff871660048201526024015b60405180910390fd5b63ffffffff861660009081526066602052604090205434146106e557604051638620aa1960e01b815260040160405180910390fd5b60006106f260014361103a565b409050610731338783888860405160200161071195949392919061105f565b60408051601f198184030181529190526001600160a01b03841690610b47565b9250826001600160a01b0316638129fc1c346040518263ffffffff1660e01b81526004016000604051808303818588803b15801561076e57600080fd5b505af1158015610782573d6000803e3d6000fd5b5050505050600061079588888888610863565b600081815260676020526040902054909150156107c85760405163014f6fe560e01b8152600481018290526024016106a7565b60004260a01b60e08a901b178517600083815260676020526040808220839055606880546001810182559083527fa2153420d844928b4421650203c77babc8b33d7f2e7b450e2966db0c220977530183905551919250899163ffffffff8c16916001600160a01b038916917f5b565efe82411da98814f356d0e7bcb8f0219b8d970307c5afb4a6903a8b2e359190a450505050949350505050565b60008484848460405160200161087c9493929190611099565b604051602081830303815290604052805190602001209050949350505050565b6000806000806000806108e8606888815481106108bb576108bb610f48565b906000526020600020015460e081901c9160a082901c67ffffffffffffffff16916001600160a01b031690565b9199909850909650945050505050565b600054610100900460ff16158080156109185750600054600160ff909116105b806109325750303b158015610932575060005460ff166001145b6109955760405162461bcd60e51b815260206004820152602e60248201527f496e697469616c697a61626c653a20636f6e747261637420697320616c72656160448201526d191e481a5b9a5d1a585b1a5e995960921b60648201526084016106a7565b6000805460ff1916600117905580156109b8576000805461ff0019166101001790555b6109c0610b55565b6109c982610af5565b8015610a0f576000805461ff0019169055604051600181527f7f26b83ff96e1f2b6a682f133852f6798a09c465da95921460cefb38474024989060200160405180910390a15b5050565b610a1b610a9b565b6001600160a01b038116610a805760405162461bcd60e51b815260206004820152602660248201527f4f776e61626c653a206e6577206f776e657220697320746865207a65726f206160448201526564647265737360d01b60648201526084016106a7565b610a8981610af5565b50565b6001600160a01b03163b151590565b6033546001600160a01b031633146106655760405162461bcd60e51b815260206004820181905260248201527f4f776e61626c653a2063616c6c6572206973206e6f7420746865206f776e657260448201526064016106a7565b603380546001600160a01b038381166001600160a01b0319831681179093556040519116919082907f8be0079c531659141344cd1fd0a4f28419497f9722a3daafe3b4186f6b6457e090600090a35050565b600061060660008484610b84565b600054610100900460ff16610b7c5760405162461bcd60e51b81526004016106a7906110dc565b610665610c70565b600060608203516040830351602084035184518060208701018051600283016c5af43d3d93803e606057fd5bf3895289600d8a035278593da1005b363d3d373d3d3d3d610000806062363936013d738160481b1760218a03527f9e4ac34f21c619cefc926c8bd93b54bf5a39c7ab2127a895af1cc0691d7e3dff603a8a035272fd6100003d81600a3d39f336602c57343d527f6062820160781b1761ff9e82106059018a03528060f01b8352606c8101604c8a038cf097505086610c505763301164256000526004601cfd5b90528552601f19850152603f19840152605f199092019190915292915050565b600054610100900460ff16610c975760405162461bcd60e51b81526004016106a7906110dc565b61066533610af5565b803563ffffffff81168114610cb457600080fd5b919050565b6001600160a01b0381168114610a8957600080fd5b60008060408385031215610ce157600080fd5b610cea83610ca0565b91506020830135610cfa81610cb9565b809150509250929050565b600060208284031215610d1757600080fd5b61060682610ca0565b60008060408385031215610d3357600080fd5b610d3c83610ca0565b946020939093013593505050565b600080600060608486031215610d5f57600080fd5b610d6884610ca0565b95602085013595506040909401359392505050565b60005b83811015610d98578181015183820152602001610d80565b83811115610da7576000848401525b50505050565b60008151808452610dc5816020860160208601610d7d565b601f01601f19169290920160200192915050565b60006020808301818452808551808352604092508286019150828160051b87010184880160005b83811015610e6a57888303603f1901855281518051845287810151888501528681015167ffffffffffffffff16878501526060808201519085015260809081015160a091850182905290610e5681860183610dad565b968901969450505090860190600101610e00565b509098975050505050505050565b6020815260006106066020830184610dad565b60008060008060608587031215610ea157600080fd5b610eaa85610ca0565b935060208501359250604085013567ffffffffffffffff80821115610ece57600080fd5b818701915087601f830112610ee257600080fd5b813581811115610ef157600080fd5b886020828501011115610f0357600080fd5b95989497505060200194505050565b600060208284031215610f2457600080fd5b5035919050565b600060208284031215610f3d57600080fd5b813561060681610cb9565b634e487b7160e01b600052603260045260246000fd5b634e487b7160e01b600052604160045260246000fd5b600060208284031215610f8657600080fd5b815167ffffffffffffffff80821115610f9e57600080fd5b818401915084601f830112610fb257600080fd5b815181811115610fc457610fc4610f5e565b604051601f8201601f19908116603f01168101908382118183101715610fec57610fec610f5e565b8160405282815287602084870101111561100557600080fd5b611016836020830160208801610d7d565b979650505050505050565b60006020828403121561103357600080fd5b5051919050565b60008282101561105a57634e487b7160e01b600052601160045260246000fd5b500390565b6bffffffffffffffffffffffff198660601b1681528460148201528360348201528183605483013760009101605401908152949350505050565b63ffffffff8516815283602082015260606040820152816060820152818360808301376000818301608090810191909152601f909201601f191601019392505050565b6020808252602b908201527f496e697469616c697a61626c653a20636f6e7472616374206973206e6f74206960408201526a6e697469616c697a696e6760a81b60608201526080019056fea164736f6c634300080f000a496e697469616c697a61626c653a20636f6e7472616374206973206e6f742069","linkReferences":{}},"methodIdentifiers":{"create(uint32,bytes32,bytes)":"82ecf2f6","findLatestGames(uint32,uint256,uint256)":"254bd683","gameAtIndex(uint256)":"bb8aa1fc","gameCount()":"4d1975b4","gameImpls(uint32)":"1b685b9e","games(uint32,bytes32,bytes)":"5f0150cb","getGameUUID(uint32,bytes32,bytes)":"96cd9720","initBonds(uint32)":"6593dc6e","initialize(address)":"c4d66de8","owner()":"8da5cb5b","renounceOwnership()":"715018a6","setImplementation(uint32,address)":"14f6b1a3","setInitBond(uint32,uint256)":"1e334240","transferOwnership(address)":"f2fde38b","version()":"54fd4d50"},"id":225}