{"abi":[{"type":"function","name":"DEPOSITOR_ACCOUNT","inputs":[],"outputs":[{"name":"addr_","type":"address","internalType":"address"}],"stateMutability":"pure"},{"type":"function","name":"baseFeeScalar","inputs":[],"outputs":[{"name":"","type":"uint32","internalType":"uint32"}],"stateMutability":"view"},{"type":"function","name":"basefee","inputs":[],"outputs":[{"name":"","type":"uint256","internalType":"uint256"}],"stateMutability":"view"},{"type":"function","name":"batcherHash","inputs":[],"outputs":[{"name":"","type":"bytes32","internalType":"bytes32"}],"stateMutability":"view"},{"type":"function","name":"blobBaseFee","inputs":[],"outputs":[{"name":"","type":"uint256","internalType":"uint256"}],"stateMutability":"view"},{"type":"function","name":"blobBaseFeeScalar","inputs":[],"outputs":[{"name":"","type":"uint32","internalType":"uint32"}],"stateMutability":"view"},{"type":"function","name":"gasPayingToken","inputs":[],"outputs":[{"name":"addr_","type":"address","internalType":"address"},{"name":"decimals_","type":"uint8","internalType":"uint8"}],"stateMutability":"view"},{"type":"function","name":"gasPayingTokenName","inputs":[],"outputs":[{"name":"name_","type":"string","internalType":"string"}],"stateMutability":"view"},{"type":"function","name":"gasPayingTokenSymbol","inputs":[],"outputs":[{"name":"symbol_","type":"string","internalType":"string"}],"stateMutability":"view"},{"type":"function","name":"hash","inputs":[],"outputs":[{"name":"","type":"bytes32","internalType":"bytes32"}],"stateMutability":"view"},{"type":"function","name":"isCustomGasToken","inputs":[],"outputs":[{"name":"","type":"bool","internalType":"bool"}],"stateMutability":"view"},{"type":"function","name":"l1FeeOverhead","inputs":[],"outputs":[{"name":"","type":"uint256","internalType":"uint256"}],"stateMutability":"view"},{"type":"function","name":"l1FeeScalar","inputs":[],"outputs":[{"name":"","type":"uint256","internalType":"uint256"}],"stateMutability":"view"},{"type":"function","name":"number","inputs":[],"outputs":[{"name":"","type":"uint64","internalType":"uint64"}],"stateMutability":"view"},{"type":"function","name":"operatorFeeConstant","inputs":[],"outputs":[{"name":"","type":"uint64","internalType":"uint64"}],"stateMutability":"view"},{"type":"function","name":"operatorFeeScalar","inputs":[],"outputs":[{"name":"","type":"uint32","internalType":"uint32"}],"stateMutability":"view"},{"type":"function","name":"sequenceNumber","inputs":[],"outputs":[{"name":"","type":"uint64","internalType":"uint64"}],"stateMutability":"view"},{"type":"function","name":"setGasPayingToken","inputs":[{"name":"_token","type":"address","internalType":"address"},{"name":"_decimals","type":"uint8","internalType":"uint8"},{"name":"_name","type":"bytes32","internalType":"bytes32"},{"name":"_symbol","type":"bytes32","internalType":"bytes32"}],"outputs":[],"stateMutability":"nonpayable"},{"type":"function","name":"setL1BlockValues","inputs":[{"name":"_number","type":"uint64","internalType":"uint64"},{"name":"_timestamp","type":"uint64","internalType":"uint64"},{"name":"_basefee","type":"uint256","internalType":"uint256"},{"name":"_hash","type":"bytes32","internalType":"bytes32"},{"name":"_sequenceNumber","type":"uint64","internalType":"uint64"},{"name":"_batcherHash","type":"bytes32","internalType":"bytes32"},{"name":"_l1FeeOverhead","type":"uint256","internalType":"uint256"},{"name":"_l1FeeScalar","type":"uint256","internalType":"uint256"}],"outputs":[],"stateMutability":"nonpayable"},{"type":"function","name":"setL1BlockValuesEcotone","inputs":[],"outputs":[],"stateMutability":"nonpayable"},{"type":"function","name":"setL1BlockValuesIsthmus","inputs":[],"outputs":[],"stateMutability":"nonpayable"},{"type":"function","name":"timestamp","inputs":[],"outputs":[{"name":"","type":"uint64","internalType":"uint64"}],"stateMutability":"view"},{"type":"function","name":"version","inputs":[],"outputs":[{"name":"","type":"string","internalType":"string"}],"stateMutability":"pure"},{"type":"event","name":"GasPayingTokenSet","inputs":[{"name":"token","type":"address","indexed":true,"internalType":"address"},{"name":"decimals","type":"uint8","indexed":true,"internalType":"uint8"},{"name":"name","type":"bytes32","indexed":false,"internalType":"bytes32"},{"name":"symbol","type":"bytes32","indexed":false,"internalType":"bytes32"}],"anonymous":false},{"type":"error","name":"NotDepositor","inputs":[]}],"bytecode":{"object":"0x608060405234801561001057600080fd5b50610972806100206000396000f3fe608060405234801561001057600080fd5b506004361061014d5760003560e01c806364ca23ef116100c3578063b80777ea1161007c578063b80777ea146102d3578063c5985918146102ee578063d844471514610305578063e591b2821461030d578063e81b2c6d1461032f578063f82061401461033857600080fd5b806364ca23ef1461026f57806368d5dca61461028357806371cfaa3f1461029a5780638381f58a146102ad5780638b239f73146102c15780639e8c4966146102ca57600080fd5b80634397dfef116101155780634397dfef146101d0578063440a5e20146101f95780634d5d9a2a1461020157806354fd4d501461022d578063550fcdc91461025e5780635cf249691461026657600080fd5b8063015d8eb914610152578063098999be1461016757806309bd5a601461016f57806316d3bc7f1461018b57806321326849146101b8575b600080fd5b610165610160366004610821565b610341565b005b61016561043b565b61017860025481565b6040519081526020015b60405180910390f35b60085461019f9067ffffffffffffffff1681565b60405167ffffffffffffffff9091168152602001610182565b6101c061044e565b6040519015158152602001610182565b6101d8610480565b604080516001600160a01b03909316835260ff909116602083015201610182565b610165610494565b60085461021890600160401b900463ffffffff1681565b60405163ffffffff9091168152602001610182565b60408051808201909152600c81526b18971a171896b132ba30971960a11b60208201525b6040516101829190610893565b6102516104eb565b61017860015481565b60035461019f9067ffffffffffffffff1681565b60035461021890600160401b900463ffffffff1681565b6101656102a83660046108e8565b6104fa565b60005461019f9067ffffffffffffffff1681565b61017860055481565b61017860065481565b60005461019f90600160401b900467ffffffffffffffff1681565b60035461021890600160601b900463ffffffff1681565b610251610589565b60405173deaddeaddeaddeaddeaddeaddeaddeaddead00018152602001610182565b61017860045481565b61017860075481565b3373deaddeaddeaddeaddeaddeaddeaddeaddead0001146103ce5760405162461bcd60e51b815260206004820152603b60248201527f4c31426c6f636b3a206f6e6c7920746865206465706f7369746f72206163636f60448201527f756e742063616e20736574204c3120626c6f636b2076616c7565730000000000606482015260840160405180910390fd5b6000805467ffffffffffffffff988916600160401b026fffffffffffffffffffffffffffffffff199091169989169990991798909817909755600194909455600292909255600380549190941667ffffffffffffffff199190911617909255600491909155600555600655565b610443610494565b60a43560a01c600855565b600080610459610480565b506001600160a01b031673eeeeeeeeeeeeeeeeeeeeeeeeeeeeeeeeeeeeeeee141592915050565b60008061048b610593565b90939092509050565b73deaddeaddeaddeaddeaddeaddeaddeaddead00013381146104be57633cc50b456000526004601cfd5b60043560801c60035560143560801c60005560243560015560443560075560643560025560843560045550565b60606104f5610607565b905090565b3373deaddeaddeaddeaddeaddeaddeaddeaddead00011461052e57604051633cc50b4560e01b815260040160405180910390fd5b61053a84848484610696565b604080518381526020810183905260ff8516916001600160a01b038716917f10e43c4d58f3ef4edae7c1ca2e7f02d46b2cadbcc046737038527ed8486ffeb0910160405180910390a350505050565b60606104f561074a565b600080806105c96105c560017f04adb1412b2ddc16fcc0d4538d5c8f07cf9c83abecc6b41f6f69037b708fbcec610940565b5490565b6001600160a01b03811693509050826105fb575073eeeeeeeeeeeeeeeeeeeeeeeeeeeeeeeeeeeeeeee92601292509050565b60a081901c9150509091565b60606000610613610593565b50905073eeeeeeeeeeeeeeeeeeeeeeeeeeeeeeeeeeeeeeed196001600160a01b0382160161065a57505060408051808201909152600381526208aa8960eb1b602082015290565b61069061068b6105c560017fa48b38a4b44951360fbdcbfaaeae5ed6ae92585412e9841b70ec72ed8cd05764610940565b6107d0565b91505090565b6106de6106c460017f04adb1412b2ddc16fcc0d4538d5c8f07cf9c83abecc6b41f6f69037b708fbcec610940565b60ff60a01b60a086901b166001600160a01b038716179055565b61071161070c60017f657c3582c29b3176614e3a33ddd1ec48352696a04e92b3c0566d72010fa8863d610940565b839055565b61074461073f60017fa48b38a4b44951360fbdcbfaaeae5ed6ae92585412e9841b70ec72ed8cd05764610940565b829055565b50505050565b60606000610756610593565b50905073eeeeeeeeeeeeeeeeeeeeeeeeeeeeeeeeeeeeeeed196001600160a01b0382160161079f57505060408051808201909152600581526422ba3432b960d91b602082015290565b61069061068b6105c560017f657c3582c29b3176614e3a33ddd1ec48352696a04e92b3c0566d72010fa8863d610940565b60405160005b82811a156107e6576001016107d6565b80825260208201838152600082820152505060408101604052919050565b803567ffffffffffffffff8116811461081c57600080fd5b919050565b600080600080600080600080610100898b03121561083e57600080fd5b61084789610804565b975061085560208a01610804565b9650604089013595506060890135945061087160808a01610804565b979a969950949793969560a0850135955060c08501359460e001359350915050565b600060208083528351808285015260005b818110156108c0578581018301518582016040015282016108a4565b818111156108d2576000604083870101525b50601f01601f1916929092016040019392505050565b600080600080608085870312156108fe57600080fd5b84356001600160a01b038116811461091557600080fd5b9350602085013560ff8116811461092b57600080fd5b93969395505050506040820135916060013590565b60008282101561096057634e487b7160e01b600052601160045260246000fd5b50039056fea164736f6c634300080f000a","linkReferences":{}},"methodIdentifiers":{"DEPOSITOR_ACCOUNT()":"e591b282","baseFeeScalar()":"c5985918","basefee()":"5cf24969","batcherHash()":"e81b2c6d","blobBaseFee()":"f8206140","blobBaseFeeScalar()":"68d5dca6","gasPayingToken()":"4397dfef","gasPayingTokenName()":"d8444715","gasPayingTokenSymbol()":"550fcdc9","hash()":"09bd5a60","isCustomGasToken()":"21326849","l1FeeOverhead()":"8b239f73","l1FeeScalar()":"9e8c4966","number()":"8381f58a","operatorFeeConstant()":"16d3bc7f","operatorFeeScalar()":"4d5d9a2a","sequenceNumber()":"64ca23ef","setGasPayingToken(address,uint8,bytes32,bytes32)":"71cfaa3f","setL1BlockValues(uint64,uint64,uint256,bytes32,uint64,bytes32,uint256,uint256)":"015d8eb9","setL1BlockValuesEcotone()":"440a5e20","setL1BlockValuesIsthmus()":"098999be","timestamp()":"b80777ea","version()":"54fd4d50"},"id":185}