{"abi":[{"type":"constructor","inputs":[],"stateMutability":"nonpayable"},{"type":"function","name":"MESSAGE_VERSION","inputs":[],"outputs":[{"name":"","type":"uint16","internalType":"uint16"}],"stateMutability":"view"},{"type":"function","name":"MIN_GAS_CALLDATA_OVERHEAD","inputs":[],"outputs":[{"name":"","type":"uint64","internalType":"uint64"}],"stateMutability":"view"},{"type":"function","name":"MIN_GAS_DYNAMIC_OVERHEAD_DENOMINATOR","inputs":[],"outputs":[{"name":"","type":"uint64","internalType":"uint64"}],"stateMutability":"view"},{"type":"function","name":"MIN_GAS_DYNAMIC_OVERHEAD_NUMERATOR","inputs":[],"outputs":[{"name":"","type":"uint64","internalType":"uint64"}],"stateMutability":"view"},{"type":"function","name":"OTHER_MESSENGER","inputs":[],"outputs":[{"name":"","type":"address","internalType":"contract CrossDomainMessenger"}],"stateMutability":"view"},{"type":"function","name":"PORTAL","inputs":[],"outputs":[{"name":"","type":"address","internalType":"contract OptimismPortal"}],"stateMutability":"view"},{"type":"function","name":"RELAY_CALL_OVERHEAD","inputs":[],"outputs":[{"name":"","type":"uint64","internalType":"uint64"}],"stateMutability":"view"},{"type":"function","name":"RELAY_CONSTANT_OVERHEAD","inputs":[],"outputs":[{"name":"","type":"uint64","internalType":"uint64"}],"stateMutability":"view"},{"type":"function","name":"RELAY_GAS_CHECK_BUFFER","inputs":[],"outputs":[{"name":"","type":"uint64","internalType":"uint64"}],"stateMutability":"view"},{"type":"function","name":"RELAY_GAS_CHECK_BUFFER_INCLUDING_APPROVAL","inputs":[],"outputs":[{"name":"","type":"uint64","internalType":"uint64"}],"stateMutability":"view"},{"type":"function","name":"RELAY_RESERVED_GAS","inputs":[],"outputs":[{"name":"","type":"uint64","internalType":"uint64"}],"stateMutability":"view"},{"type":"function","name":"baseGas","inputs":[{"name":"_message","type":"bytes","internalType":"bytes"},{"name":"_minGasLimit","type":"uint32","internalType":"uint32"}],"outputs":[{"name":"","type":"uint64","internalType":"uint64"}],"stateMutability":"pure"},{"type":"function","name":"failedMessages","inputs":[{"name":"","type":"bytes32","internalType":"bytes32"}],"outputs":[{"name":"","type":"bool","internalType":"bool"}],"stateMutability":"view"},{"type":"function","name":"initialize","inputs":[{"name":"_superchainConfig","type":"address","internalType":"contract SuperchainConfig"},{"name":"_portal","type":"address","internalType":"contract OptimismPortal"},{"name":"_systemConfig","type":"address","internalType":"contract SystemConfig"}],"outputs":[],"stateMutability":"nonpayable"},{"type":"function","name":"messageNonce","inputs":[],"outputs":[{"name":"","type":"uint256","internalType":"uint256"}],"stateMutability":"view"},{"type":"function","name":"nativeTokenAddress","inputs":[],"outputs":[{"name":"","type":"address","internalType":"address"}],"stateMutability":"view"},{"type":"function","name":"onApprove","inputs":[{"name":"_owner","type":"address","internalType":"address"},{"name":"","type":"address","internalType":"address"},{"name":"_amount","type":"uint256","internalType":"uint256"},{"name":"_data","type":"bytes","internalType":"bytes"}],"outputs":[{"name":"","type":"bool","internalType":"bool"}],"stateMutability":"nonpayable"},{"type":"function","name":"otherMessenger","inputs":[],"outputs":[{"name":"","type":"address","internalType":"contract CrossDomainMessenger"}],"stateMutability":"view"},{"type":"function","name":"paused","inputs":[],"outputs":[{"name":"","type":"bool","internalType":"bool"}],"stateMutability":"view"},{"type":"function","name":"portal","inputs":[],"outputs":[{"name":"","type":"address","internalType":"contract OptimismPortal"}],"stateMutability":"view"},{"type":"function","name":"relayMessage","inputs":[{"name":"_nonce","type":"uint256","internalType":"uint256"},{"name":"_sender","type":"address","internalType":"address"},{"name":"_target","type":"address","internalType":"address"},{"name":"_value","type":"uint256","internalType":"uint256"},{"name":"_minGasLimit","type":"uint256","internalType":"uint256"},{"name":"_message","type":"bytes","internalType":"bytes"}],"outputs":[],"stateMutability":"payable"},{"type":"function","name":"sendMessage","inputs":[{"name":"_target","type":"address","internalType":"address"},{"name":"_message","type":"bytes","internalType":"bytes"},{"name":"_minGasLimit","type":"uint32","internalType":"uint32"}],"outputs":[],"stateMutability":"payable"},{"type":"function","name":"sendNativeTokenMessage","inputs":[{"name":"_target","type":"address","internalType":"address"},{"name":"_amount","type":"uint256","internalType":"uint256"},{"name":"_message","type":"bytes","internalType":"bytes"},{"name":"_minGasLimit","type":"uint32","internalType":"uint32"}],"outputs":[],"stateMutability":"nonpayable"},{"type":"function","name":"successfulMessages","inputs":[{"name":"","type":"bytes32","internalType":"bytes32"}],"outputs":[{"name":"","type":"bool","internalType":"bool"}],"stateMutability":"view"},{"type":"function","name":"superchainConfig","inputs":[],"outputs":[{"name":"","type":"address","internalType":"contract SuperchainConfig"}],"stateMutability":"view"},{"type":"function","name":"supportsInterface","inputs":[{"name":"interfaceId","type":"bytes4","internalType":"bytes4"}],"outputs":[{"name":"","type":"bool","internalType":"bool"}],"stateMutability":"pure"},{"type":"function","name":"systemConfig","inputs":[],"outputs":[{"name":"","type":"address","internalType":"contract SystemConfig"}],"stateMutability":"view"},{"type":"function","name":"version","inputs":[],"outputs":[{"name":"","type":"string","internalType":"string"}],"stateMutability":"view"},{"type":"function","name":"xDomainMessageSender","inputs":[],"outputs":[{"name":"","type":"address","internalType":"address"}],"stateMutability":"view"},{"type":"event","name":"FailedRelayedMessage","inputs":[{"name":"msgHash","type":"bytes32","indexed":true,"internalType":"bytes32"}],"anonymous":false},{"type":"event","name":"Initialized","inputs":[{"name":"version","type":"uint8","indexed":false,"internalType":"uint8"}],"anonymous":false},{"type":"event","name":"RelayedMessage","inputs":[{"name":"msgHash","type":"bytes32","indexed":true,"internalType":"bytes32"}],"anonymous":false},{"type":"event","name":"SentMessage","inputs":[{"name":"target","type":"address","indexed":true,"internalType":"address"},{"name":"sender","type":"address","indexed":false,"internalType":"address"},{"name":"message","type":"bytes","indexed":false,"internalType":"bytes"},{"name":"messageNonce","type":"uint256","indexed":false,"internalType":"uint256"},{"name":"gasLimit","type":"uint256","indexed":false,"internalType":"uint256"}],"anonymous":false},{"type":"event","name":"SentMessageExtension1","inputs":[{"name":"sender","type":"address","indexed":true,"internalType":"address"},{"name":"value","type":"uint256","indexed":false,"internalType":"uint256"}],"anonymous":false}],"bytecode":{"object":"0x60806040523480156200001157600080fd5b50620000206000808062000026565b6200028e565b600054600160a81b900460ff16158080156200004f57506000546001600160a01b90910460ff16105b806200008657506200006c30620001c860201b620012091760201c565b158015620000865750600054600160a01b900460ff166001145b620000ef5760405162461bcd60e51b815260206004820152602e60248201527f496e697469616c697a61626c653a20636f6e747261637420697320616c72656160448201526d191e481a5b9a5d1a585b1a5e995960921b60648201526084015b60405180910390fd5b6000805460ff60a01b1916600160a01b17905580156200011d576000805460ff60a81b1916600160a81b1790555b60fb80546001600160a01b038087166001600160a01b03199283161790925560fc805486841690831617905560fd80549285169290911691909117905562000179734200000000000000000000000000000000000007620001d7565b8015620001c2576000805460ff60a81b19169055604051600181527f7f26b83ff96e1f2b6a682f133852f6798a09c465da95921460cefb38474024989060200160405180910390a15b50505050565b6001600160a01b03163b151590565b600054600160a81b900460ff16620002465760405162461bcd60e51b815260206004820152602b60248201527f496e697469616c697a61626c653a20636f6e7472616374206973206e6f74206960448201526a6e697469616c697a696e6760a81b6064820152608401620000e6565b60cc546001600160a01b03166200026c5760cc80546001600160a01b03191661dead1790555b60cf80546001600160a01b0319166001600160a01b0392909216919091179055565b6120f7806200029e6000396000f3fe6080604052600436106101c25760003560e01c80635c975abb116100f7578063a4e7f8bd11610095578063d764ad0b11610064578063d764ad0b146104c1578063db505d80146104d4578063e0e593c5146104f4578063ecc704281461051457600080fd5b8063a4e7f8bd14610421578063b1b1b20914610451578063b28ade2514610481578063c0c53b8b146104a157600080fd5b80637f87f520116100d15780637f87f5201461032357806383a74074146103ec5780638cbeeef2146103235780639fce812c1461040357600080fd5b80635c975abb146103a25780636425666b146103b75780636e296e45146103d757600080fd5b80633dbb202b116101645780634c1d6a691161013e5780634c1d6a69146103235780634d0047ee1461033957806354fd4d501461034e5780635644cfdf1461038c57600080fd5b80633dbb202b146102c65780633f827a5a146102db5780634273ca161461030357600080fd5b80630ff754ea116101a05780630ff754ea1461023f5780632828d7e81461027157806333d7e2bd1461028657806335e80ab3146102a657600080fd5b806301ffc9a7146101c7578063028f85f7146101fc5780630c5684981461022a575b600080fd5b3480156101d357600080fd5b506101e76101e2366004611a49565b610537565b60405190151581526020015b60405180910390f35b34801561020857600080fd5b50610211601081565b60405167ffffffffffffffff90911681526020016101f3565b34801561023657600080fd5b50610211603f81565b34801561024b57600080fd5b5060fc546001600160a01b03165b6040516001600160a01b0390911681526020016101f3565b34801561027d57600080fd5b50610211604081565b34801561029257600080fd5b5060fd54610259906001600160a01b031681565b3480156102b257600080fd5b5060fb54610259906001600160a01b031681565b6102d96102d4366004611aed565b61056e565b005b3480156102e757600080fd5b506102f0600181565b60405161ffff90911681526020016101f3565b34801561030f57600080fd5b506101e761031e366004611b54565b61069a565b34801561032f57600080fd5b50610211619c4081565b34801561034557600080fd5b50610259610751565b34801561035a57600080fd5b5061037f604051806040016040528060058152602001640322e342e360dc1b81525081565b6040516101f39190611c1f565b34801561039857600080fd5b5061021161138881565b3480156103ae57600080fd5b506101e7610760565b3480156103c357600080fd5b5060fc54610259906001600160a01b031681565b3480156103e357600080fd5b506102596107ce565b3480156103f857600080fd5b5061021162030d4081565b34801561040f57600080fd5b5060cf546001600160a01b0316610259565b34801561042d57600080fd5b506101e761043c366004611c32565b60ce6020526000908152604090205460ff1681565b34801561045d57600080fd5b506101e761046c366004611c32565b60cb6020526000908152604090205460ff1681565b34801561048d57600080fd5b5061021161049c366004611c4b565b61085c565b3480156104ad57600080fd5b506102d96104bc366004611c9f565b6108cc565b6102d96104cf366004611cea565b610a40565b3480156104e057600080fd5b5060cf54610259906001600160a01b031681565b34801561050057600080fd5b506102d961050f366004611d70565b6111df565b34801561052057600080fd5b506105296111f4565b6040519081526020016101f3565b60006001600160e01b03198216632139e50b60e11b148061056857506001600160e01b031982166301ffc9a760e01b145b92915050565b60cf546105ed906001600160a01b031661058985858561085c565b3463d764ad0b60e01b61059a6111f4565b338a34898c8c6040516024016105b69796959493929190611e0a565b60408051601f198184030181529190526020810180516001600160e01b03166001600160e01b031990931692909217909152611218565b836001600160a01b03167fcb0f7ffd78f9aee47a248fae8db181db6eee833039123e026dcbff529522e52a3385856106236111f4565b86604051610635959493929190611e5d565b60405180910390a260405134815233907f8ebb2ec2465bdb2a06a66fc37a0963af8a2a6a1479d81d56fdb8cbb98096d5469060200160405180910390a2505060cd80546001600160f01b03808216600101166001600160f01b03199091161790555050565b60006106a46112cf565b6001600160a01b0316336001600160a01b03161461071b5760405162461bcd60e51b815260206004820152602960248201527f6f6e6c7920616363657074206e617469766520746f6b656e20617070726f76656044820152682063616c6c6261636b60b81b60648201526084015b60405180910390fd5b60008036600061072b878761133d565b93509350935093506107418a858a8686866113cb565b5060019998505050505050505050565b600061075b6112cf565b905090565b60fb5460408051635c975abb60e01b815290516000926001600160a01b031691635c975abb9160048083019260209291908290030181865afa1580156107aa573d6000803e3d6000fd5b505050506040513d601f19601f8201168201806040525081019061075b9190611ea0565b60cc546000906001600160a01b031661deac190161084c5760405162461bcd60e51b815260206004820152603560248201527f43726f7373446f6d61696e4d657373656e6765723a2078446f6d61696e4d65736044820152741cd859d954d95b99195c881a5cc81b9bdd081cd95d605a1b6064820152608401610712565b5060cc546001600160a01b031690565b6000611388619c4080603f610878604063ffffffff8816611ed8565b6108829190611f08565b61088d601088611ed8565b61089a9062030d40611f3d565b6108a49190611f3d565b6108ae9190611f3d565b6108b89190611f3d565b6108c29190611f3d565b90505b9392505050565b600054600160a81b900460ff16158080156108f457506000546001600160a01b90910460ff16105b806109155750303b1580156109155750600054600160a01b900460ff166001145b6109785760405162461bcd60e51b815260206004820152602e60248201527f496e697469616c697a61626c653a20636f6e747261637420697320616c72656160448201526d191e481a5b9a5d1a585b1a5e995960921b6064820152608401610712565b6000805460ff60a01b1916600160a01b17905580156109a5576000805460ff60a81b1916600160a81b1790555b60fb80546001600160a01b038087166001600160a01b03199283161790925560fc805486841690831617905560fd8054928516929091169190911790556109f26007602160991b01611571565b8015610a3a576000805460ff60a81b19169055604051600181527f7f26b83ff96e1f2b6a682f133852f6798a09c465da95921460cefb38474024989060200160405180910390a15b50505050565b610a48610760565b15610a955760405162461bcd60e51b815260206004820152601f60248201527f4c312043726f7373446f6d61696e4d657373656e6765723a20706175736564006044820152606401610712565b3415610af45760405162461bcd60e51b815260206004820152602860248201527f43726f7373446f6d61696e4d657373656e6765723a2076616c7565206d757374604482015267206265207a65726f60c01b6064820152608401610712565b60f087901c60028110610b855760405162461bcd60e51b815260206004820152604d60248201527f43726f7373446f6d61696e4d657373656e6765723a206f6e6c7920766572736960448201527f6f6e2030206f722031206d657373616765732061726520737570706f7274656460648201526c20617420746869732074696d6560981b608482015260a401610712565b8061ffff16600003610c60576000610bd6878986868080601f0160208091040260200160405190810160405280939291908181526020018383808284376000920191909152508f9250611625915050565b600081815260cb602052604090205490915060ff1615610c5e5760405162461bcd60e51b815260206004820152603760248201527f43726f7373446f6d61696e4d657373656e6765723a206c65676163792077697460448201527f6864726177616c20616c72656164792072656c617965640000000000000000006064820152608401610712565b505b6000610ca6898989898989898080601f01602080910402602001604051908101604052809392919081815260200183838082843760009201919091525061164492505050565b90506000610cb26112cf565b9050610cbc611667565b15610d0657600082815260ce602052604090205460ff1615610ce057610ce0611f69565b8615610d015760fc54610d01906001600160a01b038381169116308a611703565b610d7d565b600082815260ce602052604090205460ff16610d7d5760405162461bcd60e51b815260206004820152603060248201527f43726f7373446f6d61696e4d657373656e6765723a206d65737361676520636160448201526f1b9b9bdd081899481c995c1b185e595960821b6064820152608401610712565b610d868861175d565b158015610da55750806001600160a01b0316886001600160a01b031614155b610e3d5760405162461bcd60e51b815260206004820152605960248201527f43726f7373446f6d61696e4d657373656e6765723a2063616e6e6f742073656e60448201527f64206d65737361676520746f20626c6f636b65642073797374656d206164647260648201527f657373206f72206e6174697665546f6b656e4164647265737300000000000000608482015260a401610712565b600082815260cb602052604090205460ff1615610ebb5760405162461bcd60e51b815260206004820152603660248201527f43726f7373446f6d61696e4d657373656e6765723a206d6573736167652068616044820152751cc8185b1c9958591e481899595b881c995b185e595960521b6064820152608401610712565b610eda86610ecb619c4080611f3d565b67ffffffffffffffff16611786565b1580610ef3575060cc546001600160a01b031661dead14155b15610f6157600082815260ce6020526040808220805460ff191660011790555183917f99d0e048484baa1b1540b1367cb128acd7ab2946d1ed91ec10e3c85e4bf51b8f91a26000193201610f595760405162461bcd60e51b815260040161071290611f7f565b5050506111d6565b60cc80546001600160a01b0319166001600160a01b038b161790558615801590610f9357506001600160a01b03881615155b1561100d5760405163095ea7b360e01b81526001600160a01b0389811660048301526024820189905282169063095ea7b3906044016020604051808303816000875af1158015610fe7573d6000803e3d6000fd5b505050506040513d601f19601f8201168201806040525081019061100b9190611ea0565b505b600061105f89619c405a6110219190611fcc565b600089898080601f0160208091040260200160405190810160405280939291908181526020018383808284376000920191909152506117a492505050565b9050871580159061107857506001600160a01b03891615155b156110f25760405163095ea7b360e01b81526001600160a01b038a811660048301526000602483015283169063095ea7b3906044016020604051808303816000875af11580156110cc573d6000803e3d6000fd5b505050506040513d601f19601f820116820180604052508101906110f09190611ea0565b505b60cc80546001600160a01b03191661dead179055801561117057600083815260cb602052604090205460ff161561112b5761112b611f69565b600083815260cb6020526040808220805460ff191660011790555184917f4641df4a962071e12719d8c8c8e5ac7fc4d97b927346a3d7a335b1f7517e133c91a26111d1565b600083815260ce6020526040808220805460ff191660011790555184917f99d0e048484baa1b1540b1367cb128acd7ab2946d1ed91ec10e3c85e4bf51b8f91a260001932016111d15760405162461bcd60e51b815260040161071290611f7f565b505050505b50505050505050565b6111ed3386868487876113cb565b5050505050565b60cd546001600160f01b0316600160f01b1790565b6001600160a01b03163b151590565b341561125c5760405162461bcd60e51b8152602060048201526013602482015272088cadcf240c8cae0dee6d2e8d2dcce408aa89606b1b6044820152606401610712565b60fc5460405163173cab2b60e31b81526001600160a01b039091169063b9e55958906112979087908690819089906000908990600401611fe3565b600060405180830381600087803b1580156112b157600080fd5b505af11580156112c5573d6000803e3d6000fd5b5050505050505050565b60fd546040805163268023f760e11b815290516000926001600160a01b031691634d0047ee9160048083019260209291908290030181865afa158015611319573d6000803e3d6000fd5b505050506040513d601f19601f8201168201806040525081019061075b9190612034565b600080368160188510156113ad5760405162461bcd60e51b815260206004820152603160248201527f496e76616c6964206f6e417070726f7665206461746120666f72204c3143726f60448201527039b9a237b6b0b4b726b2b9b9b2b733b2b960791b6064820152608401610712565b505050823560601c93601484013560e01c9360180192601719019150565b831561146c5760006113db6112cf565b90506113f26001600160a01b038216883088611703565b60fc5460405163095ea7b360e01b81526001600160a01b039182166004820152602481018790529082169063095ea7b3906044016020604051808303816000875af1158015611445573d6000803e3d6000fd5b505050506040513d601f19601f820116820180604052508101906114699190611ea0565b50505b60cf546114b4906001600160a01b031661148784848761085c565b8663d764ad0b60e01b6114986111f4565b8b8b8b8b8b8b6040516024016105b69796959493929190611e0a565b846001600160a01b03167fcb0f7ffd78f9aee47a248fae8db181db6eee833039123e026dcbff529522e52a8784846114ea6111f4565b886040516114fc959493929190611e5d565b60405180910390a2856001600160a01b03167f8ebb2ec2465bdb2a06a66fc37a0963af8a2a6a1479d81d56fdb8cbb98096d5468560405161153f91815260200190565b60405180910390a2505060cd80546001600160f01b03808216600101166001600160f01b031990911617905550505050565b600054600160a81b900460ff166115de5760405162461bcd60e51b815260206004820152602b60248201527f496e697469616c697a61626c653a20636f6e7472616374206973206e6f74206960448201526a6e697469616c697a696e6760a81b6064820152608401610712565b60cc546001600160a01b03166116035760cc80546001600160a01b03191661dead1790555b60cf80546001600160a01b0319166001600160a01b0392909216919091179055565b6000611633858585856117be565b805190602001209050949350505050565b600061165487878787878761180b565b8051906020012090509695505050505050565b60fc546000906001600160a01b03163314801561075b575060cf5460fc5460408051634dfb16c160e11b815290516001600160a01b039384169390921691639bf62d82916004808201926020929091908290030181865afa1580156116d0573d6000803e3d6000fd5b505050506040513d601f19601f820116820180604052508101906116f49190612034565b6001600160a01b031614905090565b604080516001600160a01b0385811660248301528416604482015260648082018490528251808303909101815260849091019091526020810180516001600160e01b03166323b872dd60e01b179052610a3a90859061185e565b60006001600160a01b03821630148061056857505060fc546001600160a01b0390811691161490565b600080603f83619c4001026040850201603f5a021015949350505050565b600080600080845160208601878a8af19695505050505050565b6060848484846040516024016117d79493929190612051565b60408051601f198184030181529190526020810180516001600160e01b031663cbd4ece960e01b1790529050949350505050565b60608686868686866040516024016118289695949392919061208e565b60408051601f198184030181529190526020810180516001600160e01b031663d764ad0b60e01b17905290509695505050505050565b60006118b3826040518060400160405280602081526020017f5361666545524332303a206c6f772d6c6576656c2063616c6c206661696c6564815250856001600160a01b03166119359092919063ffffffff16565b80519091501561193057808060200190518101906118d19190611ea0565b6119305760405162461bcd60e51b815260206004820152602a60248201527f5361666545524332303a204552433230206f7065726174696f6e20646964206e6044820152691bdd081cdd58d8d9595960b21b6064820152608401610712565b505050565b60606108c28484600085856001600160a01b0385163b6119975760405162461bcd60e51b815260206004820152601d60248201527f416464726573733a2063616c6c20746f206e6f6e2d636f6e74726163740000006044820152606401610712565b600080866001600160a01b031685876040516119b391906120ce565b60006040518083038185875af1925050503d80600081146119f0576040519150601f19603f3d011682016040523d82523d6000602084013e6119f5565b606091505b5091509150611a05828286611a10565b979650505050505050565b60608315611a1f5750816108c5565b825115611a2f5782518084602001fd5b8160405162461bcd60e51b81526004016107129190611c1f565b600060208284031215611a5b57600080fd5b81356001600160e01b0319811681146108c557600080fd5b6001600160a01b0381168114611a8857600080fd5b50565b60008083601f840112611a9d57600080fd5b50813567ffffffffffffffff811115611ab557600080fd5b602083019150836020828501011115611acd57600080fd5b9250929050565b803563ffffffff81168114611ae857600080fd5b919050565b60008060008060608587031215611b0357600080fd5b8435611b0e81611a73565b9350602085013567ffffffffffffffff811115611b2a57600080fd5b611b3687828801611a8b565b9094509250611b49905060408601611ad4565b905092959194509250565b600080600080600060808688031215611b6c57600080fd5b8535611b7781611a73565b94506020860135611b8781611a73565b935060408601359250606086013567ffffffffffffffff811115611baa57600080fd5b611bb688828901611a8b565b969995985093965092949392505050565b60005b83811015611be2578181015183820152602001611bca565b83811115610a3a5750506000910152565b60008151808452611c0b816020860160208601611bc7565b601f01601f19169290920160200192915050565b6020815260006108c56020830184611bf3565b600060208284031215611c4457600080fd5b5035919050565b600080600060408486031215611c6057600080fd5b833567ffffffffffffffff811115611c7757600080fd5b611c8386828701611a8b565b9094509250611c96905060208501611ad4565b90509250925092565b600080600060608486031215611cb457600080fd5b8335611cbf81611a73565b92506020840135611ccf81611a73565b91506040840135611cdf81611a73565b809150509250925092565b600080600080600080600060c0888a031215611d0557600080fd5b873596506020880135611d1781611a73565b95506040880135611d2781611a73565b9450606088013593506080880135925060a088013567ffffffffffffffff811115611d5157600080fd5b611d5d8a828b01611a8b565b989b979a50959850939692959293505050565b600080600080600060808688031215611d8857600080fd5b8535611d9381611a73565b945060208601359350604086013567ffffffffffffffff811115611db657600080fd5b611dc288828901611a8b565b9094509250611dd5905060608701611ad4565b90509295509295909350565b81835281816020850137506000828201602090810191909152601f909101601f19169091010190565b8781526001600160a01b038781166020830152861660408201526060810185905263ffffffff8416608082015260c060a08201819052600090611e509083018486611de1565b9998505050505050505050565b6001600160a01b0386168152608060208201819052600090611e829083018688611de1565b905083604083015263ffffffff831660608301529695505050505050565b600060208284031215611eb257600080fd5b815180151581146108c557600080fd5b634e487b7160e01b600052601160045260246000fd5b600067ffffffffffffffff80831681851681830481118215151615611eff57611eff611ec2565b02949350505050565b600067ffffffffffffffff80841680611f3157634e487b7160e01b600052601260045260246000fd5b92169190910492915050565b600067ffffffffffffffff808316818516808303821115611f6057611f60611ec2565b01949350505050565b634e487b7160e01b600052600160045260246000fd5b6020808252602d908201527f43726f7373446f6d61696e4d657373656e6765723a206661696c656420746f2060408201526c72656c6179206d65737361676560981b606082015260800190565b600082821015611fde57611fde611ec2565b500390565b60018060a01b038716815285602082015284604082015267ffffffffffffffff84166060820152821515608082015260c060a0820152600061202860c0830184611bf3565b98975050505050505050565b60006020828403121561204657600080fd5b81516108c581611a73565b6001600160a01b0385811682528416602082015260806040820181905260009061207d90830185611bf3565b905082606083015295945050505050565b8681526001600160a01b03868116602083015285166040820152606081018490526080810183905260c060a0820181905260009061202890830184611bf3565b600082516120e0818460208701611bc7565b919091019291505056fea164736f6c634300080f000a","linkReferences":{}},"methodIdentifiers":{"MESSAGE_VERSION()":"3f827a5a","MIN_GAS_CALLDATA_OVERHEAD()":"028f85f7","MIN_GAS_DYNAMIC_OVERHEAD_DENOMINATOR()":"0c568498","MIN_GAS_DYNAMIC_OVERHEAD_NUMERATOR()":"2828d7e8","OTHER_MESSENGER()":"9fce812c","PORTAL()":"0ff754ea","RELAY_CALL_OVERHEAD()":"4c1d6a69","RELAY_CONSTANT_OVERHEAD()":"83a74074","RELAY_GAS_CHECK_BUFFER()":"5644cfdf","RELAY_GAS_CHECK_BUFFER_INCLUDING_APPROVAL()":"7f87f520","RELAY_RESERVED_GAS()":"8cbeeef2","baseGas(bytes,uint32)":"b28ade25","failedMessages(bytes32)":"a4e7f8bd","initialize(address,address,address)":"c0c53b8b","messageNonce()":"ecc70428","nativeTokenAddress()":"4d0047ee","onApprove(address,address,uint256,bytes)":"4273ca16","otherMessenger()":"db505d80","paused()":"5c975abb","portal()":"6425666b","relayMessage(uint256,address,address,uint256,uint256,bytes)":"d764ad0b","sendMessage(address,bytes,uint32)":"3dbb202b","sendNativeTokenMessage(address,uint256,bytes,uint32)":"e0e593c5","successfulMessages(bytes32)":"b1b1b209","superchainConfig()":"35e80ab3","supportsInterface(bytes4)":"01ffc9a7","systemConfig()":"33d7e2bd","version()":"54fd4d50","xDomainMessageSender()":"6e296e45"},"id":165}