{"abi":[{"type":"constructor","inputs":[],"stateMutability":"nonpayable"},{"type":"function","name":"MESSENGER","inputs":[],"outputs":[{"name":"","type":"address","internalType":"contract CrossDomainMessenger"}],"stateMutability":"view"},{"type":"function","name":"OTHER_BRIDGE","inputs":[],"outputs":[{"name":"","type":"address","internalType":"contract StandardBridge"}],"stateMutability":"view"},{"type":"function","name":"bridgeERC721","inputs":[{"name":"_localToken","type":"address","internalType":"address"},{"name":"_remoteToken","type":"address","internalType":"address"},{"name":"_tokenId","type":"uint256","internalType":"uint256"},{"name":"_minGasLimit","type":"uint32","internalType":"uint32"},{"name":"_extraData","type":"bytes","internalType":"bytes"}],"outputs":[],"stateMutability":"nonpayable"},{"type":"function","name":"bridgeERC721To","inputs":[{"name":"_localToken","type":"address","internalType":"address"},{"name":"_remoteToken","type":"address","internalType":"address"},{"name":"_to","type":"address","internalType":"address"},{"name":"_tokenId","type":"uint256","internalType":"uint256"},{"name":"_minGasLimit","type":"uint32","internalType":"uint32"},{"name":"_extraData","type":"bytes","internalType":"bytes"}],"outputs":[],"stateMutability":"nonpayable"},{"type":"function","name":"deposits","inputs":[{"name":"","type":"address","internalType":"address"},{"name":"","type":"address","internalType":"address"},{"name":"","type":"uint256","internalType":"uint256"}],"outputs":[{"name":"","type":"bool","internalType":"bool"}],"stateMutability":"view"},{"type":"function","name":"finalizeBridgeERC721","inputs":[{"name":"_localToken","type":"address","internalType":"address"},{"name":"_remoteToken","type":"address","internalType":"address"},{"name":"_from","type":"address","internalType":"address"},{"name":"_to","type":"address","internalType":"address"},{"name":"_tokenId","type":"uint256","internalType":"uint256"},{"name":"_extraData","type":"bytes","internalType":"bytes"}],"outputs":[],"stateMutability":"nonpayable"},{"type":"function","name":"initialize","inputs":[{"name":"_messenger","type":"address","internalType":"contract CrossDomainMessenger"},{"name":"_superchainConfig","type":"address","internalType":"contract SuperchainConfig"}],"outputs":[],"stateMutability":"nonpayable"},{"type":"function","name":"messenger","inputs":[],"outputs":[{"name":"","type":"address","internalType":"contract CrossDomainMessenger"}],"stateMutability":"view"},{"type":"function","name":"otherBridge","inputs":[],"outputs":[{"name":"","type":"address","internalType":"contract StandardBridge"}],"stateMutability":"view"},{"type":"function","name":"paused","inputs":[],"outputs":[{"name":"","type":"bool","internalType":"bool"}],"stateMutability":"view"},{"type":"function","name":"superchainConfig","inputs":[],"outputs":[{"name":"","type":"address","internalType":"contract SuperchainConfig"}],"stateMutability":"view"},{"type":"function","name":"version","inputs":[],"outputs":[{"name":"","type":"string","internalType":"string"}],"stateMutability":"view"},{"type":"event","name":"ERC721BridgeFinalized","inputs":[{"name":"localToken","type":"address","indexed":true,"internalType":"address"},{"name":"remoteToken","type":"address","indexed":true,"internalType":"address"},{"name":"from","type":"address","indexed":true,"internalType":"address"},{"name":"to","type":"address","indexed":false,"internalType":"address"},{"name":"tokenId","type":"uint256","indexed":false,"internalType":"uint256"},{"name":"extraData","type":"bytes","indexed":false,"internalType":"bytes"}],"anonymous":false},{"type":"event","name":"ERC721BridgeInitiated","inputs":[{"name":"localToken","type":"address","indexed":true,"internalType":"address"},{"name":"remoteToken","type":"address","indexed":true,"internalType":"address"},{"name":"from","type":"address","indexed":true,"internalType":"address"},{"name":"to","type":"address","indexed":false,"internalType":"address"},{"name":"tokenId","type":"uint256","indexed":false,"internalType":"uint256"},{"name":"extraData","type":"bytes","indexed":false,"internalType":"bytes"}],"anonymous":false},{"type":"event","name":"Initialized","inputs":[{"name":"version","type":"uint8","indexed":false,"internalType":"uint8"}],"anonymous":false}],"bytecode":{"object":"0x60806040523480156200001157600080fd5b506200001f60008062000025565b62000234565b600054610100900460ff1615808015620000465750600054600160ff909116105b8062000076575062000063306200018a60201b620008101760201c565b15801562000076575060005460ff166001145b620000df5760405162461bcd60e51b815260206004820152602e60248201527f496e697469616c697a61626c653a20636f6e747261637420697320616c72656160448201526d191e481a5b9a5d1a585b1a5e995960921b60648201526084015b60405180910390fd5b6000805460ff19166001179055801562000103576000805461ff0019166101001790555b603280546001600160a01b0319166001600160a01b0384161790556200013e8373420000000000000000000000000000000000001462000199565b801562000185576000805461ff0019169055604051600181527f7f26b83ff96e1f2b6a682f133852f6798a09c465da95921460cefb38474024989060200160405180910390a15b505050565b6001600160a01b03163b151590565b600054610100900460ff16620002065760405162461bcd60e51b815260206004820152602b60248201527f496e697469616c697a61626c653a20636f6e7472616374206973206e6f74206960448201526a6e697469616c697a696e6760a81b6064820152608401620000d6565b600180546001600160a01b039384166001600160a01b03199182161790915560028054929093169116179055565b610f0880620002446000396000f3fe608060405234801561001057600080fd5b50600436106100b45760003560e01c80635d93a3fc116100715780635d93a3fc1461016d578063761f4493146101a15780637f46ddb2146101b4578063927ede2d146101c5578063aa557452146101d6578063c89701a2146101e957600080fd5b806335e80ab3146100b95780633687011a146100e95780633cb747bf146100fe578063485cc9551461011157806354fd4d50146101245780635c975abb14610155575b600080fd5b6032546100cc906001600160a01b031681565b6040516001600160a01b0390911681526020015b60405180910390f35b6100fc6100f7366004610b63565b6101fc565b005b6001546100cc906001600160a01b031681565b6100fc61011f366004610be6565b61027e565b610148604051806040016040528060058152602001640322e312e360dc1b81525081565b6040516100e09190610c6c565b61015d6103b5565b60405190151581526020016100e0565b61015d61017b366004610c86565b603160209081526000938452604080852082529284528284209052825290205460ff1681565b6100fc6101af366004610cc7565b610428565b6002546001600160a01b03166100cc565b6001546001600160a01b03166100cc565b6100fc6101e4366004610d5f565b610788565b6002546100cc906001600160a01b031681565b333b156102665760405162461bcd60e51b815260206004820152602d60248201527f4552433732314272696467653a206163636f756e74206973206e6f742065787460448201526c195c9b985b1b1e481bdddb9959609a1b60648201526084015b60405180910390fd5b610276868633338888888861081f565b505050505050565b600054610100900460ff161580801561029e5750600054600160ff909116105b806102b85750303b1580156102b8575060005460ff166001145b61031b5760405162461bcd60e51b815260206004820152602e60248201527f496e697469616c697a61626c653a20636f6e747261637420697320616c72656160448201526d191e481a5b9a5d1a585b1a5e995960921b606482015260840161025d565b6000805460ff19166001179055801561033e576000805461ff0019166101001790555b603280546001600160a01b0319166001600160a01b03841617905561036a836014602160991b01610a50565b80156103b0576000805461ff0019169055604051600181527f7f26b83ff96e1f2b6a682f133852f6798a09c465da95921460cefb38474024989060200160405180910390a15b505050565b60325460408051635c975abb60e01b815290516000926001600160a01b031691635c975abb9160048083019260209291908290030181865afa1580156103ff573d6000803e3d6000fd5b505050506040513d601f19601f820116820180604052508101906104239190610dd6565b905090565b6001546001600160a01b0316331480156104bd575060025460015460408051636e296e4560e01b815290516001600160a01b039384169390921691636e296e45916004808201926020929091908290030181865afa15801561048e573d6000803e3d6000fd5b505050506040513d601f19601f820116820180604052508101906104b29190610df8565b6001600160a01b0316145b61052f5760405162461bcd60e51b815260206004820152603f60248201527f4552433732314272696467653a2066756e6374696f6e2063616e206f6e6c792060448201527f62652063616c6c65642066726f6d20746865206f746865722062726964676500606482015260840161025d565b6105376103b5565b1561057d5760405162461bcd60e51b8152602060048201526016602482015275130c515490cdcc8c509c9a5919d94e881c185d5cd95960521b604482015260640161025d565b306001600160a01b038816036105e85760405162461bcd60e51b815260206004820152602a60248201527f4c314552433732314272696467653a206c6f63616c20746f6b656e2063616e6e60448201526937ba1031329039b2b63360b11b606482015260840161025d565b6001600160a01b038088166000908152603160209081526040808320938a1683529281528282208683529052205460ff1615156001146106905760405162461bcd60e51b815260206004820152603960248201527f4c314552433732314272696467653a20546f6b656e204944206973206e6f742060448201527f657363726f77656420696e20746865204c312042726964676500000000000000606482015260840161025d565b6001600160a01b0387811660008181526031602090815260408083208b86168452825280832088845290915290819020805460ff1916905551632142170760e11b8152306004820152918616602483015260448201859052906342842e0e90606401600060405180830381600087803b15801561070c57600080fd5b505af1158015610720573d6000803e3d6000fd5b50505050846001600160a01b0316866001600160a01b0316886001600160a01b03167f1f39bf6707b5d608453e0ae4c067b562bcc4c85c0f562ef5d2c774d2e7f131ac878787876040516107779493929190610e3e565b60405180910390a450505050505050565b6001600160a01b0385166107f75760405162461bcd60e51b815260206004820152603060248201527f4552433732314272696467653a206e667420726563697069656e742063616e6e60448201526f6f74206265206164647265737328302960801b606482015260840161025d565b610807878733888888888861081f565b50505050505050565b6001600160a01b03163b151590565b6001600160a01b03871661088f5760405162461bcd60e51b815260206004820152603160248201527f4c314552433732314272696467653a2072656d6f746520746f6b656e2063616e6044820152706e6f74206265206164647265737328302960781b606482015260840161025d565b600063761f449360e01b888a89898988886040516024016108b69796959493929190610e70565b60408051601f19818403018152918152602080830180516001600160e01b03166001600160e01b031995909516949094179093526001600160a01b038c81166000818152603186528381208e8416825286528381208b825290955293829020805460ff1916600117905590516323b872dd60e01b8152908a166004820152306024820152604481018890529092506323b872dd90606401600060405180830381600087803b15801561096757600080fd5b505af115801561097b573d6000803e3d6000fd5b5050600154600254604051633dbb202b60e01b81526001600160a01b039283169450633dbb202b93506109b8929091169085908990600401610ec1565b600060405180830381600087803b1580156109d257600080fd5b505af11580156109e6573d6000803e3d6000fd5b50505050866001600160a01b0316886001600160a01b03168a6001600160a01b03167fb7460e2a880f256ebef3406116ff3eee0cee51ebccdc2a40698f87ebb2e9c1a589898888604051610a3d9493929190610e3e565b60405180910390a4505050505050505050565b600054610100900460ff16610abb5760405162461bcd60e51b815260206004820152602b60248201527f496e697469616c697a61626c653a20636f6e7472616374206973206e6f74206960448201526a6e697469616c697a696e6760a81b606482015260840161025d565b600180546001600160a01b039384166001600160a01b03199182161790915560028054929093169116179055565b6001600160a01b0381168114610afe57600080fd5b50565b803563ffffffff81168114610b1557600080fd5b919050565b60008083601f840112610b2c57600080fd5b50813567ffffffffffffffff811115610b4457600080fd5b602083019150836020828501011115610b5c57600080fd5b9250929050565b60008060008060008060a08789031215610b7c57600080fd5b8635610b8781610ae9565b95506020870135610b9781610ae9565b945060408701359350610bac60608801610b01565b9250608087013567ffffffffffffffff811115610bc857600080fd5b610bd489828a01610b1a565b979a9699509497509295939492505050565b60008060408385031215610bf957600080fd5b8235610c0481610ae9565b91506020830135610c1481610ae9565b809150509250929050565b6000815180845260005b81811015610c4557602081850181015186830182015201610c29565b81811115610c57576000602083870101525b50601f01601f19169290920160200192915050565b602081526000610c7f6020830184610c1f565b9392505050565b600080600060608486031215610c9b57600080fd5b8335610ca681610ae9565b92506020840135610cb681610ae9565b929592945050506040919091013590565b600080600080600080600060c0888a031215610ce257600080fd5b8735610ced81610ae9565b96506020880135610cfd81610ae9565b95506040880135610d0d81610ae9565b94506060880135610d1d81610ae9565b93506080880135925060a088013567ffffffffffffffff811115610d4057600080fd5b610d4c8a828b01610b1a565b989b979a50959850939692959293505050565b600080600080600080600060c0888a031215610d7a57600080fd5b8735610d8581610ae9565b96506020880135610d9581610ae9565b95506040880135610da581610ae9565b945060608801359350610dba60808901610b01565b925060a088013567ffffffffffffffff811115610d4057600080fd5b600060208284031215610de857600080fd5b81518015158114610c7f57600080fd5b600060208284031215610e0a57600080fd5b8151610c7f81610ae9565b81835281816020850137506000828201602090810191909152601f909101601f19169091010190565b60018060a01b0385168152836020820152606060408201526000610e66606083018486610e15565b9695505050505050565b6001600160a01b03888116825287811660208301528681166040830152851660608201526080810184905260c060a08201819052600090610eb49083018486610e15565b9998505050505050505050565b6001600160a01b0384168152606060208201819052600090610ee590830185610c1f565b905063ffffffff8316604083015294935050505056fea164736f6c634300080f000a","linkReferences":{}},"methodIdentifiers":{"MESSENGER()":"927ede2d","OTHER_BRIDGE()":"7f46ddb2","bridgeERC721(address,address,uint256,uint32,bytes)":"3687011a","bridgeERC721To(address,address,address,uint256,uint32,bytes)":"aa557452","deposits(address,address,uint256)":"5d93a3fc","finalizeBridgeERC721(address,address,address,address,uint256,bytes)":"761f4493","initialize(address,address)":"485cc955","messenger()":"3cb747bf","otherBridge()":"c89701a2","paused()":"5c975abb","superchainConfig()":"35e80ab3","version()":"54fd4d50"},"id":166}