{"abi":[{"type":"constructor","inputs":[],"stateMutability":"nonpayable"},{"type":"receive","stateMutability":"payable"},{"type":"function","name":"MESSENGER","inputs":[],"outputs":[{"name":"","type":"address","internalType":"contract CrossDomainMessenger"}],"stateMutability":"view"},{"type":"function","name":"OTHER_BRIDGE","inputs":[],"outputs":[{"name":"","type":"address","internalType":"contract StandardBridge"}],"stateMutability":"view"},{"type":"function","name":"bridgeERC20","inputs":[{"name":"_localToken","type":"address","internalType":"address"},{"name":"_remoteToken","type":"address","internalType":"address"},{"name":"_amount","type":"uint256","internalType":"uint256"},{"name":"_minGasLimit","type":"uint32","internalType":"uint32"},{"name":"_extraData","type":"bytes","internalType":"bytes"}],"outputs":[],"stateMutability":"nonpayable"},{"type":"function","name":"bridgeERC20To","inputs":[{"name":"_localToken","type":"address","internalType":"address"},{"name":"_remoteToken","type":"address","internalType":"address"},{"name":"_to","type":"address","internalType":"address"},{"name":"_amount","type":"uint256","internalType":"uint256"},{"name":"_minGasLimit","type":"uint32","internalType":"uint32"},{"name":"_extraData","type":"bytes","internalType":"bytes"}],"outputs":[],"stateMutability":"nonpayable"},{"type":"function","name":"bridgeETH","inputs":[{"name":"_amount","type":"uint256","internalType":"uint256"},{"name":"_minGasLimit","type":"uint32","internalType":"uint32"},{"name":"_extraData","type":"bytes","internalType":"bytes"}],"outputs":[],"stateMutability":"payable"},{"type":"function","name":"bridgeETHTo","inputs":[{"name":"_to","type":"address","internalType":"address"},{"name":"_amount","type":"uint256","internalType":"uint256"},{"name":"_minGasLimit","type":"uint32","internalType":"uint32"},{"name":"_extraData","type":"bytes","internalType":"bytes"}],"outputs":[],"stateMutability":"payable"},{"type":"function","name":"bridgeNativeToken","inputs":[{"name":"_amount","type":"uint256","internalType":"uint256"},{"name":"_minGasLimit","type":"uint32","internalType":"uint32"},{"name":"_extraData","type":"bytes","internalType":"bytes"}],"outputs":[],"stateMutability":"payable"},{"type":"function","name":"bridgeNativeTokenTo","inputs":[{"name":"_to","type":"address","internalType":"address"},{"name":"_amount","type":"uint256","internalType":"uint256"},{"name":"_minGasLimit","type":"uint32","internalType":"uint32"},{"name":"_extraData","type":"bytes","internalType":"bytes"}],"outputs":[],"stateMutability":"payable"},{"type":"function","name":"deposits","inputs":[{"name":"","type":"address","internalType":"address"},{"name":"","type":"address","internalType":"address"}],"outputs":[{"name":"","type":"uint256","internalType":"uint256"}],"stateMutability":"view"},{"type":"function","name":"finalizeBridgeERC20","inputs":[{"name":"_localToken","type":"address","internalType":"address"},{"name":"_remoteToken","type":"address","internalType":"address"},{"name":"_from","type":"address","internalType":"address"},{"name":"_to","type":"address","internalType":"address"},{"name":"_amount","type":"uint256","internalType":"uint256"},{"name":"_extraData","type":"bytes","internalType":"bytes"}],"outputs":[],"stateMutability":"nonpayable"},{"type":"function","name":"finalizeBridgeETH","inputs":[{"name":"_from","type":"address","internalType":"address"},{"name":"_to","type":"address","internalType":"address"},{"name":"_amount","type":"uint256","internalType":"uint256"},{"name":"_extraData","type":"bytes","internalType":"bytes"}],"outputs":[],"stateMutability":"nonpayable"},{"type":"function","name":"finalizeBridgeNativeToken","inputs":[{"name":"_from","type":"address","internalType":"address"},{"name":"_to","type":"address","internalType":"address"},{"name":"_amount","type":"uint256","internalType":"uint256"},{"name":"_extraData","type":"bytes","internalType":"bytes"}],"outputs":[],"stateMutability":"payable"},{"type":"function","name":"finalizeERC20Withdrawal","inputs":[{"name":"_l1Token","type":"address","internalType":"address"},{"name":"_l2Token","type":"address","internalType":"address"},{"name":"_from","type":"address","internalType":"address"},{"name":"_to","type":"address","internalType":"address"},{"name":"_amount","type":"uint256","internalType":"uint256"},{"name":"_extraData","type":"bytes","internalType":"bytes"}],"outputs":[],"stateMutability":"nonpayable"},{"type":"function","name":"finalizeETHWithdrawal","inputs":[{"name":"_from","type":"address","internalType":"address"},{"name":"_to","type":"address","internalType":"address"},{"name":"_amount","type":"uint256","internalType":"uint256"},{"name":"_extraData","type":"bytes","internalType":"bytes"}],"outputs":[],"stateMutability":"payable"},{"type":"function","name":"initialize","inputs":[{"name":"_messenger","type":"address","internalType":"contract CrossDomainMessenger"},{"name":"_superchainConfig","type":"address","internalType":"contract SuperchainConfig"},{"name":"_systemConfig","type":"address","internalType":"contract SystemConfig"}],"outputs":[],"stateMutability":"nonpayable"},{"type":"function","name":"l2TokenBridge","inputs":[],"outputs":[{"name":"","type":"address","internalType":"address"}],"stateMutability":"view"},{"type":"function","name":"messenger","inputs":[],"outputs":[{"name":"","type":"address","internalType":"contract CrossDomainMessenger"}],"stateMutability":"view"},{"type":"function","name":"nativeTokenAddress","inputs":[],"outputs":[{"name":"","type":"address","internalType":"address"}],"stateMutability":"view"},{"type":"function","name":"onApprove","inputs":[{"name":"_owner","type":"address","internalType":"address"},{"name":"","type":"address","internalType":"address"},{"name":"_amount","type":"uint256","internalType":"uint256"},{"name":"_data","type":"bytes","internalType":"bytes"}],"outputs":[{"name":"","type":"bool","internalType":"bool"}],"stateMutability":"nonpayable"},{"type":"function","name":"otherBridge","inputs":[],"outputs":[{"name":"","type":"address","internalType":"contract StandardBridge"}],"stateMutability":"view"},{"type":"function","name":"paused","inputs":[],"outputs":[{"name":"","type":"bool","internalType":"bool"}],"stateMutability":"view"},{"type":"function","name":"superchainConfig","inputs":[],"outputs":[{"name":"","type":"address","internalType":"contract SuperchainConfig"}],"stateMutability":"view"},{"type":"function","name":"supportsInterface","inputs":[{"name":"interfaceId","type":"bytes4","internalType":"bytes4"}],"outputs":[{"name":"","type":"bool","internalType":"bool"}],"stateMutability":"pure"},{"type":"function","name":"systemConfig","inputs":[],"outputs":[{"name":"","type":"address","internalType":"contract SystemConfig"}],"stateMutability":"view"},{"type":"function","name":"version","inputs":[],"outputs":[{"name":"","type":"string","internalType":"string"}],"stateMutability":"view"},{"type":"event","name":"ERC20BridgeFinalized","inputs":[{"name":"localToken","type":"address","indexed":true,"internalType":"address"},{"name":"remoteToken","type":"address","indexed":true,"internalType":"address"},{"name":"from","type":"address","indexed":true,"internalType":"address"},{"name":"to","type":"address","indexed":false,"internalType":"address"},{"name":"amount","type":"uint256","indexed":false,"internalType":"uint256"},{"name":"extraData","type":"bytes","indexed":false,"internalType":"bytes"}],"anonymous":false},{"type":"event","name":"ERC20BridgeInitiated","inputs":[{"name":"localToken","type":"address","indexed":true,"internalType":"address"},{"name":"remoteToken","type":"address","indexed":true,"internalType":"address"},{"name":"from","type":"address","indexed":true,"internalType":"address"},{"name":"to","type":"address","indexed":false,"internalType":"address"},{"name":"amount","type":"uint256","indexed":false,"internalType":"uint256"},{"name":"extraData","type":"bytes","indexed":false,"internalType":"bytes"}],"anonymous":false},{"type":"event","name":"ERC20DepositInitiated","inputs":[{"name":"l1Token","type":"address","indexed":true,"internalType":"address"},{"name":"l2Token","type":"address","indexed":true,"internalType":"address"},{"name":"from","type":"address","indexed":true,"internalType":"address"},{"name":"to","type":"address","indexed":false,"internalType":"address"},{"name":"amount","type":"uint256","indexed":false,"internalType":"uint256"},{"name":"extraData","type":"bytes","indexed":false,"internalType":"bytes"}],"anonymous":false},{"type":"event","name":"ERC20WithdrawalFinalized","inputs":[{"name":"l1Token","type":"address","indexed":true,"internalType":"address"},{"name":"l2Token","type":"address","indexed":true,"internalType":"address"},{"name":"from","type":"address","indexed":true,"internalType":"address"},{"name":"to","type":"address","indexed":false,"internalType":"address"},{"name":"amount","type":"uint256","indexed":false,"internalType":"uint256"},{"name":"extraData","type":"bytes","indexed":false,"internalType":"bytes"}],"anonymous":false},{"type":"event","name":"ETHBridgeFinalized","inputs":[{"name":"from","type":"address","indexed":true,"internalType":"address"},{"name":"to","type":"address","indexed":true,"internalType":"address"},{"name":"amount","type":"uint256","indexed":false,"internalType":"uint256"},{"name":"extraData","type":"bytes","indexed":false,"internalType":"bytes"}],"anonymous":false},{"type":"event","name":"ETHBridgeInitiated","inputs":[{"name":"from","type":"address","indexed":true,"internalType":"address"},{"name":"to","type":"address","indexed":true,"internalType":"address"},{"name":"amount","type":"uint256","indexed":false,"internalType":"uint256"},{"name":"extraData","type":"bytes","indexed":false,"internalType":"bytes"}],"anonymous":false},{"type":"event","name":"ETHDepositInitiated","inputs":[{"name":"from","type":"address","indexed":true,"internalType":"address"},{"name":"to","type":"address","indexed":true,"internalType":"address"},{"name":"amount","type":"uint256","indexed":false,"internalType":"uint256"},{"name":"extraData","type":"bytes","indexed":false,"internalType":"bytes"}],"anonymous":false},{"type":"event","name":"ETHWithdrawalFinalized","inputs":[{"name":"from","type":"address","indexed":true,"internalType":"address"},{"name":"to","type":"address","indexed":true,"internalType":"address"},{"name":"amount","type":"uint256","indexed":false,"internalType":"uint256"},{"name":"extraData","type":"bytes","indexed":false,"internalType":"bytes"}],"anonymous":false},{"type":"event","name":"Initialized","inputs":[{"name":"version","type":"uint8","indexed":false,"internalType":"uint8"}],"anonymous":false},{"type":"event","name":"NativeTokenBridgeFinalized","inputs":[{"name":"from","type":"address","indexed":true,"internalType":"address"},{"name":"to","type":"address","indexed":true,"internalType":"address"},{"name":"amount","type":"uint256","indexed":false,"internalType":"uint256"},{"name":"extraData","type":"bytes","indexed":false,"internalType":"bytes"}],"anonymous":false},{"type":"event","name":"NativeTokenBridgeInitiated","inputs":[{"name":"from","type":"address","indexed":true,"internalType":"address"},{"name":"to","type":"address","indexed":true,"internalType":"address"},{"name":"amount","type":"uint256","indexed":false,"internalType":"uint256"},{"name":"extraData","type":"bytes","indexed":false,"internalType":"bytes"}],"anonymous":false},{"type":"event","name":"NativeTokenDepositInitiated","inputs":[{"name":"from","type":"address","indexed":true,"internalType":"address"},{"name":"to","type":"address","indexed":true,"internalType":"address"},{"name":"amount","type":"uint256","indexed":false,"internalType":"uint256"},{"name":"extraData","type":"bytes","indexed":false,"internalType":"bytes"}],"anonymous":false},{"type":"event","name":"NativeTokenWithdrawalFinalized","inputs":[{"name":"from","type":"address","indexed":true,"internalType":"address"},{"name":"to","type":"address","indexed":true,"internalType":"address"},{"name":"amount","type":"uint256","indexed":false,"internalType":"uint256"},{"name":"extraData","type":"bytes","indexed":false,"internalType":"bytes"}],"anonymous":false}],"bytecode":{"object":"0x60806040523480156200001157600080fd5b50620000206000808062000026565b6200024b565b600054610100900460ff1615808015620000475750600054600160ff909116105b806200007757506200006430620001a160201b620004c61760201c565b15801562000077575060005460ff166001145b620000e05760405162461bcd60e51b815260206004820152602e60248201527f496e697469616c697a61626c653a20636f6e747261637420697320616c72656160448201526d191e481a5b9a5d1a585b1a5e995960921b60648201526084015b60405180910390fd5b6000805460ff19166001179055801562000104576000805461ff0019166101001790555b603280546001600160a01b038086166001600160a01b03199283161790925560338054928516929091169190911790556200015484734200000000000000000000000000000000000010620001b0565b80156200019b576000805461ff0019169055604051600181527f7f26b83ff96e1f2b6a682f133852f6798a09c465da95921460cefb38474024989060200160405180910390a15b50505050565b6001600160a01b03163b151590565b600054610100900460ff166200021d5760405162461bcd60e51b815260206004820152602b60248201527f496e697469616c697a61626c653a20636f6e7472616374206973206e6f74206960448201526a6e697469616c697a696e6760a81b6064820152608401620000d7565b600380546001600160a01b039384166001600160a01b03199182161790915560048054929093169116179055565b6128ca806200025b6000396000f3fe60806040526004361061016a5760003560e01c80635c975abb116100d1578063927ede2d1161008a578063c0c53b8b11610064578063c0c53b8b14610460578063c3a1763c14610480578063c89701a214610493578063e56b44a3146104b357600080fd5b8063927ede2d1461040f57806395911e5a1461042d578063a9f9e6751461044057600080fd5b80635c975abb146103635780636580297d146103785780637f46ddb21461038b57806387087623146103a95780638f601f66146103c957806391c49bf81461038b57600080fd5b806335e80ab31161012357806335e80ab3146102905780633cb747bf146102b05780634273ca16146102d05780634d0047ee146102f0578063540abf731461030557806354fd4d501461032557600080fd5b80630166a07a146101bd57806301ffc9a7146101dd5780631532ec3414610212578063162f1686146102255780631635f5fd1461023857806333d7e2bd1461025857600080fd5b366101b857333b156101975760405162461bcd60e51b815260040161018e90612116565b60405180910390fd5b6101b633333462030d40604051806020016040528060008152506104d5565b005b600080fd5b3480156101c957600080fd5b506101b66101d83660046121d4565b6106d9565b3480156101e957600080fd5b506101fd6101f836600461226c565b610926565b60405190151581526020015b60405180910390f35b6101b6610220366004612296565b61095d565b6101b6610233366004612322565b610971565b34801561024457600080fd5b506101b6610253366004612296565b6109d9565b34801561026457600080fd5b50603354610278906001600160a01b031681565b6040516001600160a01b039091168152602001610209565b34801561029c57600080fd5b50603254610278906001600160a01b031681565b3480156102bc57600080fd5b50600354610278906001600160a01b031681565b3480156102dc57600080fd5b506101fd6102eb366004612296565b610c07565b3480156102fc57600080fd5b50610278610cea565b34801561031157600080fd5b506101b661032036600461237c565b610cf9565b34801561033157600080fd5b50610356604051806040016040528060058152602001640322e322e360dc1b81525081565b604051610209919061244b565b34801561036f57600080fd5b506101fd610d3e565b6101b6610386366004612296565b610dac565b34801561039757600080fd5b506004546001600160a01b0316610278565b3480156103b557600080fd5b506101b66103c436600461245e565b610ffc565b3480156103d557600080fd5b506104016103e43660046124e1565b600260209081526000928352604080842090915290825290205481565b604051908152602001610209565b34801561041b57600080fd5b506003546001600160a01b0316610278565b6101b661043b366004612322565b611060565b34801561044c57600080fd5b506101b661045b3660046121d4565b6110c2565b34801561046c57600080fd5b506101b661047b36600461251a565b6110d1565b6101b661048e366004612565565b61121d565b34801561049f57600080fd5b50600454610278906001600160a01b031681565b6101b66104c1366004612565565b611260565b6001600160a01b03163b151590565b346000036105365760405162461bcd60e51b815260206004820152602860248201527f5374616e646172644272696467653a206d73672e76616c7565206973207a65726044820152671bc8185b5bdd5b9d60c21b606482015260840161018e565b8234146105ab5760405162461bcd60e51b815260206004820152603e60248201527f5374616e646172644272696467653a206272696467696e6720455448206d757360448201527f7420696e636c7564652073756666696369656e74204554482076616c75650000606482015260840161018e565b610486602160991b0160005260008051602061289e83398151915260205260008051602061287e833981519152546105e49084906125cf565b610486602160991b0160005260008051602061289e83398151915260205260008051602061287e8339815191525561061e858585846112a3565b6003546004546040516001600160a01b0392831692633dbb202b921690631635f5fd60e01b90610658908a908a908a9089906024016125e7565b60408051601f198184030181529181526020820180516001600160e01b03166001600160e01b03199485161790525160e085901b90921682526106a092918790600401612624565b600060405180830381600087803b1580156106ba57600080fd5b505af11580156106ce573d6000803e3d6000fd5b505050505050505050565b6003546001600160a01b03163314801561076c57506004805460035460408051636e296e4560e01b815290516001600160a01b03938416949390921692636e296e459282820192602092908290030181865afa15801561073d573d6000803e3d6000fd5b505050506040513d601f19601f82011682018060405250810190610761919061265e565b6001600160a01b0316145b6107885760405162461bcd60e51b815260040161018e9061267b565b610790610d3e565b156107d65760405162461bcd60e51b815260206004820152601660248201527514dd185b99185c99109c9a5919d94e881c185d5cd95960521b604482015260640161018e565b6107df876112fc565b15610871576107ee8787611326565b61080a5760405162461bcd60e51b815260040161018e906126e2565b6040516340c10f1960e01b81526001600160a01b038581166004830152602482018590528816906340c10f1990604401600060405180830381600087803b15801561085457600080fd5b505af1158015610868573d6000803e3d6000fd5b505050506108d9565b6001600160a01b038088166000908152600260209081526040808320938a16835292905220546108a2908490612752565b6001600160a01b038089166000818152600260209081526040808320948c16835293905291909120919091556108d99085856113f9565b61091d878787878787878080601f01602080910402602001604051908101604052809392919081815260200183838082843760009201919091525061146192505050565b50505050505050565b60006001600160e01b03198216632139e50b60e11b148061095757506001600160e01b031982166301ffc9a760e01b145b92915050565b61096a85858585856109d9565b5050505050565b333b156109905760405162461bcd60e51b815260040161018e90612116565b6109d33333868686868080601f0160208091040260200160405190810160405280939291908181526020018383808284376000920191909152506104d592505050565b50505050565b6003546001600160a01b031633148015610a6c57506004805460035460408051636e296e4560e01b815290516001600160a01b03938416949390921692636e296e459282820192602092908290030181865afa158015610a3d573d6000803e3d6000fd5b505050506040513d601f19601f82011682018060405250810190610a61919061265e565b6001600160a01b0316145b610a885760405162461bcd60e51b815260040161018e9061267b565b610a90610d3e565b15610ad95760405162461bcd60e51b8152602060048201526019602482015278130c4814dd185b99185c99109c9a5919d94e881c185d5cd959603a1b604482015260640161018e565b6000610af6855a86604051806020016040528060008152506114c8565b905080610b515760405162461bcd60e51b815260206004820152602360248201527f5374616e646172644272696467653a20455448207472616e73666572206661696044820152621b195960ea1b606482015260840161018e565b610486602160991b0160005260008051602061289e83398151915260205260008051602061287e83398151915254610b8a908590612752565b610486602160991b0160005260008051602061289e833981519152602090815260008051602061287e8339815191529190915560408051601f8501839004830281018301909152838152610bff918891889188919088908890819084018382808284376000920191909152506114e292505050565b505050505050565b600080610c1261153b565b9050336001600160a01b03821614610c7e5760405162461bcd60e51b815260206004820152602960248201527f6f6e6c7920616363657074206e617469766520746f6b656e20617070726f76656044820152682063616c6c6261636b60b81b606482015260840161018e565b6000806000610c8d87876115a9565b8080601f016020809104026020016040519081016040528093929190818152602001838380828437600092019190915250949750929550909350610cda92508c91508590508a8585611631565b5060019998505050505050505050565b6000610cf461153b565b905090565b61091d87873388888888888080601f01602080910402602001604051908101604052809392919081815260200183838082843760009201919091525061179592505050565b60325460408051635c975abb60e01b815290516000926001600160a01b031691635c975abb9160048083019260209291908290030181865afa158015610d88573d6000803e3d6000fd5b505050506040513d601f19601f82011682018060405250810190610cf49190612769565b6003546001600160a01b031633148015610e3f57506004805460035460408051636e296e4560e01b815290516001600160a01b03938416949390921692636e296e459282820192602092908290030181865afa158015610e10573d6000803e3d6000fd5b505050506040513d601f19601f82011682018060405250810190610e34919061265e565b6001600160a01b0316145b610e5b5760405162461bcd60e51b815260040161018e9061267b565b610e63610d3e565b15610eac5760405162461bcd60e51b8152602060048201526019602482015278130c4814dd185b99185c99109c9a5919d94e881c185d5cd959603a1b604482015260640161018e565b6000610eb661153b565b9050306001600160a01b03861603610f1c5760405162461bcd60e51b815260206004820152602360248201527f5374616e646172644272696467653a2063616e6e6f742073656e6420746f207360448201526232b63360e91b606482015260840161018e565b6003546001600160a01b0390811690861603610f8b5760405162461bcd60e51b815260206004820152602860248201527f5374616e646172644272696467653a2063616e6e6f742073656e6420746f206d60448201526732b9b9b2b733b2b960c11b606482015260840161018e565b600354610fa6906001600160a01b038381169116308761185b565b610fba6001600160a01b03821686866113f9565b610bff86868686868080601f01602080910402602001604051908101604052809392919081815260200183838082843760009201919091525061189392505050565b333b1561101b5760405162461bcd60e51b815260040161018e90612116565b610bff86863333888888888080601f01602080910402602001604051908101604052809392919081815260200183838082843760009201919091525061179592505050565b333b1561107f5760405162461bcd60e51b815260040161018e90612116565b6109d33333868686868080601f01602080910402602001604051908101604052809392919081815260200183838082843760009201919091525061163192505050565b61091d878787878787876106d9565b600054610100900460ff16158080156110f15750600054600160ff909116105b8061110b5750303b15801561110b575060005460ff166001145b61116e5760405162461bcd60e51b815260206004820152602e60248201527f496e697469616c697a61626c653a20636f6e747261637420697320616c72656160448201526d191e481a5b9a5d1a585b1a5e995960921b606482015260840161018e565b6000805460ff191660011790558015611191576000805461ff0019166101001790555b603280546001600160a01b038086166001600160a01b03199283161790925560338054928516929091169190911790556111d2846010602160991b016118ec565b80156109d3576000805461ff0019169055604051600181527f7f26b83ff96e1f2b6a682f133852f6798a09c465da95921460cefb38474024989060200160405180910390a150505050565b61096a3386868686868080601f0160208091040260200160405190810160405280939291908181526020018383808284376000920191909152506104d592505050565b61096a3386868686868080601f01602080910402602001604051908101604052809392919081815260200183838082843760009201919091525061163192505050565b826001600160a01b0316846001600160a01b03167f35d79ab81f2b2017e19afb5c5571778877782d7a8786f5907f93b0f4702f4f2384846040516112e892919061278b565b60405180910390a36109d384848484611985565b600061130f82631d1d8b6360e01b6119d8565b8061095757506109578263ec4fc8e360e01b6119d8565b600061133983631d1d8b6360e01b6119d8565b156113bb57826001600160a01b031663c01e1bd66040518163ffffffff1660e01b8152600401602060405180830381865afa15801561137c573d6000803e3d6000fd5b505050506040513d601f19601f820116820180604052508101906113a0919061265e565b6001600160a01b0316826001600160a01b0316149050610957565b826001600160a01b031663d6c0b2c46040518163ffffffff1660e01b8152600401602060405180830381865afa15801561137c573d6000803e3d6000fd5b6040516001600160a01b03831660248201526044810182905261145c90849063a9059cbb60e01b906064015b60408051601f198184030181529190526020810180516001600160e01b03166001600160e01b0319909316929092179091526119fb565b505050565b836001600160a01b0316856001600160a01b0316876001600160a01b03167f3ceee06c1e37648fcbb6ed52e17b3e1f275a1f8c7b22a84b2b84732431e046b38686866040516114b2939291906127a4565b60405180910390a4610bff868686868686611acd565b600080600080845160208601878a8af19695505050505050565b826001600160a01b0316846001600160a01b03167f2ac69ee804d9a7a0984249f508dfab7cb2534b465b6ce1580f99a38ba9c5e631848460405161152792919061278b565b60405180910390a36109d384848484611b2e565b6033546040805163268023f760e11b815290516000926001600160a01b031691634d0047ee9160048083019260209291908290030181865afa158015611585573d6000803e3d6000fd5b505050506040513d601f19601f82011682018060405250810190610cf4919061265e565b600080368160188510156116135760405162461bcd60e51b815260206004820152602b60248201527f496e76616c6964206f6e417070726f7665206461746120666f72204c3153746160448201526a6e6461726442726964676560a81b606482015260840161018e565b505050823560601c93601484013560e01c9360180192601719019150565b600061163b61153b565b90506116526001600160a01b03821687308761185b565b60035460405163095ea7b360e01b81526001600160a01b039182166004820152602481018690529082169063095ea7b3906044016020604051808303816000875af11580156116a5573d6000803e3d6000fd5b505050506040513d601f19601f820116820180604052508101906116c99190612769565b506116d686868685611b73565b6003546004546040516001600160a01b039283169263e0e593c59216908790636580297d60e01b90611712908c908c9085908b906024016125e7565b60408051601f198184030181529181526020820180516001600160e01b03166001600160e01b03199485161790525160e086901b909216825261175b93929189906004016127d4565b600060405180830381600087803b15801561177557600080fd5b505af1158015611789573d6000803e3d6000fd5b50505050505050505050565b61179d61153b565b6001600160a01b0316876001600160a01b0316036117fd5760405162461bcd60e51b815260206004820152601760248201527f43616e6e6f7420757365206e617469766520746f6b656e000000000000000000604482015260640161018e565b6001600160a01b03871661184c5760405162461bcd60e51b81526020600482015260166024820152754d757374206e6f74206265206164647265737328302960501b604482015260640161018e565b61091d87878787878787611bcc565b6040516001600160a01b03808516602483015283166044820152606481018290526109d39085906323b872dd60e01b90608401611425565b826001600160a01b0316846001600160a01b03167f3f1eed6f7f293b677b5cd65d3bc95380be434147c85b33a317056e088f84a59a84846040516118d892919061278b565b60405180910390a36109d384848484611da2565b600054610100900460ff166119575760405162461bcd60e51b815260206004820152602b60248201527f496e697469616c697a61626c653a20636f6e7472616374206973206e6f74206960448201526a6e697469616c697a696e6760a81b606482015260840161018e565b600380546001600160a01b039384166001600160a01b03199182161790915560048054929093169116179055565b826001600160a01b0316846001600160a01b03167f2849b43074093a05396b6f2a937dee8565b15a48a7b3d4bffb732a5017380af584846040516119ca92919061278b565b60405180910390a350505050565b60006119e383611de7565b80156119f457506119f48383611e1a565b9392505050565b6000611a50826040518060400160405280602081526020017f5361666545524332303a206c6f772d6c6576656c2063616c6c206661696c6564815250856001600160a01b0316611ea39092919063ffffffff16565b80519091501561145c5780806020019051810190611a6e9190612769565b61145c5760405162461bcd60e51b815260206004820152602a60248201527f5361666545524332303a204552433230206f7065726174696f6e20646964206e6044820152691bdd081cdd58d8d9595960b21b606482015260840161018e565b836001600160a01b0316856001600160a01b0316876001600160a01b03167fd59c65b35445225835c83f50b6ede06a7be047d22e357073e250d9af537518cd868686604051611b1e939291906127a4565b60405180910390a4505050505050565b826001600160a01b0316846001600160a01b03167f31b2166ff604fc5672ea5df08a78081d2bc6d746cadce880747f3643d819e83d84846040516119ca92919061278b565b826001600160a01b0316846001600160a01b03167ff1e6647a55a4ecbf748c8aaf6d27773d9a2d21d16ca35ee5fbb529b4a631062d8484604051611bb892919061278b565b60405180910390a36109d384848484611eba565b611bd5876112fc565b15611c6757611be48787611326565b611c005760405162461bcd60e51b815260040161018e906126e2565b604051632770a7eb60e21b81526001600160a01b03868116600483015260248201859052881690639dc29fac90604401600060405180830381600087803b158015611c4a57600080fd5b505af1158015611c5e573d6000803e3d6000fd5b50505050611cd4565b611c7c6001600160a01b03881686308661185b565b6001600160a01b038088166000908152600260209081526040808320938a1683529290522054611cad9084906125cf565b6001600160a01b038089166000908152600260209081526040808320938b16835292905220555b611ce2878787878786611eff565b6003546004546040516001600160a01b0392831692633dbb202b92169062b3503d60e11b90611d1f908b908d908c908c908c908b90602401612812565b60408051601f198184030181529181526020820180516001600160e01b03166001600160e01b03199485161790525160e085901b9092168252611d6792918790600401612624565b600060405180830381600087803b158015611d8157600080fd5b505af1158015611d95573d6000803e3d6000fd5b5050505050505050505050565b826001600160a01b0316846001600160a01b03167f5c252c7b4846d4d6b4b05e95ffc94581f3522bdbaf3cc02d3732a50855bf684084846040516119ca92919061278b565b6000611dfa826301ffc9a760e01b611e1a565b80156109575750611e13826001600160e01b0319611e1a565b1592915050565b604080516001600160e01b03198316602480830191909152825180830390910181526044909101909152602080820180516001600160e01b03166301ffc9a760e01b178152825160009392849283928392918391908a617530fa92503d91506000519050828015611e8c575060208210155b8015611e985750600081115b979650505050505050565b6060611eb28484600085611f66565b949350505050565b826001600160a01b0316846001600160a01b03167fd430d3ff4c2de4cee9204baf261cdbd8dfac1c1df14ca72c94789b0a1447774384846040516119ca92919061278b565b836001600160a01b0316856001600160a01b0316876001600160a01b03167f718594027abd4eaed59f95162563e0cc6d0e8d5b86b1c7be8b1b0ac3343d0396868686604051611f50939291906127a4565b60405180910390a4610bff86868686868661208c565b606082471015611fc75760405162461bcd60e51b815260206004820152602660248201527f416464726573733a20696e73756666696369656e742062616c616e636520666f6044820152651c8818d85b1b60d21b606482015260840161018e565b6001600160a01b0385163b61201e5760405162461bcd60e51b815260206004820152601d60248201527f416464726573733a2063616c6c20746f206e6f6e2d636f6e7472616374000000604482015260640161018e565b600080866001600160a01b0316858760405161203a9190612861565b60006040518083038185875af1925050503d8060008114612077576040519150601f19603f3d011682016040523d82523d6000602084013e61207c565b606091505b5091509150611e988282866120dd565b836001600160a01b0316856001600160a01b0316876001600160a01b03167f7ff126db8024424bbfd9826e8ab82ff59136289ea440b04b39a0df1b03b9cabf868686604051611b1e939291906127a4565b606083156120ec5750816119f4565b8251156120fc5782518084602001fd5b8160405162461bcd60e51b815260040161018e919061244b565b60208082526037908201527f5374616e646172644272696467653a2066756e6374696f6e2063616e206f6e6c60408201527f792062652063616c6c65642066726f6d20616e20454f41000000000000000000606082015260800190565b6001600160a01b038116811461218857600080fd5b50565b60008083601f84011261219d57600080fd5b50813567ffffffffffffffff8111156121b557600080fd5b6020830191508360208285010111156121cd57600080fd5b9250929050565b600080600080600080600060c0888a0312156121ef57600080fd5b87356121fa81612173565b9650602088013561220a81612173565b9550604088013561221a81612173565b9450606088013561222a81612173565b93506080880135925060a088013567ffffffffffffffff81111561224d57600080fd5b6122598a828b0161218b565b989b979a50959850939692959293505050565b60006020828403121561227e57600080fd5b81356001600160e01b0319811681146119f457600080fd5b6000806000806000608086880312156122ae57600080fd5b85356122b981612173565b945060208601356122c981612173565b935060408601359250606086013567ffffffffffffffff8111156122ec57600080fd5b6122f88882890161218b565b969995985093965092949392505050565b803563ffffffff8116811461231d57600080fd5b919050565b6000806000806060858703121561233857600080fd5b8435935061234860208601612309565b9250604085013567ffffffffffffffff81111561236457600080fd5b6123708782880161218b565b95989497509550505050565b600080600080600080600060c0888a03121561239757600080fd5b87356123a281612173565b965060208801356123b281612173565b955060408801356123c281612173565b9450606088013593506123d760808901612309565b925060a088013567ffffffffffffffff81111561224d57600080fd5b60005b8381101561240e5781810151838201526020016123f6565b838111156109d35750506000910152565b600081518084526124378160208601602086016123f3565b601f01601f19169290920160200192915050565b6020815260006119f4602083018461241f565b60008060008060008060a0878903121561247757600080fd5b863561248281612173565b9550602087013561249281612173565b9450604087013593506124a760608801612309565b9250608087013567ffffffffffffffff8111156124c357600080fd5b6124cf89828a0161218b565b979a9699509497509295939492505050565b600080604083850312156124f457600080fd5b82356124ff81612173565b9150602083013561250f81612173565b809150509250929050565b60008060006060848603121561252f57600080fd5b833561253a81612173565b9250602084013561254a81612173565b9150604084013561255a81612173565b809150509250925092565b60008060008060006080868803121561257d57600080fd5b853561258881612173565b94506020860135935061259d60408701612309565b9250606086013567ffffffffffffffff8111156122ec57600080fd5b634e487b7160e01b600052601160045260246000fd5b600082198211156125e2576125e26125b9565b500190565b6001600160a01b038581168252841660208201526040810183905260806060820181905260009061261a9083018461241f565b9695505050505050565b6001600160a01b03841681526060602082018190526000906126489083018561241f565b905063ffffffff83166040830152949350505050565b60006020828403121561267057600080fd5b81516119f481612173565b60208082526041908201527f5374616e646172644272696467653a2066756e6374696f6e2063616e206f6e6c60408201527f792062652063616c6c65642066726f6d20746865206f746865722062726964676060820152606560f81b608082015260a00190565b6020808252604a908201527f5374616e646172644272696467653a2077726f6e672072656d6f746520746f6b60408201527f656e20666f72204f7074696d69736d204d696e7461626c65204552433230206c60608201526937b1b0b6103a37b5b2b760b11b608082015260a00190565b600082821015612764576127646125b9565b500390565b60006020828403121561277b57600080fd5b815180151581146119f457600080fd5b828152604060208201526000611eb2604083018461241f565b60018060a01b03841681528260208201526060604082015260006127cb606083018461241f565b95945050505050565b60018060a01b03851681528360208201526080604082015260006127fb608083018561241f565b905063ffffffff8316606083015295945050505050565b6001600160a01b03878116825286811660208301528581166040830152841660608201526080810183905260c060a082018190526000906128559083018461241f565b98975050505050505050565b600082516128738184602087016123f3565b919091019291505056fe93848fc853fd2af31e80d9c5877c6e8e6fe1846ae85b985f9f0f735e671f9100ac33ff75c19e70fe83507db0d683fd3465c996598dc972688b7ace676c89077ba164736f6c634300080f000a","linkReferences":{}},"methodIdentifiers":{"MESSENGER()":"927ede2d","OTHER_BRIDGE()":"7f46ddb2","bridgeERC20(address,address,uint256,uint32,bytes)":"87087623","bridgeERC20To(address,address,address,uint256,uint32,bytes)":"540abf73","bridgeETH(uint256,uint32,bytes)":"162f1686","bridgeETHTo(address,uint256,uint32,bytes)":"c3a1763c","bridgeNativeToken(uint256,uint32,bytes)":"95911e5a","bridgeNativeTokenTo(address,uint256,uint32,bytes)":"e56b44a3","deposits(address,address)":"8f601f66","finalizeBridgeERC20(address,address,address,address,uint256,bytes)":"0166a07a","finalizeBridgeETH(address,address,uint256,bytes)":"1635f5fd","finalizeBridgeNativeToken(address,address,uint256,bytes)":"6580297d","finalizeERC20Withdrawal(address,address,address,address,uint256,bytes)":"a9f9e675","finalizeETHWithdrawal(address,address,uint256,bytes)":"1532ec34","initialize(address,address,address)":"c0c53b8b","l2TokenBridge()":"91c49bf8","messenger()":"3cb747bf","nativeTokenAddress()":"4d0047ee","onApprove(address,address,uint256,bytes)":"4273ca16","otherBridge()":"c89701a2","paused()":"5c975abb","superchainConfig()":"35e80ab3","supportsInterface(bytes4)":"01ffc9a7","systemConfig()":"33d7e2bd","version()":"54fd4d50"},"id":167}