{"abi":[{"type":"constructor","inputs":[],"stateMutability":"nonpayable"},{"type":"function","name":"CHALLENGER","inputs":[],"outputs":[{"name":"","type":"address","internalType":"address"}],"stateMutability":"view"},{"type":"function","name":"FINALIZATION_PERIOD_SECONDS","inputs":[],"outputs":[{"name":"","type":"uint256","internalType":"uint256"}],"stateMutability":"view"},{"type":"function","name":"L2_BLOCK_TIME","inputs":[],"outputs":[{"name":"","type":"uint256","internalType":"uint256"}],"stateMutability":"view"},{"type":"function","name":"PROPOSER","inputs":[],"outputs":[{"name":"","type":"address","internalType":"address"}],"stateMutability":"view"},{"type":"function","name":"SUBMISSION_INTERVAL","inputs":[],"outputs":[{"name":"","type":"uint256","internalType":"uint256"}],"stateMutability":"view"},{"type":"function","name":"challenger","inputs":[],"outputs":[{"name":"","type":"address","internalType":"address"}],"stateMutability":"view"},{"type":"function","name":"computeL2Timestamp","inputs":[{"name":"_l2BlockNumber","type":"uint256","internalType":"uint256"}],"outputs":[{"name":"","type":"uint256","internalType":"uint256"}],"stateMutability":"view"},{"type":"function","name":"deleteL2Outputs","inputs":[{"name":"_l2OutputIndex","type":"uint256","internalType":"uint256"}],"outputs":[],"stateMutability":"nonpayable"},{"type":"function","name":"finalizationPeriodSeconds","inputs":[],"outputs":[{"name":"","type":"uint256","internalType":"uint256"}],"stateMutability":"view"},{"type":"function","name":"getL2Output","inputs":[{"name":"_l2OutputIndex","type":"uint256","internalType":"uint256"}],"outputs":[{"name":"","type":"tuple","internalType":"struct Types.OutputProposal","components":[{"name":"outputRoot","type":"bytes32","internalType":"bytes32"},{"name":"timestamp","type":"uint128","internalType":"uint128"},{"name":"l2BlockNumber","type":"uint128","internalType":"uint128"}]}],"stateMutability":"view"},{"type":"function","name":"getL2OutputAfter","inputs":[{"name":"_l2BlockNumber","type":"uint256","internalType":"uint256"}],"outputs":[{"name":"","type":"tuple","internalType":"struct Types.OutputProposal","components":[{"name":"outputRoot","type":"bytes32","internalType":"bytes32"},{"name":"timestamp","type":"uint128","internalType":"uint128"},{"name":"l2BlockNumber","type":"uint128","internalType":"uint128"}]}],"stateMutability":"view"},{"type":"function","name":"getL2OutputIndexAfter","inputs":[{"name":"_l2BlockNumber","type":"uint256","internalType":"uint256"}],"outputs":[{"name":"","type":"uint256","internalType":"uint256"}],"stateMutability":"view"},{"type":"function","name":"initialize","inputs":[{"name":"_submissionInterval","type":"uint256","internalType":"uint256"},{"name":"_l2BlockTime","type":"uint256","internalType":"uint256"},{"name":"_startingBlockNumber","type":"uint256","internalType":"uint256"},{"name":"_startingTimestamp","type":"uint256","internalType":"uint256"},{"name":"_proposer","type":"address","internalType":"address"},{"name":"_challenger","type":"address","internalType":"address"},{"name":"_finalizationPeriodSeconds","type":"uint256","internalType":"uint256"}],"outputs":[],"stateMutability":"nonpayable"},{"type":"function","name":"l2BlockTime","inputs":[],"outputs":[{"name":"","type":"uint256","internalType":"uint256"}],"stateMutability":"view"},{"type":"function","name":"latestBlockNumber","inputs":[],"outputs":[{"name":"","type":"uint256","internalType":"uint256"}],"stateMutability":"view"},{"type":"function","name":"latestOutputIndex","inputs":[],"outputs":[{"name":"","type":"uint256","internalType":"uint256"}],"stateMutability":"view"},{"type":"function","name":"nextBlockNumber","inputs":[],"outputs":[{"name":"","type":"uint256","internalType":"uint256"}],"stateMutability":"view"},{"type":"function","name":"nextOutputIndex","inputs":[],"outputs":[{"name":"","type":"uint256","internalType":"uint256"}],"stateMutability":"view"},{"type":"function","name":"proposeL2Output","inputs":[{"name":"_outputRoot","type":"bytes32","internalType":"bytes32"},{"name":"_l2BlockNumber","type":"uint256","internalType":"uint256"},{"name":"_l1BlockHash","type":"bytes32","internalType":"bytes32"},{"name":"_l1BlockNumber","type":"uint256","internalType":"uint256"}],"outputs":[],"stateMutability":"payable"},{"type":"function","name":"proposer","inputs":[],"outputs":[{"name":"","type":"address","internalType":"address"}],"stateMutability":"view"},{"type":"function","name":"startingBlockNumber","inputs":[],"outputs":[{"name":"","type":"uint256","internalType":"uint256"}],"stateMutability":"view"},{"type":"function","name":"startingTimestamp","inputs":[],"outputs":[{"name":"","type":"uint256","internalType":"uint256"}],"stateMutability":"view"},{"type":"function","name":"submissionInterval","inputs":[],"outputs":[{"name":"","type":"uint256","internalType":"uint256"}],"stateMutability":"view"},{"type":"function","name":"version","inputs":[],"outputs":[{"name":"","type":"string","internalType":"string"}],"stateMutability":"view"},{"type":"event","name":"Initialized","inputs":[{"name":"version","type":"uint8","indexed":false,"internalType":"uint8"}],"anonymous":false},{"type":"event","name":"OutputProposed","inputs":[{"name":"outputRoot","type":"bytes32","indexed":true,"internalType":"bytes32"},{"name":"l2OutputIndex","type":"uint256","indexed":true,"internalType":"uint256"},{"name":"l2BlockNumber","type":"uint256","indexed":true,"internalType":"uint256"},{"name":"l1Timestamp","type":"uint256","indexed":false,"internalType":"uint256"}],"anonymous":false},{"type":"event","name":"OutputsDeleted","inputs":[{"name":"prevNextOutputIndex","type":"uint256","indexed":true,"internalType":"uint256"},{"name":"newNextOutputIndex","type":"uint256","indexed":true,"internalType":"uint256"}],"anonymous":false}],"bytecode":{"object":"0x60806040523480156200001157600080fd5b50620000256001806000808080806200002b565b62000328565b600054610100900460ff16158080156200004c5750600054600160ff909116105b806200007c575062000069306200031960201b62000f7d1760201c565b1580156200007c575060005460ff166001145b620000e55760405162461bcd60e51b815260206004820152602e60248201527f496e697469616c697a61626c653a20636f6e747261637420697320616c72656160448201526d191e481a5b9a5d1a585b1a5e995960921b60648201526084015b60405180910390fd5b6000805460ff19166001179055801562000109576000805461ff0019166101001790555b60008811620001815760405162461bcd60e51b815260206004820152603a60248201527f4c324f75747075744f7261636c653a207375626d697373696f6e20696e74657260448201527f76616c206d7573742062652067726561746572207468616e20300000000000006064820152608401620000dc565b60008711620001f95760405162461bcd60e51b815260206004820152603460248201527f4c324f75747075744f7261636c653a204c3220626c6f636b2074696d65206d7560448201527f73742062652067726561746572207468616e20300000000000000000000000006064820152608401620000dc565b428511156200027f5760405162461bcd60e51b8152602060048201526044602482018190527f4c324f75747075744f7261636c653a207374617274696e67204c322074696d65908201527f7374616d70206d757374206265206c657373207468616e2063757272656e742060648201526374696d6560e01b608482015260a401620000dc565b6004889055600587905560018690556002859055600780546001600160a01b038087166001600160a01b0319928316179092556006805492861692909116919091179055600882905580156200030f576000805461ff0019169055604051600181527f7f26b83ff96e1f2b6a682f133852f6798a09c465da95921460cefb38474024989060200160405180910390a15b5050505050505050565b6001600160a01b03163b151590565b61115480620003386000396000f3fe60806040526004361061014a5760003560e01c806389c44cbb116100b6578063ce5db8d61161006f578063ce5db8d6146103a3578063cf8e5cf0146103b9578063d1de856c146103d9578063dcec3348146103f9578063e1a41bcf1461040e578063f4daa2911461042457600080fd5b806389c44cbb146102c957806393991af3146102e95780639aaab648146102ff578063a25ae55714610312578063a8e4fb9014610365578063bffa7f0f1461038557600080fd5b806369f16eec1161010857806369f16eec146102355780636abcf5631461024a5780636b4d98dd1461025f57806370872aa51461027d5780637f0064201461029357806388786272146102b357600080fd5b80622134cc1461014f5780631c89c97d146101735780634599c78814610195578063529933df146101aa578063534db0e2146101bf57806354fd4d50146101f7575b600080fd5b34801561015b57600080fd5b506005545b6040519081526020015b60405180910390f35b34801561017f57600080fd5b5061019361018e366004610fa8565b610439565b005b3480156101a157600080fd5b506101606106fe565b3480156101b657600080fd5b50600454610160565b3480156101cb57600080fd5b506006546101df906001600160a01b031681565b6040516001600160a01b03909116815260200161016a565b34801561020357600080fd5b50610228604051806040016040528060058152602001640312e382e360dc1b81525081565b60405161016a919061100b565b34801561024157600080fd5b5061016061075b565b34801561025657600080fd5b50600354610160565b34801561026b57600080fd5b506006546001600160a01b03166101df565b34801561028957600080fd5b5061016060015481565b34801561029f57600080fd5b506101606102ae366004611060565b61076d565b3480156102bf57600080fd5b5061016060025481565b3480156102d557600080fd5b506101936102e4366004611060565b61090b565b3480156102f557600080fd5b5061016060055481565b61019361030d366004611079565b610b10565b34801561031e57600080fd5b5061033261032d366004611060565b610e80565b60408051825181526020808401516001600160801b0390811691830191909152928201519092169082015260600161016a565b34801561037157600080fd5b506007546101df906001600160a01b031681565b34801561039157600080fd5b506007546001600160a01b03166101df565b3480156103af57600080fd5b5061016060085481565b3480156103c557600080fd5b506103326103d4366004611060565b610efe565b3480156103e557600080fd5b506101606103f4366004611060565b610f36565b34801561040557600080fd5b50610160610f66565b34801561041a57600080fd5b5061016060045481565b34801561043057600080fd5b50600854610160565b600054610100900460ff16158080156104595750600054600160ff909116105b806104735750303b158015610473575060005460ff166001145b6104db5760405162461bcd60e51b815260206004820152602e60248201527f496e697469616c697a61626c653a20636f6e747261637420697320616c72656160448201526d191e481a5b9a5d1a585b1a5e995960921b60648201526084015b60405180910390fd5b6000805460ff1916600117905580156104fe576000805461ff0019166101001790555b600088116105745760405162461bcd60e51b815260206004820152603a60248201527f4c324f75747075744f7261636c653a207375626d697373696f6e20696e74657260448201527f76616c206d7573742062652067726561746572207468616e203000000000000060648201526084016104d2565b600087116105e15760405162461bcd60e51b815260206004820152603460248201527f4c324f75747075744f7261636c653a204c3220626c6f636b2074696d65206d75604482015273073742062652067726561746572207468616e20360641b60648201526084016104d2565b428511156106655760405162461bcd60e51b8152602060048201526044602482018190527f4c324f75747075744f7261636c653a207374617274696e67204c322074696d65908201527f7374616d70206d757374206265206c657373207468616e2063757272656e742060648201526374696d6560e01b608482015260a4016104d2565b6004889055600587905560018690556002859055600780546001600160a01b038087166001600160a01b0319928316179092556006805492861692909116919091179055600882905580156106f4576000805461ff0019169055604051600181527f7f26b83ff96e1f2b6a682f133852f6798a09c465da95921460cefb38474024989060200160405180910390a15b5050505050505050565b600354600090156107525760038054610719906001906110c1565b81548110610729576107296110d8565b6000918252602090912060029091020160010154600160801b90046001600160801b0316919050565b6001545b905090565b600354600090610756906001906110c1565b60006107776106fe565b8211156107fd5760405162461bcd60e51b815260206004820152604860248201527f4c324f75747075744f7261636c653a2063616e6e6f7420676574206f7574707560448201527f7420666f72206120626c6f636b207468617420686173206e6f74206265656e206064820152671c1c9bdc1bdcd95960c21b608482015260a4016104d2565b6003546108815760405162461bcd60e51b815260206004820152604660248201527f4c324f75747075744f7261636c653a2063616e6e6f7420676574206f7574707560448201527f74206173206e6f206f7574707574732068617665206265656e2070726f706f736064820152651959081e595d60d21b608482015260a4016104d2565b6003546000905b80821015610904576000600261089e83856110ee565b6108a89190611106565b905084600382815481106108be576108be6110d8565b6000918252602090912060029091020160010154600160801b90046001600160801b031610156108fa576108f38160016110ee565b92506108fe565b8091505b50610888565b5092915050565b6006546001600160a01b0316331461098b5760405162461bcd60e51b815260206004820152603e60248201527f4c324f75747075744f7261636c653a206f6e6c7920746865206368616c6c656e60448201527f67657220616464726573732063616e2064656c657465206f757470757473000060648201526084016104d2565b6003548110610a0e5760405162461bcd60e51b815260206004820152604360248201527f4c324f75747075744f7261636c653a2063616e6e6f742064656c657465206f7560448201527f747075747320616674657220746865206c6174657374206f757470757420696e6064820152620c8caf60eb1b608482015260a4016104d2565b60085460038281548110610a2457610a246110d8565b6000918252602090912060016002909202010154610a4b906001600160801b0316426110c1565b10610acd5760405162461bcd60e51b815260206004820152604660248201527f4c324f75747075744f7261636c653a2063616e6e6f742064656c657465206f7560448201527f74707574732074686174206861766520616c7265616479206265656e2066696e606482015265185b1a5e995960d21b608482015260a4016104d2565b6000610ad860035490565b90508160035581817f4ee37ac2c786ec85e87592d3c5c8a1dd66f8496dda3f125d9ea8ca5f657629b660405160405180910390a35050565b6007546001600160a01b03163314610b9a5760405162461bcd60e51b815260206004820152604160248201527f4c324f75747075744f7261636c653a206f6e6c79207468652070726f706f736560448201527f7220616464726573732063616e2070726f706f7365206e6577206f75747075746064820152607360f81b608482015260a4016104d2565b610ba2610f66565b8314610c275760405162461bcd60e51b815260206004820152604860248201527f4c324f75747075744f7261636c653a20626c6f636b206e756d626572206d757360448201527f7420626520657175616c20746f206e65787420657870656374656420626c6f636064820152673590373ab6b132b960c11b608482015260a4016104d2565b42610c3184610f36565b10610c9d5760405162461bcd60e51b815260206004820152603660248201527f4c324f75747075744f7261636c653a2063616e6e6f742070726f706f7365204c60448201527532206f757470757420696e207468652066757475726560501b60648201526084016104d2565b83610d105760405162461bcd60e51b815260206004820152603a60248201527f4c324f75747075744f7261636c653a204c32206f75747075742070726f706f7360448201527f616c2063616e6e6f7420626520746865207a65726f206861736800000000000060648201526084016104d2565b8115610d9e5781814014610d9e5760405162461bcd60e51b815260206004820152604960248201527f4c324f75747075744f7261636c653a20626c6f636b206861736820646f65732060448201527f6e6f74206d6174636820746865206861736820617420746865206578706563746064820152681959081a195a59da1d60ba1b608482015260a4016104d2565b82610da860035490565b857fa7aaf2512769da4e444e3de247be2564225c2e7a8f74cfe528e46e17d24868e242604051610dda91815260200190565b60405180910390a45050604080516060810182529283526001600160801b034281166020850190815292811691840191825260038054600181018255600091909152935160029094027fc2575a0e9e593c00f959f8c92f12db2869c3395a3b0502d05e2516446f71f85b810194909455915190518216600160801b029116177fc2575a0e9e593c00f959f8c92f12db2869c3395a3b0502d05e2516446f71f85c90910155565b604080516060810182526000808252602082018190529181019190915260038281548110610eb057610eb06110d8565b600091825260209182902060408051606081018252600290930290910180548352600101546001600160801b0380821694840194909452600160801b90049092169181019190915292915050565b60408051606081018252600080825260208201819052918101919091526003610f268361076d565b81548110610eb057610eb06110d8565b600060055460015483610f4991906110c1565b610f539190611128565b600254610f6091906110ee565b92915050565b6000600454610f736106fe565b61075691906110ee565b6001600160a01b03163b151590565b80356001600160a01b0381168114610fa357600080fd5b919050565b600080600080600080600060e0888a031215610fc357600080fd5b87359650602088013595506040880135945060608801359350610fe860808901610f8c565b9250610ff660a08901610f8c565b915060c0880135905092959891949750929550565b600060208083528351808285015260005b818110156110385785810183015185820160400152820161101c565b8181111561104a576000604083870101525b50601f01601f1916929092016040019392505050565b60006020828403121561107257600080fd5b5035919050565b6000806000806080858703121561108f57600080fd5b5050823594602084013594506040840135936060013592509050565b634e487b7160e01b600052601160045260246000fd5b6000828210156110d3576110d36110ab565b500390565b634e487b7160e01b600052603260045260246000fd5b60008219821115611101576111016110ab565b500190565b60008261112357634e487b7160e01b600052601260045260246000fd5b500490565b6000816000190483118215151615611142576111426110ab565b50029056fea164736f6c634300080f000a","linkReferences":{}},"methodIdentifiers":{"CHALLENGER()":"6b4d98dd","FINALIZATION_PERIOD_SECONDS()":"f4daa291","L2_BLOCK_TIME()":"002134cc","PROPOSER()":"bffa7f0f","SUBMISSION_INTERVAL()":"529933df","challenger()":"534db0e2","computeL2Timestamp(uint256)":"d1de856c","deleteL2Outputs(uint256)":"89c44cbb","finalizationPeriodSeconds()":"ce5db8d6","getL2Output(uint256)":"a25ae557","getL2OutputAfter(uint256)":"cf8e5cf0","getL2OutputIndexAfter(uint256)":"7f006420","initialize(uint256,uint256,uint256,uint256,address,address,uint256)":"1c89c97d","l2BlockTime()":"93991af3","latestBlockNumber()":"4599c788","latestOutputIndex()":"69f16eec","nextBlockNumber()":"dcec3348","nextOutputIndex()":"6abcf563","proposeL2Output(bytes32,uint256,bytes32,uint256)":"9aaab648","proposer()":"a8e4fb90","startingBlockNumber()":"70872aa5","startingTimestamp()":"88786272","submissionInterval()":"e1a41bcf","version()":"54fd4d50"},"id":169}