{"abi":[{"type":"constructor","inputs":[{"name":"_oracle","type":"address","internalType":"contract IPreimageOracle"}],"stateMutability":"nonpayable"},{"type":"function","name":"oracle","inputs":[],"outputs":[{"name":"oracle_","type":"address","internalType":"contract IPreimageOracle"}],"stateMutability":"view"},{"type":"function","name":"step","inputs":[{"name":"_stateData","type":"bytes","internalType":"bytes"},{"name":"_proof","type":"bytes","internalType":"bytes"},{"name":"_localContext","type":"bytes32","internalType":"bytes32"}],"outputs":[{"name":"","type":"bytes32","internalType":"bytes32"}],"stateMutability":"nonpayable"},{"type":"function","name":"version","inputs":[],"outputs":[{"name":"","type":"string","internalType":"string"}],"stateMutability":"view"}],"bytecode":{"object":"0x60a060405234801561001057600080fd5b5060405161206f38038061206f83398101604081905261002f91610040565b6001600160a01b0316608052610070565b60006020828403121561005257600080fd5b81516001600160a01b038116811461006957600080fd5b9392505050565b608051611fde61009160003960008181608d01526105970152611fde6000f3fe608060405234801561001057600080fd5b50600436106100415760003560e01c806354fd4d50146100465780637dc0d1d014610080578063e14ced32146100b7575b600080fd5b61006a604051806040016040528060058152602001640312e312e360dc1b81525081565b6040516100779190611e76565b60405180910390f35b6040516001600160a01b037f0000000000000000000000000000000000000000000000000000000000000000168152602001610077565b6100ca6100c5366004611f0d565b6100d8565b604051908152602001610077565b60006100e2611dec565b608081146100ef57600080fd5b604051610600146100ff57600080fd5b6084871461010c57600080fd5b6101a4851461011a57600080fd5b8635608052602087013560a052604087013560e090811c60c09081526044890135821c82526048890135821c61010052604c890135821c610120526050890135821c61014052605489013590911c61016052605888013560f890811c610180526059890135901c6101a0819052605a89013590911c6101c05260628801906101e09060018111156101b657604051629b663b60e11b8152600481fd5b50602081018151146101c757600080fd5b60200160005b60208110156101f157823560e01c82526004909201916020909101906001016101cd565b5050508061012001511561020f576102076102f8565b9150506102ef565b6101408101805160010167ffffffffffffffff16905260006101a4905060008060006102448560600151866000015186610417565b9250925092508163ffffffff16600014801561026657508063ffffffff16600c145b156102805761027487610441565b955050505050506102ef565b600061028b866106ef565b61016087015187519192506102a891839190610524888888610763565b8652805163ffffffff9081166060808901919091526020830151821660808901526040830151821660a08901528201511660c08701526102e66102f8565b96505050505050505b95945050505050565b60408051608051815260a051602082015260dc519181019190915260fc51604482015261011c51604882015261013c51604c82015261015c51605082015261017c5160548201526101805161019f5160588301526101a0516101bf5160598401526101d851605a840152600092610200929091606283019190600181111561038b57604051629b663b60e11b8152600481fd5b60005b60208110156103b257601c860151845260209095019460049093019260010161038e565b506000835283830384a06000945080600181146103d257600395506103fa565b8280156103ea57600181146103f357600296506103f8565b600096506103f8565b600196505b505b50505081900390206001600160f81b031660f89190911b17919050565b6000806000610427858786610b49565b925050603f601a83901c8116915082165b93509350939050565b600061044b611dec565b608090506000806000806104828561016001516040810151608082015160a083015160c084015160e0909401519294919390929091565b509350935093509350600080610ffa63ffffffff168663ffffffff16036104c7576104b285858960e00151610bfd565b63ffffffff1660e08a0152909250905061066d565b610fcc1963ffffffff8716016104e3576340000000915061066d565b6110171963ffffffff8716016104fc576001915061066d565b6110951963ffffffff87160161053357600161012088015260ff85166101008801526105266102f8565b9998505050505050505050565b610fa21963ffffffff8716016106055760006040518061012001604052808763ffffffff1681526020018663ffffffff1681526020018563ffffffff16815260200189602001518152602001896040015163ffffffff1681526020018b81526020017f00000000000000000000000000000000000000000000000000000000000000006001600160a01b031681526020016105d76101a4600160ff16610380020190565b8152895160209091015290506105ec81610c91565b8b5263ffffffff1660408b0152909350915061066d9050565b610fa31963ffffffff87160161064d5760208701516040880151610633918791879187916105248d51610e8c565b63ffffffff1660408b015260208a0152909250905061066d565b610fd61963ffffffff87160161066d576106678585610f46565b90925090505b6000610678886106ef565b61016089015163ffffffff85811660408084019190915285821660e0909301929092526020830180518083168086526004909101831682526060808e01919091529051821660808d015291830151811660a08c0152908201511660c08a015290506106e16102f8565b9a9950505050505050505050565b6040805160808101825260008082526020820181905291810182905260608101919091526040518060800160405280836060015163ffffffff168152602001836080015163ffffffff1681526020018360a0015163ffffffff1681526020018360c0015163ffffffff168152509050919050565b84600263ffffffff8416148061077f57508263ffffffff166003145b156107d15760006002856303ffffff1663ffffffff16901b896020015163f0000000161790506107cb89898663ffffffff166002146107bf57601f6107c2565b60005b60ff1684610ffb565b50610b3e565b600080601f601087901c8116908a90601589901c16602081106107f6576107f6611f81565b602002015192508063ffffffff8716158061081757508663ffffffff16601c145b15610849578a8263ffffffff166020811061083457610834611f81565b6020020151925050601f600b88901c16610900565b60208763ffffffff1610156108ab578663ffffffff16600c148061087357508663ffffffff16600d145b8061088457508663ffffffff16600e145b15610895578761ffff169250610900565b6108a48861ffff1660106110ae565b9250610900565b60288763ffffffff161015806108c757508663ffffffff166022145b806108d857508663ffffffff166026145b15610900578a8263ffffffff16602081106108f5576108f5611f81565b602002015192508190505b60048763ffffffff161015801561091d575060088763ffffffff16105b8061092e57508663ffffffff166001145b1561094a576109418c8c898b8689611103565b50505050610b3e565b63ffffffff60006020898316106109af5761096a8a61ffff1660106110ae565b9095019463fffffffc86166109808d828e610b49565b915060288a63ffffffff16101580156109a057508963ffffffff16603014155b156109ad57809250600093505b505b60006109bf8b8b8b8a8a876112ce565b63ffffffff1690508963ffffffff1660001480156109e4575060088963ffffffff1610155b80156109f65750601c8963ffffffff16105b15610abe578863ffffffff1660081480610a1657508863ffffffff166009145b15610a4957610a3d8f8f8b63ffffffff16600814610a345786610a37565b60005b8a610ffb565b50505050505050610b3e565b8863ffffffff16600a03610a6b57610a3d8f8f868a63ffffffff8b16156119c7565b8863ffffffff16600b03610a8e57610a3d8f8f868a63ffffffff8b1615156119c7565b60108963ffffffff1610158015610aab5750601c8963ffffffff16105b15610abe57610a3d8f8f8b8a8a89611a6e565b8963ffffffff166038148015610ad9575063ffffffff851615155b15610b095760018e8663ffffffff1660208110610af857610af8611f81565b63ffffffff90921660209290920201525b8263ffffffff1663ffffffff14610b2857610b25838d83611ce5565b97505b610b368f8f868460016119c7565b505050505050505b979650505050505050565b6000610b5482611d87565b6003831615610b6257600080fd5b6020820191358360051c8160005b601b811015610bc85760208601953583821c6001168015610b985760018114610bad57610bbe565b60008481526020839052604090209350610bbe565b600082815260208590526040902093505b5050600101610b70565b50868114610bde57630badf00d60005260206000fd5b5050601f93909316601c0360031b9290921c63ffffffff169392505050565b6000808284610fff811615610c1757610fff811661100003015b8663ffffffff16600003610c835784935090810190636000000063ffffffff83161180610c4f57508463ffffffff168263ffffffff16105b80610c6557508563ffffffff168163ffffffff16105b15610c7e575063ffffffff925060169150839050610438565b610c87565b8693505b5093509350939050565b6101008101516080820151825160009283929163ffffffff1615610e8557845163ffffffff1660041901610e5d576000610cdf866101000151876020015163fffffffc168860e00151610b49565b606087015190915060001a600103610d2d57610d2786606001518760a0015160408051600093845233602052918152606090922091526001600160f81b0316600160f81b1790565b60608701525b6000808760c001516001600160a01b031663e03110e189606001518a608001516040518363ffffffff1660e01b8152600401610d7992919091825263ffffffff16602082015260400190565b6040805180830381865afa158015610d95573d6000803e3d6000fd5b505050506040513d601f19601f82011682018060405250810190610db99190611f97565b60208a015160408b01519294509092509060038216600481900384811015610ddf578094505b5083821015610dec578193505b8460088502610100031c9450846008828660040303021b9450600180600883600403021b036001806008878560040303021b03915081198116905085811988161796505050610e4a8a6020015163fffffffc168b60e0015187611ce5565b9298505050938601939250610e85915050565b845163ffffffff1660021901610e795784604001519350610e85565b63ffffffff9350600992505b9193509193565b600080858563ffffffff8b1660011480610eac575063ffffffff8b166002145b80610ebd575063ffffffff8b166004145b15610eca57889350610f38565b60051963ffffffff8c1601610f2c576000610eec868c63fffffffc1689610b49565b90508860038c166004038b811015610f0257809b505b8b965086900360089081029290921c600019600193880293841b0116911b17915060009050610f38565b63ffffffff9350600992505b975097509750979350505050565b60008063ffffffff8316600303610fe95763ffffffff84161580610f70575063ffffffff84166005145b80610f81575063ffffffff84166003145b15610f8f5760009150610ff4565b63ffffffff841660011480610faa575063ffffffff84166002145b80610fbb575063ffffffff84166006145b80610fcc575063ffffffff84166004145b15610fda5760019150610ff4565b5063ffffffff90506009610ff4565b5063ffffffff905060165b9250929050565b836000015160040163ffffffff16846020015163ffffffff161461105b5760405162461bcd60e51b81526020600482015260126024820152711a9d5b5c081a5b8819195b185e481cdb1bdd60721b60448201526064015b60405180910390fd5b835160208501805163ffffffff90811687528381169091528316156110a75780600801848463ffffffff166020811061109657611096611f81565b63ffffffff90921660209290920201525b5050505050565b600063ffffffff83811660001980850183169190911c821615159160016020869003821681901b830191861691821b92911b01826110ed5760006110ef565b815b90861663ffffffff16179250505092915050565b6000866000015160040163ffffffff16876020015163ffffffff16146111625760405162461bcd60e51b8152602060048201526014602482015273189c985b98da081a5b8819195b185e481cdb1bdd60621b6044820152606401611052565b8463ffffffff166004148061117d57508463ffffffff166005145b156111f4576000868463ffffffff166020811061119c5761119c611f81565b602002015190508063ffffffff168363ffffffff161480156111c457508563ffffffff166004145b806111ec57508063ffffffff168363ffffffff16141580156111ec57508563ffffffff166005145b915050611271565b8463ffffffff166006036112115760008260030b13159050611271565b8463ffffffff1660070361122d5760008260030b139050611271565b8463ffffffff1660010361127157601f601085901c1660008190036112565760008360030b1291505b8063ffffffff1660010361126f5760008360030b121591505b505b8651602088015163ffffffff16885281156112b25760026112978661ffff1660106110ae565b63ffffffff90811690911b82016004011660208901526112c4565b60208801805160040163ffffffff1690525b5050505050505050565b600063ffffffff861615806112fb575060088663ffffffff16101580156112fb5750600f8663ffffffff16105b156116d757856008811461133e576009811461134757600a811461135057600b811461135957600c811461136257600d811461136b57600e811461137457611379565b60209550611379565b60219550611379565b602a9550611379565b602b9550611379565b60249550611379565b60259550611379565b602695505b508463ffffffff1660000361139e575063ffffffff8216601f600688901c161b6119bd565b8463ffffffff166002036113c2575063ffffffff8216601f600688901c161c6119bd565b8463ffffffff166003036113f657601f600688901c166113ee63ffffffff8516821c60208390036110ae565b9150506119bd565b8463ffffffff16600403611416575063ffffffff8216601f84161b6119bd565b8463ffffffff16600603611436575063ffffffff8216601f84161c6119bd565b8463ffffffff1660070361145e57601f84166113ee63ffffffff8516821c60208390036110ae565b8463ffffffff166008036114735750826119bd565b8463ffffffff166009036114885750826119bd565b8463ffffffff16600a0361149d5750826119bd565b8463ffffffff16600b036114b25750826119bd565b8463ffffffff16600c036114c75750826119bd565b8463ffffffff16600f036114dc5750826119bd565b8463ffffffff166010036114f15750826119bd565b8463ffffffff166011036115065750826119bd565b8463ffffffff1660120361151b5750826119bd565b8463ffffffff166013036115305750826119bd565b8463ffffffff166018036115455750826119bd565b8463ffffffff1660190361155a5750826119bd565b8463ffffffff16601a0361156f5750826119bd565b8463ffffffff16601b036115845750826119bd565b8463ffffffff1660200361159b57508282016119bd565b8463ffffffff166021036115b257508282016119bd565b8463ffffffff166022036115c957508183036119bd565b8463ffffffff166023036115e057508183036119bd565b8463ffffffff166024036115f757508282166119bd565b8463ffffffff1660250361160e57508282176119bd565b8463ffffffff1660260361162557508282186119bd565b8463ffffffff1660270361163d5750828217196119bd565b8463ffffffff16602a0361166c578260030b8460030b1261165f576000611662565b60015b60ff1690506119bd565b8463ffffffff16602b03611694578263ffffffff168463ffffffff161061165f576000611662565b60405162461bcd60e51b815260206004820152601360248201527234b73b30b634b21034b739ba393ab1ba34b7b760691b6044820152606401611052565b611694565b8563ffffffff16601c03611757578463ffffffff166002036116fc57508282026119bd565b8463ffffffff166020148061171757508463ffffffff166021145b156116d2578463ffffffff1660200361172e579219925b60005b6380000000851615611750576401fffffffe600195861b169401611731565b90506119bd565b8563ffffffff16600f03611778575065ffffffff0000601083901b166119bd565b8563ffffffff166020036117ac576117508460031660080260180363ffffffff168363ffffffff16901c60ff1660086110ae565b8563ffffffff166021036117e1576117508460021660080260100363ffffffff168363ffffffff16901c61ffff1660106110ae565b8563ffffffff1660220361180f575063ffffffff60086003851602811681811b198416918316901b176119bd565b8563ffffffff166023036118245750806119bd565b8563ffffffff16602403611855578360031660080260180363ffffffff168263ffffffff16901c60ff1690506119bd565b8563ffffffff16602503611887578360021660080260100363ffffffff168263ffffffff16901c61ffff1690506119bd565b8563ffffffff166026036118b8575063ffffffff60086003851602601803811681811c198416918316901c176119bd565b8563ffffffff166028036118ed575060ff63ffffffff60086003861602601803811682811b9091188316918416901b176119bd565b8563ffffffff16602903611923575061ffff63ffffffff60086002861602601003811682811b9091188316918416901b176119bd565b8563ffffffff16602a03611951575063ffffffff60086003851602811681811c198316918416901c176119bd565b8563ffffffff16602b036119665750816119bd565b8563ffffffff16602e03611997575063ffffffff60086003851602601803811681811b198316918416901b176119bd565b8563ffffffff166030036119ac5750806119bd565b8563ffffffff166038036116945750815b9695505050505050565b60208363ffffffff1610611a0e5760405162461bcd60e51b815260206004820152600e60248201526d3b30b634b2103932b3b4b9ba32b960911b6044820152606401611052565b63ffffffff831615801590611a205750805b15611a4f5781848463ffffffff1660208110611a3e57611a3e611f81565b63ffffffff90921660209290920201525b5050505060208101805163ffffffff8082169093526004019091169052565b60008463ffffffff16601003611a8957506060860151611c8d565b8463ffffffff16601103611aa85763ffffffff84166060880152611c8d565b8463ffffffff16601203611ac157506040860151611c8d565b8463ffffffff16601303611ae05763ffffffff84166040880152611c8d565b8463ffffffff16601803611b145763ffffffff600385810b9085900b02602081901c821660608a0152166040880152611c8d565b8463ffffffff16601903611b455763ffffffff84811681851602602081901c821660608a0152166040880152611c8d565b8463ffffffff16601a03611be7578260030b600003611b9f5760405162461bcd60e51b81526020600482015260166024820152754d4950533a206469766973696f6e206279207a65726f60501b6044820152606401611052565b8260030b8460030b81611bb457611bb4611fbb565b0763ffffffff166060880152600383810b9085900b81611bd657611bd6611fbb565b0563ffffffff166040880152611c8d565b8463ffffffff16601b03611c8d578263ffffffff16600003611c445760405162461bcd60e51b81526020600482015260166024820152754d4950533a206469766973696f6e206279207a65726f60501b6044820152606401611052565b8263ffffffff168463ffffffff1681611c5f57611c5f611fbb565b0663ffffffff908116606089015283811690851681611c8057611c80611fbb565b0463ffffffff1660408801525b63ffffffff821615611cc35780868363ffffffff1660208110611cb257611cb2611f81565b63ffffffff90921660209290920201525b50505060208401805163ffffffff808216909652600401909416909352505050565b6000611cf083611d87565b6003841615611cfe57600080fd5b6020830192601f8516601c0360031b83811b913563ffffffff90911b1916178460051c60005b601b811015611d7c5760208601953582821c6001168015611d4c5760018114611d6157611d72565b60008581526020839052604090209450611d72565b600082815260208690526040902094505b5050600101611d24565b509095945050505050565b366103808201811015611de85760405162461bcd60e51b815260206004820152602360248201527f636865636b207468617420746865726520697320656e6f7567682063616c6c6460448201526261746160e81b6064820152608401611052565b5050565b6040805161018081018252600080825260208201819052918101829052606081018290526080810182905260a0810182905260c0810182905260e08101829052610100810182905261012081018290526101408101919091526101608101611e52611e57565b905290565b6040518061040001604052806020906020820280368337509192915050565b600060208083528351808285015260005b81811015611ea357858101830151858201604001528201611e87565b81811115611eb5576000604083870101525b50601f01601f1916929092016040019392505050565b60008083601f840112611edd57600080fd5b50813567ffffffffffffffff811115611ef557600080fd5b602083019150836020828501011115610ff457600080fd5b600080600080600060608688031215611f2557600080fd5b853567ffffffffffffffff80821115611f3d57600080fd5b611f4989838a01611ecb565b90975095506020880135915080821115611f6257600080fd5b50611f6f88828901611ecb565b96999598509660400135949350505050565b634e487b7160e01b600052603260045260246000fd5b60008060408385031215611faa57600080fd5b505080516020909101519092909150565b634e487b7160e01b600052601260045260246000fdfea164736f6c634300080f000a","linkReferences":{}},"methodIdentifiers":{"oracle()":"7dc0d1d0","step(bytes,bytes,bytes32)":"e14ced32","version()":"54fd4d50"},"id":214}