{"abi":[{"type":"constructor","inputs":[],"stateMutability":"nonpayable"},{"type":"function","name":"BRIDGE","inputs":[],"outputs":[{"name":"","type":"address","internalType":"address"}],"stateMutability":"view"},{"type":"function","name":"bridge","inputs":[],"outputs":[{"name":"","type":"address","internalType":"address"}],"stateMutability":"view"},{"type":"function","name":"createOptimismMintableERC20","inputs":[{"name":"_remoteToken","type":"address","internalType":"address"},{"name":"_name","type":"string","internalType":"string"},{"name":"_symbol","type":"string","internalType":"string"}],"outputs":[{"name":"","type":"address","internalType":"address"}],"stateMutability":"nonpayable"},{"type":"function","name":"createOptimismMintableERC20WithDecimals","inputs":[{"name":"_remoteToken","type":"address","internalType":"address"},{"name":"_name","type":"string","internalType":"string"},{"name":"_symbol","type":"string","internalType":"string"},{"name":"_decimals","type":"uint8","internalType":"uint8"}],"outputs":[{"name":"","type":"address","internalType":"address"}],"stateMutability":"nonpayable"},{"type":"function","name":"createStandardL2Token","inputs":[{"name":"_remoteToken","type":"address","internalType":"address"},{"name":"_name","type":"string","internalType":"string"},{"name":"_symbol","type":"string","internalType":"string"}],"outputs":[{"name":"","type":"address","internalType":"address"}],"stateMutability":"nonpayable"},{"type":"function","name":"initialize","inputs":[{"name":"_bridge","type":"address","internalType":"address"}],"outputs":[],"stateMutability":"nonpayable"},{"type":"function","name":"version","inputs":[],"outputs":[{"name":"","type":"string","internalType":"string"}],"stateMutability":"view"},{"type":"event","name":"Initialized","inputs":[{"name":"version","type":"uint8","indexed":false,"internalType":"uint8"}],"anonymous":false},{"type":"event","name":"OptimismMintableERC20Created","inputs":[{"name":"localToken","type":"address","indexed":true,"internalType":"address"},{"name":"remoteToken","type":"address","indexed":true,"internalType":"address"},{"name":"deployer","type":"address","indexed":false,"internalType":"address"}],"anonymous":false},{"type":"event","name":"StandardL2TokenCreated","inputs":[{"name":"remoteToken","type":"address","indexed":true,"internalType":"address"},{"name":"localToken","type":"address","indexed":true,"internalType":"address"}],"anonymous":false}],"bytecode":{"object":"0x608060405234801561001057600080fd5b5061001b6000610020565b610169565b600054610100900460ff16158080156100405750600054600160ff909116105b8061006b57506100593061015a60201b61045d1760201c565b15801561006b575060005460ff166001145b6100d25760405162461bcd60e51b815260206004820152602e60248201527f496e697469616c697a61626c653a20636f6e747261637420697320616c72656160448201526d191e481a5b9a5d1a585b1a5e995960921b606482015260840160405180910390fd5b6000805460ff1916600117905580156100f5576000805461ff0019166101001790555b600180546001600160a01b0319166001600160a01b0384161790558015610156576000805461ff0019169055604051600181527f7f26b83ff96e1f2b6a682f133852f6798a09c465da95921460cefb38474024989060200160405180910390a15b5050565b6001600160a01b03163b151590565b6119af806101786000396000f3fe60806040523480156200001157600080fd5b5060043610620000875760003560e01c8063c4d66de81162000062578063c4d66de81462000110578063ce5ac90f1462000129578063e78cea921462000140578063ee9a31a2146200015457600080fd5b806354fd4d50146200008c578063896f93d114620000c95780638cf0629c14620000f9575b600080fd5b620000b1604051806040016040528060058152602001640312e392e360dc1b81525081565b604051620000c09190620004ca565b60405180910390f35b620000e0620000da366004620005ae565b62000166565b6040516001600160a01b039091168152602001620000c0565b620000e06200010a3660046200062b565b6200017d565b6200012762000121366004620006c2565b62000320565b005b620000e06200013a366004620005ae565b6200044c565b600154620000e0906001600160a01b031681565b6001546001600160a01b0316620000e0565b6000620001758484846200044c565b949350505050565b60006001600160a01b038516620002015760405162461bcd60e51b815260206004820152603f60248201527f4f7074696d69736d4d696e7461626c654552433230466163746f72793a206d7560448201527f73742070726f766964652072656d6f746520746f6b656e20616464726573730060648201526084015b60405180910390fd5b6000858585856040516020016200021c9493929190620006e0565b604051602081830303815290604052805190602001209050600081600160009054906101000a90046001600160a01b0316888888886040516200025f906200046c565b6200026f9594939291906200072f565b8190604051809103906000f590508015801562000290573d6000803e3d6000fd5b509050806001600160a01b0316876001600160a01b03167fceeb8e7d520d7f3b65fc11a262b91066940193b05d4f93df07cfdced0eb551cf60405160405180910390a36040513381526001600160a01b0380891691908316907f52fe89dd5930f343d25650b62fd367bae47088bcddffd2a88350a6ecdd620cdb9060200160405180910390a39695505050505050565b600054610100900460ff1615808015620003415750600054600160ff909116105b806200035d5750303b1580156200035d575060005460ff166001145b620003c25760405162461bcd60e51b815260206004820152602e60248201527f496e697469616c697a61626c653a20636f6e747261637420697320616c72656160448201526d191e481a5b9a5d1a585b1a5e995960921b6064820152608401620001f8565b6000805460ff191660011790558015620003e6576000805461ff0019166101001790555b600180546001600160a01b0319166001600160a01b038416179055801562000448576000805461ff0019169055604051600181527f7f26b83ff96e1f2b6a682f133852f6798a09c465da95921460cefb38474024989060200160405180910390a15b5050565b60006200017584848460126200017d565b6001600160a01b03163b151590565b61121b806200078883390190565b6000815180845260005b81811015620004a25760208185018101518683018201520162000484565b81811115620004b5576000602083870101525b50601f01601f19169290920160200192915050565b602081526000620004df60208301846200047a565b9392505050565b80356001600160a01b0381168114620004fe57600080fd5b919050565b634e487b7160e01b600052604160045260246000fd5b600082601f8301126200052b57600080fd5b813567ffffffffffffffff8082111562000549576200054962000503565b604051601f8301601f19908116603f0116810190828211818310171562000574576200057462000503565b816040528381528660208588010111156200058e57600080fd5b836020870160208301376000602085830101528094505050505092915050565b600080600060608486031215620005c457600080fd5b620005cf84620004e6565b9250602084013567ffffffffffffffff80821115620005ed57600080fd5b620005fb8783880162000519565b935060408601359150808211156200061257600080fd5b50620006218682870162000519565b9150509250925092565b600080600080608085870312156200064257600080fd5b6200064d85620004e6565b9350602085013567ffffffffffffffff808211156200066b57600080fd5b620006798883890162000519565b945060408701359150808211156200069057600080fd5b506200069f8782880162000519565b925050606085013560ff81168114620006b757600080fd5b939692955090935050565b600060208284031215620006d557600080fd5b620004df82620004e6565b6001600160a01b038516815260806020820181905260009062000706908301866200047a565b82810360408401526200071a81866200047a565b91505060ff8316606083015295945050505050565b6001600160a01b0386811682528516602082015260a0604082018190526000906200075d908301866200047a565b82810360608401526200077181866200047a565b91505060ff83166080830152969550505050505056fe60e06040523480156200001157600080fd5b506040516200121b3803806200121b833981016040819052620000349162000163565b828260036200004483826200029e565b5060046200005382826200029e565b5050506001600160a01b039384166080529390921660a052505060ff1660c0526200036a565b80516001600160a01b03811681146200009157600080fd5b919050565b634e487b7160e01b600052604160045260246000fd5b600082601f830112620000be57600080fd5b81516001600160401b0380821115620000db57620000db62000096565b604051601f8301601f19908116603f0116810190828211818310171562000106576200010662000096565b816040528381526020925086838588010111156200012357600080fd5b600091505b8382101562000147578582018301518183018401529082019062000128565b83821115620001595760008385830101525b9695505050505050565b600080600080600060a086880312156200017c57600080fd5b620001878662000079565b9450620001976020870162000079565b60408701519094506001600160401b0380821115620001b557600080fd5b620001c389838a01620000ac565b94506060880151915080821115620001da57600080fd5b50620001e988828901620000ac565b925050608086015160ff811681146200020157600080fd5b809150509295509295909350565b600181811c908216806200022457607f821691505b6020821081036200024557634e487b7160e01b600052602260045260246000fd5b50919050565b601f8211156200029957600081815260208120601f850160051c81016020861015620002745750805b601f850160051c820191505b81811015620002955782815560010162000280565b5050505b505050565b81516001600160401b03811115620002ba57620002ba62000096565b620002d281620002cb84546200020f565b846200024b565b602080601f8311600181146200030a5760008415620002f15750858301515b600019600386901b1c1916600185901b17855562000295565b600085815260208120601f198616915b828110156200033b578886015182559484019460019091019084016200031a565b50858210156200035a5787850151600019600388901b60f8161c191681555b5050505050600190811b01905550565b60805160a05160c051610e65620003b660003960006101f70152600081816102d90152818161033b015281816104b6015261056701526000818161016901526102ff0152610e656000f3fe608060405234801561001057600080fd5b50600436106101375760003560e01c806370a08231116100b8578063ae1f6aaf1161007c578063ae1f6aaf146102d7578063c01e1bd6146102fd578063d6c0b2c4146102fd578063dd62ed3e14610323578063e78cea92146102d7578063ee9a31a21461033657600080fd5b806370a082311461026d57806395d89b41146102965780639dc29fac1461029e578063a457c2d7146102b1578063a9059cbb146102c457600080fd5b806323b872dd116100ff57806323b872dd146101dd578063313ce567146101f0578063395093511461022157806340c10f191461023457806354fd4d501461024957600080fd5b806301ffc9a71461013c578063033964be1461016457806306fdde03146101a3578063095ea7b3146101b857806318160ddd146101cb575b600080fd5b61014f61014a366004610c2f565b61035d565b60405190151581526020015b60405180910390f35b61018b7f000000000000000000000000000000000000000000000000000000000000000081565b6040516001600160a01b03909116815260200161015b565b6101ab6103bb565b60405161015b9190610c60565b61014f6101c6366004610cd1565b61044d565b6002545b60405190815260200161015b565b61014f6101eb366004610cfb565b610465565b60405160ff7f000000000000000000000000000000000000000000000000000000000000000016815260200161015b565b61014f61022f366004610cd1565b610489565b610247610242366004610cd1565b6104ab565b005b6101ab604051806040016040528060058152602001640312e332e360dc1b81525081565b6101cf61027b366004610d37565b6001600160a01b031660009081526020819052604090205490565b6101ab61054d565b6102476102ac366004610cd1565b61055c565b61014f6102bf366004610cd1565b6105e9565b61014f6102d2366004610cd1565b610664565b7f000000000000000000000000000000000000000000000000000000000000000061018b565b7f000000000000000000000000000000000000000000000000000000000000000061018b565b6101cf610331366004610d52565b610672565b61018b7f000000000000000000000000000000000000000000000000000000000000000081565b60006301ffc9a760e01b631d1d8b6360e01b63ec4fc8e360e01b6001600160e01b0319851683148061039b57506001600160e01b0319858116908316145b806103b257506001600160e01b0319858116908216145b95945050505050565b6060600380546103ca90610d85565b80601f01602080910402602001604051908101604052809291908181526020018280546103f690610d85565b80156104435780601f1061041857610100808354040283529160200191610443565b820191906000526020600020905b81548152906001019060200180831161042657829003601f168201915b5050505050905090565b60003361045b81858561069d565b5060019392505050565b6000336104738582856107c2565b61047e85858561083c565b506001949350505050565b60003361045b81858561049c8383610672565b6104a69190610dd5565b61069d565b336001600160a01b037f000000000000000000000000000000000000000000000000000000000000000016146104fc5760405162461bcd60e51b81526004016104f390610ded565b60405180910390fd5b6105068282610a0a565b816001600160a01b03167f0f6798a560793a54c3bcfe86a93cde1e73087d944c0ea20544137d41213968858260405161054191815260200190565b60405180910390a25050565b6060600480546103ca90610d85565b336001600160a01b037f000000000000000000000000000000000000000000000000000000000000000016146105a45760405162461bcd60e51b81526004016104f390610ded565b6105ae8282610ae9565b816001600160a01b03167fcc16f5dbb4873280815c1ee09dbd06736cffcc184412cf7a71a0fdb75d397ca58260405161054191815260200190565b600033816105f78286610672565b9050838110156106575760405162461bcd60e51b815260206004820152602560248201527f45524332303a2064656372656173656420616c6c6f77616e63652062656c6f77604482015264207a65726f60d81b60648201526084016104f3565b61047e828686840361069d565b60003361045b81858561083c565b6001600160a01b03918216600090815260016020908152604080832093909416825291909152205490565b6001600160a01b0383166106ff5760405162461bcd60e51b8152602060048201526024808201527f45524332303a20617070726f76652066726f6d20746865207a65726f206164646044820152637265737360e01b60648201526084016104f3565b6001600160a01b0382166107605760405162461bcd60e51b815260206004820152602260248201527f45524332303a20617070726f766520746f20746865207a65726f206164647265604482015261737360f01b60648201526084016104f3565b6001600160a01b0383811660008181526001602090815260408083209487168084529482529182902085905590518481527f8c5be1e5ebec7d5bd14f71427d1e84f3dd0314c0f7b2291e5b200ac8c7c3b92591015b60405180910390a3505050565b60006107ce8484610672565b9050600019811461083657818110156108295760405162461bcd60e51b815260206004820152601d60248201527f45524332303a20696e73756666696369656e7420616c6c6f77616e636500000060448201526064016104f3565b610836848484840361069d565b50505050565b6001600160a01b0383166108a05760405162461bcd60e51b815260206004820152602560248201527f45524332303a207472616e736665722066726f6d20746865207a65726f206164604482015264647265737360d81b60648201526084016104f3565b6001600160a01b0382166109025760405162461bcd60e51b815260206004820152602360248201527f45524332303a207472616e7366657220746f20746865207a65726f206164647260448201526265737360e81b60648201526084016104f3565b6001600160a01b0383166000908152602081905260409020548181101561097a5760405162461bcd60e51b815260206004820152602660248201527f45524332303a207472616e7366657220616d6f756e7420657863656564732062604482015265616c616e636560d01b60648201526084016104f3565b6001600160a01b038085166000908152602081905260408082208585039055918516815290812080548492906109b1908490610dd5565b92505081905550826001600160a01b0316846001600160a01b03167fddf252ad1be2c89b69c2b068fc378daa952ba7f163c4a11628f55a4df523b3ef846040516109fd91815260200190565b60405180910390a3610836565b6001600160a01b038216610a605760405162461bcd60e51b815260206004820152601f60248201527f45524332303a206d696e7420746f20746865207a65726f20616464726573730060448201526064016104f3565b8060026000828254610a729190610dd5565b90915550506001600160a01b03821660009081526020819052604081208054839290610a9f908490610dd5565b90915550506040518181526001600160a01b038316906000907fddf252ad1be2c89b69c2b068fc378daa952ba7f163c4a11628f55a4df523b3ef9060200160405180910390a35050565b6001600160a01b038216610b495760405162461bcd60e51b815260206004820152602160248201527f45524332303a206275726e2066726f6d20746865207a65726f206164647265736044820152607360f81b60648201526084016104f3565b6001600160a01b03821660009081526020819052604090205481811015610bbd5760405162461bcd60e51b815260206004820152602260248201527f45524332303a206275726e20616d6f756e7420657863656564732062616c616e604482015261636560f01b60648201526084016104f3565b6001600160a01b0383166000908152602081905260408120838303905560028054849290610bec908490610e41565b90915550506040518281526000906001600160a01b038516907fddf252ad1be2c89b69c2b068fc378daa952ba7f163c4a11628f55a4df523b3ef906020016107b5565b600060208284031215610c4157600080fd5b81356001600160e01b031981168114610c5957600080fd5b9392505050565b600060208083528351808285015260005b81811015610c8d57858101830151858201604001528201610c71565b81811115610c9f576000604083870101525b50601f01601f1916929092016040019392505050565b80356001600160a01b0381168114610ccc57600080fd5b919050565b60008060408385031215610ce457600080fd5b610ced83610cb5565b946020939093013593505050565b600080600060608486031215610d1057600080fd5b610d1984610cb5565b9250610d2760208501610cb5565b9150604084013590509250925092565b600060208284031215610d4957600080fd5b610c5982610cb5565b60008060408385031215610d6557600080fd5b610d6e83610cb5565b9150610d7c60208401610cb5565b90509250929050565b600181811c90821680610d9957607f821691505b602082108103610db957634e487b7160e01b600052602260045260246000fd5b50919050565b634e487b7160e01b600052601160045260246000fd5b60008219821115610de857610de8610dbf565b500190565b60208082526034908201527f4f7074696d69736d4d696e7461626c6545524332303a206f6e6c79206272696460408201527333b29031b0b71036b4b73a1030b73210313ab93760611b606082015260800190565b600082821015610e5357610e53610dbf565b50039056fea164736f6c634300080f000aa164736f6c634300080f000a","linkReferences":{}},"methodIdentifiers":{"BRIDGE()":"ee9a31a2","bridge()":"e78cea92","createOptimismMintableERC20(address,string,string)":"ce5ac90f","createOptimismMintableERC20WithDecimals(address,string,string,uint8)":"8cf0629c","createStandardL2Token(address,string,string)":"896f93d1","initialize(address)":"c4d66de8","version()":"54fd4d50"},"id":304}