{"abi":[{"type":"constructor","inputs":[],"stateMutability":"nonpayable"},{"type":"receive","stateMutability":"payable"},{"type":"function","name":"GUARDIAN","inputs":[],"outputs":[{"name":"","type":"address","internalType":"address"}],"stateMutability":"view"},{"type":"function","name":"L2_ORACLE","inputs":[],"outputs":[{"name":"","type":"address","internalType":"contract L2OutputOracle"}],"stateMutability":"view"},{"type":"function","name":"SYSTEM_CONFIG","inputs":[],"outputs":[{"name":"","type":"address","internalType":"contract SystemConfig"}],"stateMutability":"view"},{"type":"function","name":"depositTransaction","inputs":[{"name":"_to","type":"address","internalType":"address"},{"name":"_mint","type":"uint256","internalType":"uint256"},{"name":"_value","type":"uint256","internalType":"uint256"},{"name":"_gasLimit","type":"uint64","internalType":"uint64"},{"name":"_isCreation","type":"bool","internalType":"bool"},{"name":"_data","type":"bytes","internalType":"bytes"}],"outputs":[],"stateMutability":"nonpayable"},{"type":"function","name":"donateETH","inputs":[],"outputs":[],"stateMutability":"payable"},{"type":"function","name":"finalizeWithdrawalTransaction","inputs":[{"name":"_tx","type":"tuple","internalType":"struct Types.WithdrawalTransaction","components":[{"name":"nonce","type":"uint256","internalType":"uint256"},{"name":"sender","type":"address","internalType":"address"},{"name":"target","type":"address","internalType":"address"},{"name":"value","type":"uint256","internalType":"uint256"},{"name":"gasLimit","type":"uint256","internalType":"uint256"},{"name":"data","type":"bytes","internalType":"bytes"}]}],"outputs":[],"stateMutability":"nonpayable"},{"type":"function","name":"finalizedWithdrawals","inputs":[{"name":"","type":"bytes32","internalType":"bytes32"}],"outputs":[{"name":"","type":"bool","internalType":"bool"}],"stateMutability":"view"},{"type":"function","name":"guardian","inputs":[],"outputs":[{"name":"","type":"address","internalType":"address"}],"stateMutability":"view"},{"type":"function","name":"initialize","inputs":[{"name":"_l2Oracle","type":"address","internalType":"contract L2OutputOracle"},{"name":"_systemConfig","type":"address","internalType":"contract SystemConfig"},{"name":"_superchainConfig","type":"address","internalType":"contract SuperchainConfig"}],"outputs":[],"stateMutability":"nonpayable"},{"type":"function","name":"isOutputFinalized","inputs":[{"name":"_l2OutputIndex","type":"uint256","internalType":"uint256"}],"outputs":[{"name":"","type":"bool","internalType":"bool"}],"stateMutability":"view"},{"type":"function","name":"l2Oracle","inputs":[],"outputs":[{"name":"","type":"address","internalType":"contract L2OutputOracle"}],"stateMutability":"view"},{"type":"function","name":"l2Sender","inputs":[],"outputs":[{"name":"","type":"address","internalType":"address"}],"stateMutability":"view"},{"type":"function","name":"minimumGasLimit","inputs":[{"name":"_byteCount","type":"uint64","internalType":"uint64"}],"outputs":[{"name":"","type":"uint64","internalType":"uint64"}],"stateMutability":"pure"},{"type":"function","name":"nativeTokenAddress","inputs":[],"outputs":[{"name":"","type":"address","internalType":"address"}],"stateMutability":"view"},{"type":"function","name":"onApprove","inputs":[{"name":"_owner","type":"address","internalType":"address"},{"name":"","type":"address","internalType":"address"},{"name":"_amount","type":"uint256","internalType":"uint256"},{"name":"_data","type":"bytes","internalType":"bytes"}],"outputs":[{"name":"","type":"bool","internalType":"bool"}],"stateMutability":"nonpayable"},{"type":"function","name":"params","inputs":[],"outputs":[{"name":"prevBaseFee","type":"uint128","internalType":"uint128"},{"name":"prevBoughtGas","type":"uint64","internalType":"uint64"},{"name":"prevBlockNum","type":"uint64","internalType":"uint64"}],"stateMutability":"view"},{"type":"function","name":"paused","inputs":[],"outputs":[{"name":"paused_","type":"bool","internalType":"bool"}],"stateMutability":"view"},{"type":"function","name":"proveWithdrawalTransaction","inputs":[{"name":"_tx","type":"tuple","internalType":"struct Types.WithdrawalTransaction","components":[{"name":"nonce","type":"uint256","internalType":"uint256"},{"name":"sender","type":"address","internalType":"address"},{"name":"target","type":"address","internalType":"address"},{"name":"value","type":"uint256","internalType":"uint256"},{"name":"gasLimit","type":"uint256","internalType":"uint256"},{"name":"data","type":"bytes","internalType":"bytes"}]},{"name":"_l2OutputIndex","type":"uint256","internalType":"uint256"},{"name":"_outputRootProof","type":"tuple","internalType":"struct Types.OutputRootProof","components":[{"name":"version","type":"bytes32","internalType":"bytes32"},{"name":"stateRoot","type":"bytes32","internalType":"bytes32"},{"name":"messagePasserStorageRoot","type":"bytes32","internalType":"bytes32"},{"name":"latestBlockhash","type":"bytes32","internalType":"bytes32"}]},{"name":"_withdrawalProof","type":"bytes[]","internalType":"bytes[]"}],"outputs":[],"stateMutability":"nonpayable"},{"type":"function","name":"provenWithdrawals","inputs":[{"name":"","type":"bytes32","internalType":"bytes32"}],"outputs":[{"name":"outputRoot","type":"bytes32","internalType":"bytes32"},{"name":"timestamp","type":"uint128","internalType":"uint128"},{"name":"l2OutputIndex","type":"uint128","internalType":"uint128"}],"stateMutability":"view"},{"type":"function","name":"spacer_native_token_address","inputs":[],"outputs":[{"name":"","type":"address","internalType":"address"}],"stateMutability":"view"},{"type":"function","name":"superchainConfig","inputs":[],"outputs":[{"name":"","type":"address","internalType":"contract SuperchainConfig"}],"stateMutability":"view"},{"type":"function","name":"supportsInterface","inputs":[{"name":"interfaceId","type":"bytes4","internalType":"bytes4"}],"outputs":[{"name":"","type":"bool","internalType":"bool"}],"stateMutability":"pure"},{"type":"function","name":"systemConfig","inputs":[],"outputs":[{"name":"","type":"address","internalType":"contract SystemConfig"}],"stateMutability":"view"},{"type":"function","name":"version","inputs":[],"outputs":[{"name":"","type":"string","internalType":"string"}],"stateMutability":"pure"},{"type":"event","name":"Initialized","inputs":[{"name":"version","type":"uint8","indexed":false,"internalType":"uint8"}],"anonymous":false},{"type":"event","name":"TransactionDeposited","inputs":[{"name":"from","type":"address","indexed":true,"internalType":"address"},{"name":"to","type":"address","indexed":true,"internalType":"address"},{"name":"version","type":"uint256","indexed":true,"internalType":"uint256"},{"name":"opaqueData","type":"bytes","indexed":false,"internalType":"bytes"}],"anonymous":false},{"type":"event","name":"WithdrawalFinalized","inputs":[{"name":"withdrawalHash","type":"bytes32","indexed":true,"internalType":"bytes32"},{"name":"success","type":"bool","indexed":false,"internalType":"bool"}],"anonymous":false},{"type":"event","name":"WithdrawalProven","inputs":[{"name":"withdrawalHash","type":"bytes32","indexed":true,"internalType":"bytes32"},{"name":"from","type":"address","indexed":true,"internalType":"address"},{"name":"to","type":"address","indexed":true,"internalType":"address"}],"anonymous":false},{"type":"error","name":"ContentLengthMismatch","inputs":[]},{"type":"error","name":"EmptyItem","inputs":[]},{"type":"error","name":"InvalidDataRemainder","inputs":[]},{"type":"error","name":"InvalidHeader","inputs":[]},{"type":"error","name":"OutOfGas","inputs":[]},{"type":"error","name":"UnexpectedList","inputs":[]},{"type":"error","name":"UnexpectedString","inputs":[]}],"bytecode":{"object":"0x60806040523480156200001157600080fd5b50620000206000808062000026565b6200028f565b600054610100900460ff1615808015620000475750600054600160ff909116105b806200007757506200006430620001c160201b620016361760201c565b15801562000077575060005460ff166001145b620000e05760405162461bcd60e51b815260206004820152602e60248201527f496e697469616c697a61626c653a20636f6e747261637420697320616c72656160448201526d191e481a5b9a5d1a585b1a5e995960921b60648201526084015b60405180910390fd5b6000805460ff19166001179055801562000104576000805461ff0019166101001790555b603680546001600160a01b03199081166001600160a01b03878116919091179092556037805490911685831617905560358054610100600160a81b03191661010085841602179055603254166200016a57603280546001600160a01b03191661dead1790555b62000174620001d0565b8015620001bb576000805461ff0019169055604051600181527f7f26b83ff96e1f2b6a682f133852f6798a09c465da95921460cefb38474024989060200160405180910390a15b50505050565b6001600160a01b03163b151590565b600054610100900460ff166200023d5760405162461bcd60e51b815260206004820152602b60248201527f496e697469616c697a61626c653a20636f6e7472616374206973206e6f74206960448201526a6e697469616c697a696e6760a81b6064820152608401620000d7565b600154600160c01b90046001600160401b03166000036200028d5760408051606081018252633b9aca0080825260006020830152436001600160401b031691909201819052600160c01b02176001555b565b614406806200029f6000396000f3fe60806040526004361061014e5760003560e01c80638b4c40b0116100b6578063b7d823741161006f578063b7d823741461040a578063b9e559581461042a578063c0c53b8b1461044a578063cff0ab961461046a578063e965084c146104d5578063f04987501461054257600080fd5b80638b4c40b0146102a65780638c3152e9146103425780639b5f694a146103625780639bf62d8214610382578063a14238e7146103a2578063a35d99df146103d257600080fd5b80634870496f116101085780634870496f146102865780634d0047ee146102a857806354fd4d50146102bd5780635c975abb146102f85780636dbffb781461030d578063724c184c1461032d57600080fd5b80621c2ff6146101a557806301ffc9a7146101dc57806333d7e2bd1461020c57806335e80ab31461022c5780634273ca1614610251578063452a93201461027157600080fd5b366101a05760405162461bcd60e51b815260206004820152601760248201527f4f6e6c7920616c6c6f77206e617469766520746f6b656e00000000000000000060448201526064015b60405180910390fd5b600080fd5b3480156101b157600080fd5b506036546001600160a01b03165b6040516001600160a01b0390911681526020015b60405180910390f35b3480156101e857600080fd5b506101fc6101f7366004613938565b610560565b60405190151581526020016101d3565b34801561021857600080fd5b506037546101bf906001600160a01b031681565b34801561023857600080fd5b506035546101bf9061010090046001600160a01b031681565b34801561025d57600080fd5b506101fc61026c3660046139c2565b610597565b34801561027d57600080fd5b506101bf61060e565b34801561029257600080fd5b506102a66102a1366004613b97565b61068c565b005b3480156102b457600080fd5b506101bf610b12565b3480156102c957600080fd5b50604080518082018252600c81526b322e382e312d626574612e3160a01b602082015290516101d39190613cac565b34801561030457600080fd5b506101fc610b1c565b34801561031957600080fd5b506101fc610328366004613cbf565b610b95565b34801561033957600080fd5b506101bf610c1b565b34801561034e57600080fd5b506102a661035d366004613cd8565b610c27565b34801561036e57600080fd5b506036546101bf906001600160a01b031681565b34801561038e57600080fd5b506032546101bf906001600160a01b031681565b3480156103ae57600080fd5b506101fc6103bd366004613cbf565b60336020526000908152604090205460ff1681565b3480156103de57600080fd5b506103f26103ed366004613d30565b611489565b6040516001600160401b0390911681526020016101d3565b34801561041657600080fd5b50603e546101bf906001600160a01b031681565b34801561043657600080fd5b506102a6610445366004613d59565b6114a2565b34801561045657600080fd5b506102a6610465366004613de5565b6114bd565b34801561047657600080fd5b506001546104a6906001600160801b038116906001600160401b03600160801b8204811691600160c01b90041683565b604080516001600160801b0390941684526001600160401b0392831660208501529116908201526060016101d3565b3480156104e157600080fd5b5061051d6104f0366004613cbf565b603460205260009081526040902080546001909101546001600160801b0380821691600160801b90041683565b604080519384526001600160801b0392831660208501529116908201526060016101d3565b34801561054e57600080fd5b506037546001600160a01b03166101bf565b60006001600160e01b03198216632139e50b60e11b148061059157506001600160e01b031982166301ffc9a760e01b145b92915050565b6000806000803660006105aa8888611645565b945094509450945094506105bc6116bc565b6001600160a01b031633036105fb576105ed8b868b8763ffffffff88166001600160a01b0384161588886001611706565b600195505050505050610605565b6000955050505050505b95945050505050565b6000603560019054906101000a90046001600160a01b03166001600160a01b031663452a93206040518163ffffffff1660e01b8152600401602060405180830381865afa158015610663573d6000803e3d6000fd5b505050506040513d601f19601f820116820180604052508101906106879190613e30565b905090565b610694610b1c565b156106da5760405162461bcd60e51b815260206004820152601660248201527513dc1d1a5b5a5cdb541bdc9d185b0e881c185d5cd95960521b6044820152606401610197565b306001600160a01b031685604001516001600160a01b0316036107655760405162461bcd60e51b815260206004820152603f60248201527f4f7074696d69736d506f7274616c3a20796f752063616e6e6f742073656e642060448201527f6d6573736167657320746f2074686520706f7274616c20636f6e7472616374006064820152608401610197565b60365460405163a25ae55760e01b8152600481018690526000916001600160a01b03169063a25ae55790602401606060405180830381865afa1580156107af573d6000803e3d6000fd5b505050506040513d601f19601f820116820180604052508101906107d39190613e64565b5190506107ed6107e836869003860186613ec8565b611953565b811461084d5760405162461bcd60e51b815260206004820152602960248201527f4f7074696d69736d506f7274616c3a20696e76616c6964206f7574707574207260448201526837b7ba10383937b7b360b91b6064820152608401610197565b6000610858876119af565b6000818152603460209081526040918290208251606081018452815481526001909101546001600160801b03808216938301849052600160801b909104169281019290925291925090158061092957508051603654604080840151905163a25ae55760e01b81526001600160801b0390911660048201526001600160a01b039091169063a25ae55790602401606060405180830381865afa158015610901573d6000803e3d6000fd5b505050506040513d601f19601f820116820180604052508101906109259190613e64565b5114155b61099b5760405162461bcd60e51b815260206004820152603760248201527f4f7074696d69736d506f7274616c3a207769746864726177616c20686173682060448201527f68617320616c7265616479206265656e2070726f76656e0000000000000000006064820152608401610197565b6040805160208101849052600091810182905260600160408051601f1981840301815282825280516020918201209083018190529250610a0c910160408051601f1981840301815282820190915260018252600160f81b602083015290610a02888a613f2d565b8a604001356119df565b610a735760405162461bcd60e51b815260206004820152603260248201527f4f7074696d69736d506f7274616c3a20696e76616c696420776974686472617760448201527130b61034b731b63ab9b4b7b710383937b7b360711b6064820152608401610197565b604080516060810182528581526001600160801b0342811660208084019182528c831684860190815260008981526034835286812095518655925190518416600160801b029316929092176001909301929092558b830151908c015192516001600160a01b03918216939091169186917f67a6208cfcc0801d50f6cbe764733f4fddf66ac0b04442061a8a8c0cb6b63f629190a4505050505050505050565b60006106876116bc565b6000603560019054906101000a90046001600160a01b03166001600160a01b0316635c975abb6040518163ffffffff1660e01b8152600401602060405180830381865afa158015610b71573d6000803e3d6000fd5b505050506040513d601f19601f820116820180604052508101906106879190613fb0565b60365460405163a25ae55760e01b815260048101839052600091610591916001600160a01b039091169063a25ae55790602401606060405180830381865afa158015610be5573d6000803e3d6000fd5b505050506040513d601f19601f82011682018060405250810190610c099190613e64565b602001516001600160801b0316611a03565b600061068761060e565b565b610c2f610b1c565b15610c755760405162461bcd60e51b815260206004820152601660248201527513dc1d1a5b5a5cdb541bdc9d185b0e881c185d5cd95960521b6044820152606401610197565b6032546001600160a01b031661dead14610cf75760405162461bcd60e51b815260206004820152603f60248201527f4f7074696d69736d506f7274616c3a2063616e206f6e6c79207472696767657260448201527f206f6e65207769746864726177616c20706572207472616e73616374696f6e006064820152608401610197565b6000610d02826119af565b60008181526034602090815260408083208151606081018352815481526001909101546001600160801b03808216948301859052600160801b90910416918101919091529293509003610db25760405162461bcd60e51b815260206004820152603260248201527f4f7074696d69736d506f7274616c3a207769746864726177616c20686173206e6044820152711bdd081899595b881c1c9bdd995b881e595d60721b6064820152608401610197565b603660009054906101000a90046001600160a01b03166001600160a01b031663887862726040518163ffffffff1660e01b8152600401602060405180830381865afa158015610e05573d6000803e3d6000fd5b505050506040513d601f19601f82011682018060405250810190610e299190613fcd565b81602001516001600160801b03161015610ebf5760405162461bcd60e51b815260206004820152604b60248201527f4f7074696d69736d506f7274616c3a207769746864726177616c2074696d657360448201527f74616d70206c657373207468616e204c32204f7261636c65207374617274696e60648201526a0672074696d657374616d760ac1b608482015260a401610197565b610ed581602001516001600160801b0316611a03565b610f555760405162461bcd60e51b815260206004820152604560248201527f4f7074696d69736d506f7274616c3a2070726f76656e2077697468647261776160448201527f6c2066696e616c697a6174696f6e20706572696f6420686173206e6f7420656c606482015264185c1cd95960da1b608482015260a401610197565b603654604082810151905163a25ae55760e01b81526001600160801b0390911660048201526000916001600160a01b03169063a25ae55790602401606060405180830381865afa158015610fad573d6000803e3d6000fd5b505050506040513d601f19601f82011682018060405250810190610fd19190613e64565b825181519192501461105d5760405162461bcd60e51b815260206004820152604960248201527f4f7074696d69736d506f7274616c3a206f757470757420726f6f742070726f7660448201527f656e206973206e6f74207468652073616d652061732063757272656e74206f756064820152681d1c1d5d081c9bdbdd60ba1b608482015260a401610197565b61107381602001516001600160801b0316611a03565b6110f15760405162461bcd60e51b815260206004820152604360248201527f4f7074696d69736d506f7274616c3a206f75747075742070726f706f73616c2060448201527f66696e616c697a6174696f6e20706572696f6420686173206e6f7420656c61706064820152621cd95960ea1b608482015260a401610197565b60008381526033602052604090205460ff161561116e5760405162461bcd60e51b815260206004820152603560248201527f4f7074696d69736d506f7274616c3a207769746864726177616c2068617320616044820152741b1c9958591e481899595b88199a5b985b1a5e9959605a1b6064820152608401610197565b60006111786116bc565b60008581526033602052604090819020805460ff191660011790558601519091506001600160a01b038083169116036112255760405162461bcd60e51b815260206004820152604360248201527f4f7074696d69736d20506f7274616c3a2063616e6e6f74206d616b652061206460448201527f69726563742063616c6c20746f206e617469766520746f6b656e20636f6e74726064820152621858dd60ea1b608482015260a401610197565b6020850151603280546001600160a01b0319166001600160a01b039092169190911790556060850151156113005760a085015151156112e2576040808601516060870151915163095ea7b360e01b81526001600160a01b039182166004820152602481019290925282169063095ea7b3906044016020604051808303816000875af11580156112b8573d6000803e3d6000fd5b505050506040513d601f19601f820116820180604052508101906112dc9190613fb0565b50611300565b60408501516060860151611300916001600160a01b03841691611a83565b60008560a001515160001461132f576113288660400151876080015160008960a00151611aeb565b9050611333565b5060015b60a0860151511580159061134a5750606086015115155b156113ca57604086810151905163095ea7b360e01b81526001600160a01b039182166004820152600060248201529083169063095ea7b3906044016020604051808303816000875af11580156113a4573d6000803e3d6000fd5b505050506040513d601f19601f820116820180604052508101906113c89190613fb0565b505b603280546001600160a01b03191661dead17905560405185907fdb5c7652857aa163daadd670e116628fb42e869d8ac4251ef8971d9e5727df1b9061141490841515815260200190565b60405180910390a28015801561142a5750326001145b156114815760405162461bcd60e51b815260206004820152602160248201527f4f7074696d69736d506f7274616c3a207769746864726177616c206661696c656044820152601960fa1b6064820152608401610197565b505050505050565b6000611496826010613ffc565b6105919061520861402b565b6114b433888888888888886000611706565b50505050505050565b600054610100900460ff16158080156114dd5750600054600160ff909116105b806114f75750303b1580156114f7575060005460ff166001145b61155a5760405162461bcd60e51b815260206004820152602e60248201527f496e697469616c697a61626c653a20636f6e747261637420697320616c72656160448201526d191e481a5b9a5d1a585b1a5e995960921b6064820152608401610197565b6000805460ff19166001179055801561157d576000805461ff0019166101001790555b603680546001600160a01b03199081166001600160a01b03878116919091179092556037805490911685831617905560358054610100600160a81b03191661010085841602179055603254166115e257603280546001600160a01b03191661dead1790555b6115ea611b49565b8015611630576000805461ff0019169055604051600181527f7f26b83ff96e1f2b6a682f133852f6798a09c465da95921460cefb38474024989060200160405180910390a15b50505050565b6001600160a01b03163b151590565b60008080368160388610156116955760405162461bcd60e51b8152602060048201526016602482015275696e76616c6964206f6e417070726f7665206461746160501b6044820152606401610197565b505050833560601c94601485013594603481013560e01c9460389091019350603719019150565b6037546040805163268023f760e11b815290516000926001600160a01b031691634d0047ee9160048083019260209291908290030181865afa158015610663573d6000803e3d6000fd5b8460005a905060006117166116bc565b90508915611733576117336001600160a01b0382168d308d611c04565b86156117b8576001600160a01b038b16156117b8576040805162461bcd60e51b81526020600482015260248101919091527f4f7074696d69736d506f7274616c3a206d7573742073656e6420746f2061646460448201527f72657373283029207768656e206372656174696e67206120636f6e74726163746064820152608401610197565b6117c185611489565b6001600160401b0316886001600160401b0316101561182e5760405162461bcd60e51b815260206004820152602360248201527f4f7074696d69736d506f7274616c3a20676173206c696d697420746f6f20736d604482015262185b1b60ea1b6064820152608401610197565b6201d4c08511156118815760405162461bcd60e51b815260206004820152601e60248201527f4f7074696d69736d506f7274616c3a206461746120746f6f206c6172676500006044820152606401610197565b60006001600160a01b038d16321480159061189a575084155b6118a4578c6118bc565b7311110000000000000000000000000000000011118d015b905060008b8b8b8b8b8b6040516020016118db96959493929190614056565b604051602081830303815290604052905060008d6001600160a01b0316836001600160a01b03167fb3813568d9991fc951961fcb4c784893574240a28925604d09fc577c55bb7c32846040516119319190613cac565b60405180910390a45050506119468282611c3c565b5050505050505050505050565b60008160000151826020015183604001518460600151604051602001611992949392919093845260208401929092526040830152606082015260800190565b604051602081830303815290604052805190602001209050919050565b80516020808301516040808501516060860151608087015160a08801519351600097611992979096959101614099565b6000806119eb86611e80565b90506119f981868686611eb2565b9695505050505050565b6036546040805163f4daa29160e01b815290516000926001600160a01b03169163f4daa2919160048083019260209291908290030181865afa158015611a4d573d6000803e3d6000fd5b505050506040513d601f19601f82011682018060405250810190611a719190613fcd565b611a7b90836140e5565b421192915050565b6040516001600160a01b038316602482015260448101829052611ae690849063a9059cbb60e01b906064015b60408051601f198184030181529190526020810180516001600160e01b03166001600160e01b031990931692909217909152611ed9565b505050565b6000806000611afb866000611fab565b905080611b31576308c379a06000526020805278185361666543616c6c3a204e6f7420656e6f756768206761736058526064601cfd5b600080855160208701888b5af1979650505050505050565b600054610100900460ff16611bb45760405162461bcd60e51b815260206004820152602b60248201527f496e697469616c697a61626c653a20636f6e7472616374206973206e6f74206960448201526a6e697469616c697a696e6760a81b6064820152608401610197565b600154600160c01b90046001600160401b0316600003610c255760408051606081018252633b9aca0080825260006020830152436001600160401b031691909201819052600160c01b0217600155565b6040516001600160a01b03808516602483015283166044820152606481018290526116309085906323b872dd60e01b90608401611aaf565b600154600090611c5c90600160c01b90046001600160401b0316436140fd565b90506000611c68611fc9565b90506000816020015160ff16826000015163ffffffff16611c89919061412a565b90508215611d7857600154600090611cb2908390600160801b90046001600160401b0316614158565b90506000836040015160ff1683611cc99190614197565b600154611ce09084906001600160801b0316614197565b611cea919061412a565b600154909150600090611d2990611d0b9084906001600160801b031661421c565b866060015163ffffffff168760a001516001600160801b0316612064565b90506001861115611d5857611d55611d0b82876040015160ff1660018a611d5091906140fd565b612083565b90505b6001600160801b0316600160c01b6001600160401b034316021760015550505b60018054869190601090611d9d908490600160801b90046001600160401b031661402b565b92506101000a8154816001600160401b0302191690836001600160401b03160217905550816000015163ffffffff16600160000160109054906101000a90046001600160401b03166001600160401b03161315611e0d576040516377ebef4d60e01b815260040160405180910390fd5b600154600090611e2f906001600160801b03166001600160401b03881661425d565b90506000611e4148633b9aca006120d8565b611e4b908361427c565b905060005a611e5a90886140fd565b905080821115611e7657611e76611e7182846140fd565b6120ef565b5050505050505050565b60608180519060200120604051602001611e9c91815260200190565b6040516020818303038152906040529050919050565b600061060584611ec3878686612118565b8051602091820120825192909101919091201490565b6000611f2e826040518060400160405280602081526020017f5361666545524332303a206c6f772d6c6576656c2063616c6c206661696c6564815250856001600160a01b03166129ae9092919063ffffffff16565b805190915015611ae65780806020019051810190611f4c9190613fb0565b611ae65760405162461bcd60e51b815260206004820152602a60248201527f5361666545524332303a204552433230206f7065726174696f6e20646964206e6044820152691bdd081cdd58d8d9595960b21b6064820152608401610197565b600080603f83619c4001026040850201603f5a021015949350505050565b6040805160c08082018352600080835260208301819052828401819052606083018190526080830181905260a083015260375483516366398d8160e11b8152935192936001600160a01b039091169263cc731b02926004808401939192918290030181865afa158015612040573d6000803e3d6000fd5b505050506040513d601f19601f8201168201806040525081019061068791906142b5565b600061207961207385856129bd565b836129cd565b90505b9392505050565b6000670de0b6b3a76400006120c461209b858361412a565b6120ad90670de0b6b3a7640000614158565b6120bf85670de0b6b3a7640000614197565b6129dc565b6120ce9086614197565b612079919061412a565b6000818310156120e8578161207c565b5090919050565b6000805a90505b825a61210290836140fd565b1015611ae65761211182614353565b91506120f6565b606060008451116121635760405162461bcd60e51b81526020600482015260156024820152744d65726b6c65547269653a20656d707479206b657960581b6044820152606401610197565b600061216e84612a0d565b9050600061217b86612af8565b905060008460405160200161219291815260200190565b60405160208183030381529060405290506000805b84518110156129575760008582815181106121c4576121c461436c565b6020026020010151905084518311156122365760405162461bcd60e51b815260206004820152602e60248201527f4d65726b6c65547269653a206b657920696e646578206578636565647320746f60448201526d0e8c2d840d6caf240d8cadccee8d60931b6064820152608401610197565b826000036122d557805180516020918201206040516122849261225e92910190815260200190565b604051602081830303815290604052858051602091820120825192909101919091201490565b6122d05760405162461bcd60e51b815260206004820152601d60248201527f4d65726b6c65547269653a20696e76616c696420726f6f7420686173680000006044820152606401610197565b6123cb565b80515160201161235b57805180516020918201206040516122ff9261225e92910190815260200190565b6122d05760405162461bcd60e51b815260206004820152602760248201527f4d65726b6c65547269653a20696e76616c6964206c6172676520696e7465726e6044820152660c2d840d0c2e6d60cb1b6064820152608401610197565b8051845160208087019190912082519190920120146123cb5760405162461bcd60e51b815260206004820152602660248201527f4d65726b6c65547269653a20696e76616c696420696e7465726e616c206e6f646044820152650ca40d0c2e6d60d31b6064820152608401610197565b6123d7601060016140e5565b8160200151510361257f57845183036125175761241181602001516010815181106124045761240461436c565b6020026020010151612b5b565b9650600087511161248a5760405162461bcd60e51b815260206004820152603b60248201527f4d65726b6c65547269653a2076616c7565206c656e677468206d75737420626560448201527f2067726561746572207468616e207a65726f20286272616e63682900000000006064820152608401610197565b6001865161249891906140fd565b821461250c5760405162461bcd60e51b815260206004820152603a60248201527f4d65726b6c65547269653a2076616c7565206e6f6465206d757374206265206c60448201527f617374206e6f646520696e2070726f6f6620286272616e6368290000000000006064820152608401610197565b50505050505061207c565b600085848151811061252b5761252b61436c565b602001015160f81c60f81b60f81c9050600082602001518260ff16815181106125565761255661436c565b6020026020010151905061256981612bdd565b95506125766001866140e5565b94505050612944565b6002816020015151036128eb57600061259782612c02565b90506000816000815181106125ae576125ae61436c565b016020015160f81c905060006125c5600283614382565b6125d09060026143a4565b905060006125e1848360ff16612c26565b905060006125ef8a89612c26565b905060006125fd8383612c5c565b9050808351146126755760405162461bcd60e51b815260206004820152603a60248201527f4d65726b6c65547269653a20706174682072656d61696e646572206d7573742060448201527f736861726520616c6c206e6962626c65732077697468206b65790000000000006064820152608401610197565b60ff85166002148061268a575060ff85166003145b1561282b57808251146127055760405162461bcd60e51b815260206004820152603d60248201527f4d65726b6c65547269653a206b65792072656d61696e646572206d757374206260448201527f65206964656e746963616c20746f20706174682072656d61696e6465720000006064820152608401610197565b61271f87602001516001815181106124045761240461436c565b9c5060008d51116127985760405162461bcd60e51b815260206004820152603960248201527f4d65726b6c65547269653a2076616c7565206c656e677468206d75737420626560448201527f2067726561746572207468616e207a65726f20286c65616629000000000000006064820152608401610197565b60018c516127a691906140fd565b881461281a5760405162461bcd60e51b815260206004820152603860248201527f4d65726b6c65547269653a2076616c7565206e6f6465206d757374206265206c60448201527f617374206e6f646520696e2070726f6f6620286c6561662900000000000000006064820152608401610197565b50505050505050505050505061207c565b60ff8516158061283e575060ff85166001145b1561287d5761286a876020015160018151811061285d5761285d61436c565b6020026020010151612bdd565b9950612876818a6140e5565b98506128e0565b60405162461bcd60e51b815260206004820152603260248201527f4d65726b6c65547269653a2072656365697665642061206e6f64652077697468604482015271040c2dc40eadcd6dcdeeedc40e0e4caccd2f60731b6064820152608401610197565b505050505050612944565b60405162461bcd60e51b815260206004820152602860248201527f4d65726b6c65547269653a20726563656976656420616e20756e706172736561604482015267626c65206e6f646560c01b6064820152608401610197565b508061294f81614353565b9150506121a7565b5060405162461bcd60e51b815260206004820152602560248201527f4d65726b6c65547269653a2072616e206f7574206f662070726f6f6620656c656044820152646d656e747360d81b6064820152608401610197565b60606120798484600085612ce0565b6000818312156120e8578161207c565b60008183126120e8578161207c565b600061207c670de0b6b3a7640000836129f486612e11565b6129fe9190614197565b612a08919061412a565b612fec565b8051606090806001600160401b03811115612a2a57612a2a613a34565b604051908082528060200260200182016040528015612a6f57816020015b6040805180820190915260608082526020820152815260200190600190039081612a485790505b50915060005b81811015612af1576040518060400160405280858381518110612a9a57612a9a61436c565b60200260200101518152602001612ac9868481518110612abc57612abc61436c565b6020026020010151613195565b815250838281518110612ade57612ade61436c565b6020908102919091010152600101612a75565b5050919050565b606080604051905082518060011b603f8101601f1916830160405280835250602084016020830160005b83811015612b50578060011b82018184015160001a8060041c8253600f811660018301535050600101612b22565b509295945050505050565b60606000806000612b6b856131a8565b919450925090506000816001811115612b8657612b866143c7565b14612ba4576040516307fe6cb960e21b815260040160405180910390fd5b612bae82846140e5565b855114612bce57604051630b8aa6f760e31b815260040160405180910390fd5b6106058560200151848461349e565b60606020826000015110612bf957612bf482612b5b565b610591565b61059182613531565b6060610591612c2183602001516000815181106124045761240461436c565b612af8565b606082518210612c455750604080516020810190915260008152610591565b61207c8383848651612c5791906140fd565b613547565b6000808251845110612c6f578251612c72565b83515b90505b8082108015612cc95750828281518110612c9157612c9161436c565b602001015160f81c60f81b6001600160f81b031916848381518110612cb857612cb861436c565b01602001516001600160f81b031916145b15612cd957816001019150612c75565b5092915050565b606082471015612d415760405162461bcd60e51b815260206004820152602660248201527f416464726573733a20696e73756666696369656e742062616c616e636520666f6044820152651c8818d85b1b60d21b6064820152608401610197565b6001600160a01b0385163b612d985760405162461bcd60e51b815260206004820152601d60248201527f416464726573733a2063616c6c20746f206e6f6e2d636f6e74726163740000006044820152606401610197565b600080866001600160a01b03168587604051612db491906143dd565b60006040518083038185875af1925050503d8060008114612df1576040519150601f19603f3d011682016040523d82523d6000602084013e612df6565b606091505b5091509150612e06828286613689565b979650505050505050565b6000808213612e4e5760405162461bcd60e51b815260206004820152600960248201526815539111519253915160ba1b6044820152606401610197565b60006060612e5b846136c2565b03609f8181039490941b90931c6c465772b2bbbb5f824b15207a3081018102606090811d6d0388eaa27412d5aca026815d636e018202811d6d0df99ac502031bf953eff472fdcc018202811d6d13cdffb29d51d99322bdff5f2211018202811d6d0a0f742023def783a307a986912e018202811d6d01920d8043ca89b5239253284e42018202811d6c0b7a86d7375468fac667a0a527016c29508e458543d8aa4df2abee7883018302821d6d0139601a2efabe717e604cbb4894018302821d6d02247f7a7b6594320649aa03aba1018302821d6c8c3f38e95a6b1ff2ab1c3b343619018302821d6d02384773bdf1ac5676facced60901901830290911d6cb9a025d814b29c212b8b1a07cd1901909102780a09507084cc699bb0e71ea869ffffffffffffffffffffffff190105711340daa0d5f769dba1915cef59f0815a5506027d0267a36c0c95b3975ab3ee5b203a7614a3f75373f047d803ae7b6687f2b393909302929092017d57115e47018c7177eebf7cd370a3356a1b7863008a5ae8028c72b88642840160ae1d92915050565b6000680248ce36a70cb26b3e19821361300757506000919050565b680755bf798b4a1bf1e5821261304e5760405162461bcd60e51b815260206004820152600c60248201526b4558505f4f564552464c4f5760a01b6044820152606401610197565b6503782dace9d9604e83901b059150600060606bb17217f7d1cf79abc9e3b39884821b056001605f1b01901d6bb17217f7d1cf79abc9e3b39881029093036c240c330e9fb2d9cbaf0fd5aafb1981018102606090811d6d0277594991cfc85f6e2461837cd9018202811d6d1a521255e34f6a5061b25ef1c9c319018202811d6db1bbb201f443cf962f1a1d3db4a5018202811d6e02c72388d9f74f51a9331fed693f1419018202811d6e05180bb14799ab47a8a8cb2a527d57016d02d16720577bd19bf614176fe9ea6c10fe68e7fd37d0007b713f765084018402831d9081019084016d01d3967ed30fc4f89c02bab5708119010290911d6e0587f503bb6ea29d25fcb740196450019091026d360d7aeea093263ecc6e0ecb291760621b010574029d9dc38563c32e5c2f6dc192ee70ef65f9978af30260c3939093039290921c92915050565b60606105916131a383613760565b6137b4565b600080600083600001516000036131d257604051635ab458fb60e01b815260040160405180910390fd5b6020840151805160001a607f81116131f7576000600160009450945094505050613497565b60b7811161328f57600061320c6080836140fd565b905080876000015111613232576040516366c9448560e01b815260040160405180910390fd5b6001838101516001600160f81b031916908214801561325e5750600160ff1b6001600160f81b03198216105b1561327c5760405163babb01dd60e01b815260040160405180910390fd5b5060019550935060009250613497915050565b60bf81116133715760006132a460b7836140fd565b9050808760000151116132ca576040516366c9448560e01b815260040160405180910390fd5b60018301516001600160f81b03191660008190036132fb5760405163babb01dd60e01b815260040160405180910390fd5b600184015160088302610100031c6037811161332a5760405163babb01dd60e01b815260040160405180910390fd5b61333481846140e5565b895111613354576040516366c9448560e01b815260040160405180910390fd5b61335f8360016140e5565b97509550600094506134979350505050565b60f781116133bd57600061338660c0836140fd565b9050808760000151116133ac576040516366c9448560e01b815260040160405180910390fd5b600195509350849250613497915050565b60006133ca60f7836140fd565b9050808760000151116133f0576040516366c9448560e01b815260040160405180910390fd5b60018301516001600160f81b03191660008190036134215760405163babb01dd60e01b815260040160405180910390fd5b600184015160088302610100031c603781116134505760405163babb01dd60e01b815260040160405180910390fd5b61345a81846140e5565b89511161347a576040516366c9448560e01b815260040160405180910390fd5b6134858360016140e5565b97509550600194506134979350505050565b9193909250565b6060816001600160401b038111156134b8576134b8613a34565b6040519080825280601f01601f1916602001820160405280156134e2576020820181803683370190505b509050811561207c5760006134f784866140e5565b90506020820160005b84811015613518578281015182820152602001613500565b84811115613527576000858301525b5050509392505050565b606061059182602001516000846000015161349e565b60608182601f01101561358d5760405162461bcd60e51b815260206004820152600e60248201526d736c6963655f6f766572666c6f7760901b6044820152606401610197565b8282840110156135d05760405162461bcd60e51b815260206004820152600e60248201526d736c6963655f6f766572666c6f7760901b6044820152606401610197565b818301845110156136175760405162461bcd60e51b8152602060048201526011602482015270736c6963655f6f75744f66426f756e647360781b6044820152606401610197565b6060821580156136365760405191506000825260208201604052613680565b6040519150601f8416801560200281840101858101878315602002848b0101015b8183101561366f578051835260209283019201613657565b5050858452601f01601f1916604052505b50949350505050565b6060831561369857508161207c565b8251156136a85782518084602001fd5b8160405162461bcd60e51b81526004016101979190613cac565b60008082116136ff5760405162461bcd60e51b815260206004820152600960248201526815539111519253915160ba1b6044820152606401610197565b5060016001600160801b03821160071b82811c6001600160401b031060061b1782811c63ffffffff1060051b1782811c61ffff1060041b1782811c60ff10600390811b90911783811c600f1060021b1783811c909110821b1791821c111790565b6040805180820190915260008082526020820152815160000361379657604051635ab458fb60e01b815260040160405180910390fd5b50604080518082019091528151815260209182019181019190915290565b606060008060006137c4856131a8565b9194509250905060018160018111156137df576137df6143c7565b146137fd576040516325ce355f60e11b815260040160405180910390fd5b845161380983856140e5565b1461382757604051630b8aa6f760e31b815260040160405180910390fd5b604080516020808252610420820190925290816020015b604080518082019091526000808252602082015281526020019060019003908161383e5790505093506000835b865181101561392c576000806138b16040518060400160405280858c6000015161389591906140fd565b8152602001858c602001516138aa91906140e5565b90526131a8565b5091509150604051806040016040528083836138cd91906140e5565b8152602001848b602001516138e291906140e5565b8152508885815181106138f7576138f761436c565b602090810291909101015261390d6001856140e5565b935061391981836140e5565b61392390846140e5565b9250505061386b565b50845250919392505050565b60006020828403121561394a57600080fd5b81356001600160e01b03198116811461207c57600080fd5b6001600160a01b038116811461397757600080fd5b50565b60008083601f84011261398c57600080fd5b5081356001600160401b038111156139a357600080fd5b6020830191508360208285010111156139bb57600080fd5b9250929050565b6000806000806000608086880312156139da57600080fd5b85356139e581613962565b945060208601356139f581613962565b93506040860135925060608601356001600160401b03811115613a1757600080fd5b613a238882890161397a565b969995985093965092949392505050565b634e487b7160e01b600052604160045260246000fd5b604051601f8201601f191681016001600160401b0381118282101715613a7257613a72613a34565b604052919050565b600082601f830112613a8b57600080fd5b81356001600160401b03811115613aa457613aa4613a34565b613ab7601f8201601f1916602001613a4a565b818152846020838601011115613acc57600080fd5b816020850160208301376000918101602001919091529392505050565b600060c08284031215613afb57600080fd5b60405160c081016001600160401b038282108183111715613b1e57613b1e613a34565b816040528293508435835260208501359150613b3982613962565b81602084015260408501359150613b4f82613962565b816040840152606085013560608401526080850135608084015260a0850135915080821115613b7d57600080fd5b50613b8a85828601613a7a565b60a0830152505092915050565b600080600080600085870360e0811215613bb057600080fd5b86356001600160401b0380821115613bc757600080fd5b613bd38a838b01613ae9565b9750602089013596506080603f1984011215613bee57600080fd5b60408901955060c0890135925080831115613c0857600080fd5b828901925089601f840112613c1c57600080fd5b8235915080821115613c2d57600080fd5b508860208260051b8401011115613c4357600080fd5b959894975092955050506020019190565b60005b83811015613c6f578181015183820152602001613c57565b838111156116305750506000910152565b60008151808452613c98816020860160208601613c54565b601f01601f19169290920160200192915050565b60208152600061207c6020830184613c80565b600060208284031215613cd157600080fd5b5035919050565b600060208284031215613cea57600080fd5b81356001600160401b03811115613d0057600080fd5b613d0c84828501613ae9565b949350505050565b80356001600160401b0381168114613d2b57600080fd5b919050565b600060208284031215613d4257600080fd5b61207c82613d14565b801515811461397757600080fd5b600080600080600080600060c0888a031215613d7457600080fd5b8735613d7f81613962565b96506020880135955060408801359450613d9b60608901613d14565b93506080880135613dab81613d4b565b925060a08801356001600160401b03811115613dc657600080fd5b613dd28a828b0161397a565b989b979a50959850939692959293505050565b600080600060608486031215613dfa57600080fd5b8335613e0581613962565b92506020840135613e1581613962565b91506040840135613e2581613962565b809150509250925092565b600060208284031215613e4257600080fd5b815161207c81613962565b80516001600160801b0381168114613d2b57600080fd5b600060608284031215613e7657600080fd5b604051606081018181106001600160401b0382111715613e9857613e98613a34565b60405282518152613eab60208401613e4d565b6020820152613ebc60408401613e4d565b60408201529392505050565b600060808284031215613eda57600080fd5b604051608081018181106001600160401b0382111715613efc57613efc613a34565b8060405250823581526020830135602082015260408301356040820152606083013560608201528091505092915050565b60006001600160401b0380841115613f4757613f47613a34565b8360051b6020613f58818301613a4a565b868152918501918181019036841115613f7057600080fd5b865b84811015613fa457803586811115613f8a5760008081fd5b613f9636828b01613a7a565b845250918301918301613f72565b50979650505050505050565b600060208284031215613fc257600080fd5b815161207c81613d4b565b600060208284031215613fdf57600080fd5b5051919050565b634e487b7160e01b600052601160045260246000fd5b60006001600160401b038083168185168183048111821515161561402257614022613fe6565b02949350505050565b60006001600160401b0380831681851680830382111561404d5761404d613fe6565b01949350505050565b8681528560208201526001600160401b0360c01b8560c01b16604082015283151560f81b6048820152818360498301376000910160490190815295945050505050565b8681526001600160a01b03868116602083015285166040820152606081018490526080810183905260c060a082018190526000906140d990830184613c80565b98975050505050505050565b600082198211156140f8576140f8613fe6565b500190565b60008282101561410f5761410f613fe6565b500390565b634e487b7160e01b600052601260045260246000fd5b60008261413957614139614114565b600160ff1b82146000198414161561415357614153613fe6565b500590565b60008083128015600160ff1b85018412161561417657614176613fe6565b6001600160ff1b038401831381161561419157614191613fe6565b50500390565b60006001600160ff1b03818413828413808216868404861116156141bd576141bd613fe6565b600160ff1b60008712828116878305891216156141dc576141dc613fe6565b600087129250878205871284841616156141f8576141f8613fe6565b8785058712818416161561420e5761420e613fe6565b505050929093029392505050565b600080821280156001600160ff1b038490038513161561423e5761423e613fe6565b600160ff1b839003841281161561425757614257613fe6565b50500190565b600081600019048311821515161561427757614277613fe6565b500290565b60008261428b5761428b614114565b500490565b805163ffffffff81168114613d2b57600080fd5b805160ff81168114613d2b57600080fd5b600060c082840312156142c757600080fd5b60405160c081018181106001600160401b03821117156142e9576142e9613a34565b6040526142f583614290565b8152614303602084016142a4565b6020820152614314604084016142a4565b604082015261432560608401614290565b606082015261433660808401614290565b608082015261434760a08401613e4d565b60a08201529392505050565b60006001820161436557614365613fe6565b5060010190565b634e487b7160e01b600052603260045260246000fd5b600060ff83168061439557614395614114565b8060ff84160691505092915050565b600060ff821660ff8416808210156143be576143be613fe6565b90039392505050565b634e487b7160e01b600052602160045260246000fd5b600082516143ef818460208701613c54565b919091019291505056fea164736f6c634300080f000a","linkReferences":{}},"methodIdentifiers":{"GUARDIAN()":"724c184c","L2_ORACLE()":"001c2ff6","SYSTEM_CONFIG()":"f0498750","depositTransaction(address,uint256,uint256,uint64,bool,bytes)":"b9e55958","donateETH()":"8b4c40b0","finalizeWithdrawalTransaction((uint256,address,address,uint256,uint256,bytes))":"8c3152e9","finalizedWithdrawals(bytes32)":"a14238e7","guardian()":"452a9320","initialize(address,address,address)":"c0c53b8b","isOutputFinalized(uint256)":"6dbffb78","l2Oracle()":"9b5f694a","l2Sender()":"9bf62d82","minimumGasLimit(uint64)":"a35d99df","nativeTokenAddress()":"4d0047ee","onApprove(address,address,uint256,bytes)":"4273ca16","params()":"cff0ab96","paused()":"5c975abb","proveWithdrawalTransaction((uint256,address,address,uint256,uint256,bytes),uint256,(bytes32,bytes32,bytes32,bytes32),bytes[])":"4870496f","provenWithdrawals(bytes32)":"e965084c","spacer_native_token_address()":"b7d82374","superchainConfig()":"35e80ab3","supportsInterface(bytes4)":"01ffc9a7","systemConfig()":"33d7e2bd","version()":"54fd4d50"},"id":171}