{"abi":[{"type":"constructor","inputs":[{"name":"_proofMaturityDelaySeconds","type":"uint256","internalType":"uint256"},{"name":"_disputeGameFinalityDelaySeconds","type":"uint256","internalType":"uint256"}],"stateMutability":"nonpayable"},{"type":"receive","stateMutability":"payable"},{"type":"function","name":"blacklistDisputeGame","inputs":[{"name":"_disputeGame","type":"address","internalType":"contract IDisputeGame"}],"outputs":[],"stateMutability":"nonpayable"},{"type":"function","name":"checkWithdrawal","inputs":[{"name":"_withdrawalHash","type":"bytes32","internalType":"bytes32"},{"name":"_proofSubmitter","type":"address","internalType":"address"}],"outputs":[],"stateMutability":"view"},{"type":"function","name":"depositTransaction","inputs":[{"name":"_to","type":"address","internalType":"address"},{"name":"_mint","type":"uint256","internalType":"uint256"},{"name":"_value","type":"uint256","internalType":"uint256"},{"name":"_gasLimit","type":"uint64","internalType":"uint64"},{"name":"_isCreation","type":"bool","internalType":"bool"},{"name":"_data","type":"bytes","internalType":"bytes"}],"outputs":[],"stateMutability":"nonpayable"},{"type":"function","name":"disputeGameBlacklist","inputs":[{"name":"","type":"address","internalType":"contract IDisputeGame"}],"outputs":[{"name":"","type":"bool","internalType":"bool"}],"stateMutability":"view"},{"type":"function","name":"disputeGameFactory","inputs":[],"outputs":[{"name":"","type":"address","internalType":"contract DisputeGameFactory"}],"stateMutability":"view"},{"type":"function","name":"disputeGameFinalityDelaySeconds","inputs":[],"outputs":[{"name":"","type":"uint256","internalType":"uint256"}],"stateMutability":"view"},{"type":"function","name":"donateETH","inputs":[],"outputs":[],"stateMutability":"payable"},{"type":"function","name":"finalizeWithdrawalTransaction","inputs":[{"name":"_tx","type":"tuple","internalType":"struct Types.WithdrawalTransaction","components":[{"name":"nonce","type":"uint256","internalType":"uint256"},{"name":"sender","type":"address","internalType":"address"},{"name":"target","type":"address","internalType":"address"},{"name":"value","type":"uint256","internalType":"uint256"},{"name":"gasLimit","type":"uint256","internalType":"uint256"},{"name":"data","type":"bytes","internalType":"bytes"}]}],"outputs":[],"stateMutability":"nonpayable"},{"type":"function","name":"finalizeWithdrawalTransactionExternalProof","inputs":[{"name":"_tx","type":"tuple","internalType":"struct Types.WithdrawalTransaction","components":[{"name":"nonce","type":"uint256","internalType":"uint256"},{"name":"sender","type":"address","internalType":"address"},{"name":"target","type":"address","internalType":"address"},{"name":"value","type":"uint256","internalType":"uint256"},{"name":"gasLimit","type":"uint256","internalType":"uint256"},{"name":"data","type":"bytes","internalType":"bytes"}]},{"name":"_proofSubmitter","type":"address","internalType":"address"}],"outputs":[],"stateMutability":"nonpayable"},{"type":"function","name":"finalizedWithdrawals","inputs":[{"name":"","type":"bytes32","internalType":"bytes32"}],"outputs":[{"name":"","type":"bool","internalType":"bool"}],"stateMutability":"view"},{"type":"function","name":"guardian","inputs":[],"outputs":[{"name":"","type":"address","internalType":"address"}],"stateMutability":"view"},{"type":"function","name":"initialize","inputs":[{"name":"_disputeGameFactory","type":"address","internalType":"contract DisputeGameFactory"},{"name":"_systemConfig","type":"address","internalType":"contract SystemConfig"},{"name":"_superchainConfig","type":"address","internalType":"contract SuperchainConfig"},{"name":"_initialRespectedGameType","type":"uint32","internalType":"GameType"}],"outputs":[],"stateMutability":"nonpayable"},{"type":"function","name":"l2Sender","inputs":[],"outputs":[{"name":"","type":"address","internalType":"address"}],"stateMutability":"view"},{"type":"function","name":"minimumGasLimit","inputs":[{"name":"_byteCount","type":"uint64","internalType":"uint64"}],"outputs":[{"name":"","type":"uint64","internalType":"uint64"}],"stateMutability":"pure"},{"type":"function","name":"nativeTokenAddress","inputs":[],"outputs":[{"name":"","type":"address","internalType":"address"}],"stateMutability":"view"},{"type":"function","name":"numProofSubmitters","inputs":[{"name":"_withdrawalHash","type":"bytes32","internalType":"bytes32"}],"outputs":[{"name":"","type":"uint256","internalType":"uint256"}],"stateMutability":"view"},{"type":"function","name":"onApprove","inputs":[{"name":"_owner","type":"address","internalType":"address"},{"name":"","type":"address","internalType":"address"},{"name":"_amount","type":"uint256","internalType":"uint256"},{"name":"_data","type":"bytes","internalType":"bytes"}],"outputs":[{"name":"","type":"bool","internalType":"bool"}],"stateMutability":"nonpayable"},{"type":"function","name":"params","inputs":[],"outputs":[{"name":"prevBaseFee","type":"uint128","internalType":"uint128"},{"name":"prevBoughtGas","type":"uint64","internalType":"uint64"},{"name":"prevBlockNum","type":"uint64","internalType":"uint64"}],"stateMutability":"view"},{"type":"function","name":"paused","inputs":[],"outputs":[{"name":"","type":"bool","internalType":"bool"}],"stateMutability":"view"},{"type":"function","name":"proofMaturityDelaySeconds","inputs":[],"outputs":[{"name":"","type":"uint256","internalType":"uint256"}],"stateMutability":"view"},{"type":"function","name":"proofSubmitters","inputs":[{"name":"","type":"bytes32","internalType":"bytes32"},{"name":"","type":"uint256","internalType":"uint256"}],"outputs":[{"name":"","type":"address","internalType":"address"}],"stateMutability":"view"},{"type":"function","name":"proveWithdrawalTransaction","inputs":[{"name":"_tx","type":"tuple","internalType":"struct Types.WithdrawalTransaction","components":[{"name":"nonce","type":"uint256","internalType":"uint256"},{"name":"sender","type":"address","internalType":"address"},{"name":"target","type":"address","internalType":"address"},{"name":"value","type":"uint256","internalType":"uint256"},{"name":"gasLimit","type":"uint256","internalType":"uint256"},{"name":"data","type":"bytes","internalType":"bytes"}]},{"name":"_disputeGameIndex","type":"uint256","internalType":"uint256"},{"name":"_outputRootProof","type":"tuple","internalType":"struct Types.OutputRootProof","components":[{"name":"version","type":"bytes32","internalType":"bytes32"},{"name":"stateRoot","type":"bytes32","internalType":"bytes32"},{"name":"messagePasserStorageRoot","type":"bytes32","internalType":"bytes32"},{"name":"latestBlockhash","type":"bytes32","internalType":"bytes32"}]},{"name":"_withdrawalProof","type":"bytes[]","internalType":"bytes[]"}],"outputs":[],"stateMutability":"nonpayable"},{"type":"function","name":"provenWithdrawals","inputs":[{"name":"","type":"bytes32","internalType":"bytes32"},{"name":"","type":"address","internalType":"address"}],"outputs":[{"name":"disputeGameProxy","type":"address","internalType":"contract IDisputeGame"},{"name":"timestamp","type":"uint64","internalType":"uint64"}],"stateMutability":"view"},{"type":"function","name":"respectedGameType","inputs":[],"outputs":[{"name":"","type":"uint32","internalType":"GameType"}],"stateMutability":"view"},{"type":"function","name":"respectedGameTypeUpdatedAt","inputs":[],"outputs":[{"name":"","type":"uint64","internalType":"uint64"}],"stateMutability":"view"},{"type":"function","name":"setRespectedGameType","inputs":[{"name":"_gameType","type":"uint32","internalType":"GameType"}],"outputs":[],"stateMutability":"nonpayable"},{"type":"function","name":"superchainConfig","inputs":[],"outputs":[{"name":"","type":"address","internalType":"contract SuperchainConfig"}],"stateMutability":"view"},{"type":"function","name":"supportsInterface","inputs":[{"name":"interfaceId","type":"bytes4","internalType":"bytes4"}],"outputs":[{"name":"","type":"bool","internalType":"bool"}],"stateMutability":"pure"},{"type":"function","name":"systemConfig","inputs":[],"outputs":[{"name":"","type":"address","internalType":"contract SystemConfig"}],"stateMutability":"view"},{"type":"function","name":"version","inputs":[],"outputs":[{"name":"","type":"string","internalType":"string"}],"stateMutability":"view"},{"type":"event","name":"DisputeGameBlacklisted","inputs":[{"name":"disputeGame","type":"address","indexed":true,"internalType":"contract IDisputeGame"}],"anonymous":false},{"type":"event","name":"Initialized","inputs":[{"name":"version","type":"uint8","indexed":false,"internalType":"uint8"}],"anonymous":false},{"type":"event","name":"RespectedGameTypeSet","inputs":[{"name":"newGameType","type":"uint32","indexed":true,"internalType":"GameType"},{"name":"updatedAt","type":"uint64","indexed":true,"internalType":"Timestamp"}],"anonymous":false},{"type":"event","name":"TransactionDeposited","inputs":[{"name":"from","type":"address","indexed":true,"internalType":"address"},{"name":"to","type":"address","indexed":true,"internalType":"address"},{"name":"version","type":"uint256","indexed":true,"internalType":"uint256"},{"name":"opaqueData","type":"bytes","indexed":false,"internalType":"bytes"}],"anonymous":false},{"type":"event","name":"WithdrawalFinalized","inputs":[{"name":"withdrawalHash","type":"bytes32","indexed":true,"internalType":"bytes32"},{"name":"success","type":"bool","indexed":false,"internalType":"bool"}],"anonymous":false},{"type":"event","name":"WithdrawalProven","inputs":[{"name":"withdrawalHash","type":"bytes32","indexed":true,"internalType":"bytes32"},{"name":"from","type":"address","indexed":true,"internalType":"address"},{"name":"to","type":"address","indexed":true,"internalType":"address"}],"anonymous":false},{"type":"event","name":"WithdrawalProvenExtension1","inputs":[{"name":"withdrawalHash","type":"bytes32","indexed":true,"internalType":"bytes32"},{"name":"proofSubmitter","type":"address","indexed":true,"internalType":"address"}],"anonymous":false},{"type":"error","name":"CallPaused","inputs":[]},{"type":"error","name":"ContentLengthMismatch","inputs":[]},{"type":"error","name":"EmptyItem","inputs":[]},{"type":"error","name":"GasEstimation","inputs":[]},{"type":"error","name":"InvalidDataRemainder","inputs":[]},{"type":"error","name":"InvalidHeader","inputs":[]},{"type":"error","name":"OutOfGas","inputs":[]},{"type":"error","name":"Unauthorized","inputs":[]},{"type":"error","name":"UnexpectedList","inputs":[]},{"type":"error","name":"UnexpectedString","inputs":[]}],"bytecode":{"object":"0x60c06040523480156200001157600080fd5b5060405162004d7838038062004d788339810160408190526200003491620002f2565b608082905260a08190526200004d600080808062000055565b505062000317565b600054610100900460ff1615808015620000765750600054600160ff909116105b80620000a6575062000093306200022460201b62001b811760201c565b158015620000a6575060005460ff166001145b6200010f5760405162461bcd60e51b815260206004820152602e60248201527f496e697469616c697a61626c653a20636f6e747261637420697320616c72656160448201526d191e481a5b9a5d1a585b1a5e995960921b60648201526084015b60405180910390fd5b6000805460ff19166001179055801562000133576000805461ff0019166101001790555b603880546001600160a01b03199081166001600160a01b03888116919091179092556037805490911686831617905560358054610100600160a81b0319166101008684160217905560325416620001cc576032805461dead6001600160a01b0319909116179055603b80546001600160601b031916640100000000426001600160401b03160263ffffffff19161763ffffffff84161790555b620001d662000233565b80156200021d576000805461ff0019169055604051600181527f7f26b83ff96e1f2b6a682f133852f6798a09c465da95921460cefb38474024989060200160405180910390a15b5050505050565b6001600160a01b03163b151590565b600054610100900460ff16620002a05760405162461bcd60e51b815260206004820152602b60248201527f496e697469616c697a61626c653a20636f6e7472616374206973206e6f74206960448201526a6e697469616c697a696e6760a81b606482015260840162000106565b600154600160c01b90046001600160401b0316600003620002f05760408051606081018252633b9aca0080825260006020830152436001600160401b031691909201819052600160c01b02176001555b565b600080604083850312156200030657600080fd5b505080516020909101519092909150565b60805160a051614a2d6200034b6000396000818161052601526116bb01526000818161068301526113f40152614a2d6000f3fe6080604052600436106101d15760003560e01c80637d6be8dc116100f7578063a14238e711610095578063bb2c727e11610064578063bb2c727e146105fa578063bf653a5c14610674578063cff0ab96146106a7578063f2b4e6171461071257600080fd5b8063a14238e71461056a578063a35d99df1461059a578063a3860f48146105ba578063b9e55958146105da57600080fd5b80638c3152e9116100d15780638c3152e9146104d75780638e819e54146104f7578063952b2797146105175780639bf62d821461054a57600080fd5b80637d6be8dc146104975780637fc48504146104b75780638b4c40b01461032c57600080fd5b806345884d321161016f578063513747ab1161013e578063513747ab146103e857806354fd4d50146104235780635c975abb1461046257806371c1566e1461047757600080fd5b806345884d32146103435780634870496f146103735780634d0047ee146103935780634fd0434c146103a857600080fd5b80633c9f397c116101ab5780633c9f397c146102ba5780634273ca16146102ec57806343ca1c501461030c578063452a93201461032e57600080fd5b806301ffc9a71461022857806333d7e2bd1461025d57806335e80ab31461029557600080fd5b366102235760405162461bcd60e51b815260206004820152601760248201527f4f6e6c7920616c6c6f77206e617469766520746f6b656e00000000000000000060448201526064015b60405180910390fd5b600080fd5b34801561023457600080fd5b50610248610243366004613dfd565b610732565b60405190151581526020015b60405180910390f35b34801561026957600080fd5b5060375461027d906001600160a01b031681565b6040516001600160a01b039091168152602001610254565b3480156102a157600080fd5b5060355461027d9061010090046001600160a01b031681565b3480156102c657600080fd5b50603b546102d79063ffffffff1681565b60405163ffffffff9091168152602001610254565b3480156102f857600080fd5b50610248610307366004613e84565b610769565b34801561031857600080fd5b5061032c610327366004614059565b6107de565b005b34801561033a57600080fd5b5061027d610b81565b34801561034f57600080fd5b5061024861035e3660046140aa565b603a6020526000908152604090205460ff1681565b34801561037f57600080fd5b5061032c61038e3660046140c7565b610bff565b34801561039f57600080fd5b5061027d6110ff565b3480156103b457600080fd5b50603b546103d09064010000000090046001600160401b031681565b6040516001600160401b039091168152602001610254565b3480156103f457600080fd5b50610415610403366004614184565b6000908152603c602052604090205490565b604051908152602001610254565b34801561042f57600080fd5b50610455604051806040016040528060068152602001650332e31302e360d41b81525081565b60405161025491906141f5565b34801561046e57600080fd5b50610248611109565b34801561048357600080fd5b5061032c610492366004614208565b611182565b3480156104a357600080fd5b5061032c6104b23660046140aa565b61180b565b3480156104c357600080fd5b5061032c6104d236600461423f565b61188f565b3480156104e357600080fd5b5061032c6104f236600461425c565b611933565b34801561050357600080fd5b5061032c610512366004614298565b611966565b34801561052357600080fd5b507f0000000000000000000000000000000000000000000000000000000000000000610415565b34801561055657600080fd5b5060325461027d906001600160a01b031681565b34801561057657600080fd5b50610248610585366004614184565b60336020526000908152604090205460ff1681565b3480156105a657600080fd5b506103d06105b5366004614309565b611b17565b3480156105c657600080fd5b5061027d6105d5366004614326565b611b30565b3480156105e657600080fd5b5061032c6105f5366004614356565b611b68565b34801561060657600080fd5b5061064d610615366004614208565b60396020908152600092835260408084209091529082529020546001600160a01b03811690600160a01b90046001600160401b031682565b604080516001600160a01b0390931683526001600160401b03909116602083015201610254565b34801561068057600080fd5b507f0000000000000000000000000000000000000000000000000000000000000000610415565b3480156106b357600080fd5b506001546106e3906001600160801b038116906001600160401b03600160801b8204811691600160c01b90041683565b604080516001600160801b0390941684526001600160401b039283166020850152911690820152606001610254565b34801561071e57600080fd5b5060385461027d906001600160a01b031681565b60006001600160e01b03198216632139e50b60e11b148061076357506001600160e01b031982166301ffc9a760e01b145b92915050565b60008060008036600061077c8888611b90565b9450945094509450945061078e611c07565b6001600160a01b031633036107cb576107bd8b868b8763ffffffff88166001600160a01b038416158888611c51565b6001955050505050506107d5565b6000955050505050505b95945050505050565b6107e6611109565b1561080457604051637a404b9f60e11b815260040160405180910390fd5b6032546001600160a01b031661dead146108865760405162461bcd60e51b815260206004820152603f60248201527f4f7074696d69736d506f7274616c3a2063616e206f6e6c79207472696767657260448201527f206f6e65207769746864726177616c20706572207472616e73616374696f6e00606482015260840161021a565b600061089183611e92565b905061089d8183611182565b6000818152603360205260408120805460ff191660011790556108be611c07565b9050806001600160a01b031684604001516001600160a01b0316036109575760405162461bcd60e51b815260206004820152604360248201527f4f7074696d69736d20506f7274616c3a2063616e6e6f74206d616b652061206460448201527f69726563742063616c6c20746f206e617469766520746f6b656e20636f6e74726064820152621858dd60ea1b608482015260a40161021a565b6020840151603280546001600160a01b0319166001600160a01b03909216919091179055606084015115610a325760a08401515115610a14576040808501516060860151915163095ea7b360e01b81526001600160a01b039182166004820152602481019290925282169063095ea7b3906044016020604051808303816000875af11580156109ea573d6000803e3d6000fd5b505050506040513d601f19601f82011682018060405250810190610a0e91906143e4565b50610a32565b60408401516060850151610a32916001600160a01b03841691611edf565b60008460a0015151600014610a6157610a5a8560400151866080015160008860a00151611f47565b9050610a65565b5060015b60a08501515115801590610a7c5750606085015115155b15610afc57604085810151905163095ea7b360e01b81526001600160a01b039182166004820152600060248201529083169063095ea7b3906044016020604051808303816000875af1158015610ad6573d6000803e3d6000fd5b505050506040513d601f19601f82011682018060405250810190610afa91906143e4565b505b603280546001600160a01b03191661dead17905560405183907fdb5c7652857aa163daadd670e116628fb42e869d8ac4251ef8971d9e5727df1b90610b4690841515815260200190565b60405180910390a280158015610b5c5750326001145b15610b7a5760405163eeae4ed360e01b815260040160405180910390fd5b5050505050565b6000603560019054906101000a90046001600160a01b03166001600160a01b031663452a93206040518163ffffffff1660e01b8152600401602060405180830381865afa158015610bd6573d6000803e3d6000fd5b505050506040513d601f19601f82011682018060405250810190610bfa9190614401565b905090565b610c07611109565b15610c2557604051637a404b9f60e11b815260040160405180910390fd5b306001600160a01b031685604001516001600160a01b031603610cb05760405162461bcd60e51b815260206004820152603f60248201527f4f7074696d69736d506f7274616c3a20796f752063616e6e6f742073656e642060448201527f6d6573736167657320746f2074686520706f7274616c20636f6e747261637400606482015260840161021a565b603854604051632ee2a87f60e21b81526004810186905260009182916001600160a01b039091169063bb8aa1fc90602401606060405180830381865afa158015610cfe573d6000803e3d6000fd5b505050506040513d601f19601f82011682018060405250810190610d22919061441e565b92505091506000816001600160a01b031663bcef3b556040518163ffffffff1660e01b8152600401602060405180830381865afa158015610d67573d6000803e3d6000fd5b505050506040513d601f19601f82011682018060405250810190610d8b919061446b565b603b5490915063ffffffff848116911614610db85760405162461bcd60e51b815260040161021a90614484565b610dcf610dca368890038801886144c5565b611fa5565b8114610e2f5760405162461bcd60e51b815260206004820152602960248201527f4f7074696d69736d506f7274616c3a20696e76616c6964206f7574707574207260448201526837b7ba10383937b7b360b91b606482015260840161021a565b6000610e3a89611e92565b90506001836001600160a01b031663200d2ed26040518163ffffffff1660e01b8152600401602060405180830381865afa158015610e7c573d6000803e3d6000fd5b505050506040513d601f19601f82011682018060405250810190610ea09190614540565b6002811115610eb157610eb161452a565b03610f245760405162461bcd60e51b815260206004820152603a60248201527f4f7074696d69736d506f7274616c3a2063616e6e6f742070726f76652061676160448201527f696e737420696e76616c696420646973707574652067616d6573000000000000606482015260840161021a565b6040805160208101839052600091810182905260600160408051601f1981840301815282825280516020918201209083018190529250610f95910160408051601f1981840301815282820190915260018252600160f81b602083015290610f8b898b614561565b8b60400135611fe4565b610ffc5760405162461bcd60e51b815260206004820152603260248201527f4f7074696d69736d506f7274616c3a20696e76616c696420776974686472617760448201527130b61034b731b63ab9b4b7b710383937b7b360711b606482015260840161021a565b6040805180820182526001600160a01b0380871682526001600160401b0342811660208085019182526000888152603982528681203382528252868120955186549351909416600160a01b026001600160e01b031990931693851693909317919091179093558d840151928e01519351928216939091169185917f67a6208cfcc0801d50f6cbe764733f4fddf66ac0b04442061a8a8c0cb6b63f6291a4604051339083907f798f9f13695f8f045aa5f80ed8efebb695f3c7fe65da381969f2f28bf3c60b9790600090a3506000908152603c602090815260408220805460018101825590835291200180546001600160a01b031916331790555050505050505050565b6000610bfa611c07565b6000603560019054906101000a90046001600160a01b03166001600160a01b0316635c975abb6040518163ffffffff1660e01b8152600401602060405180830381865afa15801561115e573d6000803e3d6000fd5b505050506040513d601f19601f82011682018060405250810190610bfa91906143e4565b60008281526039602090815260408083206001600160a01b038581168552908352818420825180840184529054918216808252600160a01b9092046001600160401b031681850152818552603a90935292205490919060ff16156112425760405162461bcd60e51b815260206004820152603160248201527f4f7074696d69736d506f7274616c3a20646973707574652067616d6520686173604482015270081899595b88189b1858dadb1a5cdd1959607a1b606482015260840161021a565b81602001516001600160401b03166000036112db5760405162461bcd60e51b815260206004820152604d60248201527f4f7074696d69736d506f7274616c3a207769746864726177616c20686173206e60448201527f6f74206265656e2070726f76656e2062792070726f6f66207375626d6974746560648201526c1c881859191c995cdcc81e595d609a1b608482015260a40161021a565b600061134e826001600160a01b031663cf09e0d06040518163ffffffff1660e01b8152600401602060405180830381865afa15801561131e573d6000803e3d6000fd5b505050506040513d601f19601f8201168201806040525081019061134291906145e4565b6001600160401b031690565b9050806001600160401b031683602001516001600160401b0316116113f25760405162461bcd60e51b815260206004820152604e60248201527f4f7074696d69736d506f7274616c3a207769746864726177616c2074696d657360448201527f74616d70206c657373207468616e20646973707574652067616d65206372656160648201526d074696f6e2074696d657374616d760941b608482015260a40161021a565b7f000000000000000000000000000000000000000000000000000000000000000083602001516001600160401b03164261142c9190614617565b116114975760405162461bcd60e51b815260206004820152603560248201527f4f7074696d69736d506f7274616c3a2070726f76656e207769746864726177616044820152741b081a185cc81b9bdd081b585d1d5c9959081e595d605a1b606482015260840161021a565b6002826001600160a01b031663200d2ed26040518163ffffffff1660e01b8152600401602060405180830381865afa1580156114d7573d6000803e3d6000fd5b505050506040513d601f19601f820116820180604052508101906114fb9190614540565b600281111561150c5761150c61452a565b146115785760405162461bcd60e51b815260206004820152603660248201527f4f7074696d69736d506f7274616c3a206f75747075742070726f706f73616c206044820152751a185cc81b9bdd081899595b881d985b1a59185d195960521b606482015260840161021a565b603b5463ffffffff1663ffffffff166115f5836001600160a01b031663bbdc02db6040518163ffffffff1660e01b8152600401602060405180830381865afa1580156115c8573d6000803e3d6000fd5b505050506040513d601f19601f820116820180604052508101906115ec919061462e565b63ffffffff1690565b63ffffffff16146116185760405162461bcd60e51b815260040161021a90614484565b603b546001600160401b03640100000000909104811690821610156116b95760405162461bcd60e51b815260206004820152604b60248201527f4f7074696d69736d506f7274616c3a20646973707574652067616d652063726560448201527f61746564206265666f7265207265737065637465642067616d6520747970652060648201526a1dd85cc81d5c19185d195960aa1b608482015260a40161021a565b7f000000000000000000000000000000000000000000000000000000000000000061171b836001600160a01b03166319effeb46040518163ffffffff1660e01b8152600401602060405180830381865afa15801561131e573d6000803e3d6000fd5b61172e906001600160401b031642614617565b1161178e5760405162461bcd60e51b815260206004820152602a60248201527f4f7074696d69736d506f7274616c3a206f75747075742070726f706f73616c206044820152690696e206169722d6761760b41b606482015260840161021a565b60008581526033602052604090205460ff1615610b7a5760405162461bcd60e51b815260206004820152603560248201527f4f7074696d69736d506f7274616c3a207769746864726177616c2068617320616044820152741b1c9958591e481899595b88199a5b985b1a5e9959605a1b606482015260840161021a565b611813610b81565b6001600160a01b0316336001600160a01b031614611843576040516282b42960e81b815260040160405180910390fd5b6001600160a01b0381166000818152603a6020526040808220805460ff19166001179055517f192c289026d59a41a27f5aea08f3969b57931b0589202d14f4368cded95d3cda9190a250565b611897610b81565b6001600160a01b0316336001600160a01b0316146118c7576040516282b42960e81b815260040160405180910390fd5b603b805463ffffffff83166bffffffffffffffffffffffff199091168117640100000000426001600160401b0390811682029290921793849055604051930416917f049fe9dd413cdf037cce27011cc1790c753118272f3630e6e8bdfa5e8208176090600090a350565b565b61193b611109565b1561195957604051637a404b9f60e11b815260040160405180910390fd5b61196381336107de565b50565b600054610100900460ff16158080156119865750600054600160ff909116105b806119a05750303b1580156119a0575060005460ff166001145b611a035760405162461bcd60e51b815260206004820152602e60248201527f496e697469616c697a61626c653a20636f6e747261637420697320616c72656160448201526d191e481a5b9a5d1a585b1a5e995960921b606482015260840161021a565b6000805460ff191660011790558015611a26576000805461ff0019166101001790555b603880546001600160a01b03199081166001600160a01b03888116919091179092556037805490911686831617905560358054610100600160a81b0319166101008684160217905560325416611ac3576032805461dead6001600160a01b0319909116179055603b80546bffffffffffffffffffffffff1916640100000000426001600160401b03160263ffffffff19161763ffffffff84161790555b611acb612008565b8015610b7a576000805461ff0019169055604051600181527f7f26b83ff96e1f2b6a682f133852f6798a09c465da95921460cefb38474024989060200160405180910390a15050505050565b6000611b2482601061464b565b6107639061520861467a565b603c6020528160005260406000208181548110611b4c57600080fd5b6000918252602090912001546001600160a01b03169150829050565b611b783388888888888888611c51565b50505050505050565b6001600160a01b03163b151590565b6000808036816038861015611be05760405162461bcd60e51b8152602060048201526016602482015275696e76616c6964206f6e417070726f7665206461746160501b604482015260640161021a565b505050833560601c94601485013594603481013560e01c9460389091019350603719019150565b6037546040805163268023f760e11b815290516000926001600160a01b031691634d0047ee9160048083019260209291908290030181865afa158015610bd6573d6000803e3d6000fd5b8360005a90506000611c61611c07565b90508815611c7e57611c7e6001600160a01b0382168c308c6120c3565b8515611d03576001600160a01b038a1615611d03576040805162461bcd60e51b81526020600482015260248101919091527f4f7074696d69736d506f7274616c3a206d7573742073656e6420746f2061646460448201527f72657373283029207768656e206372656174696e67206120636f6e7472616374606482015260840161021a565b611d0c84611b17565b6001600160401b0316876001600160401b03161015611d795760405162461bcd60e51b815260206004820152602360248201527f4f7074696d69736d506f7274616c3a20676173206c696d697420746f6f20736d604482015262185b1b60ea1b606482015260840161021a565b6201d4c0841115611dcc5760405162461bcd60e51b815260206004820152601e60248201527f4f7074696d69736d506f7274616c3a206461746120746f6f206c617267650000604482015260640161021a565b6000326001600160a01b038d1603611de4578b611dfc565b7311110000000000000000000000000000000011118c015b905060008a8a8a8a8a8a604051602001611e1b969594939291906146a5565b604051602081830303815290604052905060008c6001600160a01b0316836001600160a01b03167fb3813568d9991fc951961fcb4c784893574240a28925604d09fc577c55bb7c3284604051611e7191906141f5565b60405180910390a4505050611e868282612101565b50505050505050505050565b80516020808301516040808501516060860151608087015160a08801519351600097611ec29790969591016146e8565b604051602081830303815290604052805190602001209050919050565b6040516001600160a01b038316602482015260448101829052611f4290849063a9059cbb60e01b906064015b60408051601f198184030181529190526020810180516001600160e01b03166001600160e01b031990931692909217909152612345565b505050565b6000806000611f57866000612417565b905080611f8d576308c379a06000526020805278185361666543616c6c3a204e6f7420656e6f756768206761736058526064601cfd5b600080855160208701888b5af1979650505050505050565b60008160000151826020015183604001518460600151604051602001611ec2949392919093845260208401929092526040830152606082015260800190565b600080611ff086612435565b9050611ffe81868686612467565b9695505050505050565b600054610100900460ff166120735760405162461bcd60e51b815260206004820152602b60248201527f496e697469616c697a61626c653a20636f6e7472616374206973206e6f74206960448201526a6e697469616c697a696e6760a81b606482015260840161021a565b600154600160c01b90046001600160401b03166000036119315760408051606081018252633b9aca0080825260006020830152436001600160401b031691909201819052600160c01b0217600155565b6040516001600160a01b03808516602483015283166044820152606481018290526120fb9085906323b872dd60e01b90608401611f0b565b50505050565b60015460009061212190600160c01b90046001600160401b031643614617565b9050600061212d61248e565b90506000816020015160ff16826000015163ffffffff1661214e919061474a565b9050821561223d57600154600090612177908390600160801b90046001600160401b0316614778565b90506000836040015160ff168361218e91906147b7565b6001546121a59084906001600160801b03166147b7565b6121af919061474a565b6001549091506000906121ee906121d09084906001600160801b031661483c565b866060015163ffffffff168760a001516001600160801b0316612529565b9050600186111561221d5761221a6121d082876040015160ff1660018a6122159190614617565b612548565b90505b6001600160801b0316600160c01b6001600160401b034316021760015550505b60018054869190601090612262908490600160801b90046001600160401b031661467a565b92506101000a8154816001600160401b0302191690836001600160401b03160217905550816000015163ffffffff16600160000160109054906101000a90046001600160401b03166001600160401b031613156122d2576040516377ebef4d60e01b815260040160405180910390fd5b6001546000906122f4906001600160801b03166001600160401b03881661487d565b9050600061230648633b9aca0061259d565b612310908361489c565b905060005a61231f9088614617565b90508082111561233b5761233b6123368284614617565b6125b4565b5050505050505050565b600061239a826040518060400160405280602081526020017f5361666545524332303a206c6f772d6c6576656c2063616c6c206661696c6564815250856001600160a01b03166125dd9092919063ffffffff16565b805190915015611f4257808060200190518101906123b891906143e4565b611f425760405162461bcd60e51b815260206004820152602a60248201527f5361666545524332303a204552433230206f7065726174696f6e20646964206e6044820152691bdd081cdd58d8d9595960b21b606482015260840161021a565b600080603f83619c4001026040850201603f5a021015949350505050565b6060818051906020012060405160200161245191815260200190565b6040516020818303038152906040529050919050565b60006107d5846124788786866125ec565b8051602091820120825192909101919091201490565b6040805160c08082018352600080835260208301819052828401819052606083018190526080830181905260a083015260375483516366398d8160e11b8152935192936001600160a01b039091169263cc731b02926004808401939192918290030181865afa158015612505573d6000803e3d6000fd5b505050506040513d601f19601f82011682018060405250810190610bfa91906148c6565b600061253e6125388585612e82565b83612e92565b90505b9392505050565b6000670de0b6b3a7640000612589612560858361474a565b61257290670de0b6b3a7640000614778565b61258485670de0b6b3a76400006147b7565b612ea1565b61259390866147b7565b61253e919061474a565b6000818310156125ad5781612541565b5090919050565b6000805a90505b825a6125c79083614617565b1015611f42576125d682614978565b91506125bb565b606061253e8484600085612ed2565b606060008451116126375760405162461bcd60e51b81526020600482015260156024820152744d65726b6c65547269653a20656d707479206b657960581b604482015260640161021a565b600061264284613003565b9050600061264f866130ee565b905060008460405160200161266691815260200190565b60405160208183030381529060405290506000805b8451811015612e2b57600085828151811061269857612698614991565b60200260200101519050845183111561270a5760405162461bcd60e51b815260206004820152602e60248201527f4d65726b6c65547269653a206b657920696e646578206578636565647320746f60448201526d0e8c2d840d6caf240d8cadccee8d60931b606482015260840161021a565b826000036127a957805180516020918201206040516127589261273292910190815260200190565b604051602081830303815290604052858051602091820120825192909101919091201490565b6127a45760405162461bcd60e51b815260206004820152601d60248201527f4d65726b6c65547269653a20696e76616c696420726f6f742068617368000000604482015260640161021a565b61289f565b80515160201161282f57805180516020918201206040516127d39261273292910190815260200190565b6127a45760405162461bcd60e51b815260206004820152602760248201527f4d65726b6c65547269653a20696e76616c6964206c6172676520696e7465726e6044820152660c2d840d0c2e6d60cb1b606482015260840161021a565b80518451602080870191909120825191909201201461289f5760405162461bcd60e51b815260206004820152602660248201527f4d65726b6c65547269653a20696e76616c696420696e7465726e616c206e6f646044820152650ca40d0c2e6d60d31b606482015260840161021a565b6128ab601060016149a7565b81602001515103612a5357845183036129eb576128e581602001516010815181106128d8576128d8614991565b6020026020010151613151565b9650600087511161295e5760405162461bcd60e51b815260206004820152603b60248201527f4d65726b6c65547269653a2076616c7565206c656e677468206d75737420626560448201527f2067726561746572207468616e207a65726f20286272616e6368290000000000606482015260840161021a565b6001865161296c9190614617565b82146129e05760405162461bcd60e51b815260206004820152603a60248201527f4d65726b6c65547269653a2076616c7565206e6f6465206d757374206265206c60448201527f617374206e6f646520696e2070726f6f6620286272616e636829000000000000606482015260840161021a565b505050505050612541565b60008584815181106129ff576129ff614991565b602001015160f81c60f81b60f81c9050600082602001518260ff1681518110612a2a57612a2a614991565b60200260200101519050612a3d816131d3565b9550612a4a6001866149a7565b94505050612e18565b600281602001515103612dbf576000612a6b826131f8565b9050600081600081518110612a8257612a82614991565b016020015160f81c90506000612a996002836149bf565b612aa49060026149e1565b90506000612ab5848360ff1661321c565b90506000612ac38a8961321c565b90506000612ad18383613252565b905080835114612b495760405162461bcd60e51b815260206004820152603a60248201527f4d65726b6c65547269653a20706174682072656d61696e646572206d7573742060448201527f736861726520616c6c206e6962626c65732077697468206b6579000000000000606482015260840161021a565b60ff851660021480612b5e575060ff85166003145b15612cff5780825114612bd95760405162461bcd60e51b815260206004820152603d60248201527f4d65726b6c65547269653a206b65792072656d61696e646572206d757374206260448201527f65206964656e746963616c20746f20706174682072656d61696e646572000000606482015260840161021a565b612bf387602001516001815181106128d8576128d8614991565b9c5060008d5111612c6c5760405162461bcd60e51b815260206004820152603960248201527f4d65726b6c65547269653a2076616c7565206c656e677468206d75737420626560448201527f2067726561746572207468616e207a65726f20286c6561662900000000000000606482015260840161021a565b60018c51612c7a9190614617565b8814612cee5760405162461bcd60e51b815260206004820152603860248201527f4d65726b6c65547269653a2076616c7565206e6f6465206d757374206265206c60448201527f617374206e6f646520696e2070726f6f6620286c656166290000000000000000606482015260840161021a565b505050505050505050505050612541565b60ff85161580612d12575060ff85166001145b15612d5157612d3e8760200151600181518110612d3157612d31614991565b60200260200101516131d3565b9950612d4a818a6149a7565b9850612db4565b60405162461bcd60e51b815260206004820152603260248201527f4d65726b6c65547269653a2072656365697665642061206e6f64652077697468604482015271040c2dc40eadcd6dcdeeedc40e0e4caccd2f60731b606482015260840161021a565b505050505050612e18565b60405162461bcd60e51b815260206004820152602860248201527f4d65726b6c65547269653a20726563656976656420616e20756e706172736561604482015267626c65206e6f646560c01b606482015260840161021a565b5080612e2381614978565b91505061267b565b5060405162461bcd60e51b815260206004820152602560248201527f4d65726b6c65547269653a2072616e206f7574206f662070726f6f6620656c656044820152646d656e747360d81b606482015260840161021a565b6000818312156125ad5781612541565b60008183126125ad5781612541565b6000612541670de0b6b3a764000083612eb9866132d6565b612ec391906147b7565b612ecd919061474a565b6134b1565b606082471015612f335760405162461bcd60e51b815260206004820152602660248201527f416464726573733a20696e73756666696369656e742062616c616e636520666f6044820152651c8818d85b1b60d21b606482015260840161021a565b6001600160a01b0385163b612f8a5760405162461bcd60e51b815260206004820152601d60248201527f416464726573733a2063616c6c20746f206e6f6e2d636f6e7472616374000000604482015260640161021a565b600080866001600160a01b03168587604051612fa69190614a04565b60006040518083038185875af1925050503d8060008114612fe3576040519150601f19603f3d011682016040523d82523d6000602084013e612fe8565b606091505b5091509150612ff882828661365a565b979650505050505050565b8051606090806001600160401b0381111561302057613020613ef6565b60405190808252806020026020018201604052801561306557816020015b604080518082019091526060808252602082015281526020019060019003908161303e5790505b50915060005b818110156130e757604051806040016040528085838151811061309057613090614991565b602002602001015181526020016130bf8684815181106130b2576130b2614991565b6020026020010151613693565b8152508382815181106130d4576130d4614991565b602090810291909101015260010161306b565b5050919050565b606080604051905082518060011b603f8101601f1916830160405280835250602084016020830160005b83811015613146578060011b82018184015160001a8060041c8253600f811660018301535050600101613118565b509295945050505050565b60606000806000613161856136a6565b91945092509050600081600181111561317c5761317c61452a565b1461319a576040516307fe6cb960e21b815260040160405180910390fd5b6131a482846149a7565b8551146131c457604051630b8aa6f760e31b815260040160405180910390fd5b6107d58560200151848461399c565b606060208260000151106131ef576131ea82613151565b610763565b61076382613a2f565b606061076361321783602001516000815181106128d8576128d8614991565b6130ee565b60608251821061323b5750604080516020810190915260008152610763565b612541838384865161324d9190614617565b613a45565b6000808251845110613265578251613268565b83515b90505b80821080156132bf575082828151811061328757613287614991565b602001015160f81c60f81b6001600160f81b0319168483815181106132ae576132ae614991565b01602001516001600160f81b031916145b156132cf5781600101915061326b565b5092915050565b60008082136133135760405162461bcd60e51b815260206004820152600960248201526815539111519253915160ba1b604482015260640161021a565b6000606061332084613b87565b03609f8181039490941b90931c6c465772b2bbbb5f824b15207a3081018102606090811d6d0388eaa27412d5aca026815d636e018202811d6d0df99ac502031bf953eff472fdcc018202811d6d13cdffb29d51d99322bdff5f2211018202811d6d0a0f742023def783a307a986912e018202811d6d01920d8043ca89b5239253284e42018202811d6c0b7a86d7375468fac667a0a527016c29508e458543d8aa4df2abee7883018302821d6d0139601a2efabe717e604cbb4894018302821d6d02247f7a7b6594320649aa03aba1018302821d6c8c3f38e95a6b1ff2ab1c3b343619018302821d6d02384773bdf1ac5676facced60901901830290911d6cb9a025d814b29c212b8b1a07cd1901909102780a09507084cc699bb0e71ea869ffffffffffffffffffffffff190105711340daa0d5f769dba1915cef59f0815a5506027d0267a36c0c95b3975ab3ee5b203a7614a3f75373f047d803ae7b6687f2b393909302929092017d57115e47018c7177eebf7cd370a3356a1b7863008a5ae8028c72b88642840160ae1d92915050565b6000680248ce36a70cb26b3e1982136134cc57506000919050565b680755bf798b4a1bf1e582126135135760405162461bcd60e51b815260206004820152600c60248201526b4558505f4f564552464c4f5760a01b604482015260640161021a565b6503782dace9d9604e83901b059150600060606bb17217f7d1cf79abc9e3b39884821b056001605f1b01901d6bb17217f7d1cf79abc9e3b39881029093036c240c330e9fb2d9cbaf0fd5aafb1981018102606090811d6d0277594991cfc85f6e2461837cd9018202811d6d1a521255e34f6a5061b25ef1c9c319018202811d6db1bbb201f443cf962f1a1d3db4a5018202811d6e02c72388d9f74f51a9331fed693f1419018202811d6e05180bb14799ab47a8a8cb2a527d57016d02d16720577bd19bf614176fe9ea6c10fe68e7fd37d0007b713f765084018402831d9081019084016d01d3967ed30fc4f89c02bab5708119010290911d6e0587f503bb6ea29d25fcb740196450019091026d360d7aeea093263ecc6e0ecb291760621b010574029d9dc38563c32e5c2f6dc192ee70ef65f9978af30260c3939093039290921c92915050565b60608315613669575081612541565b8251156136795782518084602001fd5b8160405162461bcd60e51b815260040161021a91906141f5565b60606107636136a183613c25565b613c79565b600080600083600001516000036136d057604051635ab458fb60e01b815260040160405180910390fd5b6020840151805160001a607f81116136f5576000600160009450945094505050613995565b60b7811161378d57600061370a608083614617565b905080876000015111613730576040516366c9448560e01b815260040160405180910390fd5b6001838101516001600160f81b031916908214801561375c5750600160ff1b6001600160f81b03198216105b1561377a5760405163babb01dd60e01b815260040160405180910390fd5b5060019550935060009250613995915050565b60bf811161386f5760006137a260b783614617565b9050808760000151116137c8576040516366c9448560e01b815260040160405180910390fd5b60018301516001600160f81b03191660008190036137f95760405163babb01dd60e01b815260040160405180910390fd5b600184015160088302610100031c603781116138285760405163babb01dd60e01b815260040160405180910390fd5b61383281846149a7565b895111613852576040516366c9448560e01b815260040160405180910390fd5b61385d8360016149a7565b97509550600094506139959350505050565b60f781116138bb57600061388460c083614617565b9050808760000151116138aa576040516366c9448560e01b815260040160405180910390fd5b600195509350849250613995915050565b60006138c860f783614617565b9050808760000151116138ee576040516366c9448560e01b815260040160405180910390fd5b60018301516001600160f81b031916600081900361391f5760405163babb01dd60e01b815260040160405180910390fd5b600184015160088302610100031c6037811161394e5760405163babb01dd60e01b815260040160405180910390fd5b61395881846149a7565b895111613978576040516366c9448560e01b815260040160405180910390fd5b6139838360016149a7565b97509550600194506139959350505050565b9193909250565b6060816001600160401b038111156139b6576139b6613ef6565b6040519080825280601f01601f1916602001820160405280156139e0576020820181803683370190505b50905081156125415760006139f584866149a7565b90506020820160005b84811015613a165782810151828201526020016139fe565b84811115613a25576000858301525b5050509392505050565b606061076382602001516000846000015161399c565b60608182601f011015613a8b5760405162461bcd60e51b815260206004820152600e60248201526d736c6963655f6f766572666c6f7760901b604482015260640161021a565b828284011015613ace5760405162461bcd60e51b815260206004820152600e60248201526d736c6963655f6f766572666c6f7760901b604482015260640161021a565b81830184511015613b155760405162461bcd60e51b8152602060048201526011602482015270736c6963655f6f75744f66426f756e647360781b604482015260640161021a565b606082158015613b345760405191506000825260208201604052613b7e565b6040519150601f8416801560200281840101858101878315602002848b0101015b81831015613b6d578051835260209283019201613b55565b5050858452601f01601f1916604052505b50949350505050565b6000808211613bc45760405162461bcd60e51b815260206004820152600960248201526815539111519253915160ba1b604482015260640161021a565b5060016001600160801b03821160071b82811c6001600160401b031060061b1782811c63ffffffff1060051b1782811c61ffff1060041b1782811c60ff10600390811b90911783811c600f1060021b1783811c909110821b1791821c111790565b60408051808201909152600080825260208201528151600003613c5b57604051635ab458fb60e01b815260040160405180910390fd5b50604080518082019091528151815260209182019181019190915290565b60606000806000613c89856136a6565b919450925090506001816001811115613ca457613ca461452a565b14613cc2576040516325ce355f60e11b815260040160405180910390fd5b8451613cce83856149a7565b14613cec57604051630b8aa6f760e31b815260040160405180910390fd5b604080516020808252610420820190925290816020015b6040805180820190915260008082526020820152815260200190600190039081613d035790505093506000835b8651811015613df157600080613d766040518060400160405280858c60000151613d5a9190614617565b8152602001858c60200151613d6f91906149a7565b90526136a6565b509150915060405180604001604052808383613d9291906149a7565b8152602001848b60200151613da791906149a7565b815250888581518110613dbc57613dbc614991565b6020908102919091010152613dd26001856149a7565b9350613dde81836149a7565b613de890846149a7565b92505050613d30565b50845250919392505050565b600060208284031215613e0f57600080fd5b81356001600160e01b03198116811461254157600080fd5b6001600160a01b038116811461196357600080fd5b60008083601f840112613e4e57600080fd5b5081356001600160401b03811115613e6557600080fd5b602083019150836020828501011115613e7d57600080fd5b9250929050565b600080600080600060808688031215613e9c57600080fd5b8535613ea781613e27565b94506020860135613eb781613e27565b93506040860135925060608601356001600160401b03811115613ed957600080fd5b613ee588828901613e3c565b969995985093965092949392505050565b634e487b7160e01b600052604160045260246000fd5b604051601f8201601f191681016001600160401b0381118282101715613f3457613f34613ef6565b604052919050565b600082601f830112613f4d57600080fd5b81356001600160401b03811115613f6657613f66613ef6565b613f79601f8201601f1916602001613f0c565b818152846020838601011115613f8e57600080fd5b816020850160208301376000918101602001919091529392505050565b600060c08284031215613fbd57600080fd5b60405160c081016001600160401b038282108183111715613fe057613fe0613ef6565b816040528293508435835260208501359150613ffb82613e27565b8160208401526040850135915061401182613e27565b816040840152606085013560608401526080850135608084015260a085013591508082111561403f57600080fd5b5061404c85828601613f3c565b60a0830152505092915050565b6000806040838503121561406c57600080fd5b82356001600160401b0381111561408257600080fd5b61408e85828601613fab565b925050602083013561409f81613e27565b809150509250929050565b6000602082840312156140bc57600080fd5b813561254181613e27565b600080600080600085870360e08112156140e057600080fd5b86356001600160401b03808211156140f757600080fd5b6141038a838b01613fab565b9750602089013596506080603f198401121561411e57600080fd5b60408901955060c089013592508083111561413857600080fd5b828901925089601f84011261414c57600080fd5b823591508082111561415d57600080fd5b508860208260051b840101111561417357600080fd5b959894975092955050506020019190565b60006020828403121561419657600080fd5b5035919050565b60005b838110156141b85781810151838201526020016141a0565b838111156120fb5750506000910152565b600081518084526141e181602086016020860161419d565b601f01601f19169290920160200192915050565b60208152600061254160208301846141c9565b6000806040838503121561421b57600080fd5b82359150602083013561409f81613e27565b63ffffffff8116811461196357600080fd5b60006020828403121561425157600080fd5b81356125418161422d565b60006020828403121561426e57600080fd5b81356001600160401b0381111561428457600080fd5b61429084828501613fab565b949350505050565b600080600080608085870312156142ae57600080fd5b84356142b981613e27565b935060208501356142c981613e27565b925060408501356142d981613e27565b915060608501356142e98161422d565b939692955090935050565b6001600160401b038116811461196357600080fd5b60006020828403121561431b57600080fd5b8135612541816142f4565b6000806040838503121561433957600080fd5b50508035926020909101359150565b801515811461196357600080fd5b600080600080600080600060c0888a03121561437157600080fd5b873561437c81613e27565b96506020880135955060408801359450606088013561439a816142f4565b935060808801356143aa81614348565b925060a08801356001600160401b038111156143c557600080fd5b6143d18a828b01613e3c565b989b979a50959850939692959293505050565b6000602082840312156143f657600080fd5b815161254181614348565b60006020828403121561441357600080fd5b815161254181613e27565b60008060006060848603121561443357600080fd5b835161443e8161422d565b602085015190935061444f816142f4565b604085015190925061446081613e27565b809150509250925092565b60006020828403121561447d57600080fd5b5051919050565b60208082526021908201527f4f7074696d69736d506f7274616c3a20696e76616c69642067616d65207479706040820152606560f81b606082015260800190565b6000608082840312156144d757600080fd5b604051608081018181106001600160401b03821117156144f9576144f9613ef6565b8060405250823581526020830135602082015260408301356040820152606083013560608201528091505092915050565b634e487b7160e01b600052602160045260246000fd5b60006020828403121561455257600080fd5b81516003811061254157600080fd5b60006001600160401b038084111561457b5761457b613ef6565b8360051b602061458c818301613f0c565b8681529185019181810190368411156145a457600080fd5b865b848110156145d8578035868111156145be5760008081fd5b6145ca36828b01613f3c565b8452509183019183016145a6565b50979650505050505050565b6000602082840312156145f657600080fd5b8151612541816142f4565b634e487b7160e01b600052601160045260246000fd5b60008282101561462957614629614601565b500390565b60006020828403121561464057600080fd5b81516125418161422d565b60006001600160401b038083168185168183048111821515161561467157614671614601565b02949350505050565b60006001600160401b0380831681851680830382111561469c5761469c614601565b01949350505050565b8681528560208201526001600160401b0360c01b8560c01b16604082015283151560f81b6048820152818360498301376000910160490190815295945050505050565b8681526001600160a01b03868116602083015285166040820152606081018490526080810183905260c060a08201819052600090614728908301846141c9565b98975050505050505050565b634e487b7160e01b600052601260045260246000fd5b60008261475957614759614734565b600160ff1b82146000198414161561477357614773614601565b500590565b60008083128015600160ff1b85018412161561479657614796614601565b6001600160ff1b03840183138116156147b1576147b1614601565b50500390565b60006001600160ff1b03818413828413808216868404861116156147dd576147dd614601565b600160ff1b60008712828116878305891216156147fc576147fc614601565b6000871292508782058712848416161561481857614818614601565b8785058712818416161561482e5761482e614601565b505050929093029392505050565b600080821280156001600160ff1b038490038513161561485e5761485e614601565b600160ff1b839003841281161561487757614877614601565b50500190565b600081600019048311821515161561489757614897614601565b500290565b6000826148ab576148ab614734565b500490565b805160ff811681146148c157600080fd5b919050565b600060c082840312156148d857600080fd5b60405160c081018181106001600160401b03821117156148fa576148fa613ef6565b60405282516149088161422d565b8152614916602084016148b0565b6020820152614927604084016148b0565b6040820152606083015161493a8161422d565b6060820152608083015161494d8161422d565b608082015260a08301516001600160801b038116811461496c57600080fd5b60a08201529392505050565b60006001820161498a5761498a614601565b5060010190565b634e487b7160e01b600052603260045260246000fd5b600082198211156149ba576149ba614601565b500190565b600060ff8316806149d2576149d2614734565b8060ff84160691505092915050565b600060ff821660ff8416808210156149fb576149fb614601565b90039392505050565b60008251614a1681846020870161419d565b919091019291505056fea164736f6c634300080f000a","linkReferences":{}},"methodIdentifiers":{"blacklistDisputeGame(address)":"7d6be8dc","checkWithdrawal(bytes32,address)":"71c1566e","depositTransaction(address,uint256,uint256,uint64,bool,bytes)":"b9e55958","disputeGameBlacklist(address)":"45884d32","disputeGameFactory()":"f2b4e617","disputeGameFinalityDelaySeconds()":"952b2797","donateETH()":"8b4c40b0","finalizeWithdrawalTransaction((uint256,address,address,uint256,uint256,bytes))":"8c3152e9","finalizeWithdrawalTransactionExternalProof((uint256,address,address,uint256,uint256,bytes),address)":"43ca1c50","finalizedWithdrawals(bytes32)":"a14238e7","guardian()":"452a9320","initialize(address,address,address,uint32)":"8e819e54","l2Sender()":"9bf62d82","minimumGasLimit(uint64)":"a35d99df","nativeTokenAddress()":"4d0047ee","numProofSubmitters(bytes32)":"513747ab","onApprove(address,address,uint256,bytes)":"4273ca16","params()":"cff0ab96","paused()":"5c975abb","proofMaturityDelaySeconds()":"bf653a5c","proofSubmitters(bytes32,uint256)":"a3860f48","proveWithdrawalTransaction((uint256,address,address,uint256,uint256,bytes),uint256,(bytes32,bytes32,bytes32,bytes32),bytes[])":"4870496f","provenWithdrawals(bytes32,address)":"bb2c727e","respectedGameType()":"3c9f397c","respectedGameTypeUpdatedAt()":"4fd0434c","setRespectedGameType(uint32)":"7fc48504","superchainConfig()":"35e80ab3","supportsInterface(bytes4)":"01ffc9a7","systemConfig()":"33d7e2bd","version()":"54fd4d50"},"id":172}