{"abi":[{"type":"constructor","inputs":[{"name":"_minProposalSize","type":"uint256","internalType":"uint256"},{"name":"_challengePeriod","type":"uint256","internalType":"uint256"}],"stateMutability":"nonpayable"},{"type":"function","name":"KECCAK_TREE_DEPTH","inputs":[],"outputs":[{"name":"","type":"uint256","internalType":"uint256"}],"stateMutability":"view"},{"type":"function","name":"MAX_LEAF_COUNT","inputs":[],"outputs":[{"name":"","type":"uint256","internalType":"uint256"}],"stateMutability":"view"},{"type":"function","name":"MIN_BOND_SIZE","inputs":[],"outputs":[{"name":"","type":"uint256","internalType":"uint256"}],"stateMutability":"view"},{"type":"function","name":"PRECOMPILE_CALL_RESERVED_GAS","inputs":[],"outputs":[{"name":"","type":"uint256","internalType":"uint256"}],"stateMutability":"view"},{"type":"function","name":"addLeavesLPP","inputs":[{"name":"_uuid","type":"uint256","internalType":"uint256"},{"name":"_inputStartBlock","type":"uint256","internalType":"uint256"},{"name":"_input","type":"bytes","internalType":"bytes"},{"name":"_stateCommitments","type":"bytes32[]","internalType":"bytes32[]"},{"name":"_finalize","type":"bool","internalType":"bool"}],"outputs":[],"stateMutability":"nonpayable"},{"type":"function","name":"challengeFirstLPP","inputs":[{"name":"_claimant","type":"address","internalType":"address"},{"name":"_uuid","type":"uint256","internalType":"uint256"},{"name":"_postState","type":"tuple","internalType":"struct PreimageOracle.Leaf","components":[{"name":"input","type":"bytes","internalType":"bytes"},{"name":"index","type":"uint256","internalType":"uint256"},{"name":"stateCommitment","type":"bytes32","internalType":"bytes32"}]},{"name":"_postStateProof","type":"bytes32[]","internalType":"bytes32[]"}],"outputs":[],"stateMutability":"nonpayable"},{"type":"function","name":"challengeLPP","inputs":[{"name":"_claimant","type":"address","internalType":"address"},{"name":"_uuid","type":"uint256","internalType":"uint256"},{"name":"_stateMatrix","type":"tuple","internalType":"struct LibKeccak.StateMatrix","components":[{"name":"state","type":"uint64[25]","internalType":"uint64[25]"}]},{"name":"_preState","type":"tuple","internalType":"struct PreimageOracle.Leaf","components":[{"name":"input","type":"bytes","internalType":"bytes"},{"name":"index","type":"uint256","internalType":"uint256"},{"name":"stateCommitment","type":"bytes32","internalType":"bytes32"}]},{"name":"_preStateProof","type":"bytes32[]","internalType":"bytes32[]"},{"name":"_postState","type":"tuple","internalType":"struct PreimageOracle.Leaf","components":[{"name":"input","type":"bytes","internalType":"bytes"},{"name":"index","type":"uint256","internalType":"uint256"},{"name":"stateCommitment","type":"bytes32","internalType":"bytes32"}]},{"name":"_postStateProof","type":"bytes32[]","internalType":"bytes32[]"}],"outputs":[],"stateMutability":"nonpayable"},{"type":"function","name":"challengePeriod","inputs":[],"outputs":[{"name":"challengePeriod_","type":"uint256","internalType":"uint256"}],"stateMutability":"view"},{"type":"function","name":"getTreeRootLPP","inputs":[{"name":"_owner","type":"address","internalType":"address"},{"name":"_uuid","type":"uint256","internalType":"uint256"}],"outputs":[{"name":"treeRoot_","type":"bytes32","internalType":"bytes32"}],"stateMutability":"view"},{"type":"function","name":"initLPP","inputs":[{"name":"_uuid","type":"uint256","internalType":"uint256"},{"name":"_partOffset","type":"uint32","internalType":"uint32"},{"name":"_claimedSize","type":"uint32","internalType":"uint32"}],"outputs":[],"stateMutability":"payable"},{"type":"function","name":"loadBlobPreimagePart","inputs":[{"name":"_z","type":"uint256","internalType":"uint256"},{"name":"_y","type":"uint256","internalType":"uint256"},{"name":"_commitment","type":"bytes","internalType":"bytes"},{"name":"_proof","type":"bytes","internalType":"bytes"},{"name":"_partOffset","type":"uint256","internalType":"uint256"}],"outputs":[],"stateMutability":"nonpayable"},{"type":"function","name":"loadKeccak256PreimagePart","inputs":[{"name":"_partOffset","type":"uint256","internalType":"uint256"},{"name":"_preimage","type":"bytes","internalType":"bytes"}],"outputs":[],"stateMutability":"nonpayable"},{"type":"function","name":"loadLocalData","inputs":[{"name":"_ident","type":"uint256","internalType":"uint256"},{"name":"_localContext","type":"bytes32","internalType":"bytes32"},{"name":"_word","type":"bytes32","internalType":"bytes32"},{"name":"_size","type":"uint256","internalType":"uint256"},{"name":"_partOffset","type":"uint256","internalType":"uint256"}],"outputs":[{"name":"key_","type":"bytes32","internalType":"bytes32"}],"stateMutability":"nonpayable"},{"type":"function","name":"loadPrecompilePreimagePart","inputs":[{"name":"_partOffset","type":"uint256","internalType":"uint256"},{"name":"_precompile","type":"address","internalType":"address"},{"name":"_requiredGas","type":"uint64","internalType":"uint64"},{"name":"_input","type":"bytes","internalType":"bytes"}],"outputs":[],"stateMutability":"nonpayable"},{"type":"function","name":"loadSha256PreimagePart","inputs":[{"name":"_partOffset","type":"uint256","internalType":"uint256"},{"name":"_preimage","type":"bytes","internalType":"bytes"}],"outputs":[],"stateMutability":"nonpayable"},{"type":"function","name":"minProposalSize","inputs":[],"outputs":[{"name":"minProposalSize_","type":"uint256","internalType":"uint256"}],"stateMutability":"view"},{"type":"function","name":"preimageLengths","inputs":[{"name":"","type":"bytes32","internalType":"bytes32"}],"outputs":[{"name":"","type":"uint256","internalType":"uint256"}],"stateMutability":"view"},{"type":"function","name":"preimagePartOk","inputs":[{"name":"","type":"bytes32","internalType":"bytes32"},{"name":"","type":"uint256","internalType":"uint256"}],"outputs":[{"name":"","type":"bool","internalType":"bool"}],"stateMutability":"view"},{"type":"function","name":"preimageParts","inputs":[{"name":"","type":"bytes32","internalType":"bytes32"},{"name":"","type":"uint256","internalType":"uint256"}],"outputs":[{"name":"","type":"bytes32","internalType":"bytes32"}],"stateMutability":"view"},{"type":"function","name":"proposalBlocks","inputs":[{"name":"","type":"address","internalType":"address"},{"name":"","type":"uint256","internalType":"uint256"},{"name":"","type":"uint256","internalType":"uint256"}],"outputs":[{"name":"","type":"uint64","internalType":"uint64"}],"stateMutability":"view"},{"type":"function","name":"proposalBlocksLen","inputs":[{"name":"_claimant","type":"address","internalType":"address"},{"name":"_uuid","type":"uint256","internalType":"uint256"}],"outputs":[{"name":"len_","type":"uint256","internalType":"uint256"}],"stateMutability":"view"},{"type":"function","name":"proposalBonds","inputs":[{"name":"","type":"address","internalType":"address"},{"name":"","type":"uint256","internalType":"uint256"}],"outputs":[{"name":"","type":"uint256","internalType":"uint256"}],"stateMutability":"view"},{"type":"function","name":"proposalBranches","inputs":[{"name":"","type":"address","internalType":"address"},{"name":"","type":"uint256","internalType":"uint256"},{"name":"","type":"uint256","internalType":"uint256"}],"outputs":[{"name":"","type":"bytes32","internalType":"bytes32"}],"stateMutability":"view"},{"type":"function","name":"proposalCount","inputs":[],"outputs":[{"name":"count_","type":"uint256","internalType":"uint256"}],"stateMutability":"view"},{"type":"function","name":"proposalMetadata","inputs":[{"name":"","type":"address","internalType":"address"},{"name":"","type":"uint256","internalType":"uint256"}],"outputs":[{"name":"","type":"bytes32","internalType":"LPPMetaData"}],"stateMutability":"view"},{"type":"function","name":"proposalParts","inputs":[{"name":"","type":"address","internalType":"address"},{"name":"","type":"uint256","internalType":"uint256"}],"outputs":[{"name":"","type":"bytes32","internalType":"bytes32"}],"stateMutability":"view"},{"type":"function","name":"proposals","inputs":[{"name":"","type":"uint256","internalType":"uint256"}],"outputs":[{"name":"claimant","type":"address","internalType":"address"},{"name":"uuid","type":"uint256","internalType":"uint256"}],"stateMutability":"view"},{"type":"function","name":"readPreimage","inputs":[{"name":"_key","type":"bytes32","internalType":"bytes32"},{"name":"_offset","type":"uint256","internalType":"uint256"}],"outputs":[{"name":"dat_","type":"bytes32","internalType":"bytes32"},{"name":"datLen_","type":"uint256","internalType":"uint256"}],"stateMutability":"view"},{"type":"function","name":"squeezeLPP","inputs":[{"name":"_claimant","type":"address","internalType":"address"},{"name":"_uuid","type":"uint256","internalType":"uint256"},{"name":"_stateMatrix","type":"tuple","internalType":"struct LibKeccak.StateMatrix","components":[{"name":"state","type":"uint64[25]","internalType":"uint64[25]"}]},{"name":"_preState","type":"tuple","internalType":"struct PreimageOracle.Leaf","components":[{"name":"input","type":"bytes","internalType":"bytes"},{"name":"index","type":"uint256","internalType":"uint256"},{"name":"stateCommitment","type":"bytes32","internalType":"bytes32"}]},{"name":"_preStateProof","type":"bytes32[]","internalType":"bytes32[]"},{"name":"_postState","type":"tuple","internalType":"struct PreimageOracle.Leaf","components":[{"name":"input","type":"bytes","internalType":"bytes"},{"name":"index","type":"uint256","internalType":"uint256"},{"name":"stateCommitment","type":"bytes32","internalType":"bytes32"}]},{"name":"_postStateProof","type":"bytes32[]","internalType":"bytes32[]"}],"outputs":[],"stateMutability":"nonpayable"},{"type":"function","name":"version","inputs":[],"outputs":[{"name":"","type":"string","internalType":"string"}],"stateMutability":"view"},{"type":"function","name":"zeroHashes","inputs":[{"name":"","type":"uint256","internalType":"uint256"}],"outputs":[{"name":"","type":"bytes32","internalType":"bytes32"}],"stateMutability":"view"},{"type":"error","name":"ActiveProposal","inputs":[]},{"type":"error","name":"AlreadyFinalized","inputs":[]},{"type":"error","name":"AlreadyInitialized","inputs":[]},{"type":"error","name":"BadProposal","inputs":[]},{"type":"error","name":"BondTransferFailed","inputs":[]},{"type":"error","name":"InsufficientBond","inputs":[]},{"type":"error","name":"InvalidInputSize","inputs":[]},{"type":"error","name":"InvalidPreimage","inputs":[]},{"type":"error","name":"InvalidProof","inputs":[]},{"type":"error","name":"NotEOA","inputs":[]},{"type":"error","name":"NotInitialized","inputs":[]},{"type":"error","name":"PartOffsetOOB","inputs":[]},{"type":"error","name":"PostStateMatches","inputs":[]},{"type":"error","name":"StatesNotContiguous","inputs":[]},{"type":"error","name":"TreeSizeOverflow","inputs":[]},{"type":"error","name":"WrongStartingBlock","inputs":[]}],"bytecode":{"object":"0x60c06040523480156200001157600080fd5b50604051620031853803806200318583398101604081905262000034916200014f565b60a082905260808190526001600160401b038111156200009a5760405162461bcd60e51b815260206004820152601a60248201527f6368616c6c656e676520706572696f6420746f6f206c61726765000000000000604482015260640160405180910390fd5b60005b620000ab600160106200018a565b811015620001465760038160108110620000c957620000c9620001a4565b015460038260108110620000e157620000e1620001a4565b01546040805160208101939093528201526060016040516020818303038152906040528051906020012060038260016200011c9190620001ba565b601081106200012f576200012f620001a4565b0155806200013d81620001d5565b9150506200009d565b505050620001f1565b600080604083850312156200016357600080fd5b505080516020909101519092909150565b634e487b7160e01b600052601160045260246000fd5b6000828210156200019f576200019f62000174565b500390565b634e487b7160e01b600052603260045260246000fd5b60008219821115620001d057620001d062000174565b500190565b600060018201620001ea57620001ea62000174565b5060010190565b60805160a051612f60620002256000396000818161057d015261184c01526000818161067d01526111c60152612f606000f3fe6080604052600436106101d85760003560e01c80639d53a64811610102578063ddcd58de11610095578063ec5efcbc11610064578063ec5efcbc1461064e578063f3f480d91461066e578063faf37bc7146106a1578063fef2b4ed146106b457600080fd5b8063ddcd58de146105a1578063e03110e1146105d9578063e15926111461060e578063ea7139501461062e57600080fd5b8063b5e7154c116100d1578063b5e7154c14610522578063d18534b514610539578063da35c66414610559578063dd24f9bf1461056e57600080fd5b80639d53a648146104685780639d7e8769146104aa578063b2e67ba8146104ca578063b4801e611461050257600080fd5b806361238bde1161017a5780637ac54767116101495780637ac54767146103a55780638542cf50146103c5578063882856ef146104105780638dc4be111461044857600080fd5b806361238bde146102f95780636551927b146103315780637051472e146103695780637917de1d1461038557600080fd5b80633909af5c116101b65780633909af5c146102645780634d52b4c91461028657806352f0f3ad1461029b57806354fd4d50146102bb57600080fd5b8063013cf08b146101dd5780630359a563146102215780632055b36b1461024f575b600080fd5b3480156101e957600080fd5b506101fd6101f8366004612589565b6106e1565b604080516001600160a01b0390931683526020830191909152015b60405180910390f35b34801561022d57600080fd5b5061024161023c3660046125be565b610719565b604051908152602001610218565b34801561025b57600080fd5b50610241601081565b34801561027057600080fd5b5061028461027f366004612789565b610837565b005b34801561029257600080fd5b50610241610a06565b3480156102a757600080fd5b506102416102b6366004612874565b610a21565b3480156102c757600080fd5b506102ec60405180604001604052806005815260200164189718971960d91b81525081565b60405161021891906128db565b34801561030557600080fd5b5061024161031436600461290e565b600160209081526000928352604080842090915290825290205481565b34801561033d57600080fd5b5061024161034c3660046125be565b601560209081526000928352604080842090915290825290205481565b34801561037557600080fd5b506102416703782dace9d9000081565b34801561039157600080fd5b506102846103a0366004612971565b610ac0565b3480156103b157600080fd5b506102416103c0366004612589565b610ede565b3480156103d157600080fd5b506104006103e036600461290e565b600260209081526000928352604080842090915290825290205460ff1681565b6040519015158152602001610218565b34801561041c57600080fd5b5061043061042b366004612a0c565b610ef5565b6040516001600160401b039091168152602001610218565b34801561045457600080fd5b50610284610463366004612a3f565b610f4e565b34801561047457600080fd5b506102416104833660046125be565b6001600160a01b039091166000908152601860209081526040808320938352929052205490565b3480156104b657600080fd5b506102846104c5366004612a8a565b610ff7565b3480156104d657600080fd5b506102416104e53660046125be565b601760209081526000928352604080842090915290825290205481565b34801561050e57600080fd5b5061024161051d366004612a0c565b611113565b34801561052e57600080fd5b50610241620186a081565b34801561054557600080fd5b50610284610554366004612789565b611145565b34801561056557600080fd5b50601354610241565b34801561057a57600080fd5b507f0000000000000000000000000000000000000000000000000000000000000000610241565b3480156105ad57600080fd5b506102416105bc3660046125be565b601660209081526000928352604080842090915290825290205481565b3480156105e557600080fd5b506105f96105f436600461290e565b61145f565b60408051928352602083019190915201610218565b34801561061a57600080fd5b50610284610629366004612a3f565b61152d565b34801561063a57600080fd5b50610284610649366004612b15565b6115c5565b34801561065a57600080fd5b50610284610669366004612b83565b6116b4565b34801561067a57600080fd5b507f0000000000000000000000000000000000000000000000000000000000000000610241565b6102846106af366004612c0a565b6117cb565b3480156106c057600080fd5b506102416106cf366004612589565b60006020819052908152604090205481565b601381815481106106f157600080fd5b6000918252602090912060029091020180546001909101546001600160a01b03909116915082565b6001600160a01b0382166000908152601560209081526040808320848452909152812054819061074f9060601c63ffffffff1690565b63ffffffff16905060005b601081101561082f57816001166001036107d5576001600160a01b0385166000908152601460209081526040808320878452909152902081601081106107a2576107a2612c46565b01546040805160208101929092528101849052606001604051602081830303815290604052805190602001209250610816565b82600382601081106107e9576107e9612c46565b01546040805160208101939093528201526060016040516020818303038152906040528051906020012092505b60019190911c908061082781612c72565b91505061075a565b505092915050565b60006108438a8a610719565b905061086686868360208b013561086161085c8d612c8b565b6119c8565b611a08565b80156108845750610884838383602088013561086161085c8a612c8b565b6108a1576040516309bde33960e01b815260040160405180910390fd5b8660400135886040516020016108b79190612d3b565b60405160208183030381529060405280519060200120146108eb57604051630cb4548160e11b815260040160405180910390fd5b8360200135876020013560016109019190612d78565b1461091f57604051639a3b119960e01b815260040160405180910390fd5b6109678861092d8680612d90565b8080601f016020809104026020016040519081016040528093929190818152602001838380828437600092019190915250611a6992505050565b61097088611bc3565b8360400135886040516020016109869190612d3b565b60405160208183030381529060405280519060200120036109ba57604051639843145b60e01b815260040160405180910390fd5b6001600160a01b038a1660009081526015602090815260408083208c84529091529020805467ffffffffffffffff191660011790556109fa8a8a33612199565b50505050505050505050565b6001610a1460106002612ebc565b610a1e9190612ec8565b81565b6000610a2d868661222c565b9050610a3a836008612d78565b82101580610a485750602083115b15610a665760405163fe25498760e01b815260040160405180910390fd5b6000602081815260c085901b825260089590955282518282526002865260408083208584528752808320805460ff191660019081179091558484528752808320948352938652838220558181529384905292205592915050565b60608115610ad957610ad28686612271565b9050610b13565b85858080601f0160208091040260200160405190810160405280939291908181526020018383808284376000920191909152509293505050505b3360009081526014602090815260408083208b845290915280822081516102008101928390529160109082845b815481526020019060010190808311610b405750505050509050600060156000336001600160a01b03166001600160a01b0316815260200190815260200160002060008b81526020019081526020016000205490506000610ba78260601c63ffffffff1690565b63ffffffff169050333214610bcf57604051635d04968b60e11b815260040160405180910390fd5b610bdf8260801c63ffffffff1690565b63ffffffff16600003610c05576040516321c4e35760e21b815260040160405180910390fd5b610c0f8260c01c90565b6001600160401b031615610c365760405163475a253560e01b815260040160405180910390fd5b898114610c565760405163307caead60e11b815260040160405180910390fd5b610c6389898d88866122ea565b83516020850160888204881415608883061715610c88576307b1daf16000526004601cfd5b60405160c8810160405260005b83811015610d38578083018051835260208101516020840152604081015160408401526060810151606084015260808101516080840152508460888301526088810460051b8b013560a883015260c882206001860195508560005b610200811015610d2d576001821615610d0d5782818b0152610d2d565b8981015160009081526020938452604090209260019290921c9101610cf0565b505050608801610c95565b50505050600160106002610d4c9190612ebc565b610d569190612ec8565b811115610d7657604051636229572360e01b815260040160405180910390fd5b610dc9610d898360401c63ffffffff1690565b610d999063ffffffff168a612d78565b60401b6bffffffff000000000000000019606084901b166fffffffffffffffff0000000000000000198516171790565b91508415610e2c576001600160c01b0382164260c01b179150610df28260801c63ffffffff1690565b63ffffffff16610e088360401c63ffffffff1690565b63ffffffff1614610e2c57604051637b1dafd160e01b815260040160405180910390fd5b3360009081526014602090815260408083208e84529091529020610e52908460106124ff565b503360008181526018602090815260408083208f8452825280832080546001810182559084528284206004820401805460039092166008026101000a6001600160401b03818102199093164390931602919091179055838352601582528083208f8452909152812084905560609190911b81523690601437366014016000a05050505050505050505050565b60038160108110610eee57600080fd5b0154905081565b60186020528260005260406000206020528160005260406000208181548110610f1d57600080fd5b906000526020600020906004918282040191900660080292509250509054906101000a90046001600160401b031681565b604435600080600883018610610f6c5763fe2549876000526004601cfd5b60c083901b60805260888386823786600882030151915060206000858360025afa905080610f9957600080fd5b50600080516001600160f81b0316600160fa1b178082526002602090815260408084208a85528252808420805460ff191660019081179091558385528252808420998452988152888320939093558152908190529490942055505050565b600080603087600037602060006030600060025afa8061101f5763f91129696000526004601cfd5b6000516001600160f81b0316600160f81b17608081815260a08c905260c08b905260308a60e037603088609083013760008060c083600a5afa92508261106d576309bde3396000526004601cfd5b602886106110835763fe2549876000526004601cfd5b60006028820152600160c51b8152600881018b905285810151935060308a8237603081019b909b52505060509098206001600160f81b0316600560f81b1760008181526002602090815260408083208684528252808320805460ff1916600190811790915584845282528083209583529481528482209a909a559081528089529190912096909655505050505050565b6014602052826000526040600020602052816000526040600020816010811061113b57600080fd5b0154925083915050565b6001600160a01b03891660009081526015602090815260408083208b84529091529020546001600160401b038116156111915760405163c334f06960e01b815260040160405180910390fd5b61119b8160c01c90565b6001600160401b03166000036111c4576040516355d4cbf960e01b815260040160405180910390fd5b7f00000000000000000000000000000000000000000000000000000000000000006111ef8260c01c90565b611202906001600160401b031642612ec8565b11611220576040516355d4cbf960e01b815260040160405180910390fd5b600061122c8b8b610719565b905061124587878360208c013561086161085c8e612c8b565b80156112635750611263848483602089013561086161085c8b612c8b565b611280576040516309bde33960e01b815260040160405180910390fd5b8760400135896040516020016112969190612d3b565b60405160208183030381529060405280519060200120146112ca57604051630cb4548160e11b815260040160405180910390fd5b8460200135886020013560016112e09190612d78565b141580611312575060016112fa8360601c63ffffffff1690565b6113049190612edf565b63ffffffff16856020013514155b1561133057604051639a3b119960e01b815260040160405180910390fd5b61133e8961092d8780612d90565b61134789611bc3565b60006113528a612423565b6001600160f81b0316600160f91b17905060006113758460a01c63ffffffff1690565b6001600160401b03169050600160026000848152602001908152602001600020600083815260200190815260200160002060006101000a81548160ff021916908315150217905550601760008e6001600160a01b03166001600160a01b0316815260200190815260200160002060008d8152602001908152602001600020546001600084815260200190815260200160002060008381526020019081526020016000208190555061142c8460801c63ffffffff1690565b600083815260208190526040902063ffffffff9190911690556114508d8d81612199565b50505050505050505050505050565b6000828152600260209081526040808320848452909152812054819060ff166114c55760405162461bcd60e51b81526020600482015260146024820152731c1c994b5a5b5859d9481b5d5cdd08195e1a5cdd60621b604482015260640160405180910390fd5b50600083815260208181526040909120546114e1816008612d78565b6114ec856020612d78565b1061150a57836114fd826008612d78565b6115079190612ec8565b91505b506000938452600160209081526040808620948652939052919092205492909150565b60443560008060088301861061154b5763fe2549876000526004601cfd5b60c083901b6080526088838682378087016007190151908490206001600160f81b0316600160f91b1760008181526002602090815260408083208b84528252808320805460ff1916600190811790915584845282528083209a83529981528982209390935590815290819052959095209190915550505050565b60008060008060808860601b81528760c01b6014820152858782601c0137601c860181206001600160f81b0316600360f91b179350604088026260216001603f5a02101561161b5763dd629f866000526004601cfd5b6000808783601c018c5afa94503d6001019150600882018a106116465763fe2549876000526004601cfd5b60c082901b81526008018481533d6000600183013e8901600719015160008481526002602090815260408083208d84528252808320805460ff1916600190811790915587845282528083209c83529b81528b8220929092559384528390529790912096909655505050505050565b60006116c08686610719565b90506116d9838383602088013561086161085c8a612c8b565b6116f6576040516309bde33960e01b815260040160405180910390fd5b60208401351561171957604051639a3b119960e01b815260040160405180910390fd5b61172161253d565b61172f8161092d8780612d90565b61173881611bc3565b84604001358160405160200161174e9190612d3b565b604051602081830303815290604052805190602001200361178257604051639843145b60e01b815260040160405180910390fd5b6001600160a01b03871660009081526015602090815260408083208984529091529020805467ffffffffffffffff191660011790556117c2878733612199565b50505050505050565b6703782dace9d900003410156117f45760405163e92c469f60e01b815260040160405180910390fd5b33321461181457604051635d04968b60e11b815260040160405180910390fd5b61181f816008612f04565b63ffffffff168263ffffffff161061184a5760405163fe25498760e01b815260040160405180910390fd5b7f00000000000000000000000000000000000000000000000000000000000000008163ffffffff16101561189157604051637b1dafd160e01b815260040160405180910390fd5b3360009081526015602090815260408083208684529091529020546118bc8160801c63ffffffff1690565b63ffffffff16156118df5760405162dc149f60e41b815260040160405180910390fd5b608082901b63ffffffff60801b1960a085901b1667ffffffffffffffff60801b1983161717336000818152601560209081526040808320898452825280832094909455835180850185528381528082018981526013805460018101825590855291517f66de8ffda797e3de9c05e8fc57b3bf0ec28a930d40b0d285d93c06501cf6a090600290930292830180546001600160a01b0319166001600160a01b03909216919091179055517f66de8ffda797e3de9c05e8fc57b3bf0ec28a930d40b0d285d93c06501cf6a0919091015591815260168252828120968152959052909320349055505050565b60008160000151826020015183604001516040516020016119eb93929190612f2c565b604051602081830303815290604052805190602001209050919050565b60008160005b6010811015611a5c578060051b880135600186831c1660018114611a415760008481526020839052604090209350611a52565b600082815260208590526040902093505b5050600101611a0e565b5090931495945050505050565b6088815114611a7757600080fd5b6020810160208301611af7565b8260031b8201518060001a8160011a60081b178160021a60101b8260031a60181b17178160041a60201b8260051a60281b178260061a60301b8360071a60381b1717179050611af181611add868560059190911b015190565b186001600160401b0316600586901b840152565b50505050565b611b0360008383611a84565b611b0f60018383611a84565b611b1b60028383611a84565b611b2760038383611a84565b611b3360048383611a84565b611b3f60058383611a84565b611b4b60068383611a84565b611b5760078383611a84565b611b6360088383611a84565b611b6f60098383611a84565b611b7b600a8383611a84565b611b87600b8383611a84565b611b93600c8383611a84565b611b9f600d8383611a84565b611bab600e8383611a84565b611bb7600f8383611a84565b611af160108383611a84565b6040805178010000000000008082800000000000808a8000000080008000602082015279808b00000000800000018000000080008081800000000000800991810191909152788a00000000000000880000000080008009000000008000000a60608201527b8000808b800000000000008b8000000000008089800000000000800360808201527f80000000000080028000000000000080000000000000800a800000008000000a60a08201527f800000008000808180000000000080800000000080000001800000008000800860c082015260009060e00160405160208183030381529060405290506020820160208201612079565b600592831b8101516001600160401b03951880851b6040959095031c939093189390931692901b0152565b60148201600590811b820151600f8401821b830151600a8501831b840151838601841b8501519590931b909301519093181891181890565b611d27600082611ce4565b611d32600183611ce4565b611d3d600284611ce4565b611d48600385611ce4565b611d53600486611ce4565b8084603f1c611d6b8660011b6001600160401b031690565b18188584603f1c611d858660011b6001600160401b031690565b18188584603f1c611d9f8660011b6001600160401b031690565b181895508483603f1c611dbb8560011b6001600160401b031690565b181894508387603f1c611dd78960011b6001600160401b031690565b60208b01518b5186186001600160401b03168c5291189190911897508118600181901b603f9190911c189350611e1381602c600660018c611cb9565b611e23876014600960068c611cb9565b611e3386603d601660098c611cb9565b611e43876027600e60168c611cb9565b611e538260126014600e8c611cb9565b611e6386603e600260148c611cb9565b611e7386602b600c60028c611cb9565b611e83856019600d600c8c611cb9565b611e938760086013600d8c611cb9565b611ea3856038601760138c611cb9565b611eb3826029600f60178c611cb9565b611ec387601b6004600f8c611cb9565b611ed387600e601860048c611cb9565b611ee3816002601560188c611cb9565b611ef3856037600860158c611cb9565b611f0381602d601060088c611cb9565b611f13826024600560108c611cb9565b611f2385601c600360058c611cb9565b611f33856015601260038c611cb9565b611f4386600f601160128c611cb9565b611f5381600a600b60118c611cb9565b50611f648560066007600b8b611cb9565b611f74816003600a60078b611cb9565b50506001600160401b0381166101408601525b5050505050565b600582811b8201805160018501831b8401805160028701851b8601805160038901871b8801805160048b0190981b890180516001600160401b03861985168918811690995283198a168618891690965288198616831888169093528419861688188716905284198316841890951690529193919291906117c2565b612014600082611f8e565b61201f600582611f8e565b61202a600a82611f8e565b612035600f82611f8e565b612040601482611f8e565b50565b61204c81611d1c565b61205581612009565b600383901b820151815160c09190911c90611af19082186001600160401b03168352565b61208560008284612043565b61209160018284612043565b61209d60028284612043565b6120a960038284612043565b6120b560048284612043565b6120c160058284612043565b6120cd60068284612043565b6120d960078284612043565b6120e560088284612043565b6120f160098284612043565b6120fd600a8284612043565b612109600b8284612043565b612115600c8284612043565b612121600d8284612043565b61212d600e8284612043565b612139600f8284612043565b61214560108284612043565b61215160118284612043565b61215d60128284612043565b61216960138284612043565b61217560148284612043565b61218160158284612043565b61218d60168284612043565b611af160178284612043565b6001600160a01b0383811660009081526016602090815260408083208684529091528082208054908390559051909284169083908381818185875af1925050503d8060008114612205576040519150601f19603f3d011682016040523d82523d6000602084013e61220a565b606091505b5050905080611f87576040516383e6cc6b60e01b815260040160405180910390fd5b600160f81b6001600160f81b0383161761226a818360408051600093845233602052918152606090922091526001600160f81b0316600160f81b1790565b9392505050565b60606040519050816020820181810182868337608883068080156122ba5760888290038501848101848103803687375060806001820353506001845160001a17845386526122d1565b608836843760018353608060878401536088850186525b5050505050601f19603f82510116810160405292915050565b60006122fc8260a01c63ffffffff1690565b6001600160401b0316905060006123198360801c63ffffffff1690565b63ffffffff16905060006123338460401c63ffffffff1690565b63ffffffff169050600883108015612349575080155b1561237d5760c082901b6000908152883560085283513382526017602090815260408084208a855290915290912055612419565b6008831015801561239b575080612395600885612ec8565b93508310155b80156123af57506123ac8782612d78565b83105b156124195760006123c08285612ec8565b9050876123ce826020612d78565b101580156123da575085155b156123f85760405163fe25498760e01b815260040160405180910390fd5b3360009081526017602090815260408083208a845290915290209089013590555b5050505050505050565b60006124a3565b66ff00ff00ff00ff8160081c1667ff00ff00ff00ff006124538360081b6001600160401b031690565b1617905065ffff0000ffff8160101c1667ffff0000ffff000061247f8360101b6001600160401b031690565b1617905060008160201c61249c8360201b6001600160401b031690565b1792915050565b608082015160208301906124bb9061242a565b61242a565b60408201516124c99061242a565b60401b176124e16124b660018460059190911b015190565b825160809190911b906124f39061242a565b60c01b17179392505050565b826010810192821561252d579160200282015b8281111561252d578251825591602001919060010190612512565b50612539929150612555565b5090565b604051806020016040528061255061256a565b905290565b5b808211156125395760008155600101612556565b6040518061032001604052806019906020820280368337509192915050565b60006020828403121561259b57600080fd5b5035919050565b80356001600160a01b03811681146125b957600080fd5b919050565b600080604083850312156125d157600080fd5b6125da836125a2565b946020939093013593505050565b634e487b7160e01b600052604160045260246000fd5b60405161032081016001600160401b0381118282101715612621576126216125e8565b60405290565b604051606081016001600160401b0381118282101715612621576126216125e8565b604051601f8201601f191681016001600160401b0381118282101715612671576126716125e8565b604052919050565b80356001600160401b03811681146125b957600080fd5b60006103208083850312156126a457600080fd5b60405160208082018281106001600160401b03821117156126c7576126c76125e8565b806040525081935085601f8601126126de57600080fd5b6126e66125fe565b9285019280878511156126f857600080fd5b865b858110156127185761270b81612679565b83529183019183016126fa565b509092525091949350505050565b60006060828403121561273857600080fd5b50919050565b60008083601f84011261275057600080fd5b5081356001600160401b0381111561276757600080fd5b6020830191508360208260051b850101111561278257600080fd5b9250929050565b60008060008060008060008060006103e08a8c0312156127a857600080fd5b6127b18a6125a2565b985060208a013597506127c78b60408c01612690565b96506103608a01356001600160401b03808211156127e457600080fd5b6127f08d838e01612726565b97506103808c013591508082111561280757600080fd5b6128138d838e0161273e565b90975095506103a08c013591508082111561282d57600080fd5b6128398d838e01612726565b94506103c08c013591508082111561285057600080fd5b5061285d8c828d0161273e565b915080935050809150509295985092959850929598565b600080600080600060a0868803121561288c57600080fd5b505083359560208501359550604085013594606081013594506080013592509050565b60005b838110156128ca5781810151838201526020016128b2565b83811115611af15750506000910152565b60208152600082518060208401526128fa8160408501602087016128af565b601f01601f19169190910160400192915050565b6000806040838503121561292157600080fd5b50508035926020909101359150565b60008083601f84011261294257600080fd5b5081356001600160401b0381111561295957600080fd5b60208301915083602082850101111561278257600080fd5b600080600080600080600060a0888a03121561298c57600080fd5b873596506020880135955060408801356001600160401b03808211156129b157600080fd5b6129bd8b838c01612930565b909750955060608a01359150808211156129d657600080fd5b506129e38a828b0161273e565b909450925050608088013580151581146129fc57600080fd5b8091505092959891949750929550565b600080600060608486031215612a2157600080fd5b612a2a846125a2565b95602085013595506040909401359392505050565b600080600060408486031215612a5457600080fd5b8335925060208401356001600160401b03811115612a7157600080fd5b612a7d86828701612930565b9497909650939450505050565b600080600080600080600060a0888a031215612aa557600080fd5b873596506020880135955060408801356001600160401b0380821115612aca57600080fd5b612ad68b838c01612930565b909750955060608a0135915080821115612aef57600080fd5b50612afc8a828b01612930565b989b979a50959894979596608090950135949350505050565b600080600080600060808688031215612b2d57600080fd5b85359450612b3d602087016125a2565b9350612b4b60408701612679565b925060608601356001600160401b03811115612b6657600080fd5b612b7288828901612930565b969995985093965092949392505050565b600080600080600060808688031215612b9b57600080fd5b612ba4866125a2565b94506020860135935060408601356001600160401b0380821115612bc757600080fd5b612bd389838a01612726565b94506060880135915080821115612be957600080fd5b50612b728882890161273e565b803563ffffffff811681146125b957600080fd5b600080600060608486031215612c1f57600080fd5b83359250612c2f60208501612bf6565b9150612c3d60408501612bf6565b90509250925092565b634e487b7160e01b600052603260045260246000fd5b634e487b7160e01b600052601160045260246000fd5b600060018201612c8457612c84612c5c565b5060010190565b600060608236031215612c9d57600080fd5b612ca5612627565b82356001600160401b0380821115612cbc57600080fd5b9084019036601f830112612ccf57600080fd5b8135602082821115612ce357612ce36125e8565b612cf5601f8301601f19168201612649565b92508183523681838601011115612d0b57600080fd5b81818501828501376000918301810191909152908352848101359083015250604092830135928101929092525090565b81516103208201908260005b6019811015612d6f5782516001600160401b0316825260209283019290910190600101612d47565b50505092915050565b60008219821115612d8b57612d8b612c5c565b500190565b6000808335601e19843603018112612da757600080fd5b8301803591506001600160401b03821115612dc157600080fd5b60200191503681900382131561278257600080fd5b600181815b80851115612e11578160001904821115612df757612df7612c5c565b80851615612e0457918102915b93841c9390800290612ddb565b509250929050565b600082612e2857506001612eb6565b81612e3557506000612eb6565b8160018114612e4b5760028114612e5557612e71565b6001915050612eb6565b60ff841115612e6657612e66612c5c565b50506001821b612eb6565b5060208310610133831016604e8410600b8410161715612e94575081810a612eb6565b612e9e8383612dd6565b8060001904821115612eb257612eb2612c5c565b0290505b92915050565b600061226a8383612e19565b600082821015612eda57612eda612c5c565b500390565b600063ffffffff83811690831681811015612efc57612efc612c5c565b039392505050565b600063ffffffff808316818516808303821115612f2357612f23612c5c565b01949350505050565b60008451612f3e8184602089016128af565b9190910192835250602082015260400191905056fea164736f6c634300080f000a","linkReferences":{}},"methodIdentifiers":{"KECCAK_TREE_DEPTH()":"2055b36b","MAX_LEAF_COUNT()":"4d52b4c9","MIN_BOND_SIZE()":"7051472e","PRECOMPILE_CALL_RESERVED_GAS()":"b5e7154c","addLeavesLPP(uint256,uint256,bytes,bytes32[],bool)":"7917de1d","challengeFirstLPP(address,uint256,(bytes,uint256,bytes32),bytes32[])":"ec5efcbc","challengeLPP(address,uint256,(uint64[25]),(bytes,uint256,bytes32),bytes32[],(bytes,uint256,bytes32),bytes32[])":"3909af5c","challengePeriod()":"f3f480d9","getTreeRootLPP(address,uint256)":"0359a563","initLPP(uint256,uint32,uint32)":"faf37bc7","loadBlobPreimagePart(uint256,uint256,bytes,bytes,uint256)":"9d7e8769","loadKeccak256PreimagePart(uint256,bytes)":"e1592611","loadLocalData(uint256,bytes32,bytes32,uint256,uint256)":"52f0f3ad","loadPrecompilePreimagePart(uint256,address,uint64,bytes)":"ea713950","loadSha256PreimagePart(uint256,bytes)":"8dc4be11","minProposalSize()":"dd24f9bf","preimageLengths(bytes32)":"fef2b4ed","preimagePartOk(bytes32,uint256)":"8542cf50","preimageParts(bytes32,uint256)":"61238bde","proposalBlocks(address,uint256,uint256)":"882856ef","proposalBlocksLen(address,uint256)":"9d53a648","proposalBonds(address,uint256)":"ddcd58de","proposalBranches(address,uint256,uint256)":"b4801e61","proposalCount()":"da35c664","proposalMetadata(address,uint256)":"6551927b","proposalParts(address,uint256)":"b2e67ba8","proposals(uint256)":"013cf08b","readPreimage(bytes32,uint256)":"e03110e1","squeezeLPP(address,uint256,(uint64[25]),(bytes,uint256,bytes32),bytes32[],(bytes,uint256,bytes32),bytes32[])":"d18534b5","version()":"54fd4d50","zeroHashes(uint256)":"7ac54767"},"id":216}