{"abi":[{"type":"constructor","inputs":[],"stateMutability":"nonpayable"},{"type":"function","name":"GUARDIAN_SLOT","inputs":[],"outputs":[{"name":"","type":"bytes32","internalType":"bytes32"}],"stateMutability":"view"},{"type":"function","name":"PAUSED_SLOT","inputs":[],"outputs":[{"name":"","type":"bytes32","internalType":"bytes32"}],"stateMutability":"view"},{"type":"function","name":"guardian","inputs":[],"outputs":[{"name":"guardian_","type":"address","internalType":"address"}],"stateMutability":"view"},{"type":"function","name":"initialize","inputs":[{"name":"_guardian","type":"address","internalType":"address"},{"name":"_paused","type":"bool","internalType":"bool"}],"outputs":[],"stateMutability":"nonpayable"},{"type":"function","name":"pause","inputs":[{"name":"_identifier","type":"string","internalType":"string"}],"outputs":[],"stateMutability":"nonpayable"},{"type":"function","name":"paused","inputs":[],"outputs":[{"name":"paused_","type":"bool","internalType":"bool"}],"stateMutability":"view"},{"type":"function","name":"unpause","inputs":[],"outputs":[],"stateMutability":"nonpayable"},{"type":"function","name":"version","inputs":[],"outputs":[{"name":"","type":"string","internalType":"string"}],"stateMutability":"view"},{"type":"event","name":"ConfigUpdate","inputs":[{"name":"updateType","type":"uint8","indexed":true,"internalType":"enum SuperchainConfig.UpdateType"},{"name":"data","type":"bytes","indexed":false,"internalType":"bytes"}],"anonymous":false},{"type":"event","name":"Initialized","inputs":[{"name":"version","type":"uint8","indexed":false,"internalType":"uint8"}],"anonymous":false},{"type":"event","name":"Paused","inputs":[{"name":"identifier","type":"string","indexed":false,"internalType":"string"}],"anonymous":false},{"type":"event","name":"Unpaused","inputs":[],"anonymous":false}],"bytecode":{"object":"0x60806040523480156200001157600080fd5b506200001f60008062000025565b62000361565b600054610100900460ff1615808015620000465750600054600160ff909116105b8062000076575062000063306200019460201b620004881760201c565b15801562000076575060005460ff166001145b620000de5760405162461bcd60e51b815260206004820152602e60248201527f496e697469616c697a61626c653a20636f6e747261637420697320616c72656160448201526d191e481a5b9a5d1a585b1a5e995960921b606482015260840160405180910390fd5b6000805460ff19166001179055801562000102576000805461ff0019166101001790555b6200010d83620001a3565b81156200014857604080518082019091526012815271125b9a5d1a585b1a5e995c881c185d5cd95960721b6020820152620001489062000248565b80156200018f576000805461ff0019169055604051600181527f7f26b83ff96e1f2b6a682f133852f6798a09c465da95921460cefb38474024989060200160405180910390a15b505050565b6001600160a01b03163b151590565b620001e9620001d460017fd30e835d3f35624761057ff5b27d558f97bd5be034621e62240e5c0b784abe69620002cf565b60001b82620002cb60201b620004971760201c565b6000604080516001600160a01b03841660208201527f7b743789cff01dafdeae47739925425aab5dfd02d0c8229e4a508bcd2b9f42bb910160408051601f19818403018152908290526200023d9162000345565b60405180910390a250565b6200028f6200027960017f54176ff9944c4784e5857ec4e5ef560a462c483bf534eda43f91bb01a470b1b7620002cf565b60001b6001620002cb60201b620004971760201c565b7fc32e6d5d6d1de257f64eac19ddb1f700ba13527983849c9486b1ab007ea2838181604051620002c0919062000345565b60405180910390a150565b9055565b600082821015620002f057634e487b7160e01b600052601160045260246000fd5b500390565b6000815180845260005b818110156200031d57602081850181015186830182015201620002ff565b8181111562000330576000602083870101525b50601f01601f19169290920160200192915050565b6020815260006200035a6020830184620002f5565b9392505050565b61075180620003716000396000f3fe608060405234801561001057600080fd5b50600436106100885760003560e01c80635c975abb1161005b5780635c975abb146101005780636da66355146101185780637fbf7b6a1461012b578063c23a451a1461014157600080fd5b80633f4ba83a1461008d578063400ada7514610097578063452a9320146100aa57806354fd4d50146100cf575b600080fd5b610095610149565b005b6100956100a5366004610587565b610217565b6100b2610364565b6040516001600160a01b0390911681526020015b60405180910390f35b6100f3604051806040016040528060058152602001640312e312e360dc1b81525081565b6040516100c6919061061e565b61010861039d565b60405190151581526020016100c6565b61009561012636600461064e565b6103bb565b610133610441565b6040519081526020016100c6565b61013361045d565b610151610364565b6001600160a01b0316336001600160a01b0316146101ca5760405162461bcd60e51b815260206004820152602b60248201527f5375706572636861696e436f6e6669673a206f6e6c7920677561726469616e2060448201526a63616e20756e706175736560a81b60648201526084015b60405180910390fd5b6101ec6101e660016000805160206107258339815191526106ff565b60009055565b6040517fa45f47fdea8a1efdd9029a5691c7f759c32b7c698632b563573e155625d1693390600090a1565b600054610100900460ff16158080156102375750600054600160ff909116105b806102515750303b158015610251575060005460ff166001145b6102b45760405162461bcd60e51b815260206004820152602e60248201527f496e697469616c697a61626c653a20636f6e747261637420697320616c72656160448201526d191e481a5b9a5d1a585b1a5e995960921b60648201526084016101c1565b6000805460ff1916600117905580156102d7576000805461ff0019166101001790555b6102e08361049b565b81156103195761031960405180604001604052806012815260200171125b9a5d1a585b1a5e995c881c185d5cd95960721b81525061052b565b801561035f576000805461ff0019169055604051600181527f7f26b83ff96e1f2b6a682f133852f6798a09c465da95921460cefb38474024989060200160405180910390a15b505050565b600061039861039460017fd30e835d3f35624761057ff5b27d558f97bd5be034621e62240e5c0b784abe696106ff565b5490565b905090565b600061039861039460016000805160206107258339815191526106ff565b6103c3610364565b6001600160a01b0316336001600160a01b0316146104355760405162461bcd60e51b815260206004820152602960248201527f5375706572636861696e436f6e6669673a206f6e6c7920677561726469616e2060448201526863616e20706175736560b81b60648201526084016101c1565b61043e8161052b565b50565b61045a60016000805160206107258339815191526106ff565b81565b61045a60017fd30e835d3f35624761057ff5b27d558f97bd5be034621e62240e5c0b784abe696106ff565b6001600160a01b03163b151590565b9055565b6104ce6104c960017fd30e835d3f35624761057ff5b27d558f97bd5be034621e62240e5c0b784abe696106ff565b829055565b6000604080516001600160a01b03841660208201527f7b743789cff01dafdeae47739925425aab5dfd02d0c8229e4a508bcd2b9f42bb910160408051601f19818403018152908290526105209161061e565b60405180910390a250565b61054d61054760016000805160206107258339815191526106ff565b60019055565b7fc32e6d5d6d1de257f64eac19ddb1f700ba13527983849c9486b1ab007ea283818160405161057c919061061e565b60405180910390a150565b6000806040838503121561059a57600080fd5b82356001600160a01b03811681146105b157600080fd5b9150602083013580151581146105c657600080fd5b809150509250929050565b6000815180845260005b818110156105f7576020818501810151868301820152016105db565b81811115610609576000602083870101525b50601f01601f19169290920160200192915050565b60208152600061063160208301846105d1565b9392505050565b634e487b7160e01b600052604160045260246000fd5b60006020828403121561066057600080fd5b813567ffffffffffffffff8082111561067857600080fd5b818401915084601f83011261068c57600080fd5b81358181111561069e5761069e610638565b604051601f8201601f19908116603f011681019083821181831017156106c6576106c6610638565b816040528281528760208487010111156106df57600080fd5b826020860160208301376000928101602001929092525095945050505050565b60008282101561071f57634e487b7160e01b600052601160045260246000fd5b50039056fe54176ff9944c4784e5857ec4e5ef560a462c483bf534eda43f91bb01a470b1b7a164736f6c634300080f000a","linkReferences":{}},"methodIdentifiers":{"GUARDIAN_SLOT()":"c23a451a","PAUSED_SLOT()":"7fbf7b6a","guardian()":"452a9320","initialize(address,bool)":"400ada75","pause(string)":"6da66355","paused()":"5c975abb","unpause()":"3f4ba83a","version()":"54fd4d50"},"id":176}