{"abi":[{"type":"constructor","inputs":[],"stateMutability":"nonpayable"},{"type":"function","name":"BATCH_INBOX_SLOT","inputs":[],"outputs":[{"name":"","type":"bytes32","internalType":"bytes32"}],"stateMutability":"view"},{"type":"function","name":"DISPUTE_GAME_FACTORY_SLOT","inputs":[],"outputs":[{"name":"","type":"bytes32","internalType":"bytes32"}],"stateMutability":"view"},{"type":"function","name":"L1_CROSS_DOMAIN_MESSENGER_SLOT","inputs":[],"outputs":[{"name":"","type":"bytes32","internalType":"bytes32"}],"stateMutability":"view"},{"type":"function","name":"L1_ERC_721_BRIDGE_SLOT","inputs":[],"outputs":[{"name":"","type":"bytes32","internalType":"bytes32"}],"stateMutability":"view"},{"type":"function","name":"L1_STANDARD_BRIDGE_SLOT","inputs":[],"outputs":[{"name":"","type":"bytes32","internalType":"bytes32"}],"stateMutability":"view"},{"type":"function","name":"NATIVE_TOKEN_ADDRESS_SLOT","inputs":[],"outputs":[{"name":"","type":"bytes32","internalType":"bytes32"}],"stateMutability":"view"},{"type":"function","name":"OPTIMISM_MINTABLE_ERC20_FACTORY_SLOT","inputs":[],"outputs":[{"name":"","type":"bytes32","internalType":"bytes32"}],"stateMutability":"view"},{"type":"function","name":"OPTIMISM_PORTAL_SLOT","inputs":[],"outputs":[{"name":"","type":"bytes32","internalType":"bytes32"}],"stateMutability":"view"},{"type":"function","name":"START_BLOCK_SLOT","inputs":[],"outputs":[{"name":"","type":"bytes32","internalType":"bytes32"}],"stateMutability":"view"},{"type":"function","name":"UNSAFE_BLOCK_SIGNER_SLOT","inputs":[],"outputs":[{"name":"","type":"bytes32","internalType":"bytes32"}],"stateMutability":"view"},{"type":"function","name":"VERSION","inputs":[],"outputs":[{"name":"","type":"uint256","internalType":"uint256"}],"stateMutability":"view"},{"type":"function","name":"basefeeScalar","inputs":[],"outputs":[{"name":"","type":"uint32","internalType":"uint32"}],"stateMutability":"view"},{"type":"function","name":"batchInbox","inputs":[],"outputs":[{"name":"addr_","type":"address","internalType":"address"}],"stateMutability":"view"},{"type":"function","name":"batcherHash","inputs":[],"outputs":[{"name":"","type":"bytes32","internalType":"bytes32"}],"stateMutability":"view"},{"type":"function","name":"blobbasefeeScalar","inputs":[],"outputs":[{"name":"","type":"uint32","internalType":"uint32"}],"stateMutability":"view"},{"type":"function","name":"disputeGameFactory","inputs":[],"outputs":[{"name":"addr_","type":"address","internalType":"address"}],"stateMutability":"view"},{"type":"function","name":"gasLimit","inputs":[],"outputs":[{"name":"","type":"uint64","internalType":"uint64"}],"stateMutability":"view"},{"type":"function","name":"gasPayingToken","inputs":[],"outputs":[{"name":"addr_","type":"address","internalType":"address"},{"name":"decimals_","type":"uint8","internalType":"uint8"}],"stateMutability":"view"},{"type":"function","name":"gasPayingTokenName","inputs":[],"outputs":[{"name":"name_","type":"string","internalType":"string"}],"stateMutability":"view"},{"type":"function","name":"gasPayingTokenSymbol","inputs":[],"outputs":[{"name":"symbol_","type":"string","internalType":"string"}],"stateMutability":"view"},{"type":"function","name":"initialize","inputs":[{"name":"_owner","type":"address","internalType":"address"},{"name":"_basefeeScalar","type":"uint32","internalType":"uint32"},{"name":"_blobbasefeeScalar","type":"uint32","internalType":"uint32"},{"name":"_batcherHash","type":"bytes32","internalType":"bytes32"},{"name":"_gasLimit","type":"uint64","internalType":"uint64"},{"name":"_unsafeBlockSigner","type":"address","internalType":"address"},{"name":"_config","type":"tuple","internalType":"struct ResourceMetering.ResourceConfig","components":[{"name":"maxResourceLimit","type":"uint32","internalType":"uint32"},{"name":"elasticityMultiplier","type":"uint8","internalType":"uint8"},{"name":"baseFeeMaxChangeDenominator","type":"uint8","internalType":"uint8"},{"name":"minimumBaseFee","type":"uint32","internalType":"uint32"},{"name":"systemTxMaxGas","type":"uint32","internalType":"uint32"},{"name":"maximumBaseFee","type":"uint128","internalType":"uint128"}]},{"name":"_batchInbox","type":"address","internalType":"address"},{"name":"_addresses","type":"tuple","internalType":"struct SystemConfig.Addresses","components":[{"name":"l1CrossDomainMessenger","type":"address","internalType":"address"},{"name":"l1ERC721Bridge","type":"address","internalType":"address"},{"name":"l1StandardBridge","type":"address","internalType":"address"},{"name":"disputeGameFactory","type":"address","internalType":"address"},{"name":"optimismPortal","type":"address","internalType":"address"},{"name":"optimismMintableERC20Factory","type":"address","internalType":"address"},{"name":"gasPayingToken","type":"address","internalType":"address"},{"name":"nativeTokenAddress","type":"address","internalType":"address"}]}],"outputs":[],"stateMutability":"nonpayable"},{"type":"function","name":"isCustomGasToken","inputs":[],"outputs":[{"name":"","type":"bool","internalType":"bool"}],"stateMutability":"view"},{"type":"function","name":"l1CrossDomainMessenger","inputs":[],"outputs":[{"name":"addr_","type":"address","internalType":"address"}],"stateMutability":"view"},{"type":"function","name":"l1ERC721Bridge","inputs":[],"outputs":[{"name":"addr_","type":"address","internalType":"address"}],"stateMutability":"view"},{"type":"function","name":"l1StandardBridge","inputs":[],"outputs":[{"name":"addr_","type":"address","internalType":"address"}],"stateMutability":"view"},{"type":"function","name":"maximumGasLimit","inputs":[],"outputs":[{"name":"","type":"uint64","internalType":"uint64"}],"stateMutability":"pure"},{"type":"function","name":"minimumGasLimit","inputs":[],"outputs":[{"name":"","type":"uint64","internalType":"uint64"}],"stateMutability":"view"},{"type":"function","name":"nativeTokenAddress","inputs":[],"outputs":[{"name":"addr_","type":"address","internalType":"address"}],"stateMutability":"view"},{"type":"function","name":"optimismMintableERC20Factory","inputs":[],"outputs":[{"name":"addr_","type":"address","internalType":"address"}],"stateMutability":"view"},{"type":"function","name":"optimismPortal","inputs":[],"outputs":[{"name":"addr_","type":"address","internalType":"address"}],"stateMutability":"view"},{"type":"function","name":"overhead","inputs":[],"outputs":[{"name":"","type":"uint256","internalType":"uint256"}],"stateMutability":"view"},{"type":"function","name":"owner","inputs":[],"outputs":[{"name":"","type":"address","internalType":"address"}],"stateMutability":"view"},{"type":"function","name":"renounceOwnership","inputs":[],"outputs":[],"stateMutability":"nonpayable"},{"type":"function","name":"resourceConfig","inputs":[],"outputs":[{"name":"","type":"tuple","internalType":"struct ResourceMetering.ResourceConfig","components":[{"name":"maxResourceLimit","type":"uint32","internalType":"uint32"},{"name":"elasticityMultiplier","type":"uint8","internalType":"uint8"},{"name":"baseFeeMaxChangeDenominator","type":"uint8","internalType":"uint8"},{"name":"minimumBaseFee","type":"uint32","internalType":"uint32"},{"name":"systemTxMaxGas","type":"uint32","internalType":"uint32"},{"name":"maximumBaseFee","type":"uint128","internalType":"uint128"}]}],"stateMutability":"view"},{"type":"function","name":"scalar","inputs":[],"outputs":[{"name":"","type":"uint256","internalType":"uint256"}],"stateMutability":"view"},{"type":"function","name":"setBatcherHash","inputs":[{"name":"_batcherHash","type":"bytes32","internalType":"bytes32"}],"outputs":[],"stateMutability":"nonpayable"},{"type":"function","name":"setGasConfig","inputs":[{"name":"_overhead","type":"uint256","internalType":"uint256"},{"name":"_scalar","type":"uint256","internalType":"uint256"}],"outputs":[],"stateMutability":"nonpayable"},{"type":"function","name":"setGasConfigEcotone","inputs":[{"name":"_basefeeScalar","type":"uint32","internalType":"uint32"},{"name":"_blobbasefeeScalar","type":"uint32","internalType":"uint32"}],"outputs":[],"stateMutability":"nonpayable"},{"type":"function","name":"setGasLimit","inputs":[{"name":"_gasLimit","type":"uint64","internalType":"uint64"}],"outputs":[],"stateMutability":"nonpayable"},{"type":"function","name":"setUnsafeBlockSigner","inputs":[{"name":"_unsafeBlockSigner","type":"address","internalType":"address"}],"outputs":[],"stateMutability":"nonpayable"},{"type":"function","name":"startBlock","inputs":[],"outputs":[{"name":"startBlock_","type":"uint256","internalType":"uint256"}],"stateMutability":"view"},{"type":"function","name":"transferOwnership","inputs":[{"name":"newOwner","type":"address","internalType":"address"}],"outputs":[],"stateMutability":"nonpayable"},{"type":"function","name":"unsafeBlockSigner","inputs":[],"outputs":[{"name":"addr_","type":"address","internalType":"address"}],"stateMutability":"view"},{"type":"function","name":"version","inputs":[],"outputs":[{"name":"","type":"string","internalType":"string"}],"stateMutability":"pure"},{"type":"event","name":"ConfigUpdate","inputs":[{"name":"version","type":"uint256","indexed":true,"internalType":"uint256"},{"name":"updateType","type":"uint8","indexed":true,"internalType":"enum SystemConfig.UpdateType"},{"name":"data","type":"bytes","indexed":false,"internalType":"bytes"}],"anonymous":false},{"type":"event","name":"Initialized","inputs":[{"name":"version","type":"uint8","indexed":false,"internalType":"uint8"}],"anonymous":false},{"type":"event","name":"OwnershipTransferred","inputs":[{"name":"previousOwner","type":"address","indexed":true,"internalType":"address"},{"name":"newOwner","type":"address","indexed":true,"internalType":"address"}],"anonymous":false}],"bytecode":{"object":"0x60806040523480156200001157600080fd5b506200004962000032600160008051602062002b4b83398151915262000d55565b60001b600019620000d960201b62000e0c1760201c565b6040805160c080820183526001808352602080840182905260028486015260006060808601829052608080870183905260a0808801849052885161010081018a52848152948501849052978401839052908301829052820181905294810185905291820184905260e08201849052620000d39361dead9390928392839290918391908290620000dd565b62000e78565b9055565b600054610100900460ff1615808015620000fe5750600054600160ff909116105b806200012e57506200011b306200053960201b62000e101760201c565b1580156200012e575060005460ff166001145b620001975760405162461bcd60e51b815260206004820152602e60248201527f496e697469616c697a61626c653a20636f6e747261637420697320616c72656160448201526d191e481a5b9a5d1a585b1a5e995960921b60648201526084015b60405180910390fd5b6000805460ff191660011790558015620001bb576000805461ff0019166101001790555b620001c562000548565b620001d08a620005b0565b620001db876200062f565b620001e7898962000681565b620001f28662000748565b620002297f65a7ed542fb37fe237fdfbdd70b31598523fe5b32879e307bae27a0bd9581c0886620000d960201b62000e0c1760201c565b6200026f6200025a60017f71ac12829d66ee73d8d95bff50b3589745ce57edae70a3fb111a2342464dc59862000d55565b60001b84620000d960201b62000e0c1760201c565b620002b9620002a060017f383f291819e6d54073bc9a648251d97421076bdd101933c0c022219ce958063762000d55565b60001b8360000151620000d960201b62000e0c1760201c565b62000303620002ea60017f46adcbebc6be8ce551740c29c47c8798210f23f7f4086c41752944352568d5a862000d55565b60001b8360200151620000d960201b62000e0c1760201c565b6200034d6200033460017f9904ba90dde5696cda05c9e0dab5cbaa0fea005ace4d11218a02ac668dad637762000d55565b60001b8360400151620000d960201b62000e0c1760201c565b620003976200037e60017f52322a25d9f59ea17656545543306b7aef62bc0cc53a0e65ccfa0c75b97aa90762000d55565b60001b8360600151620000d960201b62000e0c1760201c565b620003e1620003c860017f4b6c74f9e688cb39801f2112c14a8c57232a3fc5202e1444126d4bce86eb19ad62000d55565b60001b8360800151620000d960201b62000e0c1760201c565b6200042b6200041260017fa04c5bb938ca6fc46d95553abf0a76345ce3e722a30bf4f74928b8e7d852320d62000d55565b60001b8360a00151620000d960201b62000e0c1760201c565b620004756200045c60017fe1e3a95fb10ed56538cc130c2250de9823e7716d1142b8521655d7f7317b8ef162000d55565b60001b8360e00151620000d960201b62000e0c1760201c565b6200047f62000844565b6200048a84620008b5565b6200049462000bf9565b6001600160401b0316866001600160401b03161015620004e65760405162461bcd60e51b815260206004820152601f602482015260008051602062002aeb83398151915260448201526064016200018e565b80156200052d576000805461ff0019169055604051600181527f7f26b83ff96e1f2b6a682f133852f6798a09c465da95921460cefb38474024989060200160405180910390a15b50505050505050505050565b6001600160a01b03163b151590565b600054610100900460ff16620005a45760405162461bcd60e51b815260206004820152602b602482015260008051602062002b2b83398151915260448201526a6e697469616c697a696e6760a81b60648201526084016200018e565b620005ae62000c26565b565b620005ba62000c8d565b6001600160a01b038116620006215760405162461bcd60e51b815260206004820152602660248201527f4f776e61626c653a206e6577206f776e657220697320746865207a65726f206160448201526564647265737360d01b60648201526084016200018e565b6200062c8162000ce9565b50565b60678190556040805160208082018490528251808303909101815290820190915260005b600060008051602062002b0b8339815191528360405162000675919062000d6f565b60405180910390a35050565b60688054600160401b600160801b0319166801000000000000000063ffffffff85811691820263ffffffff60601b1916929092176c010000000000000000000000009285169290920291909117909155600160f81b602083811b67ffffffff0000000016909217176066819055606554604080519384019190915282015260009060600160408051601f1981840301815291905290506001600060008051602062002b0b833981519152836040516200073b919062000d6f565b60405180910390a3505050565b6200075262000bf9565b6001600160401b0316816001600160401b03161015620007a45760405162461bcd60e51b815260206004820152601f602482015260008051602062002aeb83398151915260448201526064016200018e565b630bebc2006001600160401b0382161115620008035760405162461bcd60e51b815260206004820181905260248201527f53797374656d436f6e6669673a20676173206c696d697420746f6f206869676860448201526064016200018e565b606880546001600160401b0319166001600160401b038316908117909155604080516020808201939093528151808203909301835281019052600262000653565b6200087862000864600160008051602062002b4b83398151915262000d55565b60001b62000d3b60201b62000e1f1760201c565b600003620005ae57620005ae620008a0600160008051602062002b4b83398151915262000d55565b60001b43620000d960201b62000e0c1760201c565b8060a001516001600160801b0316816060015163ffffffff161115620009445760405162461bcd60e51b815260206004820152603560248201527f53797374656d436f6e6669673a206d696e206261736520666565206d7573742060448201527f6265206c657373207468616e206d61782062617365000000000000000000000060648201526084016200018e565b6001816040015160ff1611620009b55760405162461bcd60e51b815260206004820152602f60248201527f53797374656d436f6e6669673a2064656e6f6d696e61746f72206d757374206260448201526e65206c6172676572207468616e203160881b60648201526084016200018e565b606854608082015182516001600160401b0390921691620009d7919062000dc7565b63ffffffff16111562000a1c5760405162461bcd60e51b815260206004820152601f602482015260008051602062002aeb83398151915260448201526064016200018e565b6000816020015160ff161162000a8d5760405162461bcd60e51b815260206004820152602f60248201527f53797374656d436f6e6669673a20656c6173746963697479206d756c7469706c60448201526e06965722063616e6e6f74206265203608c1b60648201526084016200018e565b8051602082015163ffffffff82169160ff9091169062000aaf90829062000df2565b62000abb919062000e24565b63ffffffff161462000b365760405162461bcd60e51b815260206004820152603760248201527f53797374656d436f6e6669673a20707265636973696f6e206c6f73732077697460448201527f6820746172676574207265736f75726365206c696d697400000000000000000060648201526084016200018e565b805160698054602084015160408501516060860151608087015160a09097015163ffffffff96871664ffffffffff199095169490941764010000000060ff948516021764ffffffffff60281b191665010000000000939092169290920263ffffffff60301b19161766010000000000009185169190910217600160501b600160f01b0319166a01000000000000000000009390941692909202600160701b600160f01b03191692909217600160701b6001600160801b0390921691909102179055565b60695460009062000c219063ffffffff6a010000000000000000000082048116911662000e53565b905090565b600054610100900460ff1662000c825760405162461bcd60e51b815260206004820152602b602482015260008051602062002b2b83398151915260448201526a6e697469616c697a696e6760a81b60648201526084016200018e565b620005ae3362000ce9565b6033546001600160a01b03163314620005ae5760405162461bcd60e51b815260206004820181905260248201527f4f776e61626c653a2063616c6c6572206973206e6f7420746865206f776e657260448201526064016200018e565b603380546001600160a01b038381166001600160a01b0319831681179093556040519116919082907f8be0079c531659141344cd1fd0a4f28419497f9722a3daafe3b4186f6b6457e090600090a35050565b5490565b634e487b7160e01b600052601160045260246000fd5b60008282101562000d6a5762000d6a62000d3f565b500390565b600060208083528351808285015260005b8181101562000d9e5785810183015185820160400152820162000d80565b8181111562000db1576000604083870101525b50601f01601f1916929092016040019392505050565b600063ffffffff80831681851680830382111562000de95762000de962000d3f565b01949350505050565b600063ffffffff8084168062000e1857634e487b7160e01b600052601260045260246000fd5b92169190910492915050565b600063ffffffff8083168185168183048111821515161562000e4a5762000e4a62000d3f565b02949350505050565b60006001600160401b0382811684821680830382111562000de95762000de962000d3f565b611c638062000e886000396000f3fe608060405234801561001057600080fd5b50600436106102745760003560e01c8063935f029e11610151578063e0e2016d116100c3578063f2fde38b11610087578063f2fde38b146105db578063f45e65d8146105ee578063f68016b7146105f7578063f8c68de01461060a578063fd32aa0f14610612578063ffa1ad741461061a57600080fd5b8063e0e2016d146105a3578063e2a3285c146105ab578063e81b2c6d146105b3578063ec707517146105bc578063f2b4e617146105d357600080fd5b8063bfb14fb711610115578063bfb14fb71461043c578063c4e8ddfa14610468578063c9b26f6114610470578063cc731b0214610483578063d844471514610593578063dac6e63a1461059b57600080fd5b8063935f029e146103fe5780639b7d7f0a14610411578063a711986914610419578063b40a817c14610421578063bc49ce5f1461043457600080fd5b806348cd4cb1116101ea57806354fd4d50116101ae57806354fd4d501461039c578063550fcdc9146103cd5780635d73369c146103d5578063697844c6146103dd578063715018a6146103e55780638da5cb5b146103ed57600080fd5b806348cd4cb11461035c5780634add321d146103645780634d0047ee1461036c5780634f16540b1461037457806353d794be1461038957600080fd5b806318d139181161023c57806318d13918146102e357806319f5cea8146102f85780631fd19ee114610300578063213268491461030857806321d7fde5146103205780634397dfef1461033357600080fd5b806306c9265714610279578063078f29cf146102945780630a49cb03146102b45780630ae14b1b146102bc5780630c18c162146102da575b600080fd5b610281610622565b6040519081526020015b60405180910390f35b61029c610650565b6040516001600160a01b03909116815260200161028b565b61029c610689565b630bebc2005b6040516001600160401b03909116815260200161028b565b61028160655481565b6102f66102f1366004611746565b6106b9565b005b6102816106cd565b61029c6106f8565b610310610710565b604051901515815260200161028b565b6102f661032e36600461177c565b610742565b61033b610758565b604080516001600160a01b03909316835260ff90911660208301520161028b565b61028161076c565b6102c261078a565b61029c6107a9565b610281600080516020611c1783398151915281565b6102f66103973660046118e2565b6107d9565b60408051808201909152600c81526b191719971816b132ba30971960a11b60208201525b60405161028b9190611a57565b6103c0610b2f565b610281610b39565b610281610b64565b6102f6610b8f565b6033546001600160a01b031661029c565b6102f661040c366004611a6a565b610ba3565b61029c610bb5565b61029c610be5565b6102f661042f366004611a8c565b610c15565b610281610c26565b60685461045390600160401b900463ffffffff1681565b60405163ffffffff909116815260200161028b565b61029c610c51565b6102f661047e366004611aa7565b610c81565b61052c6040805160c081018252600080825260208201819052918101829052606081018290526080810182905260a0810191909152506040805160c08101825260695463ffffffff8082168352640100000000820460ff908116602085015265010000000000830416938301939093526601000000000000810483166060830152600160501b81049092166080820152600160701b9091046001600160801b031660a082015290565b60405161028b9190600060c08201905063ffffffff80845116835260ff602085015116602084015260ff6040850151166040840152806060850151166060840152806080850151166080840152506001600160801b0360a08401511660a083015292915050565b6103c0610c92565b61029c610c9c565b610281610ccc565b610281610ce5565b61028160675481565b60685461045390600160601b900463ffffffff1681565b61029c610d10565b6102f66105e9366004611746565b610d40565b61028160665481565b6068546102c2906001600160401b031681565b610281610db6565b610281610de1565b610281600081565b61064d60017fa04c5bb938ca6fc46d95553abf0a76345ce3e722a30bf4f74928b8e7d852320d611ad6565b81565b600061068461068060017f9904ba90dde5696cda05c9e0dab5cbaa0fea005ace4d11218a02ac668dad6377611ad6565b5490565b905090565b600061068461068060017f4b6c74f9e688cb39801f2112c14a8c57232a3fc5202e1444126d4bce86eb19ad611ad6565b6106c1610e23565b6106ca81610e7d565b50565b61064d60017f46adcbebc6be8ce551740c29c47c8798210f23f7f4086c41752944352568d5a8611ad6565b6000610684600080516020611c178339815191525490565b60008061071b610758565b506001600160a01b031673eeeeeeeeeeeeeeeeeeeeeeeeeeeeeeeeeeeeeeee141592915050565b61074a610e23565b6107548282610efd565b5050565b600080610763610fcc565b90939092509050565b60006106846106806001600080516020611c37833981519152611ad6565b6069546000906106849063ffffffff600160501b820481169116611aed565b600061068461068060017fe1e3a95fb10ed56538cc130c2250de9823e7716d1142b8521655d7f7317b8ef1611ad6565b600054610100900460ff16158080156107f95750600054600160ff909116105b806108135750303b158015610813575060005460ff166001145b61087b5760405162461bcd60e51b815260206004820152602e60248201527f496e697469616c697a61626c653a20636f6e747261637420697320616c72656160448201526d191e481a5b9a5d1a585b1a5e995960921b60648201526084015b60405180910390fd5b6000805460ff19166001179055801561089e576000805461ff0019166101001790555b6108a661103c565b6108af8a610d40565b6108b88761106b565b6108c28989610efd565b6108cb86611093565b6108e2600080516020611c17833981519152869055565b61091561091060017f71ac12829d66ee73d8d95bff50b3589745ce57edae70a3fb111a2342464dc598611ad6565b849055565b61094961094360017f383f291819e6d54073bc9a648251d97421076bdd101933c0c022219ce9580637611ad6565b83519055565b61098061097760017f46adcbebc6be8ce551740c29c47c8798210f23f7f4086c41752944352568d5a8611ad6565b60208401519055565b6109b76109ae60017f9904ba90dde5696cda05c9e0dab5cbaa0fea005ace4d11218a02ac668dad6377611ad6565b60408401519055565b6109ee6109e560017f52322a25d9f59ea17656545543306b7aef62bc0cc53a0e65ccfa0c75b97aa907611ad6565b60608401519055565b610a25610a1c60017f4b6c74f9e688cb39801f2112c14a8c57232a3fc5202e1444126d4bce86eb19ad611ad6565b60808401519055565b610a5c610a5360017fa04c5bb938ca6fc46d95553abf0a76345ce3e722a30bf4f74928b8e7d852320d611ad6565b60a08401519055565b610a93610a8a60017fe1e3a95fb10ed56538cc130c2250de9823e7716d1142b8521655d7f7317b8ef1611ad6565b60e08401519055565b610a9b61116a565b610aa4846111ae565b610aac61078a565b6001600160401b0316866001600160401b03161015610add5760405162461bcd60e51b815260040161087290611b18565b8015610b23576000805461ff0019169055604051600181527f7f26b83ff96e1f2b6a682f133852f6798a09c465da95921460cefb38474024989060200160405180910390a15b50505050505050505050565b60606106846114d7565b61064d60017f383f291819e6d54073bc9a648251d97421076bdd101933c0c022219ce9580637611ad6565b61064d60017fe1e3a95fb10ed56538cc130c2250de9823e7716d1142b8521655d7f7317b8ef1611ad6565b610b97610e23565b610ba16000611566565b565b610bab610e23565b61075482826115b8565b600061068461068060017fa04c5bb938ca6fc46d95553abf0a76345ce3e722a30bf4f74928b8e7d852320d611ad6565b600061068461068060017f383f291819e6d54073bc9a648251d97421076bdd101933c0c022219ce9580637611ad6565b610c1d610e23565b6106ca81611093565b61064d60017f71ac12829d66ee73d8d95bff50b3589745ce57edae70a3fb111a2342464dc598611ad6565b600061068461068060017f46adcbebc6be8ce551740c29c47c8798210f23f7f4086c41752944352568d5a8611ad6565b610c89610e23565b6106ca8161106b565b6060610684611640565b600061068461068060017f71ac12829d66ee73d8d95bff50b3589745ce57edae70a3fb111a2342464dc598611ad6565b61064d6001600080516020611c37833981519152611ad6565b61064d60017f52322a25d9f59ea17656545543306b7aef62bc0cc53a0e65ccfa0c75b97aa907611ad6565b600061068461068060017f52322a25d9f59ea17656545543306b7aef62bc0cc53a0e65ccfa0c75b97aa907611ad6565b610d48610e23565b6001600160a01b038116610dad5760405162461bcd60e51b815260206004820152602660248201527f4f776e61626c653a206e6577206f776e657220697320746865207a65726f206160448201526564647265737360d01b6064820152608401610872565b6106ca81611566565b61064d60017f9904ba90dde5696cda05c9e0dab5cbaa0fea005ace4d11218a02ac668dad6377611ad6565b61064d60017f4b6c74f9e688cb39801f2112c14a8c57232a3fc5202e1444126d4bce86eb19ad611ad6565b9055565b6001600160a01b03163b151590565b5490565b6033546001600160a01b03163314610ba15760405162461bcd60e51b815260206004820181905260248201527f4f776e61626c653a2063616c6c6572206973206e6f7420746865206f776e65726044820152606401610872565b610e94600080516020611c17833981519152829055565b604080516001600160a01b03831660208201526000910160408051601f19818403018152919052905060035b60007f1d2b0bda21d56b8bd12d4f94ebacffdfb35f5e226f84b461103bb8beab6353be83604051610ef19190611a57565b60405180910390a35050565b606880546fffffffffffffffff00000000000000001916600160401b63ffffffff85811691820263ffffffff60601b191692909217600160601b9285169290920291909117909155600160f81b602083811b67ffffffff000000001690921717606681905560655460408051938401919091528201526000906060015b60408051601f198184030181529190529050600160007f1d2b0bda21d56b8bd12d4f94ebacffdfb35f5e226f84b461103bb8beab6353be83604051610fbf9190611a57565b60405180910390a3505050565b60008080610ffe61068060017f04adb1412b2ddc16fcc0d4538d5c8f07cf9c83abecc6b41f6f69037b708fbcec611ad6565b6001600160a01b0381169350905082611030575073eeeeeeeeeeeeeeeeeeeeeeeeeeeeeeeeeeeeeeee92601292509050565b60a081901c9150509091565b600054610100900460ff166110635760405162461bcd60e51b815260040161087290611b4f565b610ba16116c6565b6067819055604080516020808201849052825180830390910181529082019091526000610ec0565b61109b61078a565b6001600160401b0316816001600160401b031610156110cc5760405162461bcd60e51b815260040161087290611b18565b630bebc2006001600160401b03821611156111295760405162461bcd60e51b815260206004820181905260248201527f53797374656d436f6e6669673a20676173206c696d697420746f6f20686967686044820152606401610872565b6068805467ffffffffffffffff19166001600160401b0383169081179091556040805160208082019390935281518082039093018352810190526002610ec0565b6111866106806001600080516020611c37833981519152611ad6565b600003610ba157610ba16111a96001600080516020611c37833981519152611ad6565b439055565b8060a001516001600160801b0316816060015163ffffffff1611156112335760405162461bcd60e51b815260206004820152603560248201527f53797374656d436f6e6669673a206d696e206261736520666565206d757374206044820152746265206c657373207468616e206d6178206261736560581b6064820152608401610872565b6001816040015160ff16116112a25760405162461bcd60e51b815260206004820152602f60248201527f53797374656d436f6e6669673a2064656e6f6d696e61746f72206d757374206260448201526e65206c6172676572207468616e203160881b6064820152608401610872565b606854608082015182516001600160401b03909216916112c29190611b9a565b63ffffffff1611156112e65760405162461bcd60e51b815260040161087290611b18565b6000816020015160ff16116113555760405162461bcd60e51b815260206004820152602f60248201527f53797374656d436f6e6669673a20656c6173746963697479206d756c7469706c60448201526e06965722063616e6e6f74206265203608c1b6064820152608401610872565b8051602082015163ffffffff82169160ff90911690611375908290611bb9565b61137f9190611bea565b63ffffffff16146113f85760405162461bcd60e51b815260206004820152603760248201527f53797374656d436f6e6669673a20707265636973696f6e206c6f73732077697460448201527f6820746172676574207265736f75726365206c696d69740000000000000000006064820152608401610872565b805160698054602084015160408501516060860151608087015160a09097015163ffffffff96871664ffffffffff199095169490941764010000000060ff948516021769ffffffffff0000000000191665010000000000939092169290920269ffffffff000000000000191617660100000000000091851691909102177fffff0000000000000000000000000000000000000000ffffffffffffffffffff16600160501b93909416929092026fffffffffffffffffffffffffffffffff60701b191692909217600160701b6001600160801b0390921691909102179055565b606060006114e3610fcc565b50905073eeeeeeeeeeeeeeeeeeeeeeeeeeeeeeeeeeeeeeed196001600160a01b0382160161152a57505060408051808201909152600381526208aa8960eb1b602082015290565b61156061155b61068060017fa48b38a4b44951360fbdcbfaaeae5ed6ae92585412e9841b70ec72ed8cd05764611ad6565b6116f6565b91505090565b603380546001600160a01b038381166001600160a01b0319831681179093556040519116919082907f8be0079c531659141344cd1fd0a4f28419497f9722a3daafe3b4186f6b6457e090600090a35050565b6001600160f81b031981161561161a5760405162461bcd60e51b815260206004820152602160248201527f53797374656d436f6e6669673a207363616c61722065786365656473206d61786044820152601760f91b6064820152608401610872565b606582905560668190556040805160208101849052908101829052600090606001610f7a565b6060600061164c610fcc565b50905073eeeeeeeeeeeeeeeeeeeeeeeeeeeeeeeeeeeeeeed196001600160a01b0382160161169557505060408051808201909152600581526422ba3432b960d91b602082015290565b61156061155b61068060017f657c3582c29b3176614e3a33ddd1ec48352696a04e92b3c0566d72010fa8863d611ad6565b600054610100900460ff166116ed5760405162461bcd60e51b815260040161087290611b4f565b610ba133611566565b60405160005b82811a1561170c576001016116fc565b80825260208201838152600082820152505060408101604052919050565b80356001600160a01b038116811461174157600080fd5b919050565b60006020828403121561175857600080fd5b6117618261172a565b9392505050565b803563ffffffff8116811461174157600080fd5b6000806040838503121561178f57600080fd5b61179883611768565b91506117a660208401611768565b90509250929050565b80356001600160401b038116811461174157600080fd5b60405160c081016001600160401b03811182821017156117f657634e487b7160e01b600052604160045260246000fd5b60405290565b803560ff8116811461174157600080fd5b600061010080838503121561182157600080fd5b604051908101906001600160401b038211818310171561185157634e487b7160e01b600052604160045260246000fd5b816040528092506118618461172a565b815261186f6020850161172a565b60208201526118806040850161172a565b60408201526118916060850161172a565b60608201526118a26080850161172a565b60808201526118b360a0850161172a565b60a08201526118c460c0850161172a565b60c08201526118d560e0850161172a565b60e0820152505092915050565b6000806000806000806000806000898b036102a081121561190257600080fd5b61190b8b61172a565b995061191960208c01611768565b985061192760408c01611768565b975060608b0135965061193c60808c016117af565b955061194a60a08c0161172a565b945060c060bf198201121561195e57600080fd5b506119676117c6565b61197360c08c01611768565b815261198160e08c016117fc565b60208201526119936101008c016117fc565b60408201526119a56101208c01611768565b60608201526119b76101408c01611768565b60808201526101608b01356001600160801b03811681146119d757600080fd5b60a082015292506119eb6101808b0161172a565b91506119fb8b6101a08c0161180d565b90509295985092959850929598565b6000815180845260005b81811015611a3057602081850181015186830182015201611a14565b81811115611a42576000602083870101525b50601f01601f19169290920160200192915050565b6020815260006117616020830184611a0a565b60008060408385031215611a7d57600080fd5b50508035926020909101359150565b600060208284031215611a9e57600080fd5b611761826117af565b600060208284031215611ab957600080fd5b5035919050565b634e487b7160e01b600052601160045260246000fd5b600082821015611ae857611ae8611ac0565b500390565b60006001600160401b03808316818516808303821115611b0f57611b0f611ac0565b01949350505050565b6020808252601f908201527f53797374656d436f6e6669673a20676173206c696d697420746f6f206c6f7700604082015260600190565b6020808252602b908201527f496e697469616c697a61626c653a20636f6e7472616374206973206e6f74206960408201526a6e697469616c697a696e6760a81b606082015260800190565b600063ffffffff808316818516808303821115611b0f57611b0f611ac0565b600063ffffffff80841680611bde57634e487b7160e01b600052601260045260246000fd5b92169190910492915050565b600063ffffffff80831681851681830481118215151615611c0d57611c0d611ac0565b0294935050505056fe65a7ed542fb37fe237fdfbdd70b31598523fe5b32879e307bae27a0bd9581c08a11ee3ab75b40e88a0105e935d17cd36c8faee0138320d776c411291bdbbb1a0a164736f6c634300080f000a53797374656d436f6e6669673a20676173206c696d697420746f6f206c6f77001d2b0bda21d56b8bd12d4f94ebacffdfb35f5e226f84b461103bb8beab6353be496e697469616c697a61626c653a20636f6e7472616374206973206e6f742069a11ee3ab75b40e88a0105e935d17cd36c8faee0138320d776c411291bdbbb1a0","linkReferences":{}},"methodIdentifiers":{"BATCH_INBOX_SLOT()":"bc49ce5f","DISPUTE_GAME_FACTORY_SLOT()":"e2a3285c","L1_CROSS_DOMAIN_MESSENGER_SLOT()":"5d73369c","L1_ERC_721_BRIDGE_SLOT()":"19f5cea8","L1_STANDARD_BRIDGE_SLOT()":"f8c68de0","NATIVE_TOKEN_ADDRESS_SLOT()":"697844c6","OPTIMISM_MINTABLE_ERC20_FACTORY_SLOT()":"06c92657","OPTIMISM_PORTAL_SLOT()":"fd32aa0f","START_BLOCK_SLOT()":"e0e2016d","UNSAFE_BLOCK_SIGNER_SLOT()":"4f16540b","VERSION()":"ffa1ad74","basefeeScalar()":"bfb14fb7","batchInbox()":"dac6e63a","batcherHash()":"e81b2c6d","blobbasefeeScalar()":"ec707517","disputeGameFactory()":"f2b4e617","gasLimit()":"f68016b7","gasPayingToken()":"4397dfef","gasPayingTokenName()":"d8444715","gasPayingTokenSymbol()":"550fcdc9","initialize(address,uint32,uint32,bytes32,uint64,address,(uint32,uint8,uint8,uint32,uint32,uint128),address,(address,address,address,address,address,address,address,address))":"53d794be","isCustomGasToken()":"21326849","l1CrossDomainMessenger()":"a7119869","l1ERC721Bridge()":"c4e8ddfa","l1StandardBridge()":"078f29cf","maximumGasLimit()":"0ae14b1b","minimumGasLimit()":"4add321d","nativeTokenAddress()":"4d0047ee","optimismMintableERC20Factory()":"9b7d7f0a","optimismPortal()":"0a49cb03","overhead()":"0c18c162","owner()":"8da5cb5b","renounceOwnership()":"715018a6","resourceConfig()":"cc731b02","scalar()":"f45e65d8","setBatcherHash(bytes32)":"c9b26f61","setGasConfig(uint256,uint256)":"935f029e","setGasConfigEcotone(uint32,uint32)":"21d7fde5","setGasLimit(uint64)":"b40a817c","setUnsafeBlockSigner(address)":"18d13918","startBlock()":"48cd4cb1","transferOwnership(address)":"f2fde38b","unsafeBlockSigner()":"1fd19ee1","version()":"54fd4d50"},"id":177}