{"abi":[{"type":"constructor","inputs":[{"name":"_message","type":"string","internalType":"string"}],"stateMutability":"nonpayable"},{"type":"function","name":"getMessage","inputs":[],"outputs":[{"name":"","type":"string","internalType":"string"}],"stateMutability":"view"},{"type":"function","name":"getVersion","inputs":[],"outputs":[{"name":"","type":"string","internalType":"string"}],"stateMutability":"pure"},{"type":"function","name":"message","inputs":[],"outputs":[{"name":"","type":"string","internalType":"string"}],"stateMutability":"view"},{"type":"function","name":"setMessage","inputs":[{"name":"_message","type":"string","internalType":"string"}],"outputs":[],"stateMutability":"nonpayable"}],"bytecode":{"object":"0x608060405234801561000f575f80fd5b5060405161074438038061074483398101604081905261002e91610054565b5f6100398282610182565b5050610241565b634e487b7160e01b5f52604160045260245ffd5b5f60208284031215610064575f80fd5b81516001600160401b038082111561007a575f80fd5b818401915084601f83011261008d575f80fd5b81518181111561009f5761009f610040565b604051601f8201601f19908116603f011681019083821181831017156100c7576100c7610040565b816040528281528760208487010111156100df575f80fd5b8260208601602083015e5f928101602001929092525095945050505050565b600181811c9082168061011257607f821691505b60208210810361013057634e487b7160e01b5f52602260045260245ffd5b50919050565b601f82111561017d57805f5260205f20601f840160051c8101602085101561015b5750805b601f840160051c820191505b8181101561017a575f8155600101610167565b50505b505050565b81516001600160401b0381111561019b5761019b610040565b6101af816101a984546100fe565b84610136565b602080601f8311600181146101e2575f84156101cb5750858301515b5f19600386901b1c1916600185901b178555610239565b5f85815260208120601f198616915b82811015610210578886015182559484019460019091019084016101f1565b508582101561022d57878501515f19600388901b60f8161c191681555b505060018460011b0185555b505050505050565b6104f68061024e5f395ff3fe608060405234801561000f575f80fd5b506004361061004a575f3560e01c80630d8e6e2c1461004e578063368b877214610099578063ce6d41de146100ae578063e21f37ce146100b6575b5f80fd5b60408051808201909152600681527f76312e302e30000000000000000000000000000000000000000000000000000060208201525b60405161009091906101e7565b60405180910390f35b6100ac6100a7366004610267565b6100be565b005b6100836100cd565b61008361015c565b5f6100c982826103cd565b5050565b60605f80546100db90610330565b80601f016020809104026020016040519081016040528092919081815260200182805461010790610330565b80156101525780601f1061012957610100808354040283529160200191610152565b820191905f5260205f20905b81548152906001019060200180831161013557829003601f168201915b5050505050905090565b5f805461016890610330565b80601f016020809104026020016040519081016040528092919081815260200182805461019490610330565b80156101df5780601f106101b6576101008083540402835291602001916101df565b820191905f5260205f20905b8154815290600101906020018083116101c257829003601f168201915b505050505081565b602081525f82518060208401528060208501604085015e5f6040828501015260407fffffffffffffffffffffffffffffffffffffffffffffffffffffffffffffffe0601f83011684010191505092915050565b7f4e487b71000000000000000000000000000000000000000000000000000000005f52604160045260245ffd5b5f60208284031215610277575f80fd5b813567ffffffffffffffff8082111561028e575f80fd5b818401915084601f8301126102a1575f80fd5b8135818111156102b3576102b361023a565b604051601f82017fffffffffffffffffffffffffffffffffffffffffffffffffffffffffffffffe0908116603f011681019083821181831017156102f9576102f961023a565b81604052828152876020848701011115610311575f80fd5b826020860160208301375f928101602001929092525095945050505050565b600181811c9082168061034457607f821691505b60208210810361037b577f4e487b71000000000000000000000000000000000000000000000000000000005f52602260045260245ffd5b50919050565b601f8211156103c857805f5260205f20601f840160051c810160208510156103a65750805b601f840160051c820191505b818110156103c5575f81556001016103b2565b50505b505050565b815167ffffffffffffffff8111156103e7576103e761023a565b6103fb816103f58454610330565b84610381565b602080601f83116001811461044d575f84156104175750858301515b7fffffffffffffffffffffffffffffffffffffffffffffffffffffffffffffffff600386901b1c1916600185901b1785556104e1565b5f858152602081207fffffffffffffffffffffffffffffffffffffffffffffffffffffffffffffffe08616915b828110156104995788860151825594840194600190910190840161047a565b50858210156104d557878501517fffffffffffffffffffffffffffffffffffffffffffffffffffffffffffffffff600388901b60f8161c191681555b505060018460011b0185555b50505050505056fea164736f6c6343000819000a","linkReferences":{}},"methodIdentifiers":{"getMessage()":"ce6d41de","getVersion()":"0d8e6e2c","message()":"e21f37ce","setMessage(string)":"368b8772"},"storageLayout":{"storage":[{"astId":71453,"contract":"src/L1/TestContract.sol:TestContract","label":"message","offset":0,"slot":"0","type":"t_string_storage"}],"types":{"t_string_storage":{"encoding":"bytes","label":"string","numberOfBytes":"32"}}},"userdoc":{"version":1,"kind":"user","notice":"A simple test contract to verify artifact inclusion in op-deployer"},"devdoc":{"version":1,"kind":"dev","details":"Updated to trigger rebuild","title":"TestContract"},"id":143}