{"abi":[{"type":"function","name":"relayERC20","inputs":[{"name":"_token","type":"address","internalType":"address"},{"name":"_from","type":"address","internalType":"address"},{"name":"_to","type":"address","internalType":"address"},{"name":"_amount","type":"uint256","internalType":"uint256"}],"outputs":[],"stateMutability":"nonpayable"},{"type":"function","name":"sendERC20","inputs":[{"name":"_token","type":"address","internalType":"address"},{"name":"_to","type":"address","internalType":"address"},{"name":"_amount","type":"uint256","internalType":"uint256"},{"name":"_chainId","type":"uint256","internalType":"uint256"}],"outputs":[{"name":"msgHash_","type":"bytes32","internalType":"bytes32"}],"stateMutability":"nonpayable"},{"type":"function","name":"version","inputs":[],"outputs":[{"name":"","type":"string","internalType":"string"}],"stateMutability":"view"},{"type":"event","name":"RelayERC20","inputs":[{"name":"token","type":"address","indexed":true,"internalType":"address"},{"name":"from","type":"address","indexed":true,"internalType":"address"},{"name":"to","type":"address","indexed":true,"internalType":"address"},{"name":"amount","type":"uint256","indexed":false,"internalType":"uint256"},{"name":"source","type":"uint256","indexed":false,"internalType":"uint256"}],"anonymous":false},{"type":"event","name":"SendERC20","inputs":[{"name":"token","type":"address","indexed":true,"internalType":"address"},{"name":"from","type":"address","indexed":true,"internalType":"address"},{"name":"to","type":"address","indexed":true,"internalType":"address"},{"name":"amount","type":"uint256","indexed":false,"internalType":"uint256"},{"name":"destination","type":"uint256","indexed":false,"internalType":"uint256"}],"anonymous":false},{"type":"error","name":"InvalidCrossDomainSender","inputs":[]},{"type":"error","name":"InvalidERC7802","inputs":[]},{"type":"error","name":"Unauthorized","inputs":[]},{"type":"error","name":"ZeroAddress","inputs":[]}],"bytecode":{"object":"0x6080604052348015600e575f80fd5b5061082d8061001c5f395ff3fe608060405234801561000f575f80fd5b506004361061003f575f3560e01c806354fd4d50146100435780637cfd6dbc14610095578063c1a433d8146100aa575b5f80fd5b61007f6040518060400160405280600581526020017f312e302e3100000000000000000000000000000000000000000000000000000081525081565b60405161008c91906106b3565b60405180910390f35b6100a86100a33660046106f0565b6100cb565b005b6100bd6100b836600461073e565b610300565b60405190815260200161008c565b3373420000000000000000000000000000000000002314610118576040517f82b4290000000000000000000000000000000000000000000000000000000000815260040160405180910390fd5b5f8073420000000000000000000000000000000000002373ffffffffffffffffffffffffffffffffffffffff16637936cbee6040518163ffffffff1660e01b81526004016040805180830381865afa158015610176573d5f803e3d5ffd5b505050506040513d601f19601f8201168201806040525081019061019a9190610781565b909250905073ffffffffffffffffffffffffffffffffffffffff821630146101ee576040517fbc22e2aa00000000000000000000000000000000000000000000000000000000815260040160405180910390fd5b6040517f18bf507700000000000000000000000000000000000000000000000000000000815273ffffffffffffffffffffffffffffffffffffffff8581166004830152602482018590528716906318bf5077906044015f604051808303815f87803b15801561025b575f80fd5b505af115801561026d573d5f803e3d5ffd5b505050508373ffffffffffffffffffffffffffffffffffffffff168573ffffffffffffffffffffffffffffffffffffffff168773ffffffffffffffffffffffffffffffffffffffff167f434965d7426acf45a548f00783c067e9ad789c8c66444f0a5ad8941d5005be9386856040516102f0929190918252602082015260400190565b60405180910390a4505050505050565b5f73ffffffffffffffffffffffffffffffffffffffff841661034e576040517fd92e233d00000000000000000000000000000000000000000000000000000000815260040160405180910390fd5b6040517f01ffc9a70000000000000000000000000000000000000000000000000000000081527f3333199400000000000000000000000000000000000000000000000000000000600482015273ffffffffffffffffffffffffffffffffffffffff8616906301ffc9a790602401602060405180830381865afa1580156103d6573d5f803e3d5ffd5b505050506040513d601f19601f820116820180604052508101906103fa91906107ad565b610430576040517f0ed63dae00000000000000000000000000000000000000000000000000000000815260040160405180910390fd5b6040517f2b8c49e30000000000000000000000000000000000000000000000000000000081523360048201526024810184905273ffffffffffffffffffffffffffffffffffffffff861690632b8c49e3906044015f604051808303815f87803b15801561049b575f80fd5b505af11580156104ad573d5f803e3d5ffd5b50506040805173ffffffffffffffffffffffffffffffffffffffff89811660248301523360448301528816606482015260848082018890528251808303909101815260a490910182526020810180517bffffffffffffffffffffffffffffffffffffffffffffffffffffffff167f7cfd6dbc0000000000000000000000000000000000000000000000000000000017905290517f7056f41f0000000000000000000000000000000000000000000000000000000081529092507342000000000000000000000000000000000000239150637056f41f90610595908690309086906004016107cc565b6020604051808303815f875af11580156105b1573d5f803e3d5ffd5b505050506040513d601f19601f820116820180604052508101906105d59190610809565b91508473ffffffffffffffffffffffffffffffffffffffff163373ffffffffffffffffffffffffffffffffffffffff168773ffffffffffffffffffffffffffffffffffffffff167f0247bfe63a1aaa59e073e20b172889babfda8d3273b5798e0e9ac4388e6dd11c8787604051610656929190918252602082015260400190565b60405180910390a450949350505050565b5f81518084528060208401602086015e5f6020828601015260207fffffffffffffffffffffffffffffffffffffffffffffffffffffffffffffffe0601f83011685010191505092915050565b602081525f6106c56020830184610667565b9392505050565b73ffffffffffffffffffffffffffffffffffffffff811681146106ed575f80fd5b50565b5f805f8060808587031215610703575f80fd5b843561070e816106cc565b9350602085013561071e816106cc565b9250604085013561072e816106cc565b9396929550929360600135925050565b5f805f8060808587031215610751575f80fd5b843561075c816106cc565b9350602085013561076c816106cc565b93969395505050506040820135916060013590565b5f8060408385031215610792575f80fd5b825161079d816106cc565b6020939093015192949293505050565b5f602082840312156107bd575f80fd5b815180151581146106c5575f80fd5b83815273ffffffffffffffffffffffffffffffffffffffff83166020820152606060408201525f6108006060830184610667565b95945050505050565b5f60208284031215610819575f80fd5b505191905056fea164736f6c6343000819000a","linkReferences":{}},"methodIdentifiers":{"relayERC20(address,address,address,uint256)":"7cfd6dbc","sendERC20(address,address,uint256,uint256)":"c1a433d8","version()":"54fd4d50"},"storageLayout":{"storage":[],"types":{}},"userdoc":{"version":1,"kind":"user","methods":{"relayERC20(address,address,address,uint256)":{"notice":"Relays tokens received from another chain."},"sendERC20(address,address,uint256,uint256)":{"notice":"Sends tokens to a target address on another chain."},"version()":{"notice":"Semantic version."}},"events":{"RelayERC20(address,address,address,uint256,uint256)":{"notice":"Emitted whenever tokens are successfully relayed on this chain."},"SendERC20(address,address,address,uint256,uint256)":{"notice":"Emitted when tokens are sent from one chain to another."}},"errors":{"InvalidCrossDomainSender()":[{"notice":"Thrown when attempting to relay a message and the cross domain message sender is not the SuperchainTokenBridge."}],"InvalidERC7802()":[{"notice":"Thrown when attempting to use a token that does not implement the ERC7802 interface."}],"Unauthorized()":[{"notice":"Error for an unauthorized CALLER."}],"ZeroAddress()":[{"notice":"Thrown when attempting to perform an operation and the account is the zero address."}]},"notice":"The SuperchainTokenBridge allows for the bridging of ERC20 tokens to make them fungible across the         Superchain. It builds on top of the L2ToL2CrossDomainMessenger for both replay protection and domain         binding."},"devdoc":{"version":1,"kind":"dev","methods":{"relayERC20(address,address,address,uint256)":{"details":"Tokens are minted on the destination chain.","params":{"_amount":"Amount of tokens to relay.","_from":"Address of the msg.sender of sendERC20 on the source chain.","_to":"Address to relay tokens to.","_token":"Token to relay."}},"sendERC20(address,address,uint256,uint256)":{"details":"Tokens are burned on the source chain.","params":{"_amount":"Amount of tokens to send.","_chainId":"Chain ID of the destination chain.","_to":"Address to send tokens to.","_token":"Token to send."},"returns":{"msgHash_":"Hash of the message sent."}}},"events":{"RelayERC20(address,address,address,uint256,uint256)":{"params":{"amount":"Amount of tokens relayed.","from":"Address of the msg.sender of sendERC20 on the source chain.","source":"Chain ID of the source chain.","to":"Address of the recipient.","token":"Address of the token relayed."}},"SendERC20(address,address,address,uint256,uint256)":{"params":{"amount":"Number of tokens sent.","destination":"Chain ID of the destination chain.","from":"Address of the sender.","to":"Address of the recipient.","token":"Address of the token sent."}}},"title":"SuperchainTokenBridge"},"id":152}