{
  "abi": [
    {
      "type": "constructor",
      "inputs": [],
      "stateMutability": "nonpayable"
    },
    {
      "type": "receive",
      "stateMutability": "payable"
    },
    {
      "type": "function",
      "name": "MESSENGER",
      "inputs": [],
      "outputs": [
        {
          "name": "",
          "type": "address",
          "internalType": "contract CrossDomainMessenger"
        }
      ],
      "stateMutability": "view"
    },
    {
      "type": "function",
      "name": "OTHER_BRIDGE",
      "inputs": [],
      "outputs": [
        {
          "name": "",
          "type": "address",
          "internalType": "contract StandardBridge"
        }
      ],
      "stateMutability": "view"
    },
    {
      "type": "function",
      "name": "bridgeERC20",
      "inputs": [
        {
          "name": "_localToken",
          "type": "address",
          "internalType": "address"
        },
        {
          "name": "_remoteToken",
          "type": "address",
          "internalType": "address"
        },
        {
          "name": "_amount",
          "type": "uint256",
          "internalType": "uint256"
        },
        {
          "name": "_minGasLimit",
          "type": "uint32",
          "internalType": "uint32"
        },
        {
          "name": "_extraData",
          "type": "bytes",
          "internalType": "bytes"
        }
      ],
      "outputs": [],
      "stateMutability": "nonpayable"
    },
    {
      "type": "function",
      "name": "bridgeERC20To",
      "inputs": [
        {
          "name": "_localToken",
          "type": "address",
          "internalType": "address"
        },
        {
          "name": "_remoteToken",
          "type": "address",
          "internalType": "address"
        },
        {
          "name": "_to",
          "type": "address",
          "internalType": "address"
        },
        {
          "name": "_amount",
          "type": "uint256",
          "internalType": "uint256"
        },
        {
          "name": "_minGasLimit",
          "type": "uint32",
          "internalType": "uint32"
        },
        {
          "name": "_extraData",
          "type": "bytes",
          "internalType": "bytes"
        }
      ],
      "outputs": [],
      "stateMutability": "nonpayable"
    },
    {
      "type": "function",
      "name": "bridgeETH",
      "inputs": [
        {
          "name": "_minGasLimit",
          "type": "uint32",
          "internalType": "uint32"
        },
        {
          "name": "_extraData",
          "type": "bytes",
          "internalType": "bytes"
        }
      ],
      "outputs": [],
      "stateMutability": "payable"
    },
    {
      "type": "function",
      "name": "bridgeETHTo",
      "inputs": [
        {
          "name": "_to",
          "type": "address",
          "internalType": "address"
        },
        {
          "name": "_minGasLimit",
          "type": "uint32",
          "internalType": "uint32"
        },
        {
          "name": "_extraData",
          "type": "bytes",
          "internalType": "bytes"
        }
      ],
      "outputs": [],
      "stateMutability": "payable"
    },
    {
      "type": "function",
      "name": "bridgeNativeToken",
      "inputs": [
        {
          "name": "_amount",
          "type": "uint256",
          "internalType": "uint256"
        },
        {
          "name": "_minGasLimit",
          "type": "uint32",
          "internalType": "uint32"
        },
        {
          "name": "_extraData",
          "type": "bytes",
          "internalType": "bytes"
        }
      ],
      "outputs": [],
      "stateMutability": "nonpayable"
    },
    {
      "type": "function",
      "name": "bridgeNativeTokenTo",
      "inputs": [
        {
          "name": "_to",
          "type": "address",
          "internalType": "address"
        },
        {
          "name": "_amount",
          "type": "uint256",
          "internalType": "uint256"
        },
        {
          "name": "_minGasLimit",
          "type": "uint32",
          "internalType": "uint32"
        },
        {
          "name": "_extraData",
          "type": "bytes",
          "internalType": "bytes"
        }
      ],
      "outputs": [],
      "stateMutability": "nonpayable"
    },
    {
      "type": "function",
      "name": "depositERC20",
      "inputs": [
        {
          "name": "_l1Token",
          "type": "address",
          "internalType": "address"
        },
        {
          "name": "_l2Token",
          "type": "address",
          "internalType": "address"
        },
        {
          "name": "_amount",
          "type": "uint256",
          "internalType": "uint256"
        },
        {
          "name": "_minGasLimit",
          "type": "uint32",
          "internalType": "uint32"
        },
        {
          "name": "_extraData",
          "type": "bytes",
          "internalType": "bytes"
        }
      ],
      "outputs": [],
      "stateMutability": "nonpayable"
    },
    {
      "type": "function",
      "name": "depositERC20To",
      "inputs": [
        {
          "name": "_l1Token",
          "type": "address",
          "internalType": "address"
        },
        {
          "name": "_l2Token",
          "type": "address",
          "internalType": "address"
        },
        {
          "name": "_to",
          "type": "address",
          "internalType": "address"
        },
        {
          "name": "_amount",
          "type": "uint256",
          "internalType": "uint256"
        },
        {
          "name": "_minGasLimit",
          "type": "uint32",
          "internalType": "uint32"
        },
        {
          "name": "_extraData",
          "type": "bytes",
          "internalType": "bytes"
        }
      ],
      "outputs": [],
      "stateMutability": "nonpayable"
    },
    {
      "type": "function",
      "name": "depositETH",
      "inputs": [
        {
          "name": "_minGasLimit",
          "type": "uint32",
          "internalType": "uint32"
        },
        {
          "name": "_extraData",
          "type": "bytes",
          "internalType": "bytes"
        }
      ],
      "outputs": [],
      "stateMutability": "payable"
    },
    {
      "type": "function",
      "name": "depositETHTo",
      "inputs": [
        {
          "name": "_to",
          "type": "address",
          "internalType": "address"
        },
        {
          "name": "_minGasLimit",
          "type": "uint32",
          "internalType": "uint32"
        },
        {
          "name": "_extraData",
          "type": "bytes",
          "internalType": "bytes"
        }
      ],
      "outputs": [],
      "stateMutability": "payable"
    },
    {
      "type": "function",
      "name": "depositNativeToken",
      "inputs": [
        {
          "name": "_amount",
          "type": "uint256",
          "internalType": "uint256"
        },
        {
          "name": "_minGasLimit",
          "type": "uint32",
          "internalType": "uint32"
        },
        {
          "name": "_extraData",
          "type": "bytes",
          "internalType": "bytes"
        }
      ],
      "outputs": [],
      "stateMutability": "nonpayable"
    },
    {
      "type": "function",
      "name": "depositNativeTokenTo",
      "inputs": [
        {
          "name": "_to",
          "type": "address",
          "internalType": "address"
        },
        {
          "name": "_amount",
          "type": "uint256",
          "internalType": "uint256"
        },
        {
          "name": "_minGasLimit",
          "type": "uint32",
          "internalType": "uint32"
        },
        {
          "name": "_extraData",
          "type": "bytes",
          "internalType": "bytes"
        }
      ],
      "outputs": [],
      "stateMutability": "nonpayable"
    },
    {
      "type": "function",
      "name": "deposits",
      "inputs": [
        {
          "name": "",
          "type": "address",
          "internalType": "address"
        },
        {
          "name": "",
          "type": "address",
          "internalType": "address"
        }
      ],
      "outputs": [
        {
          "name": "",
          "type": "uint256",
          "internalType": "uint256"
        }
      ],
      "stateMutability": "view"
    },
    {
      "type": "function",
      "name": "finalizeBridgeERC20",
      "inputs": [
        {
          "name": "_localToken",
          "type": "address",
          "internalType": "address"
        },
        {
          "name": "_remoteToken",
          "type": "address",
          "internalType": "address"
        },
        {
          "name": "_from",
          "type": "address",
          "internalType": "address"
        },
        {
          "name": "_to",
          "type": "address",
          "internalType": "address"
        },
        {
          "name": "_amount",
          "type": "uint256",
          "internalType": "uint256"
        },
        {
          "name": "_extraData",
          "type": "bytes",
          "internalType": "bytes"
        }
      ],
      "outputs": [],
      "stateMutability": "nonpayable"
    },
    {
      "type": "function",
      "name": "finalizeBridgeETH",
      "inputs": [
        {
          "name": "_from",
          "type": "address",
          "internalType": "address"
        },
        {
          "name": "_to",
          "type": "address",
          "internalType": "address"
        },
        {
          "name": "_amount",
          "type": "uint256",
          "internalType": "uint256"
        },
        {
          "name": "_extraData",
          "type": "bytes",
          "internalType": "bytes"
        }
      ],
      "outputs": [],
      "stateMutability": "payable"
    },
    {
      "type": "function",
      "name": "finalizeERC20Withdrawal",
      "inputs": [
        {
          "name": "_l1Token",
          "type": "address",
          "internalType": "address"
        },
        {
          "name": "_l2Token",
          "type": "address",
          "internalType": "address"
        },
        {
          "name": "_from",
          "type": "address",
          "internalType": "address"
        },
        {
          "name": "_to",
          "type": "address",
          "internalType": "address"
        },
        {
          "name": "_amount",
          "type": "uint256",
          "internalType": "uint256"
        },
        {
          "name": "_extraData",
          "type": "bytes",
          "internalType": "bytes"
        }
      ],
      "outputs": [],
      "stateMutability": "nonpayable"
    },
    {
      "type": "function",
      "name": "finalizeETHWithdrawal",
      "inputs": [
        {
          "name": "_from",
          "type": "address",
          "internalType": "address"
        },
        {
          "name": "_to",
          "type": "address",
          "internalType": "address"
        },
        {
          "name": "_amount",
          "type": "uint256",
          "internalType": "uint256"
        },
        {
          "name": "_extraData",
          "type": "bytes",
          "internalType": "bytes"
        }
      ],
      "outputs": [],
      "stateMutability": "payable"
    },
    {
      "type": "function",
      "name": "initialize",
      "inputs": [
        {
          "name": "_messenger",
          "type": "address",
          "internalType": "contract CrossDomainMessenger"
        },
        {
          "name": "_nativeTokenAddress",
          "type": "address",
          "internalType": "address"
        },
        {
          "name": "_superchainConfig",
          "type": "address",
          "internalType": "contract SuperchainConfig"
        }
      ],
      "outputs": [],
      "stateMutability": "nonpayable"
    },
    {
      "type": "function",
      "name": "l2TokenBridge",
      "inputs": [],
      "outputs": [
        {
          "name": "",
          "type": "address",
          "internalType": "address"
        }
      ],
      "stateMutability": "view"
    },
    {
      "type": "function",
      "name": "messenger",
      "inputs": [],
      "outputs": [
        {
          "name": "",
          "type": "address",
          "internalType": "contract CrossDomainMessenger"
        }
      ],
      "stateMutability": "view"
    },
    {
      "type": "function",
      "name": "nativeTokenAddress",
      "inputs": [],
      "outputs": [
        {
          "name": "",
          "type": "address",
          "internalType": "address"
        }
      ],
      "stateMutability": "view"
    },
    {
      "type": "function",
      "name": "onApprove",
      "inputs": [
        {
          "name": "_owner",
          "type": "address",
          "internalType": "address"
        },
        {
          "name": "",
          "type": "address",
          "internalType": "address"
        },
        {
          "name": "_amount",
          "type": "uint256",
          "internalType": "uint256"
        },
        {
          "name": "_data",
          "type": "bytes",
          "internalType": "bytes"
        }
      ],
      "outputs": [
        {
          "name": "",
          "type": "bool",
          "internalType": "bool"
        }
      ],
      "stateMutability": "nonpayable"
    },
    {
      "type": "function",
      "name": "otherBridge",
      "inputs": [],
      "outputs": [
        {
          "name": "",
          "type": "address",
          "internalType": "contract StandardBridge"
        }
      ],
      "stateMutability": "view"
    },
    {
      "type": "function",
      "name": "paused",
      "inputs": [],
      "outputs": [
        {
          "name": "",
          "type": "bool",
          "internalType": "bool"
        }
      ],
      "stateMutability": "view"
    },
    {
      "type": "function",
      "name": "superchainConfig",
      "inputs": [],
      "outputs": [
        {
          "name": "",
          "type": "address",
          "internalType": "contract SuperchainConfig"
        }
      ],
      "stateMutability": "view"
    },
    {
      "type": "function",
      "name": "supportsInterface",
      "inputs": [
        {
          "name": "interfaceId",
          "type": "bytes4",
          "internalType": "bytes4"
        }
      ],
      "outputs": [
        {
          "name": "",
          "type": "bool",
          "internalType": "bool"
        }
      ],
      "stateMutability": "pure"
    },
    {
      "type": "function",
      "name": "unpackOnApproveData",
      "inputs": [
        {
          "name": "_data",
          "type": "bytes",
          "internalType": "bytes"
        }
      ],
      "outputs": [
        {
          "name": "_from",
          "type": "address",
          "internalType": "address"
        },
        {
          "name": "_to",
          "type": "address",
          "internalType": "address"
        },
        {
          "name": "_amount",
          "type": "uint256",
          "internalType": "uint256"
        },
        {
          "name": "_minGasLimit",
          "type": "uint32",
          "internalType": "uint32"
        },
        {
          "name": "_message",
          "type": "bytes",
          "internalType": "bytes"
        }
      ],
      "stateMutability": "pure"
    },
    {
      "type": "function",
      "name": "version",
      "inputs": [],
      "outputs": [
        {
          "name": "",
          "type": "string",
          "internalType": "string"
        }
      ],
      "stateMutability": "view"
    },
    {
      "type": "event",
      "name": "ERC20BridgeFinalized",
      "inputs": [
        {
          "name": "localToken",
          "type": "address",
          "indexed": true,
          "internalType": "address"
        },
        {
          "name": "remoteToken",
          "type": "address",
          "indexed": true,
          "internalType": "address"
        },
        {
          "name": "from",
          "type": "address",
          "indexed": true,
          "internalType": "address"
        },
        {
          "name": "to",
          "type": "address",
          "indexed": false,
          "internalType": "address"
        },
        {
          "name": "amount",
          "type": "uint256",
          "indexed": false,
          "internalType": "uint256"
        },
        {
          "name": "extraData",
          "type": "bytes",
          "indexed": false,
          "internalType": "bytes"
        }
      ],
      "anonymous": false
    },
    {
      "type": "event",
      "name": "ERC20BridgeInitiated",
      "inputs": [
        {
          "name": "localToken",
          "type": "address",
          "indexed": true,
          "internalType": "address"
        },
        {
          "name": "remoteToken",
          "type": "address",
          "indexed": true,
          "internalType": "address"
        },
        {
          "name": "from",
          "type": "address",
          "indexed": true,
          "internalType": "address"
        },
        {
          "name": "to",
          "type": "address",
          "indexed": false,
          "internalType": "address"
        },
        {
          "name": "amount",
          "type": "uint256",
          "indexed": false,
          "internalType": "uint256"
        },
        {
          "name": "extraData",
          "type": "bytes",
          "indexed": false,
          "internalType": "bytes"
        }
      ],
      "anonymous": false
    },
    {
      "type": "event",
      "name": "ERC20DepositInitiated",
      "inputs": [
        {
          "name": "l1Token",
          "type": "address",
          "indexed": true,
          "internalType": "address"
        },
        {
          "name": "l2Token",
          "type": "address",
          "indexed": true,
          "internalType": "address"
        },
        {
          "name": "from",
          "type": "address",
          "indexed": true,
          "internalType": "address"
        },
        {
          "name": "to",
          "type": "address",
          "indexed": false,
          "internalType": "address"
        },
        {
          "name": "amount",
          "type": "uint256",
          "indexed": false,
          "internalType": "uint256"
        },
        {
          "name": "extraData",
          "type": "bytes",
          "indexed": false,
          "internalType": "bytes"
        }
      ],
      "anonymous": false
    },
    {
      "type": "event",
      "name": "ERC20WithdrawalFinalized",
      "inputs": [
        {
          "name": "l1Token",
          "type": "address",
          "indexed": true,
          "internalType": "address"
        },
        {
          "name": "l2Token",
          "type": "address",
          "indexed": true,
          "internalType": "address"
        },
        {
          "name": "from",
          "type": "address",
          "indexed": true,
          "internalType": "address"
        },
        {
          "name": "to",
          "type": "address",
          "indexed": false,
          "internalType": "address"
        },
        {
          "name": "amount",
          "type": "uint256",
          "indexed": false,
          "internalType": "uint256"
        },
        {
          "name": "extraData",
          "type": "bytes",
          "indexed": false,
          "internalType": "bytes"
        }
      ],
      "anonymous": false
    },
    {
      "type": "event",
      "name": "ETHBridgeFinalized",
      "inputs": [
        {
          "name": "from",
          "type": "address",
          "indexed": true,
          "internalType": "address"
        },
        {
          "name": "to",
          "type": "address",
          "indexed": true,
          "internalType": "address"
        },
        {
          "name": "amount",
          "type": "uint256",
          "indexed": false,
          "internalType": "uint256"
        },
        {
          "name": "extraData",
          "type": "bytes",
          "indexed": false,
          "internalType": "bytes"
        }
      ],
      "anonymous": false
    },
    {
      "type": "event",
      "name": "ETHBridgeInitiated",
      "inputs": [
        {
          "name": "from",
          "type": "address",
          "indexed": true,
          "internalType": "address"
        },
        {
          "name": "to",
          "type": "address",
          "indexed": true,
          "internalType": "address"
        },
        {
          "name": "amount",
          "type": "uint256",
          "indexed": false,
          "internalType": "uint256"
        },
        {
          "name": "extraData",
          "type": "bytes",
          "indexed": false,
          "internalType": "bytes"
        }
      ],
      "anonymous": false
    },
    {
      "type": "event",
      "name": "ETHDepositInitiated",
      "inputs": [
        {
          "name": "from",
          "type": "address",
          "indexed": true,
          "internalType": "address"
        },
        {
          "name": "to",
          "type": "address",
          "indexed": true,
          "internalType": "address"
        },
        {
          "name": "amount",
          "type": "uint256",
          "indexed": false,
          "internalType": "uint256"
        },
        {
          "name": "extraData",
          "type": "bytes",
          "indexed": false,
          "internalType": "bytes"
        }
      ],
      "anonymous": false
    },
    {
      "type": "event",
      "name": "ETHWithdrawalFinalized",
      "inputs": [
        {
          "name": "from",
          "type": "address",
          "indexed": true,
          "internalType": "address"
        },
        {
          "name": "to",
          "type": "address",
          "indexed": true,
          "internalType": "address"
        },
        {
          "name": "amount",
          "type": "uint256",
          "indexed": false,
          "internalType": "uint256"
        },
        {
          "name": "extraData",
          "type": "bytes",
          "indexed": false,
          "internalType": "bytes"
        }
      ],
      "anonymous": false
    },
    {
      "type": "event",
      "name": "Initialized",
      "inputs": [
        {
          "name": "version",
          "type": "uint8",
          "indexed": false,
          "internalType": "uint8"
        }
      ],
      "anonymous": false
    }
  ],
  "address": "0x38438fD270112eC87f14F8310fC8E915fDEEf3ec",
  "args": [],
  "bytecode": "0x60806040523480156200001157600080fd5b50620000206000808062000026565b620001f8565b600054600390610100900460ff1615801562000049575060005460ff8083169116105b620000b25760405162461bcd60e51b815260206004820152602e60248201527f496e697469616c697a61626c653a20636f6e747261637420697320616c72656160448201526d191e481a5b9a5d1a585b1a5e995960921b60648201526084015b60405180910390fd5b6000805461ffff191660ff831617610100179055603380546001600160a01b038085166001600160a01b031992831617909255603280549286169290911691909117905562000116847342000000000000000000000000000000000000106200015d565b6000805461ff001916905560405160ff821681527f7f26b83ff96e1f2b6a682f133852f6798a09c465da95921460cefb38474024989060200160405180910390a150505050565b600054610100900460ff16620001ca5760405162461bcd60e51b815260206004820152602b60248201527f496e697469616c697a61626c653a20636f6e7472616374206973206e6f74206960448201526a6e697469616c697a696e6760a81b6064820152608401620000a9565b600380546001600160a01b039384166001600160a01b03199182161790915560048054929093169116179055565b6136ec80620002086000396000f3fe6080604052600436106101d15760003560e01c8063838b2520116100f757806395911e5a11610095578063c0c53b8b11610064578063c0c53b8b14610628578063c89701a214610648578063e11013dd14610675578063e56b44a31461045f57600080fd5b806395911e5a146104ff5780639a2ac6d5146105e2578063a9f9e675146105f5578063b1a1a8821461061557600080fd5b80638f601f66116100d15780638f601f661461053f57806391c49bf8146104b4578063927ede2d1461058557806392a162cf146105b057600080fd5b8063838b2520146104df57806386c1a9de146104ff578063870876231461051f57600080fd5b80634273ca161161016f5780635791f5c21161013e5780635791f5c21461045f57806358a997f61461047f5780635c975abb1461049f5780637f46ddb2146104b457600080fd5b80634273ca161461039c5780634d0047ee146103bc578063540abf73146103e957806354fd4d501461040957600080fd5b80631532ec34116101ab5780631532ec34146102f75780631635f5fd1461030a57806335e80ab31461031d5780633cb747bf1461036f57600080fd5b80630166a07a1461028f57806301ffc9a7146102af57806309fc8843146102e457600080fd5b3661028a57333b1561026a576040517f08c379a000000000000000000000000000000000000000000000000000000000815260206004820152603760248201527f5374616e646172644272696467653a2066756e6374696f6e2063616e206f6e6c60448201527f792062652063616c6c65642066726f6d20616e20454f4100000000000000000060648201526084015b60405180910390fd5b610288333362030d4060405180602001604052806000815250610688565b005b600080fd5b34801561029b57600080fd5b506102886102aa366004612f2f565b61069b565b3480156102bb57600080fd5b506102cf6102ca366004612fc7565b610be6565b60405190151581526020015b60405180910390f35b6102886102f2366004613022565b610c7f565b610288610305366004613075565b610d56565b610288610318366004613075565b610d6a565b34801561032957600080fd5b5060335461034a9073ffffffffffffffffffffffffffffffffffffffff1681565b60405173ffffffffffffffffffffffffffffffffffffffff90911681526020016102db565b34801561037b57600080fd5b5060035461034a9073ffffffffffffffffffffffffffffffffffffffff1681565b3480156103a857600080fd5b506102cf6103b7366004613075565b611134565b3480156103c857600080fd5b5060325461034a9073ffffffffffffffffffffffffffffffffffffffff1681565b3480156103f557600080fd5b506102886104043660046130e8565b6112e9565b34801561041557600080fd5b506104526040518060400160405280600581526020017f322e312e3000000000000000000000000000000000000000000000000000000081525081565b6040516102db91906131d5565b34801561046b57600080fd5b5061028861047a3660046131e8565b61132e565b34801561048b57600080fd5b5061028861049a36600461323c565b611371565b3480156104ab57600080fd5b506102cf61144d565b3480156104c057600080fd5b5060045473ffffffffffffffffffffffffffffffffffffffff1661034a565b3480156104eb57600080fd5b506102886104fa3660046130e8565b6114e6565b34801561050b57600080fd5b5061028861051a3660046132bf565b61152b565b34801561052b57600080fd5b5061028861053a36600461323c565b6115fd565b34801561054b57600080fd5b5061057761055a366004613319565b600260209081526000928352604080842090915290825290205481565b6040519081526020016102db565b34801561059157600080fd5b5060035473ffffffffffffffffffffffffffffffffffffffff1661034a565b3480156105bc57600080fd5b506105d06105cb366004613352565b6116d1565b6040516102db96959493929190613394565b6102886105f0366004613420565b6117ba565b34801561060157600080fd5b50610288610610366004612f2f565b6117fc565b610288610623366004613022565b61180b565b34801561063457600080fd5b5061028861064336600461344f565b6118dc565b34801561065457600080fd5b5060045461034a9073ffffffffffffffffffffffffffffffffffffffff1681565b610288610683366004613420565b611a92565b6106958484348585611ad5565b50505050565b60035473ffffffffffffffffffffffffffffffffffffffff163314801561076e575060048054600354604080517f6e296e45000000000000000000000000000000000000000000000000000000008152905173ffffffffffffffffffffffffffffffffffffffff938416949390921692636e296e459282820192602092908290030181865afa158015610732573d6000803e3d6000fd5b505050506040513d601f19601f82011682018060405250810190610756919061349a565b73ffffffffffffffffffffffffffffffffffffffff16145b610820576040517f08c379a000000000000000000000000000000000000000000000000000000000815260206004820152604160248201527f5374616e646172644272696467653a2066756e6374696f6e2063616e206f6e6c60448201527f792062652063616c6c65642066726f6d20746865206f7468657220627269646760648201527f6500000000000000000000000000000000000000000000000000000000000000608482015260a401610261565b61082987611d7c565b8015610850575060325473ffffffffffffffffffffffffffffffffffffffff888116911614155b1561099e5761085f8787611dd8565b610911576040517f08c379a000000000000000000000000000000000000000000000000000000000815260206004820152604a60248201527f5374616e646172644272696467653a2077726f6e672072656d6f746520746f6b60448201527f656e20666f72204f7074696d69736d204d696e7461626c65204552433230206c60648201527f6f63616c20746f6b656e00000000000000000000000000000000000000000000608482015260a401610261565b6040517f40c10f1900000000000000000000000000000000000000000000000000000000815273ffffffffffffffffffffffffffffffffffffffff8581166004830152602482018590528816906340c10f1990604401600060405180830381600087803b15801561098157600080fd5b505af1158015610995573d6000803e3d6000fd5b50505050610bdd565b73ffffffffffffffffffffffffffffffffffffffff87161580156109eb575073ffffffffffffffffffffffffffffffffffffffff8616734200000000000000000000000000000000000486145b15610ae4576000610a0d855a8660405180602001604052806000815250611ef8565b905080610a9c576040517f08c379a000000000000000000000000000000000000000000000000000000000815260206004820152602360248201527f5374616e646172644272696467653a20455448207472616e736665722066616960448201527f6c656400000000000000000000000000000000000000000000000000000000006064820152608401610261565b610ade86868686868080601f016020809104026020016040519081016040528093929190818152602001838380828437600092019190915250611f1292505050565b50610b49565b610b0573ffffffffffffffffffffffffffffffffffffffff88168585611f85565b610b49878787878787878080601f01602080910402602001604051908101604052809392919081815260200183838082843760009201919091525061205992505050565b60325473ffffffffffffffffffffffffffffffffffffffff888116911614610bdd5773ffffffffffffffffffffffffffffffffffffffff8088166000908152600260209081526040808320938a1683529290522054610ba99084906134e6565b73ffffffffffffffffffffffffffffffffffffffff8089166000908152600260209081526040808320938b16835292905220555b50505050505050565b60007fffffffff0000000000000000000000000000000000000000000000000000000082167f4273ca16000000000000000000000000000000000000000000000000000000001480610c7957507fffffffff0000000000000000000000000000000000000000000000000000000082167f01ffc9a700000000000000000000000000000000000000000000000000000000145b92915050565b333b15610d0e576040517f08c379a000000000000000000000000000000000000000000000000000000000815260206004820152603760248201527f5374616e646172644272696467653a2066756e6374696f6e2063616e206f6e6c60448201527f792062652063616c6c65642066726f6d20616e20454f410000000000000000006064820152608401610261565b610d513333348686868080601f016020809104026020016040519081016040528093929190818152602001838380828437600092019190915250611ad592505050565b505050565b610d638585858585610d6a565b5050505050565b60035473ffffffffffffffffffffffffffffffffffffffff1633148015610e3d575060048054600354604080517f6e296e45000000000000000000000000000000000000000000000000000000008152905173ffffffffffffffffffffffffffffffffffffffff938416949390921692636e296e459282820192602092908290030181865afa158015610e01573d6000803e3d6000fd5b505050506040513d601f19601f82011682018060405250810190610e25919061349a565b73ffffffffffffffffffffffffffffffffffffffff16145b610eef576040517f08c379a000000000000000000000000000000000000000000000000000000000815260206004820152604160248201527f5374616e646172644272696467653a2066756e6374696f6e2063616e206f6e6c60448201527f792062652063616c6c65642066726f6d20746865206f7468657220627269646760648201527f6500000000000000000000000000000000000000000000000000000000000000608482015260a401610261565b3415610f7d576040517f08c379a000000000000000000000000000000000000000000000000000000000815260206004820152603e60248201527f5374616e646172644272696467653a206d757374206e6f74207265636569766560448201527f204574686572206576656e20696620746869732069732070617961626c6500006064820152608401610261565b3073ffffffffffffffffffffffffffffffffffffffff851603611022576040517f08c379a000000000000000000000000000000000000000000000000000000000815260206004820152602360248201527f5374616e646172644272696467653a2063616e6e6f742073656e6420746f207360448201527f656c6600000000000000000000000000000000000000000000000000000000006064820152608401610261565b60035473ffffffffffffffffffffffffffffffffffffffff908116908516036110cd576040517f08c379a000000000000000000000000000000000000000000000000000000000815260206004820152602860248201527f5374616e646172644272696467653a2063616e6e6f742073656e6420746f206d60448201527f657373656e6765720000000000000000000000000000000000000000000000006064820152608401610261565b6003546032546110f89173ffffffffffffffffffffffffffffffffffffffff918216911630866120e7565b603254610d639073ffffffffffffffffffffffffffffffffffffffff1673deaddeaddeaddeaddeaddeaddeaddeaddead0000878787878761069b565b60325460009073ffffffffffffffffffffffffffffffffffffffff1633146111de576040517f08c379a000000000000000000000000000000000000000000000000000000000815260206004820152602960248201527f6f6e6c7920616363657074206e617469766520746f6b656e20617070726f766560448201527f2063616c6c6261636b00000000000000000000000000000000000000000000006064820152608401610261565b60008060008060006111f088886116d1565b8080601f016020809104026020016040519081016040528093929190818152602001838380828437600092019190915250969b50949950929750909550935050505073ffffffffffffffffffffffffffffffffffffffff8b811690861614801561125957508289145b80156112655750600083115b6112cb576040517f08c379a000000000000000000000000000000000000000000000000000000000815260206004820152601660248201527f696e76616c6964206f6e417070726f76652064617461000000000000000000006044820152606401610261565b6112d88585858585612145565b5060019a9950505050505050505050565b610bdd87873388888888888080601f01602080910402602001604051908101604052809392919081815260200183838082843760009201919091525061233b92505050565b610d633386868686868080601f01602080910402602001604051908101604052809392919081815260200183838082843760009201919091525061214592505050565b333b15611400576040517f08c379a000000000000000000000000000000000000000000000000000000000815260206004820152603760248201527f5374616e646172644272696467653a2066756e6374696f6e2063616e206f6e6c60448201527f792062652063616c6c65642066726f6d20616e20454f410000000000000000006064820152608401610261565b61144586863333888888888080601f01602080910402602001604051908101604052809392919081815260200183838082843760009201919091525061237e92505050565b505050505050565b603354604080517f5c975abb000000000000000000000000000000000000000000000000000000008152905160009273ffffffffffffffffffffffffffffffffffffffff1691635c975abb9160048083019260209291908290030181865afa1580156114bd573d6000803e3d6000fd5b505050506040513d601f19601f820116820180604052508101906114e191906134fd565b905090565b610bdd87873388888888888080601f01602080910402602001604051908101604052809392919081815260200183838082843760009201919091525061237e92505050565b333b156115ba576040517f08c379a000000000000000000000000000000000000000000000000000000000815260206004820152603760248201527f5374616e646172644272696467653a2066756e6374696f6e2063616e206f6e6c60448201527f792062652063616c6c65642066726f6d20616e20454f410000000000000000006064820152608401610261565b6106953333868686868080601f01602080910402602001604051908101604052809392919081815260200183838082843760009201919091525061214592505050565b333b1561168c576040517f08c379a000000000000000000000000000000000000000000000000000000000815260206004820152603760248201527f5374616e646172644272696467653a2066756e6374696f6e2063616e206f6e6c60448201527f792062652063616c6c65642066726f6d20616e20454f410000000000000000006064820152608401610261565b61144586863333888888888080601f01602080910402602001604051908101604052809392919081815260200183838082843760009201919091525061233b92505050565b60008080803681604c871015611769576040517f08c379a000000000000000000000000000000000000000000000000000000000815260206004820152602b60248201527f496e76616c6964206f6e417070726f7665206461746120666f72204c3153746160448201527f6e646172644272696467650000000000000000000000000000000000000000006064820152608401610261565b5050508435606090811c96601487013590911c95602881013595604882013560e01c9550604c90910193507fffffffffffffffffffffffffffffffffffffffffffffffffffffffffffffffb4019150565b61069533858585858080601f01602080910402602001604051908101604052809392919081815260200183838082843760009201919091525061068892505050565b610bdd8787878787878761069b565b333b1561189a576040517f08c379a000000000000000000000000000000000000000000000000000000000815260206004820152603760248201527f5374616e646172644272696467653a2066756e6374696f6e2063616e206f6e6c60448201527f792062652063616c6c65642066726f6d20616e20454f410000000000000000006064820152608401610261565b610d5133338585858080601f01602080910402602001604051908101604052809392919081815260200183838082843760009201919091525061068892505050565b600054600390610100900460ff161580156118fe575060005460ff8083169116105b61198a576040517f08c379a000000000000000000000000000000000000000000000000000000000815260206004820152602e60248201527f496e697469616c697a61626c653a20636f6e747261637420697320616c72656160448201527f647920696e697469616c697a65640000000000000000000000000000000000006064820152608401610261565b600080547fffffffffffffffffffffffffffffffffffffffffffffffffffffffffffff00001660ff8316176101001790556033805473ffffffffffffffffffffffffffffffffffffffff8085167fffffffffffffffffffffffff0000000000000000000000000000000000000000928316179092556032805492861692909116919091179055611a2e8473420000000000000000000000000000000000001061238d565b600080547fffffffffffffffffffffffffffffffffffffffffffffffffffffffffffff00ff16905560405160ff821681527f7f26b83ff96e1f2b6a682f133852f6798a09c465da95921460cefb38474024989060200160405180910390a150505050565b6106953385348686868080601f016020809104026020016040519081016040528093929190818152602001838380828437600092019190915250611ad592505050565b823414611b64576040517f08c379a000000000000000000000000000000000000000000000000000000000815260206004820152603e60248201527f5374616e646172644272696467653a206272696467696e6720455448206d757360448201527f7420696e636c7564652073756666696369656e74204554482076616c756500006064820152608401610261565b7342000000000000000000000000000000000004866000527fac33ff75c19e70fe83507db0d683fd3465c996598dc972688b7ace676c89077b6020527f93848fc853fd2af31e80d9c5877c6e8e6fe1846ae85b985f9f0f735e671f910054611bcd90849061351f565b7342000000000000000000000000000000000004866000527fac33ff75c19e70fe83507db0d683fd3465c996598dc972688b7ace676c89077b6020527f93848fc853fd2af31e80d9c5877c6e8e6fe1846ae85b985f9f0f735e671f910055611c3785858584612477565b60035460045460405173ffffffffffffffffffffffffffffffffffffffff92831692633dbb202b9216907f0166a07a0000000000000000000000000000000000000000000000000000000090611cb090734200000000000000000000000000000000000486906000908c908c908c908b90602401613537565b604080517fffffffffffffffffffffffffffffffffffffffffffffffffffffffffffffffe08184030181529181526020820180517bffffffffffffffffffffffffffffffffffffffffffffffffffffffff167fffffffff000000000000000000000000000000000000000000000000000000009485161790525160e085901b9092168252611d4392918790600401613592565b600060405180830381600087803b158015611d5d57600080fd5b505af1158015611d71573d6000803e3d6000fd5b505050505050505050565b6000611da8827f1d1d8b63000000000000000000000000000000000000000000000000000000006124ea565b80610c795750610c79827fec4fc8e3000000000000000000000000000000000000000000000000000000006124ea565b6000611e04837f1d1d8b63000000000000000000000000000000000000000000000000000000006124ea565b15611ead578273ffffffffffffffffffffffffffffffffffffffff1663c01e1bd66040518163ffffffff1660e01b8152600401602060405180830381865afa158015611e54573d6000803e3d6000fd5b505050506040513d601f19601f82011682018060405250810190611e78919061349a565b73ffffffffffffffffffffffffffffffffffffffff168273ffffffffffffffffffffffffffffffffffffffff16149050610c79565b8273ffffffffffffffffffffffffffffffffffffffff1663d6c0b2c46040518163ffffffff1660e01b8152600401602060405180830381865afa158015611e54573d6000803e3d6000fd5b600080600080845160208601878a8af19695505050505050565b8273ffffffffffffffffffffffffffffffffffffffff168473ffffffffffffffffffffffffffffffffffffffff167f2ac69ee804d9a7a0984249f508dfab7cb2534b465b6ce1580f99a38ba9c5e6318484604051611f719291906135d7565b60405180910390a36106958484848461250d565b60405173ffffffffffffffffffffffffffffffffffffffff8316602482015260448101829052610d519084907fa9059cbb00000000000000000000000000000000000000000000000000000000906064015b604080517fffffffffffffffffffffffffffffffffffffffffffffffffffffffffffffffe08184030181529190526020810180517bffffffffffffffffffffffffffffffffffffffffffffffffffffffff167fffffffff000000000000000000000000000000000000000000000000000000009093169290921790915261257a565b8373ffffffffffffffffffffffffffffffffffffffff168573ffffffffffffffffffffffffffffffffffffffff168773ffffffffffffffffffffffffffffffffffffffff167f3ceee06c1e37648fcbb6ed52e17b3e1f275a1f8c7b22a84b2b84732431e046b38686866040516120d1939291906135f0565b60405180910390a4611445868686868686612686565b60405173ffffffffffffffffffffffffffffffffffffffff808516602483015283166044820152606481018290526106959085907f23b872dd0000000000000000000000000000000000000000000000000000000090608401611fd7565b60325461216a9073ffffffffffffffffffffffffffffffffffffffff168630866120e7565b6032546003546040517f095ea7b300000000000000000000000000000000000000000000000000000000815273ffffffffffffffffffffffffffffffffffffffff91821660048201526024810186905291169063095ea7b3906044016020604051808303816000875af11580156121e5573d6000803e3d6000fd5b505050506040513d601f19601f8201168201806040525081019061220991906134fd565b506032546122459073ffffffffffffffffffffffffffffffffffffffff1673deaddeaddeaddeaddeaddeaddeaddeaddead00008787878661270e565b60035460045460405173ffffffffffffffffffffffffffffffffffffffff9283169263e0e593c592169086907f1635f5fd00000000000000000000000000000000000000000000000000000000906122a7908b908b9085908a9060240161362e565b604080517fffffffffffffffffffffffffffffffffffffffffffffffffffffffffffffffe08184030181529181526020820180517bffffffffffffffffffffffffffffffffffffffffffffffffffffffff167fffffffff000000000000000000000000000000000000000000000000000000009485161790525160e086901b9092168252611d439392918890600401613677565b60325473ffffffffffffffffffffffffffffffffffffffff80891691160361236f5761236a8585858585612145565b610bdd565b610bdd8787878787878761279c565b610bdd8787878787878761233b565b600054610100900460ff16612424576040517f08c379a000000000000000000000000000000000000000000000000000000000815260206004820152602b60248201527f496e697469616c697a61626c653a20636f6e7472616374206973206e6f74206960448201527f6e697469616c697a696e670000000000000000000000000000000000000000006064820152608401610261565b6003805473ffffffffffffffffffffffffffffffffffffffff9384167fffffffffffffffffffffffff00000000000000000000000000000000000000009182161790915560048054929093169116179055565b8273ffffffffffffffffffffffffffffffffffffffff168473ffffffffffffffffffffffffffffffffffffffff167f35d79ab81f2b2017e19afb5c5571778877782d7a8786f5907f93b0f4702f4f2384846040516124d69291906135d7565b60405180910390a361069584848484612ac7565b60006124f583612b26565b801561250657506125068383612b8a565b9392505050565b8273ffffffffffffffffffffffffffffffffffffffff168473ffffffffffffffffffffffffffffffffffffffff167f31b2166ff604fc5672ea5df08a78081d2bc6d746cadce880747f3643d819e83d848460405161256c9291906135d7565b60405180910390a350505050565b60006125dc826040518060400160405280602081526020017f5361666545524332303a206c6f772d6c6576656c2063616c6c206661696c65648152508573ffffffffffffffffffffffffffffffffffffffff16612c599092919063ffffffff16565b805190915015610d5157808060200190518101906125fa91906134fd565b610d51576040517f08c379a000000000000000000000000000000000000000000000000000000000815260206004820152602a60248201527f5361666545524332303a204552433230206f7065726174696f6e20646964206e60448201527f6f742073756363656564000000000000000000000000000000000000000000006064820152608401610261565b8373ffffffffffffffffffffffffffffffffffffffff168573ffffffffffffffffffffffffffffffffffffffff168773ffffffffffffffffffffffffffffffffffffffff167fd59c65b35445225835c83f50b6ede06a7be047d22e357073e250d9af537518cd8686866040516126fe939291906135f0565b60405180910390a4505050505050565b8373ffffffffffffffffffffffffffffffffffffffff168573ffffffffffffffffffffffffffffffffffffffff168773ffffffffffffffffffffffffffffffffffffffff167f718594027abd4eaed59f95162563e0cc6d0e8d5b86b1c7be8b1b0ac3343d0396868686604051612786939291906135f0565b60405180910390a4611445868686868686612c70565b6127a587611d7c565b156128f3576127b48787611dd8565b612866576040517f08c379a000000000000000000000000000000000000000000000000000000000815260206004820152604a60248201527f5374616e646172644272696467653a2077726f6e672072656d6f746520746f6b60448201527f656e20666f72204f7074696d69736d204d696e7461626c65204552433230206c60648201527f6f63616c20746f6b656e00000000000000000000000000000000000000000000608482015260a401610261565b6040517f9dc29fac00000000000000000000000000000000000000000000000000000000815273ffffffffffffffffffffffffffffffffffffffff868116600483015260248201859052881690639dc29fac90604401600060405180830381600087803b1580156128d657600080fd5b505af11580156128ea573d6000803e3d6000fd5b50505050612987565b61291573ffffffffffffffffffffffffffffffffffffffff88168630866120e7565b73ffffffffffffffffffffffffffffffffffffffff8088166000908152600260209081526040808320938a168352929052205461295390849061351f565b73ffffffffffffffffffffffffffffffffffffffff8089166000908152600260209081526040808320938b16835292905220555b61299587878787878661270e565b60035460045460405173ffffffffffffffffffffffffffffffffffffffff92831692633dbb202b9216907f0166a07a00000000000000000000000000000000000000000000000000000000906129f9908b908d908c908c908c908b90602401613537565b604080517fffffffffffffffffffffffffffffffffffffffffffffffffffffffffffffffe08184030181529181526020820180517bffffffffffffffffffffffffffffffffffffffffffffffffffffffff167fffffffff000000000000000000000000000000000000000000000000000000009485161790525160e085901b9092168252612a8c92918790600401613592565b600060405180830381600087803b158015612aa657600080fd5b505af1158015612aba573d6000803e3d6000fd5b5050505050505050505050565b8273ffffffffffffffffffffffffffffffffffffffff168473ffffffffffffffffffffffffffffffffffffffff167f2849b43074093a05396b6f2a937dee8565b15a48a7b3d4bffb732a5017380af5848460405161256c9291906135d7565b6000612b52827f01ffc9a700000000000000000000000000000000000000000000000000000000612b8a565b8015610c795750612b83827fffffffff00000000000000000000000000000000000000000000000000000000612b8a565b1592915050565b604080517fffffffff000000000000000000000000000000000000000000000000000000008316602480830191909152825180830390910181526044909101909152602080820180517bffffffffffffffffffffffffffffffffffffffffffffffffffffffff167f01ffc9a700000000000000000000000000000000000000000000000000000000178152825160009392849283928392918391908a617530fa92503d91506000519050828015612c42575060208210155b8015612c4e5750600081115b979650505050505050565b6060612c688484600085612ce8565b949350505050565b8373ffffffffffffffffffffffffffffffffffffffff168573ffffffffffffffffffffffffffffffffffffffff168773ffffffffffffffffffffffffffffffffffffffff167f7ff126db8024424bbfd9826e8ab82ff59136289ea440b04b39a0df1b03b9cabf8686866040516126fe939291906135f0565b606082471015612d7a576040517f08c379a000000000000000000000000000000000000000000000000000000000815260206004820152602660248201527f416464726573733a20696e73756666696369656e742062616c616e636520666f60448201527f722063616c6c00000000000000000000000000000000000000000000000000006064820152608401610261565b73ffffffffffffffffffffffffffffffffffffffff85163b612df8576040517f08c379a000000000000000000000000000000000000000000000000000000000815260206004820152601d60248201527f416464726573733a2063616c6c20746f206e6f6e2d636f6e74726163740000006044820152606401610261565b6000808673ffffffffffffffffffffffffffffffffffffffff168587604051612e2191906136c3565b60006040518083038185875af1925050503d8060008114612e5e576040519150601f19603f3d011682016040523d82523d6000602084013e612e63565b606091505b5091509150612c4e82828660608315612e7d575081612506565b825115612e8d5782518084602001fd5b816040517f08c379a000000000000000000000000000000000000000000000000000000000815260040161026191906131d5565b73ffffffffffffffffffffffffffffffffffffffff81168114612ee357600080fd5b50565b60008083601f840112612ef857600080fd5b50813567ffffffffffffffff811115612f1057600080fd5b602083019150836020828501011115612f2857600080fd5b9250929050565b600080600080600080600060c0888a031215612f4a57600080fd5b8735612f5581612ec1565b96506020880135612f6581612ec1565b95506040880135612f7581612ec1565b94506060880135612f8581612ec1565b93506080880135925060a088013567ffffffffffffffff811115612fa857600080fd5b612fb48a828b01612ee6565b989b979a50959850939692959293505050565b600060208284031215612fd957600080fd5b81357fffffffff000000000000000000000000000000000000000000000000000000008116811461250657600080fd5b803563ffffffff8116811461301d57600080fd5b919050565b60008060006040848603121561303757600080fd5b61304084613009565b9250602084013567ffffffffffffffff81111561305c57600080fd5b61306886828701612ee6565b9497909650939450505050565b60008060008060006080868803121561308d57600080fd5b853561309881612ec1565b945060208601356130a881612ec1565b935060408601359250606086013567ffffffffffffffff8111156130cb57600080fd5b6130d788828901612ee6565b969995985093965092949392505050565b600080600080600080600060c0888a03121561310357600080fd5b873561310e81612ec1565b9650602088013561311e81612ec1565b9550604088013561312e81612ec1565b94506060880135935061314360808901613009565b925060a088013567ffffffffffffffff811115612fa857600080fd5b60005b8381101561317a578181015183820152602001613162565b838111156106955750506000910152565b600081518084526131a381602086016020860161315f565b601f017fffffffffffffffffffffffffffffffffffffffffffffffffffffffffffffffe0169290920160200192915050565b602081526000612506602083018461318b565b60008060008060006080868803121561320057600080fd5b853561320b81612ec1565b94506020860135935061322060408701613009565b9250606086013567ffffffffffffffff8111156130cb57600080fd5b60008060008060008060a0878903121561325557600080fd5b863561326081612ec1565b9550602087013561327081612ec1565b94506040870135935061328560608801613009565b9250608087013567ffffffffffffffff8111156132a157600080fd5b6132ad89828a01612ee6565b979a9699509497509295939492505050565b600080600080606085870312156132d557600080fd5b843593506132e560208601613009565b9250604085013567ffffffffffffffff81111561330157600080fd5b61330d87828801612ee6565b95989497509550505050565b6000806040838503121561332c57600080fd5b823561333781612ec1565b9150602083013561334781612ec1565b809150509250929050565b6000806020838503121561336557600080fd5b823567ffffffffffffffff81111561337c57600080fd5b61338885828601612ee6565b90969095509350505050565b600073ffffffffffffffffffffffffffffffffffffffff808916835280881660208401525085604083015263ffffffff8516606083015260a060808301528260a0830152828460c0840137600060c0848401015260c07fffffffffffffffffffffffffffffffffffffffffffffffffffffffffffffffe0601f8501168301019050979650505050505050565b6000806000806060858703121561343657600080fd5b843561344181612ec1565b93506132e560208601613009565b60008060006060848603121561346457600080fd5b833561346f81612ec1565b9250602084013561347f81612ec1565b9150604084013561348f81612ec1565b809150509250925092565b6000602082840312156134ac57600080fd5b815161250681612ec1565b7f4e487b7100000000000000000000000000000000000000000000000000000000600052601160045260246000fd5b6000828210156134f8576134f86134b7565b500390565b60006020828403121561350f57600080fd5b8151801515811461250657600080fd5b60008219821115613532576135326134b7565b500190565b600073ffffffffffffffffffffffffffffffffffffffff80891683528088166020840152808716604084015280861660608401525083608083015260c060a083015261358660c083018461318b565b98975050505050505050565b73ffffffffffffffffffffffffffffffffffffffff841681526060602082015260006135c1606083018561318b565b905063ffffffff83166040830152949350505050565b828152604060208201526000612c68604083018461318b565b73ffffffffffffffffffffffffffffffffffffffff84168152826020820152606060408201526000613625606083018461318b565b95945050505050565b600073ffffffffffffffffffffffffffffffffffffffff80871683528086166020840152508360408301526080606083015261366d608083018461318b565b9695505050505050565b73ffffffffffffffffffffffffffffffffffffffff851681528360208201526080604082015260006136ac608083018561318b565b905063ffffffff8316606083015295945050505050565b600082516136d581846020870161315f565b919091019291505056fea164736f6c634300080f000a",
  "devdoc": {
    "version": 1,
    "kind": "dev",
    "methods": {
      "MESSENGER()": {
        "returns": {
          "_0": "Contract of the messenger on this domain."
        }
      },
      "OTHER_BRIDGE()": {
        "returns": {
          "_0": "Contract of the bridge on the other network."
        }
      },
      "bridgeERC20(address,address,uint256,uint32,bytes)": {
        "params": {
          "_amount": "Amount of local tokens to deposit.",
          "_extraData": "Extra data to be sent with the transaction. Note that the recipient will                     not be triggered with this data, but it will be emitted and can be used                     to identify the transaction.",
          "_localToken": "Address of the ERC20 on this chain.",
          "_minGasLimit": "Minimum amount of gas that the bridge can be relayed with.",
          "_remoteToken": "Address of the corresponding token on the remote chain."
        }
      },
      "bridgeERC20To(address,address,address,uint256,uint32,bytes)": {
        "params": {
          "_amount": "Amount of local tokens to deposit.",
          "_extraData": "Extra data to be sent with the transaction. Note that the recipient will                     not be triggered with this data, but it will be emitted and can be used                     to identify the transaction.",
          "_localToken": "Address of the ERC20 on this chain.",
          "_minGasLimit": "Minimum amount of gas that the bridge can be relayed with.",
          "_remoteToken": "Address of the corresponding token on the remote chain.",
          "_to": "Address of the receiver."
        }
      },
      "bridgeETH(uint32,bytes)": {
        "params": {
          "_extraData": "Extra data to be sent with the transaction. Note that the recipient will                     not be triggered with this data, but it will be emitted and can be used                     to identify the transaction.",
          "_minGasLimit": "Minimum amount of gas that the bridge can be relayed with."
        }
      },
      "bridgeETHTo(address,uint32,bytes)": {
        "params": {
          "_extraData": "Extra data to be sent with the transaction. Note that the recipient will                     not be triggered with this data, but it will be emitted and can be used                     to identify the transaction.",
          "_minGasLimit": "Minimum amount of gas that the bridge can be relayed with.",
          "_to": "Address of the receiver."
        }
      },
      "bridgeNativeToken(uint256,uint32,bytes)": {
        "params": {
          "_amount": "Amount of native being bridged.",
          "_extraData": "Optional data to forward to L2.                     Data supplied here will not be used to execute any code on L2 and is                     only emitted as extra data for the convenience of off-chain tooling.",
          "_minGasLimit": "Minimum gas limit for the deposit message on L2."
        }
      },
      "bridgeNativeTokenTo(address,uint256,uint32,bytes)": {
        "params": {
          "_amount": "Amount of native being bridged.",
          "_extraData": "Optional data to forward to L2.                     Data supplied here will not be used to execute any code on L2 and is                     only emitted as extra data for the convenience of off-chain tooling.",
          "_minGasLimit": "Minimum gas limit for the deposit message on L2.",
          "_to": "Address of the recipient on L2."
        }
      },
      "depositERC20(address,address,uint256,uint32,bytes)": {
        "params": {
          "_amount": "Amount of the ERC20 to deposit.",
          "_extraData": "Optional data to forward to L2.                     Data supplied here will not be used to execute any code on L2 and is                     only emitted as extra data for the convenience of off-chain tooling.",
          "_l1Token": "Address of the L1 token being deposited.",
          "_l2Token": "Address of the corresponding token on L2.",
          "_minGasLimit": "Minimum gas limit for the deposit message on L2."
        }
      },
      "depositERC20To(address,address,address,uint256,uint32,bytes)": {
        "params": {
          "_amount": "Amount of the ERC20 to deposit.",
          "_extraData": "Optional data to forward to L2.                     Data supplied here will not be used to execute any code on L2 and is                     only emitted as extra data for the convenience of off-chain tooling.",
          "_l1Token": "Address of the L1 token being deposited.",
          "_l2Token": "Address of the corresponding token on L2.",
          "_minGasLimit": "Minimum gas limit for the deposit message on L2.",
          "_to": "Address of the recipient on L2."
        }
      },
      "depositETH(uint32,bytes)": {
        "params": {
          "_extraData": "Optional data to forward to L2.                     Data supplied here will not be used to execute any code on L2 and is                     only emitted as extra data for the convenience of off-chain tooling.",
          "_minGasLimit": "Minimum gas limit for the deposit message on L2."
        }
      },
      "depositETHTo(address,uint32,bytes)": {
        "params": {
          "_extraData": "Optional data to forward to L2.                     Data supplied here will not be used to execute any code on L2 and is                     only emitted as extra data for the convenience of off-chain tooling.",
          "_minGasLimit": "Minimum gas limit for the deposit message on L2.",
          "_to": "Address of the recipient on L2."
        }
      },
      "depositNativeToken(uint256,uint32,bytes)": {
        "params": {
          "_amount": "Amount of native being bridged.",
          "_extraData": "Optional data to forward to L2.                     Data supplied here will not be used to execute any code on L2 and is                     only emitted as extra data for the convenience of off-chain tooling.",
          "_minGasLimit": "Minimum gas limit for the deposit message on L2."
        }
      },
      "depositNativeTokenTo(address,uint256,uint32,bytes)": {
        "params": {
          "_amount": "Amount of native being bridged.",
          "_extraData": "Optional data to forward to L2.                     Data supplied here will not be used to execute any code on L2 and is                     only emitted as extra data for the convenience of off-chain tooling.",
          "_minGasLimit": "Minimum gas limit for the deposit message on L2.",
          "_to": "Address of the recipient on L2."
        }
      },
      "finalizeBridgeERC20(address,address,address,address,uint256,bytes)": {
        "params": {
          "_amount": "Amount of the ERC20 being bridged.",
          "_extraData": "Extra data to be sent with the transaction. Note that the recipient will                     not be triggered with this data, but it will be emitted and can be used                     to identify the transaction.",
          "_from": "Address of the sender.",
          "_localToken": "Address of the ERC20 on this chain.",
          "_remoteToken": "Address of the corresponding token on the remote chain.",
          "_to": "Address of the receiver."
        }
      },
      "finalizeBridgeETH(address,address,uint256,bytes)": {
        "params": {
          "_amount": "Amount of ETH being bridged.",
          "_extraData": "Extra data to be sent with the transaction. Note that the recipient will                   not be triggered with this data, but it will be emitted and can be used                   to identify the transaction.",
          "_from": "Address of the sender.",
          "_to": "Address of the receiver."
        }
      },
      "finalizeERC20Withdrawal(address,address,address,address,uint256,bytes)": {
        "params": {
          "_amount": "Amount of the ERC20 to withdraw.",
          "_extraData": "Optional data forwarded from L2.",
          "_from": "Address of the withdrawer on L2.",
          "_l1Token": "Address of the token on L1. L1 must be different than l1TokenAddress",
          "_l2Token": "Address of the corresponding token on L2.",
          "_to": "Address of the recipient on L1."
        }
      },
      "finalizeETHWithdrawal(address,address,uint256,bytes)": {
        "params": {
          "_amount": "Amount of ETH to withdraw.",
          "_extraData": "Optional data forwarded from L2.",
          "_from": "Address of the withdrawer on L2.",
          "_to": "Address of the recipient on L1."
        }
      },
      "initialize(address,address,address)": {
        "params": {
          "_messenger": "Contract for the CrossDomainMessenger on this network.",
          "_nativeTokenAddress": "Address of the native token",
          "_superchainConfig": "Contract for the SuperchainConfig on this network."
        }
      },
      "l2TokenBridge()": {
        "returns": {
          "_0": "Address of the corresponding L2 bridge contract."
        }
      },
      "onApprove(address,address,uint256,bytes)": {
        "params": {
          "_amount": "Approved amount",
          "_data": "Data used in OnApprove contract",
          "_owner": "Account that called approveAndCall"
        }
      },
      "paused()": {
        "returns": {
          "_0": "Whether or not the contract is paused."
        }
      },
      "unpackOnApproveData(bytes)": {
        "params": {
          "_data": "Data used in OnApprove contract"
        }
      }
    },
    "events": {
      "ERC20DepositInitiated(address,address,address,address,uint256,bytes)": {
        "params": {
          "amount": "Amount of the ERC20 deposited.",
          "extraData": "Extra data attached to the deposit.",
          "from": "Address of the depositor.",
          "l1Token": "Address of the token on L1.",
          "l2Token": "Address of the corresponding token on L2.",
          "to": "Address of the recipient on L2."
        }
      },
      "ERC20WithdrawalFinalized(address,address,address,address,uint256,bytes)": {
        "params": {
          "amount": "Amount of the ERC20 withdrawn.",
          "extraData": "Extra data attached to the withdrawal.",
          "from": "Address of the withdrawer.",
          "l1Token": "Address of the token on L1.",
          "l2Token": "Address of the corresponding token on L2.",
          "to": "Address of the recipient on L1."
        }
      },
      "ETHDepositInitiated(address,address,uint256,bytes)": {
        "params": {
          "amount": "Amount of ETH deposited.",
          "extraData": "Extra data attached to the deposit.",
          "from": "Address of the depositor.",
          "to": "Address of the recipient on L2."
        }
      },
      "ETHWithdrawalFinalized(address,address,uint256,bytes)": {
        "params": {
          "amount": "Amount of ETH withdrawn.",
          "extraData": "Extra data attached to the withdrawal.",
          "from": "Address of the withdrawer.",
          "to": "Address of the recipient on L1."
        }
      }
    }
  },
  "numDeployments": 2,
  "solcInputHash": "0x0000000000000000000000000000000000000000000000000000000000000000",
  "storageLayout": {
    "storage": [
      {
        "astId": 47744,
        "contract": "src/L1/L1StandardBridge.sol:L1StandardBridge",
        "label": "_initialized",
        "offset": 0,
        "slot": "0",
        "type": "t_uint8"
      },
      {
        "astId": 47747,
        "contract": "src/L1/L1StandardBridge.sol:L1StandardBridge",
        "label": "_initializing",
        "offset": 1,
        "slot": "0",
        "type": "t_bool"
      },
      {
        "astId": 103015,
        "contract": "src/L1/L1StandardBridge.sol:L1StandardBridge",
        "label": "spacer_0_2_30",
        "offset": 2,
        "slot": "0",
        "type": "t_bytes30"
      },
      {
        "astId": 103018,
        "contract": "src/L1/L1StandardBridge.sol:L1StandardBridge",
        "label": "spacer_1_0_20",
        "offset": 0,
        "slot": "1",
        "type": "t_address"
      },
      {
        "astId": 103025,
        "contract": "src/L1/L1StandardBridge.sol:L1StandardBridge",
        "label": "deposits",
        "offset": 0,
        "slot": "2",
        "type": "t_mapping(t_address,t_mapping(t_address,t_uint256))"
      },
      {
        "astId": 103029,
        "contract": "src/L1/L1StandardBridge.sol:L1StandardBridge",
        "label": "messenger",
        "offset": 0,
        "slot": "3",
        "type": "t_contract(CrossDomainMessenger)100959"
      },
      {
        "astId": 103033,
        "contract": "src/L1/L1StandardBridge.sol:L1StandardBridge",
        "label": "otherBridge",
        "offset": 0,
        "slot": "4",
        "type": "t_contract(StandardBridge)103746"
      },
      {
        "astId": 103038,
        "contract": "src/L1/L1StandardBridge.sol:L1StandardBridge",
        "label": "__gap",
        "offset": 0,
        "slot": "5",
        "type": "t_array(t_uint256)45_storage"
      },
      {
        "astId": 74011,
        "contract": "src/L1/L1StandardBridge.sol:L1StandardBridge",
        "label": "nativeTokenAddress",
        "offset": 0,
        "slot": "50",
        "type": "t_address"
      },
      {
        "astId": 74071,
        "contract": "src/L1/L1StandardBridge.sol:L1StandardBridge",
        "label": "superchainConfig",
        "offset": 0,
        "slot": "51",
        "type": "t_contract(SuperchainConfig)80148"
      }
    ],
    "types": {
      "t_address": {
        "encoding": "inplace",
        "label": "address",
        "numberOfBytes": "20"
      },
      "t_array(t_uint256)45_storage": {
        "encoding": "inplace",
        "label": "uint256[45]",
        "numberOfBytes": "1440",
        "base": "t_uint256"
      },
      "t_bool": {
        "encoding": "inplace",
        "label": "bool",
        "numberOfBytes": "1"
      },
      "t_bytes30": {
        "encoding": "inplace",
        "label": "bytes30",
        "numberOfBytes": "30"
      },
      "t_contract(CrossDomainMessenger)100959": {
        "encoding": "inplace",
        "label": "contract CrossDomainMessenger",
        "numberOfBytes": "20"
      },
      "t_contract(StandardBridge)103746": {
        "encoding": "inplace",
        "label": "contract StandardBridge",
        "numberOfBytes": "20"
      },
      "t_contract(SuperchainConfig)80148": {
        "encoding": "inplace",
        "label": "contract SuperchainConfig",
        "numberOfBytes": "20"
      },
      "t_mapping(t_address,t_mapping(t_address,t_uint256))": {
        "encoding": "mapping",
        "key": "t_address",
        "label": "mapping(address => mapping(address => uint256))",
        "numberOfBytes": "32",
        "value": "t_mapping(t_address,t_uint256)"
      },
      "t_mapping(t_address,t_uint256)": {
        "encoding": "mapping",
        "key": "t_address",
        "label": "mapping(address => uint256)",
        "numberOfBytes": "32",
        "value": "t_uint256"
      },
      "t_uint256": {
        "encoding": "inplace",
        "label": "uint256",
        "numberOfBytes": "32"
      },
      "t_uint8": {
        "encoding": "inplace",
        "label": "uint8",
        "numberOfBytes": "1"
      }
    }
  },
  "transactionHash": "0xe79d97c9f018b35e43a30c6f393107763b0521e1fcd6ce02be7d1bf33691fc8e",
  "userdoc": {
    "version": 1,
    "kind": "user",
    "methods": {
      "MESSENGER()": {
        "notice": "Getter for messenger contract.         Public getter is legacy and will be removed in the future. Use `messenger` instead."
      },
      "OTHER_BRIDGE()": {
        "notice": "Getter for the other bridge contract.         Public getter is legacy and will be removed in the future. Use `otherBridge` instead."
      },
      "bridgeERC20(address,address,uint256,uint32,bytes)": {
        "notice": "Sends ERC20 tokens to the sender's address on the other chain. Note that if the         ERC20 token on the other chain does not recognize the local token as the correct         pair token, the ERC20 bridge will fail and the tokens will be returned to sender on         this chain."
      },
      "bridgeERC20To(address,address,address,uint256,uint32,bytes)": {
        "notice": "Sends ERC20 tokens to a receiver's address on the other chain. Note that if the         ERC20 token on the other chain does not recognize the local token as the correct         pair token, the ERC20 bridge will fail and the tokens will be returned to sender on         this chain."
      },
      "bridgeETH(uint32,bytes)": {
        "notice": "Sends ETH to the sender's address on the other chain."
      },
      "bridgeETHTo(address,uint32,bytes)": {
        "notice": "Sends ETH to a receiver's address on the other chain. Note that if ETH is sent to a         smart contract and the call fails, the ETH will be temporarily locked in the         StandardBridge on the other chain until the call is replayed. If the call cannot be         replayed with any amount of gas (call always reverts), then the ETH will be         permanently locked in the StandardBridge on the other chain. ETH will also         be locked if the receiver is the other bridge, because finalizeBridgeETH will revert         in that case."
      },
      "bridgeNativeToken(uint256,uint32,bytes)": {
        "notice": "Deposits some amount of token into the sender's native's account on L2."
      },
      "bridgeNativeTokenTo(address,uint256,uint32,bytes)": {
        "notice": "Deposits some amount of ERC20 token into a target Native's account on L2."
      },
      "constructor": {
        "notice": "Constructs the L1StandardBridge contract."
      },
      "depositETH(uint32,bytes)": {
        "notice": "Deposits some amount of ETH into the sender's ETH's account on L2."
      },
      "depositETHTo(address,uint32,bytes)": {
        "notice": "Deposits some amount of ETH into a target ETH's account on L2.         Note that if ETH is sent to a contract on L2 and the call fails, then that ETH will         be locked in the L2StandardBridge. ETH may be recoverable if the call can be         successfully replayed by increasing the amount of gas supplied to the call. If the         call will fail for any amount of gas, then the ETH will be locked permanently."
      },
      "depositNativeToken(uint256,uint32,bytes)": {
        "notice": "Deposits some amount of token into the sender's native's account on L2."
      },
      "depositNativeTokenTo(address,uint256,uint32,bytes)": {
        "notice": "Deposits some amount of token into the sender's native's account on L2."
      },
      "deposits(address,address)": {
        "notice": "Mapping that stores deposits for a given pair of local and remote tokens."
      },
      "finalizeBridgeERC20(address,address,address,address,uint256,bytes)": {
        "notice": "Finalizes an ERC20 bridge on this chain. Can only be triggered by the other         StandardBridge contract on the remote chain."
      },
      "finalizeBridgeETH(address,address,uint256,bytes)": {
        "notice": "Finalizes an ETH bridge on this chain. Can only be triggered by the other         StandardBridge contract on the remote chain."
      },
      "initialize(address,address,address)": {
        "notice": "Initializer"
      },
      "messenger()": {
        "notice": "Messenger contract on this domain."
      },
      "onApprove(address,address,uint256,bytes)": {
        "notice": "ERC20 onApprove callback"
      },
      "otherBridge()": {
        "notice": "Corresponding bridge on the other domain."
      },
      "paused()": {
        "notice": "This function should return true if the contract is paused.         On L1 this function will check the SuperchainConfig for its paused status.         On L2 this function should be a no-op."
      },
      "superchainConfig()": {
        "notice": "Address of the SuperchainConfig contract."
      },
      "unpackOnApproveData(bytes)": {
        "notice": "unpack onApprove data"
      },
      "version()": {
        "notice": "Semantic version."
      }
    },
    "events": {
      "ERC20BridgeFinalized(address,address,address,address,uint256,bytes)": {
        "notice": "Emitted when an ERC20 bridge is finalized on this chain."
      },
      "ERC20BridgeInitiated(address,address,address,address,uint256,bytes)": {
        "notice": "Emitted when an ERC20 bridge is initiated to the other chain."
      },
      "ETHBridgeFinalized(address,address,uint256,bytes)": {
        "notice": "Emitted when an ETH bridge is finalized on this chain."
      },
      "ETHBridgeInitiated(address,address,uint256,bytes)": {
        "notice": "Emitted when an ETH bridge is initiated to the other chain."
      }
    },
    "notice": "The L1StandardBridge is responsible for transfering ETH and ERC20 tokens between L1 and         L2. In the case that an ERC20 token is native to L1, it will be escrowed within this         contract. If the ERC20 token is native to L2, it will be burnt. Before Bedrock, ETH was         stored within this contract. After Bedrock, ETH is instead stored inside the         OptimismPortal contract.         NOTE: this contract is not intended to support all variations of ERC20 tokens. Examples         of some token types that may not be properly supported by this contract include, but are         not limited to: tokens with transfer fees, rebasing tokens, and tokens with blocklists."
  }
}