{"abi":[{"type":"function","name":"DECIMALS","inputs":[],"outputs":[{"name":"","type":"uint256","internalType":"uint256"}],"stateMutability":"view"},{"type":"function","name":"baseFee","inputs":[],"outputs":[{"name":"","type":"uint256","internalType":"uint256"}],"stateMutability":"view"},{"type":"function","name":"baseFeeScalar","inputs":[],"outputs":[{"name":"","type":"uint32","internalType":"uint32"}],"stateMutability":"view"},{"type":"function","name":"blobBaseFee","inputs":[],"outputs":[{"name":"","type":"uint256","internalType":"uint256"}],"stateMutability":"view"},{"type":"function","name":"blobBaseFeeScalar","inputs":[],"outputs":[{"name":"","type":"uint32","internalType":"uint32"}],"stateMutability":"view"},{"type":"function","name":"decimals","inputs":[],"outputs":[{"name":"","type":"uint256","internalType":"uint256"}],"stateMutability":"pure"},{"type":"function","name":"gasPrice","inputs":[],"outputs":[{"name":"","type":"uint256","internalType":"uint256"}],"stateMutability":"view"},{"type":"function","name":"getL1Fee","inputs":[{"name":"_data","type":"bytes","internalType":"bytes"}],"outputs":[{"name":"","type":"uint256","internalType":"uint256"}],"stateMutability":"view"},{"type":"function","name":"getL1FeeUpperBound","inputs":[{"name":"_unsignedTxSize","type":"uint256","internalType":"uint256"}],"outputs":[{"name":"","type":"uint256","internalType":"uint256"}],"stateMutability":"view"},{"type":"function","name":"getL1GasUsed","inputs":[{"name":"_data","type":"bytes","internalType":"bytes"}],"outputs":[{"name":"","type":"uint256","internalType":"uint256"}],"stateMutability":"view"},{"type":"function","name":"getOperatorFee","inputs":[{"name":"_gasUsed","type":"uint256","internalType":"uint256"}],"outputs":[{"name":"","type":"uint256","internalType":"uint256"}],"stateMutability":"view"},{"type":"function","name":"isEcotone","inputs":[],"outputs":[{"name":"","type":"bool","internalType":"bool"}],"stateMutability":"view"},{"type":"function","name":"isFjord","inputs":[],"outputs":[{"name":"","type":"bool","internalType":"bool"}],"stateMutability":"view"},{"type":"function","name":"isIsthmus","inputs":[],"outputs":[{"name":"","type":"bool","internalType":"bool"}],"stateMutability":"view"},{"type":"function","name":"l1BaseFee","inputs":[],"outputs":[{"name":"","type":"uint256","internalType":"uint256"}],"stateMutability":"view"},{"type":"function","name":"overhead","inputs":[],"outputs":[{"name":"","type":"uint256","internalType":"uint256"}],"stateMutability":"view"},{"type":"function","name":"scalar","inputs":[],"outputs":[{"name":"","type":"uint256","internalType":"uint256"}],"stateMutability":"view"},{"type":"function","name":"setEcotone","inputs":[],"outputs":[],"stateMutability":"nonpayable"},{"type":"function","name":"setFjord","inputs":[],"outputs":[],"stateMutability":"nonpayable"},{"type":"function","name":"setIsthmus","inputs":[],"outputs":[],"stateMutability":"nonpayable"},{"type":"function","name":"version","inputs":[],"outputs":[{"name":"","type":"string","internalType":"string"}],"stateMutability":"view"}],"bytecode":{"object":"0x608060405234801561001057600080fd5b50611c3c806100206000396000f3fe608060405234801561001057600080fd5b50600436106101775760003560e01c806368d5dca6116100d8578063c59859181161008c578063f45e65d811610066578063f45e65d8146102ca578063f8206140146102d2578063fe173b971461026957600080fd5b8063c59859181461029c578063de26c4a1146102a4578063f1c7a58b146102b757600080fd5b80638e98b106116100bd5780638e98b1061461026f578063960e3a2314610277578063b54501bc1461028957600080fd5b806368d5dca61461024c5780636ef25c3a1461026957600080fd5b8063313ce5671161012f5780634ef6e224116101145780634ef6e224146101de578063519b4bd3146101fb57806354fd4d501461020357600080fd5b8063313ce567146101c457806349948e0e146101cb57600080fd5b8063275aedd211610160578063275aedd2146101a1578063291b0383146101b45780632e0f2625146101bc57600080fd5b80630c18c1621461017c57806322b90ab314610197575b600080fd5b6101846102da565b6040519081526020015b60405180910390f35b61019f6103fb565b005b6101846101af36600461168e565b610584565b61019f61070f565b610184600681565b6006610184565b6101846101d93660046116d6565b610937565b6000546101eb9060ff1681565b604051901515815260200161018e565b61018461096e565b61023f6040518060400160405280600581526020017f312e342e3000000000000000000000000000000000000000000000000000000081525081565b60405161018e91906117a5565b6102546109cf565b60405163ffffffff909116815260200161018e565b48610184565b61019f610a54565b6000546101eb90610100900460ff1681565b6000546101eb9062010000900460ff1681565b610254610c4e565b6101846102b23660046116d6565b610caf565b6101846102c536600461168e565b610da9565b610184610e85565b610184610f78565b6000805460ff1615610373576040517f08c379a000000000000000000000000000000000000000000000000000000000815260206004820152602860248201527f47617350726963654f7261636c653a206f76657268656164282920697320646560448201527f707265636174656400000000000000000000000000000000000000000000000060648201526084015b60405180910390fd5b73420000000000000000000000000000000000001573ffffffffffffffffffffffffffffffffffffffff16638b239f736040518163ffffffff1660e01b8152600401602060405180830381865afa1580156103d2573d6000803e3d6000fd5b505050506040513d601f19601f820116820180604052508101906103f69190611818565b905090565b3373deaddeaddeaddeaddeaddeaddeaddeaddead0001146104c4576040517f08c379a000000000000000000000000000000000000000000000000000000000815260206004820152604160248201527f47617350726963654f7261636c653a206f6e6c7920746865206465706f73697460448201527f6f72206163636f756e742063616e2073657420697345636f746f6e6520666c6160648201527f6700000000000000000000000000000000000000000000000000000000000000608482015260a40161036a565b60005460ff1615610557576040517f08c379a000000000000000000000000000000000000000000000000000000000815260206004820152602660248201527f47617350726963654f7261636c653a2045636f746f6e6520616c72656164792060448201527f6163746976650000000000000000000000000000000000000000000000000000606482015260840161036a565b600080547fffffffffffffffffffffffffffffffffffffffffffffffffffffffffffffff00166001179055565b6000805462010000900460ff1661059d57506000919050565b610709620f42406106668473420000000000000000000000000000000000001573ffffffffffffffffffffffffffffffffffffffff16634d5d9a2a6040518163ffffffff1660e01b8152600401602060405180830381865afa158015610607573d6000803e3d6000fd5b505050506040513d601f19601f8201168201806040525081019061062b9190611831565b63ffffffff167fffffffffffffffffffffffffffffffffffffffffffffffffffffffffffffffff821583830293840490921491909117011790565b6106709190611886565b73420000000000000000000000000000000000001573ffffffffffffffffffffffffffffffffffffffff166316d3bc7f6040518163ffffffff1660e01b8152600401602060405180830381865afa1580156106cf573d6000803e3d6000fd5b505050506040513d601f19601f820116820180604052508101906106f391906118c1565b67ffffffffffffffff1681019081106000031790565b92915050565b3373deaddeaddeaddeaddeaddeaddeaddeaddead0001146107d8576040517f08c379a000000000000000000000000000000000000000000000000000000000815260206004820152604160248201527f47617350726963654f7261636c653a206f6e6c7920746865206465706f73697460448201527f6f72206163636f756e742063616e20736574206973497374686d757320666c6160648201527f6700000000000000000000000000000000000000000000000000000000000000608482015260a40161036a565b600054610100900460ff1661086f576040517f08c379a000000000000000000000000000000000000000000000000000000000815260206004820152603960248201527f47617350726963654f7261636c653a20497374686d75732063616e206f6e6c7960448201527f2062652061637469766174656420616674657220466a6f726400000000000000606482015260840161036a565b60005462010000900460ff1615610908576040517f08c379a000000000000000000000000000000000000000000000000000000000815260206004820152602660248201527f47617350726963654f7261636c653a20497374686d757320616c72656164792060448201527f6163746976650000000000000000000000000000000000000000000000000000606482015260840161036a565b600080547fffffffffffffffffffffffffffffffffffffffffffffffffffffffffff00ffff1662010000179055565b60008054610100900460ff16156109515761070982610fd9565b60005460ff16156109655761070982610ff8565b6107098261109c565b600073420000000000000000000000000000000000001573ffffffffffffffffffffffffffffffffffffffff16635cf249696040518163ffffffff1660e01b8152600401602060405180830381865afa1580156103d2573d6000803e3d6000fd5b600073420000000000000000000000000000000000001573ffffffffffffffffffffffffffffffffffffffff166368d5dca66040518163ffffffff1660e01b8152600401602060405180830381865afa158015610a30573d6000803e3d6000fd5b505050506040513d601f19601f820116820180604052508101906103f69190611831565b3373deaddeaddeaddeaddeaddeaddeaddeaddead000114610af7576040517f08c379a000000000000000000000000000000000000000000000000000000000815260206004820152603f60248201527f47617350726963654f7261636c653a206f6e6c7920746865206465706f73697460448201527f6f72206163636f756e742063616e20736574206973466a6f726420666c616700606482015260840161036a565b60005460ff16610b89576040517f08c379a000000000000000000000000000000000000000000000000000000000815260206004820152603960248201527f47617350726963654f7261636c653a20466a6f72642063616e206f6e6c79206260448201527f65206163746976617465642061667465722045636f746f6e6500000000000000606482015260840161036a565b600054610100900460ff1615610c20576040517f08c379a0000000000000000000000000000000000000000000000000000000008152602060048201526024808201527f47617350726963654f7261636c653a20466a6f726420616c726561647920616360448201527f7469766500000000000000000000000000000000000000000000000000000000606482015260840161036a565b600080547fffffffffffffffffffffffffffffffffffffffffffffffffffffffffffff00ff16610100179055565b600073420000000000000000000000000000000000001573ffffffffffffffffffffffffffffffffffffffff1663c59859186040518163ffffffff1660e01b8152600401602060405180830381865afa158015610a30573d6000803e3d6000fd5b60008054610100900460ff1615610cf657620f4240610ce1610cd0846111f0565b51610cdc9060446118eb565b61150d565b610cec906010611903565b6107099190611886565b6000610d018361156c565b60005490915060ff1615610d155792915050565b73420000000000000000000000000000000000001573ffffffffffffffffffffffffffffffffffffffff16638b239f736040518163ffffffff1660e01b8152600401602060405180830381865afa158015610d74573d6000803e3d6000fd5b505050506040513d601f19601f82011682018060405250810190610d989190611818565b610da290826118eb565b9392505050565b60008054610100900460ff16610e41576040517f08c379a000000000000000000000000000000000000000000000000000000000815260206004820152603660248201527f47617350726963654f7261636c653a206765744c314665655570706572426f7560448201527f6e64206f6e6c7920737570706f72747320466a6f726400000000000000000000606482015260840161036a565b6000610e4e8360446118eb565b90506000610e5d60ff83611886565b610e6790836118eb565b610e729060106118eb565b9050610e7d816115fc565b949350505050565b6000805460ff1615610f19576040517f08c379a000000000000000000000000000000000000000000000000000000000815260206004820152602660248201527f47617350726963654f7261636c653a207363616c61722829206973206465707260448201527f6563617465640000000000000000000000000000000000000000000000000000606482015260840161036a565b73420000000000000000000000000000000000001573ffffffffffffffffffffffffffffffffffffffff16639e8c49666040518163ffffffff1660e01b8152600401602060405180830381865afa1580156103d2573d6000803e3d6000fd5b600073420000000000000000000000000000000000001573ffffffffffffffffffffffffffffffffffffffff1663f82061406040518163ffffffff1660e01b8152600401602060405180830381865afa1580156103d2573d6000803e3d6000fd5b6000610709610fe7836111f0565b51610ff39060446118eb565b6115fc565b6000806110048361156c565b9050600061101061096e565b611018610c4e565b611023906010611940565b63ffffffff166110339190611903565b9050600061103f610f78565b6110476109cf565b63ffffffff166110579190611903565b9050600061106582846118eb565b61106f9085611903565b905061107d6006600a611a8c565b611088906010611903565b6110929082611886565b9695505050505050565b6000806110a88361156c565b9050600073420000000000000000000000000000000000001573ffffffffffffffffffffffffffffffffffffffff16639e8c49666040518163ffffffff1660e01b8152600401602060405180830381865afa15801561110b573d6000803e3d6000fd5b505050506040513d601f19601f8201168201806040525081019061112f9190611818565b61113761096e565b73420000000000000000000000000000000000001573ffffffffffffffffffffffffffffffffffffffff16638b239f736040518163ffffffff1660e01b8152600401602060405180830381865afa158015611196573d6000803e3d6000fd5b505050506040513d601f19601f820116820180604052508101906111ba9190611818565b6111c490856118eb565b6111ce9190611903565b6111d89190611903565b90506111e66006600a611a8c565b610e7d9082611886565b606061137f565b818153600101919050565b600082840393505b83811015610da25782810151828201511860001a159093029260010161120a565b825b60208210611277578251611242601f836111f7565b52602092909201917fffffffffffffffffffffffffffffffffffffffffffffffffffffffffffffffe09091019060210161122d565b8115610da257825161128c60018403836111f7565b520160010192915050565b60006001830392505b61010782106112d8576112ca8360ff166112c560fd6112c58760081c60e001896111f7565b6111f7565b9350610106820391506112a0565b60078210611305576112fe8360ff166112c5600785036112c58760081c60e001896111f7565b9050610da2565b610e7d8360ff166112c58560081c8560051b01876111f7565b61137782820361135b61134b84600081518060001a8160011a60081b178160021a60101b17915050919050565b639e3779b90260131c611fff1690565b8060021b6040510182815160e01c1860e01b8151188152505050565b600101919050565b6180003860405139618000604051016020830180600d8551820103826002015b818110156114b2576000805b50508051604051600082901a600183901a60081b1760029290921a60101b91909117639e3779b9810260111c617ffc16909101805160e081811c878603811890911b909118909152840190818303908484106114075750611442565b600184019350611fff821161143c578251600081901a600182901a60081b1760029190911a60101b17810361143c5750611442565b506113ab565b8383106114505750506114b2565b6001830392508583111561146e5761146b878788860361122b565b96505b611482600985016003850160038501611202565b915061148f878284611297565b9650506114a7846114a28684860161131e565b61131e565b91505080935061139f565b50506114c4838384885185010361122b565b925050506040519150618000820180820391508183526020830160005b838110156114f95782810151828201526020016114e1565b506000920191825250602001604052919050565b60008061151d83620cc394611903565b611547907ffffffffffffffffffffffffffffffffffffffffffffffffffffffffffd763200611a98565b90506115576064620f4240611b0c565b81121561070957610da26064620f4240611b0c565b80516000908190815b818110156115ef5784818151811061158f5761158f611bc8565b01602001517fff00000000000000000000000000000000000000000000000000000000000000166000036115cf576115c86004846118eb565b92506115dd565b6115da6010846118eb565b92505b806115e781611bf7565b915050611575565b50610e7d826104406118eb565b6000806116088361150d565b90506000611614610f78565b61161c6109cf565b63ffffffff1661162c9190611903565b61163461096e565b61163c610c4e565b611647906010611940565b63ffffffff166116579190611903565b61166191906118eb565b905061166f60066002611903565b61167a90600a611a8c565b6116848284611903565b610e7d9190611886565b6000602082840312156116a057600080fd5b5035919050565b7f4e487b7100000000000000000000000000000000000000000000000000000000600052604160045260246000fd5b6000602082840312156116e857600080fd5b813567ffffffffffffffff8082111561170057600080fd5b818401915084601f83011261171457600080fd5b813581811115611726576117266116a7565b604051601f82017fffffffffffffffffffffffffffffffffffffffffffffffffffffffffffffffe0908116603f0116810190838211818310171561176c5761176c6116a7565b8160405282815287602084870101111561178557600080fd5b826020860160208301376000928101602001929092525095945050505050565b600060208083528351808285015260005b818110156117d2578581018301518582016040015282016117b6565b818111156117e4576000604083870101525b50601f017fffffffffffffffffffffffffffffffffffffffffffffffffffffffffffffffe016929092016040019392505050565b60006020828403121561182a57600080fd5b5051919050565b60006020828403121561184357600080fd5b815163ffffffff81168114610da257600080fd5b7f4e487b7100000000000000000000000000000000000000000000000000000000600052601160045260246000fd5b6000826118bc577f4e487b7100000000000000000000000000000000000000000000000000000000600052601260045260246000fd5b500490565b6000602082840312156118d357600080fd5b815167ffffffffffffffff81168114610da257600080fd5b600082198211156118fe576118fe611857565b500190565b6000817fffffffffffffffffffffffffffffffffffffffffffffffffffffffffffffffff048311821515161561193b5761193b611857565b500290565b600063ffffffff8083168185168183048111821515161561196357611963611857565b02949350505050565b600181815b808511156119c557817fffffffffffffffffffffffffffffffffffffffffffffffffffffffffffffffff048211156119ab576119ab611857565b808516156119b857918102915b93841c9390800290611971565b509250929050565b6000826119dc57506001610709565b816119e957506000610709565b81600181146119ff5760028114611a0957611a25565b6001915050610709565b60ff841115611a1a57611a1a611857565b50506001821b610709565b5060208310610133831016604e8410600b8410161715611a48575081810a610709565b611a52838361196c565b807fffffffffffffffffffffffffffffffffffffffffffffffffffffffffffffffff04821115611a8457611a84611857565b029392505050565b6000610da283836119cd565b6000808212827f7fffffffffffffffffffffffffffffffffffffffffffffffffffffffffffffff03841381151615611ad257611ad2611857565b827f8000000000000000000000000000000000000000000000000000000000000000038412811615611b0657611b06611857565b50500190565b60007f7fffffffffffffffffffffffffffffffffffffffffffffffffffffffffffffff600084136000841385830485118282161615611b4d57611b4d611857565b7f80000000000000000000000000000000000000000000000000000000000000006000871286820588128184161615611b8857611b88611857565b60008712925087820587128484161615611ba457611ba4611857565b87850587128184161615611bba57611bba611857565b505050929093029392505050565b7f4e487b7100000000000000000000000000000000000000000000000000000000600052603260045260246000fd5b60007fffffffffffffffffffffffffffffffffffffffffffffffffffffffffffffffff8203611c2857611c28611857565b506001019056fea164736f6c634300080f000a","linkReferences":{}},"methodIdentifiers":{"DECIMALS()":"2e0f2625","baseFee()":"6ef25c3a","baseFeeScalar()":"c5985918","blobBaseFee()":"f8206140","blobBaseFeeScalar()":"68d5dca6","decimals()":"313ce567","gasPrice()":"fe173b97","getL1Fee(bytes)":"49948e0e","getL1FeeUpperBound(uint256)":"f1c7a58b","getL1GasUsed(bytes)":"de26c4a1","getOperatorFee(uint256)":"275aedd2","isEcotone()":"4ef6e224","isFjord()":"960e3a23","isIsthmus()":"b54501bc","l1BaseFee()":"519b4bd3","overhead()":"0c18c162","scalar()":"f45e65d8","setEcotone()":"22b90ab3","setFjord()":"8e98b106","setIsthmus()":"291b0383","version()":"54fd4d50"},"storageLayout":{"storage":[{"astId":101520,"contract":"src/L2/GasPriceOracle.sol:GasPriceOracle","label":"isEcotone","offset":0,"slot":"0","type":"t_bool"},{"astId":101523,"contract":"src/L2/GasPriceOracle.sol:GasPriceOracle","label":"isFjord","offset":1,"slot":"0","type":"t_bool"},{"astId":101526,"contract":"src/L2/GasPriceOracle.sol:GasPriceOracle","label":"isIsthmus","offset":2,"slot":"0","type":"t_bool"}],"types":{"t_bool":{"encoding":"inplace","label":"bool","numberOfBytes":"1"}}},"userdoc":{"version":1,"kind":"user","methods":{"DECIMALS()":{"notice":"Number of decimals used in the scalar."},"baseFee()":{"notice":"Retrieves the current base fee."},"baseFeeScalar()":{"notice":"Retrieves the current base fee scalar."},"blobBaseFee()":{"notice":"Retrieves the current blob base fee."},"blobBaseFeeScalar()":{"notice":"Retrieves the current blob base fee scalar."},"gasPrice()":{"notice":"Retrieves the current gas price (base fee)."},"getL1Fee(bytes)":{"notice":"Computes the L1 portion of the fee based on the size of the rlp encoded input         transaction, the current L1 base fee, and the various dynamic parameters."},"getL1FeeUpperBound(uint256)":{"notice":"returns an upper bound for the L1 fee for a given transaction size. It is provided for callers who wish to estimate L1 transaction costs in the write path, and is much more gas efficient than `getL1Fee`. It assumes the worst case of fastlz upper-bound which covers %99.99 txs."},"getL1GasUsed(bytes)":{"notice":"Computes the amount of L1 gas used for a transaction. Adds 68 bytes         of padding to account for the fact that the input does not have a signature."},"isEcotone()":{"notice":"Indicates whether the network has gone through the Ecotone upgrade."},"isFjord()":{"notice":"Indicates whether the network has gone through the Fjord upgrade."},"isIsthmus()":{"notice":"Indicates whether the network has gone through the Isthmus upgrade."},"l1BaseFee()":{"notice":"Retrieves the latest known L1 base fee."},"setEcotone()":{"notice":"Set chain to be Ecotone chain (callable by depositor account)"},"setFjord()":{"notice":"Set chain to be Fjord chain (callable by depositor account)"},"setIsthmus()":{"notice":"Set chain to be Isthmus chain (callable by depositor account)"},"version()":{"notice":"Semantic version."}},"notice":"This contract maintains the variables responsible for computing the L1 portion of the         total fee charged on L2. Before Bedrock, this contract held variables in state that were         read during the state transition function to compute the L1 portion of the transaction         fee. After Bedrock, this contract now simply proxies the L1Block contract, which has         the values used to compute the L1 portion of the fee in its state.         The contract exposes an API that is useful for knowing how large the L1 portion of the         transaction fee will be. The following events were deprecated with Bedrock:         - event OverheadUpdated(uint256 overhead);         - event ScalarUpdated(uint256 scalar);         - event DecimalsUpdated(uint256 decimals);"},"devdoc":{"version":1,"kind":"dev","methods":{"baseFee()":{"returns":{"_0":"Current L2 base fee."}},"baseFeeScalar()":{"returns":{"_0":"Current base fee scalar."}},"blobBaseFee()":{"returns":{"_0":"Current blob base fee."}},"blobBaseFeeScalar()":{"returns":{"_0":"Current blob base fee scalar."}},"decimals()":{"returns":{"_0":"Number of decimals used in the scalar."}},"gasPrice()":{"returns":{"_0":"Current L2 gas price (base fee)."}},"getL1Fee(bytes)":{"params":{"_data":"Unsigned fully RLP-encoded transaction to get the L1 fee for."},"returns":{"_0":"L1 fee that should be paid for the tx"}},"getL1FeeUpperBound(uint256)":{"params":{"_unsignedTxSize":"Unsigned fully RLP-encoded transaction size to get the L1 fee for."},"returns":{"_0":"L1 estimated upper-bound fee that should be paid for the tx"}},"getL1GasUsed(bytes)":{"params":{"_data":"Unsigned fully RLP-encoded transaction to get the L1 gas for."},"returns":{"_0":"Amount of L1 gas used to publish the transaction."}},"l1BaseFee()":{"returns":{"_0":"Latest known L1 base fee."}},"overhead()":{"returns":{"_0":"Current fee overhead."}},"scalar()":{"returns":{"_0":"Current fee scalar."}}},"title":"GasPriceOracle"},"id":237}