{"abi":[{"type":"function","name":"decodeScalarEcotone","inputs":[{"name":"_scalar","type":"bytes32","internalType":"bytes32"}],"outputs":[{"name":"","type":"uint32","internalType":"uint32"},{"name":"","type":"uint32","internalType":"uint32"}],"stateMutability":"nonpayable"},{"type":"function","name":"decodeVersionedNonce","inputs":[{"name":"nonce","type":"uint256","internalType":"uint256"}],"outputs":[{"name":"","type":"uint256","internalType":"uint256"},{"name":"","type":"uint256","internalType":"uint256"}],"stateMutability":"nonpayable"},{"type":"function","name":"encodeCrossDomainMessage","inputs":[{"name":"_nonce","type":"uint256","internalType":"uint256"},{"name":"_sender","type":"address","internalType":"address"},{"name":"_target","type":"address","internalType":"address"},{"name":"_value","type":"uint256","internalType":"uint256"},{"name":"_gasLimit","type":"uint256","internalType":"uint256"},{"name":"_data","type":"bytes","internalType":"bytes"}],"outputs":[{"name":"","type":"bytes","internalType":"bytes"}],"stateMutability":"nonpayable"},{"type":"function","name":"encodeDependency","inputs":[{"name":"_chainId","type":"uint256","internalType":"uint256"}],"outputs":[{"name":"","type":"bytes","internalType":"bytes"}],"stateMutability":"nonpayable"},{"type":"function","name":"encodeDepositTransaction","inputs":[{"name":"txn","type":"tuple","internalType":"struct Types.UserDepositTransaction","components":[{"name":"from","type":"address","internalType":"address"},{"name":"to","type":"address","internalType":"address"},{"name":"isCreation","type":"bool","internalType":"bool"},{"name":"value","type":"uint256","internalType":"uint256"},{"name":"mint","type":"uint256","internalType":"uint256"},{"name":"gasLimit","type":"uint64","internalType":"uint64"},{"name":"data","type":"bytes","internalType":"bytes"},{"name":"l1BlockHash","type":"bytes32","internalType":"bytes32"},{"name":"logIndex","type":"uint256","internalType":"uint256"}]}],"outputs":[{"name":"","type":"bytes","internalType":"bytes"}],"stateMutability":"nonpayable"},{"type":"function","name":"encodeGasPayingToken","inputs":[{"name":"_token","type":"address","internalType":"address"},{"name":"_decimals","type":"uint8","internalType":"uint8"},{"name":"_name","type":"bytes32","internalType":"bytes32"},{"name":"_symbol","type":"bytes32","internalType":"bytes32"}],"outputs":[{"name":"","type":"bytes","internalType":"bytes"}],"stateMutability":"nonpayable"},{"type":"function","name":"encodeScalarEcotone","inputs":[{"name":"_basefeeScalar","type":"uint32","internalType":"uint32"},{"name":"_blobbasefeeScalar","type":"uint32","internalType":"uint32"}],"outputs":[{"name":"","type":"bytes32","internalType":"bytes32"}],"stateMutability":"nonpayable"},{"type":"function","name":"encodeSuperRootProof","inputs":[{"name":"proof","type":"tuple","internalType":"struct Types.SuperRootProof","components":[{"name":"version","type":"bytes1","internalType":"bytes1"},{"name":"timestamp","type":"uint64","internalType":"uint64"},{"name":"outputRoots","type":"tuple[]","internalType":"struct Types.OutputRootWithChainId[]","components":[{"name":"chainId","type":"uint256","internalType":"uint256"},{"name":"root","type":"bytes32","internalType":"bytes32"}]}]}],"outputs":[{"name":"","type":"bytes","internalType":"bytes"}],"stateMutability":"nonpayable"},{"type":"function","name":"getCannonMemory64Proof","inputs":[{"name":"addr","type":"uint64","internalType":"uint64"},{"name":"value","type":"uint64","internalType":"uint64"}],"outputs":[{"name":"","type":"bytes32","internalType":"bytes32"},{"name":"","type":"bytes","internalType":"bytes"}],"stateMutability":"nonpayable"},{"type":"function","name":"getCannonMemory64Proof","inputs":[{"name":"addr0","type":"uint64","internalType":"uint64"},{"name":"value0","type":"uint64","internalType":"uint64"},{"name":"addr1","type":"uint64","internalType":"uint64"},{"name":"value1","type":"uint64","internalType":"uint64"},{"name":"memAddr2","type":"uint64","internalType":"uint64"},{"name":"memVal2","type":"uint64","internalType":"uint64"}],"outputs":[{"name":"","type":"bytes32","internalType":"bytes32"},{"name":"","type":"bytes","internalType":"bytes"}],"stateMutability":"nonpayable"},{"type":"function","name":"getCannonMemory64Proof","inputs":[{"name":"addr0","type":"uint64","internalType":"uint64"},{"name":"value0","type":"uint64","internalType":"uint64"},{"name":"addr1","type":"uint64","internalType":"uint64"},{"name":"value1","type":"uint64","internalType":"uint64"}],"outputs":[{"name":"","type":"bytes32","internalType":"bytes32"},{"name":"","type":"bytes","internalType":"bytes"}],"stateMutability":"nonpayable"},{"type":"function","name":"getCannonMemory64Proof2","inputs":[{"name":"addr0","type":"uint64","internalType":"uint64"},{"name":"value0","type":"uint64","internalType":"uint64"},{"name":"addr1","type":"uint64","internalType":"uint64"},{"name":"value1","type":"uint64","internalType":"uint64"},{"name":"memAddrForProof","type":"uint64","internalType":"uint64"}],"outputs":[{"name":"","type":"bytes32","internalType":"bytes32"},{"name":"","type":"bytes","internalType":"bytes"}],"stateMutability":"nonpayable"},{"type":"function","name":"getCannonMemoryProof","inputs":[{"name":"pc","type":"uint32","internalType":"uint32"},{"name":"insn","type":"uint32","internalType":"uint32"},{"name":"memAddr","type":"uint32","internalType":"uint32"},{"name":"memVal","type":"uint32","internalType":"uint32"},{"name":"memAddr2","type":"uint32","internalType":"uint32"},{"name":"memVal2","type":"uint32","internalType":"uint32"}],"outputs":[{"name":"","type":"bytes32","internalType":"bytes32"},{"name":"","type":"bytes","internalType":"bytes"}],"stateMutability":"nonpayable"},{"type":"function","name":"getCannonMemoryProof","inputs":[{"name":"pc","type":"uint32","internalType":"uint32"},{"name":"insn","type":"uint32","internalType":"uint32"},{"name":"memAddr","type":"uint32","internalType":"uint32"},{"name":"memVal","type":"uint32","internalType":"uint32"}],"outputs":[{"name":"","type":"bytes32","internalType":"bytes32"},{"name":"","type":"bytes","internalType":"bytes"}],"stateMutability":"nonpayable"},{"type":"function","name":"getCannonMemoryProof","inputs":[{"name":"pc","type":"uint32","internalType":"uint32"},{"name":"insn","type":"uint32","internalType":"uint32"}],"outputs":[{"name":"","type":"bytes32","internalType":"bytes32"},{"name":"","type":"bytes","internalType":"bytes"}],"stateMutability":"nonpayable"},{"type":"function","name":"getCannonMemoryProof2","inputs":[{"name":"pc","type":"uint32","internalType":"uint32"},{"name":"insn","type":"uint32","internalType":"uint32"},{"name":"memAddr","type":"uint32","internalType":"uint32"},{"name":"memVal","type":"uint32","internalType":"uint32"},{"name":"memAddrForProof","type":"uint32","internalType":"uint32"}],"outputs":[{"name":"","type":"bytes32","internalType":"bytes32"},{"name":"","type":"bytes","internalType":"bytes"}],"stateMutability":"nonpayable"},{"type":"function","name":"getCannonMemoryProofWrongLeaf","inputs":[{"name":"pc","type":"uint32","internalType":"uint32"},{"name":"insn","type":"uint32","internalType":"uint32"},{"name":"memAddr","type":"uint32","internalType":"uint32"},{"name":"memVal","type":"uint32","internalType":"uint32"}],"outputs":[{"name":"","type":"bytes32","internalType":"bytes32"},{"name":"","type":"bytes","internalType":"bytes"}],"stateMutability":"nonpayable"},{"type":"function","name":"getMerkleTrieFuzzCase","inputs":[{"name":"variant","type":"string","internalType":"string"}],"outputs":[{"name":"","type":"bytes32","internalType":"bytes32"},{"name":"","type":"bytes","internalType":"bytes"},{"name":"","type":"bytes","internalType":"bytes"},{"name":"","type":"bytes[]","internalType":"bytes[]"}],"stateMutability":"nonpayable"},{"type":"function","name":"getProveWithdrawalTransactionInputs","inputs":[{"name":"_tx","type":"tuple","internalType":"struct Types.WithdrawalTransaction","components":[{"name":"nonce","type":"uint256","internalType":"uint256"},{"name":"sender","type":"address","internalType":"address"},{"name":"target","type":"address","internalType":"address"},{"name":"value","type":"uint256","internalType":"uint256"},{"name":"gasLimit","type":"uint256","internalType":"uint256"},{"name":"data","type":"bytes","internalType":"bytes"}]}],"outputs":[{"name":"","type":"bytes32","internalType":"bytes32"},{"name":"","type":"bytes32","internalType":"bytes32"},{"name":"","type":"bytes32","internalType":"bytes32"},{"name":"","type":"bytes32","internalType":"bytes32"},{"name":"","type":"bytes[]","internalType":"bytes[]"}],"stateMutability":"nonpayable"},{"type":"function","name":"hashCrossDomainMessage","inputs":[{"name":"_nonce","type":"uint256","internalType":"uint256"},{"name":"_sender","type":"address","internalType":"address"},{"name":"_target","type":"address","internalType":"address"},{"name":"_value","type":"uint256","internalType":"uint256"},{"name":"_gasLimit","type":"uint256","internalType":"uint256"},{"name":"_data","type":"bytes","internalType":"bytes"}],"outputs":[{"name":"","type":"bytes32","internalType":"bytes32"}],"stateMutability":"nonpayable"},{"type":"function","name":"hashDepositTransaction","inputs":[{"name":"_from","type":"address","internalType":"address"},{"name":"_to","type":"address","internalType":"address"},{"name":"_mint","type":"uint256","internalType":"uint256"},{"name":"_value","type":"uint256","internalType":"uint256"},{"name":"_gas","type":"uint64","internalType":"uint64"},{"name":"_data","type":"bytes","internalType":"bytes"},{"name":"_logIndex","type":"uint64","internalType":"uint64"}],"outputs":[{"name":"","type":"bytes32","internalType":"bytes32"}],"stateMutability":"nonpayable"},{"type":"function","name":"hashOutputRootProof","inputs":[{"name":"_version","type":"bytes32","internalType":"bytes32"},{"name":"_stateRoot","type":"bytes32","internalType":"bytes32"},{"name":"_messagePasserStorageRoot","type":"bytes32","internalType":"bytes32"},{"name":"_latestBlockhash","type":"bytes32","internalType":"bytes32"}],"outputs":[{"name":"","type":"bytes32","internalType":"bytes32"}],"stateMutability":"nonpayable"},{"type":"function","name":"hashSuperRootProof","inputs":[{"name":"proof","type":"tuple","internalType":"struct Types.SuperRootProof","components":[{"name":"version","type":"bytes1","internalType":"bytes1"},{"name":"timestamp","type":"uint64","internalType":"uint64"},{"name":"outputRoots","type":"tuple[]","internalType":"struct Types.OutputRootWithChainId[]","components":[{"name":"chainId","type":"uint256","internalType":"uint256"},{"name":"root","type":"bytes32","internalType":"bytes32"}]}]}],"outputs":[{"name":"","type":"bytes32","internalType":"bytes32"}],"stateMutability":"nonpayable"},{"type":"function","name":"hashWithdrawal","inputs":[{"name":"_nonce","type":"uint256","internalType":"uint256"},{"name":"_sender","type":"address","internalType":"address"},{"name":"_target","type":"address","internalType":"address"},{"name":"_value","type":"uint256","internalType":"uint256"},{"name":"_gasLimit","type":"uint256","internalType":"uint256"},{"name":"_data","type":"bytes","internalType":"bytes"}],"outputs":[{"name":"","type":"bytes32","internalType":"bytes32"}],"stateMutability":"nonpayable"},{"type":"error","name":"FfiFailed","inputs":[{"name":"","type":"string","internalType":"string"}]}],"bytecode":{"object":"0x608060405234801561001057600080fd5b506167a380620000216000396000f3fe608060405234801561001057600080fd5b50600436106101975760003560e01c80637f26c48c116100e3578063be98a30d1161008c578063dcf5edef11610066578063dcf5edef146103ac578063ee5c8e1d146103bf578063fc677392146103d257600080fd5b8063be98a30d14610356578063c040ff5314610369578063c21e88651461039957600080fd5b806392bcb236116100bd57806392bcb2361461031d578063b535166914610330578063b7bafd631461034357600080fd5b80637f26c48c146102e457806383dbaa03146102f75780638ccece971461030a57600080fd5b8063526dc955116101455780636d4779ea1161011f5780636d4779ea1461029b5780636ddb2730146102ae5780637e577a1b146102c157600080fd5b8063526dc9551461024d5780635870f51314610275578063589cbe3c1461028857600080fd5b80632a4621ea116101765780632a4621ea1461020757806342eb241d1461021a578063498a3c021461022d57600080fd5b8062ec31a61461019c5780631aac97c1146101c25780632803164a146101e6575b600080fd5b6101af6101aa366004615799565b6103e5565b6040519081526020015b60405180910390f35b6101d56101d0366004615813565b6108ec565b6040516101b9959493929190615974565b6101f96101f43660046159b4565b610e1b565b6040516101b9929190615a10565b6101f9610215366004615a29565b6111cd565b6101f9610228366004615ac3565b6116b7565b61024061023b366004615799565b611b19565b6040516101b99190615b28565b61026061025b366004615b3b565b612014565b604080519283526020830191909152016101b9565b6101f9610283366004615b54565b6121e4565b610240610296366004615b87565b612467565b6101f96102a9366004615bc2565b61266d565b6102406102bc366004615b3b565b612ad9565b6102d46102cf366004615c36565b612c1f565b6040516101b99493929190615c7f565b6101f96102f23660046159b4565b612d4a565b6101f9610305366004615cbe565b612e4f565b6101af610318366004615cf7565b613036565b61024061032b366004615d8a565b61361d565b6101f961033e366004615dd4565b6139f9565b6101f9610351366004615e45565b613db2565b6101af610364366004615b87565b6140e0565b61037c610377366004615b3b565b6142dd565b6040805163ffffffff9384168152929091166020830152016101b9565b6101af6103a7366004615799565b6144bb565b6101af6103ba366004615e99565b6145be565b6101af6103cd366004615cbe565b614789565b6102406103e0366004615ecb565b6149f6565b6040805160098082526101408201909252600091829190816020015b606081526020019060019003908161040157905050905060405180604001604052806015815260200174736372697074732f676f2d6666692f676f2d66666960581b8152508160008151811061045957610459615f07565b6020026020010181905250604051806040016040528060048152602001633234b33360e11b8152508160018151811061049457610494615f07565b60200260200101819052506040518060400160405280601681526020017f6861736843726f7373446f6d61696e4d65737361676500000000000000000000815250816002815181106104e8576104e8615f07565b602090810291909101015260405163348051d760e11b815260048101899052737109709ecfa91a80626ff3989d68f67f5b1dd12d90636900a3ae90602401600060405180830381865afa158015610543573d6000803e3d6000fd5b505050506040513d6000823e601f3d908101601f1916820160405261056b9190810190615f66565b8160038151811061057e5761057e615f07565b6020908102919091010152604051632b65311f60e11b815273ffffffffffffffffffffffffffffffffffffffff88166004820152737109709ecfa91a80626ff3989d68f67f5b1dd12d906356ca623e90602401600060405180830381865afa1580156105ee573d6000803e3d6000fd5b505050506040513d6000823e601f3d908101601f191682016040526106169190810190615f66565b8160048151811061062957610629615f07565b6020908102919091010152604051632b65311f60e11b815273ffffffffffffffffffffffffffffffffffffffff87166004820152737109709ecfa91a80626ff3989d68f67f5b1dd12d906356ca623e90602401600060405180830381865afa158015610699573d6000803e3d6000fd5b505050506040513d6000823e601f3d908101601f191682016040526106c19190810190615f66565b816005815181106106d4576106d4615f07565b602090810291909101015260405163348051d760e11b815260048101869052737109709ecfa91a80626ff3989d68f67f5b1dd12d90636900a3ae90602401600060405180830381865afa15801561072f573d6000803e3d6000fd5b505050506040513d6000823e601f3d908101601f191682016040526107579190810190615f66565b8160068151811061076a5761076a615f07565b602090810291909101015260405163348051d760e11b815260048101859052737109709ecfa91a80626ff3989d68f67f5b1dd12d90636900a3ae90602401600060405180830381865afa1580156107c5573d6000803e3d6000fd5b505050506040513d6000823e601f3d908101601f191682016040526107ed9190810190615f66565b8160078151811061080057610800615f07565b60209081029190910101526040517f71aad10d000000000000000000000000000000000000000000000000000000008152737109709ecfa91a80626ff3989d68f67f5b1dd12d906371aad10d9061085b908690600401615b28565b600060405180830381865afa158015610878573d6000803e3d6000fd5b505050506040513d6000823e601f3d908101601f191682016040526108a09190810190615f66565b816008815181106108b3576108b3615f07565b602002602001018190525060006108c98261517d565b9050808060200190518101906108df9190615faf565b9998505050505050505050565b6000808080606081600960405190808252806020026020018201604052801561092957816020015b60608152602001906001900390816109145790505b50905060405180604001604052806015815260200174736372697074732f676f2d6666692f676f2d66666960581b8152508160008151811061096d5761096d615f07565b6020026020010181905250604051806040016040528060048152602001633234b33360e11b815250816001815181106109a8576109a8615f07565b602002602001018190525060405180606001604052806023815260200161677460239139816002815181106109df576109df615f07565b6020908102919091010152865160405163348051d760e11b81526004810191909152737109709ecfa91a80626ff3989d68f67f5b1dd12d90636900a3ae90602401600060405180830381865afa158015610a3d573d6000803e3d6000fd5b505050506040513d6000823e601f3d908101601f19168201604052610a659190810190615f66565b81600381518110610a7857610a78615f07565b602090810291909101810191909152870151604051632b65311f60e11b815273ffffffffffffffffffffffffffffffffffffffff9091166004820152737109709ecfa91a80626ff3989d68f67f5b1dd12d906356ca623e90602401600060405180830381865afa158015610af0573d6000803e3d6000fd5b505050506040513d6000823e601f3d908101601f19168201604052610b189190810190615f66565b81600481518110610b2b57610b2b615f07565b60209081029190910101526040878101519051632b65311f60e11b815273ffffffffffffffffffffffffffffffffffffffff9091166004820152737109709ecfa91a80626ff3989d68f67f5b1dd12d906356ca623e90602401600060405180830381865afa158015610ba1573d6000803e3d6000fd5b505050506040513d6000823e601f3d908101601f19168201604052610bc99190810190615f66565b81600581518110610bdc57610bdc615f07565b6020908102919091010152606087015160405163348051d760e11b81526004810191909152737109709ecfa91a80626ff3989d68f67f5b1dd12d90636900a3ae90602401600060405180830381865afa158015610c3d573d6000803e3d6000fd5b505050506040513d6000823e601f3d908101601f19168201604052610c659190810190615f66565b81600681518110610c7857610c78615f07565b6020908102919091010152608087015160405163348051d760e11b81526004810191909152737109709ecfa91a80626ff3989d68f67f5b1dd12d90636900a3ae90602401600060405180830381865afa158015610cd9573d6000803e3d6000fd5b505050506040513d6000823e601f3d908101601f19168201604052610d019190810190615f66565b81600781518110610d1457610d14615f07565b602090810291909101015260a08701516040517f71aad10d000000000000000000000000000000000000000000000000000000008152737109709ecfa91a80626ff3989d68f67f5b1dd12d916371aad10d91610d739190600401615b28565b600060405180830381865afa158015610d90573d6000803e3d6000fd5b505050506040513d6000823e601f3d908101601f19168201604052610db89190810190615f66565b81600881518110610dcb57610dcb615f07565b60200260200101819052506000610de18261517d565b9050600080600080600085806020019051810190610dff9190616087565b939f50919d509b50995097505050505050505091939590929450565b60408051600780825261010082019092526000916060918391816020015b6060815260200190600190039081610e3957905050905060405180604001604052806015815260200174736372697074732f676f2d6666692f676f2d66666960581b81525081600081518110610e9157610e91615f07565b6020026020010181905250604051806040016040528060048152602001633234b33360e11b81525081600181518110610ecc57610ecc615f07565b60200260200101819052506040518060400160405280601a81526020017f63616e6e6f6e4d656d6f727950726f6f6657726f6e674c65616600000000000081525081600281518110610f2057610f20615f07565b602090810291909101015260405163348051d760e11b815263ffffffff88166004820152737109709ecfa91a80626ff3989d68f67f5b1dd12d90636900a3ae90602401600060405180830381865afa158015610f80573d6000803e3d6000fd5b505050506040513d6000823e601f3d908101601f19168201604052610fa89190810190615f66565b81600381518110610fbb57610fbb615f07565b602090810291909101015260405163348051d760e11b815263ffffffff87166004820152737109709ecfa91a80626ff3989d68f67f5b1dd12d90636900a3ae90602401600060405180830381865afa15801561101b573d6000803e3d6000fd5b505050506040513d6000823e601f3d908101601f191682016040526110439190810190615f66565b8160048151811061105657611056615f07565b602090810291909101015260405163348051d760e11b815263ffffffff86166004820152737109709ecfa91a80626ff3989d68f67f5b1dd12d90636900a3ae90602401600060405180830381865afa1580156110b6573d6000803e3d6000fd5b505050506040513d6000823e601f3d908101601f191682016040526110de9190810190615f66565b816005815181106110f1576110f1615f07565b602090810291909101015260405163348051d760e11b815263ffffffff85166004820152737109709ecfa91a80626ff3989d68f67f5b1dd12d90636900a3ae906024015b600060405180830381865afa158015611152573d6000803e3d6000fd5b505050506040513d6000823e601f3d908101601f1916820160405261117a9190810190615f66565b8160068151811061118d5761118d615f07565b602002602001018190525060006111a38261517d565b9050600080828060200190518101906111bc91906160eb565b909b909a5098505050505050505050565b60408051600980825261014082019092526000916060918391816020015b60608152602001906001900390816111eb57905050905060405180604001604052806015815260200174736372697074732f676f2d6666692f676f2d66666960581b8152508160008151811061124357611243615f07565b6020026020010181905250604051806040016040528060048152602001633234b33360e11b8152508160018151811061127e5761127e615f07565b60200260200101819052506040518060400160405280601181526020017f63616e6e6f6e4d656d6f727950726f6f66000000000000000000000000000000815250816002815181106112d2576112d2615f07565b602090810291909101015260405163348051d760e11b815263ffffffff8a166004820152737109709ecfa91a80626ff3989d68f67f5b1dd12d90636900a3ae90602401600060405180830381865afa158015611332573d6000803e3d6000fd5b505050506040513d6000823e601f3d908101601f1916820160405261135a9190810190615f66565b8160038151811061136d5761136d615f07565b602090810291909101015260405163348051d760e11b815263ffffffff89166004820152737109709ecfa91a80626ff3989d68f67f5b1dd12d90636900a3ae90602401600060405180830381865afa1580156113cd573d6000803e3d6000fd5b505050506040513d6000823e601f3d908101601f191682016040526113f59190810190615f66565b8160048151811061140857611408615f07565b602090810291909101015260405163348051d760e11b815263ffffffff88166004820152737109709ecfa91a80626ff3989d68f67f5b1dd12d90636900a3ae90602401600060405180830381865afa158015611468573d6000803e3d6000fd5b505050506040513d6000823e601f3d908101601f191682016040526114909190810190615f66565b816005815181106114a3576114a3615f07565b602090810291909101015260405163348051d760e11b815263ffffffff87166004820152737109709ecfa91a80626ff3989d68f67f5b1dd12d90636900a3ae90602401600060405180830381865afa158015611503573d6000803e3d6000fd5b505050506040513d6000823e601f3d908101601f1916820160405261152b9190810190615f66565b8160068151811061153e5761153e615f07565b602090810291909101015260405163348051d760e11b815263ffffffff86166004820152737109709ecfa91a80626ff3989d68f67f5b1dd12d90636900a3ae90602401600060405180830381865afa15801561159e573d6000803e3d6000fd5b505050506040513d6000823e601f3d908101601f191682016040526115c69190810190615f66565b816007815181106115d9576115d9615f07565b602090810291909101015260405163348051d760e11b815263ffffffff85166004820152737109709ecfa91a80626ff3989d68f67f5b1dd12d90636900a3ae906024015b600060405180830381865afa15801561163a573d6000803e3d6000fd5b505050506040513d6000823e601f3d908101601f191682016040526116629190810190615f66565b8160088151811061167557611675615f07565b6020026020010181905250600061168b8261517d565b9050600080828060200190518101906116a491906160eb565b909d909c509a5050505050505050505050565b60408051600880825261012082019092526000916060918391816020015b60608152602001906001900390816116d557905050905060405180604001604052806015815260200174736372697074732f676f2d6666692f676f2d66666960581b8152508160008151811061172d5761172d615f07565b6020026020010181905250604051806040016040528060048152602001633234b33360e11b8152508160018151811061176857611768615f07565b60200260200101819052506040518060400160405280601281526020017f63616e6e6f6e4d656d6f727950726f6f66320000000000000000000000000000815250816002815181106117bc576117bc615f07565b602090810291909101015260405163348051d760e11b815267ffffffffffffffff89166004820152737109709ecfa91a80626ff3989d68f67f5b1dd12d90636900a3ae90602401600060405180830381865afa158015611820573d6000803e3d6000fd5b505050506040513d6000823e601f3d908101601f191682016040526118489190810190615f66565b8160038151811061185b5761185b615f07565b602090810291909101015260405163348051d760e11b815267ffffffffffffffff88166004820152737109709ecfa91a80626ff3989d68f67f5b1dd12d90636900a3ae90602401600060405180830381865afa1580156118bf573d6000803e3d6000fd5b505050506040513d6000823e601f3d908101601f191682016040526118e79190810190615f66565b816004815181106118fa576118fa615f07565b602090810291909101015260405163348051d760e11b815267ffffffffffffffff87166004820152737109709ecfa91a80626ff3989d68f67f5b1dd12d90636900a3ae90602401600060405180830381865afa15801561195e573d6000803e3d6000fd5b505050506040513d6000823e601f3d908101601f191682016040526119869190810190615f66565b8160058151811061199957611999615f07565b602090810291909101015260405163348051d760e11b815267ffffffffffffffff86166004820152737109709ecfa91a80626ff3989d68f67f5b1dd12d90636900a3ae90602401600060405180830381865afa1580156119fd573d6000803e3d6000fd5b505050506040513d6000823e601f3d908101601f19168201604052611a259190810190615f66565b81600681518110611a3857611a38615f07565b602090810291909101015260405163348051d760e11b815267ffffffffffffffff85166004820152737109709ecfa91a80626ff3989d68f67f5b1dd12d90636900a3ae906024015b600060405180830381865afa158015611a9d573d6000803e3d6000fd5b505050506040513d6000823e601f3d908101601f19168201604052611ac59190810190615f66565b81600781518110611ad857611ad8615f07565b60200260200101819052506000611aee8261517d565b905060008082806020019051810190611b0791906160eb565b909c909b509950505050505050505050565b604080516009808252610140820190925260609160009190816020015b6060815260200190600190039081611b3657905050905060405180604001604052806015815260200174736372697074732f676f2d6666692f676f2d66666960581b81525081600081518110611b8e57611b8e615f07565b6020026020010181905250604051806040016040528060048152602001633234b33360e11b81525081600181518110611bc957611bc9615f07565b60200260200101819052506040518060400160405280601881526020017f656e636f646543726f7373446f6d61696e4d657373616765000000000000000081525081600281518110611c1d57611c1d615f07565b602090810291909101015260405163348051d760e11b815260048101899052737109709ecfa91a80626ff3989d68f67f5b1dd12d90636900a3ae90602401600060405180830381865afa158015611c78573d6000803e3d6000fd5b505050506040513d6000823e601f3d908101601f19168201604052611ca09190810190615f66565b81600381518110611cb357611cb3615f07565b6020908102919091010152604051632b65311f60e11b815273ffffffffffffffffffffffffffffffffffffffff88166004820152737109709ecfa91a80626ff3989d68f67f5b1dd12d906356ca623e90602401600060405180830381865afa158015611d23573d6000803e3d6000fd5b505050506040513d6000823e601f3d908101601f19168201604052611d4b9190810190615f66565b81600481518110611d5e57611d5e615f07565b6020908102919091010152604051632b65311f60e11b815273ffffffffffffffffffffffffffffffffffffffff87166004820152737109709ecfa91a80626ff3989d68f67f5b1dd12d906356ca623e90602401600060405180830381865afa158015611dce573d6000803e3d6000fd5b505050506040513d6000823e601f3d908101601f19168201604052611df69190810190615f66565b81600581518110611e0957611e09615f07565b602090810291909101015260405163348051d760e11b815260048101869052737109709ecfa91a80626ff3989d68f67f5b1dd12d90636900a3ae90602401600060405180830381865afa158015611e64573d6000803e3d6000fd5b505050506040513d6000823e601f3d908101601f19168201604052611e8c9190810190615f66565b81600681518110611e9f57611e9f615f07565b602090810291909101015260405163348051d760e11b815260048101859052737109709ecfa91a80626ff3989d68f67f5b1dd12d90636900a3ae90602401600060405180830381865afa158015611efa573d6000803e3d6000fd5b505050506040513d6000823e601f3d908101601f19168201604052611f229190810190615f66565b81600781518110611f3557611f35615f07565b60209081029190910101526040517f71aad10d000000000000000000000000000000000000000000000000000000008152737109709ecfa91a80626ff3989d68f67f5b1dd12d906371aad10d90611f90908690600401615b28565b600060405180830381865afa158015611fad573d6000803e3d6000fd5b505050506040513d6000823e601f3d908101601f19168201604052611fd59190810190615f66565b81600881518110611fe857611fe8615f07565b60200260200101819052506000611ffe8261517d565b9050808060200190518101906108df9190616132565b60408051600480825260a0820190925260009182918291816020015b606081526020019060019003908161203057905050905060405180604001604052806015815260200174736372697074732f676f2d6666692f676f2d66666960581b8152508160008151811061208857612088615f07565b6020026020010181905250604051806040016040528060048152602001633234b33360e11b815250816001815181106120c3576120c3615f07565b60200260200101819052506040518060400160405280601481526020017f6465636f646556657273696f6e65644e6f6e63650000000000000000000000008152508160028151811061211757612117615f07565b602090810291909101015260405163348051d760e11b815260048101859052737109709ecfa91a80626ff3989d68f67f5b1dd12d90636900a3ae90602401600060405180830381865afa158015612172573d6000803e3d6000fd5b505050506040513d6000823e601f3d908101601f1916820160405261219a9190810190615f66565b816003815181106121ad576121ad615f07565b602002602001018190525060006121c38261517d565b9050808060200190518101906121d99190616167565b935093505050915091565b60408051600580825260c082019092526000916060918391816020015b606081526020019060019003908161220157905050905060405180604001604052806015815260200174736372697074732f676f2d6666692f676f2d66666960581b8152508160008151811061225957612259615f07565b6020026020010181905250604051806040016040528060048152602001633234b33360e11b8152508160018151811061229457612294615f07565b60200260200101819052506040518060400160405280601181526020017f63616e6e6f6e4d656d6f727950726f6f66000000000000000000000000000000815250816002815181106122e8576122e8615f07565b602090810291909101015260405163348051d760e11b815267ffffffffffffffff86166004820152737109709ecfa91a80626ff3989d68f67f5b1dd12d90636900a3ae90602401600060405180830381865afa15801561234c573d6000803e3d6000fd5b505050506040513d6000823e601f3d908101601f191682016040526123749190810190615f66565b8160038151811061238757612387615f07565b602090810291909101015260405163348051d760e11b815267ffffffffffffffff85166004820152737109709ecfa91a80626ff3989d68f67f5b1dd12d90636900a3ae906024015b600060405180830381865afa1580156123ec573d6000803e3d6000fd5b505050506040513d6000823e601f3d908101601f191682016040526124149190810190615f66565b8160048151811061242757612427615f07565b6020026020010181905250600061243d8261517d565b90506000808280602001905181019061245691906160eb565b9096509450505050505b9250929050565b60408051600480825260a0820190925260609160009190816020015b606081526020019060019003908161248357905050905060405180604001604052806015815260200174736372697074732f676f2d6666692f676f2d66666960581b815250816000815181106124db576124db615f07565b6020026020010181905250604051806040016040528060048152602001633234b33360e11b8152508160018151811061251657612516615f07565b60200260200101819052506040518060400160405280601481526020017f656e636f64655375706572526f6f7450726f6f660000000000000000000000008152508160028151811061256a5761256a615f07565b6020026020010181905250737109709ecfa91a80626ff3989d68f67f5b1dd12d73ffffffffffffffffffffffffffffffffffffffff166371aad10d846040516020016125b691906161cc565b6040516020818303038152906040526040518263ffffffff1660e01b81526004016125e19190615b28565b600060405180830381865afa1580156125fe573d6000803e3d6000fd5b505050506040513d6000823e601f3d908101601f191682016040526126269190810190615f66565b8160038151811061263957612639615f07565b6020026020010181905250600061264f8261517d565b9050808060200190518101906126659190616132565b949350505050565b60408051600980825261014082019092526000916060918391816020015b606081526020019060019003908161268b57905050905060405180604001604052806015815260200174736372697074732f676f2d6666692f676f2d66666960581b815250816000815181106126e3576126e3615f07565b6020026020010181905250604051806040016040528060048152602001633234b33360e11b8152508160018151811061271e5761271e615f07565b60200260200101819052506040518060400160405280601181526020017f63616e6e6f6e4d656d6f727950726f6f660000000000000000000000000000008152508160028151811061277257612772615f07565b602090810291909101015260405163348051d760e11b815267ffffffffffffffff8a166004820152737109709ecfa91a80626ff3989d68f67f5b1dd12d90636900a3ae90602401600060405180830381865afa1580156127d6573d6000803e3d6000fd5b505050506040513d6000823e601f3d908101601f191682016040526127fe9190810190615f66565b8160038151811061281157612811615f07565b602090810291909101015260405163348051d760e11b815267ffffffffffffffff89166004820152737109709ecfa91a80626ff3989d68f67f5b1dd12d90636900a3ae90602401600060405180830381865afa158015612875573d6000803e3d6000fd5b505050506040513d6000823e601f3d908101601f1916820160405261289d9190810190615f66565b816004815181106128b0576128b0615f07565b602090810291909101015260405163348051d760e11b815267ffffffffffffffff88166004820152737109709ecfa91a80626ff3989d68f67f5b1dd12d90636900a3ae90602401600060405180830381865afa158015612914573d6000803e3d6000fd5b505050506040513d6000823e601f3d908101601f1916820160405261293c9190810190615f66565b8160058151811061294f5761294f615f07565b602090810291909101015260405163348051d760e11b815267ffffffffffffffff87166004820152737109709ecfa91a80626ff3989d68f67f5b1dd12d90636900a3ae90602401600060405180830381865afa1580156129b3573d6000803e3d6000fd5b505050506040513d6000823e601f3d908101601f191682016040526129db9190810190615f66565b816006815181106129ee576129ee615f07565b602090810291909101015260405163348051d760e11b815267ffffffffffffffff86166004820152737109709ecfa91a80626ff3989d68f67f5b1dd12d90636900a3ae90602401600060405180830381865afa158015612a52573d6000803e3d6000fd5b505050506040513d6000823e601f3d908101601f19168201604052612a7a9190810190615f66565b81600781518110612a8d57612a8d615f07565b602090810291909101015260405163348051d760e11b815267ffffffffffffffff85166004820152737109709ecfa91a80626ff3989d68f67f5b1dd12d90636900a3ae9060240161161d565b60408051600480825260a0820190925260609160009190816020015b6060815260200190600190039081612af557905050905060405180604001604052806015815260200174736372697074732f676f2d6666692f676f2d66666960581b81525081600081518110612b4d57612b4d615f07565b6020026020010181905250604051806040016040528060048152602001633234b33360e11b81525081600181518110612b8857612b88615f07565b60200260200101819052506040518060400160405280601081526020017f656e636f6465446570656e64656e63790000000000000000000000000000000081525081600281518110612bdc57612bdc615f07565b602090810291909101015260405163348051d760e11b815260048101849052737109709ecfa91a80626ff3989d68f67f5b1dd12d90636900a3ae906024016125e1565b60408051600380825260808201909252600091606091829182918591816020015b6060815260200190600190039081612c405790505090506040518060400160405280601781526020017f2e2f736372697074732f676f2d6666692f676f2d66666900000000000000000081525081600081518110612ca057612ca0615f07565b60200260200101819052506040518060400160405280600481526020017f747269650000000000000000000000000000000000000000000000000000000081525081600181518110612cf457612cf4615f07565b60200260200101819052508581600281518110612d1357612d13615f07565b6020026020010181905250612d278161517d565b806020019051810190612d3a91906162a6565b9450945094509450509193509193565b60408051600780825261010082019092526000916060918391816020015b6060815260200190600190039081612d6857905050905060405180604001604052806015815260200174736372697074732f676f2d6666692f676f2d66666960581b81525081600081518110612dc057612dc0615f07565b6020026020010181905250604051806040016040528060048152602001633234b33360e11b81525081600181518110612dfb57612dfb615f07565b60200260200101819052506040518060400160405280601181526020017f63616e6e6f6e4d656d6f727950726f6f6600000000000000000000000000000081525081600281518110610f2057610f20615f07565b60408051600580825260c082019092526000916060918391816020015b6060815260200190600190039081612e6c57905050905060405180604001604052806015815260200174736372697074732f676f2d6666692f676f2d66666960581b81525081600081518110612ec457612ec4615f07565b6020026020010181905250604051806040016040528060048152602001633234b33360e11b81525081600181518110612eff57612eff615f07565b60200260200101819052506040518060400160405280601181526020017f63616e6e6f6e4d656d6f727950726f6f6600000000000000000000000000000081525081600281518110612f5357612f53615f07565b602090810291909101015260405163348051d760e11b815263ffffffff86166004820152737109709ecfa91a80626ff3989d68f67f5b1dd12d90636900a3ae90602401600060405180830381865afa158015612fb3573d6000803e3d6000fd5b505050506040513d6000823e601f3d908101601f19168201604052612fdb9190810190615f66565b81600381518110612fee57612fee615f07565b602090810291909101015260405163348051d760e11b815263ffffffff85166004820152737109709ecfa91a80626ff3989d68f67f5b1dd12d90636900a3ae906024016123cf565b60408051600b8082526101808201909252600091829190816020015b606081526020019060019003908161305257905050905060405180604001604052806015815260200174736372697074732f676f2d6666692f676f2d66666960581b815250816000815181106130aa576130aa615f07565b6020026020010181905250604051806040016040528060048152602001633234b33360e11b815250816001815181106130e5576130e5615f07565b60200260200101819052506040518060400160405280601681526020017f686173684465706f7369745472616e73616374696f6e000000000000000000008152508160028151811061313957613139615f07565b6020026020010181905250604051806080016040528060428152602001616732604291398160038151811061317057613170615f07565b602090810291909101015260405163348051d760e11b815267ffffffffffffffff84166004820152737109709ecfa91a80626ff3989d68f67f5b1dd12d90636900a3ae90602401600060405180830381865afa1580156131d4573d6000803e3d6000fd5b505050506040513d6000823e601f3d908101601f191682016040526131fc9190810190615f66565b8160048151811061320f5761320f615f07565b6020908102919091010152604051632b65311f60e11b815273ffffffffffffffffffffffffffffffffffffffff8a166004820152737109709ecfa91a80626ff3989d68f67f5b1dd12d906356ca623e90602401600060405180830381865afa15801561327f573d6000803e3d6000fd5b505050506040513d6000823e601f3d908101601f191682016040526132a79190810190615f66565b816005815181106132ba576132ba615f07565b6020908102919091010152604051632b65311f60e11b815273ffffffffffffffffffffffffffffffffffffffff89166004820152737109709ecfa91a80626ff3989d68f67f5b1dd12d906356ca623e90602401600060405180830381865afa15801561332a573d6000803e3d6000fd5b505050506040513d6000823e601f3d908101601f191682016040526133529190810190615f66565b8160068151811061336557613365615f07565b602090810291909101015260405163348051d760e11b815260048101889052737109709ecfa91a80626ff3989d68f67f5b1dd12d90636900a3ae90602401600060405180830381865afa1580156133c0573d6000803e3d6000fd5b505050506040513d6000823e601f3d908101601f191682016040526133e89190810190615f66565b816007815181106133fb576133fb615f07565b602090810291909101015260405163348051d760e11b815260048101879052737109709ecfa91a80626ff3989d68f67f5b1dd12d90636900a3ae90602401600060405180830381865afa158015613456573d6000803e3d6000fd5b505050506040513d6000823e601f3d908101601f1916820160405261347e9190810190615f66565b8160088151811061349157613491615f07565b602090810291909101015260405163348051d760e11b815267ffffffffffffffff86166004820152737109709ecfa91a80626ff3989d68f67f5b1dd12d90636900a3ae90602401600060405180830381865afa1580156134f5573d6000803e3d6000fd5b505050506040513d6000823e601f3d908101601f1916820160405261351d9190810190615f66565b8160098151811061353057613530615f07565b60209081029190910101526040517f71aad10d000000000000000000000000000000000000000000000000000000008152737109709ecfa91a80626ff3989d68f67f5b1dd12d906371aad10d9061358b908790600401615b28565b600060405180830381865afa1580156135a8573d6000803e3d6000fd5b505050506040513d6000823e601f3d908101601f191682016040526135d09190810190615f66565b81600a815181106135e3576135e3615f07565b602002602001018190525060006135f98261517d565b90508080602001905181019061360f9190615faf565b9a9950505050505050505050565b604080516007808252610100820190925260609160009190816020015b606081526020019060019003908161363a57905050905060405180604001604052806015815260200174736372697074732f676f2d6666692f676f2d66666960581b8152508160008151811061369257613692615f07565b6020026020010181905250604051806040016040528060048152602001633234b33360e11b815250816001815181106136cd576136cd615f07565b60200260200101819052506040518060400160405280601481526020017f656e636f6465476173506179696e67546f6b656e0000000000000000000000008152508160028151811061372157613721615f07565b6020908102919091010152604051632b65311f60e11b815273ffffffffffffffffffffffffffffffffffffffff87166004820152737109709ecfa91a80626ff3989d68f67f5b1dd12d906356ca623e90602401600060405180830381865afa158015613791573d6000803e3d6000fd5b505050506040513d6000823e601f3d908101601f191682016040526137b99190810190615f66565b816003815181106137cc576137cc615f07565b602090810291909101015260405163348051d760e11b815260ff86166004820152737109709ecfa91a80626ff3989d68f67f5b1dd12d90636900a3ae90602401600060405180830381865afa158015613829573d6000803e3d6000fd5b505050506040513d6000823e601f3d908101601f191682016040526138519190810190615f66565b8160048151811061386457613864615f07565b60209081029190910101526040517fb11a19e800000000000000000000000000000000000000000000000000000000815260048101859052737109709ecfa91a80626ff3989d68f67f5b1dd12d9063b11a19e890602401600060405180830381865afa1580156138d8573d6000803e3d6000fd5b505050506040513d6000823e601f3d908101601f191682016040526139009190810190615f66565b8160058151811061391357613913615f07565b60209081029190910101526040517fb11a19e800000000000000000000000000000000000000000000000000000000815260048101849052737109709ecfa91a80626ff3989d68f67f5b1dd12d9063b11a19e890602401600060405180830381865afa158015613987573d6000803e3d6000fd5b505050506040513d6000823e601f3d908101601f191682016040526139af9190810190615f66565b816006815181106139c2576139c2615f07565b602002602001018190525060006139d88261517d565b9050808060200190518101906139ee9190616132565b979650505050505050565b60408051600880825261012082019092526000916060918391816020015b6060815260200190600190039081613a1757905050905060405180604001604052806015815260200174736372697074732f676f2d6666692f676f2d66666960581b81525081600081518110613a6f57613a6f615f07565b6020026020010181905250604051806040016040528060048152602001633234b33360e11b81525081600181518110613aaa57613aaa615f07565b60200260200101819052506040518060400160405280601281526020017f63616e6e6f6e4d656d6f727950726f6f6632000000000000000000000000000081525081600281518110613afe57613afe615f07565b602090810291909101015260405163348051d760e11b815263ffffffff89166004820152737109709ecfa91a80626ff3989d68f67f5b1dd12d90636900a3ae90602401600060405180830381865afa158015613b5e573d6000803e3d6000fd5b505050506040513d6000823e601f3d908101601f19168201604052613b869190810190615f66565b81600381518110613b9957613b99615f07565b602090810291909101015260405163348051d760e11b815263ffffffff88166004820152737109709ecfa91a80626ff3989d68f67f5b1dd12d90636900a3ae90602401600060405180830381865afa158015613bf9573d6000803e3d6000fd5b505050506040513d6000823e601f3d908101601f19168201604052613c219190810190615f66565b81600481518110613c3457613c34615f07565b602090810291909101015260405163348051d760e11b815263ffffffff87166004820152737109709ecfa91a80626ff3989d68f67f5b1dd12d90636900a3ae90602401600060405180830381865afa158015613c94573d6000803e3d6000fd5b505050506040513d6000823e601f3d908101601f19168201604052613cbc9190810190615f66565b81600581518110613ccf57613ccf615f07565b602090810291909101015260405163348051d760e11b815263ffffffff86166004820152737109709ecfa91a80626ff3989d68f67f5b1dd12d90636900a3ae90602401600060405180830381865afa158015613d2f573d6000803e3d6000fd5b505050506040513d6000823e601f3d908101601f19168201604052613d579190810190615f66565b81600681518110613d6a57613d6a615f07565b602090810291909101015260405163348051d760e11b815263ffffffff85166004820152737109709ecfa91a80626ff3989d68f67f5b1dd12d90636900a3ae90602401611a80565b60408051600780825261010082019092526000916060918391816020015b6060815260200190600190039081613dd057905050905060405180604001604052806015815260200174736372697074732f676f2d6666692f676f2d66666960581b81525081600081518110613e2857613e28615f07565b6020026020010181905250604051806040016040528060048152602001633234b33360e11b81525081600181518110613e6357613e63615f07565b60200260200101819052506040518060400160405280601181526020017f63616e6e6f6e4d656d6f727950726f6f6600000000000000000000000000000081525081600281518110613eb757613eb7615f07565b602090810291909101015260405163348051d760e11b815267ffffffffffffffff88166004820152737109709ecfa91a80626ff3989d68f67f5b1dd12d90636900a3ae90602401600060405180830381865afa158015613f1b573d6000803e3d6000fd5b505050506040513d6000823e601f3d908101601f19168201604052613f439190810190615f66565b81600381518110613f5657613f56615f07565b602090810291909101015260405163348051d760e11b815267ffffffffffffffff87166004820152737109709ecfa91a80626ff3989d68f67f5b1dd12d90636900a3ae90602401600060405180830381865afa158015613fba573d6000803e3d6000fd5b505050506040513d6000823e601f3d908101601f19168201604052613fe29190810190615f66565b81600481518110613ff557613ff5615f07565b602090810291909101015260405163348051d760e11b815267ffffffffffffffff86166004820152737109709ecfa91a80626ff3989d68f67f5b1dd12d90636900a3ae90602401600060405180830381865afa158015614059573d6000803e3d6000fd5b505050506040513d6000823e601f3d908101601f191682016040526140819190810190615f66565b8160058151811061409457614094615f07565b602090810291909101015260405163348051d760e11b815267ffffffffffffffff85166004820152737109709ecfa91a80626ff3989d68f67f5b1dd12d90636900a3ae90602401611135565b60408051600480825260a08201909252600091829190816020015b60608152602001906001900390816140fb57905050905060405180604001604052806015815260200174736372697074732f676f2d6666692f676f2d66666960581b8152508160008151811061415357614153615f07565b6020026020010181905250604051806040016040528060048152602001633234b33360e11b8152508160018151811061418e5761418e615f07565b60200260200101819052506040518060400160405280601281526020017f686173685375706572526f6f7450726f6f660000000000000000000000000000815250816002815181106141e2576141e2615f07565b6020026020010181905250737109709ecfa91a80626ff3989d68f67f5b1dd12d73ffffffffffffffffffffffffffffffffffffffff166371aad10d8460405160200161422e91906161cc565b6040516020818303038152906040526040518263ffffffff1660e01b81526004016142599190615b28565b600060405180830381865afa158015614276573d6000803e3d6000fd5b505050506040513d6000823e601f3d908101601f1916820160405261429e9190810190615f66565b816003815181106142b1576142b1615f07565b602002602001018190525060006142c78261517d565b9050808060200190518101906126659190615faf565b60408051600480825260a0820190925260009182918291816020015b60608152602001906001900390816142f957905050905060405180604001604052806015815260200174736372697074732f676f2d6666692f676f2d66666960581b8152508160008151811061435157614351615f07565b6020026020010181905250604051806040016040528060048152602001633234b33360e11b8152508160018151811061438c5761438c615f07565b60200260200101819052506040518060400160405280601381526020017f6465636f64655363616c617245636f746f6e6500000000000000000000000000815250816002815181106143e0576143e0615f07565b60209081029190910101526040517fb11a19e800000000000000000000000000000000000000000000000000000000815260048101859052737109709ecfa91a80626ff3989d68f67f5b1dd12d9063b11a19e890602401600060405180830381865afa158015614454573d6000803e3d6000fd5b505050506040513d6000823e601f3d908101601f1916820160405261447c9190810190615f66565b8160038151811061448f5761448f615f07565b602002602001018190525060006144a58261517d565b9050808060200190518101906121d99190616338565b6040805160098082526101408201909252600091829190816020015b60608152602001906001900390816144d757905050905060405180604001604052806015815260200174736372697074732f676f2d6666692f676f2d66666960581b8152508160008151811061452f5761452f615f07565b6020026020010181905250604051806040016040528060048152602001633234b33360e11b8152508160018151811061456a5761456a615f07565b60200260200101819052506040518060400160405280600e81526020017f686173685769746864726177616c000000000000000000000000000000000000815250816002815181106104e8576104e8615f07565b6040805160078082526101008201909252600091829190816020015b60608152602001906001900390816145da57905050905060405180604001604052806015815260200174736372697074732f676f2d6666692f676f2d66666960581b8152508160008151811061463257614632615f07565b6020026020010181905250604051806040016040528060048152602001633234b33360e11b8152508160018151811061466d5761466d615f07565b60200260200101819052506040518060400160405280601381526020017f686173684f7574707574526f6f7450726f6f6600000000000000000000000000815250816002815181106146c1576146c1615f07565b60209081029190910101526146d586615190565b816003815181106146e8576146e8615f07565b60209081029190910101526146fc85615190565b8160048151811061470f5761470f615f07565b602090810291909101015261472384615190565b8160058151811061473657614736615f07565b602090810291909101015261474a83615190565b8160068151811061475d5761475d615f07565b602002602001018190525060006147738261517d565b9050808060200190518101906139ee9190615faf565b60408051600580825260c08201909252600091829190816020015b60608152602001906001900390816147a457905050905060405180604001604052806015815260200174736372697074732f676f2d6666692f676f2d66666960581b815250816000815181106147fc576147fc615f07565b6020026020010181905250604051806040016040528060048152602001633234b33360e11b8152508160018151811061483757614837615f07565b60200260200101819052506040518060400160405280601381526020017f656e636f64655363616c617245636f746f6e65000000000000000000000000008152508160028151811061488b5761488b615f07565b602090810291909101015260405163348051d760e11b815263ffffffff85166004820152737109709ecfa91a80626ff3989d68f67f5b1dd12d90636900a3ae90602401600060405180830381865afa1580156148eb573d6000803e3d6000fd5b505050506040513d6000823e601f3d908101601f191682016040526149139190810190615f66565b8160038151811061492657614926615f07565b602090810291909101015260405163348051d760e11b815263ffffffff84166004820152737109709ecfa91a80626ff3989d68f67f5b1dd12d90636900a3ae90602401600060405180830381865afa158015614986573d6000803e3d6000fd5b505050506040513d6000823e601f3d908101601f191682016040526149ae9190810190615f66565b816004815181106149c1576149c1615f07565b602002602001018190525060006149d78261517d565b9050808060200190518101906149ed9190615faf565b95945050505050565b60408051600c8082526101a0820190925260609160009190816020015b6060815260200190600190039081614a1357905050905060405180604001604052806015815260200174736372697074732f676f2d6666692f676f2d66666960581b81525081600081518110614a6b57614a6b615f07565b6020026020010181905250604051806040016040528060048152602001633234b33360e11b81525081600181518110614aa657614aa6615f07565b60200260200101819052506040518060400160405280601881526020017f656e636f64654465706f7369745472616e73616374696f6e000000000000000081525081600281518110614afa57614afa615f07565b6020026020010181905250737109709ecfa91a80626ff3989d68f67f5b1dd12d73ffffffffffffffffffffffffffffffffffffffff166356ca623e846000016020810190614b489190616367565b6040517fffffffff0000000000000000000000000000000000000000000000000000000060e084901b16815273ffffffffffffffffffffffffffffffffffffffff9091166004820152602401600060405180830381865afa158015614bb1573d6000803e3d6000fd5b505050506040513d6000823e601f3d908101601f19168201604052614bd99190810190615f66565b81600381518110614bec57614bec615f07565b6020026020010181905250737109709ecfa91a80626ff3989d68f67f5b1dd12d73ffffffffffffffffffffffffffffffffffffffff166356ca623e846020016020810190614c3a9190616367565b6040517fffffffff0000000000000000000000000000000000000000000000000000000060e084901b16815273ffffffffffffffffffffffffffffffffffffffff9091166004820152602401600060405180830381865afa158015614ca3573d6000803e3d6000fd5b505050506040513d6000823e601f3d908101601f19168201604052614ccb9190810190615f66565b81600481518110614cde57614cde615f07565b602090810291909101015260405163348051d760e11b815260608401356004820152737109709ecfa91a80626ff3989d68f67f5b1dd12d90636900a3ae90602401600060405180830381865afa158015614d3c573d6000803e3d6000fd5b505050506040513d6000823e601f3d908101601f19168201604052614d649190810190615f66565b81600581518110614d7757614d77615f07565b602090810291909101015260405163348051d760e11b815260808401356004820152737109709ecfa91a80626ff3989d68f67f5b1dd12d90636900a3ae90602401600060405180830381865afa158015614dd5573d6000803e3d6000fd5b505050506040513d6000823e601f3d908101601f19168201604052614dfd9190810190615f66565b81600681518110614e1057614e10615f07565b6020908102919091010152737109709ecfa91a80626ff3989d68f67f5b1dd12d636900a3ae614e4560c0860160a08701616382565b6040517fffffffff0000000000000000000000000000000000000000000000000000000060e084901b16815267ffffffffffffffff9091166004820152602401600060405180830381865afa158015614ea2573d6000803e3d6000fd5b505050506040513d6000823e601f3d908101601f19168201604052614eca9190810190615f66565b81600781518110614edd57614edd615f07565b6020908102919091010152737109709ecfa91a80626ff3989d68f67f5b1dd12d6371dce7da614f12606086016040870161639d565b6040518263ffffffff1660e01b8152600401614f32911515815260200190565b600060405180830381865afa158015614f4f573d6000803e3d6000fd5b505050506040513d6000823e601f3d908101601f19168201604052614f779190810190615f66565b81600881518110614f8a57614f8a615f07565b6020908102919091010152737109709ecfa91a80626ff3989d68f67f5b1dd12d6371aad10d614fbc60c08601866163bf565b6040518363ffffffff1660e01b8152600401614fd9929190616424565b600060405180830381865afa158015614ff6573d6000803e3d6000fd5b505050506040513d6000823e601f3d908101601f1916820160405261501e9190810190615f66565b8160098151811061503157615031615f07565b60209081029190910101526040517fb11a19e800000000000000000000000000000000000000000000000000000000815260e08401356004820152737109709ecfa91a80626ff3989d68f67f5b1dd12d9063b11a19e890602401600060405180830381865afa1580156150a8573d6000803e3d6000fd5b505050506040513d6000823e601f3d908101601f191682016040526150d09190810190615f66565b81600a815181106150e3576150e3615f07565b602090810291909101015260405163348051d760e11b81526101008401356004820152737109709ecfa91a80626ff3989d68f67f5b1dd12d90636900a3ae90602401600060405180830381865afa158015615142573d6000803e3d6000fd5b505050506040513d6000823e601f3d908101601f1916820160405261516a9190810190615f66565b81600b8151811061263957612639615f07565b606061518a826000615200565b92915050565b6060816000036151d357505060408051808201909152600481527f3078303000000000000000000000000000000000000000000000000000000000602082015290565b8160005b81156151f657806151e781616482565b915050600882901c91506151d7565b61266584826153f4565b6040517ff45c1ce7000000000000000000000000000000000000000000000000000000008152606090600090737109709ecfa91a80626ff3989d68f67f5b1dd12d9063f45c1ce79061525690879060040161649c565b6000604051808303816000875af1158015615275573d6000803e3d6000fd5b505050506040513d6000823e601f3d908101601f1916820160405261529d919081019061651c565b9050606060005b85518110156152fd57818682815181106152c0576152c0615f07565b60200260200101516040516020016152d99291906165c6565b604051602081830303815290604052915080806152f590616482565b9150506152a4565b50815160030b156153685780826040015160405160200161531f92919061661d565b60408051601f19818403018152908290527f37eccf6f00000000000000000000000000000000000000000000000000000000825261535f91600401615b28565b60405180910390fd5b831580156153d2575060408051808201909152600281527f5b5d0000000000000000000000000000000000000000000000000000000000006020918201528281015180519101207f518674ab2b227e5f11e9084f615d57663cde47bce1ba168b4c19c7ee22a73d70145b156153e8578060405160200161531f919061669e565b50602001519392505050565b606060006154038360026166e3565b61540e906002616702565b67ffffffffffffffff81111561542657615426615667565b6040519080825280601f01601f191660200182016040528015615450576020820181803683370190505b5090507f30000000000000000000000000000000000000000000000000000000000000008160008151811061548757615487615f07565b60200101907effffffffffffffffffffffffffffffffffffffffffffffffffffffffffffff1916908160001a9053507f7800000000000000000000000000000000000000000000000000000000000000816001815181106154ea576154ea615f07565b60200101907effffffffffffffffffffffffffffffffffffffffffffffffffffffffffffff1916908160001a90535060006155268460026166e3565b615531906001616702565b90505b60018111156155ce577f303132333435363738396162636465660000000000000000000000000000000085600f166010811061557257615572615f07565b1a60f81b82828151811061558857615588615f07565b60200101907effffffffffffffffffffffffffffffffffffffffffffffffffffffffffffff1916908160001a90535060049490941c936155c78161671a565b9050615534565b508315615637576040517f08c379a000000000000000000000000000000000000000000000000000000000815260206004820181905260248201527f537472696e67733a20686578206c656e67746820696e73756666696369656e74604482015260640161535f565b9392505050565b803573ffffffffffffffffffffffffffffffffffffffff8116811461566257600080fd5b919050565b7f4e487b7100000000000000000000000000000000000000000000000000000000600052604160045260246000fd5b60405160c0810167ffffffffffffffff811182821017156156b9576156b9615667565b60405290565b6040516060810167ffffffffffffffff811182821017156156b9576156b9615667565b604051601f8201601f1916810167ffffffffffffffff8111828210171561570b5761570b615667565b604052919050565b600067ffffffffffffffff82111561572d5761572d615667565b50601f01601f191660200190565b600061574e61574984615713565b6156e2565b905082815283838301111561576257600080fd5b828260208301376000602084830101529392505050565b600082601f83011261578a57600080fd5b6156378383356020850161573b565b60008060008060008060c087890312156157b257600080fd5b863595506157c26020880161563e565b94506157d06040880161563e565b9350606087013592506080870135915060a087013567ffffffffffffffff8111156157fa57600080fd5b61580689828a01615779565b9150509295509295509295565b60006020828403121561582557600080fd5b813567ffffffffffffffff8082111561583d57600080fd5b9083019060c0828603121561585157600080fd5b615859615696565b823581526158696020840161563e565b602082015261587a6040840161563e565b6040820152606083013560608201526080830135608082015260a0830135828111156158a557600080fd5b6158b187828601615779565b60a08301525095945050505050565b60005b838110156158db5781810151838201526020016158c3565b838111156158ea576000848401525b50505050565b600081518084526159088160208601602086016158c0565b601f01601f19169290920160200192915050565b600082825180855260208086019550808260051b84010181860160005b8481101561596757601f198684030189526159558383516158f0565b98840198925090830190600101615939565b5090979650505050505050565b85815284602082015283604082015282606082015260a0608082015260006139ee60a083018461591c565b63ffffffff811681146159b157600080fd5b50565b600080600080608085870312156159ca57600080fd5b84356159d58161599f565b935060208501356159e58161599f565b925060408501356159f58161599f565b91506060850135615a058161599f565b939692955090935050565b82815260406020820152600061266560408301846158f0565b60008060008060008060c08789031215615a4257600080fd5b8635615a4d8161599f565b95506020870135615a5d8161599f565b94506040870135615a6d8161599f565b93506060870135615a7d8161599f565b92506080870135615a8d8161599f565b915060a0870135615a9d8161599f565b809150509295509295509295565b803567ffffffffffffffff8116811461566257600080fd5b600080600080600060a08688031215615adb57600080fd5b615ae486615aab565b9450615af260208701615aab565b9350615b0060408701615aab565b9250615b0e60608701615aab565b9150615b1c60808701615aab565b90509295509295909350565b60208152600061563760208301846158f0565b600060208284031215615b4d57600080fd5b5035919050565b60008060408385031215615b6757600080fd5b615b7083615aab565b9150615b7e60208401615aab565b90509250929050565b600060208284031215615b9957600080fd5b813567ffffffffffffffff811115615bb057600080fd5b82016060818503121561563757600080fd5b60008060008060008060c08789031215615bdb57600080fd5b615be487615aab565b9550615bf260208801615aab565b9450615c0060408801615aab565b9350615c0e60608801615aab565b9250615c1c60808801615aab565b9150615c2a60a08801615aab565b90509295509295509295565b600060208284031215615c4857600080fd5b813567ffffffffffffffff811115615c5f57600080fd5b8201601f81018413615c7057600080fd5b6126658482356020840161573b565b848152608060208201526000615c9860808301866158f0565b8281036040840152615caa81866158f0565b905082810360608401526139ee818561591c565b60008060408385031215615cd157600080fd5b8235615cdc8161599f565b91506020830135615cec8161599f565b809150509250929050565b600080600080600080600060e0888a031215615d1257600080fd5b615d1b8861563e565b9650615d296020890161563e565b95506040880135945060608801359350615d4560808901615aab565b925060a088013567ffffffffffffffff811115615d6157600080fd5b615d6d8a828b01615779565b925050615d7c60c08901615aab565b905092959891949750929550565b60008060008060808587031215615da057600080fd5b615da98561563e565b9350602085013560ff81168114615dbf57600080fd5b93969395505050506040820135916060013590565b600080600080600060a08688031215615dec57600080fd5b8535615df78161599f565b94506020860135615e078161599f565b93506040860135615e178161599f565b92506060860135615e278161599f565b91506080860135615e378161599f565b809150509295509295909350565b60008060008060808587031215615e5b57600080fd5b615e6485615aab565b9350615e7260208601615aab565b9250615e8060408601615aab565b9150615e8e60608601615aab565b905092959194509250565b60008060008060808587031215615eaf57600080fd5b5050823594602084013594506040840135936060013592509050565b600060208284031215615edd57600080fd5b813567ffffffffffffffff811115615ef457600080fd5b8201610120818503121561563757600080fd5b7f4e487b7100000000000000000000000000000000000000000000000000000000600052603260045260246000fd5b6000615f4461574984615713565b9050828152838383011115615f5857600080fd5b6156378360208301846158c0565b600060208284031215615f7857600080fd5b815167ffffffffffffffff811115615f8f57600080fd5b8201601f81018413615fa057600080fd5b61266584825160208401615f36565b600060208284031215615fc157600080fd5b5051919050565b600082601f830112615fd957600080fd5b61563783835160208501615f36565b600082601f830112615ff957600080fd5b8151602067ffffffffffffffff8083111561601657616016615667565b8260051b6160258382016156e2565b938452858101830193838101908886111561603f57600080fd5b84880192505b8583101561607b5782518481111561605d5760008081fd5b61606b8a87838c0101615fc8565b8352509184019190840190616045565b98975050505050505050565b600080600080600060a0868803121561609f57600080fd5b85519450602086015193506040860151925060608601519150608086015167ffffffffffffffff8111156160d257600080fd5b6160de88828901615fe8565b9150509295509295909350565b600080604083850312156160fe57600080fd5b82519150602083015167ffffffffffffffff81111561611c57600080fd5b61612885828601615fc8565b9150509250929050565b60006020828403121561614457600080fd5b815167ffffffffffffffff81111561615b57600080fd5b61266584828501615fc8565b6000806040838503121561617a57600080fd5b505080516020909101519092909150565b8183526000602080850194508260005b858110156161c1578135875282820135838801526040968701969091019060010161619b565b509495945050505050565b60208152600082357fff00000000000000000000000000000000000000000000000000000000000000811680821461620357600080fd5b806020850152505061621760208401615aab565b67ffffffffffffffff8082166040850152604085013591507fffffffffffffffffffffffffffffffffffffffffffffffffffffffffffffffe185360301821261625f57600080fd5b602091850191820191358181111561627657600080fd5b8060061b360383131561628857600080fd5b60608086015261629c60808601828561618b565b9695505050505050565b600080600080608085870312156162bc57600080fd5b84519350602085015167ffffffffffffffff808211156162db57600080fd5b6162e788838901615fc8565b945060408701519150808211156162fd57600080fd5b61630988838901615fc8565b9350606087015191508082111561631f57600080fd5b5061632c87828801615fe8565b91505092959194509250565b6000806040838503121561634b57600080fd5b82516163568161599f565b6020840151909250615cec8161599f565b60006020828403121561637957600080fd5b6156378261563e565b60006020828403121561639457600080fd5b61563782615aab565b6000602082840312156163af57600080fd5b8135801515811461563757600080fd5b60008083357fffffffffffffffffffffffffffffffffffffffffffffffffffffffffffffffe18436030181126163f457600080fd5b83018035915067ffffffffffffffff82111561640f57600080fd5b60200191503681900382131561246057600080fd5b60208152816020820152818360408301376000818301604090810191909152601f909201601f19160101919050565b7f4e487b7100000000000000000000000000000000000000000000000000000000600052601160045260246000fd5b6000600019820361649557616495616453565b5060010190565b6000602080830181845280855180835260408601915060408160051b870101925083870160005b8281101561650f577fffffffffffffffffffffffffffffffffffffffffffffffffffffffffffffffc08886030184526164fd8583516158f0565b945092850192908501906001016164c3565b5092979650505050505050565b60006020828403121561652e57600080fd5b815167ffffffffffffffff8082111561654657600080fd5b908301906060828603121561655a57600080fd5b6165626156bf565b82518060030b811461657357600080fd5b815260208301518281111561658757600080fd5b61659387828601615fc8565b6020830152506040830151828111156165ab57600080fd5b6165b787828601615fc8565b60408301525095945050505050565b600083516165d88184602088016158c0565b8351908301906165ec8183602088016158c0565b7f20000000000000000000000000000000000000000000000000000000000000009101908152600101949350505050565b7f436f6d6d616e643a2000000000000000000000000000000000000000000000008152600083516166558160098501602088016158c0565b7f0a4572726f723a2000000000000000000000000000000000000000000000000060099184019182015283516166928160118401602088016158c0565b01601101949350505050565b7f4e6f206f75747075742066726f6d20436f6d6d616e643a2000000000000000008152600082516166d68160188501602087016158c0565b9190910160180192915050565b60008160001904831182151516156166fd576166fd616453565b500290565b6000821982111561671557616715616453565b500190565b60008161672957616729616453565b50600019019056fe30783030303030303030303030303030303030303030303030303030303030303030303030303030303030303030303030303030303030303030303030303030303067657450726f76655769746864726177616c5472616e73616374696f6e496e70757473a164736f6c634300080f000a","linkReferences":{}},"methodIdentifiers":{"decodeScalarEcotone(bytes32)":"c040ff53","decodeVersionedNonce(uint256)":"526dc955","encodeCrossDomainMessage(uint256,address,address,uint256,uint256,bytes)":"498a3c02","encodeDependency(uint256)":"6ddb2730","encodeDepositTransaction((address,address,bool,uint256,uint256,uint64,bytes,bytes32,uint256))":"fc677392","encodeGasPayingToken(address,uint8,bytes32,bytes32)":"92bcb236","encodeScalarEcotone(uint32,uint32)":"ee5c8e1d","encodeSuperRootProof((bytes1,uint64,(uint256,bytes32)[]))":"589cbe3c","getCannonMemory64Proof(uint64,uint64)":"5870f513","getCannonMemory64Proof(uint64,uint64,uint64,uint64)":"b7bafd63","getCannonMemory64Proof(uint64,uint64,uint64,uint64,uint64,uint64)":"6d4779ea","getCannonMemory64Proof2(uint64,uint64,uint64,uint64,uint64)":"42eb241d","getCannonMemoryProof(uint32,uint32)":"83dbaa03","getCannonMemoryProof(uint32,uint32,uint32,uint32)":"7f26c48c","getCannonMemoryProof(uint32,uint32,uint32,uint32,uint32,uint32)":"2a4621ea","getCannonMemoryProof2(uint32,uint32,uint32,uint32,uint32)":"b5351669","getCannonMemoryProofWrongLeaf(uint32,uint32,uint32,uint32)":"2803164a","getMerkleTrieFuzzCase(string)":"7e577a1b","getProveWithdrawalTransactionInputs((uint256,address,address,uint256,uint256,bytes))":"1aac97c1","hashCrossDomainMessage(uint256,address,address,uint256,uint256,bytes)":"00ec31a6","hashDepositTransaction(address,address,uint256,uint256,uint64,bytes,uint64)":"8ccece97","hashOutputRootProof(bytes32,bytes32,bytes32,bytes32)":"dcf5edef","hashSuperRootProof((bytes1,uint64,(uint256,bytes32)[]))":"be98a30d","hashWithdrawal(uint256,address,address,uint256,uint256,bytes)":"c21e8865"},"storageLayout":{"storage":[],"types":{}},"userdoc":{"version":1,"kind":"user","errors":{"FfiFailed(string)":[{"notice":"Error for when an ffi command fails."}]},"notice":"This contract is set into state using `etch` and therefore must not have constructor logic.         It also MUST be compiled with `0.8.15` because `vm.getDeployedCode` will break if there         are multiple artifacts for different compiler versions."},"devdoc":{"version":1,"kind":"dev","title":"FFIInterface"},"id":469}