{"abi":[{"type":"constructor","inputs":[],"stateMutability":"nonpayable"},{"type":"function","name":"create","inputs":[{"name":"_gameType","type":"uint32","internalType":"GameType"},{"name":"_rootClaim","type":"bytes32","internalType":"Claim"},{"name":"_extraData","type":"bytes","internalType":"bytes"}],"outputs":[{"name":"proxy_","type":"address","internalType":"contract IDisputeGame"}],"stateMutability":"payable"},{"type":"function","name":"findLatestGames","inputs":[{"name":"_gameType","type":"uint32","internalType":"GameType"},{"name":"_start","type":"uint256","internalType":"uint256"},{"name":"_n","type":"uint256","internalType":"uint256"}],"outputs":[{"name":"games_","type":"tuple[]","internalType":"struct DisputeGameFactory.GameSearchResult[]","components":[{"name":"index","type":"uint256","internalType":"uint256"},{"name":"metadata","type":"bytes32","internalType":"GameId"},{"name":"timestamp","type":"uint64","internalType":"Timestamp"},{"name":"rootClaim","type":"bytes32","internalType":"Claim"},{"name":"extraData","type":"bytes","internalType":"bytes"}]}],"stateMutability":"view"},{"type":"function","name":"gameAtIndex","inputs":[{"name":"_index","type":"uint256","internalType":"uint256"}],"outputs":[{"name":"gameType_","type":"uint32","internalType":"GameType"},{"name":"timestamp_","type":"uint64","internalType":"Timestamp"},{"name":"proxy_","type":"address","internalType":"contract IDisputeGame"}],"stateMutability":"view"},{"type":"function","name":"gameCount","inputs":[],"outputs":[{"name":"gameCount_","type":"uint256","internalType":"uint256"}],"stateMutability":"view"},{"type":"function","name":"gameImpls","inputs":[{"name":"","type":"uint32","internalType":"GameType"}],"outputs":[{"name":"","type":"address","internalType":"contract IDisputeGame"}],"stateMutability":"view"},{"type":"function","name":"games","inputs":[{"name":"_gameType","type":"uint32","internalType":"GameType"},{"name":"_rootClaim","type":"bytes32","internalType":"Claim"},{"name":"_extraData","type":"bytes","internalType":"bytes"}],"outputs":[{"name":"proxy_","type":"address","internalType":"contract IDisputeGame"},{"name":"timestamp_","type":"uint64","internalType":"Timestamp"}],"stateMutability":"view"},{"type":"function","name":"getGameUUID","inputs":[{"name":"_gameType","type":"uint32","internalType":"GameType"},{"name":"_rootClaim","type":"bytes32","internalType":"Claim"},{"name":"_extraData","type":"bytes","internalType":"bytes"}],"outputs":[{"name":"uuid_","type":"bytes32","internalType":"Hash"}],"stateMutability":"pure"},{"type":"function","name":"initBonds","inputs":[{"name":"","type":"uint32","internalType":"GameType"}],"outputs":[{"name":"","type":"uint256","internalType":"uint256"}],"stateMutability":"view"},{"type":"function","name":"initVersion","inputs":[],"outputs":[{"name":"","type":"uint8","internalType":"uint8"}],"stateMutability":"view"},{"type":"function","name":"initialize","inputs":[{"name":"_owner","type":"address","internalType":"address"}],"outputs":[],"stateMutability":"nonpayable"},{"type":"function","name":"owner","inputs":[],"outputs":[{"name":"","type":"address","internalType":"address"}],"stateMutability":"view"},{"type":"function","name":"proxyAdmin","inputs":[],"outputs":[{"name":"","type":"address","internalType":"contract IProxyAdmin"}],"stateMutability":"view"},{"type":"function","name":"proxyAdminOwner","inputs":[],"outputs":[{"name":"","type":"address","internalType":"address"}],"stateMutability":"view"},{"type":"function","name":"rat","inputs":[],"outputs":[{"name":"","type":"address","internalType":"address"}],"stateMutability":"view"},{"type":"function","name":"renounceOwnership","inputs":[],"outputs":[],"stateMutability":"nonpayable"},{"type":"function","name":"setImplementation","inputs":[{"name":"_gameType","type":"uint32","internalType":"GameType"},{"name":"_impl","type":"address","internalType":"contract IDisputeGame"}],"outputs":[],"stateMutability":"nonpayable"},{"type":"function","name":"setInitBond","inputs":[{"name":"_gameType","type":"uint32","internalType":"GameType"},{"name":"_initBond","type":"uint256","internalType":"uint256"}],"outputs":[],"stateMutability":"nonpayable"},{"type":"function","name":"setRAT","inputs":[{"name":"_rat","type":"address","internalType":"address"}],"outputs":[],"stateMutability":"nonpayable"},{"type":"function","name":"transferOwnership","inputs":[{"name":"newOwner","type":"address","internalType":"address"}],"outputs":[],"stateMutability":"nonpayable"},{"type":"function","name":"version","inputs":[],"outputs":[{"name":"","type":"string","internalType":"string"}],"stateMutability":"view"},{"type":"event","name":"DisputeGameCreated","inputs":[{"name":"disputeProxy","type":"address","indexed":true,"internalType":"address"},{"name":"gameType","type":"uint32","indexed":true,"internalType":"GameType"},{"name":"rootClaim","type":"bytes32","indexed":true,"internalType":"Claim"}],"anonymous":false},{"type":"event","name":"ImplementationSet","inputs":[{"name":"impl","type":"address","indexed":true,"internalType":"address"},{"name":"gameType","type":"uint32","indexed":true,"internalType":"GameType"}],"anonymous":false},{"type":"event","name":"InitBondUpdated","inputs":[{"name":"gameType","type":"uint32","indexed":true,"internalType":"GameType"},{"name":"newBond","type":"uint256","indexed":true,"internalType":"uint256"}],"anonymous":false},{"type":"event","name":"Initialized","inputs":[{"name":"version","type":"uint8","indexed":false,"internalType":"uint8"}],"anonymous":false},{"type":"event","name":"OwnershipTransferred","inputs":[{"name":"previousOwner","type":"address","indexed":true,"internalType":"address"},{"name":"newOwner","type":"address","indexed":true,"internalType":"address"}],"anonymous":false},{"type":"error","name":"GameAlreadyExists","inputs":[{"name":"uuid","type":"bytes32","internalType":"Hash"}]},{"type":"error","name":"IncorrectBondAmount","inputs":[]},{"type":"error","name":"NoImplementation","inputs":[{"name":"gameType","type":"uint32","internalType":"GameType"}]},{"type":"error","name":"ProxyAdminOwnedBase_NotProxyAdmin","inputs":[]},{"type":"error","name":"ProxyAdminOwnedBase_NotProxyAdminOrProxyAdminOwner","inputs":[]},{"type":"error","name":"ProxyAdminOwnedBase_NotProxyAdminOwner","inputs":[]},{"type":"error","name":"ProxyAdminOwnedBase_NotResolvedDelegateProxy","inputs":[]},{"type":"error","name":"ProxyAdminOwnedBase_NotSharedProxyAdminOwner","inputs":[]},{"type":"error","name":"ProxyAdminOwnedBase_ProxyAdminNotFound","inputs":[]},{"type":"error","name":"ReinitializableBase_ZeroInitVersion","inputs":[]}],"bytecode":{"object":"0x60a060405234801561001057600080fd5b50600160805261001e610023565b6100e3565b600054610100900460ff161561008f5760405162461bcd60e51b815260206004820152602760248201527f496e697469616c697a61626c653a20636f6e747261637420697320696e697469604482015266616c697a696e6760c81b606482015260840160405180910390fd5b60005460ff90811610156100e1576000805460ff191660ff9081179091556040519081527f7f26b83ff96e1f2b6a682f133852f6798a09c465da95921460cefb38474024989060200160405180910390a15b565b6080516119836101056000396000818161025a0152610e1201526119836000f3fe60806040526004361061015f5760003560e01c80636593dc6e116100c0578063bb8aa1fc11610074578063dad544e011610059578063dad544e01461045d578063f2fde38b14610472578063f5a7ab6e1461049257600080fd5b8063bb8aa1fc146103e9578063c4d66de81461043d57600080fd5b806382ecf2f6116100a557806382ecf2f6146103985780638da5cb5b146103ab57806396cd9720146103c957600080fd5b80636593dc6e14610356578063715018a61461038357600080fd5b806338d38c97116101175780634d1975b4116100fc5780634d1975b41461029957806354fd4d50146102b85780635f0150cb1461030e57600080fd5b806338d38c97146102465780633e47158c1461028457600080fd5b80631e334240116101485780631e334240146101d957806321aec12e146101f9578063254bd6831461021957600080fd5b806314f6b1a3146101645780631b685b9e14610186575b600080fd5b34801561017057600080fd5b5061018461017f36600461148a565b6104b2565b005b34801561019257600080fd5b506101bc6101a13660046114c1565b6065602052600090815260409020546001600160a01b031681565b6040516001600160a01b0390911681526020015b60405180910390f35b3480156101e557600080fd5b506101846101f43660046114dc565b61052f565b34801561020557600080fd5b50610184610214366004611506565b61057b565b34801561022557600080fd5b50610239610234366004611523565b6105bd565b6040516101d091906115b2565b34801561025257600080fd5b5060405160ff7f00000000000000000000000000000000000000000000000000000000000000001681526020016101d0565b34801561029057600080fd5b506101bc6107bc565b3480156102a557600080fd5b506068545b6040519081526020016101d0565b3480156102c457600080fd5b506103016040518060400160405280600581526020017f312e322e3000000000000000000000000000000000000000000000000000000081525081565b6040516101d0919061166f565b34801561031a57600080fd5b5061032e610329366004611682565b6109a0565b604080516001600160a01b03909316835267ffffffffffffffff9091166020830152016101d0565b34801561036257600080fd5b506102aa6103713660046114c1565b60666020526000908152604090205481565b34801561038f57600080fd5b506101846109e6565b6101bc6103a6366004611682565b6109fa565b3480156103b757600080fd5b506033546001600160a01b03166101bc565b3480156103d557600080fd5b506102aa6103e4366004611682565b610d7b565b3480156103f557600080fd5b50610409610404366004611709565b610db4565b6040805163ffffffff909416845267ffffffffffffffff90921660208401526001600160a01b0316908201526060016101d0565b34801561044957600080fd5b50610184610458366004611506565b610e10565b34801561046957600080fd5b506101bc610f88565b34801561047e57600080fd5b5061018461048d366004611506565b610ff8565b34801561049e57600080fd5b506069546101bc906001600160a01b031681565b6104ba6110a2565b63ffffffff821660008181526065602052604080822080547fffffffffffffffffffffffff0000000000000000000000000000000000000000166001600160a01b038616908117909155905190917fff513d80e2c7fa487608f70a618dfbc0cf415699dc69588c747e8c71566c88de91a35050565b6105376110a2565b63ffffffff8216600081815260666020526040808220849055518392917f74d6665c4b26d5596a5aa13d3014e0c06af4d322075a797f87b03cd4c5bc91ca91a35050565b6105836110a2565b606980547fffffffffffffffffffffffff0000000000000000000000000000000000000000166001600160a01b0392909216919091179055565b606854606090831015806105cf575081155b6107b5575060408051600583901b8101602001909152825b8381116107b35760006068828154811061060357610603611722565b600091825260209091200154905060e081901c60a082901c67ffffffffffffffff166001600160a01b03831663ffffffff8916830361078457600186510186526000816001600160a01b031663609d33346040518163ffffffff1660e01b8152600401600060405180830381865afa158015610683573d6000803e3d6000fd5b505050506040513d6000823e601f3d908101601f191682016040526106ab9190810190611780565b90506000826001600160a01b031663bcef3b556040518163ffffffff1660e01b8152600401602060405180830381865afa1580156106ed573d6000803e3d6000fd5b505050506040513d601f19601f82011682018060405250810190610711919061182d565b90506040518060a001604052808881526020018781526020018567ffffffffffffffff168152602001828152602001838152508860018a516107539190611875565b8151811061076357610763611722565b602002602001018190525088885110610781575050505050506107b3565b50505b50507fffffffffffffffffffffffffffffffffffffffffffffffffffffffffffffffff90920191506105e79050565b505b9392505050565b6000806107e77fb53127684a568b3173ae13b9f8a6016e243e63b6e8ee1178d6a717850b5d61035490565b90506001600160a01b038116156107fd57919050565b6040518060400160405280601a81526020017f4f564d5f4c3143726f7373446f6d61696e4d657373656e676572000000000000815250516002610840919061188c565b604080513060208201526000918101919091527f4f564d5f4c3143726f7373446f6d61696e4d657373656e676572000000000000919091179061089b906060015b604051602081830303815290604052805190602001205490565b146108d2576040517f54e433cd00000000000000000000000000000000000000000000000000000000815260040160405180910390fd5b604080513060208201526001918101919091526000906108f490606001610881565b90506001600160a01b0381161561096e57806001600160a01b0316638da5cb5b6040518163ffffffff1660e01b8152600401602060405180830381865afa158015610943573d6000803e3d6000fd5b505050506040513d601f19601f8201168201806040525081019061096791906118c9565b9250505090565b6040517f332144db00000000000000000000000000000000000000000000000000000000815260040160405180910390fd5b60008060006109b187878787610d7b565b6000908152606760205260409020546001600160a01b0381169860a09190911c67ffffffffffffffff16975095505050505050565b6109ee6110a2565b6109f86000611116565b565b63ffffffff84166000908152606560205260408120546001600160a01b031680610a5d576040517f031c6de400000000000000000000000000000000000000000000000000000000815263ffffffff871660048201526024015b60405180910390fd5b63ffffffff86166000908152606660205260409020543414610aab576040517f8620aa1900000000000000000000000000000000000000000000000000000000815260040160405180910390fd5b6000610ab8600143611875565b409050610af73387838888604051602001610ad79594939291906118e6565b60408051601f198184030181529190526001600160a01b03841690611180565b925063ffffffff8716610b83576069546040517fc4d66de80000000000000000000000000000000000000000000000000000000081526001600160a01b0391821660048201529084169063c4d66de89034906024016000604051808303818588803b158015610b6557600080fd5b505af1158015610b79573d6000803e3d6000fd5b5050505050610bd8565b826001600160a01b0316638129fc1c346040518263ffffffff1660e01b81526004016000604051808303818588803b158015610bbe57600080fd5b505af1158015610bd2573d6000803e3d6000fd5b50505050505b6000610be688888888610d7b565b60008181526067602052604090205490915015610c32576040517f014f6fe500000000000000000000000000000000000000000000000000000000815260048101829052602401610a54565b60004260a01b60e08a901b178517600083815260676020526040808220839055606880546001810182559083527fa2153420d844928b4421650203c77babc8b33d7f2e7b450e2966db0c220977530183905551919250899163ffffffff8c16916001600160a01b038916917f5b565efe82411da98814f356d0e7bcb8f0219b8d970307c5afb4a6903a8b2e359190a46069546001600160a01b031615801590610cdf575063ffffffff8916155b15610d6f57606954604080517f96e9b6410000000000000000000000000000000000000000000000000000000081526001600160a01b0380851660048301819052602483018d9052604483018890529251929316916396e9b6419160648082019260009290919082900301818387803b158015610d5b57600080fd5b505af1925050508015610d6c575060015b50505b50505050949350505050565b600084848484604051602001610d949493929190611933565b604051602081830303815290604052805190602001209050949350505050565b600080600080600080610e0060688881548110610dd357610dd3611722565b906000526020600020015460e081901c9160a082901c67ffffffffffffffff16916001600160a01b031690565b9199909850909650945050505050565b7f0000000000000000000000000000000000000000000000000000000000000000600054610100900460ff16158015610e50575060005460ff8083169116105b610edc576040517f08c379a000000000000000000000000000000000000000000000000000000000815260206004820152602e60248201527f496e697469616c697a61626c653a20636f6e747261637420697320616c72656160448201527f647920696e697469616c697a65640000000000000000000000000000000000006064820152608401610a54565b600080547fffffffffffffffffffffffffffffffffffffffffffffffffffffffffffff00001660ff831617610100179055610f1561118e565b610f1d6111f5565b610f2682611116565b600080547fffffffffffffffffffffffffffffffffffffffffffffffffffffffffffff00ff16905560405160ff821681527f7f26b83ff96e1f2b6a682f133852f6798a09c465da95921460cefb38474024989060200160405180910390a15050565b6000610f926107bc565b6001600160a01b0316638da5cb5b6040518163ffffffff1660e01b8152600401602060405180830381865afa158015610fcf573d6000803e3d6000fd5b505050506040513d601f19601f82011682018060405250810190610ff391906118c9565b905090565b6110006110a2565b6001600160a01b038116611096576040517f08c379a000000000000000000000000000000000000000000000000000000000815260206004820152602660248201527f4f776e61626c653a206e6577206f776e657220697320746865207a65726f206160448201527f64647265737300000000000000000000000000000000000000000000000000006064820152608401610a54565b61109f81611116565b50565b6033546001600160a01b031633146109f8576040517f08c379a000000000000000000000000000000000000000000000000000000000815260206004820181905260248201527f4f776e61626c653a2063616c6c6572206973206e6f7420746865206f776e65726044820152606401610a54565b603380546001600160a01b038381167fffffffffffffffffffffffff0000000000000000000000000000000000000000831681179093556040519116919082907f8be0079c531659141344cd1fd0a4f28419497f9722a3daafe3b4186f6b6457e090600090a35050565b60006107b560008484611294565b336111976107bc565b6001600160a01b0316141580156111be5750336111b2610f88565b6001600160a01b031614155b156109f8576040517fc4050a2600000000000000000000000000000000000000000000000000000000815260040160405180910390fd5b600054610100900460ff1661128c576040517f08c379a000000000000000000000000000000000000000000000000000000000815260206004820152602b60248201527f496e697469616c697a61626c653a20636f6e7472616374206973206e6f74206960448201527f6e697469616c697a696e670000000000000000000000000000000000000000006064820152608401610a54565b6109f86113bc565b600060608203516040830351602084035184518060208701018051600283016c5af43d3d93803e606057fd5bf3895289600d8a035278593da1005b363d3d373d3d3d3d610000806062363936013d738160481b1760218a03527f9e4ac34f21c619cefc926c8bd93b54bf5a39c7ab2127a895af1cc0691d7e3dff603a8a035272fd6100003d81600a3d39f336602c57343d527f6062820160781b1761ff9e82106059018a03528060f01b8352606c8101604c8a038cf0975050866113605763301164256000526004601cfd5b90528552601f198501527fffffffffffffffffffffffffffffffffffffffffffffffffffffffffffffffc08401527fffffffffffffffffffffffffffffffffffffffffffffffffffffffffffffffa09092019190915292915050565b600054610100900460ff16611453576040517f08c379a000000000000000000000000000000000000000000000000000000000815260206004820152602b60248201527f496e697469616c697a61626c653a20636f6e7472616374206973206e6f74206960448201527f6e697469616c697a696e670000000000000000000000000000000000000000006064820152608401610a54565b6109f833611116565b803563ffffffff8116811461147057600080fd5b919050565b6001600160a01b038116811461109f57600080fd5b6000806040838503121561149d57600080fd5b6114a68361145c565b915060208301356114b681611475565b809150509250929050565b6000602082840312156114d357600080fd5b6107b58261145c565b600080604083850312156114ef57600080fd5b6114f88361145c565b946020939093013593505050565b60006020828403121561151857600080fd5b81356107b581611475565b60008060006060848603121561153857600080fd5b6115418461145c565b95602085013595506040909401359392505050565b60005b83811015611571578181015183820152602001611559565b83811115611580576000848401525b50505050565b6000815180845261159e816020860160208601611556565b601f01601f19169290920160200192915050565b60006020808301818452808551808352604092508286019150828160051b87010184880160005b83811015611661578883037fffffffffffffffffffffffffffffffffffffffffffffffffffffffffffffffc001855281518051845287810151888501528681015167ffffffffffffffff16878501526060808201519085015260809081015160a09185018290529061164d81860183611586565b9689019694505050908601906001016115d9565b509098975050505050505050565b6020815260006107b56020830184611586565b6000806000806060858703121561169857600080fd5b6116a18561145c565b935060208501359250604085013567ffffffffffffffff808211156116c557600080fd5b818701915087601f8301126116d957600080fd5b8135818111156116e857600080fd5b8860208285010111156116fa57600080fd5b95989497505060200194505050565b60006020828403121561171b57600080fd5b5035919050565b7f4e487b7100000000000000000000000000000000000000000000000000000000600052603260045260246000fd5b7f4e487b7100000000000000000000000000000000000000000000000000000000600052604160045260246000fd5b60006020828403121561179257600080fd5b815167ffffffffffffffff808211156117aa57600080fd5b818401915084601f8301126117be57600080fd5b8151818111156117d0576117d0611751565b604051601f8201601f19908116603f011681019083821181831017156117f8576117f8611751565b8160405282815287602084870101111561181157600080fd5b611822836020830160208801611556565b979650505050505050565b60006020828403121561183f57600080fd5b5051919050565b7f4e487b7100000000000000000000000000000000000000000000000000000000600052601160045260246000fd5b60008282101561188757611887611846565b500390565b6000817fffffffffffffffffffffffffffffffffffffffffffffffffffffffffffffffff04831182151516156118c4576118c4611846565b500290565b6000602082840312156118db57600080fd5b81516107b581611475565b7fffffffffffffffffffffffffffffffffffffffff0000000000000000000000008660601b1681528460148201528360348201528183605483013760009101605401908152949350505050565b63ffffffff8516815283602082015260606040820152816060820152818360808301376000818301608090810191909152601f909201601f19160101939250505056fea164736f6c634300080f000a","linkReferences":{}},"methodIdentifiers":{"create(uint32,bytes32,bytes)":"82ecf2f6","findLatestGames(uint32,uint256,uint256)":"254bd683","gameAtIndex(uint256)":"bb8aa1fc","gameCount()":"4d1975b4","gameImpls(uint32)":"1b685b9e","games(uint32,bytes32,bytes)":"5f0150cb","getGameUUID(uint32,bytes32,bytes)":"96cd9720","initBonds(uint32)":"6593dc6e","initVersion()":"38d38c97","initialize(address)":"c4d66de8","owner()":"8da5cb5b","proxyAdmin()":"3e47158c","proxyAdminOwner()":"dad544e0","rat()":"f5a7ab6e","renounceOwnership()":"715018a6","setImplementation(uint32,address)":"14f6b1a3","setInitBond(uint32,uint256)":"1e334240","setRAT(address)":"21aec12e","transferOwnership(address)":"f2fde38b","version()":"54fd4d50"},"storageLayout":{"storage":[{"astId":48365,"contract":"src/dispute/DisputeGameFactory.sol:DisputeGameFactory","label":"_initialized","offset":0,"slot":"0","type":"t_uint8"},{"astId":48368,"contract":"src/dispute/DisputeGameFactory.sol:DisputeGameFactory","label":"_initializing","offset":1,"slot":"0","type":"t_bool"},{"astId":48793,"contract":"src/dispute/DisputeGameFactory.sol:DisputeGameFactory","label":"__gap","offset":0,"slot":"1","type":"t_array(t_uint256)50_storage"},{"astId":48237,"contract":"src/dispute/DisputeGameFactory.sol:DisputeGameFactory","label":"_owner","offset":0,"slot":"51","type":"t_address"},{"astId":48357,"contract":"src/dispute/DisputeGameFactory.sol:DisputeGameFactory","label":"__gap","offset":0,"slot":"52","type":"t_array(t_uint256)49_storage"},{"astId":90884,"contract":"src/dispute/DisputeGameFactory.sol:DisputeGameFactory","label":"gameImpls","offset":0,"slot":"101","type":"t_mapping(t_userDefinedValueType(GameType)95352,t_contract(IDisputeGame)5247)"},{"astId":90890,"contract":"src/dispute/DisputeGameFactory.sol:DisputeGameFactory","label":"initBonds","offset":0,"slot":"102","type":"t_mapping(t_userDefinedValueType(GameType)95352,t_uint256)"},{"astId":90897,"contract":"src/dispute/DisputeGameFactory.sol:DisputeGameFactory","label":"_disputeGames","offset":0,"slot":"103","type":"t_mapping(t_userDefinedValueType(Hash)95307,t_userDefinedValueType(GameId)95222)"},{"astId":90902,"contract":"src/dispute/DisputeGameFactory.sol:DisputeGameFactory","label":"_disputeGameList","offset":0,"slot":"104","type":"t_array(t_userDefinedValueType(GameId)95222)dyn_storage"},{"astId":90905,"contract":"src/dispute/DisputeGameFactory.sol:DisputeGameFactory","label":"rat","offset":0,"slot":"105","type":"t_address"}],"types":{"t_address":{"encoding":"inplace","label":"address","numberOfBytes":"20"},"t_array(t_uint256)49_storage":{"encoding":"inplace","label":"uint256[49]","numberOfBytes":"1568","base":"t_uint256"},"t_array(t_uint256)50_storage":{"encoding":"inplace","label":"uint256[50]","numberOfBytes":"1600","base":"t_uint256"},"t_array(t_userDefinedValueType(GameId)95222)dyn_storage":{"encoding":"dynamic_array","label":"GameId[]","numberOfBytes":"32","base":"t_userDefinedValueType(GameId)95222"},"t_bool":{"encoding":"inplace","label":"bool","numberOfBytes":"1"},"t_contract(IDisputeGame)5247":{"encoding":"inplace","label":"contract IDisputeGame","numberOfBytes":"20"},"t_mapping(t_userDefinedValueType(GameType)95352,t_contract(IDisputeGame)5247)":{"encoding":"mapping","key":"t_userDefinedValueType(GameType)95352","label":"mapping(GameType => contract IDisputeGame)","numberOfBytes":"32","value":"t_contract(IDisputeGame)5247"},"t_mapping(t_userDefinedValueType(GameType)95352,t_uint256)":{"encoding":"mapping","key":"t_userDefinedValueType(GameType)95352","label":"mapping(GameType => uint256)","numberOfBytes":"32","value":"t_uint256"},"t_mapping(t_userDefinedValueType(Hash)95307,t_userDefinedValueType(GameId)95222)":{"encoding":"mapping","key":"t_userDefinedValueType(Hash)95307","label":"mapping(Hash => GameId)","numberOfBytes":"32","value":"t_userDefinedValueType(GameId)95222"},"t_uint256":{"encoding":"inplace","label":"uint256","numberOfBytes":"32"},"t_uint8":{"encoding":"inplace","label":"uint8","numberOfBytes":"1"},"t_userDefinedValueType(GameId)95222":{"encoding":"inplace","label":"GameId","numberOfBytes":"32"},"t_userDefinedValueType(GameType)95352":{"encoding":"inplace","label":"GameType","numberOfBytes":"4"},"t_userDefinedValueType(Hash)95307":{"encoding":"inplace","label":"Hash","numberOfBytes":"32"}}},"userdoc":{"version":1,"kind":"user","methods":{"constructor":{"notice":"Constructs a new DisputeGameFactory contract."},"create(uint32,bytes32,bytes)":{"notice":"Creates a new DisputeGame proxy contract."},"findLatestGames(uint32,uint256,uint256)":{"notice":"Finds the `_n` most recent `GameId`'s of type `_gameType` starting at `_start`. If there are less than         `_n` games of type `_gameType` starting at `_start`, then the returned array will be shorter than `_n`."},"gameAtIndex(uint256)":{"notice":"`gameAtIndex` returns the dispute game contract address and its creation timestamp          at the given index. Each created dispute game increments the underlying index.          Reverts if the provided index does not correspond to an existing dispute game."},"gameCount()":{"notice":"The total number of dispute games created by this factory."},"gameImpls(uint32)":{"notice":"`gameImpls` is a mapping that maps `GameType`s to their respective         `IDisputeGame` implementations."},"games(uint32,bytes32,bytes)":{"notice":"`games` queries an internal mapping that maps the hash of         `gameType ++ rootClaim ++ extraData` to the deployed `DisputeGame` clone."},"getGameUUID(uint32,bytes32,bytes)":{"notice":"Returns a unique identifier for the given dispute game parameters."},"initBonds(uint32)":{"notice":"Returns the required bonds for initializing a dispute game of the given type."},"initVersion()":{"notice":"Getter for the current initialization version."},"initialize(address)":{"notice":"Initializes the contract."},"proxyAdmin()":{"notice":"Getter for the ProxyAdmin contract that owns this Proxy contract."},"proxyAdminOwner()":{"notice":"Getter for the owner of the ProxyAdmin."},"rat()":{"notice":"RAT contract address"},"setImplementation(uint32,address)":{"notice":"Sets the implementation contract for a specific `GameType`."},"setInitBond(uint32,uint256)":{"notice":"Sets the bond (in wei) for initializing a game type."},"setRAT(address)":{"notice":"Sets the RAT contract address."},"version()":{"notice":"Semantic version."}},"events":{"DisputeGameCreated(address,uint32,bytes32)":{"notice":"Emitted when a new dispute game is created"},"ImplementationSet(address,uint32)":{"notice":"Emitted when a new game implementation added to the factory"},"InitBondUpdated(uint32,uint256)":{"notice":"Emitted when a game type's initialization bond is updated"}},"errors":{"GameAlreadyExists(bytes32)":[{"notice":"Thrown when a dispute game that already exists is attempted to be created."}],"IncorrectBondAmount()":[{"notice":"Thrown when a supplied bond is not equal to the required bond amount to cover the cost of the interaction."}],"NoImplementation(uint32)":[{"notice":"Thrown when a dispute game is attempted to be created with an unsupported game type."}],"ProxyAdminOwnedBase_NotProxyAdmin()":[{"notice":"Thrown when the caller is not the ProxyAdmin."}],"ProxyAdminOwnedBase_NotProxyAdminOrProxyAdminOwner()":[{"notice":"Thrown when the caller is not the ProxyAdmin owner or the ProxyAdmin."}],"ProxyAdminOwnedBase_NotProxyAdminOwner()":[{"notice":"Thrown when the caller is not the ProxyAdmin owner."}],"ProxyAdminOwnedBase_NotResolvedDelegateProxy()":[{"notice":"Thrown when the current contract is not a ResolvedDelegateProxy."}],"ProxyAdminOwnedBase_NotSharedProxyAdminOwner()":[{"notice":"Thrown when the ProxyAdmin owner of the current contract is not the same as the         ProxyAdmin owner of the other Proxy address provided."}],"ProxyAdminOwnedBase_ProxyAdminNotFound()":[{"notice":"Thrown when the ProxyAdmin owner of the current contract is not found."}],"ReinitializableBase_ZeroInitVersion()":[{"notice":"Thrown when the initialization version is zero."}]},"notice":"A factory contract for creating `IDisputeGame` contracts. All created dispute games are stored in both a         mapping and an append only array. The timestamp of the creation time of the dispute game is packed tightly         into the storage slot with the address of the dispute game to make offchain discoverability of playable         dispute games easier."},"devdoc":{"version":1,"kind":"dev","methods":{"create(uint32,bytes32,bytes)":{"params":{"_extraData":"Any extra data that should be provided to the created dispute game.","_gameType":"The type of the DisputeGame - used to decide the proxy implementation.","_rootClaim":"The root claim of the DisputeGame."},"returns":{"proxy_":"The address of the created DisputeGame proxy."}},"findLatestGames(uint32,uint256,uint256)":{"params":{"_gameType":"The type of game to find.","_n":"The number of games to find.","_start":"The index to start the reverse search from."}},"gameAtIndex(uint256)":{"params":{"_index":"The index of the dispute game."},"returns":{"gameType_":"The type of the DisputeGame - used to decide the proxy implementation.","proxy_":"The clone of the `DisputeGame` created with the given parameters.","timestamp_":"The timestamp of the creation of the dispute game."}},"gameCount()":{"returns":{"gameCount_":"The total number of dispute games created by this factory."}},"games(uint32,bytes32,bytes)":{"details":"`++` equates to concatenation.","params":{"_extraData":"Any extra data that should be provided to the created dispute game.","_gameType":"The type of the DisputeGame - used to decide the proxy implementation","_rootClaim":"The root claim of the DisputeGame."},"returns":{"proxy_":"The clone of the `DisputeGame` created with the given parameters.         Returns `address(0)` if nonexistent.","timestamp_":"The timestamp of the creation of the dispute game."}},"getGameUUID(uint32,bytes32,bytes)":{"details":"Hashes the concatenation of `gameType . rootClaim . extraData`      without expanding memory.","params":{"_extraData":"Any extra data that should be provided to the created dispute game.","_gameType":"The type of the DisputeGame.","_rootClaim":"The root claim of the DisputeGame."},"returns":{"uuid_":"The unique identifier for the given dispute game parameters."}},"initVersion()":{"returns":{"_0":"The current initialization version."}},"initialize(address)":{"params":{"_owner":"The owner of the contract."}},"owner()":{"details":"Returns the address of the current owner."},"renounceOwnership()":{"details":"Leaves the contract without owner. It will not be possible to call `onlyOwner` functions anymore. Can only be called by the current owner. NOTE: Renouncing ownership will leave the contract without an owner, thereby removing any functionality that is only available to the owner."},"setImplementation(uint32,address)":{"details":"May only be called by the `owner`.","params":{"_gameType":"The type of the DisputeGame.","_impl":"The implementation contract for the given `GameType`."}},"setInitBond(uint32,uint256)":{"details":"May only be called by the `owner`.","params":{"_gameType":"The type of the DisputeGame.","_initBond":"The bond (in wei) for initializing a game type."}},"setRAT(address)":{"details":"May only be called by the `owner`.","params":{"_rat":"The RAT contract address."}},"transferOwnership(address)":{"details":"Transfers ownership of the contract to a new account (`newOwner`). Can only be called by the current owner."}},"events":{"DisputeGameCreated(address,uint32,bytes32)":{"params":{"disputeProxy":"The address of the dispute game proxy","gameType":"The type of the dispute game proxy's implementation","rootClaim":"The root claim of the dispute game"}},"ImplementationSet(address,uint32)":{"params":{"gameType":"The type of the DisputeGame.","impl":"The implementation contract for the given `GameType`."}},"InitBondUpdated(uint32,uint256)":{"params":{"gameType":"The type of the DisputeGame.","newBond":"The new bond (in wei) for initializing the game type."}}},"errors":{"GameAlreadyExists(bytes32)":[{"params":{"uuid":"The UUID of the dispute game that already exists."}}],"NoImplementation(uint32)":[{"params":{"gameType":"The unsupported game type."}}]},"title":"DisputeGameFactory"},"id":264}