{"abi":[{"type":"constructor","inputs":[{"name":"_absolutePrestate","type":"bytes32","internalType":"Claim"},{"name":"_oracle","type":"address","internalType":"contract IPreimageOracle"}],"stateMutability":"nonpayable"},{"type":"function","name":"oracle","inputs":[],"outputs":[{"name":"","type":"address","internalType":"contract IPreimageOracle"}],"stateMutability":"view"},{"type":"function","name":"step","inputs":[{"name":"_stateData","type":"bytes","internalType":"bytes"},{"name":"","type":"bytes","internalType":"bytes"},{"name":"_localContext","type":"bytes32","internalType":"bytes32"}],"outputs":[{"name":"postState_","type":"bytes32","internalType":"bytes32"}],"stateMutability":"view"}],"bytecode":{"object":"0x60a060405234801561001057600080fd5b506040516105d23803806105d283398101604081905261002f91610059565b608091909152600080546001600160a01b0319166001600160a01b03909216919091179055610096565b6000806040838503121561006c57600080fd5b825160208401519092506001600160a01b038116811461008b57600080fd5b809150509250929050565b6080516105226100b0600039600060af01526105226000f3fe608060405234801561001057600080fd5b50600436106100365760003560e01c80637dc0d1d01461003b578063e14ced3214610085575b600080fd5b60005461005b9073ffffffffffffffffffffffffffffffffffffffff1681565b60405173ffffffffffffffffffffffffffffffffffffffff90911681526020015b60405180910390f35b61009861009336600461039c565b6100a6565b60405190815260200161007c565b600080600060087f0000000000000000000000000000000000000000000000000000000000000000901b600889896040516100e2929190610410565b6040518091039020901b036101e0576000805473ffffffffffffffffffffffffffffffffffffffff1663e03110e161011b6004886102a6565b6040517fffffffff0000000000000000000000000000000000000000000000000000000060e084901b1681526004810191909152600060248201526044016040805180830381865afa158015610175573d6000803e3d6000fd5b505050506040513d601f19601f820116820180604052508101906101999190610420565b50905060006101b3600163ffffffff608085901c16610473565b600481901b9450905060006101ca8a8c018c61048a565b90506101d685826104a3565b935050505061020d565b6101ec878901896104bb565b9092509050816101fb816104dd565b9250508080610209906104dd565b9150505b6040805160208101849052908101829052606001604080517fffffffffffffffffffffffffffffffffffffffffffffffffffffffffffffffe081840301815291905280516020909101207effffffffffffffffffffffffffffffffffffffffffffffffffffffffffffff167f01000000000000000000000000000000000000000000000000000000000000001798975050505050505050565b7f01000000000000000000000000000000000000000000000000000000000000007effffffffffffffffffffffffffffffffffffffffffffffffffffffffffffff83161761034c818360408051600093845233602052918152606090922091527effffffffffffffffffffffffffffffffffffffffffffffffffffffffffffff167f01000000000000000000000000000000000000000000000000000000000000001790565b9392505050565b60008083601f84011261036557600080fd5b50813567ffffffffffffffff81111561037d57600080fd5b60208301915083602082850101111561039557600080fd5b9250929050565b6000806000806000606086880312156103b457600080fd5b853567ffffffffffffffff808211156103cc57600080fd5b6103d889838a01610353565b909750955060208801359150808211156103f157600080fd5b506103fe88828901610353565b96999598509660400135949350505050565b8183823760009101908152919050565b6000806040838503121561043357600080fd5b505080516020909101519092909150565b7f4e487b7100000000000000000000000000000000000000000000000000000000600052601160045260246000fd5b60008282101561048557610485610444565b500390565b60006020828403121561049c57600080fd5b5035919050565b600082198211156104b6576104b6610444565b500190565b600080604083850312156104ce57600080fd5b50508035926020909101359150565b60007fffffffffffffffffffffffffffffffffffffffffffffffffffffffffffffffff820361050e5761050e610444565b506001019056fea164736f6c634300080f000a","linkReferences":{}},"methodIdentifiers":{"oracle()":"7dc0d1d0","step(bytes,bytes,bytes32)":"e14ced32"},"storageLayout":{"storage":[{"astId":252075,"contract":"test/mocks/AlphabetVM.sol:AlphabetVM","label":"oracle","offset":0,"slot":"0","type":"t_contract(IPreimageOracle)5162"}],"types":{"t_contract(IPreimageOracle)5162":{"encoding":"inplace","label":"contract IPreimageOracle","numberOfBytes":"20"}}},"userdoc":{"version":1,"kind":"user","methods":{"oracle()":{"notice":"Returns the preimage oracle used by the state machine."},"step(bytes,bytes,bytes32)":{"notice":"Performs the state transition from a given prestate and returns the hash of the post state witness."}}},"devdoc":{"version":1,"kind":"dev","details":"A mock VM for the purpose of testing the dispute game infrastructure. Note that this only works      for games with an execution trace subgame max depth of 3 (8 instructions per subgame).","methods":{"step(bytes,bytes,bytes32)":{"params":{"_localContext":"The local key context for the preimage oracle. Optional, can be set as a constant if the                      implementation only requires one set of local keys.","_proof":"Opaque proof data, can be used to prove things about the prestate in relation to the state of the               interface's implementation.","_stateData":"The raw opaque prestate data."},"returns":{"postState_":"The hash of the post state witness after the state transition."}}},"title":"AlphabetVM"},"id":425}