{"abi":[{"type":"function","name":"getUnresolvedGames","inputs":[{"name":"_factory","type":"address","internalType":"contract IDisputeGameFactory"},{"name":"_creationRangeStart","type":"uint256","internalType":"uint256"},{"name":"_creationRangeEnd","type":"uint256","internalType":"uint256"}],"outputs":[{"name":"unresolvedGames_","type":"address[]","internalType":"contract IDisputeGame[]"}],"stateMutability":"view"},{"type":"function","name":"isGameRegistered","inputs":[{"name":"_factory","type":"address","internalType":"contract IDisputeGameFactory"},{"name":"_game","type":"address","internalType":"contract IDisputeGame"}],"outputs":[{"name":"isValid_","type":"bool","internalType":"bool"}],"stateMutability":"view"},{"type":"function","name":"search","inputs":[{"name":"_factory","type":"address","internalType":"contract IDisputeGameFactory"},{"name":"_targetTimestamp","type":"uint256","internalType":"uint256"},{"name":"_direction","type":"uint8","internalType":"enum DisputeMonitorHelper.SearchDirection"}],"outputs":[{"name":"index_","type":"uint256","internalType":"uint256"}],"stateMutability":"view"},{"type":"function","name":"toRpcHexString","inputs":[{"name":"_value","type":"uint256","internalType":"uint256"}],"outputs":[{"name":"hexString_","type":"string","internalType":"string"}],"stateMutability":"pure"},{"type":"error","name":"DisputeMonitorHelper_InvalidSearchRange","inputs":[]}],"bytecode":{"object":"0x6080604052348015600e575f80fd5b50610d498061001c5f395ff3fe608060405234801561000f575f80fd5b506004361061004a575f3560e01c80633e7d77331461004e578063c376d31f14610077578063cb4e6ab11461009a578063cf8d0f75146100bb575b5f80fd5b61006161005c36600461087c565b6100db565b60405161006e91906108df565b60405180910390f35b61008a610085366004610915565b6100ec565b604051901515815260200161006e565b6100ad6100a836600461094c565b610228565b60405190815260200161006e565b6100ce6100c936600461098e565b610469565b60405161006e91906109c0565b60606100e6826107c6565b92915050565b5f805f808473ffffffffffffffffffffffffffffffffffffffff1663fa24f7436040518163ffffffff1660e01b81526004015f60405180830381865afa158015610138573d5f803e3d5ffd5b505050506040513d5f823e601f3d9081017fffffffffffffffffffffffffffffffffffffffffffffffffffffffffffffffe016820160405261017d9190810190610a5e565b9250925092505f8673ffffffffffffffffffffffffffffffffffffffff16635f0150cb8585856040518463ffffffff1660e01b81526004016101c193929190610b40565b6040805180830381865afa1580156101db573d5f803e3d5ffd5b505050506040513d601f19601f820116820180604052508101906101ff9190610b84565b5073ffffffffffffffffffffffffffffffffffffffff9081169616959095149695505050505050565b5f808473ffffffffffffffffffffffffffffffffffffffff16634d1975b46040518163ffffffff1660e01b8152600401602060405180830381865afa158015610273573d5f803e3d5ffd5b505050506040513d601f19601f820116820180604052508101906102979190610bb7565b9050805f036102c9577fffffffffffffffffffffffffffffffffffffffffffffffffffffffffffffffff915050610462565b5f806102d6600184610bfb565b90507fffffffffffffffffffffffffffffffffffffffffffffffffffffffffffffffff93505b80821161045e575f60026103108484610bfb565b61031a9190610c0e565b6103249084610c46565b6040517fbb8aa1fc000000000000000000000000000000000000000000000000000000008152600481018290529091505f9073ffffffffffffffffffffffffffffffffffffffff8a169063bb8aa1fc90602401606060405180830381865afa158015610392573d5f803e3d5ffd5b505050506040513d601f19601f820116820180604052508101906103b69190610c59565b509150505f6103cc8267ffffffffffffffff1690565b67ffffffffffffffff1690505f8860018111156103eb576103eb610c92565b0361042f5788811161040e578296508260016104079190610c46565b9450610456565b825f0361041d5750505061045e565b610428600184610bfb565b9350610456565b88811061044857829650825f0361041d5750505061045e565b610453836001610c46565b94505b5050506102fc565b5050505b9392505050565b6060828210156104a5576040517fb22d5a5c00000000000000000000000000000000000000000000000000000000815260040160405180910390fd5b8373ffffffffffffffffffffffffffffffffffffffff16634d1975b46040518163ffffffff1660e01b8152600401602060405180830381865afa1580156104ee573d5f803e3d5ffd5b505050506040513d601f19601f820116820180604052508101906105129190610bb7565b5f0361052c5750604080515f815260208101909152610462565b5f61053985856001610228565b90505f61054786855f610228565b90507fffffffffffffffffffffffffffffffffffffffffffffffffffffffffffffffff82148061059657507fffffffffffffffffffffffffffffffffffffffffffffffffffffffffffffffff81145b156105d0575f5b6040519080825280602002602001820160405280156105c6578160200160208202803683370190505b5092505050610462565b818110156105de575f61059d565b6105e88282610bfb565b6105f3906001610c46565b67ffffffffffffffff81111561060b5761060b610a31565b604051908082528060200260200182016040528015610634578160200160208202803683370190505b5092505f825b8281116107ba576040517fbb8aa1fc000000000000000000000000000000000000000000000000000000008152600481018290525f9073ffffffffffffffffffffffffffffffffffffffff8a169063bb8aa1fc90602401606060405180830381865afa1580156106ac573d5f803e3d5ffd5b505050506040513d601f19601f820116820180604052508101906106d09190610c59565b925050506107518173ffffffffffffffffffffffffffffffffffffffff166319effeb46040518163ffffffff1660e01b8152600401602060405180830381865afa158015610720573d5f803e3d5ffd5b505050506040513d601f19601f820116820180604052508101906107449190610cbf565b67ffffffffffffffff1690565b67ffffffffffffffff165f036107a7578086848151811061077457610774610cd8565b73ffffffffffffffffffffffffffffffffffffffff90921660209283029190910190910152826107a381610d05565b9350505b50806107b281610d05565b91505061063a565b50835250509392505050565b60606107d1826107fd565b9050603060208201515f1a14600282510161307882840152600282840103925081810383525050919050565b60606080604051019050602081016040525f8152806f30313233343536373839616263646566600f52600119835b600f811651938201936001850153600f8160041c1651845360081c8061082b5750508190037fffffffffffffffffffffffffffffffffffffffffffffffffffffffffffffffe0909101908152919050565b5f6020828403121561088c575f80fd5b5035919050565b5f81518084528060208401602086015e5f6020828601015260207fffffffffffffffffffffffffffffffffffffffffffffffffffffffffffffffe0601f83011685010191505092915050565b602081525f6104626020830184610893565b73ffffffffffffffffffffffffffffffffffffffff81168114610912575f80fd5b50565b5f8060408385031215610926575f80fd5b8235610931816108f1565b91506020830135610941816108f1565b809150509250929050565b5f805f6060848603121561095e575f80fd5b8335610969816108f1565b925060208401359150604084013560028110610983575f80fd5b809150509250925092565b5f805f606084860312156109a0575f80fd5b83356109ab816108f1565b95602085013595506040909401359392505050565b602080825282518282018190525f9190848201906040850190845b81811015610a0d57835173ffffffffffffffffffffffffffffffffffffffff16835292840192918401916001016109db565b50909695505050505050565b805163ffffffff81168114610a2c575f80fd5b919050565b7f4e487b71000000000000000000000000000000000000000000000000000000005f52604160045260245ffd5b5f805f60608486031215610a70575f80fd5b610a7984610a19565b925060208401519150604084015167ffffffffffffffff80821115610a9c575f80fd5b818601915086601f830112610aaf575f80fd5b815181811115610ac157610ac1610a31565b604051601f82017fffffffffffffffffffffffffffffffffffffffffffffffffffffffffffffffe0908116603f01168101908382118183101715610b0757610b07610a31565b81604052828152896020848701011115610b1f575f80fd5b8260208601602083015e5f6020848301015280955050505050509250925092565b63ffffffff84168152826020820152606060408201525f610b646060830184610893565b95945050505050565b805167ffffffffffffffff81168114610a2c575f80fd5b5f8060408385031215610b95575f80fd5b8251610ba0816108f1565b9150610bae60208401610b6d565b90509250929050565b5f60208284031215610bc7575f80fd5b5051919050565b7f4e487b71000000000000000000000000000000000000000000000000000000005f52601160045260245ffd5b818103818111156100e6576100e6610bce565b5f82610c41577f4e487b71000000000000000000000000000000000000000000000000000000005f52601260045260245ffd5b500490565b808201808211156100e6576100e6610bce565b5f805f60608486031215610c6b575f80fd5b610c7484610a19565b9250610c8260208501610b6d565b91506040840151610983816108f1565b7f4e487b71000000000000000000000000000000000000000000000000000000005f52602160045260245ffd5b5f60208284031215610ccf575f80fd5b61046282610b6d565b7f4e487b71000000000000000000000000000000000000000000000000000000005f52603260045260245ffd5b5f7fffffffffffffffffffffffffffffffffffffffffffffffffffffffffffffffff8203610d3557610d35610bce565b506001019056fea164736f6c6343000819000a","linkReferences":{}},"methodIdentifiers":{"getUnresolvedGames(address,uint256,uint256)":"cf8d0f75","isGameRegistered(address,address)":"c376d31f","search(address,uint256,uint8)":"cb4e6ab1","toRpcHexString(uint256)":"3e7d7733"},"storageLayout":{"storage":[],"types":{}},"userdoc":{"version":1,"kind":"user","methods":{"getUnresolvedGames(address,uint256,uint256)":{"notice":"Finds all unresolved games in a given time range."},"isGameRegistered(address,address)":{"notice":"Checks if a game was created by the provided factory."},"search(address,uint256,uint8)":{"notice":"Searches for a game by timestamp, returning the index of the game that best matches the         given search direction."},"toRpcHexString(uint256)":{"notice":"Converts a uint256 to an RPC hex string."}},"errors":{"DisputeMonitorHelper_InvalidSearchRange()":[{"notice":"Thrown when the end index is less than the start index."}]},"notice":"Peripheral contract that can help to monitor dispute games. Supplements offchain tools         by simplifying certain queries about dispute games."},"devdoc":{"version":1,"kind":"dev","methods":{"getUnresolvedGames(address,uint256,uint256)":{"params":{"_creationRangeEnd":"End of the range of game creation timestamps.","_creationRangeStart":"Start of the range of game creation timestamps.","_factory":"The factory of the dispute games."},"returns":{"unresolvedGames_":"The array of unresolved games."}},"isGameRegistered(address,address)":{"params":{"_factory":"The factory of the dispute games.","_game":"The game to check."},"returns":{"isValid_":"True if the game was created by the factory, false otherwise."}},"search(address,uint256,uint8)":{"params":{"_direction":"The direction to search in (older or newer).","_factory":"The factory of the dispute games.","_targetTimestamp":"The timestamp to search for."},"returns":{"index_":"         The index of the matching game, if it exists."}},"toRpcHexString(uint256)":{"params":{"_value":"The value to convert."},"returns":{"hexString_":"The hex string."}}},"title":"DisputeMonitorHelper"},"id":191}