{"abi":[{"type":"constructor","inputs":[{"name":"_gameProxy","type":"address","internalType":"contract IFaultDisputeGame"},{"name":"_l2Outputs","type":"uint256[]","internalType":"uint256[]"},{"name":"_trace","type":"bytes","internalType":"bytes"},{"name":"_preStateData","type":"bytes","internalType":"bytes"}],"stateMutability":"nonpayable"},{"type":"function","name":"GAME","inputs":[],"outputs":[{"name":"","type":"address","internalType":"contract IFaultDisputeGame"}],"stateMutability":"view"},{"type":"function","name":"absolutePrestateData","inputs":[],"outputs":[{"name":"","type":"bytes","internalType":"bytes"}],"stateMutability":"view"},{"type":"function","name":"agreeWithRoot","inputs":[],"outputs":[{"name":"","type":"bool","internalType":"bool"}],"stateMutability":"view"},{"type":"function","name":"l2Outputs","inputs":[{"name":"","type":"uint256","internalType":"uint256"}],"outputs":[{"name":"","type":"uint256","internalType":"uint256"}],"stateMutability":"view"},{"type":"function","name":"processedBuf","inputs":[],"outputs":[{"name":"","type":"uint256","internalType":"uint256"}],"stateMutability":"view"},{"type":"function","name":"solveGame","inputs":[],"outputs":[{"name":"moves_","type":"tuple[]","internalType":"struct GameSolver.Move[]","components":[{"name":"kind","type":"uint8","internalType":"enum GameSolver.MoveKind"},{"name":"data","type":"bytes","internalType":"bytes"},{"name":"value","type":"uint256","internalType":"uint256"}]}],"stateMutability":"nonpayable"},{"type":"function","name":"trace","inputs":[],"outputs":[{"name":"","type":"bytes","internalType":"bytes"}],"stateMutability":"view"}],"bytecode":{"object":"0x610100604052348015610010575f80fd5b5060405161219e38038061219e83398101604081905261002f9161032b565b83838383836001600160a01b03166080816001600160a01b0316815250506080516001600160a01b031663ec5e63086040518163ffffffff1660e01b8152600401602060405180830381865afa15801561008b573d5f803e3d5ffd5b505050506040513d601f19601f820116820180604052508101906100af9190610431565b60a081815250506080516001600160a01b031663fa315aa96040518163ffffffff1660e01b8152600401602060405180830381865afa1580156100f4573d5f803e3d5ffd5b505050506040513d601f19601f820116820180604052508101906101189190610431565b60c081905260a0516101299161045c565b610134906002610555565b60e052825161014a90600890602086019061021f565b50600961015783826105eb565b50600a61016482826105eb565b5050505050836001600160a01b031663bcef3b556040518163ffffffff1660e01b8152600401602060405180830381865afa1580156101a5573d5f803e3d5ffd5b505050506040513d601f19601f820116820180604052508101906101c99190610431565b60e0516101d5906101f0565b600c80549190921460ff19909116179055506106be92505050565b5f60086101fe60018461045c565b8154811061020e5761020e6106aa565b5f9182526020909120015492915050565b828054828255905f5260205f20908101928215610258579160200282015b8281111561025857825182559160200191906001019061023d565b50610264929150610268565b5090565b5b80821115610264575f8155600101610269565b634e487b7160e01b5f52604160045260245ffd5b604051601f8201601f191681016001600160401b03811182821017156102b8576102b861027c565b604052919050565b5f82601f8301126102cf575f80fd5b81516001600160401b038111156102e8576102e861027c565b6102fb601f8201601f1916602001610290565b81815284602083860101111561030f575f80fd5b8160208501602083015e5f918101602001919091529392505050565b5f805f806080858703121561033e575f80fd5b84516001600160a01b0381168114610354575f80fd5b602086810151919550906001600160401b0380821115610372575f80fd5b818801915088601f830112610385575f80fd5b8151818111156103975761039761027c565b8060051b6103a6858201610290565b918252838101850191858101908c8411156103bf575f80fd5b948601945b838610156103dd578551825294860194908601906103c4565b60408c01519099509550505050808311156103f6575f80fd5b61040289848a016102c0565b94506060880151925080831115610417575f80fd5b5050610425878288016102c0565b91505092959194509250565b5f60208284031215610441575f80fd5b5051919050565b634e487b7160e01b5f52601160045260245ffd5b8181038181111561046f5761046f610448565b92915050565b600181815b808511156104af57815f190482111561049557610495610448565b808516156104a257918102915b93841c939080029061047a565b509250929050565b5f826104c55750600161046f565b816104d157505f61046f565b81600181146104e757600281146104f15761050d565b600191505061046f565b60ff84111561050257610502610448565b50506001821b61046f565b5060208310610133831016604e8410600b8410161715610530575081810a61046f565b61053a8383610475565b805f190482111561054d5761054d610448565b029392505050565b5f61056083836104b7565b9392505050565b600181811c9082168061057b57607f821691505b60208210810361059957634e487b7160e01b5f52602260045260245ffd5b50919050565b601f8211156105e657805f5260205f20601f840160051c810160208510156105c45750805b601f840160051c820191505b818110156105e3575f81556001016105d0565b50505b505050565b81516001600160401b038111156106045761060461027c565b610618816106128454610567565b8461059f565b602080601f83116001811461064b575f84156106345750858301515b5f19600386901b1c1916600185901b1785556106a2565b5f85815260208120601f198616915b828110156106795788860151825594840194600190910190840161065a565b508582101561069657878501515f19600388901b60f8161c191681555b505060018460011b0185555b505050505050565b634e487b7160e01b5f52603260045260245ffd5b60805160a05160c05160e051611a566107485f395f50505f81816102c401528181610b0701528181610b9e01528181610c0c015281816110a5015261128c01525f818161069c01528181610ae601528181610e5e015281816110d1015261123c01525f818160c60152818161016c0152818161050b0152818161089b015261094d0152611a565ff3fe608060405234801561000f575f80fd5b506004361061007a575f3560e01c80632bb19183116100585780632bb191831461010d578063696389c914610122578063907774381461012b578063aad96ad414610140575f80fd5b806302be8bfe1461007e578063155db5ad146100a457806327730d12146100c1575b5f80fd5b61009161008c3660046114b4565b610148565b6040519081526020015b60405180910390f35b600c546100b19060ff1681565b604051901515815260200161009b565b6100e87f000000000000000000000000000000000000000000000000000000000000000081565b60405173ffffffffffffffffffffffffffffffffffffffff909116815260200161009b565b610115610167565b60405161009b9190611544565b610091600b5481565b610133610431565b60405161009b919061161a565b6101336104bd565b60088181548110610157575f80fd5b5f91825260209091200154905081565b60605f7f000000000000000000000000000000000000000000000000000000000000000073ffffffffffffffffffffffffffffffffffffffff16638980e0cc6040518163ffffffff1660e01b8152600401602060405180830381865afa1580156101d3573d5f803e3d5ffd5b505050506040513d601f19601f820116820180604052508101906101f79190611633565b9050600b54816102079190611677565b67ffffffffffffffff81111561021f5761021f61168a565b60405190808252806020026020018201604052801561027357816020015b6102606040805160608101909152805f8152602001606081526020015f81525090565b81526020019060019003908161023d5790505b50600b549092505f905b82811015610404575f61028f826104ca565b90505f8061029c83610618565b909250905060028260028111156102b5576102b56114cb565b036102c2575050506103fc565b7f000000000000000000000000000000000000000000000000000000000000000061037f826fffffffffffffffffffffffffffffffff167e09010a0d15021d0b0e10121619031e080c141c0f111807131b17061a05041f7f07c4acdd0000000000000000000000000000000000000000000000000000000067ffffffffffffffff831160061b83811c63ffffffff1060051b1792831c600181901c17600281901c17600481901c17600881901c17601081901c170260fb1c1a1790565b60ff16116103bf57610392828286610808565b878661039d816116b7565b9750815181106103af576103af6116ee565b60200260200101819052506103f8565b6103cf828460a001518387610aa4565b87866103da816116b7565b9750815181106103ec576103ec6116ee565b60200260200101819052505b5050505b60010161027d565b50808352600b546104159083611677565b600b5f828254610425919061171b565b92505081905550505090565b600a805461043e9061172e565b80601f016020809104026020016040519081016040528092919081815260200182805461046a9061172e565b80156104b55780601f1061048c576101008083540402835291602001916104b5565b820191905f5260205f20905b81548152906001019060200180831161049857829003601f168201915b505050505081565b6009805461043e9061172e565b6040805160e0810182525f80825260208201819052918101829052606081018290526080810182905260a0810182905260c08101919091525f805f805f805f7f000000000000000000000000000000000000000000000000000000000000000073ffffffffffffffffffffffffffffffffffffffff1663c6f0308c8a6040518263ffffffff1660e01b815260040161056491815260200190565b60e060405180830381865afa15801561057f573d5f803e3d5ffd5b505050506040513d601f19601f820116820180604052508101906105a391906117c7565b6040805160e08101825263ffffffff909816885273ffffffffffffffffffffffffffffffffffffffff968716602089015295909416948601949094526fffffffffffffffffffffffffffffffff9182166060860152608085015291821660a08401521660c08201529998505050505050505050565b5f805f6106288460a00151610d9e565b90505f846080015161063d8660a00151610e5b565b14905063ffffffff8016855f015163ffffffff1603610697578080156106605750815b1561067257506002945f945092505050565b60a085015160019450841b7001fffffffffffffffffffffffffffffffe169250610801565b6106c27f0000000000000000000000000000000000000000000000000000000000000000600161171b565b6107628660a001516fffffffffffffffffffffffffffffffff167e09010a0d15021d0b0e10121619031e080c141c0f111807131b17061a05041f7f07c4acdd0000000000000000000000000000000000000000000000000000000067ffffffffffffffff831160061b83811c63ffffffff1060051b1792831c600181901c17600281901c17600481901c17600881901c17601081901c170260fb1c1a1790565b60ff1614801561076f5750805b1561078157506002945f945092505050565b811561079457506002945f945092505050565b5f6107a28660a00151610e5b565b9050856080015181146107d55760a086015160011b7001fffffffffffffffffffffffffffffffe169350600194506107ff565b60a08601516107f9906fffffffffffffffffffffffffffffffff165f151760011b90565b93505f94505b505b5050915091565b61082b6040805160608101909152805f8152602001606081526020015f81525090565b5f6001856002811115610840576108406114cb565b6040517fc395e1ca0000000000000000000000000000000000000000000000000000000081526fffffffffffffffffffffffffffffffff87166004820152911491505f9073ffffffffffffffffffffffffffffffffffffffff7f0000000000000000000000000000000000000000000000000000000000000000169063c395e1ca90602401602060405180830381865afa1580156108e0573d5f803e3d5ffd5b505050506040513d601f19601f820116820180604052508101906109049190611633565b6040517fc6f0308c000000000000000000000000000000000000000000000000000000008152600481018690529091505f9073ffffffffffffffffffffffffffffffffffffffff7f0000000000000000000000000000000000000000000000000000000000000000169063c6f0308c9060240160e060405180830381865afa158015610992573d5f803e3d5ffd5b505050506040513d601f19601f820116820180604052508101906109b691906117c7565b50509450505050506040518060600160405280846109d55760016109d7565b5f5b60038111156109e8576109e86114cb565b815260200182876109f88a610e5b565b604051602481019390935260448301919091526064820152851515608482015260a401604080517fffffffffffffffffffffffffffffffffffffffffffffffffffffffffffffffe0818403018152919052602080820180517bffffffffffffffffffffffffffffffffffffffffffffffffffffffff167f6f0344090000000000000000000000000000000000000000000000000000000017905290825201929092525095945050505050565b610ac76040805160608101909152805f8152602001606081526020015f81525090565b5f6001866002811115610adc57610adc6114cb565b1490506060610b2b7f00000000000000000000000000000000000000000000000000000000000000007f0000000000000000000000000000000000000000000000000000000000000000611677565b610b36906002611973565b610b51866fffffffffffffffffffffffffffffffff16610f3e565b6fffffffffffffffffffffffffffffffff16610b6d91906119ab565b15610c61578115610bf4575f610b846001886119be565b9050610bc26fffffffffffffffffffffffffffffffff82167f0000000000000000000000000000000000000000000000000000000000000000610fdc565b610bcb82611089565b604080516020810193909352820152606001604051602081830303815290604052915050610ced565b610c306fffffffffffffffffffffffffffffffff87167f0000000000000000000000000000000000000000000000000000000000000000610fdc565b610c3987611089565b6040805160208101939093528201526060016040516020818303038152906040529050610ced565b600a8054610c6e9061172e565b80601f0160208091040260200160405190810160405280929190818152602001828054610c9a9061172e565b8015610ce55780601f10610cbc57610100808354040283529160200191610ce5565b820191905f5260205f20905b815481529060010190602001808311610cc857829003601f168201915b505050505090505b60408051606081019091528060028152602001858484604051602401610d15939291906119ee565b604080517fffffffffffffffffffffffffffffffffffffffffffffffffffffffffffffffe0818403018152919052602080820180517bffffffffffffffffffffffffffffffffffffffffffffffffffffffff167fd8cc1a3c000000000000000000000000000000000000000000000000000000001790529082525f910152979650505050505050565b5f6002610e3d836fffffffffffffffffffffffffffffffff167e09010a0d15021d0b0e10121619031e080c141c0f111807131b17061a05041f7f07c4acdd0000000000000000000000000000000000000000000000000000000067ffffffffffffffff831160061b83811c63ffffffff1060051b1792831c600181901c17600281901c17600481901c17600881901c17601081901c170260fb1c1a1790565b610e479190611a28565b600c5460ff90811615159116151492915050565b5f7f0000000000000000000000000000000000000000000000000000000000000000610f19836fffffffffffffffffffffffffffffffff167e09010a0d15021d0b0e10121619031e080c141c0f111807131b17061a05041f7f07c4acdd0000000000000000000000000000000000000000000000000000000067ffffffffffffffff831160061b83811c63ffffffff1060051b1792831c600181901c17600281901c17600481901c17600881901c17601081901c170260fb1c1a1790565b60ff1611610f2f57610f2a826110ce565b610f38565b610f3882611270565b92915050565b5f80610fca837e09010a0d15021d0b0e10121619031e080c141c0f111807131b17061a05041f7f07c4acdd0000000000000000000000000000000000000000000000000000000067ffffffffffffffff831160061b83811c63ffffffff1060051b1792831c600181901c17600281901c17600481901c17600881901c17601081901c170260fb1c1a1790565b600160ff919091161b90920392915050565b5f80611068847e09010a0d15021d0b0e10121619031e080c141c0f111807131b17061a05041f7f07c4acdd0000000000000000000000000000000000000000000000000000000067ffffffffffffffff831160061b83811c63ffffffff1060051b1792831c600181901c17600281901c17600481901c17600881901c17601081901c170260fb1c1a1790565b60ff1690508083036001841b600180831b0386831b17039250505092915050565b5f610f386110c96fffffffffffffffffffffffffffffffff84167f0000000000000000000000000000000000000000000000000000000000000000610fdc565b6112b5565b5f7f000000000000000000000000000000000000000000000000000000000000000061118c836fffffffffffffffffffffffffffffffff167e09010a0d15021d0b0e10121619031e080c141c0f111807131b17061a05041f7f07c4acdd0000000000000000000000000000000000000000000000000000000067ffffffffffffffff831160061b83811c63ffffffff1060051b1792831c600181901c17600281901c17600481901c17600881901c17601081901c170260fb1c1a1790565b60ff161115611221576040517f08c379a000000000000000000000000000000000000000000000000000000000815260206004820152602260248201527f47616d65536f6c7665723a20696e76616c696420706f736974696f6e2064657060448201527f7468000000000000000000000000000000000000000000000000000000000000606482015260840160405180910390fd5b610f386112606fffffffffffffffffffffffffffffffff84167f0000000000000000000000000000000000000000000000000000000000000000610fdc565b61126b90600161171b565b6113b2565b5f610f386112b06fffffffffffffffffffffffffffffffff84167f0000000000000000000000000000000000000000000000000000000000000000610fdc565b6113e1565b5f600980546112c39061172e565b90508210156113305760098281546112da9061172e565b81106112e8576112e86116ee565b81546001161561130557905f5260205f2090602091828204019190065b9054901a7f0100000000000000000000000000000000000000000000000000000000000000026113a9565b60096001600980546113419061172e565b61134c929150611677565b81546113579061172e565b8110611365576113656116ee565b81546001161561138257905f5260205f2090602091828204019190065b9054901a7f0100000000000000000000000000000000000000000000000000000000000000025b60f81c92915050565b5f60086113c0600184611677565b815481106113d0576113d06116ee565b5f9182526020909120015492915050565b5f80600980546113f09061172e565b90508310156113ff5782611419565b60016009805461140e9061172e565b611419929150611677565b611422846112b5565b604080516020810193909352820152606001604080517fffffffffffffffffffffffffffffffffffffffffffffffffffffffffffffffe081840301815291905280516020909101207effffffffffffffffffffffffffffffffffffffffffffffffffffffffffffff167f0100000000000000000000000000000000000000000000000000000000000000179392505050565b5f602082840312156114c4575f80fd5b5035919050565b7f4e487b71000000000000000000000000000000000000000000000000000000005f52602160045260245ffd5b5f81518084528060208401602086015e5f6020828601015260207fffffffffffffffffffffffffffffffffffffffffffffffffffffffffffffffe0601f83011685010191505092915050565b5f60208083018184528085518083526040925060408601915060408160051b8701018488015f5b8381101561160c577fffffffffffffffffffffffffffffffffffffffffffffffffffffffffffffffc089840301855281516060815160048082106115d5577f4e487b71000000000000000000000000000000000000000000000000000000005f526021815260245ffd5b508552818901518986018290526115ee828701826114f8565b9289015195890195909552509487019492509086019060010161156b565b509098975050505050505050565b602081525f61162c60208301846114f8565b9392505050565b5f60208284031215611643575f80fd5b5051919050565b7f4e487b71000000000000000000000000000000000000000000000000000000005f52601160045260245ffd5b81810381811115610f3857610f3861164a565b7f4e487b71000000000000000000000000000000000000000000000000000000005f52604160045260245ffd5b5f7fffffffffffffffffffffffffffffffffffffffffffffffffffffffffffffffff82036116e7576116e761164a565b5060010190565b7f4e487b71000000000000000000000000000000000000000000000000000000005f52603260045260245ffd5b80820180821115610f3857610f3861164a565b600181811c9082168061174257607f821691505b602082108103611779577f4e487b71000000000000000000000000000000000000000000000000000000005f52602260045260245ffd5b50919050565b805173ffffffffffffffffffffffffffffffffffffffff811681146117a2575f80fd5b919050565b6fffffffffffffffffffffffffffffffff811681146117c4575f80fd5b50565b5f805f805f805f60e0888a0312156117dd575f80fd5b875163ffffffff811681146117f0575f80fd5b96506117fe6020890161177f565b955061180c6040890161177f565b9450606088015161181c816117a7565b608089015160a08a01519195509350611834816117a7565b60c0890151909250611845816117a7565b8091505092959891949750929550565b600181815b808511156118ae57817fffffffffffffffffffffffffffffffffffffffffffffffffffffffffffffffff048211156118945761189461164a565b808516156118a157918102915b93841c939080029061185a565b509250929050565b5f826118c457506001610f38565b816118d057505f610f38565b81600181146118e657600281146118f05761190c565b6001915050610f38565b60ff8411156119015761190161164a565b50506001821b610f38565b5060208310610133831016604e8410600b841016171561192f575081810a610f38565b6119398383611855565b807fffffffffffffffffffffffffffffffffffffffffffffffffffffffffffffffff0482111561196b5761196b61164a565b029392505050565b5f61162c83836118b6565b7f4e487b71000000000000000000000000000000000000000000000000000000005f52601260045260245ffd5b5f826119b9576119b961197e565b500690565b6fffffffffffffffffffffffffffffffff8281168282160390808211156119e7576119e761164a565b5092915050565b8381528215156020820152608060408201525f611a0e60808301846114f8565b82810360608401525f815260208101915050949350505050565b5f60ff831680611a3a57611a3a61197e565b8060ff8416069150509291505056fea164736f6c6343000819000a","linkReferences":{}},"methodIdentifiers":{"GAME()":"27730d12","absolutePrestateData()":"90777438","agreeWithRoot()":"155db5ad","l2Outputs(uint256)":"02be8bfe","processedBuf()":"696389c9","solveGame()":"2bb19183","trace()":"aad96ad4"},"storageLayout":{"storage":[{"astId":6281,"contract":"test/actors/FaultDisputeActors.sol:HonestGameSolver","label":"stdstore","offset":0,"slot":"0","type":"t_struct(StdStorage)14319_storage"},{"astId":89501,"contract":"test/actors/FaultDisputeActors.sol:HonestGameSolver","label":"l2Outputs","offset":0,"slot":"8","type":"t_array(t_uint256)dyn_storage"},{"astId":89504,"contract":"test/actors/FaultDisputeActors.sol:HonestGameSolver","label":"trace","offset":0,"slot":"9","type":"t_bytes_storage"},{"astId":89507,"contract":"test/actors/FaultDisputeActors.sol:HonestGameSolver","label":"absolutePrestateData","offset":0,"slot":"10","type":"t_bytes_storage"},{"astId":89510,"contract":"test/actors/FaultDisputeActors.sol:HonestGameSolver","label":"processedBuf","offset":0,"slot":"11","type":"t_uint256"},{"astId":89513,"contract":"test/actors/FaultDisputeActors.sol:HonestGameSolver","label":"agreeWithRoot","offset":0,"slot":"12","type":"t_bool"}],"types":{"t_address":{"encoding":"inplace","label":"address","numberOfBytes":"20"},"t_array(t_bytes32)dyn_storage":{"encoding":"dynamic_array","label":"bytes32[]","numberOfBytes":"32","base":"t_bytes32"},"t_array(t_uint256)dyn_storage":{"encoding":"dynamic_array","label":"uint256[]","numberOfBytes":"32","base":"t_uint256"},"t_bool":{"encoding":"inplace","label":"bool","numberOfBytes":"1"},"t_bytes32":{"encoding":"inplace","label":"bytes32","numberOfBytes":"32"},"t_bytes4":{"encoding":"inplace","label":"bytes4","numberOfBytes":"4"},"t_bytes_storage":{"encoding":"bytes","label":"bytes","numberOfBytes":"32"},"t_mapping(t_address,t_mapping(t_bytes4,t_mapping(t_bytes32,t_struct(FindData)14294_storage)))":{"encoding":"mapping","key":"t_address","label":"mapping(address => mapping(bytes4 => mapping(bytes32 => struct FindData)))","numberOfBytes":"32","value":"t_mapping(t_bytes4,t_mapping(t_bytes32,t_struct(FindData)14294_storage))"},"t_mapping(t_bytes32,t_struct(FindData)14294_storage)":{"encoding":"mapping","key":"t_bytes32","label":"mapping(bytes32 => struct FindData)","numberOfBytes":"32","value":"t_struct(FindData)14294_storage"},"t_mapping(t_bytes4,t_mapping(t_bytes32,t_struct(FindData)14294_storage))":{"encoding":"mapping","key":"t_bytes4","label":"mapping(bytes4 => mapping(bytes32 => struct FindData))","numberOfBytes":"32","value":"t_mapping(t_bytes32,t_struct(FindData)14294_storage)"},"t_struct(FindData)14294_storage":{"encoding":"inplace","label":"struct FindData","numberOfBytes":"128","members":[{"astId":14287,"contract":"test/actors/FaultDisputeActors.sol:HonestGameSolver","label":"slot","offset":0,"slot":"0","type":"t_uint256"},{"astId":14289,"contract":"test/actors/FaultDisputeActors.sol:HonestGameSolver","label":"offsetLeft","offset":0,"slot":"1","type":"t_uint256"},{"astId":14291,"contract":"test/actors/FaultDisputeActors.sol:HonestGameSolver","label":"offsetRight","offset":0,"slot":"2","type":"t_uint256"},{"astId":14293,"contract":"test/actors/FaultDisputeActors.sol:HonestGameSolver","label":"found","offset":0,"slot":"3","type":"t_bool"}]},"t_struct(StdStorage)14319_storage":{"encoding":"inplace","label":"struct StdStorage","numberOfBytes":"256","members":[{"astId":14303,"contract":"test/actors/FaultDisputeActors.sol:HonestGameSolver","label":"finds","offset":0,"slot":"0","type":"t_mapping(t_address,t_mapping(t_bytes4,t_mapping(t_bytes32,t_struct(FindData)14294_storage)))"},{"astId":14306,"contract":"test/actors/FaultDisputeActors.sol:HonestGameSolver","label":"_keys","offset":0,"slot":"1","type":"t_array(t_bytes32)dyn_storage"},{"astId":14308,"contract":"test/actors/FaultDisputeActors.sol:HonestGameSolver","label":"_sig","offset":0,"slot":"2","type":"t_bytes4"},{"astId":14310,"contract":"test/actors/FaultDisputeActors.sol:HonestGameSolver","label":"_depth","offset":0,"slot":"3","type":"t_uint256"},{"astId":14312,"contract":"test/actors/FaultDisputeActors.sol:HonestGameSolver","label":"_target","offset":0,"slot":"4","type":"t_address"},{"astId":14314,"contract":"test/actors/FaultDisputeActors.sol:HonestGameSolver","label":"_set","offset":0,"slot":"5","type":"t_bytes32"},{"astId":14316,"contract":"test/actors/FaultDisputeActors.sol:HonestGameSolver","label":"_enable_packed_slots","offset":0,"slot":"6","type":"t_bool"},{"astId":14318,"contract":"test/actors/FaultDisputeActors.sol:HonestGameSolver","label":"_calldata","offset":0,"slot":"7","type":"t_bytes_storage"}]},"t_uint256":{"encoding":"inplace","label":"uint256","numberOfBytes":"32"}}},"userdoc":{"version":1,"kind":"user","methods":{"GAME()":{"notice":"The `FaultDisputeGame` proxy that the `GameSolver` will be solving."},"absolutePrestateData()":{"notice":"The raw absolute prestate data."},"agreeWithRoot()":{"notice":"Signals whether or not the `GameSolver` agrees with the root claim of the         `GAME` contract."},"l2Outputs(uint256)":{"notice":"The L2 outputs that the `GameSolver` will be representing, keyed by L2 block number - 1."},"processedBuf()":{"notice":"The offset of previously processed claims in the `GAME` contract's `claimData` array.         Starts at 0 and increments by 1 for each claim processed."},"solveGame()":{"notice":"Returns an array of `Move`s that can be taken from the perspective of an honest         actor in the `FaultDisputeGame` contract."},"trace()":{"notice":"The execution trace that the `GameSolver` will be representing."}},"notice":"The `HonestGameSolver` is an implementation of `GameSolver` which responds accordingly depending         on the state of the `FaultDisputeGame` contract in relation to their local opinion of the correct         order of output roots and the execution trace between each block `n` -> `n + 1` state transition."},"devdoc":{"version":1,"kind":"dev","title":"HonestGameSolver"},"id":207}