{"abi":[{"type":"constructor","inputs":[{"name":"_disputeGameFinalityDelaySeconds","type":"uint256","internalType":"uint256"}],"stateMutability":"nonpayable"},{"type":"function","name":"anchorGame","inputs":[],"outputs":[{"name":"","type":"address","internalType":"contract IFaultDisputeGame"}],"stateMutability":"view"},{"type":"function","name":"anchors","inputs":[{"name":"","type":"uint32","internalType":"GameType"}],"outputs":[{"name":"","type":"bytes32","internalType":"Hash"},{"name":"","type":"uint256","internalType":"uint256"}],"stateMutability":"view"},{"type":"function","name":"blacklistDisputeGame","inputs":[{"name":"_disputeGame","type":"address","internalType":"contract IDisputeGame"}],"outputs":[],"stateMutability":"nonpayable"},{"type":"function","name":"disputeGameBlacklist","inputs":[{"name":"","type":"address","internalType":"contract IDisputeGame"}],"outputs":[{"name":"","type":"bool","internalType":"bool"}],"stateMutability":"view"},{"type":"function","name":"disputeGameFactory","inputs":[],"outputs":[{"name":"","type":"address","internalType":"contract IDisputeGameFactory"}],"stateMutability":"view"},{"type":"function","name":"disputeGameFinalityDelaySeconds","inputs":[],"outputs":[{"name":"","type":"uint256","internalType":"uint256"}],"stateMutability":"view"},{"type":"function","name":"getAnchorRoot","inputs":[],"outputs":[{"name":"","type":"bytes32","internalType":"Hash"},{"name":"","type":"uint256","internalType":"uint256"}],"stateMutability":"view"},{"type":"function","name":"initVersion","inputs":[],"outputs":[{"name":"","type":"uint8","internalType":"uint8"}],"stateMutability":"view"},{"type":"function","name":"initialize","inputs":[{"name":"_systemConfig","type":"address","internalType":"contract ISystemConfig"},{"name":"_disputeGameFactory","type":"address","internalType":"contract IDisputeGameFactory"},{"name":"_startingAnchorRoot","type":"tuple","internalType":"struct Proposal","components":[{"name":"root","type":"bytes32","internalType":"Hash"},{"name":"l2SequenceNumber","type":"uint256","internalType":"uint256"}]},{"name":"_startingRespectedGameType","type":"uint32","internalType":"GameType"}],"outputs":[],"stateMutability":"nonpayable"},{"type":"function","name":"isGameBlacklisted","inputs":[{"name":"_game","type":"address","internalType":"contract IDisputeGame"}],"outputs":[{"name":"","type":"bool","internalType":"bool"}],"stateMutability":"view"},{"type":"function","name":"isGameClaimValid","inputs":[{"name":"_game","type":"address","internalType":"contract IDisputeGame"}],"outputs":[{"name":"","type":"bool","internalType":"bool"}],"stateMutability":"view"},{"type":"function","name":"isGameFinalized","inputs":[{"name":"_game","type":"address","internalType":"contract IDisputeGame"}],"outputs":[{"name":"","type":"bool","internalType":"bool"}],"stateMutability":"view"},{"type":"function","name":"isGameProper","inputs":[{"name":"_game","type":"address","internalType":"contract IDisputeGame"}],"outputs":[{"name":"","type":"bool","internalType":"bool"}],"stateMutability":"view"},{"type":"function","name":"isGameRegistered","inputs":[{"name":"_game","type":"address","internalType":"contract IDisputeGame"}],"outputs":[{"name":"","type":"bool","internalType":"bool"}],"stateMutability":"view"},{"type":"function","name":"isGameResolved","inputs":[{"name":"_game","type":"address","internalType":"contract IDisputeGame"}],"outputs":[{"name":"","type":"bool","internalType":"bool"}],"stateMutability":"view"},{"type":"function","name":"isGameRespected","inputs":[{"name":"_game","type":"address","internalType":"contract IDisputeGame"}],"outputs":[{"name":"","type":"bool","internalType":"bool"}],"stateMutability":"view"},{"type":"function","name":"isGameRetired","inputs":[{"name":"_game","type":"address","internalType":"contract IDisputeGame"}],"outputs":[{"name":"","type":"bool","internalType":"bool"}],"stateMutability":"view"},{"type":"function","name":"paused","inputs":[],"outputs":[{"name":"","type":"bool","internalType":"bool"}],"stateMutability":"view"},{"type":"function","name":"proxyAdmin","inputs":[],"outputs":[{"name":"","type":"address","internalType":"contract IProxyAdmin"}],"stateMutability":"view"},{"type":"function","name":"proxyAdminOwner","inputs":[],"outputs":[{"name":"","type":"address","internalType":"address"}],"stateMutability":"view"},{"type":"function","name":"respectedGameType","inputs":[],"outputs":[{"name":"","type":"uint32","internalType":"GameType"}],"stateMutability":"view"},{"type":"function","name":"retirementTimestamp","inputs":[],"outputs":[{"name":"","type":"uint64","internalType":"uint64"}],"stateMutability":"view"},{"type":"function","name":"setAnchorState","inputs":[{"name":"_game","type":"address","internalType":"contract IDisputeGame"}],"outputs":[],"stateMutability":"nonpayable"},{"type":"function","name":"setRespectedGameType","inputs":[{"name":"_gameType","type":"uint32","internalType":"GameType"}],"outputs":[],"stateMutability":"nonpayable"},{"type":"function","name":"superchainConfig","inputs":[],"outputs":[{"name":"","type":"address","internalType":"contract ISuperchainConfig"}],"stateMutability":"view"},{"type":"function","name":"systemConfig","inputs":[],"outputs":[{"name":"","type":"address","internalType":"contract ISystemConfig"}],"stateMutability":"view"},{"type":"function","name":"updateRetirementTimestamp","inputs":[],"outputs":[],"stateMutability":"nonpayable"},{"type":"function","name":"version","inputs":[],"outputs":[{"name":"","type":"string","internalType":"string"}],"stateMutability":"view"},{"type":"event","name":"AnchorUpdated","inputs":[{"name":"game","type":"address","indexed":true,"internalType":"contract IFaultDisputeGame"}],"anonymous":false},{"type":"event","name":"DisputeGameBlacklisted","inputs":[{"name":"disputeGame","type":"address","indexed":true,"internalType":"contract IDisputeGame"}],"anonymous":false},{"type":"event","name":"Initialized","inputs":[{"name":"version","type":"uint8","indexed":false,"internalType":"uint8"}],"anonymous":false},{"type":"event","name":"RespectedGameTypeSet","inputs":[{"name":"gameType","type":"uint32","indexed":false,"internalType":"GameType"}],"anonymous":false},{"type":"event","name":"RetirementTimestampSet","inputs":[{"name":"timestamp","type":"uint256","indexed":false,"internalType":"uint256"}],"anonymous":false},{"type":"error","name":"AnchorStateRegistry_InvalidAnchorGame","inputs":[]},{"type":"error","name":"AnchorStateRegistry_Unauthorized","inputs":[]},{"type":"error","name":"ProxyAdminOwnedBase_NotProxyAdmin","inputs":[]},{"type":"error","name":"ProxyAdminOwnedBase_NotProxyAdminOrProxyAdminOwner","inputs":[]},{"type":"error","name":"ProxyAdminOwnedBase_NotProxyAdminOwner","inputs":[]},{"type":"error","name":"ProxyAdminOwnedBase_NotResolvedDelegateProxy","inputs":[]},{"type":"error","name":"ProxyAdminOwnedBase_NotSharedProxyAdminOwner","inputs":[]},{"type":"error","name":"ProxyAdminOwnedBase_ProxyAdminNotFound","inputs":[]},{"type":"error","name":"ReinitializableBase_ZeroInitVersion","inputs":[]}],"bytecode":{"object":"0x60c06040523480156200001157600080fd5b5060405162001d5038038062001d50833981016040819052620000349162000111565b600160805260a0819052620000486200004f565b506200012b565b600054610100900460ff1615620000bc5760405162461bcd60e51b815260206004820152602760248201527f496e697469616c697a61626c653a20636f6e747261637420697320696e697469604482015266616c697a696e6760c81b606482015260840160405180910390fd5b60005460ff90811610156200010f576000805460ff191660ff9081179091556040519081527f7f26b83ff96e1f2b6a682f133852f6798a09c465da95921460cefb38474024989060200160405180910390a15b565b6000602082840312156200012457600080fd5b5051919050565b60805160a051611bf16200015f6000396000818161044b015261050b0152600081816102ac0152610a520152611bf16000f3fe608060405234801561001057600080fd5b50600436106101c45760003560e01c80635958a193116100f9578063d5a3e12e11610097578063e0a840eb11610071578063e0a840eb1461048c578063ee658e45146104ac578063f2b4e617146104bf578063fdbb3dcf146104df57600080fd5b8063d5a3e12e14610474578063d83ef2671461047c578063dad544e01461048457600080fd5b80637258a807116100d35780637258a807146103f85780637d6be8dc146104205780637fc4850414610433578063952b27971461044657600080fd5b80635958a193146103ca5780635c975abb146103dd5780636c4f4467146103e557600080fd5b80633c9f397c1161016657806345884d321161014057806345884d321461033857806347a222c51461035b578063496b9c161461036e57806354fd4d501461038157600080fd5b80633c9f397c146102d65780633e47158c146102fb5780634086d1831461030357600080fd5b806333d7e2bd116101a257806333d7e2bd1461021957806334a346ea1461026457806335e80ab31461029d57806338d38c97146102a557600080fd5b80630314d2b3146101c957806304e50fed146101f157806317cf21a914610204575b600080fd5b6101dc6101d7366004611738565b6104f2565b60405190151581526020015b60405180910390f35b6101dc6101ff366004611738565b6105d2565b610217610212366004611738565b610649565b005b60005461023f9062010000900473ffffffffffffffffffffffffffffffffffffffff1681565b60405173ffffffffffffffffffffffffffffffffffffffff90911681526020016101e8565b6101dc610272366004611738565b73ffffffffffffffffffffffffffffffffffffffff1660009081526005602052604090205460ff1690565b61023f6107ae565b60405160ff7f00000000000000000000000000000000000000000000000000000000000000001681526020016101e8565b6006546102e69063ffffffff1681565b60405163ffffffff90911681526020016101e8565b61023f610845565b60065461031f90640100000000900467ffffffffffffffff1681565b60405167ffffffffffffffff90911681526020016101e8565b6101dc610346366004611738565b60056020526000908152604090205460ff1681565b6102176103693660046117ec565b610a50565b6101dc61037c366004611738565b610c85565b6103bd6040518060400160405280600581526020017f332e352e3000000000000000000000000000000000000000000000000000000081525081565b6040516101e8919061191d565b6101dc6103d8366004611738565b610cfd565b6101dc610d80565b6101dc6103f3366004611738565b610e12565b61040b610406366004611930565b610ee2565b604080519283526020830191909152016101e8565b61021761042e366004611738565b610ef6565b610217610441366004611930565b610f75565b6040517f000000000000000000000000000000000000000000000000000000000000000081526020016101e8565b610217610fe6565b61040b611066565b61023f6111c5565b60025461023f9073ffffffffffffffffffffffffffffffffffffffff1681565b6101dc6104ba366004611738565b611219565b60015461023f9073ffffffffffffffffffffffffffffffffffffffff1681565b6101dc6104ed366004611738565b611426565b60006104fd82611426565b61050957506000919050565b7f00000000000000000000000000000000000000000000000000000000000000006105a98373ffffffffffffffffffffffffffffffffffffffff166319effeb46040518163ffffffff1660e01b8152600401602060405180830381865afa158015610578573d6000803e3d6000fd5b505050506040513d601f19601f8201168201806040525081019061059c919061196a565b67ffffffffffffffff1690565b6105bd9067ffffffffffffffff16426119b4565b116105ca57506000919050565b506001919050565b60008173ffffffffffffffffffffffffffffffffffffffff1663250e69bd6040518163ffffffff1660e01b8152600401602060405180830381865afa15801561061f573d6000803e3d6000fd5b505050506040513d601f19601f8201168201806040525081019061064391906119cb565b92915050565b8061065381610e12565b610689576040517f47ad367a00000000000000000000000000000000000000000000000000000000815260040160405180910390fd5b6000610693611066565b915050808273ffffffffffffffffffffffffffffffffffffffff166399735e326040518163ffffffff1660e01b8152600401602060405180830381865afa1580156106e2573d6000803e3d6000fd5b505050506040513d601f19601f8201168201806040525081019061070691906119ed565b1161073d576040517f47ad367a00000000000000000000000000000000000000000000000000000000815260040160405180910390fd5b600280547fffffffffffffffffffffffff00000000000000000000000000000000000000001673ffffffffffffffffffffffffffffffffffffffff84169081179091556040517f474f180d74ea8751955ee261c93ff8270411b180408d1014c49f552c92a4d11e90600090a2505050565b60008060029054906101000a900473ffffffffffffffffffffffffffffffffffffffff1673ffffffffffffffffffffffffffffffffffffffff166335e80ab36040518163ffffffff1660e01b8152600401602060405180830381865afa15801561081c573d6000803e3d6000fd5b505050506040513d601f19601f820116820180604052508101906108409190611a06565b905090565b6000806108707fb53127684a568b3173ae13b9f8a6016e243e63b6e8ee1178d6a717850b5d61035490565b905073ffffffffffffffffffffffffffffffffffffffff81161561089357919050565b6040518060400160405280601a81526020017f4f564d5f4c3143726f7373446f6d61696e4d657373656e6765720000000000008152505160026108d69190611a23565b604080513060208201526000918101919091527f4f564d5f4c3143726f7373446f6d61696e4d657373656e6765720000000000009190911790610931906060015b604051602081830303815290604052805190602001205490565b14610968576040517f54e433cd00000000000000000000000000000000000000000000000000000000815260040160405180910390fd5b6040805130602082015260019181019190915260009061098a90606001610917565b905073ffffffffffffffffffffffffffffffffffffffff811615610a1e578073ffffffffffffffffffffffffffffffffffffffff16638da5cb5b6040518163ffffffff1660e01b8152600401602060405180830381865afa1580156109f3573d6000803e3d6000fd5b505050506040513d601f19601f82011682018060405250810190610a179190611a06565b9250505090565b6040517f332144db00000000000000000000000000000000000000000000000000000000815260040160405180910390fd5b7f0000000000000000000000000000000000000000000000000000000000000000600054610100900460ff16158015610a90575060005460ff8083169116105b610b20576040517f08c379a000000000000000000000000000000000000000000000000000000000815260206004820152602e60248201527f496e697469616c697a61626c653a20636f6e747261637420697320616c72656160448201527f647920696e697469616c697a6564000000000000000000000000000000000000606482015260840160405180910390fd5b600080547fffffffffffffffffffffffffffffffffffffffffffffffffffffffffffff00001660ff831617610100179055610b5961159b565b60008054600180547fffffffffffffffffffffffff00000000000000000000000000000000000000001673ffffffffffffffffffffffffffffffffffffffff8881169190911790915585516003556020808701516004556006805463ffffffff88167fffffffffffffffffffffffffffffffffffffffff000000000000000000000000909116176401000000004267ffffffffffffffff16021790557fffffffffffffffffffff000000000000000000000000000000000000000000ff90921662010000918916919091027fffffffffffffffffffffffffffffffffffffffffffffffffffffffffffff00ff161790915560405160ff831681527f7f26b83ff96e1f2b6a682f133852f6798a09c465da95921460cefb3847402498910160405180910390a15050505050565b6000610c9082611219565b610c9c57506000919050565b73ffffffffffffffffffffffffffffffffffffffff821660009081526005602052604090205460ff1615610cd257506000919050565b610cdb82610cfd565b15610ce857506000919050565b610cf0610d80565b156105ca57506000919050565b6000600660049054906101000a900467ffffffffffffffff1667ffffffffffffffff16610d6e8373ffffffffffffffffffffffffffffffffffffffff1663cf09e0d06040518163ffffffff1660e01b8152600401602060405180830381865afa158015610578573d6000803e3d6000fd5b67ffffffffffffffff16111592915050565b60008060029054906101000a900473ffffffffffffffffffffffffffffffffffffffff1673ffffffffffffffffffffffffffffffffffffffff16635c975abb6040518163ffffffff1660e01b8152600401602060405180830381865afa158015610dee573d6000803e3d6000fd5b505050506040513d601f19601f8201168201806040525081019061084091906119cb565b6000610e1d82610c85565b610e2957506000919050565b610e32826105d2565b610e3e57506000919050565b610e47826104f2565b610e5357506000919050565b60028273ffffffffffffffffffffffffffffffffffffffff1663200d2ed26040518163ffffffff1660e01b8152600401602060405180830381865afa158015610ea0573d6000803e3d6000fd5b505050506040513d601f19601f82011682018060405250810190610ec49190611a8f565b6002811115610ed557610ed5611a60565b146105ca57506000919050565b600080610eed611066565b91509150915091565b610efe61161e565b73ffffffffffffffffffffffffffffffffffffffff811660008181526005602052604080822080547fffffffffffffffffffffffffffffffffffffffffffffffffffffffffffffff00166001179055517f192c289026d59a41a27f5aea08f3969b57931b0589202d14f4368cded95d3cda9190a250565b610f7d61161e565b600680547fffffffffffffffffffffffffffffffffffffffffffffffffffffffff000000001663ffffffff83169081179091556040519081527fcee0703b5e4bad4efededab85c9fd1aec17dee7c5f6c584330e0509b677745a29060200160405180910390a150565b610fee61161e565b600680547fffffffffffffffffffffffffffffffffffffffff0000000000000000ffffffff166401000000004267ffffffffffffffff811691909102919091179091556040519081527f6e5b1ba771e8e484f741ed085f039ff4e5c6e882eaf68f550fb390922d0ae4a79060200160405180910390a1565b600254600090819073ffffffffffffffffffffffffffffffffffffffff166110945750506003546004549091565b600254604080517fbcef3b55000000000000000000000000000000000000000000000000000000008152905161112c9273ffffffffffffffffffffffffffffffffffffffff169163bcef3b559160048083019260209291908290030181865afa158015611105573d6000803e3d6000fd5b505050506040513d601f19601f8201168201806040525081019061112991906119ed565b90565b600260009054906101000a900473ffffffffffffffffffffffffffffffffffffffff1673ffffffffffffffffffffffffffffffffffffffff166399735e326040518163ffffffff1660e01b8152600401602060405180830381865afa158015611199573d6000803e3d6000fd5b505050506040513d601f19601f820116820180604052508101906111bd91906119ed565b915091509091565b60006111cf610845565b73ffffffffffffffffffffffffffffffffffffffff16638da5cb5b6040518163ffffffff1660e01b8152600401602060405180830381865afa15801561081c573d6000803e3d6000fd5b6000806000808473ffffffffffffffffffffffffffffffffffffffff1663fa24f7436040518163ffffffff1660e01b8152600401600060405180830381865afa15801561126a573d6000803e3d6000fd5b505050506040513d6000823e601f3d9081017fffffffffffffffffffffffffffffffffffffffffffffffffffffffffffffffe01682016040526112b09190810190611ab0565b6001546040517f5f0150cb000000000000000000000000000000000000000000000000000000008152939650919450925060009173ffffffffffffffffffffffffffffffffffffffff90911690635f0150cb9061131590879087908790600401611b81565b6040805180830381865afa158015611331573d6000803e3d6000fd5b505050506040513d601f19601f820116820180604052508101906113559190611baf565b50905060008673ffffffffffffffffffffffffffffffffffffffff16635c0cba336040518163ffffffff1660e01b8152600401602060405180830381865afa1580156113a5573d6000803e3d6000fd5b505050506040513d601f19601f820116820180604052508101906113c99190611a06565b90508673ffffffffffffffffffffffffffffffffffffffff168273ffffffffffffffffffffffffffffffffffffffff1614801561141b575073ffffffffffffffffffffffffffffffffffffffff811630145b979650505050505050565b60006114768273ffffffffffffffffffffffffffffffffffffffff166319effeb46040518163ffffffff1660e01b8152600401602060405180830381865afa158015610578573d6000803e3d6000fd5b67ffffffffffffffff1615801590610643575060028273ffffffffffffffffffffffffffffffffffffffff1663200d2ed26040518163ffffffff1660e01b8152600401602060405180830381865afa1580156114d6573d6000803e3d6000fd5b505050506040513d601f19601f820116820180604052508101906114fa9190611a8f565b600281111561150b5761150b611a60565b1480610643575060018273ffffffffffffffffffffffffffffffffffffffff1663200d2ed26040518163ffffffff1660e01b8152600401602060405180830381865afa15801561155f573d6000803e3d6000fd5b505050506040513d601f19601f820116820180604052508101906115839190611a8f565b600281111561159457611594611a60565b1492915050565b336115a4610845565b73ffffffffffffffffffffffffffffffffffffffff16141580156115e55750336115cc6111c5565b73ffffffffffffffffffffffffffffffffffffffff1614155b1561161c576040517fc4050a2600000000000000000000000000000000000000000000000000000000815260040160405180910390fd5b565b600060029054906101000a900473ffffffffffffffffffffffffffffffffffffffff1673ffffffffffffffffffffffffffffffffffffffff1663452a93206040518163ffffffff1660e01b8152600401602060405180830381865afa15801561168b573d6000803e3d6000fd5b505050506040513d601f19601f820116820180604052508101906116af9190611a06565b73ffffffffffffffffffffffffffffffffffffffff163373ffffffffffffffffffffffffffffffffffffffff161461161c576040517f2e5321ac00000000000000000000000000000000000000000000000000000000815260040160405180910390fd5b73ffffffffffffffffffffffffffffffffffffffff8116811461173557600080fd5b50565b60006020828403121561174a57600080fd5b813561175581611713565b9392505050565b7f4e487b7100000000000000000000000000000000000000000000000000000000600052604160045260246000fd5b604051601f82017fffffffffffffffffffffffffffffffffffffffffffffffffffffffffffffffe016810167ffffffffffffffff811182821017156117d2576117d261175c565b604052919050565b63ffffffff8116811461173557600080fd5b60008060008084860360a081121561180357600080fd5b853561180e81611713565b9450602086013561181e81611713565b935060407fffffffffffffffffffffffffffffffffffffffffffffffffffffffffffffffc08201121561185057600080fd5b506040516040810181811067ffffffffffffffff821117156118745761187461175c565b604090815286013581526060860135602082015291506080850135611898816117da565b939692955090935050565b60005b838110156118be5781810151838201526020016118a6565b838111156118cd576000848401525b50505050565b600081518084526118eb8160208601602086016118a3565b601f017fffffffffffffffffffffffffffffffffffffffffffffffffffffffffffffffe0169290920160200192915050565b60208152600061175560208301846118d3565b60006020828403121561194257600080fd5b8135611755816117da565b805167ffffffffffffffff8116811461196557600080fd5b919050565b60006020828403121561197c57600080fd5b6117558261194d565b7f4e487b7100000000000000000000000000000000000000000000000000000000600052601160045260246000fd5b6000828210156119c6576119c6611985565b500390565b6000602082840312156119dd57600080fd5b8151801515811461175557600080fd5b6000602082840312156119ff57600080fd5b5051919050565b600060208284031215611a1857600080fd5b815161175581611713565b6000817fffffffffffffffffffffffffffffffffffffffffffffffffffffffffffffffff0483118215151615611a5b57611a5b611985565b500290565b7f4e487b7100000000000000000000000000000000000000000000000000000000600052602160045260246000fd5b600060208284031215611aa157600080fd5b81516003811061175557600080fd5b600080600060608486031215611ac557600080fd5b8351611ad0816117da565b60208501516040860151919450925067ffffffffffffffff80821115611af557600080fd5b818601915086601f830112611b0957600080fd5b815181811115611b1b57611b1b61175c565b611b4c60207fffffffffffffffffffffffffffffffffffffffffffffffffffffffffffffffe0601f8401160161178b565b9150808252876020828501011115611b6357600080fd5b611b748160208401602086016118a3565b5080925050509250925092565b63ffffffff84168152826020820152606060408201526000611ba660608301846118d3565b95945050505050565b60008060408385031215611bc257600080fd5b8251611bcd81611713565b9150611bdb6020840161194d565b9050925092905056fea164736f6c634300080f000a","linkReferences":{}},"methodIdentifiers":{"anchorGame()":"e0a840eb","anchors(uint32)":"7258a807","blacklistDisputeGame(address)":"7d6be8dc","disputeGameBlacklist(address)":"45884d32","disputeGameFactory()":"f2b4e617","disputeGameFinalityDelaySeconds()":"952b2797","getAnchorRoot()":"d83ef267","initVersion()":"38d38c97","initialize(address,address,(bytes32,uint256),uint32)":"47a222c5","isGameBlacklisted(address)":"34a346ea","isGameClaimValid(address)":"6c4f4467","isGameFinalized(address)":"0314d2b3","isGameProper(address)":"496b9c16","isGameRegistered(address)":"ee658e45","isGameResolved(address)":"fdbb3dcf","isGameRespected(address)":"04e50fed","isGameRetired(address)":"5958a193","paused()":"5c975abb","proxyAdmin()":"3e47158c","proxyAdminOwner()":"dad544e0","respectedGameType()":"3c9f397c","retirementTimestamp()":"4086d183","setAnchorState(address)":"17cf21a9","setRespectedGameType(uint32)":"7fc48504","superchainConfig()":"35e80ab3","systemConfig()":"33d7e2bd","updateRetirementTimestamp()":"d5a3e12e","version()":"54fd4d50"},"storageLayout":{"storage":[{"astId":51321,"contract":"src/dispute/AnchorStateRegistry.sol:AnchorStateRegistry","label":"_initialized","offset":0,"slot":"0","type":"t_uint8"},{"astId":51324,"contract":"src/dispute/AnchorStateRegistry.sol:AnchorStateRegistry","label":"_initializing","offset":1,"slot":"0","type":"t_bool"},{"astId":113137,"contract":"src/dispute/AnchorStateRegistry.sol:AnchorStateRegistry","label":"systemConfig","offset":2,"slot":"0","type":"t_contract(ISystemConfig)2870"},{"astId":113141,"contract":"src/dispute/AnchorStateRegistry.sol:AnchorStateRegistry","label":"disputeGameFactory","offset":0,"slot":"1","type":"t_contract(IDisputeGameFactory)5972"},{"astId":113145,"contract":"src/dispute/AnchorStateRegistry.sol:AnchorStateRegistry","label":"anchorGame","offset":0,"slot":"2","type":"t_contract(IFaultDisputeGame)6464"},{"astId":113149,"contract":"src/dispute/AnchorStateRegistry.sol:AnchorStateRegistry","label":"startingAnchorRoot","offset":0,"slot":"3","type":"t_struct(Proposal)118338_storage"},{"astId":113155,"contract":"src/dispute/AnchorStateRegistry.sol:AnchorStateRegistry","label":"disputeGameBlacklist","offset":0,"slot":"5","type":"t_mapping(t_contract(IDisputeGame)5745,t_bool)"},{"astId":113159,"contract":"src/dispute/AnchorStateRegistry.sol:AnchorStateRegistry","label":"respectedGameType","offset":0,"slot":"6","type":"t_userDefinedValueType(GameType)118297"},{"astId":113162,"contract":"src/dispute/AnchorStateRegistry.sol:AnchorStateRegistry","label":"retirementTimestamp","offset":4,"slot":"6","type":"t_uint64"}],"types":{"t_bool":{"encoding":"inplace","label":"bool","numberOfBytes":"1"},"t_contract(IDisputeGame)5745":{"encoding":"inplace","label":"contract IDisputeGame","numberOfBytes":"20"},"t_contract(IDisputeGameFactory)5972":{"encoding":"inplace","label":"contract IDisputeGameFactory","numberOfBytes":"20"},"t_contract(IFaultDisputeGame)6464":{"encoding":"inplace","label":"contract IFaultDisputeGame","numberOfBytes":"20"},"t_contract(ISystemConfig)2870":{"encoding":"inplace","label":"contract ISystemConfig","numberOfBytes":"20"},"t_mapping(t_contract(IDisputeGame)5745,t_bool)":{"encoding":"mapping","key":"t_contract(IDisputeGame)5745","label":"mapping(contract IDisputeGame => bool)","numberOfBytes":"32","value":"t_bool"},"t_struct(Proposal)118338_storage":{"encoding":"inplace","label":"struct Proposal","numberOfBytes":"64","members":[{"astId":118335,"contract":"src/dispute/AnchorStateRegistry.sol:AnchorStateRegistry","label":"root","offset":0,"slot":"0","type":"t_userDefinedValueType(Hash)118252"},{"astId":118337,"contract":"src/dispute/AnchorStateRegistry.sol:AnchorStateRegistry","label":"l2SequenceNumber","offset":0,"slot":"1","type":"t_uint256"}]},"t_uint256":{"encoding":"inplace","label":"uint256","numberOfBytes":"32"},"t_uint64":{"encoding":"inplace","label":"uint64","numberOfBytes":"8"},"t_uint8":{"encoding":"inplace","label":"uint8","numberOfBytes":"1"},"t_userDefinedValueType(GameType)118297":{"encoding":"inplace","label":"GameType","numberOfBytes":"4"},"t_userDefinedValueType(Hash)118252":{"encoding":"inplace","label":"Hash","numberOfBytes":"32"}}},"userdoc":{"version":1,"kind":"user","methods":{"anchorGame()":{"notice":"The game whose claim is currently being used as the anchor state."},"blacklistDisputeGame(address)":{"notice":"Allows the Guardian to blacklist a dispute game."},"disputeGameBlacklist(address)":{"notice":"Mapping of blacklisted dispute games."},"disputeGameFactory()":{"notice":"Address of the DisputeGameFactory contract."},"disputeGameFinalityDelaySeconds()":{"notice":"Returns the dispute game finality delay in seconds."},"getAnchorRoot()":{"notice":"Returns the current anchor root."},"initVersion()":{"notice":"Getter for the current initialization version."},"initialize(address,address,(bytes32,uint256),uint32)":{"notice":"Initializes the contract."},"isGameBlacklisted(address)":{"notice":"Determines whether a game is blacklisted."},"isGameClaimValid(address)":{"notice":"Returns whether a game's root claim is valid."},"isGameFinalized(address)":{"notice":"Returns whether a game is finalized."},"isGameProper(address)":{"notice":"**READ THIS FUNCTION DOCUMENTATION CAREFULLY.**         Determines whether a game resolved properly and the game was not subject to any         invalidation conditions. The root claim of a proper game IS NOT guaranteed to be         valid. The root claim of a proper game CAN BE incorrect and still be a proper game.         DO NOT USE THIS FUNCTION ALONE TO DETERMINE IF A ROOT CLAIM IS VALID."},"isGameRegistered(address)":{"notice":"Determines whether a game is registered by checking that it was created by the         DisputeGameFactory and that it uses this AnchorStateRegistry."},"isGameResolved(address)":{"notice":"Returns whether a game is resolved."},"isGameRespected(address)":{"notice":"Determines whether a game is of a respected game type."},"isGameRetired(address)":{"notice":"Determines whether a game is retired."},"paused()":{"notice":"Returns whether the contract is paused."},"proxyAdmin()":{"notice":"Getter for the ProxyAdmin contract that owns this Proxy contract."},"proxyAdminOwner()":{"notice":"Getter for the owner of the ProxyAdmin."},"respectedGameType()":{"notice":"The respected game type."},"retirementTimestamp()":{"notice":"The retirement timestamp. All games created before or at this timestamp are         considered retired and are therefore not valid games. Retirement is used as a         blanket invalidation mechanism if games resolve incorrectly."},"setAnchorState(address)":{"notice":"Updates the anchor game."},"setRespectedGameType(uint32)":{"notice":"Allows the Guardian to set the respected game type."},"superchainConfig()":{"notice":"Returns the SuperchainConfig contract."},"systemConfig()":{"notice":"Address of the SystemConfig contract."},"updateRetirementTimestamp()":{"notice":"Allows the Guardian to update the retirement timestamp."},"version()":{"notice":"Semantic version."}},"events":{"AnchorUpdated(address)":{"notice":"Emitted when an anchor state is updated."},"DisputeGameBlacklisted(address)":{"notice":"Emitted when a dispute game is blacklisted."},"RespectedGameTypeSet(uint32)":{"notice":"Emitted when the respected game type is set."},"RetirementTimestampSet(uint256)":{"notice":"Emitted when the retirement timestamp is set."}},"errors":{"AnchorStateRegistry_InvalidAnchorGame()":[{"notice":"Thrown when an invalid anchor game is provided."}],"AnchorStateRegistry_Unauthorized()":[{"notice":"Thrown when an unauthorized caller attempts to set the anchor state."}],"ProxyAdminOwnedBase_NotProxyAdmin()":[{"notice":"Thrown when the caller is not the ProxyAdmin."}],"ProxyAdminOwnedBase_NotProxyAdminOrProxyAdminOwner()":[{"notice":"Thrown when the caller is not the ProxyAdmin owner or the ProxyAdmin."}],"ProxyAdminOwnedBase_NotProxyAdminOwner()":[{"notice":"Thrown when the caller is not the ProxyAdmin owner."}],"ProxyAdminOwnedBase_NotResolvedDelegateProxy()":[{"notice":"Thrown when the current contract is not a ResolvedDelegateProxy."}],"ProxyAdminOwnedBase_NotSharedProxyAdminOwner()":[{"notice":"Thrown when the ProxyAdmin owner of the current contract is not the same as the         ProxyAdmin owner of the other Proxy address provided."}],"ProxyAdminOwnedBase_ProxyAdminNotFound()":[{"notice":"Thrown when the ProxyAdmin owner of the current contract is not found."}],"ReinitializableBase_ZeroInitVersion()":[{"notice":"Thrown when the initialization version is zero."}]},"notice":"The AnchorStateRegistry is a contract that stores the latest \"anchor\" state for each available         FaultDisputeGame type. The anchor state is the latest state that has been proposed on L1 and was not         challenged within the challenge period. By using stored anchor states, new FaultDisputeGame instances can         be initialized with a more recent starting state which reduces the amount of required offchain computation."},"devdoc":{"version":1,"kind":"dev","methods":{"anchors(uint32)":{},"blacklistDisputeGame(address)":{"params":{"_disputeGame":"Dispute game to blacklist."}},"constructor":{"params":{"_disputeGameFinalityDelaySeconds":"The dispute game finality delay in seconds."}},"getAnchorRoot()":{"returns":{"_0":"The anchor root."}},"initVersion()":{"returns":{"_0":"The current initialization version."}},"initialize(address,address,(bytes32,uint256),uint32)":{"params":{"_disputeGameFactory":"The address of the DisputeGameFactory contract.","_startingAnchorRoot":"The starting anchor root.","_systemConfig":"The address of the SystemConfig contract."}},"isGameBlacklisted(address)":{"params":{"_game":"The game to check."},"returns":{"_0":"Whether the game is blacklisted."}},"isGameClaimValid(address)":{"params":{"_game":"The game to check."},"returns":{"_0":"Whether the game's root claim is valid."}},"isGameFinalized(address)":{"params":{"_game":"The game to check."},"returns":{"_0":"Whether the game is finalized."}},"isGameProper(address)":{"details":"Note that isGameProper previously checked that the game type was equal to the      respected game type. However, it should be noted that it is possible for a game other      than the respected game type to resolve without being invalidated. Since isGameProper      exists to determine if a game has (or has not) been invalidated, we now allow any game      type to be considered a proper game. We enforce checks on the game type in      isGameClaimValid().","params":{"_game":"The game to check."},"returns":{"_0":"Whether the game is a proper game."}},"isGameRegistered(address)":{"params":{"_game":"The game to check."},"returns":{"_0":"Whether the game is registered."}},"isGameResolved(address)":{"params":{"_game":"The game to check."},"returns":{"_0":"Whether the game is resolved."}},"isGameRespected(address)":{"params":{"_game":"The game to check."},"returns":{"_0":"Whether the game is of a respected game type."}},"isGameRetired(address)":{"params":{"_game":"The game to check."},"returns":{"_0":"Whether the game is retired."}},"setAnchorState(address)":{"params":{"_game":"New candidate anchor game."}},"setRespectedGameType(uint32)":{"params":{"_gameType":"The new respected game type."}},"superchainConfig()":{"returns":{"_0":"ISuperchainConfig The SuperchainConfig contract."}}},"events":{"AnchorUpdated(address)":{"params":{"game":"Game that was used as the new anchor game."}},"DisputeGameBlacklisted(address)":{"params":{"disputeGame":"The dispute game that was blacklisted."}},"RespectedGameTypeSet(uint32)":{"params":{"gameType":"The new respected game type."}},"RetirementTimestampSet(uint256)":{"params":{"timestamp":"The new retirement timestamp."}}},"title":"AnchorStateRegistry"},"id":262}