{"abi":[{"type":"fallback","stateMutability":"nonpayable"},{"type":"function","name":"setFallbackHandler","inputs":[{"name":"handler","type":"address","internalType":"address"}],"outputs":[],"stateMutability":"nonpayable"},{"type":"event","name":"ChangedFallbackHandler","inputs":[{"name":"handler","type":"address","indexed":false,"internalType":"address"}],"anonymous":false}],"bytecode":{"object":"0x6080604052348015600e575f80fd5b506101c38061001c5f395ff3fe608060405234801561000f575f80fd5b5060043610610029575f3560e01c8063f08a03231461007c575b7f6c9a6c4a39284e37ed1cf53d337577d14212a4870fb976a4366c693b939918d580548061005357005b365f80373360601b36525f80601436015f80855af190503d5f803e80610077573d5ffd5b503d5ff35b61008f61008a36600461017c565b610091565b005b61009961010d565b6100c1817f6c9a6c4a39284e37ed1cf53d337577d14212a4870fb976a4366c693b939918d555565b60405173ffffffffffffffffffffffffffffffffffffffff821681527f5ac6c46c93c8d0e53714ba3b53db3e7c046da994313d7ed0d192028bc7c228b09060200160405180910390a150565b33301461017a576040517f08c379a000000000000000000000000000000000000000000000000000000000815260206004820152600560248201527f4753303331000000000000000000000000000000000000000000000000000000604482015260640160405180910390fd5b565b5f6020828403121561018c575f80fd5b813573ffffffffffffffffffffffffffffffffffffffff811681146101af575f80fd5b939250505056fea164736f6c6343000819000a","linkReferences":{}},"methodIdentifiers":{"setFallbackHandler(address)":"f08a0323"},"storageLayout":{"storage":[],"types":{}},"userdoc":{"version":1,"kind":"user"},"devdoc":{"version":1,"kind":"dev","author":"Richard Meissner - <richard@gnosis.pm>","methods":{"setFallbackHandler(address)":{"details":"Allows to add a contract to handle fallback calls.      Only fallback calls without value and with data will be forwarded.      This can only be done via a Safe transaction.","params":{"handler":"contract to handle fallbacks calls."}}},"title":"Fallback Manager - A contract that manages fallback calls made to this contract"},"id":95}