{"abi":[{"type":"constructor","inputs":[],"stateMutability":"nonpayable"},{"type":"function","name":"authorizeLockbox","inputs":[{"name":"_lockbox","type":"address","internalType":"contract IETHLockbox"}],"outputs":[],"stateMutability":"nonpayable"},{"type":"function","name":"authorizePortal","inputs":[{"name":"_portal","type":"address","internalType":"contract IOptimismPortal2"}],"outputs":[],"stateMutability":"nonpayable"},{"type":"function","name":"authorizedLockboxes","inputs":[{"name":"","type":"address","internalType":"contract IETHLockbox"}],"outputs":[{"name":"","type":"bool","internalType":"bool"}],"stateMutability":"view"},{"type":"function","name":"authorizedPortals","inputs":[{"name":"","type":"address","internalType":"contract IOptimismPortal2"}],"outputs":[{"name":"","type":"bool","internalType":"bool"}],"stateMutability":"view"},{"type":"function","name":"initVersion","inputs":[],"outputs":[{"name":"","type":"uint8","internalType":"uint8"}],"stateMutability":"view"},{"type":"function","name":"initialize","inputs":[{"name":"_systemConfig","type":"address","internalType":"contract ISystemConfig"},{"name":"_portals","type":"address[]","internalType":"contract IOptimismPortal2[]"}],"outputs":[],"stateMutability":"nonpayable"},{"type":"function","name":"lockETH","inputs":[],"outputs":[],"stateMutability":"payable"},{"type":"function","name":"migrateLiquidity","inputs":[{"name":"_lockbox","type":"address","internalType":"contract IETHLockbox"}],"outputs":[],"stateMutability":"nonpayable"},{"type":"function","name":"paused","inputs":[],"outputs":[{"name":"","type":"bool","internalType":"bool"}],"stateMutability":"view"},{"type":"function","name":"proxyAdmin","inputs":[],"outputs":[{"name":"","type":"address","internalType":"contract IProxyAdmin"}],"stateMutability":"view"},{"type":"function","name":"proxyAdminOwner","inputs":[],"outputs":[{"name":"","type":"address","internalType":"address"}],"stateMutability":"view"},{"type":"function","name":"receiveLiquidity","inputs":[],"outputs":[],"stateMutability":"payable"},{"type":"function","name":"superchainConfig","inputs":[],"outputs":[{"name":"","type":"address","internalType":"contract ISuperchainConfig"}],"stateMutability":"view"},{"type":"function","name":"systemConfig","inputs":[],"outputs":[{"name":"","type":"address","internalType":"contract ISystemConfig"}],"stateMutability":"view"},{"type":"function","name":"unlockETH","inputs":[{"name":"_value","type":"uint256","internalType":"uint256"}],"outputs":[],"stateMutability":"nonpayable"},{"type":"function","name":"version","inputs":[],"outputs":[{"name":"","type":"string","internalType":"string"}],"stateMutability":"view"},{"type":"event","name":"ETHLocked","inputs":[{"name":"portal","type":"address","indexed":true,"internalType":"contract IOptimismPortal2"},{"name":"amount","type":"uint256","indexed":false,"internalType":"uint256"}],"anonymous":false},{"type":"event","name":"ETHUnlocked","inputs":[{"name":"portal","type":"address","indexed":true,"internalType":"contract IOptimismPortal2"},{"name":"amount","type":"uint256","indexed":false,"internalType":"uint256"}],"anonymous":false},{"type":"event","name":"Initialized","inputs":[{"name":"version","type":"uint8","indexed":false,"internalType":"uint8"}],"anonymous":false},{"type":"event","name":"LiquidityMigrated","inputs":[{"name":"lockbox","type":"address","indexed":true,"internalType":"contract IETHLockbox"},{"name":"amount","type":"uint256","indexed":false,"internalType":"uint256"}],"anonymous":false},{"type":"event","name":"LiquidityReceived","inputs":[{"name":"lockbox","type":"address","indexed":true,"internalType":"contract IETHLockbox"},{"name":"amount","type":"uint256","indexed":false,"internalType":"uint256"}],"anonymous":false},{"type":"event","name":"LockboxAuthorized","inputs":[{"name":"lockbox","type":"address","indexed":true,"internalType":"contract IETHLockbox"}],"anonymous":false},{"type":"event","name":"PortalAuthorized","inputs":[{"name":"portal","type":"address","indexed":true,"internalType":"contract IOptimismPortal2"}],"anonymous":false},{"type":"error","name":"ETHLockbox_DifferentSuperchainConfig","inputs":[]},{"type":"error","name":"ETHLockbox_InsufficientBalance","inputs":[]},{"type":"error","name":"ETHLockbox_NoWithdrawalTransactions","inputs":[]},{"type":"error","name":"ETHLockbox_Paused","inputs":[]},{"type":"error","name":"ETHLockbox_Unauthorized","inputs":[]},{"type":"error","name":"ProxyAdminOwnedBase_NotProxyAdmin","inputs":[]},{"type":"error","name":"ProxyAdminOwnedBase_NotProxyAdminOrProxyAdminOwner","inputs":[]},{"type":"error","name":"ProxyAdminOwnedBase_NotProxyAdminOwner","inputs":[]},{"type":"error","name":"ProxyAdminOwnedBase_NotResolvedDelegateProxy","inputs":[]},{"type":"error","name":"ProxyAdminOwnedBase_NotSharedProxyAdminOwner","inputs":[]},{"type":"error","name":"ProxyAdminOwnedBase_ProxyAdminNotFound","inputs":[]},{"type":"error","name":"ReinitializableBase_ZeroInitVersion","inputs":[]}],"bytecode":{"object":"0x60a060405234801561001057600080fd5b50600160805261001e610023565b6100e3565b600054610100900460ff161561008f5760405162461bcd60e51b815260206004820152602760248201527f496e697469616c697a61626c653a20636f6e747261637420697320696e697469604482015266616c697a696e6760c81b606482015260840160405180910390fd5b60005460ff90811610156100e1576000805460ff191660ff9081179091556040519081527f7f26b83ff96e1f2b6a682f133852f6798a09c465da95921460cefb38474024989060200160405180910390a15b565b608051611337610105600039600081816102000152610b4b01526113376000f3fe6080604052600436106100f35760003560e01c8063438ab5ac1161008a5780638d445bd0116100595780638d445bd0146102e0578063946d920414610300578063b2db82f514610320578063dad544e01461034057600080fd5b8063438ab5ac1461023f57806354fd4d501461025f5780635c975abb146102ab5780635ec15d89146102c057600080fd5b806333d7e2bd116100c657806333d7e2bd1461017f57806335e80ab3146101d757806338d38c97146101ec5780633e47158c1461022a57600080fd5b80630fd11077146100f85780631ee116bf1461013d578063225ce1761461014757806330f9765d14610177575b600080fd5b34801561010457600080fd5b506101286101133660046110e0565b60016020526000908152604090205460ff1681565b60405190151581526020015b60405180910390f35b610145610355565b005b34801561015357600080fd5b506101286101623660046110e0565b60026020526000908152604090205460ff1681565b6101456103f1565b34801561018b57600080fd5b506000546101b29062010000900473ffffffffffffffffffffffffffffffffffffffff1681565b60405173ffffffffffffffffffffffffffffffffffffffff9091168152602001610134565b3480156101e357600080fd5b506101b2610482565b3480156101f857600080fd5b5060405160ff7f0000000000000000000000000000000000000000000000000000000000000000168152602001610134565b34801561023657600080fd5b506101b2610519565b34801561024b57600080fd5b5061014561025a3660046110e0565b610724565b34801561026b57600080fd5b50604080518082018252600581527f312e322e30000000000000000000000000000000000000000000000000000000602082015290516101349190611104565b3480156102b757600080fd5b506101286107ef565b3480156102cc57600080fd5b506101456102db3660046110e0565b610881565b3480156102ec57600080fd5b506101456102fb366004611177565b610909565b34801561030c57600080fd5b5061014561031b366004611190565b610b49565b34801561032c57600080fd5b5061014561033b3660046110e0565b610d46565b34801561034c57600080fd5b506101b2610d5a565b3360008181526001602052604090205460ff1661039e576040517f665a1d1c00000000000000000000000000000000000000000000000000000000815260040160405180910390fd5b8073ffffffffffffffffffffffffffffffffffffffff167f97efc519b9020a140ffe13878e03d340b976676090bc7fe3e33191192df7c72c346040516103e691815260200190565b60405180910390a250565b3360008181526002602052604090205460ff1661043a576040517f665a1d1c00000000000000000000000000000000000000000000000000000000815260040160405180910390fd5b8073ffffffffffffffffffffffffffffffffffffffff167fb58278ed56aa79ad2e243963b44b165a8f76d629f61c01dd3649d658e0eacca4346040516103e691815260200190565b60008060029054906101000a900473ffffffffffffffffffffffffffffffffffffffff1673ffffffffffffffffffffffffffffffffffffffff166335e80ab36040518163ffffffff1660e01b8152600401602060405180830381865afa1580156104f0573d6000803e3d6000fd5b505050506040513d601f19601f820116820180604052508101906105149190611218565b905090565b6000806105447fb53127684a568b3173ae13b9f8a6016e243e63b6e8ee1178d6a717850b5d61035490565b905073ffffffffffffffffffffffffffffffffffffffff81161561056757919050565b6040518060400160405280601a81526020017f4f564d5f4c3143726f7373446f6d61696e4d657373656e6765720000000000008152505160026105aa9190611264565b604080513060208201526000918101919091527f4f564d5f4c3143726f7373446f6d61696e4d657373656e6765720000000000009190911790610605906060015b604051602081830303815290604052805190602001205490565b1461063c576040517f54e433cd00000000000000000000000000000000000000000000000000000000815260040160405180910390fd5b6040805130602082015260019181019190915260009061065e906060016105eb565b905073ffffffffffffffffffffffffffffffffffffffff8116156106f2578073ffffffffffffffffffffffffffffffffffffffff16638da5cb5b6040518163ffffffff1660e01b8152600401602060405180830381865afa1580156106c7573d6000803e3d6000fd5b505050506040513d601f19601f820116820180604052508101906106eb9190611218565b9250505090565b6040517f332144db00000000000000000000000000000000000000000000000000000000815260040160405180910390fd5b61072c610dae565b61073581610e06565b60004790508173ffffffffffffffffffffffffffffffffffffffff166330f9765d826040518263ffffffff1660e01b81526004016000604051808303818588803b15801561078257600080fd5b505af1158015610796573d6000803e3d6000fd5b50505050508173ffffffffffffffffffffffffffffffffffffffff167f87eb4064140fbec95a8de570e01b4c650c00ecd677560af9f298a975b636c22d826040516107e391815260200190565b60405180910390a25050565b60008060029054906101000a900473ffffffffffffffffffffffffffffffffffffffff1673ffffffffffffffffffffffffffffffffffffffff16635c975abb6040518163ffffffff1660e01b8152600401602060405180830381865afa15801561085d573d6000803e3d6000fd5b505050506040513d601f19601f8201168201806040525081019061051491906112a1565b610889610dae565b61089281610e06565b73ffffffffffffffffffffffffffffffffffffffff811660008181526002602052604080822080547fffffffffffffffffffffffffffffffffffffffffffffffffffffffffffffff00166001179055517f5d2682e700a2146c8e2381e0b407003576a54e96dd08f40f3ea0d2b8706db1069190a250565b6109116107ef565b15610948576040517f9e72994200000000000000000000000000000000000000000000000000000000815260040160405180910390fd5b3360008181526001602052604090205460ff16610991576040517f665a1d1c00000000000000000000000000000000000000000000000000000000815260040160405180910390fd5b478211156109cb576040517fe1ba922700000000000000000000000000000000000000000000000000000000815260040160405180910390fd5b61dead73ffffffffffffffffffffffffffffffffffffffff168173ffffffffffffffffffffffffffffffffffffffff16639bf62d826040518163ffffffff1660e01b8152600401602060405180830381865afa158015610a2f573d6000803e3d6000fd5b505050506040513d601f19601f82011682018060405250810190610a539190611218565b73ffffffffffffffffffffffffffffffffffffffff1614610aa0576040517fd6cbd5f900000000000000000000000000000000000000000000000000000000815260040160405180910390fd5b8073ffffffffffffffffffffffffffffffffffffffff16638b4c40b0836040518263ffffffff1660e01b81526004016000604051808303818588803b158015610ae857600080fd5b505af1158015610afc573d6000803e3d6000fd5b50505050508073ffffffffffffffffffffffffffffffffffffffff167fe9512d49448b580f3d29031e9243ee81bc8789a93d6f04ec8f03b694d623637b836040516107e391815260200190565b7f0000000000000000000000000000000000000000000000000000000000000000600054610100900460ff16158015610b89575060005460ff8083169116105b610c19576040517f08c379a000000000000000000000000000000000000000000000000000000000815260206004820152602e60248201527f496e697469616c697a61626c653a20636f6e747261637420697320616c72656160448201527f647920696e697469616c697a6564000000000000000000000000000000000000606482015260840160405180910390fd5b600080547fffffffffffffffffffffffffffffffffffffffffffffffffffffffffffff00001660ff831617610100179055610c52610ee0565b600080547fffffffffffffffffffff0000000000000000000000000000000000000000ffff166201000073ffffffffffffffffffffffffffffffffffffffff8716021781555b82811015610ce157610ccf848483818110610cb557610cb56112c3565b9050602002016020810190610cca91906110e0565b610f61565b80610cd9816112f2565b915050610c98565b50600080547fffffffffffffffffffffffffffffffffffffffffffffffffffffffffffff00ff16905560405160ff821681527f7f26b83ff96e1f2b6a682f133852f6798a09c465da95921460cefb38474024989060200160405180910390a150505050565b610d4e610dae565b610d5781610f61565b50565b6000610d64610519565b73ffffffffffffffffffffffffffffffffffffffff16638da5cb5b6040518163ffffffff1660e01b8152600401602060405180830381865afa1580156104f0573d6000803e3d6000fd5b33610db7610d5a565b73ffffffffffffffffffffffffffffffffffffffff1614610e04576040517f7f12c64b00000000000000000000000000000000000000000000000000000000815260040160405180910390fd5b565b8073ffffffffffffffffffffffffffffffffffffffff1663dad544e06040518163ffffffff1660e01b8152600401602060405180830381865afa158015610e51573d6000803e3d6000fd5b505050506040513d601f19601f82011682018060405250810190610e759190611218565b73ffffffffffffffffffffffffffffffffffffffff16610e93610d5a565b73ffffffffffffffffffffffffffffffffffffffff1614610d57576040517f075c431400000000000000000000000000000000000000000000000000000000815260040160405180910390fd5b33610ee9610519565b73ffffffffffffffffffffffffffffffffffffffff1614158015610f2a575033610f11610d5a565b73ffffffffffffffffffffffffffffffffffffffff1614155b15610e04576040517fc4050a2600000000000000000000000000000000000000000000000000000000815260040160405180910390fd5b610f6a81610e06565b610f72610482565b73ffffffffffffffffffffffffffffffffffffffff168173ffffffffffffffffffffffffffffffffffffffff166335e80ab36040518163ffffffff1660e01b8152600401602060405180830381865afa158015610fd3573d6000803e3d6000fd5b505050506040513d601f19601f82011682018060405250810190610ff79190611218565b73ffffffffffffffffffffffffffffffffffffffff1614611044576040517f84ab551500000000000000000000000000000000000000000000000000000000815260040160405180910390fd5b73ffffffffffffffffffffffffffffffffffffffff8116600081815260016020819052604080832080547fffffffffffffffffffffffffffffffffffffffffffffffffffffffffffffff0016909217909155517f90a7fac2e56aebe4889351fb04eda5efb28b19dedf288bdbfd3cfd817c79630f9190a250565b73ffffffffffffffffffffffffffffffffffffffff81168114610d5757600080fd5b6000602082840312156110f257600080fd5b81356110fd816110be565b9392505050565b600060208083528351808285015260005b8181101561113157858101830151858201604001528201611115565b81811115611143576000604083870101525b50601f017fffffffffffffffffffffffffffffffffffffffffffffffffffffffffffffffe016929092016040019392505050565b60006020828403121561118957600080fd5b5035919050565b6000806000604084860312156111a557600080fd5b83356111b0816110be565b9250602084013567ffffffffffffffff808211156111cd57600080fd5b818601915086601f8301126111e157600080fd5b8135818111156111f057600080fd5b8760208260051b850101111561120557600080fd5b6020830194508093505050509250925092565b60006020828403121561122a57600080fd5b81516110fd816110be565b7f4e487b7100000000000000000000000000000000000000000000000000000000600052601160045260246000fd5b6000817fffffffffffffffffffffffffffffffffffffffffffffffffffffffffffffffff048311821515161561129c5761129c611235565b500290565b6000602082840312156112b357600080fd5b815180151581146110fd57600080fd5b7f4e487b7100000000000000000000000000000000000000000000000000000000600052603260045260246000fd5b60007fffffffffffffffffffffffffffffffffffffffffffffffffffffffffffffffff820361132357611323611235565b506001019056fea164736f6c634300080f000a","linkReferences":{}},"methodIdentifiers":{"authorizeLockbox(address)":"5ec15d89","authorizePortal(address)":"b2db82f5","authorizedLockboxes(address)":"225ce176","authorizedPortals(address)":"0fd11077","initVersion()":"38d38c97","initialize(address,address[])":"946d9204","lockETH()":"1ee116bf","migrateLiquidity(address)":"438ab5ac","paused()":"5c975abb","proxyAdmin()":"3e47158c","proxyAdminOwner()":"dad544e0","receiveLiquidity()":"30f9765d","superchainConfig()":"35e80ab3","systemConfig()":"33d7e2bd","unlockETH(uint256)":"8d445bd0","version()":"54fd4d50"},"storageLayout":{"storage":[{"astId":51321,"contract":"src/L1/ETHLockbox.sol:ETHLockbox","label":"_initialized","offset":0,"slot":"0","type":"t_uint8"},{"astId":51324,"contract":"src/L1/ETHLockbox.sol:ETHLockbox","label":"_initializing","offset":1,"slot":"0","type":"t_bool"},{"astId":96080,"contract":"src/L1/ETHLockbox.sol:ETHLockbox","label":"systemConfig","offset":2,"slot":"0","type":"t_contract(ISystemConfig)2870"},{"astId":96086,"contract":"src/L1/ETHLockbox.sol:ETHLockbox","label":"authorizedPortals","offset":0,"slot":"1","type":"t_mapping(t_contract(IOptimismPortal2)2082,t_bool)"},{"astId":96092,"contract":"src/L1/ETHLockbox.sol:ETHLockbox","label":"authorizedLockboxes","offset":0,"slot":"2","type":"t_mapping(t_contract(IETHLockbox)380,t_bool)"}],"types":{"t_bool":{"encoding":"inplace","label":"bool","numberOfBytes":"1"},"t_contract(IETHLockbox)380":{"encoding":"inplace","label":"contract IETHLockbox","numberOfBytes":"20"},"t_contract(IOptimismPortal2)2082":{"encoding":"inplace","label":"contract IOptimismPortal2","numberOfBytes":"20"},"t_contract(ISystemConfig)2870":{"encoding":"inplace","label":"contract ISystemConfig","numberOfBytes":"20"},"t_mapping(t_contract(IETHLockbox)380,t_bool)":{"encoding":"mapping","key":"t_contract(IETHLockbox)380","label":"mapping(contract IETHLockbox => bool)","numberOfBytes":"32","value":"t_bool"},"t_mapping(t_contract(IOptimismPortal2)2082,t_bool)":{"encoding":"mapping","key":"t_contract(IOptimismPortal2)2082","label":"mapping(contract IOptimismPortal2 => bool)","numberOfBytes":"32","value":"t_bool"},"t_uint8":{"encoding":"inplace","label":"uint8","numberOfBytes":"1"}}},"userdoc":{"version":1,"kind":"user","methods":{"authorizeLockbox(address)":{"notice":"Authorizes an ETH lockbox to migrate its liquidity to the current ETH lockbox. We         allow this function to be called more than once for the same lockbox. A lockbox         cannot be removed from the authorized list once added."},"authorizePortal(address)":{"notice":"Authorizes a portal to lock and unlock ETH."},"authorizedLockboxes(address)":{"notice":"Mapping of authorized lockboxes."},"authorizedPortals(address)":{"notice":"Mapping of authorized portals."},"constructor":{"notice":"Constructs the ETHLockbox contract."},"initVersion()":{"notice":"Getter for the current initialization version."},"initialize(address,address[])":{"notice":"Initializer."},"lockETH()":{"notice":"Locks ETH in the lockbox.         Called by an authorized portal on a deposit to lock the ETH value."},"migrateLiquidity(address)":{"notice":"Migrates liquidity from the current ETH lockbox to another."},"paused()":{"notice":"Getter for the current paused status."},"proxyAdmin()":{"notice":"Getter for the ProxyAdmin contract that owns this Proxy contract."},"proxyAdminOwner()":{"notice":"Getter for the owner of the ProxyAdmin."},"receiveLiquidity()":{"notice":"Receives the ETH liquidity migrated from an authorized lockbox."},"superchainConfig()":{"notice":"Returns the SuperchainConfig contract."},"systemConfig()":{"notice":"The address of the SystemConfig contract."},"unlockETH(uint256)":{"notice":"Unlocks ETH from the lockbox.         Called by an authorized portal when finalizing a withdrawal that requires ETH.         Cannot be called if the lockbox is paused."},"version()":{"notice":"Semantic version."}},"events":{"ETHLocked(address,uint256)":{"notice":"Emitted when ETH is locked in the lockbox by an authorized portal."},"ETHUnlocked(address,uint256)":{"notice":"Emitted when ETH is unlocked from the lockbox by an authorized portal."},"LiquidityMigrated(address,uint256)":{"notice":"Emitted when ETH liquidity is migrated from the current ETH lockbox to another."},"LiquidityReceived(address,uint256)":{"notice":"Emitted when ETH liquidity is received during an authorized lockbox migration."},"LockboxAuthorized(address)":{"notice":"Emitted when an ETH lockbox is authorized to migrate its liquidity to the current ETH lockbox."},"PortalAuthorized(address)":{"notice":"Emitted when a portal is authorized to lock and unlock ETH."}},"errors":{"ETHLockbox_DifferentSuperchainConfig()":[{"notice":"Thrown when any authorized portal has a different SuperchainConfig."}],"ETHLockbox_InsufficientBalance()":[{"notice":"Thrown when the value to unlock is greater than the balance of the lockbox."}],"ETHLockbox_NoWithdrawalTransactions()":[{"notice":"Thrown when attempting to unlock ETH from the lockbox through a withdrawal transaction."}],"ETHLockbox_Paused()":[{"notice":"Thrown when the lockbox is paused."}],"ETHLockbox_Unauthorized()":[{"notice":"Thrown when the caller is not authorized."}],"ProxyAdminOwnedBase_NotProxyAdmin()":[{"notice":"Thrown when the caller is not the ProxyAdmin."}],"ProxyAdminOwnedBase_NotProxyAdminOrProxyAdminOwner()":[{"notice":"Thrown when the caller is not the ProxyAdmin owner or the ProxyAdmin."}],"ProxyAdminOwnedBase_NotProxyAdminOwner()":[{"notice":"Thrown when the caller is not the ProxyAdmin owner."}],"ProxyAdminOwnedBase_NotResolvedDelegateProxy()":[{"notice":"Thrown when the current contract is not a ResolvedDelegateProxy."}],"ProxyAdminOwnedBase_NotSharedProxyAdminOwner()":[{"notice":"Thrown when the ProxyAdmin owner of the current contract is not the same as the         ProxyAdmin owner of the other Proxy address provided."}],"ProxyAdminOwnedBase_ProxyAdminNotFound()":[{"notice":"Thrown when the ProxyAdmin owner of the current contract is not found."}],"ReinitializableBase_ZeroInitVersion()":[{"notice":"Thrown when the initialization version is zero."}]},"notice":"Manages ETH liquidity locking and unlocking for authorized OptimismPortals, enabling unified ETH liquidity         management across chains in the superchain cluster."},"devdoc":{"version":1,"kind":"dev","methods":{"authorizeLockbox(address)":{"params":{"_lockbox":"The address of the ETH lockbox to authorize."}},"authorizePortal(address)":{"params":{"_portal":"The address of the portal to authorize."}},"initVersion()":{"returns":{"_0":"The current initialization version."}},"initialize(address,address[])":{"details":"Note: Multiple chains can share an ETHLockbox contract. In this case, all SystemConfig      contracts will point to the same pause identifier (the lockbox itself). Therefore, it      doesn't matter which SystemConfig is used here as long as it belongs to one of the      chains that share the lockbox.","params":{"_portals":"The addresses of the portals to authorize.","_systemConfig":"The address of the SystemConfig contract."}},"migrateLiquidity(address)":{"details":"Must be called atomically with `OptimismPortal.migrateToSuperRoots()` in the same         transaction batch, or otherwise the OptimismPortal may not be able to unlock ETH         from the ETHLockbox on finalized withdrawals.","params":{"_lockbox":"The address of the ETH lockbox to migrate liquidity to."}},"superchainConfig()":{"returns":{"_0":"ISuperchainConfig The SuperchainConfig contract."}},"unlockETH(uint256)":{"params":{"_value":"The amount of ETH to unlock."}},"version()":{}},"events":{"ETHLocked(address,uint256)":{"params":{"amount":"The amount of ETH locked.","portal":"The address of the portal that locked the ETH."}},"ETHUnlocked(address,uint256)":{"params":{"amount":"The amount of ETH unlocked.","portal":"The address of the portal that unlocked the ETH."}},"LiquidityMigrated(address,uint256)":{"params":{"lockbox":"The address of the ETH lockbox that was migrated."}},"LiquidityReceived(address,uint256)":{"params":{"amount":"The amount of ETH received.","lockbox":"The address of the ETH lockbox that received the liquidity."}},"LockboxAuthorized(address)":{"params":{"lockbox":"The address of the ETH lockbox that was authorized."}},"PortalAuthorized(address)":{"params":{"portal":"The address of the portal that was authorized."}}},"title":"ETHLockbox"},"id":221}