{"abi":[{"type":"constructor","inputs":[{"name":"_contractsContainer","type":"address","internalType":"contract OPContractsManagerContractsContainer"}],"stateMutability":"nonpayable"},{"type":"function","name":"assertValidContractAddress","inputs":[{"name":"_who","type":"address","internalType":"address"}],"outputs":[],"stateMutability":"view"},{"type":"function","name":"blueprints","inputs":[],"outputs":[{"name":"","type":"tuple","internalType":"struct OPContractsManager.Blueprints","components":[{"name":"addressManager","type":"address","internalType":"address"},{"name":"proxy","type":"address","internalType":"address"},{"name":"proxyAdmin","type":"address","internalType":"address"},{"name":"l1ChugSplashProxy","type":"address","internalType":"address"},{"name":"resolvedDelegateProxy","type":"address","internalType":"address"},{"name":"permissionedDisputeGame1","type":"address","internalType":"address"},{"name":"permissionedDisputeGame2","type":"address","internalType":"address"},{"name":"permissionlessDisputeGame1","type":"address","internalType":"address"},{"name":"permissionlessDisputeGame2","type":"address","internalType":"address"},{"name":"superPermissionedDisputeGame1","type":"address","internalType":"address"},{"name":"superPermissionedDisputeGame2","type":"address","internalType":"address"},{"name":"superPermissionlessDisputeGame1","type":"address","internalType":"address"},{"name":"superPermissionlessDisputeGame2","type":"address","internalType":"address"},{"name":"rat","type":"address","internalType":"address"}]}],"stateMutability":"view"},{"type":"function","name":"chainIdToBatchInboxAddress","inputs":[{"name":"_l2ChainId","type":"uint256","internalType":"uint256"}],"outputs":[{"name":"","type":"address","internalType":"address"}],"stateMutability":"pure"},{"type":"function","name":"contractsContainer","inputs":[],"outputs":[{"name":"","type":"address","internalType":"contract OPContractsManagerContractsContainer"}],"stateMutability":"view"},{"type":"function","name":"implementations","inputs":[],"outputs":[{"name":"","type":"tuple","internalType":"struct OPContractsManager.Implementations","components":[{"name":"superchainConfigImpl","type":"address","internalType":"address"},{"name":"protocolVersionsImpl","type":"address","internalType":"address"},{"name":"l1ERC721BridgeImpl","type":"address","internalType":"address"},{"name":"optimismPortalImpl","type":"address","internalType":"address"},{"name":"ethLockboxImpl","type":"address","internalType":"address"},{"name":"systemConfigImpl","type":"address","internalType":"address"},{"name":"optimismMintableERC20FactoryImpl","type":"address","internalType":"address"},{"name":"l1CrossDomainMessengerImpl","type":"address","internalType":"address"},{"name":"l1StandardBridgeImpl","type":"address","internalType":"address"},{"name":"disputeGameFactoryImpl","type":"address","internalType":"address"},{"name":"anchorStateRegistryImpl","type":"address","internalType":"address"},{"name":"delayedWETHImpl","type":"address","internalType":"address"},{"name":"mipsImpl","type":"address","internalType":"address"},{"name":"ratImpl","type":"address","internalType":"address"}]}],"stateMutability":"view"},{"type":"function","name":"upgrade","inputs":[{"name":"_superchainConfig","type":"address","internalType":"contract ISuperchainConfig"},{"name":"_superchainProxyAdmin","type":"address","internalType":"contract IProxyAdmin"},{"name":"_opChainConfigs","type":"tuple[]","internalType":"struct OPContractsManager.OpChainConfig[]","components":[{"name":"systemConfigProxy","type":"address","internalType":"contract ISystemConfig"},{"name":"proxyAdmin","type":"address","internalType":"contract IProxyAdmin"},{"name":"absolutePrestate","type":"bytes32","internalType":"Claim"}]}],"outputs":[],"stateMutability":"nonpayable"},{"type":"event","name":"Upgraded","inputs":[{"name":"l2ChainId","type":"uint256","indexed":true,"internalType":"uint256"},{"name":"systemConfig","type":"address","indexed":true,"internalType":"contract ISystemConfig"},{"name":"upgrader","type":"address","indexed":true,"internalType":"address"}],"anonymous":false},{"type":"error","name":"AddressHasNoCode","inputs":[{"name":"who","type":"address","internalType":"address"}]},{"type":"error","name":"BytesArrayTooLong","inputs":[]},{"type":"error","name":"DeploymentFailed","inputs":[]},{"type":"error","name":"EmptyInitcode","inputs":[]},{"type":"error","name":"IdentityPrecompileCallFailed","inputs":[]},{"type":"error","name":"NotABlueprint","inputs":[]},{"type":"error","name":"OPContractsManagerUpgrader_SuperchainConfigMismatch","inputs":[]},{"type":"error","name":"OPContractsManager_InvalidGameType","inputs":[]},{"type":"error","name":"PrestateNotSet","inputs":[]},{"type":"error","name":"ReservedBitsSet","inputs":[]},{"type":"error","name":"UnexpectedPreambleData","inputs":[{"name":"data","type":"bytes","internalType":"bytes"}]},{"type":"error","name":"UnsupportedERCVersion","inputs":[{"name":"version","type":"uint8","internalType":"uint8"}]}],"bytecode":{"object":"0x60c06040523480156200001157600080fd5b50604051620034243803806200342483398101604081905262000034916200004a565b6001600160a01b03166080523060a0526200007c565b6000602082840312156200005d57600080fd5b81516001600160a01b03811681146200007557600080fd5b9392505050565b60805160a05161336e620000b6600039600081816111bd015261180d01526000818160c50152818161018a0152611096015261336e6000f3fe608060405234801561001057600080fd5b50600436106100725760003560e01c80638a196cd4116100505780638a196cd4146100e7578063b51f9c2b146100fc578063b6a4cd211461010457600080fd5b806330e9012c14610077578063318b1b80146100955780635a4dab33146100c0575b600080fd5b61007f610117565b60405161008c9190612a1d565b60405180910390f35b6100a86100a3366004612a2c565b610210565b6040516001600160a01b03909116815260200161008c565b6100a87f000000000000000000000000000000000000000000000000000000000000000081565b6100fa6100f5366004612b07565b61028b565b005b61007f611023565b6100fa610112366004612c13565b6110f3565b604080516101c081018252600080825260208201819052918101829052606081018290526080810182905260a0810182905260c0810182905260e08101829052610100810182905261012081018290526101408101829052610160810182905261018081018290526101a08101919091527f00000000000000000000000000000000000000000000000000000000000000006001600160a01b03166330e9012c6040518163ffffffff1660e01b81526004016101c060405180830381865afa1580156101e7573d6000803e3d6000fd5b505050506040513d601f19601f8201168201806040525081019061020b9190612d51565b905090565b604080516020808201849052825180830382018152828401845280519101206000606083018190527fffffffffffffffffffffffffffffffffffffff00000000000000000000000000821660618401528351605481850301815260749093019093528291819061027f90612d6e565b60601c95945050505050565b600061029561114a565b80516040517f204e1c7a0000000000000000000000000000000000000000000000000000000081526001600160a01b0387811660048301529293509082169185169063204e1c7a90602401602060405180830381865afa1580156102fd573d6000803e3d6000fd5b505050506040513d601f19601f820116820180604052508101906103219190612dbe565b6001600160a01b0316146103965780516040805160048152602481019091526020810180517bffffffffffffffffffffffffffffffffffffffffffffffffffffffff167fd55ec6970000000000000000000000000000000000000000000000000000000017905261039691859187919061121a565b60005b825181101561101c576103c48382815181106103b7576103b7612ddb565b60200260200101516112a4565b60008382815181106103d8576103d8612ddb565b6020026020010151600001516001600160a01b031663f2b4e6176040518163ffffffff1660e01b8152600401602060405180830381865afa158015610421573d6000803e3d6000fd5b505050506040513d601f19601f820116820180604052508101906104459190612dbe565b905061047484838151811061045c5761045c612ddb565b602002602001015160200151828561012001516112bc565b6000610481826001611347565b9050600061048e826113da565b905060008685815181106104a4576104a4612ddb565b6020026020010151600001516001600160a01b0316630a49cb036040518163ffffffff1660e01b8152600401602060405180830381865afa1580156104ed573d6000803e3d6000fd5b505050506040513d601f19601f820116820180604052508101906105119190612dbe565b9050886001600160a01b0316816001600160a01b03166335e80ab36040518163ffffffff1660e01b8152600401602060405180830381865afa15801561055b573d6000803e3d6000fd5b505050506040513d601f19601f8201168201806040525081019061057f9190612dbe565b6001600160a01b0316146105bf576040517f56b03a5c00000000000000000000000000000000000000000000000000000000815260040160405180910390fd5b61067c8786815181106105d4576105d4612ddb565b6020026020010151602001518887815181106105f2576105f2612ddb565b60209081029190910101515160a0890151604051602481018790526001600160a01b038e16604482015260640160408051601f198184030181529190526020810180517bffffffffffffffffffffffffffffffffffffffffffffffffffffffff167f028f4e470000000000000000000000000000000000000000000000000000000017905261121a565b600080826001600160a01b0316633c9f397c6040518163ffffffff1660e01b8152600401602060405180830381865afa1580156106bd573d6000803e3d6000fd5b505050506040513d601f19601f820116820180604052508101906106e19190612e0a565b9050610788848a89815181106106f9576106f9612ddb565b60200260200101516020015161074d8c8b8151811061071a5761071a612ddb565b602002602001015151604080516001600160a01b0390921660208084019190915281518084039091018152918101905290565b6040518060400160405280601781526020017f416e63686f72537461746552656769737472792d55313600000000000000000081525061143e565b91506000806107968761149c565b6040517f7258a80700000000000000000000000000000000000000000000000000000000815263ffffffff851660048201526001600160a01b039190911690637258a807906024016040805180830381865afa1580156107fa573d6000803e3d6000fd5b505050506040513d601f19601f8201168201806040525081019061081e9190612e30565b9150915061090f8b8a8151811061083757610837612ddb565b602002602001015160200151858c61014001518e8d8151811061085c5761085c612ddb565b6020908102919091018101515160408051808201825289815292830188815290516001600160a01b039283166024820152918f166044830152915160648201529051608482015263ffffffff881660a482015260c40160408051601f198184030181529190526020810180517bffffffffffffffffffffffffffffffffffffffffffffffffffffffff167f47a222c50000000000000000000000000000000000000000000000000000000017905261121a565b50505061093e88878151811061092757610927612ddb565b6020026020010151602001518389606001516112bc565b60006109b2848a898151811061095657610956612ddb565b6020026020010151602001516109778c8b8151811061071a5761071a612ddb565b6040518060400160405280600e81526020017f4554484c6f636b626f782d55313600000000000000000000000000000000000081525061143e565b6040517f99a88ec40000000000000000000000000000000000000000000000000000000081526001600160a01b0384811660048301528083166024830152919250908416906399a88ec490604401600060405180830381600087803b158015610a1a57600080fd5b505af1158015610a2e573d6000803e3d6000fd5b506000925060019150610a3e9050565b604051908082528060200260200182016040528015610a67578160200160208202803683370190505b5090508381600081518110610a7e57610a7e612ddb565b60200260200101906001600160a01b031690816001600160a01b031681525050610b528a8981518110610ab357610ab3612ddb565b602002602001015160200151838b608001518d8c81518110610ad757610ad7612ddb565b60200260200101516000015185604051602401610af5929190612e54565b60408051601f198184030181529190526020810180517bffffffffffffffffffffffffffffffffffffffffffffffffffffffff167f946d92040000000000000000000000000000000000000000000000000000000017905261121a565b836001600160a01b031663bda204bb6040518163ffffffff1660e01b8152600401600060405180830381600087803b158015610b8d57600080fd5b505af1158015610ba1573d6000803e3d6000fd5b5050505050506000888781518110610bbb57610bbb612ddb565b6020026020010151600001516001600160a01b031663a39fac126040518163ffffffff1660e01b815260040160a060405180830381865afa158015610c04573d6000803e3d6000fd5b505050506040513d601f19601f82011682018060405250810190610c289190612eaf565b9050610ce6898881518110610c3f57610c3f612ddb565b60200260200101516020015182600001518a60e001518c8b81518110610c6757610c67612ddb565b6020908102919091010151516040516001600160a01b03909116602482015260440160408051601f198184030181529190526020810180517bffffffffffffffffffffffffffffffffffffffffffffffffffffffff167f0900f0100000000000000000000000000000000000000000000000000000000017905261121a565b610d24898881518110610cfb57610cfb612ddb565b60200260200101516020015182604001518a61010001518c8b81518110610c6757610c67612ddb565b610d61898881518110610d3957610d39612ddb565b60200260200101516020015182602001518a604001518c8b81518110610c6757610c67612ddb565b506000610dd6848a8981518110610d7a57610d7a612ddb565b602002602001015160200151610d9b8c8b8151811061071a5761071a612ddb565b6040518060400160405280601b81526020017f5065726d697373696f6e656444656c61796564574554482d553136000000000081525061143e565b9050610e91898881518110610ded57610ded612ddb565b602002602001015160200151828a61016001518c8b81518110610e1257610e12612ddb565b6020908102919091010151516040516001600160a01b03909116602482015260440160408051601f198184030181529190526020810180517bffffffffffffffffffffffffffffffffffffffffffffffffffffffff167fc4d66de80000000000000000000000000000000000000000000000000000000017905261121a565b610eb98486838560018e8d81518110610eac57610eac612ddb565b6020026020010151611500565b506000610ec7866000611347565b90506001600160a01b03811615610fa5576000610f4c858b8a81518110610ef057610ef0612ddb565b602002602001015160200151610f118d8c8151811061071a5761071a612ddb565b6040518060400160405280601d81526020017f5065726d697373696f6e6c65737344656c61796564574554482d55313600000081525061143e565b9050610f888a8981518110610f6357610f63612ddb565b602002602001015160200151828b61016001518d8c81518110610e1257610e12612ddb565b610fa38583838660008f8e81518110610eac57610eac612ddb565b505b50306001600160a01b0316888781518110610fc257610fc2612ddb565b6020026020010151600001516001600160a01b0316847f78bc67b9bf548ef6410becd31a3e10b9ea6c255974ef6b4530728b431df3003060405160405180910390a45050505050808061101490612f76565b915050610399565b5050505050565b604080516101c081018252600080825260208201819052918101829052606081018290526080810182905260a0810182905260c0810182905260e08101829052610100810182905261012081018290526101408101829052610160810182905261018081018290526101a08101919091527f00000000000000000000000000000000000000000000000000000000000000006001600160a01b031663b51f9c2b6040518163ffffffff1660e01b81526004016101c060405180830381865afa1580156101e7573d6000803e3d6000fd5b806001600160a01b03163b600003611147576040517f86bb51b80000000000000000000000000000000000000000000000000000000081526001600160a01b03821660048201526024015b60405180910390fd5b50565b604080516101c081018252600080825260208201819052918101829052606081018290526080810182905260a0810182905260c0810182905260e08101829052610100810182905261012081018290526101408101829052610160810182905261018081018290526101a08101919091527f00000000000000000000000000000000000000000000000000000000000000006001600160a01b03166330e9012c6040518163ffffffff1660e01b81526004016101c060405180830381865afa1580156101e7573d6000803e3d6000fd5b611223826110f3565b6040517f9623609d0000000000000000000000000000000000000000000000000000000081526001600160a01b03851690639623609d9061126c90869086908690600401612fe8565b600060405180830381600087803b15801561128657600080fd5b505af115801561129a573d6000803e3d6000fd5b5050505050505050565b80516112af906110f3565b61114781602001516110f3565b6112c5816110f3565b6040517f99a88ec40000000000000000000000000000000000000000000000000000000081526001600160a01b03838116600483015282811660248301528416906399a88ec4906044015b600060405180830381600087803b15801561132a57600080fd5b505af115801561133e573d6000803e3d6000fd5b50505050505050565b6040517f1b685b9e00000000000000000000000000000000000000000000000000000000815263ffffffff821660048201526000906001600160a01b03841690631b685b9e90602401602060405180830381865afa1580156113ad573d6000803e3d6000fd5b505050506040513d601f19601f820116820180604052508101906113d19190612dbe565b90505b92915050565b6000816001600160a01b031663d6ae3cd56040518163ffffffff1660e01b8152600401602060405180830381865afa15801561141a573d6000803e3d6000fd5b505050506040513d601f19601f820116820180604052508101906113d49190613014565b60008061144c868585611764565b905061149261145961179a565b60200151828760405160200161147e91906001600160a01b0391909116815260200190565b60405160208183030381529060405261186a565b9695505050505050565b6000816001600160a01b0316635c0cba336040518163ffffffff1660e01b8152600401602060405180830381865afa1580156114dc573d6000803e3d6000fd5b505050506040513d601f19601f820116820180604052508101906113d49190612dbe565b600061150a61179a565b9050600061151661114a565b90506000611523886119a4565b6001600160a01b0380891660e08301528781166101008301526101808401511660c082015260408501519091501561156057604084015160208201525b602081015161159b576040517fefc878f200000000000000000000000000000000000000000000000000000000815260040160405180910390fd5b600060001963ffffffff87160161165a5760006115b78a611d69565b905060006115c48b611da9565b90506116518660a001518760c001516116418f6116068c51604080516001600160a01b0390921660208084019190915281518084039091018152918101905290565b6040518060400160405280601781526020017f5065726d697373696f6e65644469737075746547616d65000000000000000000815250611764565b61164c888787611de9565b611e70565b925050506116e2565b6116df8460e001518561010001516116d68d61169b8a51604080516001600160a01b0390921660208084019190915281518084039091018152918101905290565b6040518060400160405280601981526020017f5065726d697373696f6e6c6573734469737075746547616d6500000000000000815250611764565b61164c8661206c565b90505b600085600001516001600160a01b031663f2b4e6176040518163ffffffff1660e01b8152600401602060405180830381865afa158015611726573d6000803e3d6000fd5b505050506040513d601f19601f8201168201806040525081019061174a9190612dbe565b90506117578188846120ed565b5050505050505050505050565b600083838360405160200161177b9392919061302d565b6040516020818303038152906040528051906020012090509392505050565b604080516101c081018252600080825260208201819052918101829052606081018290526080810182905260a0810182905260c0810182905260e08101829052610100810182905261012081018290526101408101829052610160810182905261018081018290526101a08101919091527f00000000000000000000000000000000000000000000000000000000000000006001600160a01b031663b51f9c2b6040518163ffffffff1660e01b81526004016101c060405180830381865afa1580156101e7573d6000803e3d6000fd5b60008061189b856001600160a01b0316803b806020016040519081016040528181526000908060200190933c612140565b805190915060ff16156118e25780516040517f1a66c69200000000000000000000000000000000000000000000000000000000815260ff909116600482015260240161113e565b602081015151156119255780602001516040517f57a0583500000000000000000000000000000000000000000000000000000000815260040161113e9190613058565b600081604001518460405160200161193e92919061306b565b6040516020818303038152906040529050848151602083016000f592506001600160a01b03831661199b576040517f3011642500000000000000000000000000000000000000000000000000000000815260040160405180910390fd5b50509392505050565b6040805161014081018252600080825260208201819052918101829052606081018290526080810182905260a0810182905260c0810182905260e0810182905261010081018290526101208101919091526000826001600160a01b031663bbdc02db6040518163ffffffff1660e01b8152600401602060405180830381865afa158015611a35573d6000803e3d6000fd5b505050506040513d601f19601f82011682018060405250810190611a599190612e0a565b9050600063ffffffff821660041480611a78575063ffffffff82166005145b15611a8557506000611a91565b611a8e846113da565b90505b6040518061014001604052808363ffffffff168152602001856001600160a01b0316638d450a956040518163ffffffff1660e01b8152600401602060405180830381865afa158015611ae7573d6000803e3d6000fd5b505050506040513d601f19601f82011682018060405250810190611b0b9190613014565b8152602001856001600160a01b031663fa315aa96040518163ffffffff1660e01b8152600401602060405180830381865afa158015611b4e573d6000803e3d6000fd5b505050506040513d601f19601f82011682018060405250810190611b729190613014565b8152602001856001600160a01b031663ec5e63086040518163ffffffff1660e01b8152600401602060405180830381865afa158015611bb5573d6000803e3d6000fd5b505050506040513d601f19601f82011682018060405250810190611bd99190613014565b8152602001856001600160a01b0316636b6716c06040518163ffffffff1660e01b8152600401602060405180830381865afa158015611c1c573d6000803e3d6000fd5b505050506040513d601f19601f82011682018060405250810190611c40919061309a565b67ffffffffffffffff168152602001856001600160a01b031663dabd396d6040518163ffffffff1660e01b8152600401602060405180830381865afa158015611c8d573d6000803e3d6000fd5b505050506040513d601f19601f82011682018060405250810190611cb1919061309a565b67ffffffffffffffff168152602001856001600160a01b0316633a7684636040518163ffffffff1660e01b8152600401602060405180830381865afa158015611cfe573d6000803e3d6000fd5b505050506040513d601f19601f82011682018060405250810190611d229190612dbe565b6001600160a01b03168152602001611d39866125ff565b6001600160a01b03168152602001611d508661149c565b6001600160a01b03168152602001919091529392505050565b6000816001600160a01b031663a8e4fb906040518163ffffffff1660e01b8152600401602060405180830381865afa1580156114dc573d6000803e3d6000fd5b6000816001600160a01b031663534db0e26040518163ffffffff1660e01b8152600401602060405180830381865afa1580156114dc573d6000803e3d6000fd5b60606000848484604051602401611e029392919061317a565b60408051601f198184030181529190526020810180517bffffffffffffffffffffffffffffffffffffffffffffffffffffffff167f9ecd8b34000000000000000000000000000000000000000000000000000000001790529050611e6781600461263f565b95945050505050565b600080611ea1866001600160a01b0316803b806020016040519081016040528181526000908060200190933c612140565b805190915060ff1615611ee85780516040517f1a66c69200000000000000000000000000000000000000000000000000000000815260ff909116600482015260240161113e565b60208101515115611f2b5780602001516040517f57a0583500000000000000000000000000000000000000000000000000000000815260040161113e9190613058565b6000611f5b866001600160a01b0316803b806020016040519081016040528181526000908060200190933c612140565b805190915060ff1615611fa25780516040517f1a66c69200000000000000000000000000000000000000000000000000000000815260ff909116600482015260240161113e565b60208101515115611fe55780602001516040517f57a0583500000000000000000000000000000000000000000000000000000000815260040161113e9190613058565b60008260400151826040015186604051602001612004939291906131ac565b6040516020818303038152906040529050858151602083016000f593506001600160a01b038416612061576040517f3011642500000000000000000000000000000000000000000000000000000000815260040160405180910390fd5b505050949350505050565b606060008260405160240161208191906131ef565b60408051601f198184030181529190526020810180517bffffffffffffffffffffffffffffffffffffffffffffffffffffffff167f5599c6460000000000000000000000000000000000000000000000000000000017905290506120e681600461263f565b9392505050565b6040517f14f6b1a300000000000000000000000000000000000000000000000000000000815263ffffffff831660048201526001600160a01b0382811660248301528416906314f6b1a390604401611310565b6121676040518060600160405280600060ff16815260200160608152602001606081525090565b6002825110806121d157508160008151811061218557612185612ddb565b6020910101517fff00000000000000000000000000000000000000000000000000000000000000167ffe0000000000000000000000000000000000000000000000000000000000000014155b806122365750816001815181106121ea576121ea612ddb565b6020910101517fff00000000000000000000000000000000000000000000000000000000000000167f710000000000000000000000000000000000000000000000000000000000000014155b1561226d576040517f31f56e1f00000000000000000000000000000000000000000000000000000000815260040160405180910390fd5b600060028360028151811061228457612284612ddb565b602001015160f81c60f81b60fc60f81b1660f81c60ff16901c90506000836002815181106122b4576122b4612ddb565b60209101015160f81c600390811691508190036122fd576040517fb214675a00000000000000000000000000000000000000000000000000000000815260040160405180910390fd5b600060ff8216156123e95760008260ff1667ffffffffffffffff81111561232657612326612a5a565b6040519080825280601f01601f191660200182016040528015612350576020820181803683370190505b50905060005b8360ff168110156123db578661236d8260036131fe565b8151811061237d5761237d612ddb565b602001015160f81c60f81b82828151811061239a5761239a612ddb565b60200101907effffffffffffffffffffffffffffffffffffffffffffffffffffffffffffff1916908160001a905350806123d381612f76565b915050612356565b506123e581612675565b9150505b60008167ffffffffffffffff81111561240457612404612a5a565b6040519080825280601f01601f19166020018201604052801561242e576020820181803683370190505b50905060ff8316156124d3576000612447846003613216565b60ff16905060005b838110156124d0578761246282846131fe565b8151811061247257612472612ddb565b602001015160f81c60f81b83828151811061248f5761248f612ddb565b60200101907effffffffffffffffffffffffffffffffffffffffffffffffffffffffffffff1916908160001a905350806124c881612f76565b91505061244f565b50505b6000826124e1856003613216565b60ff166124ee91906131fe565b905060008188516124ff919061323b565b90508060000361253b576040517f028512d400000000000000000000000000000000000000000000000000000000815260040160405180910390fd5b60008167ffffffffffffffff81111561255657612556612a5a565b6040519080825280601f01601f191660200182016040528015612580576020820181803683370190505b50905060008360208b0101602083018481868460045afa92505050806125d2576040517ff7046f3000000000000000000000000000000000000000000000000000000000815260040160405180910390fd5b60405180606001604052808960ff1681526020018681526020018381525098505050505050505050919050565b6000816001600160a01b0316633fc8cef36040518163ffffffff1660e01b8152600401602060405180830381865afa1580156114dc573d6000803e3d6000fd5b60608251821061265e57506040805160208101909152600081526113d4565b6113d18383848651612670919061323b565b612736565b60006020825111156126b3576040517f5623dc1c00000000000000000000000000000000000000000000000000000000815260040160405180910390fd5b6000805b835181101561272f576126cb8160016131fe565b84516126d7919061323b565b6126e2906008613252565b6126ed906002613355565b8482815181106126ff576126ff612ddb565b0160200151612711919060f81c613252565b61271b90836131fe565b91508061272781612f76565b9150506126b7565b5092915050565b60608182601f0110156127a5576040517f08c379a000000000000000000000000000000000000000000000000000000000815260206004820152600e60248201527f736c6963655f6f766572666c6f77000000000000000000000000000000000000604482015260640161113e565b828284011015612811576040517f08c379a000000000000000000000000000000000000000000000000000000000815260206004820152600e60248201527f736c6963655f6f766572666c6f77000000000000000000000000000000000000604482015260640161113e565b8183018451101561287e576040517f08c379a000000000000000000000000000000000000000000000000000000000815260206004820152601160248201527f736c6963655f6f75744f66426f756e6473000000000000000000000000000000604482015260640161113e565b60608215801561289d57604051915060008252602082016040526128e7565b6040519150601f8416801560200281840101858101878315602002848b0101015b818310156128d65780518352602092830192016128be565b5050858452601f01601f1916604052505b50949350505050565b80516001600160a01b03168252602081015161291760208401826001600160a01b03169052565b50604081015161293260408401826001600160a01b03169052565b50606081015161294d60608401826001600160a01b03169052565b50608081015161296860808401826001600160a01b03169052565b5060a081015161298360a08401826001600160a01b03169052565b5060c081015161299e60c08401826001600160a01b03169052565b5060e08101516129b960e08401826001600160a01b03169052565b50610100818101516001600160a01b0390811691840191909152610120808301518216908401526101408083015182169084015261016080830151821690840152610180808301518216908401526101a08083015191821681850152905b50505050565b6101c081016113d482846128f0565b600060208284031215612a3e57600080fd5b5035919050565b6001600160a01b038116811461114757600080fd5b7f4e487b7100000000000000000000000000000000000000000000000000000000600052604160045260246000fd5b6040516060810167ffffffffffffffff81118282101715612aac57612aac612a5a565b60405290565b6040516101c0810167ffffffffffffffff81118282101715612aac57612aac612a5a565b604051601f8201601f1916810167ffffffffffffffff81118282101715612aff57612aff612a5a565b604052919050565b60008060006060808587031215612b1d57600080fd5b8435612b2881612a45565b9350602085810135612b3981612a45565b935060408681013567ffffffffffffffff80821115612b5757600080fd5b818901915089601f830112612b6b57600080fd5b813581811115612b7d57612b7d612a5a565b612b8b858260051b01612ad6565b818152858101925090860283018501908b821115612ba857600080fd5b928501925b81841015612c025786848d031215612bc55760008081fd5b612bcd612a89565b8435612bd881612a45565b815284870135612be781612a45565b81880152848601358682015283529286019291850191612bad565b809750505050505050509250925092565b600060208284031215612c2557600080fd5b81356120e681612a45565b8051612c3b81612a45565b919050565b60006101c08284031215612c5357600080fd5b612c5b612ab2565b9050612c6682612c30565b8152612c7460208301612c30565b6020820152612c8560408301612c30565b6040820152612c9660608301612c30565b6060820152612ca760808301612c30565b6080820152612cb860a08301612c30565b60a0820152612cc960c08301612c30565b60c0820152612cda60e08301612c30565b60e0820152610100612ced818401612c30565b90820152610120612cff838201612c30565b90820152610140612d11838201612c30565b90820152610160612d23838201612c30565b90820152610180612d35838201612c30565b908201526101a0612d47838201612c30565b9082015292915050565b60006101c08284031215612d6457600080fd5b6113d18383612c40565b6000815160208301517fffffffffffffffffffffffffffffffffffffffff00000000000000000000000080821693506014831015612db65780818460140360031b1b83161693505b505050919050565b600060208284031215612dd057600080fd5b81516120e681612a45565b7f4e487b7100000000000000000000000000000000000000000000000000000000600052603260045260246000fd5b600060208284031215612e1c57600080fd5b815163ffffffff811681146120e657600080fd5b60008060408385031215612e4357600080fd5b505080516020909101519092909150565b6000604082016001600160a01b0380861684526020604081860152828651808552606087019150828801945060005b81811015612ea1578551851683529483019491830191600101612e83565b509098975050505050505050565b600060a08284031215612ec157600080fd5b60405160a0810181811067ffffffffffffffff82111715612ee457612ee4612a5a565b6040528251612ef281612a45565b81526020830151612f0281612a45565b60208201526040830151612f1581612a45565b60408201526060830151612f2881612a45565b60608201526080830151612f3b81612a45565b60808201529392505050565b7f4e487b7100000000000000000000000000000000000000000000000000000000600052601160045260246000fd5b60006000198203612f8957612f89612f47565b5060010190565b60005b83811015612fab578181015183820152602001612f93565b83811115612a175750506000910152565b60008151808452612fd4816020860160208601612f90565b601f01601f19169290920160200192915050565b60006001600160a01b03808616835280851660208401525060606040830152611e676060830184612fbc565b60006020828403121561302657600080fd5b5051919050565b8381526060602082015260006130466060830185612fbc565b82810360408401526114928185612fbc565b6020815260006113d16020830184612fbc565b6000835161307d818460208801612f90565b835190830190613091818360208801612f90565b01949350505050565b6000602082840312156130ac57600080fd5b815167ffffffffffffffff811681146120e657600080fd5b805163ffffffff1682526020810151602083015260408101516040830152606081015160608301526080810151613107608084018267ffffffffffffffff169052565b5060a081015161312360a084018267ffffffffffffffff169052565b5060c081015161313e60c08401826001600160a01b03169052565b5060e081015161315960e08401826001600160a01b03169052565b50610100818101516001600160a01b03169083015261012090810151910152565b610180810161318982866130c4565b6001600160a01b0380851661014084015280841661016084015250949350505050565b600084516131be818460208901612f90565b8451908301906131d2818360208901612f90565b84519101906131e5818360208801612f90565b0195945050505050565b61014081016113d482846130c4565b6000821982111561321157613211612f47565b500190565b600060ff821660ff84168060ff0382111561323357613233612f47565b019392505050565b60008282101561324d5761324d612f47565b500390565b600081600019048311821515161561326c5761326c612f47565b500290565b600181815b808511156132ac57816000190482111561329257613292612f47565b8085161561329f57918102915b93841c9390800290613276565b509250929050565b6000826132c3575060016113d4565b816132d0575060006113d4565b81600181146132e657600281146132f05761330c565b60019150506113d4565b60ff84111561330157613301612f47565b50506001821b6113d4565b5060208310610133831016604e8410600b841016171561332f575081810a6113d4565b6133398383613271565b806000190482111561334d5761334d612f47565b029392505050565b60006113d183836132b456fea164736f6c634300080f000a","linkReferences":{}},"methodIdentifiers":{"assertValidContractAddress(address)":"b6a4cd21","blueprints()":"b51f9c2b","chainIdToBatchInboxAddress(uint256)":"318b1b80","contractsContainer()":"5a4dab33","implementations()":"30e9012c","upgrade(address,address,(address,address,bytes32)[])":"8a196cd4"},"storageLayout":{"storage":[],"types":{}},"userdoc":{"version":1,"kind":"user","methods":{"blueprints()":{"notice":"Retrieves the blueprint addresses stored in this OPCM contract"},"chainIdToBatchInboxAddress(uint256)":{"notice":"Maps an L2 chain ID to an L1 batch inbox address as defined by the standard configuration's convention. This convention is `versionByte || keccak256(bytes32(chainId))[:19]`, where || denotes concatenation`, versionByte is 0x00, and chainId is a uint256. https://specs.optimism.io/protocol/configurability.html#consensus-parameters"},"contractsContainer()":{"notice":"The blueprint contract addresses contract."},"implementations()":{"notice":"Retrieves the implementation addresses stored in this OPCM contract"},"upgrade(address,address,(address,address,bytes32)[])":{"notice":"Upgrades a set of chains to the latest implementation contracts"}},"events":{"Upgraded(uint256,address,address)":{"notice":"Emitted when a chain is upgraded"}},"errors":{"AddressHasNoCode(address)":[{"notice":"Throw when a contract address has no code."}],"BytesArrayTooLong()":[{"notice":"Thrown when converting a bytes array to a uint256 and the bytes array is too long."}],"DeploymentFailed()":[{"notice":"Throw when contract deployment fails."}],"EmptyInitcode()":[{"notice":"Thrown when parsing a blueprint preamble and the resulting initcode is empty."}],"IdentityPrecompileCallFailed()":[{"notice":"Thrown when call to the identity precompile fails."}],"NotABlueprint()":[{"notice":"Thrown when parsing a blueprint preamble and the bytecode does not contain the expected prefix bytes."}],"OPContractsManagerUpgrader_SuperchainConfigMismatch()":[{"notice":"Thrown when the SuperchainConfig contract does not match the unified config."}],"OPContractsManager_InvalidGameType()":[{"notice":"Thrown when an invalid game type is used."}],"PrestateNotSet()":[{"notice":"Thrown when a prestate is not set for a game."}],"ReservedBitsSet()":[{"notice":"Thrown when parsing a blueprint preamble and the reserved bits are set."}],"UnexpectedPreambleData(bytes)":[{"notice":"Thrown when parsing a blueprint preamble and the preamble data is not empty. We do not use the preamble data, so it's expected to be empty."}],"UnsupportedERCVersion(uint8)":[{"notice":"Thrown during deployment if the ERC version is not supported."}]}},"devdoc":{"version":1,"kind":"dev","methods":{"constructor":{"params":{"_contractsContainer":"The OPContractsManagerContractsContainer to use."}},"upgrade(address,address,(address,address,bytes32)[])":{"details":"This function is intended to be called via DELEGATECALL from the Upgrade Controller Safe","params":{"_opChainConfigs":"Array of OpChain structs, one per chain to upgrade","_superchainConfig":"The SuperchainConfig contract to upgrade","_superchainProxyAdmin":"The ProxyAdmin contract for the SuperchainConfig"}}},"events":{"Upgraded(uint256,address,address)":{"params":{"systemConfig":"Address of the chain's SystemConfig contract","upgrader":"Address that initiated the upgrade"}}}},"id":135}